{
  "_format": "hh-sol-artifact-1",
  "contractName": "VisionMiningPool",
  "sourceName": "contracts/MiningPool.sol",
  "abi": [
    {
      "inputs": [
        {
          "internalType": "address",
          "name": "_nodeLicense",
          "type": "address"
        },
        {
          "internalType": "address",
          "name": "_vcnToken",
          "type": "address"
        },
        {
          "internalType": "address",
          "name": "_oracle",
          "type": "address"
        }
      ],
      "stateMutability": "nonpayable",
      "type": "constructor"
    },
    {
      "anonymous": false,
      "inputs": [
        {
          "indexed": false,
          "internalType": "uint256",
          "name": "newStageId",
          "type": "uint256"
        },
        {
          "indexed": false,
          "internalType": "string",
          "name": "reason",
          "type": "string"
        },
        {
          "indexed": false,
          "internalType": "uint256",
          "name": "burnedAmount",
          "type": "uint256"
        }
      ],
      "name": "HalvingTriggered",
      "type": "event"
    },
    {
      "anonymous": false,
      "inputs": [
        {
          "indexed": false,
          "internalType": "uint256",
          "name": "day",
          "type": "uint256"
        },
        {
          "indexed": false,
          "internalType": "uint256",
          "name": "totalDistributed",
          "type": "uint256"
        }
      ],
      "name": "LogDailyMining",
      "type": "event"
    },
    {
      "anonymous": false,
      "inputs": [
        {
          "indexed": true,
          "internalType": "uint256",
          "name": "tokenId",
          "type": "uint256"
        },
        {
          "indexed": false,
          "internalType": "uint256",
          "name": "day",
          "type": "uint256"
        },
        {
          "indexed": false,
          "internalType": "uint256",
          "name": "aor",
          "type": "uint256"
        }
      ],
      "name": "OracleUpdated",
      "type": "event"
    },
    {
      "anonymous": false,
      "inputs": [
        {
          "indexed": true,
          "internalType": "address",
          "name": "previousOwner",
          "type": "address"
        },
        {
          "indexed": true,
          "internalType": "address",
          "name": "newOwner",
          "type": "address"
        }
      ],
      "name": "OwnershipTransferred",
      "type": "event"
    },
    {
      "anonymous": false,
      "inputs": [
        {
          "indexed": true,
          "internalType": "uint256",
          "name": "tokenId",
          "type": "uint256"
        },
        {
          "indexed": true,
          "internalType": "address",
          "name": "owner",
          "type": "address"
        },
        {
          "indexed": false,
          "internalType": "uint256",
          "name": "amount",
          "type": "uint256"
        }
      ],
      "name": "RewardClaimed",
      "type": "event"
    },
    {
      "inputs": [],
      "name": "NODE_GROWTH_TRIGGER",
      "outputs": [
        {
          "internalType": "uint256",
          "name": "",
          "type": "uint256"
        }
      ],
      "stateMutability": "view",
      "type": "function"
    },
    {
      "inputs": [],
      "name": "SECONDS_IN_YEAR",
      "outputs": [
        {
          "internalType": "uint256",
          "name": "",
          "type": "uint256"
        }
      ],
      "stateMutability": "view",
      "type": "function"
    },
    {
      "inputs": [],
      "name": "TOTAL_MINING_SUPPLY",
      "outputs": [
        {
          "internalType": "uint256",
          "name": "",
          "type": "uint256"
        }
      ],
      "stateMutability": "view",
      "type": "function"
    },
    {
      "inputs": [],
      "name": "burnedSupply",
      "outputs": [
        {
          "internalType": "uint256",
          "name": "",
          "type": "uint256"
        }
      ],
      "stateMutability": "view",
      "type": "function"
    },
    {
      "inputs": [
        {
          "internalType": "uint256",
          "name": "_tokenId",
          "type": "uint256"
        }
      ],
      "name": "calculateDailyReward",
      "outputs": [
        {
          "internalType": "uint256",
          "name": "",
          "type": "uint256"
        }
      ],
      "stateMutability": "view",
      "type": "function"
    },
    {
      "inputs": [],
      "name": "checkAndTriggerHalving",
      "outputs": [],
      "stateMutability": "nonpayable",
      "type": "function"
    },
    {
      "inputs": [
        {
          "internalType": "uint256",
          "name": "_tokenId",
          "type": "uint256"
        }
      ],
      "name": "claimReward",
      "outputs": [],
      "stateMutability": "nonpayable",
      "type": "function"
    },
    {
      "inputs": [],
      "name": "currentStageInfo",
      "outputs": [
        {
          "internalType": "uint256",
          "name": "stageId",
          "type": "uint256"
        },
        {
          "internalType": "uint256",
          "name": "startTime",
          "type": "uint256"
        },
        {
          "internalType": "uint256",
          "name": "allocatedSupply",
          "type": "uint256"
        },
        {
          "internalType": "uint256",
          "name": "minedAmount",
          "type": "uint256"
        },
        {
          "internalType": "uint256",
          "name": "startValidatorCount",
          "type": "uint256"
        },
        {
          "internalType": "uint256",
          "name": "dailyCap",
          "type": "uint256"
        }
      ],
      "stateMutability": "view",
      "type": "function"
    },
    {
      "inputs": [
        {
          "internalType": "uint256",
          "name": "",
          "type": "uint256"
        },
        {
          "internalType": "uint256",
          "name": "",
          "type": "uint256"
        }
      ],
      "name": "dailyOperatingRates",
      "outputs": [
        {
          "internalType": "uint256",
          "name": "",
          "type": "uint256"
        }
      ],
      "stateMutability": "view",
      "type": "function"
    },
    {
      "inputs": [
        {
          "internalType": "uint256",
          "name": "",
          "type": "uint256"
        }
      ],
      "name": "lastClaimTime",
      "outputs": [
        {
          "internalType": "uint256",
          "name": "",
          "type": "uint256"
        }
      ],
      "stateMutability": "view",
      "type": "function"
    },
    {
      "inputs": [],
      "name": "nodeLicense",
      "outputs": [
        {
          "internalType": "contract VisionNodeLicense",
          "name": "",
          "type": "address"
        }
      ],
      "stateMutability": "view",
      "type": "function"
    },
    {
      "inputs": [],
      "name": "oracleAddress",
      "outputs": [
        {
          "internalType": "address",
          "name": "",
          "type": "address"
        }
      ],
      "stateMutability": "view",
      "type": "function"
    },
    {
      "inputs": [],
      "name": "owner",
      "outputs": [
        {
          "internalType": "address",
          "name": "",
          "type": "address"
        }
      ],
      "stateMutability": "view",
      "type": "function"
    },
    {
      "inputs": [],
      "name": "renounceOwnership",
      "outputs": [],
      "stateMutability": "nonpayable",
      "type": "function"
    },
    {
      "inputs": [
        {
          "internalType": "uint256",
          "name": "_tokenId",
          "type": "uint256"
        },
        {
          "internalType": "uint256",
          "name": "_aor",
          "type": "uint256"
        }
      ],
      "name": "submitDailyAOR",
      "outputs": [],
      "stateMutability": "nonpayable",
      "type": "function"
    },
    {
      "inputs": [],
      "name": "totalNetworkHashPower",
      "outputs": [
        {
          "internalType": "uint256",
          "name": "",
          "type": "uint256"
        }
      ],
      "stateMutability": "view",
      "type": "function"
    },
    {
      "inputs": [
        {
          "internalType": "address",
          "name": "newOwner",
          "type": "address"
        }
      ],
      "name": "transferOwnership",
      "outputs": [],
      "stateMutability": "nonpayable",
      "type": "function"
    },
    {
      "inputs": [
        {
          "internalType": "uint256",
          "name": "_delta",
          "type": "uint256"
        },
        {
          "internalType": "bool",
          "name": "_isAdding",
          "type": "bool"
        }
      ],
      "name": "updateNetworkHash",
      "outputs": [],
      "stateMutability": "nonpayable",
      "type": "function"
    },
    {
      "inputs": [],
      "name": "vcnToken",
      "outputs": [
        {
          "internalType": "contract IERC20",
          "name": "",
          "type": "address"
        }
      ],
      "stateMutability": "view",
      "type": "function"
    }
  ],
  "bytecode": "0x60806040523480156200001157600080fd5b50604051620011553803806200115583398101604081905262000034916200017b565b6200003f336200010e565b60018055600280546001600160a01b038086166001600160a01b031992831617835560038054868316908416179055600480549185169190921617905560009062000097906b204fce5e3e25026110000000620001c5565b90506040518060c0016040528060018152602001428152602001828152602001600081526020016000815260200161016d83620000d59190620001c5565b90528051600555602081015160065560408101516007556060810151600855608081015160095560a00151600a5550620001e892505050565b600080546001600160a01b038381166001600160a01b0319831681178455604051919092169283917f8be0079c531659141344cd1fd0a4f28419497f9722a3daafe3b4186f6b6457e09190a35050565b80516001600160a01b03811681146200017657600080fd5b919050565b6000806000606084860312156200019157600080fd5b6200019c846200015e565b9250620001ac602085016200015e565b9150620001bc604085016200015e565b90509250925092565b600082620001e357634e487b7160e01b600052601260045260246000fd5b500490565b610f5d80620001f86000396000f3fe608060405234801561001057600080fd5b50600436106101205760003560e01c80638ceb1dba116100ad578063b968798e11610071578063b968798e1461026d578063c230781f14610275578063d0deef9914610288578063f0fe5bed1461029b578063f2fde38b146102c657600080fd5b80638ceb1dba1461021a5780638da5cb5b1461022d578063a89ae4ba1461023e578063ae169a5014610251578063b11bc6f71461026457600080fd5b80635dcc9391116100f45780635dcc9391146101cc578063684ce2ce146101d7578063715018a6146101df5780637cbcfb39146101e7578063877dab7e146101fa57600080fd5b806287b0d414610125578063186ba7f114610155578063222a4802146101a057806355d0a1d0146101b5575b600080fd5b600254610138906001600160a01b031681565b6040516001600160a01b0390911681526020015b60405180910390f35b600554600654600754600854600954600a5461017395949392919086565b604080519687526020870195909552938501929092526060840152608083015260a082015260c00161014c565b6101b36101ae366004610c28565b6102d9565b005b6101be600b5481565b60405190815260200161014c565b6101be6301e1338081565b6101be60fa81565b6101b3610392565b600354610138906001600160a01b031681565b6101be610208366004610c4a565b600e6020526000908152604090205481565b6101b3610228366004610c71565b6103a6565b6000546001600160a01b0316610138565b600454610138906001600160a01b031681565b6101b361025f366004610c4a565b6103ed565b6101be600c5481565b6101b36106b5565b6101be6b204fce5e3e2502611000000081565b6101be610296366004610c4a565b6107cb565b6101be6102a9366004610c28565b600d60209081526000928352604080842090915290825290205481565b6101b36102d4366004610cb6565b6108f7565b6004546001600160a01b031633146103265760405162461bcd60e51b815260206004820152600b60248201526a4f6e6c79204f7261636c6560a81b60448201526064015b60405180910390fd5b60006103356201518042610cf0565b6000848152600d60209081526040808320848452825291829020859055815183815290810185905291925084917f8d6131ead05d17bb37913bdff362964b1be7fc0762dfbf84399d91316c35f2ac910160405180910390a2505050565b61039a61096d565b6103a460006109c7565b565b6103ae61096d565b80156103d15781600c60008282546103c69190610d12565b909155506103e99050565b81600c60008282546103e39190610d2b565b90915550505b5050565b6103f5610a17565b6103fd6106b5565b6002546040516331a9108f60e11b81526004810183905233916001600160a01b031690636352211e90602401602060405180830381865afa158015610446573d6000803e3d6000fd5b505050506040513d601f19601f8201168201806040525081019061046a9190610d3e565b6001600160a01b0316146104ac5760405162461bcd60e51b81526020600482015260096024820152682737ba1037bbb732b960b91b604482015260640161031d565b60006104b7826107cb565b9050600081116104fb5760405162461bcd60e51b815260206004820152600f60248201526e139bc81d985b1a59081c995dd85c99608a1b604482015260640161031d565b60075460085461050c908390610d12565b11156105535760405162461bcd60e51b815260206004820152601660248201527514dd1859d9481cdd5c1c1b1e48195e1a185d5cdd195960521b604482015260640161031d565b60006105626201518042610cf0565b6000848152600d602052604081209192509081610580600185610d2b565b81526020808201929092526040908101600090812093909355858352600e9091528120429055600880548492906105b8908490610d12565b909155505060035460405163a9059cbb60e01b8152336004820152602481018490526001600160a01b039091169063a9059cbb906044016020604051808303816000875af115801561060e573d6000803e3d6000fd5b505050506040513d601f19601f820116820180604052508101906106329190610d6b565b6106705760405162461bcd60e51b815260206004820152600f60248201526e151c985b9cd9995c8819985a5b1959608a1b604482015260640161031d565b604051828152339084907f24b5efa61dd1cfc659205a97fb8ed868f3cb8c81922bab2b96423e5de1de2cb79060200160405180910390a350506106b260018055565b50565b6002546040805163d755d36f60e01b815290516005926000926001600160a01b039091169163d755d36f916004808201926020929091908290030181865afa158015610705573d6000803e3d6000fd5b505050506040513d601f19601f820116820180604052508101906107299190610d88565b905060006301e1338083600101546107419190610d12565b4210159050600060fa84600401546107599190610d12565b831015905081806107675750805b156107c5576107c58261079d576040518060400160405280600b81526020016a09c9e888abe8ea49eaea8960ab1b815250610a70565b6040518060400160405280600a8152602001691512535157d31253525560b21b815250610a70565b50505050565b60025460405163e2e1297160e01b815260048101839052600091829182916001600160a01b03169063e2e1297190602401600060405180830381865afa158015610819573d6000803e3d6000fd5b505050506040513d6000823e601f3d908101601f191682016040526108419190810190610dea565b945050935050508015806108555750600c54155b15610864575060009392505050565b60006108736201518042610cf0565b6000868152600d602052604081209192509081610891600185610d2b565b8152602001908152602001600020549050806000036108b65750600095945050505050565b600a54600c546000906108c98784610ece565b6108d39190610cf0565b905060646108e18483610ece565b6108eb9190610cf0565b98975050505050505050565b6108ff61096d565b6001600160a01b0381166109645760405162461bcd60e51b815260206004820152602660248201527f4f776e61626c653a206e6577206f776e657220697320746865207a65726f206160448201526564647265737360d01b606482015260840161031d565b6106b2816109c7565b6000546001600160a01b031633146103a45760405162461bcd60e51b815260206004820181905260248201527f4f776e61626c653a2063616c6c6572206973206e6f7420746865206f776e6572604482015260640161031d565b600080546001600160a01b038381166001600160a01b0319831681178455604051919092169283917f8be0079c531659141344cd1fd0a4f28419497f9722a3daafe3b4186f6b6457e09190a35050565b600260015403610a695760405162461bcd60e51b815260206004820152601f60248201527f5265656e7472616e637947756172643a207265656e7472616e742063616c6c00604482015260640161031d565b6002600155565b6040805160c08101825260055481526006546020820152600754918101829052600854606082018190526009546080830152600a5460a083015290916000911015610ae35781606001518260400151610ac99190610d2b565b905080600b6000828254610add9190610d12565b90915550505b8151600090610af3906001610d12565b9050600060028460400151610b089190610cf0565b90506040518060c0016040528083815260200142815260200182815260200160008152602001600260009054906101000a90046001600160a01b03166001600160a01b031663d755d36f6040518163ffffffff1660e01b8152600401602060405180830381865afa158015610b81573d6000803e3d6000fd5b505050506040513d601f19601f82011682018060405250810190610ba59190610d88565b8152602001610bb661016d84610cf0565b9052805160055560208101516006556040808201516007556060820151600855608082015160095560a090910151600a55517f0d158bc741f8e3a33b9b78d4ed2f2c350155079e60d921e78370383ab3588eed90610c1990849088908790610ee5565b60405180910390a15050505050565b60008060408385031215610c3b57600080fd5b50508035926020909101359150565b600060208284031215610c5c57600080fd5b5035919050565b80151581146106b257600080fd5b60008060408385031215610c8457600080fd5b823591506020830135610c9681610c63565b809150509250929050565b6001600160a01b03811681146106b257600080fd5b600060208284031215610cc857600080fd5b8135610cd381610ca1565b9392505050565b634e487b7160e01b600052601160045260246000fd5b600082610d0d57634e487b7160e01b600052601260045260246000fd5b500490565b80820180821115610d2557610d25610cda565b92915050565b81810381811115610d2557610d25610cda565b600060208284031215610d5057600080fd5b8151610cd381610ca1565b8051610d6681610c63565b919050565b600060208284031215610d7d57600080fd5b8151610cd381610c63565b600060208284031215610d9a57600080fd5b5051919050565b634e487b7160e01b600052604160045260246000fd5b60005b83811015610dd2578181015183820152602001610dba565b50506000910152565b805160038110610d6657600080fd5b600080600080600060a08688031215610e0257600080fd5b855167ffffffffffffffff80821115610e1a57600080fd5b818801915088601f830112610e2e57600080fd5b815181811115610e4057610e40610da1565b604051601f8201601f19908116603f01168101908382118183101715610e6857610e68610da1565b816040528281528b6020848701011115610e8157600080fd5b610e92836020830160208801610db7565b8099505050505050610ea660208701610ddb565b93506040860151925060608601519150610ec260808701610d5b565b90509295509295909350565b8082028115828204841417610d2557610d25610cda565b8381526060602082015260008351806060840152610f0a816080850160208801610db7565b604083019390935250601f91909101601f1916016080019291505056fea2646970667358221220af904f6c4828debf70d07a2b0354e7f9da1e89740f0dd6b676ed44c13db09eec64736f6c63430008140033",
  "linkReferences": {},
  "deployedLinkReferences": {}
}