{
  "_format": "hh-sol-artifact-1",
  "contractName": "VisionNodeLicense",
  "sourceName": "contracts/NodeLicense.sol",
  "abi": [
    {
      "inputs": [
        {
          "internalType": "address",
          "name": "_vcnTokenAddress",
          "type": "address"
        }
      ],
      "stateMutability": "nonpayable",
      "type": "constructor"
    },
    {
      "anonymous": false,
      "inputs": [
        {
          "indexed": true,
          "internalType": "address",
          "name": "owner",
          "type": "address"
        },
        {
          "indexed": true,
          "internalType": "address",
          "name": "approved",
          "type": "address"
        },
        {
          "indexed": true,
          "internalType": "uint256",
          "name": "tokenId",
          "type": "uint256"
        }
      ],
      "name": "Approval",
      "type": "event"
    },
    {
      "anonymous": false,
      "inputs": [
        {
          "indexed": true,
          "internalType": "address",
          "name": "owner",
          "type": "address"
        },
        {
          "indexed": true,
          "internalType": "address",
          "name": "operator",
          "type": "address"
        },
        {
          "indexed": false,
          "internalType": "bool",
          "name": "approved",
          "type": "bool"
        }
      ],
      "name": "ApprovalForAll",
      "type": "event"
    },
    {
      "anonymous": false,
      "inputs": [
        {
          "indexed": true,
          "internalType": "address",
          "name": "owner",
          "type": "address"
        },
        {
          "indexed": true,
          "internalType": "uint256",
          "name": "tokenId",
          "type": "uint256"
        },
        {
          "indexed": false,
          "internalType": "enum VisionNodeLicense.NodeTier",
          "name": "tier",
          "type": "uint8"
        },
        {
          "indexed": false,
          "internalType": "uint256",
          "name": "multiplier",
          "type": "uint256"
        }
      ],
      "name": "LicenseMinted",
      "type": "event"
    },
    {
      "anonymous": false,
      "inputs": [
        {
          "indexed": true,
          "internalType": "uint256",
          "name": "tokenId",
          "type": "uint256"
        },
        {
          "indexed": false,
          "internalType": "uint256",
          "name": "timestamp",
          "type": "uint256"
        }
      ],
      "name": "NodeActivated",
      "type": "event"
    },
    {
      "anonymous": false,
      "inputs": [
        {
          "indexed": true,
          "internalType": "uint256",
          "name": "tokenId",
          "type": "uint256"
        },
        {
          "indexed": false,
          "internalType": "uint256",
          "name": "timestamp",
          "type": "uint256"
        }
      ],
      "name": "NodeDeactivated",
      "type": "event"
    },
    {
      "anonymous": false,
      "inputs": [
        {
          "indexed": true,
          "internalType": "address",
          "name": "previousOwner",
          "type": "address"
        },
        {
          "indexed": true,
          "internalType": "address",
          "name": "newOwner",
          "type": "address"
        }
      ],
      "name": "OwnershipTransferred",
      "type": "event"
    },
    {
      "anonymous": false,
      "inputs": [
        {
          "indexed": true,
          "internalType": "address",
          "name": "from",
          "type": "address"
        },
        {
          "indexed": true,
          "internalType": "address",
          "name": "to",
          "type": "address"
        },
        {
          "indexed": true,
          "internalType": "uint256",
          "name": "tokenId",
          "type": "uint256"
        }
      ],
      "name": "Transfer",
      "type": "event"
    },
    {
      "inputs": [],
      "name": "MAX_ENTERPRISE",
      "outputs": [
        {
          "internalType": "uint256",
          "name": "",
          "type": "uint256"
        }
      ],
      "stateMutability": "view",
      "type": "function"
    },
    {
      "inputs": [],
      "name": "MAX_FOUNDER",
      "outputs": [
        {
          "internalType": "uint256",
          "name": "",
          "type": "uint256"
        }
      ],
      "stateMutability": "view",
      "type": "function"
    },
    {
      "inputs": [],
      "name": "MAX_VALIDATOR",
      "outputs": [
        {
          "internalType": "uint256",
          "name": "",
          "type": "uint256"
        }
      ],
      "stateMutability": "view",
      "type": "function"
    },
    {
      "inputs": [
        {
          "internalType": "uint256",
          "name": "_tokenId",
          "type": "uint256"
        }
      ],
      "name": "activateNode",
      "outputs": [],
      "stateMutability": "nonpayable",
      "type": "function"
    },
    {
      "inputs": [
        {
          "internalType": "address",
          "name": "to",
          "type": "address"
        },
        {
          "internalType": "uint256",
          "name": "tokenId",
          "type": "uint256"
        }
      ],
      "name": "approve",
      "outputs": [],
      "stateMutability": "nonpayable",
      "type": "function"
    },
    {
      "inputs": [
        {
          "internalType": "address",
          "name": "owner",
          "type": "address"
        }
      ],
      "name": "balanceOf",
      "outputs": [
        {
          "internalType": "uint256",
          "name": "",
          "type": "uint256"
        }
      ],
      "stateMutability": "view",
      "type": "function"
    },
    {
      "inputs": [],
      "name": "currentEnterpriseCount",
      "outputs": [
        {
          "internalType": "uint256",
          "name": "",
          "type": "uint256"
        }
      ],
      "stateMutability": "view",
      "type": "function"
    },
    {
      "inputs": [],
      "name": "currentFounderCount",
      "outputs": [
        {
          "internalType": "uint256",
          "name": "",
          "type": "uint256"
        }
      ],
      "stateMutability": "view",
      "type": "function"
    },
    {
      "inputs": [],
      "name": "currentValidatorCount",
      "outputs": [
        {
          "internalType": "uint256",
          "name": "",
          "type": "uint256"
        }
      ],
      "stateMutability": "view",
      "type": "function"
    },
    {
      "inputs": [
        {
          "internalType": "uint256",
          "name": "_tokenId",
          "type": "uint256"
        }
      ],
      "name": "deactivateNode",
      "outputs": [],
      "stateMutability": "nonpayable",
      "type": "function"
    },
    {
      "inputs": [
        {
          "internalType": "address",
          "name": "_to",
          "type": "address"
        },
        {
          "internalType": "string",
          "name": "_uuid",
          "type": "string"
        }
      ],
      "name": "distributeFounderNode",
      "outputs": [],
      "stateMutability": "nonpayable",
      "type": "function"
    },
    {
      "inputs": [],
      "name": "enterprisePrice",
      "outputs": [
        {
          "internalType": "uint256",
          "name": "",
          "type": "uint256"
        }
      ],
      "stateMutability": "view",
      "type": "function"
    },
    {
      "inputs": [
        {
          "internalType": "uint256",
          "name": "tokenId",
          "type": "uint256"
        }
      ],
      "name": "getApproved",
      "outputs": [
        {
          "internalType": "address",
          "name": "",
          "type": "address"
        }
      ],
      "stateMutability": "view",
      "type": "function"
    },
    {
      "inputs": [
        {
          "internalType": "address",
          "name": "owner",
          "type": "address"
        },
        {
          "internalType": "address",
          "name": "operator",
          "type": "address"
        }
      ],
      "name": "isApprovedForAll",
      "outputs": [
        {
          "internalType": "bool",
          "name": "",
          "type": "bool"
        }
      ],
      "stateMutability": "view",
      "type": "function"
    },
    {
      "inputs": [],
      "name": "name",
      "outputs": [
        {
          "internalType": "string",
          "name": "",
          "type": "string"
        }
      ],
      "stateMutability": "view",
      "type": "function"
    },
    {
      "inputs": [
        {
          "internalType": "uint256",
          "name": "",
          "type": "uint256"
        }
      ],
      "name": "nodeDetails",
      "outputs": [
        {
          "internalType": "string",
          "name": "uuid",
          "type": "string"
        },
        {
          "internalType": "enum VisionNodeLicense.NodeTier",
          "name": "tier",
          "type": "uint8"
        },
        {
          "internalType": "uint256",
          "name": "multiplier",
          "type": "uint256"
        },
        {
          "internalType": "uint256",
          "name": "activationTime",
          "type": "uint256"
        },
        {
          "internalType": "bool",
          "name": "isActive",
          "type": "bool"
        }
      ],
      "stateMutability": "view",
      "type": "function"
    },
    {
      "inputs": [],
      "name": "owner",
      "outputs": [
        {
          "internalType": "address",
          "name": "",
          "type": "address"
        }
      ],
      "stateMutability": "view",
      "type": "function"
    },
    {
      "inputs": [
        {
          "internalType": "uint256",
          "name": "tokenId",
          "type": "uint256"
        }
      ],
      "name": "ownerOf",
      "outputs": [
        {
          "internalType": "address",
          "name": "",
          "type": "address"
        }
      ],
      "stateMutability": "view",
      "type": "function"
    },
    {
      "inputs": [
        {
          "internalType": "string",
          "name": "_uuid",
          "type": "string"
        },
        {
          "internalType": "enum VisionNodeLicense.NodeTier",
          "name": "_tier",
          "type": "uint8"
        }
      ],
      "name": "purchaseLicense",
      "outputs": [],
      "stateMutability": "nonpayable",
      "type": "function"
    },
    {
      "inputs": [],
      "name": "renounceOwnership",
      "outputs": [],
      "stateMutability": "nonpayable",
      "type": "function"
    },
    {
      "inputs": [
        {
          "internalType": "address",
          "name": "from",
          "type": "address"
        },
        {
          "internalType": "address",
          "name": "to",
          "type": "address"
        },
        {
          "internalType": "uint256",
          "name": "tokenId",
          "type": "uint256"
        }
      ],
      "name": "safeTransferFrom",
      "outputs": [],
      "stateMutability": "nonpayable",
      "type": "function"
    },
    {
      "inputs": [
        {
          "internalType": "address",
          "name": "from",
          "type": "address"
        },
        {
          "internalType": "address",
          "name": "to",
          "type": "address"
        },
        {
          "internalType": "uint256",
          "name": "tokenId",
          "type": "uint256"
        },
        {
          "internalType": "bytes",
          "name": "data",
          "type": "bytes"
        }
      ],
      "name": "safeTransferFrom",
      "outputs": [],
      "stateMutability": "nonpayable",
      "type": "function"
    },
    {
      "inputs": [
        {
          "internalType": "address",
          "name": "operator",
          "type": "address"
        },
        {
          "internalType": "bool",
          "name": "approved",
          "type": "bool"
        }
      ],
      "name": "setApprovalForAll",
      "outputs": [],
      "stateMutability": "nonpayable",
      "type": "function"
    },
    {
      "inputs": [
        {
          "internalType": "bytes4",
          "name": "interfaceId",
          "type": "bytes4"
        }
      ],
      "name": "supportsInterface",
      "outputs": [
        {
          "internalType": "bool",
          "name": "",
          "type": "bool"
        }
      ],
      "stateMutability": "view",
      "type": "function"
    },
    {
      "inputs": [],
      "name": "symbol",
      "outputs": [
        {
          "internalType": "string",
          "name": "",
          "type": "string"
        }
      ],
      "stateMutability": "view",
      "type": "function"
    },
    {
      "inputs": [
        {
          "internalType": "uint256",
          "name": "tokenId",
          "type": "uint256"
        }
      ],
      "name": "tokenURI",
      "outputs": [
        {
          "internalType": "string",
          "name": "",
          "type": "string"
        }
      ],
      "stateMutability": "view",
      "type": "function"
    },
    {
      "inputs": [
        {
          "internalType": "address",
          "name": "from",
          "type": "address"
        },
        {
          "internalType": "address",
          "name": "to",
          "type": "address"
        },
        {
          "internalType": "uint256",
          "name": "tokenId",
          "type": "uint256"
        }
      ],
      "name": "transferFrom",
      "outputs": [],
      "stateMutability": "nonpayable",
      "type": "function"
    },
    {
      "inputs": [
        {
          "internalType": "address",
          "name": "newOwner",
          "type": "address"
        }
      ],
      "name": "transferOwnership",
      "outputs": [],
      "stateMutability": "nonpayable",
      "type": "function"
    },
    {
      "inputs": [
        {
          "internalType": "string",
          "name": "",
          "type": "string"
        }
      ],
      "name": "uuidToTokenId",
      "outputs": [
        {
          "internalType": "uint256",
          "name": "",
          "type": "uint256"
        }
      ],
      "stateMutability": "view",
      "type": "function"
    },
    {
      "inputs": [],
      "name": "validatorPrice",
      "outputs": [
        {
          "internalType": "uint256",
          "name": "",
          "type": "uint256"
        }
      ],
      "stateMutability": "view",
      "type": "function"
    },
    {
      "inputs": [],
      "name": "vcnToken",
      "outputs": [
        {
          "internalType": "contract IERC20",
          "name": "",
          "type": "address"
        }
      ],
      "stateMutability": "view",
      "type": "function"
    }
  ],
  "bytecode": "0x6080604052690a968163f0a57b400000600e5569010f0cf064dd59200000600f553480156200002d57600080fd5b50604051620022ce380380620022ce833981016040819052620000509162000151565b60405180604001604052806011815260200170566973696f6e4e6f64654c6963656e736560781b81525060405180604001604052806005815260200164564e4f444560d81b8152508160009081620000a9919062000228565b506001620000b8828262000228565b505050620000d5620000cf620000fb60201b60201c565b620000ff565b600880546001600160a01b0319166001600160a01b0392909216919091179055620002f4565b3390565b600680546001600160a01b038381166001600160a01b0319831681179093556040519116919082907f8be0079c531659141344cd1fd0a4f28419497f9722a3daafe3b4186f6b6457e090600090a35050565b6000602082840312156200016457600080fd5b81516001600160a01b03811681146200017c57600080fd5b9392505050565b634e487b7160e01b600052604160045260246000fd5b600181811c90821680620001ae57607f821691505b602082108103620001cf57634e487b7160e01b600052602260045260246000fd5b50919050565b601f8211156200022357600081815260208120601f850160051c81016020861015620001fe5750805b601f850160051c820191505b818110156200021f578281556001016200020a565b5050505b505050565b81516001600160401b0381111562000244576200024462000183565b6200025c8162000255845462000199565b84620001d5565b602080601f8311600181146200029457600084156200027b5750858301515b600019600386901b1c1916600185901b1785556200021f565b600085815260208120601f198616915b82811015620002c557888601518255948401946001909101908401620002a4565b5085821015620002e45787850151600019600388901b60f8161c191681555b5050505050600190811b01905550565b611fca80620003046000396000f3fe608060405234801561001057600080fd5b50600436106101e55760003560e01c80637cbcfb391161010f578063d755d36f116100a2578063e985e9c511610071578063e985e9c5146103f4578063e9d6383014610430578063f2fde38b14610443578063fdd5d01d1461045657600080fd5b8063d755d36f146103b5578063de517063146103be578063e2e12971146103c7578063e576da0d146103eb57600080fd5b8063a22cb465116100de578063a22cb46514610351578063b024a70914610364578063b88d4fde1461038f578063c87b56dd146103a257600080fd5b80637cbcfb39146103125780638da5cb5b146103255780638e7d68821461033657806395d89b411461034957600080fd5b80632a1add4f116101875780634d98b162116101565780634d98b162146102db5780636352211e146102e457806370a08231146102f7578063715018a61461030a57600080fd5b80632a1add4f146102a45780632d8a3ce8146102ac578063352a20e9146102bf57806342842e0e146102c857600080fd5b806308975904116101c35780630897590414610252578063095ea7b31461026957806310a36c061461027e57806323b872dd1461029157600080fd5b806301ffc9a7146101ea57806306fdde0314610212578063081812fc14610227575b600080fd5b6101fd6101f8366004611848565b61045f565b60405190151581526020015b60405180910390f35b61021a6104b1565b60405161020991906118b5565b61023a6102353660046118c8565b610543565b6040516001600160a01b039091168152602001610209565b61025b600f5481565b604051908152602001610209565b61027c6102773660046118fd565b61056a565b005b61027c61028c3660046118c8565b610684565b61027c61029f366004611927565b61074a565b61025b600c81565b61027c6102ba366004611a0f565b61077b565b61025b600b5481565b61027c6102d6366004611927565b610a0c565b61025b6101f481565b61023a6102f23660046118c8565b610a27565b61025b610305366004611a65565b610a87565b61027c610b0d565b60085461023a906001600160a01b031681565b6006546001600160a01b031661023a565b61027c610344366004611a80565b610b21565b61021a610c0a565b61027c61035f366004611adc565b610c19565b61025b610372366004611b08565b8051602081830181018051600a8252928201919093012091525481565b61027c61039d366004611b3d565b610c24565b61021a6103b03660046118c8565b610c56565b61025b600d5481565b61025b61138881565b6103da6103d53660046118c8565b610cca565b604051610209959493929190611bf1565b61025b600c5481565b6101fd610402366004611c31565b6001600160a01b03918216600090815260056020908152604080832093909416825291909152205460ff1690565b61027c61043e3660046118c8565b610d87565b61027c610451366004611a65565b610e20565b61025b600e5481565b60006001600160e01b031982166380ac58cd60e01b148061049057506001600160e01b03198216635b5e139f60e01b145b806104ab57506301ffc9a760e01b6001600160e01b03198316145b92915050565b6060600080546104c090611c64565b80601f01602080910402602001604051908101604052809291908181526020018280546104ec90611c64565b80156105395780601f1061050e57610100808354040283529160200191610539565b820191906000526020600020905b81548152906001019060200180831161051c57829003601f168201915b5050505050905090565b600061054e82610e99565b506000908152600460205260409020546001600160a01b031690565b600061057582610a27565b9050806001600160a01b0316836001600160a01b0316036105e75760405162461bcd60e51b815260206004820152602160248201527f4552433732313a20617070726f76616c20746f2063757272656e74206f776e656044820152603960f91b60648201526084015b60405180910390fd5b336001600160a01b038216148061060357506106038133610402565b6106755760405162461bcd60e51b815260206004820152603d60248201527f4552433732313a20617070726f76652063616c6c6572206973206e6f7420746f60448201527f6b656e206f776e6572206f7220617070726f76656420666f7220616c6c00000060648201526084016105de565b61067f8383610ef8565b505050565b3361068e82610a27565b6001600160a01b0316146106d05760405162461bcd60e51b81526020600482015260096024820152682737ba1037bbb732b960b91b60448201526064016105de565b600081815260096020526040812060048101805460ff1916600117905560030154900361070d576000818152600960205260409020426003909101555b807fcf0e24cced4489fcd3850be311b071036d458bcac95f06eb9eb33d7becb413334260405161073f91815260200190565b60405180910390a250565b6107543382610f66565b6107705760405162461bcd60e51b81526004016105de90611c9e565b61067f838383610fe5565b600a8260405161078b9190611ceb565b9081526020016040518091039020546000146107e35760405162461bcd60e51b81526020600482015260176024820152761555525108185b1c9958591e481c9959da5cdd195c9959604a1b60448201526064016105de565b60028160028111156107f7576107f7611bb9565b036108445760405162461bcd60e51b815260206004820152601e60248201527f466f756e646572204e6f64657320617265206e6f7420666f722073616c65000060448201526064016105de565b600080600183600281111561085b5761085b611bb9565b036108d2576101f4600c54106108b35760405162461bcd60e51b815260206004820152601b60248201527f456e7465727072697365204e6f6465204361702052656163686564000000000060448201526064016105de565b5050600e54600c80548160006108c883611d07565b9190505550610942565b611388600d54106109255760405162461bcd60e51b815260206004820152601a60248201527f56616c696461746f72204e6f646520436170205265616368656400000000000060448201526064016105de565b5050600f54600d8054600191600061093c83611d07565b91905055505b6008546040516323b872dd60e01b8152336004820152306024820152604481018490526001600160a01b03909116906323b872dd906064016020604051808303816000875af1158015610999573d6000803e3d6000fd5b505050506040513d601f19601f820116820180604052508101906109bd9190611d2e565b6109fa5760405162461bcd60e51b815260206004820152600e60248201526d14185e5b595b9d0819985a5b195960921b60448201526064016105de565b610a0633858584611149565b50505050565b61067f83838360405180602001604052806000815250610c24565b6000818152600260205260408120546001600160a01b0316806104ab5760405162461bcd60e51b8152602060048201526018602482015277115490cdcc8c4e881a5b9d985b1a59081d1bdad95b88125160421b60448201526064016105de565b60006001600160a01b038216610af15760405162461bcd60e51b815260206004820152602960248201527f4552433732313a2061646472657373207a65726f206973206e6f7420612076616044820152683634b21037bbb732b960b91b60648201526084016105de565b506001600160a01b031660009081526003602052604090205490565b610b1561128e565b610b1f60006112e8565b565b610b2961128e565b600c600b5410610b7b5760405162461bcd60e51b815260206004820152601860248201527f466f756e646572204e6f6465204361702052656163686564000000000000000060448201526064016105de565b600a81604051610b8b9190611ceb565b908152602001604051809103902054600014610be35760405162461bcd60e51b81526020600482015260176024820152761555525108185b1c9958591e481c9959da5cdd195c9959604a1b60448201526064016105de565b600b8054906000610bf383611d07565b9190505550610c0682826002601e611149565b5050565b6060600180546104c090611c64565b610c0633838361133a565b610c2e3383610f66565b610c4a5760405162461bcd60e51b81526004016105de90611c9e565b610a0684848484611408565b6060610c6182610e99565b6000610c7860408051602081019091526000815290565b90506000815111610c985760405180602001604052806000815250610cc3565b80610ca28461143b565b604051602001610cb3929190611d4b565b6040516020818303038152906040525b9392505050565b600960205260009081526040902080548190610ce590611c64565b80601f0160208091040260200160405190810160405280929190818152602001828054610d1190611c64565b8015610d5e5780601f10610d3357610100808354040283529160200191610d5e565b820191906000526020600020905b815481529060010190602001808311610d4157829003601f168201915b505050600184015460028501546003860154600490960154949560ff9283169591945092501685565b33610d9182610a27565b6001600160a01b031614610dd35760405162461bcd60e51b81526020600482015260096024820152682737ba1037bbb732b960b91b60448201526064016105de565b60008181526009602052604090819020600401805460ff191690555181907f15de289d93f2b04f6e4abb879011c8a3749e4b67c0634312ab1e91fa6407804d9061073f9042815260200190565b610e2861128e565b6001600160a01b038116610e8d5760405162461bcd60e51b815260206004820152602660248201527f4f776e61626c653a206e6577206f776e657220697320746865207a65726f206160448201526564647265737360d01b60648201526084016105de565b610e96816112e8565b50565b6000818152600260205260409020546001600160a01b0316610e965760405162461bcd60e51b8152602060048201526018602482015277115490cdcc8c4e881a5b9d985b1a59081d1bdad95b88125160421b60448201526064016105de565b600081815260046020526040902080546001600160a01b0319166001600160a01b0384169081179091558190610f2d82610a27565b6001600160a01b03167f8c5be1e5ebec7d5bd14f71427d1e84f3dd0314c0f7b2291e5b200ac8c7c3b92560405160405180910390a45050565b600080610f7283610a27565b9050806001600160a01b0316846001600160a01b03161480610fb957506001600160a01b0380821660009081526005602090815260408083209388168352929052205460ff165b80610fdd5750836001600160a01b0316610fd284610543565b6001600160a01b0316145b949350505050565b826001600160a01b0316610ff882610a27565b6001600160a01b03161461101e5760405162461bcd60e51b81526004016105de90611d7a565b6001600160a01b0382166110805760405162461bcd60e51b8152602060048201526024808201527f4552433732313a207472616e7366657220746f20746865207a65726f206164646044820152637265737360e01b60648201526084016105de565b826001600160a01b031661109382610a27565b6001600160a01b0316146110b95760405162461bcd60e51b81526004016105de90611d7a565b600081815260046020908152604080832080546001600160a01b03199081169091556001600160a01b0387811680865260038552838620805460001901905590871680865283862080546001019055868652600290945282852080549092168417909155905184937fddf252ad1be2c89b69c2b068fc378daa952ba7f163c4a11628f55a4df523b3ef91a4505050565b611157600780546001019055565b600061116260075490565b905061116e85826114ce565b6040518060a0016040528085815260200184600281111561119157611191611bb9565b81526020808201859052600060408084018290526060909301819052848152600990915220815181906111c49082611e0d565b50602082015160018083018054909160ff19909116908360028111156111ec576111ec611bb9565b02179055506040828101516002830155606083015160038301556080909201516004909101805460ff1916911515919091179055518190600a90611231908790611ceb565b90815260200160405180910390208190555080856001600160a01b03167f086d86777613c0607b2b012890e8fd22e796dd3c9572baf2247f7b22de396f1b858560405161127f929190611ecd565b60405180910390a35050505050565b6006546001600160a01b03163314610b1f5760405162461bcd60e51b815260206004820181905260248201527f4f776e61626c653a2063616c6c6572206973206e6f7420746865206f776e657260448201526064016105de565b600680546001600160a01b038381166001600160a01b0319831681179093556040519116919082907f8be0079c531659141344cd1fd0a4f28419497f9722a3daafe3b4186f6b6457e090600090a35050565b816001600160a01b0316836001600160a01b03160361139b5760405162461bcd60e51b815260206004820152601960248201527f4552433732313a20617070726f766520746f2063616c6c65720000000000000060448201526064016105de565b6001600160a01b03838116600081815260056020908152604080832094871680845294825291829020805460ff191686151590811790915591519182527f17307eab39ab6107e8899845ad3d59bd9653f200f220920489ca2b5937696c31910160405180910390a3505050565b611413848484610fe5565b61141f84848484611659565b610a065760405162461bcd60e51b81526004016105de90611ee8565b606060006114488361175a565b600101905060008167ffffffffffffffff81111561146857611468611963565b6040519080825280601f01601f191660200182016040528015611492576020820181803683370190505b5090508181016020015b600019016f181899199a1a9b1b9c1cb0b131b232b360811b600a86061a8153600a850494508461149c57509392505050565b6001600160a01b0382166115245760405162461bcd60e51b815260206004820181905260248201527f4552433732313a206d696e7420746f20746865207a65726f206164647265737360448201526064016105de565b6000818152600260205260409020546001600160a01b0316156115895760405162461bcd60e51b815260206004820152601c60248201527f4552433732313a20746f6b656e20616c7265616479206d696e7465640000000060448201526064016105de565b6000818152600260205260409020546001600160a01b0316156115ee5760405162461bcd60e51b815260206004820152601c60248201527f4552433732313a20746f6b656e20616c7265616479206d696e7465640000000060448201526064016105de565b6001600160a01b038216600081815260036020908152604080832080546001019055848352600290915280822080546001600160a01b0319168417905551839291907fddf252ad1be2c89b69c2b068fc378daa952ba7f163c4a11628f55a4df523b3ef908290a45050565b60006001600160a01b0384163b1561174f57604051630a85bd0160e11b81526001600160a01b0385169063150b7a029061169d903390899088908890600401611f3a565b6020604051808303816000875af19250505080156116d8575060408051601f3d908101601f191682019092526116d591810190611f77565b60015b611735573d808015611706576040519150601f19603f3d011682016040523d82523d6000602084013e61170b565b606091505b50805160000361172d5760405162461bcd60e51b81526004016105de90611ee8565b805181602001fd5b6001600160e01b031916630a85bd0160e11b149050610fdd565b506001949350505050565b60008072184f03e93ff9f4daa797ed6e38ed64bf6a1f0160401b83106117995772184f03e93ff9f4daa797ed6e38ed64bf6a1f0160401b830492506040015b6d04ee2d6d415b85acef810000000083106117c5576d04ee2d6d415b85acef8100000000830492506020015b662386f26fc1000083106117e357662386f26fc10000830492506010015b6305f5e10083106117fb576305f5e100830492506008015b612710831061180f57612710830492506004015b60648310611821576064830492506002015b600a83106104ab5760010192915050565b6001600160e01b031981168114610e9657600080fd5b60006020828403121561185a57600080fd5b8135610cc381611832565b60005b83811015611880578181015183820152602001611868565b50506000910152565b600081518084526118a1816020860160208601611865565b601f01601f19169290920160200192915050565b602081526000610cc36020830184611889565b6000602082840312156118da57600080fd5b5035919050565b80356001600160a01b03811681146118f857600080fd5b919050565b6000806040838503121561191057600080fd5b611919836118e1565b946020939093013593505050565b60008060006060848603121561193c57600080fd5b611945846118e1565b9250611953602085016118e1565b9150604084013590509250925092565b634e487b7160e01b600052604160045260246000fd5b600067ffffffffffffffff8084111561199457611994611963565b604051601f8501601f19908116603f011681019082821181831017156119bc576119bc611963565b816040528093508581528686860111156119d557600080fd5b858560208301376000602087830101525050509392505050565b600082601f830112611a0057600080fd5b610cc383833560208501611979565b60008060408385031215611a2257600080fd5b823567ffffffffffffffff811115611a3957600080fd5b611a45858286016119ef565b925050602083013560038110611a5a57600080fd5b809150509250929050565b600060208284031215611a7757600080fd5b610cc3826118e1565b60008060408385031215611a9357600080fd5b611a9c836118e1565b9150602083013567ffffffffffffffff811115611ab857600080fd5b611ac4858286016119ef565b9150509250929050565b8015158114610e9657600080fd5b60008060408385031215611aef57600080fd5b611af8836118e1565b91506020830135611a5a81611ace565b600060208284031215611b1a57600080fd5b813567ffffffffffffffff811115611b3157600080fd5b610fdd848285016119ef565b60008060008060808587031215611b5357600080fd5b611b5c856118e1565b9350611b6a602086016118e1565b925060408501359150606085013567ffffffffffffffff811115611b8d57600080fd5b8501601f81018713611b9e57600080fd5b611bad87823560208401611979565b91505092959194509250565b634e487b7160e01b600052602160045260246000fd5b60038110611bed57634e487b7160e01b600052602160045260246000fd5b9052565b60a081526000611c0460a0830188611889565b9050611c136020830187611bcf565b84604083015283606083015282151560808301529695505050505050565b60008060408385031215611c4457600080fd5b611c4d836118e1565b9150611c5b602084016118e1565b90509250929050565b600181811c90821680611c7857607f821691505b602082108103611c9857634e487b7160e01b600052602260045260246000fd5b50919050565b6020808252602d908201527f4552433732313a2063616c6c6572206973206e6f7420746f6b656e206f776e6560408201526c1c881bdc88185c1c1c9bdd9959609a1b606082015260800190565b60008251611cfd818460208701611865565b9190910192915050565b600060018201611d2757634e487b7160e01b600052601160045260246000fd5b5060010190565b600060208284031215611d4057600080fd5b8151610cc381611ace565b60008351611d5d818460208801611865565b835190830190611d71818360208801611865565b01949350505050565b60208082526025908201527f4552433732313a207472616e736665722066726f6d20696e636f72726563742060408201526437bbb732b960d91b606082015260800190565b601f82111561067f57600081815260208120601f850160051c81016020861015611de65750805b601f850160051c820191505b81811015611e0557828155600101611df2565b505050505050565b815167ffffffffffffffff811115611e2757611e27611963565b611e3b81611e358454611c64565b84611dbf565b602080601f831160018114611e705760008415611e585750858301515b600019600386901b1c1916600185901b178555611e05565b600085815260208120601f198616915b82811015611e9f57888601518255948401946001909101908401611e80565b5085821015611ebd5787850151600019600388901b60f8161c191681555b5050505050600190811b01905550565b60408101611edb8285611bcf565b8260208301529392505050565b60208082526032908201527f4552433732313a207472616e7366657220746f206e6f6e20455243373231526560408201527131b2b4bb32b91034b6b83632b6b2b73a32b960711b606082015260800190565b6001600160a01b0385811682528416602082015260408101839052608060608201819052600090611f6d90830184611889565b9695505050505050565b600060208284031215611f8957600080fd5b8151610cc38161183256fea26469706673582212209f41a6d963b6a0df0fdd66a39aeaa255f45e250b01acfc037121ec40753507f864736f6c63430008140033",
  "linkReferences": {},
  "deployedLinkReferences": {}
}