{
  "_format": "hh-sol-artifact-1",
  "contractName": "VisionEqualizerV3",
  "sourceName": "contracts/interop/VisionEqualizerV3.sol",
  "abi": [
    {
      "inputs": [
        {
          "internalType": "address",
          "name": "_lzEndpoint",
          "type": "address"
        },
        {
          "internalType": "address",
          "name": "_messageInbox",
          "type": "address"
        },
        {
          "internalType": "address",
          "name": "_intentCommitment",
          "type": "address"
        },
        {
          "internalType": "address",
          "name": "_vcnToken",
          "type": "address"
        }
      ],
      "stateMutability": "nonpayable",
      "type": "constructor"
    },
    {
      "anonymous": false,
      "inputs": [
        {
          "indexed": true,
          "internalType": "address",
          "name": "user",
          "type": "address"
        },
        {
          "indexed": false,
          "internalType": "uint256",
          "name": "sourceChainId",
          "type": "uint256"
        },
        {
          "indexed": false,
          "internalType": "uint256",
          "name": "targetChainId",
          "type": "uint256"
        },
        {
          "indexed": false,
          "internalType": "string",
          "name": "symbol",
          "type": "string"
        },
        {
          "indexed": false,
          "internalType": "uint256",
          "name": "amount",
          "type": "uint256"
        },
        {
          "indexed": false,
          "internalType": "bytes32",
          "name": "intentHash",
          "type": "bytes32"
        }
      ],
      "name": "BridgeRequested",
      "type": "event"
    },
    {
      "anonymous": false,
      "inputs": [
        {
          "indexed": false,
          "internalType": "address",
          "name": "user",
          "type": "address"
        },
        {
          "indexed": false,
          "internalType": "uint256",
          "name": "chainId",
          "type": "uint256"
        },
        {
          "indexed": false,
          "internalType": "string",
          "name": "symbol",
          "type": "string"
        },
        {
          "indexed": false,
          "internalType": "uint256",
          "name": "amount",
          "type": "uint256"
        }
      ],
      "name": "LiquiditySynced",
      "type": "event"
    },
    {
      "anonymous": false,
      "inputs": [
        {
          "indexed": false,
          "internalType": "uint16",
          "name": "srcChainId",
          "type": "uint16"
        },
        {
          "indexed": false,
          "internalType": "bytes",
          "name": "srcAddress",
          "type": "bytes"
        },
        {
          "indexed": false,
          "internalType": "uint64",
          "name": "nonce",
          "type": "uint64"
        },
        {
          "indexed": false,
          "internalType": "bytes",
          "name": "payload",
          "type": "bytes"
        },
        {
          "indexed": false,
          "internalType": "bytes",
          "name": "reason",
          "type": "bytes"
        }
      ],
      "name": "MessageFailed",
      "type": "event"
    },
    {
      "anonymous": false,
      "inputs": [
        {
          "indexed": false,
          "internalType": "uint16",
          "name": "srcChainId",
          "type": "uint16"
        },
        {
          "indexed": false,
          "internalType": "bytes",
          "name": "srcAddress",
          "type": "bytes"
        },
        {
          "indexed": false,
          "internalType": "uint64",
          "name": "nonce",
          "type": "uint64"
        },
        {
          "indexed": false,
          "internalType": "bytes",
          "name": "payload",
          "type": "bytes"
        }
      ],
      "name": "MessageReceived",
      "type": "event"
    },
    {
      "anonymous": false,
      "inputs": [
        {
          "indexed": true,
          "internalType": "bytes32",
          "name": "messageHash",
          "type": "bytes32"
        },
        {
          "indexed": false,
          "internalType": "address",
          "name": "recipient",
          "type": "address"
        },
        {
          "indexed": false,
          "internalType": "uint256",
          "name": "amount",
          "type": "uint256"
        }
      ],
      "name": "MessageSubmittedToPending",
      "type": "event"
    },
    {
      "anonymous": false,
      "inputs": [
        {
          "indexed": true,
          "internalType": "bytes32",
          "name": "messageHash",
          "type": "bytes32"
        },
        {
          "indexed": false,
          "internalType": "address",
          "name": "recipient",
          "type": "address"
        },
        {
          "indexed": false,
          "internalType": "uint256",
          "name": "amount",
          "type": "uint256"
        }
      ],
      "name": "MintExecuted",
      "type": "event"
    },
    {
      "anonymous": false,
      "inputs": [
        {
          "indexed": false,
          "internalType": "address",
          "name": "account",
          "type": "address"
        }
      ],
      "name": "Paused",
      "type": "event"
    },
    {
      "anonymous": false,
      "inputs": [
        {
          "indexed": true,
          "internalType": "bytes32",
          "name": "role",
          "type": "bytes32"
        },
        {
          "indexed": true,
          "internalType": "bytes32",
          "name": "previousAdminRole",
          "type": "bytes32"
        },
        {
          "indexed": true,
          "internalType": "bytes32",
          "name": "newAdminRole",
          "type": "bytes32"
        }
      ],
      "name": "RoleAdminChanged",
      "type": "event"
    },
    {
      "anonymous": false,
      "inputs": [
        {
          "indexed": true,
          "internalType": "bytes32",
          "name": "role",
          "type": "bytes32"
        },
        {
          "indexed": true,
          "internalType": "address",
          "name": "account",
          "type": "address"
        },
        {
          "indexed": true,
          "internalType": "address",
          "name": "sender",
          "type": "address"
        }
      ],
      "name": "RoleGranted",
      "type": "event"
    },
    {
      "anonymous": false,
      "inputs": [
        {
          "indexed": true,
          "internalType": "bytes32",
          "name": "role",
          "type": "bytes32"
        },
        {
          "indexed": true,
          "internalType": "address",
          "name": "account",
          "type": "address"
        },
        {
          "indexed": true,
          "internalType": "address",
          "name": "sender",
          "type": "address"
        }
      ],
      "name": "RoleRevoked",
      "type": "event"
    },
    {
      "anonymous": false,
      "inputs": [
        {
          "indexed": false,
          "internalType": "address",
          "name": "account",
          "type": "address"
        }
      ],
      "name": "Unpaused",
      "type": "event"
    },
    {
      "inputs": [],
      "name": "DEFAULT_ADMIN_ROLE",
      "outputs": [
        {
          "internalType": "bytes32",
          "name": "",
          "type": "bytes32"
        }
      ],
      "stateMutability": "view",
      "type": "function"
    },
    {
      "inputs": [],
      "name": "PAUSER_ROLE",
      "outputs": [
        {
          "internalType": "bytes32",
          "name": "",
          "type": "bytes32"
        }
      ],
      "stateMutability": "view",
      "type": "function"
    },
    {
      "inputs": [],
      "name": "RELAYER_ROLE",
      "outputs": [
        {
          "internalType": "bytes32",
          "name": "",
          "type": "bytes32"
        }
      ],
      "stateMutability": "view",
      "type": "function"
    },
    {
      "inputs": [],
      "name": "TSS_SIGNER_ROLE",
      "outputs": [
        {
          "internalType": "bytes32",
          "name": "",
          "type": "bytes32"
        }
      ],
      "stateMutability": "view",
      "type": "function"
    },
    {
      "inputs": [
        {
          "internalType": "uint256",
          "name": "",
          "type": "uint256"
        },
        {
          "internalType": "string",
          "name": "",
          "type": "string"
        }
      ],
      "name": "chainBalance",
      "outputs": [
        {
          "internalType": "uint256",
          "name": "",
          "type": "uint256"
        }
      ],
      "stateMutability": "view",
      "type": "function"
    },
    {
      "inputs": [
        {
          "internalType": "bytes32",
          "name": "messageHash",
          "type": "bytes32"
        }
      ],
      "name": "executeMint",
      "outputs": [],
      "stateMutability": "nonpayable",
      "type": "function"
    },
    {
      "inputs": [
        {
          "internalType": "bytes32",
          "name": "",
          "type": "bytes32"
        }
      ],
      "name": "failedMessages",
      "outputs": [
        {
          "internalType": "bytes",
          "name": "",
          "type": "bytes"
        }
      ],
      "stateMutability": "view",
      "type": "function"
    },
    {
      "inputs": [
        {
          "internalType": "bytes32",
          "name": "role",
          "type": "bytes32"
        }
      ],
      "name": "getRoleAdmin",
      "outputs": [
        {
          "internalType": "bytes32",
          "name": "",
          "type": "bytes32"
        }
      ],
      "stateMutability": "view",
      "type": "function"
    },
    {
      "inputs": [
        {
          "internalType": "address",
          "name": "",
          "type": "address"
        },
        {
          "internalType": "uint256",
          "name": "",
          "type": "uint256"
        },
        {
          "internalType": "string",
          "name": "",
          "type": "string"
        }
      ],
      "name": "globalLiquidity",
      "outputs": [
        {
          "internalType": "uint256",
          "name": "",
          "type": "uint256"
        }
      ],
      "stateMutability": "view",
      "type": "function"
    },
    {
      "inputs": [
        {
          "internalType": "bytes32",
          "name": "role",
          "type": "bytes32"
        },
        {
          "internalType": "address",
          "name": "account",
          "type": "address"
        }
      ],
      "name": "grantRole",
      "outputs": [],
      "stateMutability": "nonpayable",
      "type": "function"
    },
    {
      "inputs": [
        {
          "internalType": "bytes32",
          "name": "role",
          "type": "bytes32"
        },
        {
          "internalType": "address",
          "name": "account",
          "type": "address"
        }
      ],
      "name": "hasRole",
      "outputs": [
        {
          "internalType": "bool",
          "name": "",
          "type": "bool"
        }
      ],
      "stateMutability": "view",
      "type": "function"
    },
    {
      "inputs": [],
      "name": "intentCommitment",
      "outputs": [
        {
          "internalType": "contract IntentCommitment",
          "name": "",
          "type": "address"
        }
      ],
      "stateMutability": "view",
      "type": "function"
    },
    {
      "inputs": [],
      "name": "lzEndpoint",
      "outputs": [
        {
          "internalType": "address",
          "name": "",
          "type": "address"
        }
      ],
      "stateMutability": "view",
      "type": "function"
    },
    {
      "inputs": [
        {
          "internalType": "uint16",
          "name": "_srcChainId",
          "type": "uint16"
        },
        {
          "internalType": "bytes",
          "name": "_srcAddress",
          "type": "bytes"
        },
        {
          "internalType": "uint64",
          "name": "_nonce",
          "type": "uint64"
        },
        {
          "internalType": "bytes",
          "name": "_payload",
          "type": "bytes"
        }
      ],
      "name": "lzReceive",
      "outputs": [],
      "stateMutability": "nonpayable",
      "type": "function"
    },
    {
      "inputs": [],
      "name": "messageInbox",
      "outputs": [
        {
          "internalType": "contract MessageInbox",
          "name": "",
          "type": "address"
        }
      ],
      "stateMutability": "view",
      "type": "function"
    },
    {
      "inputs": [
        {
          "internalType": "bytes32",
          "name": "",
          "type": "bytes32"
        }
      ],
      "name": "mintedMessages",
      "outputs": [
        {
          "internalType": "bool",
          "name": "",
          "type": "bool"
        }
      ],
      "stateMutability": "view",
      "type": "function"
    },
    {
      "inputs": [],
      "name": "pause",
      "outputs": [],
      "stateMutability": "nonpayable",
      "type": "function"
    },
    {
      "inputs": [],
      "name": "paused",
      "outputs": [
        {
          "internalType": "bool",
          "name": "",
          "type": "bool"
        }
      ],
      "stateMutability": "view",
      "type": "function"
    },
    {
      "inputs": [
        {
          "internalType": "bytes32",
          "name": "",
          "type": "bytes32"
        }
      ],
      "name": "processedMessages",
      "outputs": [
        {
          "internalType": "bool",
          "name": "",
          "type": "bool"
        }
      ],
      "stateMutability": "view",
      "type": "function"
    },
    {
      "inputs": [
        {
          "internalType": "bytes32",
          "name": "role",
          "type": "bytes32"
        },
        {
          "internalType": "address",
          "name": "account",
          "type": "address"
        }
      ],
      "name": "renounceRole",
      "outputs": [],
      "stateMutability": "nonpayable",
      "type": "function"
    },
    {
      "inputs": [
        {
          "internalType": "uint256",
          "name": "sourceChainId",
          "type": "uint256"
        },
        {
          "internalType": "uint256",
          "name": "targetChainId",
          "type": "uint256"
        },
        {
          "internalType": "string",
          "name": "symbol",
          "type": "string"
        },
        {
          "internalType": "uint256",
          "name": "amount",
          "type": "uint256"
        },
        {
          "internalType": "bytes32",
          "name": "intentHash",
          "type": "bytes32"
        }
      ],
      "name": "requestBridgeWithIntent",
      "outputs": [],
      "stateMutability": "nonpayable",
      "type": "function"
    },
    {
      "inputs": [
        {
          "internalType": "uint16",
          "name": "_srcChainId",
          "type": "uint16"
        },
        {
          "internalType": "bytes",
          "name": "_srcAddress",
          "type": "bytes"
        },
        {
          "internalType": "uint64",
          "name": "_nonce",
          "type": "uint64"
        },
        {
          "internalType": "bytes",
          "name": "_payload",
          "type": "bytes"
        }
      ],
      "name": "retryMessage",
      "outputs": [],
      "stateMutability": "nonpayable",
      "type": "function"
    },
    {
      "inputs": [
        {
          "internalType": "bytes32",
          "name": "role",
          "type": "bytes32"
        },
        {
          "internalType": "address",
          "name": "account",
          "type": "address"
        }
      ],
      "name": "revokeRole",
      "outputs": [],
      "stateMutability": "nonpayable",
      "type": "function"
    },
    {
      "inputs": [
        {
          "internalType": "address",
          "name": "_commitment",
          "type": "address"
        }
      ],
      "name": "setIntentCommitment",
      "outputs": [],
      "stateMutability": "nonpayable",
      "type": "function"
    },
    {
      "inputs": [
        {
          "internalType": "address",
          "name": "_inbox",
          "type": "address"
        }
      ],
      "name": "setMessageInbox",
      "outputs": [],
      "stateMutability": "nonpayable",
      "type": "function"
    },
    {
      "inputs": [
        {
          "internalType": "uint16",
          "name": "_srcChainId",
          "type": "uint16"
        },
        {
          "internalType": "bytes",
          "name": "_path",
          "type": "bytes"
        }
      ],
      "name": "setTrustedRemote",
      "outputs": [],
      "stateMutability": "nonpayable",
      "type": "function"
    },
    {
      "inputs": [
        {
          "internalType": "uint16",
          "name": "_srcChainId",
          "type": "uint16"
        },
        {
          "internalType": "bytes",
          "name": "_payload",
          "type": "bytes"
        }
      ],
      "name": "submitToPending",
      "outputs": [],
      "stateMutability": "nonpayable",
      "type": "function"
    },
    {
      "inputs": [
        {
          "internalType": "bytes4",
          "name": "interfaceId",
          "type": "bytes4"
        }
      ],
      "name": "supportsInterface",
      "outputs": [
        {
          "internalType": "bool",
          "name": "",
          "type": "bool"
        }
      ],
      "stateMutability": "view",
      "type": "function"
    },
    {
      "inputs": [
        {
          "internalType": "uint16",
          "name": "",
          "type": "uint16"
        },
        {
          "internalType": "bytes",
          "name": "",
          "type": "bytes"
        }
      ],
      "name": "trustedRemoteLookup",
      "outputs": [
        {
          "internalType": "bool",
          "name": "",
          "type": "bool"
        }
      ],
      "stateMutability": "view",
      "type": "function"
    },
    {
      "inputs": [],
      "name": "unpause",
      "outputs": [],
      "stateMutability": "nonpayable",
      "type": "function"
    },
    {
      "inputs": [
        {
          "internalType": "address",
          "name": "_newEndpoint",
          "type": "address"
        }
      ],
      "name": "updateLzEndpoint",
      "outputs": [],
      "stateMutability": "nonpayable",
      "type": "function"
    },
    {
      "inputs": [],
      "name": "vcnToken",
      "outputs": [
        {
          "internalType": "address",
          "name": "",
          "type": "address"
        }
      ],
      "stateMutability": "view",
      "type": "function"
    }
  ],
  "bytecode": "0x60806040523480156200001157600080fd5b50604051620025a9380380620025a983398101604081905262000034916200018c565b6001805460ff191681556002556200004e600033620000ce565b6200007a7f65d7a28e3265b37a6474929f336521b332c1681b933f6cb9f3376673440d862a33620000ce565b600380546001600160a01b039586166001600160a01b0319918216179091556004805494861694821694909417909355600580549285169284169290921790915560068054919093169116179055620001e9565b6000828152602081815260408083206001600160a01b038516845290915290205460ff166200016b576000828152602081815260408083206001600160a01b03851684529091529020805460ff191660011790556200012a3390565b6001600160a01b0316816001600160a01b0316837f2f8788117e7eff1d82e926ec794901d17c78024a50270940304540a733656f0d60405160405180910390a45b5050565b80516001600160a01b03811681146200018757600080fd5b919050565b60008060008060808587031215620001a357600080fd5b620001ae856200016f565b9350620001be602086016200016f565b9250620001ce604086016200016f565b9150620001de606086016200016f565b905092959194509250565b6123b080620001f96000396000f3fe608060405234801561001057600080fd5b50600436106101ee5760003560e01c80638d542dc11161010f578063ba763165116100a2578063d547741f11610071578063d547741f14610508578063e63ab1e91461051b578063eb8d72b714610542578063f5c559f01461055557600080fd5b8063ba76316514610475578063c400e6f11461049c578063c62be3ca146104e2578063d1deba1f146104f557600080fd5b8063993fa7f1116100de578063993fa7f114610427578063a217fddf1461043a578063a4e7f8bd14610442578063b353aaa71461046257600080fd5b80638d542dc11461039b57806391d14854146103da578063926d7d7f146103ed578063965ef01b1461041457600080fd5b80633f4ba83a116101875780637cbcfb39116101565780637cbcfb391461034a5780638456cb591461035d57806384d2e0841461036557806388ba16ab1461037857600080fd5b80633f4ba83a146102f95780634e7e1135146103015780635c975abb1461032c578063682216781461033757600080fd5b80631ddb3ced116101c35780631ddb3ced14610266578063248a9ca3146102b05780632f2ff15d146102d357806336568abe146102e657600080fd5b80621d3567146101f3578062b10fcd1461020857806301ffc9a71461024057806314d3941514610253575b600080fd5b61020661020136600461190f565b610568565b005b61022b6102163660046119a8565b600a6020526000908152604090205460ff1681565b60405190151581526020015b60405180910390f35b61022b61024e3660046119c1565b610846565b6102066102613660046119a8565b61087d565b6102a2610274366004611ae2565b600c602090815260009283526040909220815180830184018051928152908401929093019190912091525481565b604051908152602001610237565b6102a26102be3660046119a8565b60009081526020819052604090206001015490565b6102066102e1366004611b3d565b610ae5565b6102066102f4366004611b3d565b610b0f565b610206610b8d565b600554610314906001600160a01b031681565b6040516001600160a01b039091168152602001610237565b60015460ff1661022b565b610206610345366004611b6d565b610ba0565b600654610314906001600160a01b031681565b610206610dce565b610206610373366004611bce565b610e00565b61022b6103863660046119a8565b60096020526000908152604090205460ff1681565b61022b6103a9366004611beb565b6007602090815260009283526040909220815180830184018051928152908401929093019190912091525460ff1681565b61022b6103e8366004611b3d565b610e2e565b6102a27fe2b7fb3b832174769106daebcfd6d1970523240dda11281102db9363b83b0dc481565b600454610314906001600160a01b031681565b610206610435366004611c42565b610e57565b6102a2600081565b6104556104503660046119a8565b611156565b6040516102379190611ce4565b600354610314906001600160a01b031681565b6102a27f7efc34804d06122ce3b5b934ed76f62febd6b0d5db93e14fa5e1577d7ac4492d81565b6102a26104aa366004611cf7565b600860209081526000938452604080852082529284529190922082518084018301805192815290830193909201929092209190525481565b6102066104f0366004611bce565b6111f0565b61020661050336600461190f565b61121e565b610206610516366004611b3d565b611341565b6102a27f65d7a28e3265b37a6474929f336521b332c1681b933f6cb9f3376673440d862a81565b610206610550366004611c42565b611366565b610206610563366004611bce565b6113bf565b6105706113ed565b610578611435565b6003546001600160a01b031633146105d75760405162461bcd60e51b815260206004820152601760248201527f496e76616c696420656e64706f696e742063616c6c657200000000000000000060448201526064015b60405180910390fd5b61ffff86166000908152600760205260409081902090516105fb9087908790611d4f565b9081526040519081900360200190205460ff1661065a5760405162461bcd60e51b815260206004820152601760248201527f496e76616c696420736f7572636520636f6e747261637400000000000000000060448201526064016105ce565b600086868686868660405160200161067796959493929190611d5f565b60408051601f1981840301815291815281516020928301206000818152600990935291205490915060ff16156106ef5760405162461bcd60e51b815260206004820152601960248201527f4d65737361676520616c72656164792070726f6365737365640000000000000060448201526064016105ce565b60008181526009602052604090819020805460ff191660011790555163993fa7f160e01b8152309063993fa7f19061072f908a9087908790600401611dd7565b600060405180830381600087803b15801561074957600080fd5b505af192505050801561075a575060015b6107f1573d808015610788576040519150601f19603f3d011682016040523d82523d6000602084013e61078d565b606091505b506000828152600b602052604090206107a7848683611e7e565b507fe183f33de2837795525b4792ca4cd60535bd77c53b7e7030060bfcf5734d6b0c888888888888876040516107e39796959493929190611f3d565b60405180910390a150610833565b7fa677d9c7a0feb5b64587975420c62b4624eb96b5a2eca6acd65efb1e5ffa14a287878787878760405161082a96959493929190611f9f565b60405180910390a15b5061083e6001600255565b505050505050565b60006001600160e01b03198216637965db0b60e01b148061087757506301ffc9a760e01b6001600160e01b03198316145b92915050565b6108856113ed565b61088d611435565b60048054604051633fc6a14f60e11b81529182018390526001600160a01b031690637f8d429e90602401602060405180830381865afa1580156108d4573d6000803e3d6000fd5b505050506040513d601f19601f820116820180604052508101906108f89190611ffc565b61093c5760405162461bcd60e51b815260206004820152601560248201527413595cdcd859d9481b9bdd08199a5b985b1a5e9959605a1b60448201526064016105ce565b6000818152600a602052604090205460ff161561098c5760405162461bcd60e51b815260206004820152600e60248201526d105b1c9958591e481b5a5b9d195960921b60448201526064016105ce565b60048054604051630139a22160e01b81529182018390526000916001600160a01b0390911690630139a2219060240161016060405180830381865afa1580156109d9573d6000803e3d6000fd5b505050506040513d601f19601f820116820180604052508101906109fd9190612031565b6000838152600a602052604090819020805460ff1916600117905560055460a0830151915163358d6b2360e11b81529293506001600160a01b031691636b1ad64691610a4f9160040190815260200190565b600060405180830381600087803b158015610a6957600080fd5b505af1158015610a7d573d6000803e3d6000fd5b50505050817ffd36a913f0c983f53c6ab31c6b6101f9744826a05e43e3bf3632d084af1cfce882608001518360600151604051610acf9291906001600160a01b03929092168252602082015260400190565b60405180910390a250610ae26001600255565b50565b600082815260208190526040902060010154610b008161148c565b610b0a8383611496565b505050565b6001600160a01b0381163314610b7f5760405162461bcd60e51b815260206004820152602f60248201527f416363657373436f6e74726f6c3a2063616e206f6e6c792072656e6f756e636560448201526e103937b632b9903337b91039b2b63360891b60648201526084016105ce565b610b89828261151a565b5050565b6000610b988161148c565b610ae261157f565b610ba86113ed565b610bb0611435565b336000908152600860209081526040808320888452909152908190209051839190610bdc9086906120dc565b9081526020016040518091039020541015610c2f5760405162461bcd60e51b8152602060048201526013602482015272125b9cdd59999a58da595b9d0810dc99591a5d606a1b60448201526064016105ce565b60055460405163058fee0960e21b8152600481018390526000916001600160a01b03169063163fb8249060240161012060405180830381865afa158015610c7a573d6000803e3d6000fd5b505050506040513d601f19601f82011682018060405250810190610c9e91906120f8565b50905080610cea5760405162461bcd60e51b8152602060048201526019602482015278125b9d985b1a59081bdc88195e1c1a5c9959081a5b9d195b9d603a1b60448201526064016105ce565b336000908152600860209081526040808320898452909152908190209051849190610d169087906120dc565b90815260200160405180910390206000828254610d3391906121b8565b90915550506000868152600c6020526040908190209051849190610d589087906120dc565b90815260200160405180910390206000828254610d7591906121b8565b909155505060405133907fb64f0f330ae631571fd97d0d7bd93a100316810f3a0bde0c560edc520b43ac6d90610db490899089908990899089906121cb565b60405180910390a250610dc76001600255565b5050505050565b7f65d7a28e3265b37a6474929f336521b332c1681b933f6cb9f3376673440d862a610df88161148c565b610ae26115d1565b6000610e0b8161148c565b50600580546001600160a01b0319166001600160a01b0392909216919091179055565b6000918252602082815260408084206001600160a01b0393909316845291905290205460ff1690565b333014610e9c5760405162461bcd60e51b815260206004820152601360248201527221b0b63632b91036bab9ba1031329039b2b63360691b60448201526064016105ce565b6000808080610ead858701876121fe565b60055460405163058fee0960e21b81526004810183905294985092965090945092506000916001600160a01b039091169063163fb8249060240161012060405180830381865afa158015610f05573d6000803e3d6000fd5b505050506040513d601f19601f82011682018060405250810190610f2991906120f8565b50905080610f755760405162461bcd60e51b8152602060048201526019602482015278125b9d985b1a59081bdc88195e1c1a5c9959081a5b9d195b9d603a1b60448201526064016105ce565b6004805460065460405163e5b8d57360e01b815261ffff8c16938101939093524660248401526001600160a01b03908116604484015260648301869052878116608484015260a4830185905260e060c4840152600060e484018190529291169063e5b8d57390610104016020604051808303816000875af1158015610ffe573d6000803e3d6000fd5b505050506040513d601f19601f82011682018060405250810190611022919061225d565b6001600160a01b038716600090815260086020908152604080832061ffff8e168452909152908190209051919250859161105d9088906120dc565b9081526020016040518091039020600082825461107a9190612276565b909155505061ffff89166000908152600c60205260409081902090518591906110a49088906120dc565b908152602001604051809103902060008282546110c19190612276565b9091555050604080516001600160a01b03881681526020810186905282917ffcb6e35686483a0973dc54cdbd102c03beb4ffbc3ebfb9ca80b5f5b0126eb1e0910160405180910390a27f3eddf3ac409ebf457e7df3f2cad83fa9c2162ee4815e69527317d8b60f172355868a61ffff1687876040516111439493929190612289565b60405180910390a1505050505050505050565b600b602052600090815260409020805461116f90611dfe565b80601f016020809104026020016040519081016040528092919081815260200182805461119b90611dfe565b80156111e85780601f106111bd576101008083540402835291602001916111e8565b820191906000526020600020905b8154815290600101906020018083116111cb57829003601f168201915b505050505081565b60006111fb8161148c565b50600380546001600160a01b0319166001600160a01b0392909216919091179055565b6112266113ed565b61122e611435565b600086868686868660405160200161124b96959493929190611d5f565b6040516020818303038152906040528051906020012090506000600b6000838152602001908152602001600020805461128390611dfe565b9050116112c65760405162461bcd60e51b815260206004820152601160248201527013595cdcd859d9481b9bdd08199bdd5b99607a1b60448201526064016105ce565b6000818152600b602052604081206112dd91611862565b60405163993fa7f160e01b8152309063993fa7f190611304908a9087908790600401611dd7565b600060405180830381600087803b15801561131e57600080fd5b505af1158015611332573d6000803e3d6000fd5b505050505061083e6001600255565b60008281526020819052604090206001015461135c8161148c565b610b0a838361151a565b60006113718161148c565b61ffff8416600090815260076020526040908190209051600191906113999086908690611d4f565b908152604051908190036020019020805491151560ff1990921691909117905550505050565b60006113ca8161148c565b50600480546001600160a01b0319166001600160a01b0392909216919091179055565b60015460ff16156114335760405162461bcd60e51b815260206004820152601060248201526f14185d5cd8589b194e881c185d5cd95960821b60448201526064016105ce565b565b60028054036114865760405162461bcd60e51b815260206004820152601f60248201527f5265656e7472616e637947756172643a207265656e7472616e742063616c6c0060448201526064016105ce565b60028055565b610ae2813361160c565b6114a08282610e2e565b610b89576000828152602081815260408083206001600160a01b03851684529091529020805460ff191660011790556114d63390565b6001600160a01b0316816001600160a01b0316837f2f8788117e7eff1d82e926ec794901d17c78024a50270940304540a733656f0d60405160405180910390a45050565b6115248282610e2e565b15610b89576000828152602081815260408083206001600160a01b0385168085529252808320805460ff1916905551339285917ff6391f5c32d9c69d2a47ea670b442974b53935d1edc7fd64eb21e047a839171b9190a45050565b611587611665565b6001805460ff191690557f5db9ee0a495bf2e6ff9c91a7834c1ba4fdd244a5e8aa4e537bd38aeae4b073aa335b6040516001600160a01b03909116815260200160405180910390a1565b6115d96113ed565b6001805460ff1916811790557f62e78cea01bee320cd4e420270b5ea74000d11b0c9f74754ebdbfc544b05a258336115b4565b6116168282610e2e565b610b8957611623816116ae565b61162e8360206116c0565b60405160200161163f9291906122c1565b60408051601f198184030181529082905262461bcd60e51b82526105ce91600401611ce4565b60015460ff166114335760405162461bcd60e51b815260206004820152601460248201527314185d5cd8589b194e881b9bdd081c185d5cd95960621b60448201526064016105ce565b60606108776001600160a01b03831660145b606060006116cf836002612336565b6116da906002612276565b6001600160401b038111156116f1576116f16119eb565b6040519080825280601f01601f19166020018201604052801561171b576020820181803683370190505b509050600360fc1b816000815181106117365761173661234d565b60200101906001600160f81b031916908160001a905350600f60fb1b816001815181106117655761176561234d565b60200101906001600160f81b031916908160001a9053506000611789846002612336565b611794906001612276565b90505b600181111561180c576f181899199a1a9b1b9c1cb0b131b232b360811b85600f16601081106117c8576117c861234d565b1a60f81b8282815181106117de576117de61234d565b60200101906001600160f81b031916908160001a90535060049490941c9361180581612363565b9050611797565b50831561185b5760405162461bcd60e51b815260206004820181905260248201527f537472696e67733a20686578206c656e67746820696e73756666696369656e7460448201526064016105ce565b9392505050565b50805461186e90611dfe565b6000825580601f1061187e575050565b601f016020900490600052602060002090810190610ae291905b808211156118ac5760008155600101611898565b5090565b803561ffff811681146118c257600080fd5b919050565b60008083601f8401126118d957600080fd5b5081356001600160401b038111156118f057600080fd5b60208301915083602082850101111561190857600080fd5b9250929050565b6000806000806000806080878903121561192857600080fd5b611931876118b0565b955060208701356001600160401b038082111561194d57600080fd5b6119598a838b016118c7565b909750955060408901359150808216821461197357600080fd5b9093506060880135908082111561198957600080fd5b5061199689828a016118c7565b979a9699509497509295939492505050565b6000602082840312156119ba57600080fd5b5035919050565b6000602082840312156119d357600080fd5b81356001600160e01b03198116811461185b57600080fd5b634e487b7160e01b600052604160045260246000fd5b60405161016081016001600160401b0381118282101715611a2457611a246119eb565b60405290565b60405161010081016001600160401b0381118282101715611a2457611a246119eb565b60006001600160401b0380841115611a6757611a676119eb565b604051601f8501601f19908116603f01168101908282118183101715611a8f57611a8f6119eb565b81604052809350858152868686011115611aa857600080fd5b858560208301376000602087830101525050509392505050565b600082601f830112611ad357600080fd5b61185b83833560208501611a4d565b60008060408385031215611af557600080fd5b8235915060208301356001600160401b03811115611b1257600080fd5b611b1e85828601611ac2565b9150509250929050565b6001600160a01b0381168114610ae257600080fd5b60008060408385031215611b5057600080fd5b823591506020830135611b6281611b28565b809150509250929050565b600080600080600060a08688031215611b8557600080fd5b853594506020860135935060408601356001600160401b03811115611ba957600080fd5b611bb588828901611ac2565b9598949750949560608101359550608001359392505050565b600060208284031215611be057600080fd5b813561185b81611b28565b60008060408385031215611bfe57600080fd5b611c07836118b0565b915060208301356001600160401b03811115611c2257600080fd5b8301601f81018513611c3357600080fd5b611b1e85823560208401611a4d565b600080600060408486031215611c5757600080fd5b611c60846118b0565b925060208401356001600160401b03811115611c7b57600080fd5b611c87868287016118c7565b9497909650939450505050565b60005b83811015611caf578181015183820152602001611c97565b50506000910152565b60008151808452611cd0816020860160208601611c94565b601f01601f19169290920160200192915050565b60208152600061185b6020830184611cb8565b600080600060608486031215611d0c57600080fd5b8335611d1781611b28565b92506020840135915060408401356001600160401b03811115611d3957600080fd5b611d4586828701611ac2565b9150509250925092565b8183823760009101908152919050565b60f087901b6001600160f01b03191681528486600283013760008582016001600160401b0360c01b8660c01b1660028201528385600a83013760009301600a0192835250909695505050505050565b81835281816020850137506000828201602090810191909152601f909101601f19169091010190565b61ffff84168152604060208201526000611df5604083018486611dae565b95945050505050565b600181811c90821680611e1257607f821691505b602082108103611e3257634e487b7160e01b600052602260045260246000fd5b50919050565b601f821115610b0a57600081815260208120601f850160051c81016020861015611e5f5750805b601f850160051c820191505b8181101561083e57828155600101611e6b565b6001600160401b03831115611e9557611e956119eb565b611ea983611ea38354611dfe565b83611e38565b6000601f841160018114611edd5760008515611ec55750838201355b600019600387901b1c1916600186901b178355610dc7565b600083815260209020601f19861690835b82811015611f0e5786850135825560209485019460019092019101611eee565b5086821015611f2b5760001960f88860031b161c19848701351681555b505060018560011b0183555050505050565b61ffff8816815260a060208201526000611f5b60a08301888a611dae565b6001600160401b03871660408401528281036060840152611f7d818688611dae565b90508281036080840152611f918185611cb8565b9a9950505050505050505050565b61ffff87168152608060208201526000611fbd608083018789611dae565b6001600160401b03861660408401528281036060840152611fdf818587611dae565b9998505050505050505050565b805180151581146118c257600080fd5b60006020828403121561200e57600080fd5b61185b82611fec565b80516118c281611b28565b8051600581106118c257600080fd5b6000610160828403121561204457600080fd5b61204c611a01565b825181526020830151602082015261206660408401612017565b60408201526060830151606082015261208160808401612017565b608082015260a083015160a082015260c083015160c082015260e083015160e08201526101006120b2818501612022565b908201526101206120c4848201612017565b90820152610140928301519281019290925250919050565b600082516120ee818460208701611c94565b9190910192915050565b60008082840361012081121561210d57600080fd5b61211684611fec565b925061010080601f198301121561212c57600080fd5b612134611a2a565b9150602085015161214481611b28565b8252604085810151602084015260608601519083015261216660808601612017565b606083015260a0850151608083015261218160c08601612017565b60a083015260e08581015160c0840152940151938101939093525092909150565b634e487b7160e01b600052601160045260246000fd5b81810381811115610877576108776121a2565b85815284602082015260a0604082015260006121ea60a0830186611cb8565b606083019490945250608001529392505050565b6000806000806080858703121561221457600080fd5b843561221f81611b28565b935060208501356001600160401b0381111561223a57600080fd5b61224687828801611ac2565b949794965050505060408301359260600135919050565b60006020828403121561226f57600080fd5b5051919050565b80820180821115610877576108776121a2565b60018060a01b03851681528360208201526080604082015260006122b06080830185611cb8565b905082606083015295945050505050565b7f416363657373436f6e74726f6c3a206163636f756e74200000000000000000008152600083516122f9816017850160208801611c94565b7001034b99036b4b9b9b4b733903937b6329607d1b601791840191820152835161232a816028840160208801611c94565b01602801949350505050565b8082028115828204841417610877576108776121a2565b634e487b7160e01b600052603260045260246000fd5b600081612372576123726121a2565b50600019019056fea2646970667358221220d82c324fddcca36d62f0c0a5f727051ef2d4876ac1bc704617345f506aa7266d64736f6c63430008140033",
  "linkReferences": {},
  "deployedLinkReferences": {}
}