{
  "_format": "hh-sol-artifact-1",
  "contractName": "VisionNodeLicenseNative",
  "sourceName": "contracts/VisionNodeLicenseNative.sol",
  "abi": [
    {
      "inputs": [
        {
          "internalType": "address",
          "name": "_treasury",
          "type": "address"
        }
      ],
      "stateMutability": "nonpayable",
      "type": "constructor"
    },
    {
      "anonymous": false,
      "inputs": [
        {
          "indexed": true,
          "internalType": "address",
          "name": "owner",
          "type": "address"
        },
        {
          "indexed": true,
          "internalType": "address",
          "name": "approved",
          "type": "address"
        },
        {
          "indexed": true,
          "internalType": "uint256",
          "name": "tokenId",
          "type": "uint256"
        }
      ],
      "name": "Approval",
      "type": "event"
    },
    {
      "anonymous": false,
      "inputs": [
        {
          "indexed": true,
          "internalType": "address",
          "name": "owner",
          "type": "address"
        },
        {
          "indexed": true,
          "internalType": "address",
          "name": "operator",
          "type": "address"
        },
        {
          "indexed": false,
          "internalType": "bool",
          "name": "approved",
          "type": "bool"
        }
      ],
      "name": "ApprovalForAll",
      "type": "event"
    },
    {
      "anonymous": false,
      "inputs": [
        {
          "indexed": true,
          "internalType": "address",
          "name": "owner",
          "type": "address"
        },
        {
          "indexed": true,
          "internalType": "uint256",
          "name": "tokenId",
          "type": "uint256"
        },
        {
          "indexed": false,
          "internalType": "enum VisionNodeLicenseNative.NodeTier",
          "name": "tier",
          "type": "uint8"
        },
        {
          "indexed": false,
          "internalType": "uint256",
          "name": "multiplier",
          "type": "uint256"
        }
      ],
      "name": "LicenseMinted",
      "type": "event"
    },
    {
      "anonymous": false,
      "inputs": [
        {
          "indexed": true,
          "internalType": "uint256",
          "name": "tokenId",
          "type": "uint256"
        },
        {
          "indexed": false,
          "internalType": "uint256",
          "name": "timestamp",
          "type": "uint256"
        }
      ],
      "name": "NodeActivated",
      "type": "event"
    },
    {
      "anonymous": false,
      "inputs": [
        {
          "indexed": true,
          "internalType": "uint256",
          "name": "tokenId",
          "type": "uint256"
        },
        {
          "indexed": false,
          "internalType": "uint256",
          "name": "timestamp",
          "type": "uint256"
        }
      ],
      "name": "NodeDeactivated",
      "type": "event"
    },
    {
      "anonymous": false,
      "inputs": [
        {
          "indexed": true,
          "internalType": "address",
          "name": "previousOwner",
          "type": "address"
        },
        {
          "indexed": true,
          "internalType": "address",
          "name": "newOwner",
          "type": "address"
        }
      ],
      "name": "OwnershipTransferred",
      "type": "event"
    },
    {
      "anonymous": false,
      "inputs": [
        {
          "indexed": false,
          "internalType": "enum VisionNodeLicenseNative.NodeTier",
          "name": "tier",
          "type": "uint8"
        },
        {
          "indexed": false,
          "internalType": "uint256",
          "name": "newPrice",
          "type": "uint256"
        }
      ],
      "name": "PriceUpdated",
      "type": "event"
    },
    {
      "anonymous": false,
      "inputs": [
        {
          "indexed": true,
          "internalType": "address",
          "name": "from",
          "type": "address"
        },
        {
          "indexed": true,
          "internalType": "address",
          "name": "to",
          "type": "address"
        },
        {
          "indexed": true,
          "internalType": "uint256",
          "name": "tokenId",
          "type": "uint256"
        }
      ],
      "name": "Transfer",
      "type": "event"
    },
    {
      "inputs": [],
      "name": "MAX_ENTERPRISE",
      "outputs": [
        {
          "internalType": "uint256",
          "name": "",
          "type": "uint256"
        }
      ],
      "stateMutability": "view",
      "type": "function"
    },
    {
      "inputs": [],
      "name": "MAX_FOUNDER",
      "outputs": [
        {
          "internalType": "uint256",
          "name": "",
          "type": "uint256"
        }
      ],
      "stateMutability": "view",
      "type": "function"
    },
    {
      "inputs": [],
      "name": "MAX_VALIDATOR",
      "outputs": [
        {
          "internalType": "uint256",
          "name": "",
          "type": "uint256"
        }
      ],
      "stateMutability": "view",
      "type": "function"
    },
    {
      "inputs": [
        {
          "internalType": "uint256",
          "name": "_tokenId",
          "type": "uint256"
        }
      ],
      "name": "activateNode",
      "outputs": [],
      "stateMutability": "nonpayable",
      "type": "function"
    },
    {
      "inputs": [
        {
          "internalType": "address",
          "name": "to",
          "type": "address"
        },
        {
          "internalType": "uint256",
          "name": "tokenId",
          "type": "uint256"
        }
      ],
      "name": "approve",
      "outputs": [],
      "stateMutability": "nonpayable",
      "type": "function"
    },
    {
      "inputs": [
        {
          "internalType": "address",
          "name": "owner",
          "type": "address"
        }
      ],
      "name": "balanceOf",
      "outputs": [
        {
          "internalType": "uint256",
          "name": "",
          "type": "uint256"
        }
      ],
      "stateMutability": "view",
      "type": "function"
    },
    {
      "inputs": [],
      "name": "currentEnterpriseCount",
      "outputs": [
        {
          "internalType": "uint256",
          "name": "",
          "type": "uint256"
        }
      ],
      "stateMutability": "view",
      "type": "function"
    },
    {
      "inputs": [],
      "name": "currentFounderCount",
      "outputs": [
        {
          "internalType": "uint256",
          "name": "",
          "type": "uint256"
        }
      ],
      "stateMutability": "view",
      "type": "function"
    },
    {
      "inputs": [],
      "name": "currentValidatorCount",
      "outputs": [
        {
          "internalType": "uint256",
          "name": "",
          "type": "uint256"
        }
      ],
      "stateMutability": "view",
      "type": "function"
    },
    {
      "inputs": [
        {
          "internalType": "uint256",
          "name": "_tokenId",
          "type": "uint256"
        }
      ],
      "name": "deactivateNode",
      "outputs": [],
      "stateMutability": "nonpayable",
      "type": "function"
    },
    {
      "inputs": [
        {
          "internalType": "address",
          "name": "_to",
          "type": "address"
        },
        {
          "internalType": "string",
          "name": "_uuid",
          "type": "string"
        }
      ],
      "name": "distributeFounderNode",
      "outputs": [],
      "stateMutability": "nonpayable",
      "type": "function"
    },
    {
      "inputs": [],
      "name": "enterprisePrice",
      "outputs": [
        {
          "internalType": "uint256",
          "name": "",
          "type": "uint256"
        }
      ],
      "stateMutability": "view",
      "type": "function"
    },
    {
      "inputs": [
        {
          "internalType": "uint256",
          "name": "tokenId",
          "type": "uint256"
        }
      ],
      "name": "getApproved",
      "outputs": [
        {
          "internalType": "address",
          "name": "",
          "type": "address"
        }
      ],
      "stateMutability": "view",
      "type": "function"
    },
    {
      "inputs": [
        {
          "internalType": "address",
          "name": "owner",
          "type": "address"
        },
        {
          "internalType": "address",
          "name": "operator",
          "type": "address"
        }
      ],
      "name": "isApprovedForAll",
      "outputs": [
        {
          "internalType": "bool",
          "name": "",
          "type": "bool"
        }
      ],
      "stateMutability": "view",
      "type": "function"
    },
    {
      "inputs": [],
      "name": "name",
      "outputs": [
        {
          "internalType": "string",
          "name": "",
          "type": "string"
        }
      ],
      "stateMutability": "view",
      "type": "function"
    },
    {
      "inputs": [
        {
          "internalType": "uint256",
          "name": "",
          "type": "uint256"
        }
      ],
      "name": "nodeDetails",
      "outputs": [
        {
          "internalType": "string",
          "name": "uuid",
          "type": "string"
        },
        {
          "internalType": "enum VisionNodeLicenseNative.NodeTier",
          "name": "tier",
          "type": "uint8"
        },
        {
          "internalType": "uint256",
          "name": "multiplier",
          "type": "uint256"
        },
        {
          "internalType": "uint256",
          "name": "activationTime",
          "type": "uint256"
        },
        {
          "internalType": "bool",
          "name": "isActive",
          "type": "bool"
        }
      ],
      "stateMutability": "view",
      "type": "function"
    },
    {
      "inputs": [],
      "name": "owner",
      "outputs": [
        {
          "internalType": "address",
          "name": "",
          "type": "address"
        }
      ],
      "stateMutability": "view",
      "type": "function"
    },
    {
      "inputs": [
        {
          "internalType": "uint256",
          "name": "tokenId",
          "type": "uint256"
        }
      ],
      "name": "ownerOf",
      "outputs": [
        {
          "internalType": "address",
          "name": "",
          "type": "address"
        }
      ],
      "stateMutability": "view",
      "type": "function"
    },
    {
      "inputs": [
        {
          "internalType": "string",
          "name": "_uuid",
          "type": "string"
        },
        {
          "internalType": "enum VisionNodeLicenseNative.NodeTier",
          "name": "_tier",
          "type": "uint8"
        }
      ],
      "name": "purchaseLicense",
      "outputs": [],
      "stateMutability": "payable",
      "type": "function"
    },
    {
      "inputs": [],
      "name": "renounceOwnership",
      "outputs": [],
      "stateMutability": "nonpayable",
      "type": "function"
    },
    {
      "inputs": [
        {
          "internalType": "address",
          "name": "from",
          "type": "address"
        },
        {
          "internalType": "address",
          "name": "to",
          "type": "address"
        },
        {
          "internalType": "uint256",
          "name": "tokenId",
          "type": "uint256"
        }
      ],
      "name": "safeTransferFrom",
      "outputs": [],
      "stateMutability": "nonpayable",
      "type": "function"
    },
    {
      "inputs": [
        {
          "internalType": "address",
          "name": "from",
          "type": "address"
        },
        {
          "internalType": "address",
          "name": "to",
          "type": "address"
        },
        {
          "internalType": "uint256",
          "name": "tokenId",
          "type": "uint256"
        },
        {
          "internalType": "bytes",
          "name": "data",
          "type": "bytes"
        }
      ],
      "name": "safeTransferFrom",
      "outputs": [],
      "stateMutability": "nonpayable",
      "type": "function"
    },
    {
      "inputs": [
        {
          "internalType": "address",
          "name": "operator",
          "type": "address"
        },
        {
          "internalType": "bool",
          "name": "approved",
          "type": "bool"
        }
      ],
      "name": "setApprovalForAll",
      "outputs": [],
      "stateMutability": "nonpayable",
      "type": "function"
    },
    {
      "inputs": [
        {
          "internalType": "enum VisionNodeLicenseNative.NodeTier",
          "name": "_tier",
          "type": "uint8"
        },
        {
          "internalType": "uint256",
          "name": "_newPrice",
          "type": "uint256"
        }
      ],
      "name": "setPrice",
      "outputs": [],
      "stateMutability": "nonpayable",
      "type": "function"
    },
    {
      "inputs": [
        {
          "internalType": "address",
          "name": "_newTreasury",
          "type": "address"
        }
      ],
      "name": "setTreasury",
      "outputs": [],
      "stateMutability": "nonpayable",
      "type": "function"
    },
    {
      "inputs": [
        {
          "internalType": "bytes4",
          "name": "interfaceId",
          "type": "bytes4"
        }
      ],
      "name": "supportsInterface",
      "outputs": [
        {
          "internalType": "bool",
          "name": "",
          "type": "bool"
        }
      ],
      "stateMutability": "view",
      "type": "function"
    },
    {
      "inputs": [],
      "name": "symbol",
      "outputs": [
        {
          "internalType": "string",
          "name": "",
          "type": "string"
        }
      ],
      "stateMutability": "view",
      "type": "function"
    },
    {
      "inputs": [
        {
          "internalType": "uint256",
          "name": "tokenId",
          "type": "uint256"
        }
      ],
      "name": "tokenURI",
      "outputs": [
        {
          "internalType": "string",
          "name": "",
          "type": "string"
        }
      ],
      "stateMutability": "view",
      "type": "function"
    },
    {
      "inputs": [],
      "name": "totalSupply",
      "outputs": [
        {
          "internalType": "uint256",
          "name": "",
          "type": "uint256"
        }
      ],
      "stateMutability": "view",
      "type": "function"
    },
    {
      "inputs": [
        {
          "internalType": "address",
          "name": "from",
          "type": "address"
        },
        {
          "internalType": "address",
          "name": "to",
          "type": "address"
        },
        {
          "internalType": "uint256",
          "name": "tokenId",
          "type": "uint256"
        }
      ],
      "name": "transferFrom",
      "outputs": [],
      "stateMutability": "nonpayable",
      "type": "function"
    },
    {
      "inputs": [
        {
          "internalType": "address",
          "name": "newOwner",
          "type": "address"
        }
      ],
      "name": "transferOwnership",
      "outputs": [],
      "stateMutability": "nonpayable",
      "type": "function"
    },
    {
      "inputs": [],
      "name": "treasury",
      "outputs": [
        {
          "internalType": "address",
          "name": "",
          "type": "address"
        }
      ],
      "stateMutability": "view",
      "type": "function"
    },
    {
      "inputs": [
        {
          "internalType": "string",
          "name": "",
          "type": "string"
        }
      ],
      "name": "uuidToTokenId",
      "outputs": [
        {
          "internalType": "uint256",
          "name": "",
          "type": "uint256"
        }
      ],
      "stateMutability": "view",
      "type": "function"
    },
    {
      "inputs": [],
      "name": "validatorPrice",
      "outputs": [
        {
          "internalType": "uint256",
          "name": "",
          "type": "uint256"
        }
      ],
      "stateMutability": "view",
      "type": "function"
    }
  ],
  "bytecode": "0x60806040526969e10de76676d0800000600e55690ed2b525841adfc00000600f553480156200002d57600080fd5b506040516200268d3803806200268d833981016040819052620000509162000151565b60405180604001604052806011815260200170566973696f6e4e6f64654c6963656e736560781b81525060405180604001604052806005815260200164564e4f444560d81b8152508160009081620000a9919062000228565b506001620000b8828262000228565b505050620000d5620000cf620000fb60201b60201c565b620000ff565b600880546001600160a01b0319166001600160a01b0392909216919091179055620002f4565b3390565b600680546001600160a01b038381166001600160a01b0319831681179093556040519116919082907f8be0079c531659141344cd1fd0a4f28419497f9722a3daafe3b4186f6b6457e090600090a35050565b6000602082840312156200016457600080fd5b81516001600160a01b03811681146200017c57600080fd5b9392505050565b634e487b7160e01b600052604160045260246000fd5b600181811c90821680620001ae57607f821691505b602082108103620001cf57634e487b7160e01b600052602260045260246000fd5b50919050565b601f8211156200022357600081815260208120601f850160051c81016020861015620001fe5750805b601f850160051c820191505b818110156200021f578281556001016200020a565b5050505b505050565b81516001600160401b0381111562000244576200024462000183565b6200025c8162000255845462000199565b84620001d5565b602080601f8311600181146200029457600084156200027b5750858301515b600019600386901b1c1916600185901b1785556200021f565b600085815260208120601f198616915b82811015620002c557888601518255948401946001909101908401620002a4565b5085821015620002e45787850151600019600388901b60f8161c191681555b5050505050600190811b01905550565b61238980620003046000396000f3fe6080604052600436106101f95760003560e01c8063715018a61161010d578063d755d36f116100a0578063e985e9c51161006f578063e985e9c51461058f578063e9d63830146105af578063f0f44260146105cf578063f2fde38b146105ef578063fdd5d01d1461060f57600080fd5b8063d755d36f1461051c578063de51706314610532578063e2e1297114610548578063e576da0d1461057957600080fd5b8063a22cb465116100dc578063a22cb46514610484578063b024a709146104a4578063b88d4fde146104dc578063c87b56dd146104fc57600080fd5b8063715018a61461041c5780638da5cb5b146104315780638e7d68821461044f57806395d89b411461046f57600080fd5b80632a1add4f116101905780634d98b1621161015f5780634d98b1621461038657806361d027b31461039c5780636352211e146103bc5780636a00670b146103dc57806370a08231146103fc57600080fd5b80632a1add4f146103285780632d8a3ce81461033d578063352a20e91461035057806342842e0e1461036657600080fd5b8063095ea7b3116101cc578063095ea7b3146102b157806310a36c06146102d357806318160ddd146102f357806323b872dd1461030857600080fd5b806301ffc9a7146101fe57806306fdde0314610233578063081812fc14610255578063089759041461028d575b600080fd5b34801561020a57600080fd5b5061021e610219366004611bed565b610625565b60405190151581526020015b60405180910390f35b34801561023f57600080fd5b50610248610677565b60405161022a9190611c5a565b34801561026157600080fd5b50610275610270366004611c6d565b610709565b6040516001600160a01b03909116815260200161022a565b34801561029957600080fd5b506102a3600f5481565b60405190815260200161022a565b3480156102bd57600080fd5b506102d16102cc366004611ca2565b610730565b005b3480156102df57600080fd5b506102d16102ee366004611c6d565b61084a565b3480156102ff57600080fd5b506007546102a3565b34801561031457600080fd5b506102d1610323366004611ccc565b610910565b34801561033457600080fd5b506102a3600c81565b6102d161034b366004611dc3565b610941565b34801561035c57600080fd5b506102a3600b5481565b34801561037257600080fd5b506102d1610381366004611ccc565b610ca7565b34801561039257600080fd5b506102a36101f481565b3480156103a857600080fd5b50600854610275906001600160a01b031681565b3480156103c857600080fd5b506102756103d7366004611c6d565b610cc2565b3480156103e857600080fd5b506102d16103f7366004611e11565b610d22565b34801561040857600080fd5b506102a3610417366004611e2d565b610df1565b34801561042857600080fd5b506102d1610e77565b34801561043d57600080fd5b506006546001600160a01b0316610275565b34801561045b57600080fd5b506102d161046a366004611e48565b610e8b565b34801561047b57600080fd5b50610248610f74565b34801561049057600080fd5b506102d161049f366004611e96565b610f83565b3480156104b057600080fd5b506102a36104bf366004611ed2565b8051602081830181018051600a8252928201919093012091525481565b3480156104e857600080fd5b506102d16104f7366004611f07565b610f8e565b34801561050857600080fd5b50610248610517366004611c6d565b610fc6565b34801561052857600080fd5b506102a3600d5481565b34801561053e57600080fd5b506102a361138881565b34801561055457600080fd5b50610568610563366004611c6d565b61103a565b60405161022a959493929190611fbb565b34801561058557600080fd5b506102a3600c5481565b34801561059b57600080fd5b5061021e6105aa366004611ffb565b6110f7565b3480156105bb57600080fd5b506102d16105ca366004611c6d565b611125565b3480156105db57600080fd5b506102d16105ea366004611e2d565b6111be565b3480156105fb57600080fd5b506102d161060a366004611e2d565b6111e8565b34801561061b57600080fd5b506102a3600e5481565b60006001600160e01b031982166380ac58cd60e01b148061065657506001600160e01b03198216635b5e139f60e01b145b8061067157506301ffc9a760e01b6001600160e01b03198316145b92915050565b60606000805461068690612025565b80601f01602080910402602001604051908101604052809291908181526020018280546106b290612025565b80156106ff5780601f106106d4576101008083540402835291602001916106ff565b820191906000526020600020905b8154815290600101906020018083116106e257829003601f168201915b5050505050905090565b600061071482611261565b506000908152600460205260409020546001600160a01b031690565b600061073b82610cc2565b9050806001600160a01b0316836001600160a01b0316036107ad5760405162461bcd60e51b815260206004820152602160248201527f4552433732313a20617070726f76616c20746f2063757272656e74206f776e656044820152603960f91b60648201526084015b60405180910390fd5b336001600160a01b03821614806107c957506107c981336110f7565b61083b5760405162461bcd60e51b815260206004820152603d60248201527f4552433732313a20617070726f76652063616c6c6572206973206e6f7420746f60448201527f6b656e206f776e6572206f7220617070726f76656420666f7220616c6c00000060648201526084016107a4565b61084583836112c0565b505050565b3361085482610cc2565b6001600160a01b0316146108965760405162461bcd60e51b81526020600482015260096024820152682737ba1037bbb732b960b91b60448201526064016107a4565b600081815260096020526040812060048101805460ff191660011790556003015490036108d3576000818152600960205260409020426003909101555b807fcf0e24cced4489fcd3850be311b071036d458bcac95f06eb9eb33d7becb413334260405161090591815260200190565b60405180910390a250565b61091a338261132e565b6109365760405162461bcd60e51b81526004016107a49061205f565b61084583838361138d565b600a8260405161095191906120ac565b9081526020016040518091039020546000146109a95760405162461bcd60e51b81526020600482015260176024820152761555525108185b1c9958591e481c9959da5cdd195c9959604a1b60448201526064016107a4565b60028160028111156109bd576109bd611f83565b03610a0a5760405162461bcd60e51b815260206004820152601e60248201527f466f756e646572204e6f64657320617265206e6f7420666f722073616c65000060448201526064016107a4565b6000806001836002811115610a2157610a21611f83565b03610a98576101f4600c5410610a795760405162461bcd60e51b815260206004820152601b60248201527f456e7465727072697365204e6f6465204361702052656163686564000000000060448201526064016107a4565b5050600e54600c8054816000610a8e836120de565b9190505550610b08565b611388600d5410610aeb5760405162461bcd60e51b815260206004820152601a60248201527f56616c696461746f72204e6f646520436170205265616368656400000000000060448201526064016107a4565b5050600f54600d80546001916000610b02836120de565b91905055505b81341015610b585760405162461bcd60e51b815260206004820152601860248201527f496e73756666696369656e742056434e207061796d656e74000000000000000060448201526064016107a4565b6008546040516000916001600160a01b03169084908381818185875af1925050503d8060008114610ba5576040519150601f19603f3d011682016040523d82523d6000602084013e610baa565b606091505b5050905080610bfb5760405162461bcd60e51b815260206004820152601760248201527f5061796d656e74207472616e73666572206661696c656400000000000000000060448201526064016107a4565b82341115610c9457600033610c1085346120f7565b604051600081818185875af1925050503d8060008114610c4c576040519150601f19603f3d011682016040523d82523d6000602084013e610c51565b606091505b5050905080610c925760405162461bcd60e51b815260206004820152600d60248201526c1499599d5b990819985a5b1959609a1b60448201526064016107a4565b505b610ca0338686856114f1565b5050505050565b61084583838360405180602001604052806000815250610f8e565b6000818152600260205260408120546001600160a01b0316806106715760405162461bcd60e51b8152602060048201526018602482015277115490cdcc8c4e881a5b9d985b1a59081d1bdad95b88125160421b60448201526064016107a4565b610d2a611633565b6002826002811115610d3e57610d3e611f83565b03610d8b5760405162461bcd60e51b815260206004820152601860248201527f43616e6e6f742073657420466f756e646572207072696365000000000000000060448201526064016107a4565b6001826002811115610d9f57610d9f611f83565b03610dae57600e819055610db4565b600f8190555b7ff798c75b2db09ea1034d9be253e9974b17bbe4a06f2b0ff6695054fa5b7471918282604051610de592919061210a565b60405180910390a15050565b60006001600160a01b038216610e5b5760405162461bcd60e51b815260206004820152602960248201527f4552433732313a2061646472657373207a65726f206973206e6f7420612076616044820152683634b21037bbb732b960b91b60648201526084016107a4565b506001600160a01b031660009081526003602052604090205490565b610e7f611633565b610e89600061168d565b565b610e93611633565b600c600b5410610ee55760405162461bcd60e51b815260206004820152601860248201527f466f756e646572204e6f6465204361702052656163686564000000000000000060448201526064016107a4565b600a81604051610ef591906120ac565b908152602001604051809103902054600014610f4d5760405162461bcd60e51b81526020600482015260176024820152761555525108185b1c9958591e481c9959da5cdd195c9959604a1b60448201526064016107a4565b600b8054906000610f5d836120de565b9190505550610f7082826002601e6114f1565b5050565b60606001805461068690612025565b610f703383836116df565b610f98338361132e565b610fb45760405162461bcd60e51b81526004016107a49061205f565b610fc0848484846117ad565b50505050565b6060610fd182611261565b6000610fe860408051602081019091526000815290565b905060008151116110085760405180602001604052806000815250611033565b80611012846117e0565b604051602001611023929190612125565b6040516020818303038152906040525b9392505050565b60096020526000908152604090208054819061105590612025565b80601f016020809104026020016040519081016040528092919081815260200182805461108190612025565b80156110ce5780601f106110a3576101008083540402835291602001916110ce565b820191906000526020600020905b8154815290600101906020018083116110b157829003601f168201915b505050600184015460028501546003860154600490960154949560ff9283169591945092501685565b6001600160a01b03918216600090815260056020908152604080832093909416825291909152205460ff1690565b3361112f82610cc2565b6001600160a01b0316146111715760405162461bcd60e51b81526020600482015260096024820152682737ba1037bbb732b960b91b60448201526064016107a4565b60008181526009602052604090819020600401805460ff191690555181907f15de289d93f2b04f6e4abb879011c8a3749e4b67c0634312ab1e91fa6407804d906109059042815260200190565b6111c6611633565b600880546001600160a01b0319166001600160a01b0392909216919091179055565b6111f0611633565b6001600160a01b0381166112555760405162461bcd60e51b815260206004820152602660248201527f4f776e61626c653a206e6577206f776e657220697320746865207a65726f206160448201526564647265737360d01b60648201526084016107a4565b61125e8161168d565b50565b6000818152600260205260409020546001600160a01b031661125e5760405162461bcd60e51b8152602060048201526018602482015277115490cdcc8c4e881a5b9d985b1a59081d1bdad95b88125160421b60448201526064016107a4565b600081815260046020526040902080546001600160a01b0319166001600160a01b03841690811790915581906112f582610cc2565b6001600160a01b03167f8c5be1e5ebec7d5bd14f71427d1e84f3dd0314c0f7b2291e5b200ac8c7c3b92560405160405180910390a45050565b60008061133a83610cc2565b9050806001600160a01b0316846001600160a01b03161480611361575061136181856110f7565b806113855750836001600160a01b031661137a84610709565b6001600160a01b0316145b949350505050565b826001600160a01b03166113a082610cc2565b6001600160a01b0316146113c65760405162461bcd60e51b81526004016107a490612154565b6001600160a01b0382166114285760405162461bcd60e51b8152602060048201526024808201527f4552433732313a207472616e7366657220746f20746865207a65726f206164646044820152637265737360e01b60648201526084016107a4565b826001600160a01b031661143b82610cc2565b6001600160a01b0316146114615760405162461bcd60e51b81526004016107a490612154565b600081815260046020908152604080832080546001600160a01b03199081169091556001600160a01b0387811680865260038552838620805460001901905590871680865283862080546001019055868652600290945282852080549092168417909155905184937fddf252ad1be2c89b69c2b068fc378daa952ba7f163c4a11628f55a4df523b3ef91a4505050565b60078054906000611501836120de565b90915550506007546115138582611873565b6040518060a0016040528085815260200184600281111561153657611536611f83565b815260208082018590526000604080840182905260609093018190528481526009909152208151819061156990826121e7565b50602082015160018083018054909160ff199091169083600281111561159157611591611f83565b02179055506040828101516002830155606083015160038301556080909201516004909101805460ff1916911515919091179055518190600a906115d69087906120ac565b90815260200160405180910390208190555080856001600160a01b03167f086d86777613c0607b2b012890e8fd22e796dd3c9572baf2247f7b22de396f1b858560405161162492919061210a565b60405180910390a35050505050565b6006546001600160a01b03163314610e895760405162461bcd60e51b815260206004820181905260248201527f4f776e61626c653a2063616c6c6572206973206e6f7420746865206f776e657260448201526064016107a4565b600680546001600160a01b038381166001600160a01b0319831681179093556040519116919082907f8be0079c531659141344cd1fd0a4f28419497f9722a3daafe3b4186f6b6457e090600090a35050565b816001600160a01b0316836001600160a01b0316036117405760405162461bcd60e51b815260206004820152601960248201527f4552433732313a20617070726f766520746f2063616c6c65720000000000000060448201526064016107a4565b6001600160a01b03838116600081815260056020908152604080832094871680845294825291829020805460ff191686151590811790915591519182527f17307eab39ab6107e8899845ad3d59bd9653f200f220920489ca2b5937696c31910160405180910390a3505050565b6117b884848461138d565b6117c4848484846119fe565b610fc05760405162461bcd60e51b81526004016107a4906122a7565b606060006117ed83611aff565b600101905060008167ffffffffffffffff81111561180d5761180d611d08565b6040519080825280601f01601f191660200182016040528015611837576020820181803683370190505b5090508181016020015b600019016f181899199a1a9b1b9c1cb0b131b232b360811b600a86061a8153600a850494508461184157509392505050565b6001600160a01b0382166118c95760405162461bcd60e51b815260206004820181905260248201527f4552433732313a206d696e7420746f20746865207a65726f206164647265737360448201526064016107a4565b6000818152600260205260409020546001600160a01b03161561192e5760405162461bcd60e51b815260206004820152601c60248201527f4552433732313a20746f6b656e20616c7265616479206d696e7465640000000060448201526064016107a4565b6000818152600260205260409020546001600160a01b0316156119935760405162461bcd60e51b815260206004820152601c60248201527f4552433732313a20746f6b656e20616c7265616479206d696e7465640000000060448201526064016107a4565b6001600160a01b038216600081815260036020908152604080832080546001019055848352600290915280822080546001600160a01b0319168417905551839291907fddf252ad1be2c89b69c2b068fc378daa952ba7f163c4a11628f55a4df523b3ef908290a45050565b60006001600160a01b0384163b15611af457604051630a85bd0160e11b81526001600160a01b0385169063150b7a0290611a429033908990889088906004016122f9565b6020604051808303816000875af1925050508015611a7d575060408051601f3d908101601f19168201909252611a7a91810190612336565b60015b611ada573d808015611aab576040519150601f19603f3d011682016040523d82523d6000602084013e611ab0565b606091505b508051600003611ad25760405162461bcd60e51b81526004016107a4906122a7565b805181602001fd5b6001600160e01b031916630a85bd0160e11b149050611385565b506001949350505050565b60008072184f03e93ff9f4daa797ed6e38ed64bf6a1f0160401b8310611b3e5772184f03e93ff9f4daa797ed6e38ed64bf6a1f0160401b830492506040015b6d04ee2d6d415b85acef81000000008310611b6a576d04ee2d6d415b85acef8100000000830492506020015b662386f26fc100008310611b8857662386f26fc10000830492506010015b6305f5e1008310611ba0576305f5e100830492506008015b6127108310611bb457612710830492506004015b60648310611bc6576064830492506002015b600a83106106715760010192915050565b6001600160e01b03198116811461125e57600080fd5b600060208284031215611bff57600080fd5b813561103381611bd7565b60005b83811015611c25578181015183820152602001611c0d565b50506000910152565b60008151808452611c46816020860160208601611c0a565b601f01601f19169290920160200192915050565b6020815260006110336020830184611c2e565b600060208284031215611c7f57600080fd5b5035919050565b80356001600160a01b0381168114611c9d57600080fd5b919050565b60008060408385031215611cb557600080fd5b611cbe83611c86565b946020939093013593505050565b600080600060608486031215611ce157600080fd5b611cea84611c86565b9250611cf860208501611c86565b9150604084013590509250925092565b634e487b7160e01b600052604160045260246000fd5b600067ffffffffffffffff80841115611d3957611d39611d08565b604051601f8501601f19908116603f01168101908282118183101715611d6157611d61611d08565b81604052809350858152868686011115611d7a57600080fd5b858560208301376000602087830101525050509392505050565b600082601f830112611da557600080fd5b61103383833560208501611d1e565b803560038110611c9d57600080fd5b60008060408385031215611dd657600080fd5b823567ffffffffffffffff811115611ded57600080fd5b611df985828601611d94565b925050611e0860208401611db4565b90509250929050565b60008060408385031215611e2457600080fd5b611cbe83611db4565b600060208284031215611e3f57600080fd5b61103382611c86565b60008060408385031215611e5b57600080fd5b611e6483611c86565b9150602083013567ffffffffffffffff811115611e8057600080fd5b611e8c85828601611d94565b9150509250929050565b60008060408385031215611ea957600080fd5b611eb283611c86565b915060208301358015158114611ec757600080fd5b809150509250929050565b600060208284031215611ee457600080fd5b813567ffffffffffffffff811115611efb57600080fd5b61138584828501611d94565b60008060008060808587031215611f1d57600080fd5b611f2685611c86565b9350611f3460208601611c86565b925060408501359150606085013567ffffffffffffffff811115611f5757600080fd5b8501601f81018713611f6857600080fd5b611f7787823560208401611d1e565b91505092959194509250565b634e487b7160e01b600052602160045260246000fd5b60038110611fb757634e487b7160e01b600052602160045260246000fd5b9052565b60a081526000611fce60a0830188611c2e565b9050611fdd6020830187611f99565b84604083015283606083015282151560808301529695505050505050565b6000806040838503121561200e57600080fd5b61201783611c86565b9150611e0860208401611c86565b600181811c9082168061203957607f821691505b60208210810361205957634e487b7160e01b600052602260045260246000fd5b50919050565b6020808252602d908201527f4552433732313a2063616c6c6572206973206e6f7420746f6b656e206f776e6560408201526c1c881bdc88185c1c1c9bdd9959609a1b606082015260800190565b600082516120be818460208701611c0a565b9190910192915050565b634e487b7160e01b600052601160045260246000fd5b6000600182016120f0576120f06120c8565b5060010190565b81810381811115610671576106716120c8565b604081016121188285611f99565b8260208301529392505050565b60008351612137818460208801611c0a565b83519083019061214b818360208801611c0a565b01949350505050565b60208082526025908201527f4552433732313a207472616e736665722066726f6d20696e636f72726563742060408201526437bbb732b960d91b606082015260800190565b601f82111561084557600081815260208120601f850160051c810160208610156121c05750805b601f850160051c820191505b818110156121df578281556001016121cc565b505050505050565b815167ffffffffffffffff81111561220157612201611d08565b6122158161220f8454612025565b84612199565b602080601f83116001811461224a57600084156122325750858301515b600019600386901b1c1916600185901b1785556121df565b600085815260208120601f198616915b828110156122795788860151825594840194600190910190840161225a565b50858210156122975787850151600019600388901b60f8161c191681555b5050505050600190811b01905550565b60208082526032908201527f4552433732313a207472616e7366657220746f206e6f6e20455243373231526560408201527131b2b4bb32b91034b6b83632b6b2b73a32b960711b606082015260800190565b6001600160a01b038581168252841660208201526040810183905260806060820181905260009061232c90830184611c2e565b9695505050505050565b60006020828403121561234857600080fd5b815161103381611bd756fea2646970667358221220e23ec4f217274cf1b652044c39ca5ea55f3a55a87b288378e6476052f633362264736f6c63430008140033",
  "linkReferences": {},
  "deployedLinkReferences": {}
}