{
  "_format": "hh-sol-artifact-1",
  "contractName": "TimeLockAgent",
  "sourceName": "contracts/TimeLockAgent.sol",
  "abi": [
    {
      "inputs": [],
      "stateMutability": "nonpayable",
      "type": "constructor"
    },
    {
      "inputs": [],
      "name": "EnforcedPause",
      "type": "error"
    },
    {
      "inputs": [],
      "name": "ExpectedPause",
      "type": "error"
    },
    {
      "inputs": [
        {
          "internalType": "address",
          "name": "owner",
          "type": "address"
        }
      ],
      "name": "OwnableInvalidOwner",
      "type": "error"
    },
    {
      "inputs": [
        {
          "internalType": "address",
          "name": "account",
          "type": "address"
        }
      ],
      "name": "OwnableUnauthorizedAccount",
      "type": "error"
    },
    {
      "inputs": [],
      "name": "ReentrancyGuardReentrantCall",
      "type": "error"
    },
    {
      "anonymous": false,
      "inputs": [
        {
          "indexed": true,
          "internalType": "address",
          "name": "executor",
          "type": "address"
        },
        {
          "indexed": false,
          "internalType": "bool",
          "name": "allowed",
          "type": "bool"
        }
      ],
      "name": "ExecutorUpdated",
      "type": "event"
    },
    {
      "anonymous": false,
      "inputs": [
        {
          "indexed": false,
          "internalType": "uint256",
          "name": "newGracePeriod",
          "type": "uint256"
        }
      ],
      "name": "GracePeriodUpdated",
      "type": "event"
    },
    {
      "anonymous": false,
      "inputs": [
        {
          "indexed": true,
          "internalType": "address",
          "name": "previousOwner",
          "type": "address"
        },
        {
          "indexed": true,
          "internalType": "address",
          "name": "newOwner",
          "type": "address"
        }
      ],
      "name": "OwnershipTransferred",
      "type": "event"
    },
    {
      "anonymous": false,
      "inputs": [
        {
          "indexed": false,
          "internalType": "address",
          "name": "account",
          "type": "address"
        }
      ],
      "name": "Paused",
      "type": "event"
    },
    {
      "anonymous": false,
      "inputs": [
        {
          "indexed": true,
          "internalType": "uint256",
          "name": "scheduleId",
          "type": "uint256"
        },
        {
          "indexed": false,
          "internalType": "uint256",
          "name": "cancelledAt",
          "type": "uint256"
        }
      ],
      "name": "TransferCancelled",
      "type": "event"
    },
    {
      "anonymous": false,
      "inputs": [
        {
          "indexed": true,
          "internalType": "uint256",
          "name": "scheduleId",
          "type": "uint256"
        },
        {
          "indexed": true,
          "internalType": "address",
          "name": "executor",
          "type": "address"
        },
        {
          "indexed": false,
          "internalType": "uint256",
          "name": "executedAt",
          "type": "uint256"
        }
      ],
      "name": "TransferExecuted",
      "type": "event"
    },
    {
      "anonymous": false,
      "inputs": [
        {
          "indexed": true,
          "internalType": "uint256",
          "name": "scheduleId",
          "type": "uint256"
        },
        {
          "indexed": false,
          "internalType": "uint256",
          "name": "expiredAt",
          "type": "uint256"
        }
      ],
      "name": "TransferExpired",
      "type": "event"
    },
    {
      "anonymous": false,
      "inputs": [
        {
          "indexed": true,
          "internalType": "uint256",
          "name": "scheduleId",
          "type": "uint256"
        },
        {
          "indexed": true,
          "internalType": "address",
          "name": "creator",
          "type": "address"
        },
        {
          "indexed": true,
          "internalType": "address",
          "name": "to",
          "type": "address"
        },
        {
          "indexed": false,
          "internalType": "uint256",
          "name": "amount",
          "type": "uint256"
        },
        {
          "indexed": false,
          "internalType": "uint256",
          "name": "unlockTime",
          "type": "uint256"
        }
      ],
      "name": "TransferScheduled",
      "type": "event"
    },
    {
      "anonymous": false,
      "inputs": [
        {
          "indexed": false,
          "internalType": "address",
          "name": "account",
          "type": "address"
        }
      ],
      "name": "Unpaused",
      "type": "event"
    },
    {
      "inputs": [
        {
          "internalType": "uint256",
          "name": "scheduleId",
          "type": "uint256"
        }
      ],
      "name": "cancelTransfer",
      "outputs": [],
      "stateMutability": "nonpayable",
      "type": "function"
    },
    {
      "inputs": [
        {
          "internalType": "uint256",
          "name": "scheduleId",
          "type": "uint256"
        }
      ],
      "name": "executeTransfer",
      "outputs": [],
      "stateMutability": "nonpayable",
      "type": "function"
    },
    {
      "inputs": [
        {
          "internalType": "uint256",
          "name": "scheduleId",
          "type": "uint256"
        }
      ],
      "name": "expireTransfer",
      "outputs": [],
      "stateMutability": "nonpayable",
      "type": "function"
    },
    {
      "inputs": [],
      "name": "gracePeriod",
      "outputs": [
        {
          "internalType": "uint256",
          "name": "",
          "type": "uint256"
        }
      ],
      "stateMutability": "view",
      "type": "function"
    },
    {
      "inputs": [
        {
          "internalType": "address",
          "name": "",
          "type": "address"
        }
      ],
      "name": "isExecutor",
      "outputs": [
        {
          "internalType": "bool",
          "name": "",
          "type": "bool"
        }
      ],
      "stateMutability": "view",
      "type": "function"
    },
    {
      "inputs": [],
      "name": "nextScheduleId",
      "outputs": [
        {
          "internalType": "uint256",
          "name": "",
          "type": "uint256"
        }
      ],
      "stateMutability": "view",
      "type": "function"
    },
    {
      "inputs": [],
      "name": "owner",
      "outputs": [
        {
          "internalType": "address",
          "name": "",
          "type": "address"
        }
      ],
      "stateMutability": "view",
      "type": "function"
    },
    {
      "inputs": [],
      "name": "pause",
      "outputs": [],
      "stateMutability": "nonpayable",
      "type": "function"
    },
    {
      "inputs": [],
      "name": "paused",
      "outputs": [
        {
          "internalType": "bool",
          "name": "",
          "type": "bool"
        }
      ],
      "stateMutability": "view",
      "type": "function"
    },
    {
      "inputs": [],
      "name": "renounceOwnership",
      "outputs": [],
      "stateMutability": "nonpayable",
      "type": "function"
    },
    {
      "inputs": [
        {
          "internalType": "address",
          "name": "to",
          "type": "address"
        },
        {
          "internalType": "uint256",
          "name": "unlockTime",
          "type": "uint256"
        }
      ],
      "name": "scheduleTransferNative",
      "outputs": [
        {
          "internalType": "uint256",
          "name": "",
          "type": "uint256"
        }
      ],
      "stateMutability": "payable",
      "type": "function"
    },
    {
      "inputs": [
        {
          "internalType": "address",
          "name": "executor",
          "type": "address"
        },
        {
          "internalType": "bool",
          "name": "allowed",
          "type": "bool"
        }
      ],
      "name": "setExecutor",
      "outputs": [],
      "stateMutability": "nonpayable",
      "type": "function"
    },
    {
      "inputs": [
        {
          "internalType": "uint256",
          "name": "newGracePeriod",
          "type": "uint256"
        }
      ],
      "name": "setGracePeriod",
      "outputs": [],
      "stateMutability": "nonpayable",
      "type": "function"
    },
    {
      "inputs": [
        {
          "internalType": "address",
          "name": "newOwner",
          "type": "address"
        }
      ],
      "name": "transferOwnership",
      "outputs": [],
      "stateMutability": "nonpayable",
      "type": "function"
    },
    {
      "inputs": [
        {
          "internalType": "uint256",
          "name": "",
          "type": "uint256"
        }
      ],
      "name": "transfers",
      "outputs": [
        {
          "internalType": "uint256",
          "name": "id",
          "type": "uint256"
        },
        {
          "internalType": "address",
          "name": "creator",
          "type": "address"
        },
        {
          "internalType": "address",
          "name": "to",
          "type": "address"
        },
        {
          "internalType": "uint256",
          "name": "amount",
          "type": "uint256"
        },
        {
          "internalType": "uint256",
          "name": "unlockTime",
          "type": "uint256"
        },
        {
          "internalType": "enum TimeLockAgent.Status",
          "name": "status",
          "type": "uint8"
        },
        {
          "internalType": "uint256",
          "name": "createdAt",
          "type": "uint256"
        }
      ],
      "stateMutability": "view",
      "type": "function"
    },
    {
      "inputs": [],
      "name": "unpause",
      "outputs": [],
      "stateMutability": "nonpayable",
      "type": "function"
    },
    {
      "stateMutability": "payable",
      "type": "receive"
    }
  ],
  "bytecode": "0x608060405262093a8060035534801561001757600080fd5b506001600055338061004357604051631e4fbdf760e01b81526000600482015260240160405180910390fd5b61004c816100a3565b5033600081815260056020908152604091829020805460ff1916600190811790915591519182527f9fdbc2d48b8a0db2f62663bf9312ad02f5b1f6414ad600b55a247d09aeec3ea2910160405180910390a26100fd565b600180546001600160a01b03838116610100818102610100600160a81b031985161790945560405193909204169182907f8be0079c531659141344cd1fd0a4f28419497f9722a3daafe3b4186f6b6457e090600090a35050565b6111cf8061010c6000396000f3fe6080604052600436106100f75760003560e01c80638da5cb5b1161008a578063debfda3011610059578063debfda30146102cb578063f05d5752146102fb578063f2f659601461031b578063f2fde38b1461033b57600080fd5b80638da5cb5b146101e4578063902cd1641461021a5780639377d7111461023a578063a06db7dc146102b557600080fd5b806359caecb5116100c657806359caecb5146101765780635c975abb14610196578063715018a6146101ba5780638456cb59146101cf57600080fd5b80630b628b0a146101035780630f038d41146101295780631e1bff3f1461013f5780633f4ba83a1461016157600080fd5b366100fe57005b600080fd5b610116610111366004610fc4565b61035b565b6040519081526020015b60405180910390f35b34801561013557600080fd5b5061011660025481565b34801561014b57600080fd5b5061015f61015a366004610fee565b6105eb565b005b34801561016d57600080fd5b5061015f610652565b34801561018257600080fd5b5061015f61019136600461102a565b610664565b3480156101a257600080fd5b5060015460ff165b6040519015158152602001610120565b3480156101c657600080fd5b5061015f6108f4565b3480156101db57600080fd5b5061015f610906565b3480156101f057600080fd5b5060015461010090046001600160a01b03166040516001600160a01b039091168152602001610120565b34801561022657600080fd5b5061015f61023536600461102a565b610916565b34801561024657600080fd5b506102a261025536600461102a565b6004602081905260009182526040909120805460018201546002830154600384015494840154600585015460069095015493956001600160a01b03938416959290931693909160ff169087565b6040516101209796959493929190611059565b3480156102c157600080fd5b5061011660035481565b3480156102d757600080fd5b506101aa6102e63660046110b8565b60056020526000908152604090205460ff1681565b34801561030757600080fd5b5061015f61031636600461102a565b610b19565b34801561032757600080fd5b5061015f61033636600461102a565b610d9f565b34801561034757600080fd5b5061015f6103563660046110b8565b610de2565b6000610365610e1d565b600034116103cf5760405162461bcd60e51b815260206004820152602c60248201527f54696d654c6f636b4167656e743a20416d6f756e74206d75737420626520677260448201526b06561746572207468616e20360a41b60648201526084015b60405180910390fd5b6001600160a01b0383166104255760405162461bcd60e51b815260206004820181905260248201527f54696d654c6f636b4167656e743a20496e76616c696420726563697069656e7460448201526064016103c6565b4282116104895760405162461bcd60e51b815260206004820152602c60248201527f54696d654c6f636b4167656e743a20556e6c6f636b2074696d65206d7573742060448201526b626520696e2066757475726560a01b60648201526084016103c6565b600280546000918261049a836110f0565b9190505590506040518060e00160405280828152602001336001600160a01b03168152602001856001600160a01b03168152602001348152602001848152602001600060038111156104ee576104ee611043565b815242602091820152600083815260048083526040918290208451815592840151600180850180546001600160a01b039384166001600160a01b03199182161790915593860151600286018054919093169416939093179055606084015160038085019190915560808501519184019190915560a08401516005840180549193909260ff1990921691849081111561058857610588611043565b021790555060c0919091015160069091015560408051348152602081018590526001600160a01b03861691339184917fac460bc36b8940a1f439f8582126bce906841b8a1496a9374b63cd95b3d03360910160405180910390a490505b92915050565b6105f3610e41565b6001600160a01b038216600081815260056020908152604091829020805460ff191685151590811790915591519182527f9fdbc2d48b8a0db2f62663bf9312ad02f5b1f6414ad600b55a247d09aeec3ea2910160405180910390a25050565b61065a610e41565b610662610e74565b565b61066c610ec6565b60008181526004602052604081206006015482910361069d5760405162461bcd60e51b81526004016103c690611109565b60008281526004602052604090206001015482906001600160a01b031633146107195760405162461bcd60e51b815260206004820152602860248201527f54696d654c6f636b4167656e743a2043616c6c6572206973206e6f74207468656044820152671031b932b0ba37b960c11b60648201526084016103c6565b8260008060008381526004602052604090206005015460ff16600381111561074357610743611043565b146107605760405162461bcd60e51b81526004016103c69061114f565b6000858152600460208190526040909120015442106107e05760405162461bcd60e51b815260206004820152603660248201527f54696d654c6f636b4167656e743a20546f6f206c61746520746f2063616e63656044820152756c2c2075736520657870697265206966207374616c6560501b60648201526084016103c6565b60008581526004602052604080822060058101805460ff191660021790556001810154600382015492519193926001600160a01b03909116918381818185875af1925050503d8060008114610851576040519150601f19603f3d011682016040523d82523d6000602084013e610856565b606091505b50509050806108a75760405162461bcd60e51b815260206004820152601c60248201527f54696d654c6f636b4167656e743a20526566756e64206661696c65640000000060448201526064016103c6565b867f59c3e31ec8892c34508197e97c25f0e4da6d87733b22b22765425d203f44667a426040516108d991815260200190565b60405180910390a25050505050506108f16001600055565b50565b6108fc610e41565b6106626000610ef0565b61090e610e41565b610662610f4a565b61091e610ec6565b60008181526004602052604081206006015482910361094f5760405162461bcd60e51b81526004016103c690611109565b8160008060008381526004602052604090206005015460ff16600381111561097957610979611043565b146109965760405162461bcd60e51b81526004016103c69061114f565b60008481526004602081905260409091206003549181015490916109b991611186565b4211610a165760405162461bcd60e51b815260206004820152602660248201527f54696d654c6f636b4167656e743a20477261636520706572696f64206e6f74206044820152651c185cdcd95960d21b60648201526084016103c6565b60058101805460ff191660039081179091556001820154908201546040516000926001600160a01b031691908381818185875af1925050503d8060008114610a7a576040519150601f19603f3d011682016040523d82523d6000602084013e610a7f565b606091505b5050905080610ad05760405162461bcd60e51b815260206004820152601c60248201527f54696d654c6f636b4167656e743a20526566756e64206661696c65640000000060448201526064016103c6565b857fec7f25aef06e3f0e65e88e262bb891d91ec94fec8cf5858339abf0907ed04f1542604051610b0291815260200190565b60405180910390a250505050506108f16001600055565b610b21610ec6565b610b29610e1d565b3360009081526005602052604090205460ff1680610b68575060015461010090046001600160a01b03166001600160a01b0316336001600160a01b0316145b610bc55760405162461bcd60e51b815260206004820152602860248201527f54696d654c6f636b4167656e743a2043616c6c6572206973206e6f7420616e2060448201526732bc32b1baba37b960c11b60648201526084016103c6565b600081815260046020526040812060060154829103610bf65760405162461bcd60e51b81526004016103c690611109565b8160008060008381526004602052604090206005015460ff166003811115610c2057610c20611043565b14610c3d5760405162461bcd60e51b81526004016103c69061114f565b600084815260046020819052604090912090810154421015610ca15760405162461bcd60e51b815260206004820152601a60248201527f54696d654c6f636b4167656e743a2054696d65206c6f636b656400000000000060448201526064016103c6565b60058101805460ff19166001179055600281015460038201546040516000926001600160a01b031691908381818185875af1925050503d8060008114610d03576040519150601f19603f3d011682016040523d82523d6000602084013e610d08565b606091505b5050905080610d595760405162461bcd60e51b815260206004820152601e60248201527f54696d654c6f636b4167656e743a205472616e73666572206661696c6564000060448201526064016103c6565b604051428152339087907f933b5d399a2cb8171a93e83d7b26f016dc6db708b3424cfbc84a04354f7a217a9060200160405180910390a350505050506108f16001600055565b610da7610e41565b60038190556040518181527f33d1191f5a3abfe19d468d51bb5ece97489f1277a912a5b5c65992fc279ad3d49060200160405180910390a150565b610dea610e41565b6001600160a01b038116610e1457604051631e4fbdf760e01b8152600060048201526024016103c6565b6108f181610ef0565b60015460ff16156106625760405163d93c066560e01b815260040160405180910390fd5b6001546001600160a01b036101009091041633146106625760405163118cdaa760e01b81523360048201526024016103c6565b610e7c610f85565b6001805460ff191690557f5db9ee0a495bf2e6ff9c91a7834c1ba4fdd244a5e8aa4e537bd38aeae4b073aa335b6040516001600160a01b03909116815260200160405180910390a1565b600260005403610ee957604051633ee5aeb560e01b815260040160405180910390fd5b6002600055565b600180546001600160a01b03838116610100818102610100600160a81b031985161790945560405193909204169182907f8be0079c531659141344cd1fd0a4f28419497f9722a3daafe3b4186f6b6457e090600090a35050565b610f52610e1d565b6001805460ff1916811790557f62e78cea01bee320cd4e420270b5ea74000d11b0c9f74754ebdbfc544b05a25833610ea9565b60015460ff1661066257604051638dfc202b60e01b815260040160405180910390fd5b80356001600160a01b0381168114610fbf57600080fd5b919050565b60008060408385031215610fd757600080fd5b610fe083610fa8565b946020939093013593505050565b6000806040838503121561100157600080fd5b61100a83610fa8565b91506020830135801515811461101f57600080fd5b809150509250929050565b60006020828403121561103c57600080fd5b5035919050565b634e487b7160e01b600052602160045260246000fd5b8781526001600160a01b03878116602083015286166040820152606081018590526080810184905260e08101600484106110a357634e487b7160e01b600052602160045260246000fd5b60a082019390935260c0015295945050505050565b6000602082840312156110ca57600080fd5b6110d382610fa8565b9392505050565b634e487b7160e01b600052601160045260246000fd5b600060018201611102576111026110da565b5060010190565b60208082526026908201527f54696d654c6f636b4167656e743a205472616e7366657220646f6573206e6f7460408201526508195e1a5cdd60d21b606082015260800190565b6020808252601d908201527f54696d654c6f636b4167656e743a20496e76616c696420737461747573000000604082015260600190565b808201808211156105e5576105e56110da56fea2646970667358221220e0496d8ec06b0733ff7a112a808c2e7986d3d0644dd855dca5d6edcc571d7e5564736f6c63430008140033",
  "linkReferences": {},
  "deployedLinkReferences": {}
}