{
  "_format": "hh-sol-artifact-1",
  "contractName": "TimeLockAgent",
  "sourceName": "contracts/TimeLockAgent.sol",
  "abi": [
    {
      "inputs": [],
      "stateMutability": "nonpayable",
      "type": "constructor"
    },
    {
      "inputs": [],
      "name": "EnforcedPause",
      "type": "error"
    },
    {
      "inputs": [],
      "name": "ExpectedPause",
      "type": "error"
    },
    {
      "inputs": [
        {
          "internalType": "address",
          "name": "owner",
          "type": "address"
        }
      ],
      "name": "OwnableInvalidOwner",
      "type": "error"
    },
    {
      "inputs": [
        {
          "internalType": "address",
          "name": "account",
          "type": "address"
        }
      ],
      "name": "OwnableUnauthorizedAccount",
      "type": "error"
    },
    {
      "inputs": [],
      "name": "ReentrancyGuardReentrantCall",
      "type": "error"
    },
    {
      "anonymous": false,
      "inputs": [
        {
          "indexed": true,
          "internalType": "address",
          "name": "executor",
          "type": "address"
        },
        {
          "indexed": false,
          "internalType": "bool",
          "name": "allowed",
          "type": "bool"
        }
      ],
      "name": "ExecutorUpdated",
      "type": "event"
    },
    {
      "anonymous": false,
      "inputs": [
        {
          "indexed": false,
          "internalType": "uint256",
          "name": "newGracePeriod",
          "type": "uint256"
        }
      ],
      "name": "GracePeriodUpdated",
      "type": "event"
    },
    {
      "anonymous": false,
      "inputs": [
        {
          "indexed": true,
          "internalType": "address",
          "name": "previousOwner",
          "type": "address"
        },
        {
          "indexed": true,
          "internalType": "address",
          "name": "newOwner",
          "type": "address"
        }
      ],
      "name": "OwnershipTransferred",
      "type": "event"
    },
    {
      "anonymous": false,
      "inputs": [
        {
          "indexed": false,
          "internalType": "address",
          "name": "account",
          "type": "address"
        }
      ],
      "name": "Paused",
      "type": "event"
    },
    {
      "anonymous": false,
      "inputs": [
        {
          "indexed": true,
          "internalType": "uint256",
          "name": "scheduleId",
          "type": "uint256"
        },
        {
          "indexed": false,
          "internalType": "uint256",
          "name": "cancelledAt",
          "type": "uint256"
        }
      ],
      "name": "TransferCancelled",
      "type": "event"
    },
    {
      "anonymous": false,
      "inputs": [
        {
          "indexed": true,
          "internalType": "uint256",
          "name": "scheduleId",
          "type": "uint256"
        },
        {
          "indexed": true,
          "internalType": "address",
          "name": "executor",
          "type": "address"
        },
        {
          "indexed": false,
          "internalType": "uint256",
          "name": "executedAt",
          "type": "uint256"
        }
      ],
      "name": "TransferExecuted",
      "type": "event"
    },
    {
      "anonymous": false,
      "inputs": [
        {
          "indexed": true,
          "internalType": "uint256",
          "name": "scheduleId",
          "type": "uint256"
        },
        {
          "indexed": false,
          "internalType": "uint256",
          "name": "expiredAt",
          "type": "uint256"
        }
      ],
      "name": "TransferExpired",
      "type": "event"
    },
    {
      "anonymous": false,
      "inputs": [
        {
          "indexed": true,
          "internalType": "uint256",
          "name": "scheduleId",
          "type": "uint256"
        },
        {
          "indexed": true,
          "internalType": "address",
          "name": "creator",
          "type": "address"
        },
        {
          "indexed": true,
          "internalType": "address",
          "name": "to",
          "type": "address"
        },
        {
          "indexed": false,
          "internalType": "uint256",
          "name": "amount",
          "type": "uint256"
        },
        {
          "indexed": false,
          "internalType": "uint256",
          "name": "unlockTime",
          "type": "uint256"
        }
      ],
      "name": "TransferScheduled",
      "type": "event"
    },
    {
      "anonymous": false,
      "inputs": [
        {
          "indexed": false,
          "internalType": "address",
          "name": "account",
          "type": "address"
        }
      ],
      "name": "Unpaused",
      "type": "event"
    },
    {
      "inputs": [
        {
          "internalType": "uint256",
          "name": "scheduleId",
          "type": "uint256"
        }
      ],
      "name": "cancelTransfer",
      "outputs": [],
      "stateMutability": "nonpayable",
      "type": "function"
    },
    {
      "inputs": [
        {
          "internalType": "uint256[]",
          "name": "scheduleIds",
          "type": "uint256[]"
        }
      ],
      "name": "executeBatch",
      "outputs": [],
      "stateMutability": "nonpayable",
      "type": "function"
    },
    {
      "inputs": [
        {
          "internalType": "uint256",
          "name": "scheduleId",
          "type": "uint256"
        }
      ],
      "name": "executeTransfer",
      "outputs": [],
      "stateMutability": "nonpayable",
      "type": "function"
    },
    {
      "inputs": [
        {
          "internalType": "uint256",
          "name": "scheduleId",
          "type": "uint256"
        }
      ],
      "name": "expireTransfer",
      "outputs": [],
      "stateMutability": "nonpayable",
      "type": "function"
    },
    {
      "inputs": [],
      "name": "gracePeriod",
      "outputs": [
        {
          "internalType": "uint256",
          "name": "",
          "type": "uint256"
        }
      ],
      "stateMutability": "view",
      "type": "function"
    },
    {
      "inputs": [
        {
          "internalType": "address",
          "name": "",
          "type": "address"
        }
      ],
      "name": "isExecutor",
      "outputs": [
        {
          "internalType": "bool",
          "name": "",
          "type": "bool"
        }
      ],
      "stateMutability": "view",
      "type": "function"
    },
    {
      "inputs": [],
      "name": "nextScheduleId",
      "outputs": [
        {
          "internalType": "uint256",
          "name": "",
          "type": "uint256"
        }
      ],
      "stateMutability": "view",
      "type": "function"
    },
    {
      "inputs": [],
      "name": "owner",
      "outputs": [
        {
          "internalType": "address",
          "name": "",
          "type": "address"
        }
      ],
      "stateMutability": "view",
      "type": "function"
    },
    {
      "inputs": [],
      "name": "pause",
      "outputs": [],
      "stateMutability": "nonpayable",
      "type": "function"
    },
    {
      "inputs": [],
      "name": "paused",
      "outputs": [
        {
          "internalType": "bool",
          "name": "",
          "type": "bool"
        }
      ],
      "stateMutability": "view",
      "type": "function"
    },
    {
      "inputs": [],
      "name": "renounceOwnership",
      "outputs": [],
      "stateMutability": "nonpayable",
      "type": "function"
    },
    {
      "inputs": [
        {
          "internalType": "address",
          "name": "to",
          "type": "address"
        },
        {
          "internalType": "uint256",
          "name": "unlockTime",
          "type": "uint256"
        }
      ],
      "name": "scheduleTransferNative",
      "outputs": [
        {
          "internalType": "uint256",
          "name": "",
          "type": "uint256"
        }
      ],
      "stateMutability": "payable",
      "type": "function"
    },
    {
      "inputs": [
        {
          "internalType": "address",
          "name": "executor",
          "type": "address"
        },
        {
          "internalType": "bool",
          "name": "allowed",
          "type": "bool"
        }
      ],
      "name": "setExecutor",
      "outputs": [],
      "stateMutability": "nonpayable",
      "type": "function"
    },
    {
      "inputs": [
        {
          "internalType": "uint256",
          "name": "newGracePeriod",
          "type": "uint256"
        }
      ],
      "name": "setGracePeriod",
      "outputs": [],
      "stateMutability": "nonpayable",
      "type": "function"
    },
    {
      "inputs": [
        {
          "internalType": "address",
          "name": "newOwner",
          "type": "address"
        }
      ],
      "name": "transferOwnership",
      "outputs": [],
      "stateMutability": "nonpayable",
      "type": "function"
    },
    {
      "inputs": [
        {
          "internalType": "uint256",
          "name": "",
          "type": "uint256"
        }
      ],
      "name": "transfers",
      "outputs": [
        {
          "internalType": "uint256",
          "name": "id",
          "type": "uint256"
        },
        {
          "internalType": "address",
          "name": "creator",
          "type": "address"
        },
        {
          "internalType": "address",
          "name": "to",
          "type": "address"
        },
        {
          "internalType": "uint256",
          "name": "amount",
          "type": "uint256"
        },
        {
          "internalType": "uint256",
          "name": "unlockTime",
          "type": "uint256"
        },
        {
          "internalType": "enum TimeLockAgent.Status",
          "name": "status",
          "type": "uint8"
        },
        {
          "internalType": "uint256",
          "name": "createdAt",
          "type": "uint256"
        }
      ],
      "stateMutability": "view",
      "type": "function"
    },
    {
      "inputs": [],
      "name": "unpause",
      "outputs": [],
      "stateMutability": "nonpayable",
      "type": "function"
    },
    {
      "stateMutability": "payable",
      "type": "receive"
    }
  ],
  "bytecode": "0x608060405262093a8060035534801561001757600080fd5b506001600055338061004357604051631e4fbdf760e01b81526000600482015260240160405180910390fd5b61004c816100a3565b5033600081815260056020908152604091829020805460ff1916600190811790915591519182527f9fdbc2d48b8a0db2f62663bf9312ad02f5b1f6414ad600b55a247d09aeec3ea2910160405180910390a26100fd565b600180546001600160a01b03838116610100818102610100600160a81b031985161790945560405193909204169182907f8be0079c531659141344cd1fd0a4f28419497f9722a3daafe3b4186f6b6457e090600090a35050565b61145f8061010c6000396000f3fe6080604052600436106101025760003560e01c80638456cb5911610095578063a06db7dc11610064578063a06db7dc146102e0578063debfda30146102f6578063f05d575214610326578063f2f6596014610346578063f2fde38b1461036657600080fd5b80638456cb59146101fa5780638da5cb5b1461020f578063902cd164146102455780639377d7111461026557600080fd5b80633f4ba83a116100d15780633f4ba83a1461018c57806359caecb5146101a15780635c975abb146101c1578063715018a6146101e557600080fd5b80630265d9931461010e5780630b628b0a146101305780630f038d41146101565780631e1bff3f1461016c57600080fd5b3661010957005b600080fd5b34801561011a57600080fd5b5061012e610129366004611165565b610386565b005b61014361013e3660046111f6565b61055e565b6040519081526020015b60405180910390f35b34801561016257600080fd5b5061014360025481565b34801561017857600080fd5b5061012e610187366004611220565b6107e9565b34801561019857600080fd5b5061012e610850565b3480156101ad57600080fd5b5061012e6101bc36600461125c565b610862565b3480156101cd57600080fd5b5060015460ff165b604051901515815260200161014d565b3480156101f157600080fd5b5061012e610af2565b34801561020657600080fd5b5061012e610b04565b34801561021b57600080fd5b5060015461010090046001600160a01b03166040516001600160a01b03909116815260200161014d565b34801561025157600080fd5b5061012e61026036600461125c565b610b14565b34801561027157600080fd5b506102cd61028036600461125c565b6004602081905260009182526040909120805460018201546002830154600384015494840154600585015460069095015493956001600160a01b03938416959290931693909160ff169087565b60405161014d979695949392919061128b565b3480156102ec57600080fd5b5061014360035481565b34801561030257600080fd5b506101d56103113660046112ea565b60056020526000908152604090205460ff1681565b34801561033257600080fd5b5061012e61034136600461125c565b610d17565b34801561035257600080fd5b5061012e61036136600461125c565b610f5c565b34801561037257600080fd5b5061012e6103813660046112ea565b610f9f565b61038e610fda565b610396611004565b3360009081526005602052604090205460ff16806103d5575060015461010090046001600160a01b03166001600160a01b0316336001600160a01b0316145b6103fa5760405162461bcd60e51b81526004016103f19061130c565b60405180910390fd5b60005b8181101561054f57600083838381811061041957610419611354565b905060200201359050600060046000838152602001908152602001600020905080600601546000148061046557506000600582015460ff16600381111561046257610462611275565b14155b806104735750806004015442105b1561047f57505061053d565b60058101805460ff19166001179055600281015460038201546040516000926001600160a01b031691908381818185875af1925050503d80600081146104e1576040519150601f19603f3d011682016040523d82523d6000602084013e6104e6565b606091505b50509050801561052c57604051428152339084907f933b5d399a2cb8171a93e83d7b26f016dc6db708b3424cfbc84a04354f7a217a9060200160405180910390a3610539565b60058201805460ff191690555b5050505b8061054781611380565b9150506103fd565b5061055a6001600055565b5050565b6000610568611004565b600034116105cd5760405162461bcd60e51b815260206004820152602c60248201527f54696d654c6f636b4167656e743a20416d6f756e74206d75737420626520677260448201526b06561746572207468616e20360a41b60648201526084016103f1565b6001600160a01b0383166106235760405162461bcd60e51b815260206004820181905260248201527f54696d654c6f636b4167656e743a20496e76616c696420726563697069656e7460448201526064016103f1565b4282116106875760405162461bcd60e51b815260206004820152602c60248201527f54696d654c6f636b4167656e743a20556e6c6f636b2074696d65206d7573742060448201526b626520696e2066757475726560a01b60648201526084016103f1565b600280546000918261069883611380565b9190505590506040518060e00160405280828152602001336001600160a01b03168152602001856001600160a01b03168152602001348152602001848152602001600060038111156106ec576106ec611275565b815242602091820152600083815260048083526040918290208451815592840151600180850180546001600160a01b039384166001600160a01b03199182161790915593860151600286018054919093169416939093179055606084015160038085019190915560808501519184019190915560a08401516005840180549193909260ff1990921691849081111561078657610786611275565b021790555060c0919091015160069091015560408051348152602081018590526001600160a01b03861691339184917fac460bc36b8940a1f439f8582126bce906841b8a1496a9374b63cd95b3d03360910160405180910390a490505b92915050565b6107f1611028565b6001600160a01b038216600081815260056020908152604091829020805460ff191685151590811790915591519182527f9fdbc2d48b8a0db2f62663bf9312ad02f5b1f6414ad600b55a247d09aeec3ea2910160405180910390a25050565b610858611028565b61086061105b565b565b61086a610fda565b60008181526004602052604081206006015482910361089b5760405162461bcd60e51b81526004016103f190611399565b60008281526004602052604090206001015482906001600160a01b031633146109175760405162461bcd60e51b815260206004820152602860248201527f54696d654c6f636b4167656e743a2043616c6c6572206973206e6f74207468656044820152671031b932b0ba37b960c11b60648201526084016103f1565b8260008060008381526004602052604090206005015460ff16600381111561094157610941611275565b1461095e5760405162461bcd60e51b81526004016103f1906113df565b6000858152600460208190526040909120015442106109de5760405162461bcd60e51b815260206004820152603660248201527f54696d654c6f636b4167656e743a20546f6f206c61746520746f2063616e63656044820152756c2c2075736520657870697265206966207374616c6560501b60648201526084016103f1565b60008581526004602052604080822060058101805460ff191660021790556001810154600382015492519193926001600160a01b03909116918381818185875af1925050503d8060008114610a4f576040519150601f19603f3d011682016040523d82523d6000602084013e610a54565b606091505b5050905080610aa55760405162461bcd60e51b815260206004820152601c60248201527f54696d654c6f636b4167656e743a20526566756e64206661696c65640000000060448201526064016103f1565b867f59c3e31ec8892c34508197e97c25f0e4da6d87733b22b22765425d203f44667a42604051610ad791815260200190565b60405180910390a2505050505050610aef6001600055565b50565b610afa611028565b61086060006110ad565b610b0c611028565b610860611107565b610b1c610fda565b600081815260046020526040812060060154829103610b4d5760405162461bcd60e51b81526004016103f190611399565b8160008060008381526004602052604090206005015460ff166003811115610b7757610b77611275565b14610b945760405162461bcd60e51b81526004016103f1906113df565b6000848152600460208190526040909120600354918101549091610bb791611416565b4211610c145760405162461bcd60e51b815260206004820152602660248201527f54696d654c6f636b4167656e743a20477261636520706572696f64206e6f74206044820152651c185cdcd95960d21b60648201526084016103f1565b60058101805460ff191660039081179091556001820154908201546040516000926001600160a01b031691908381818185875af1925050503d8060008114610c78576040519150601f19603f3d011682016040523d82523d6000602084013e610c7d565b606091505b5050905080610cce5760405162461bcd60e51b815260206004820152601c60248201527f54696d654c6f636b4167656e743a20526566756e64206661696c65640000000060448201526064016103f1565b857fec7f25aef06e3f0e65e88e262bb891d91ec94fec8cf5858339abf0907ed04f1542604051610d0091815260200190565b60405180910390a25050505050610aef6001600055565b610d1f610fda565b610d27611004565b3360009081526005602052604090205460ff1680610d66575060015461010090046001600160a01b03166001600160a01b0316336001600160a01b0316145b610d825760405162461bcd60e51b81526004016103f19061130c565b600081815260046020526040812060060154829103610db35760405162461bcd60e51b81526004016103f190611399565b8160008060008381526004602052604090206005015460ff166003811115610ddd57610ddd611275565b14610dfa5760405162461bcd60e51b81526004016103f1906113df565b600084815260046020819052604090912090810154421015610e5e5760405162461bcd60e51b815260206004820152601a60248201527f54696d654c6f636b4167656e743a2054696d65206c6f636b656400000000000060448201526064016103f1565b60058101805460ff19166001179055600281015460038201546040516000926001600160a01b031691908381818185875af1925050503d8060008114610ec0576040519150601f19603f3d011682016040523d82523d6000602084013e610ec5565b606091505b5050905080610f165760405162461bcd60e51b815260206004820152601e60248201527f54696d654c6f636b4167656e743a205472616e73666572206661696c6564000060448201526064016103f1565b604051428152339087907f933b5d399a2cb8171a93e83d7b26f016dc6db708b3424cfbc84a04354f7a217a9060200160405180910390a35050505050610aef6001600055565b610f64611028565b60038190556040518181527f33d1191f5a3abfe19d468d51bb5ece97489f1277a912a5b5c65992fc279ad3d49060200160405180910390a150565b610fa7611028565b6001600160a01b038116610fd157604051631e4fbdf760e01b8152600060048201526024016103f1565b610aef816110ad565b600260005403610ffd57604051633ee5aeb560e01b815260040160405180910390fd5b6002600055565b60015460ff16156108605760405163d93c066560e01b815260040160405180910390fd5b6001546001600160a01b036101009091041633146108605760405163118cdaa760e01b81523360048201526024016103f1565b611063611142565b6001805460ff191690557f5db9ee0a495bf2e6ff9c91a7834c1ba4fdd244a5e8aa4e537bd38aeae4b073aa335b6040516001600160a01b03909116815260200160405180910390a1565b600180546001600160a01b03838116610100818102610100600160a81b031985161790945560405193909204169182907f8be0079c531659141344cd1fd0a4f28419497f9722a3daafe3b4186f6b6457e090600090a35050565b61110f611004565b6001805460ff1916811790557f62e78cea01bee320cd4e420270b5ea74000d11b0c9f74754ebdbfc544b05a25833611090565b60015460ff1661086057604051638dfc202b60e01b815260040160405180910390fd5b6000806020838503121561117857600080fd5b823567ffffffffffffffff8082111561119057600080fd5b818501915085601f8301126111a457600080fd5b8135818111156111b357600080fd5b8660208260051b85010111156111c857600080fd5b60209290920196919550909350505050565b80356001600160a01b03811681146111f157600080fd5b919050565b6000806040838503121561120957600080fd5b611212836111da565b946020939093013593505050565b6000806040838503121561123357600080fd5b61123c836111da565b91506020830135801515811461125157600080fd5b809150509250929050565b60006020828403121561126e57600080fd5b5035919050565b634e487b7160e01b600052602160045260246000fd5b8781526001600160a01b03878116602083015286166040820152606081018590526080810184905260e08101600484106112d557634e487b7160e01b600052602160045260246000fd5b60a082019390935260c0015295945050505050565b6000602082840312156112fc57600080fd5b611305826111da565b9392505050565b60208082526028908201527f54696d654c6f636b4167656e743a2043616c6c6572206973206e6f7420616e2060408201526732bc32b1baba37b960c11b606082015260800190565b634e487b7160e01b600052603260045260246000fd5b634e487b7160e01b600052601160045260246000fd5b6000600182016113925761139261136a565b5060010190565b60208082526026908201527f54696d654c6f636b4167656e743a205472616e7366657220646f6573206e6f7460408201526508195e1a5cdd60d21b606082015260800190565b6020808252601d908201527f54696d654c6f636b4167656e743a20496e76616c696420737461747573000000604082015260600190565b808201808211156107e3576107e361136a56fea264697066735822122026db4523f3e4f8e1901c2aea017e24aed124a841dcf4fc28b66c713f14865f8064736f6c63430008140033",
  "linkReferences": {},
  "deployedLinkReferences": {}
}