{
  "_format": "hh-sol-artifact-1",
  "contractName": "TimeLockAgent",
  "sourceName": "contracts/TimeLockAgent.sol",
  "abi": [
    {
      "inputs": [],
      "stateMutability": "nonpayable",
      "type": "constructor"
    },
    {
      "inputs": [],
      "name": "EnforcedPause",
      "type": "error"
    },
    {
      "inputs": [],
      "name": "ExpectedPause",
      "type": "error"
    },
    {
      "inputs": [
        {
          "internalType": "address",
          "name": "owner",
          "type": "address"
        }
      ],
      "name": "OwnableInvalidOwner",
      "type": "error"
    },
    {
      "inputs": [
        {
          "internalType": "address",
          "name": "account",
          "type": "address"
        }
      ],
      "name": "OwnableUnauthorizedAccount",
      "type": "error"
    },
    {
      "inputs": [],
      "name": "ReentrancyGuardReentrantCall",
      "type": "error"
    },
    {
      "anonymous": false,
      "inputs": [
        {
          "indexed": true,
          "internalType": "address",
          "name": "executor",
          "type": "address"
        },
        {
          "indexed": false,
          "internalType": "bool",
          "name": "allowed",
          "type": "bool"
        }
      ],
      "name": "ExecutorUpdated",
      "type": "event"
    },
    {
      "anonymous": false,
      "inputs": [
        {
          "indexed": false,
          "internalType": "uint256",
          "name": "newGracePeriod",
          "type": "uint256"
        }
      ],
      "name": "GracePeriodUpdated",
      "type": "event"
    },
    {
      "anonymous": false,
      "inputs": [
        {
          "indexed": true,
          "internalType": "address",
          "name": "previousOwner",
          "type": "address"
        },
        {
          "indexed": true,
          "internalType": "address",
          "name": "newOwner",
          "type": "address"
        }
      ],
      "name": "OwnershipTransferred",
      "type": "event"
    },
    {
      "anonymous": false,
      "inputs": [
        {
          "indexed": false,
          "internalType": "address",
          "name": "account",
          "type": "address"
        }
      ],
      "name": "Paused",
      "type": "event"
    },
    {
      "anonymous": false,
      "inputs": [
        {
          "indexed": true,
          "internalType": "uint256",
          "name": "scheduleId",
          "type": "uint256"
        },
        {
          "indexed": false,
          "internalType": "uint256",
          "name": "cancelledAt",
          "type": "uint256"
        }
      ],
      "name": "TransferCancelled",
      "type": "event"
    },
    {
      "anonymous": false,
      "inputs": [
        {
          "indexed": true,
          "internalType": "uint256",
          "name": "scheduleId",
          "type": "uint256"
        },
        {
          "indexed": true,
          "internalType": "address",
          "name": "executor",
          "type": "address"
        },
        {
          "indexed": false,
          "internalType": "uint256",
          "name": "executedAt",
          "type": "uint256"
        }
      ],
      "name": "TransferExecuted",
      "type": "event"
    },
    {
      "anonymous": false,
      "inputs": [
        {
          "indexed": true,
          "internalType": "uint256",
          "name": "scheduleId",
          "type": "uint256"
        },
        {
          "indexed": false,
          "internalType": "uint256",
          "name": "expiredAt",
          "type": "uint256"
        }
      ],
      "name": "TransferExpired",
      "type": "event"
    },
    {
      "anonymous": false,
      "inputs": [
        {
          "indexed": true,
          "internalType": "uint256",
          "name": "scheduleId",
          "type": "uint256"
        },
        {
          "indexed": true,
          "internalType": "address",
          "name": "creator",
          "type": "address"
        },
        {
          "indexed": true,
          "internalType": "address",
          "name": "to",
          "type": "address"
        },
        {
          "indexed": false,
          "internalType": "uint256",
          "name": "amount",
          "type": "uint256"
        },
        {
          "indexed": false,
          "internalType": "uint256",
          "name": "unlockTime",
          "type": "uint256"
        }
      ],
      "name": "TransferScheduled",
      "type": "event"
    },
    {
      "anonymous": false,
      "inputs": [
        {
          "indexed": false,
          "internalType": "address",
          "name": "account",
          "type": "address"
        }
      ],
      "name": "Unpaused",
      "type": "event"
    },
    {
      "inputs": [
        {
          "internalType": "uint256",
          "name": "scheduleId",
          "type": "uint256"
        }
      ],
      "name": "cancelTransfer",
      "outputs": [],
      "stateMutability": "nonpayable",
      "type": "function"
    },
    {
      "inputs": [
        {
          "internalType": "uint256[]",
          "name": "scheduleIds",
          "type": "uint256[]"
        }
      ],
      "name": "executeBatch",
      "outputs": [],
      "stateMutability": "nonpayable",
      "type": "function"
    },
    {
      "inputs": [
        {
          "internalType": "uint256",
          "name": "scheduleId",
          "type": "uint256"
        }
      ],
      "name": "executeTransfer",
      "outputs": [],
      "stateMutability": "nonpayable",
      "type": "function"
    },
    {
      "inputs": [
        {
          "internalType": "uint256",
          "name": "scheduleId",
          "type": "uint256"
        }
      ],
      "name": "expireTransfer",
      "outputs": [],
      "stateMutability": "nonpayable",
      "type": "function"
    },
    {
      "inputs": [],
      "name": "gracePeriod",
      "outputs": [
        {
          "internalType": "uint256",
          "name": "",
          "type": "uint256"
        }
      ],
      "stateMutability": "view",
      "type": "function"
    },
    {
      "inputs": [
        {
          "internalType": "address",
          "name": "",
          "type": "address"
        }
      ],
      "name": "isExecutor",
      "outputs": [
        {
          "internalType": "bool",
          "name": "",
          "type": "bool"
        }
      ],
      "stateMutability": "view",
      "type": "function"
    },
    {
      "inputs": [],
      "name": "nextScheduleId",
      "outputs": [
        {
          "internalType": "uint256",
          "name": "",
          "type": "uint256"
        }
      ],
      "stateMutability": "view",
      "type": "function"
    },
    {
      "inputs": [],
      "name": "owner",
      "outputs": [
        {
          "internalType": "address",
          "name": "",
          "type": "address"
        }
      ],
      "stateMutability": "view",
      "type": "function"
    },
    {
      "inputs": [],
      "name": "pause",
      "outputs": [],
      "stateMutability": "nonpayable",
      "type": "function"
    },
    {
      "inputs": [],
      "name": "paused",
      "outputs": [
        {
          "internalType": "bool",
          "name": "",
          "type": "bool"
        }
      ],
      "stateMutability": "view",
      "type": "function"
    },
    {
      "inputs": [],
      "name": "renounceOwnership",
      "outputs": [],
      "stateMutability": "nonpayable",
      "type": "function"
    },
    {
      "inputs": [
        {
          "internalType": "address",
          "name": "to",
          "type": "address"
        },
        {
          "internalType": "uint256",
          "name": "unlockTime",
          "type": "uint256"
        }
      ],
      "name": "scheduleTransferNative",
      "outputs": [
        {
          "internalType": "uint256",
          "name": "",
          "type": "uint256"
        }
      ],
      "stateMutability": "payable",
      "type": "function"
    },
    {
      "inputs": [
        {
          "internalType": "address",
          "name": "executor",
          "type": "address"
        },
        {
          "internalType": "bool",
          "name": "allowed",
          "type": "bool"
        }
      ],
      "name": "setExecutor",
      "outputs": [],
      "stateMutability": "nonpayable",
      "type": "function"
    },
    {
      "inputs": [
        {
          "internalType": "uint256",
          "name": "newGracePeriod",
          "type": "uint256"
        }
      ],
      "name": "setGracePeriod",
      "outputs": [],
      "stateMutability": "nonpayable",
      "type": "function"
    },
    {
      "inputs": [
        {
          "internalType": "address",
          "name": "newOwner",
          "type": "address"
        }
      ],
      "name": "transferOwnership",
      "outputs": [],
      "stateMutability": "nonpayable",
      "type": "function"
    },
    {
      "inputs": [
        {
          "internalType": "uint256",
          "name": "",
          "type": "uint256"
        }
      ],
      "name": "transfers",
      "outputs": [
        {
          "internalType": "uint256",
          "name": "id",
          "type": "uint256"
        },
        {
          "internalType": "address",
          "name": "creator",
          "type": "address"
        },
        {
          "internalType": "address",
          "name": "to",
          "type": "address"
        },
        {
          "internalType": "uint256",
          "name": "amount",
          "type": "uint256"
        },
        {
          "internalType": "uint256",
          "name": "unlockTime",
          "type": "uint256"
        },
        {
          "internalType": "enum TimeLockAgent.Status",
          "name": "status",
          "type": "uint8"
        },
        {
          "internalType": "uint256",
          "name": "createdAt",
          "type": "uint256"
        }
      ],
      "stateMutability": "view",
      "type": "function"
    },
    {
      "inputs": [],
      "name": "unpause",
      "outputs": [],
      "stateMutability": "nonpayable",
      "type": "function"
    },
    {
      "stateMutability": "payable",
      "type": "receive"
    }
  ],
  "bytecode": "0x608080604052346100e0576000906001825533156100cc575060018054610100600160a81b0319811633600881811b610100600160a81b03169290921790935560408051949093909290911c6001600160a01b03167f8be0079c531659141344cd1fd0a4f28419497f9722a3daafe3b4186f6b6457e08380a362093a80600355338152600560205220600160ff19825416179055600181527f9fdbc2d48b8a0db2f62663bf9312ad02f5b1f6414ad600b55a247d09aeec3ea260203392a260405161100d90816100e68239f35b602491631e4fbdf760e01b82526004820152fd5b600080fdfe60406080815260049081361015610020575b5050361561001e57600080fd5b005b600091823560e01c80630265d99314610be05780630b628b0a146109875780630f038d41146109685780631e1bff3f146108ea5780633f4ba83a1461088157806359caecb5146106d35780635c975abb146106af578063715018a61461064b5780638456cb59146105f15780638da5cb5b146105c4578063902cd1641461047b5780639377d711146103e7578063a06db7dc146103c8578063debfda3014610386578063f05d5752146101d4578063f2f65960146101875763f2fde38b146100e85750610011565b3461018357602036600319011261018357610101610d76565b610109610d91565b6001600160a01b0381811693909290841561016d57505060018054610100600160a81b03198116600893841b610100600160a81b031617909155901c167f8be0079c531659141344cd1fd0a4f28419497f9722a3daafe3b4186f6b6457e08380a380f35b51631e4fbdf760e01b8152908101859052602490fd5b8280fd5b5034610183576020366003190112610183577f33d1191f5a3abfe19d468d51bb5ece97489f1277a912a5b5c65992fc279ad3d49160209135906101c8610d91565b8160035551908152a180f35b50346101835760209182600319360112610382578135916101f3610f68565b6101fb610de5565b3385526005845260ff82862054168015610368575b61021990610e03565b828552808452610230600683872001541515610e60565b82855280845260ff600583872001541681811015610355576102529015610ebb565b8285528084528185208181015442106103135760058101805460ff1916600117905560028101546003909101548691829182918291906001600160a01b03165af161029b610f07565b50156102d257505142815233927f933b5d399a2cb8171a93e83d7b26f016dc6db708b3424cfbc84a04354f7a217a91a36001815580f35b83606492519162461bcd60e51b8352820152601e60248201527f54696d654c6f636b4167656e743a205472616e73666572206661696c656400006044820152fd5b5083606492519162461bcd60e51b8352820152601a60248201527f54696d654c6f636b4167656e743a2054696d65206c6f636b65640000000000006044820152fd5b634e487b7160e01b865260218252602486fd5b506001543360089190911c6001600160a01b031614610210565b8380fd5b5050346103c45760203660031901126103c45760209160ff9082906001600160a01b036103b1610d76565b1681526005855220541690519015158152f35b5080fd5b5050346103c457816003193601126103c4576020906003549051908152f35b509190346103c45760203660031901126103c457823582528260205280822080549260018060a01b039283600184015416936002840154166003840154908785015492600660ff60058801541696015496815198895260208901528701526060860152608085015284821015610468575060e0935060a083015260c0820152f35b634e487b7160e01b815260218552602490fd5b50903461018357602090816003193601126103825782359261049b610f68565b8385528083526104b2600683872001541515610e60565b83855280835260ff600583872001541681811015610355576104d49015610ebb565b838552808352818520908082015460035481018091116105b15742111561055f575090610553858080808660057fec7f25aef06e3f0e65e88e262bb891d91ec94fec8cf5858339abf0907ed04f15999801600360ff19825416179055600360018060a01b03600183015416910154905af161054d610f07565b50610f8b565b51428152a26001815580f35b825162461bcd60e51b8152908101849052602660248201527f54696d654c6f636b4167656e743a20477261636520706572696f64206e6f74206044820152651c185cdcd95960d21b6064820152608490fd5b634e487b7160e01b875260118252602487fd5b5050346103c457816003193601126103c457600154905160089190911c6001600160a01b03168152602090f35b5050346103c457816003193601126103c45760207f62e78cea01bee320cd4e420270b5ea74000d11b0c9f74754ebdbfc544b05a2589161062f610d91565b610637610de5565b600160ff198154161760015551338152a180f35b83346106ac57806003193601126106ac57610664610d91565b60018054610100600160a81b03198116909155819060081c6001600160a01b03167f8be0079c531659141344cd1fd0a4f28419497f9722a3daafe3b4186f6b6457e08280a380f35b80fd5b5050346103c457816003193601126103c45760209060ff6001541690519015158152f35b5090346101835760209081600319360112610382578235926106f3610f68565b83855280835261070a600683872001541515610e60565b838552808352818520600101546001600160a01b0391908216330361082d5784865280845260ff60058488200154168181101561081a5761074b9015610ebb565b8486528084528083872001544210156107b857858080807f59c3e31ec8892c34508197e97c25f0e4da6d87733b22b22765425d203f44667a979695610553958a8352885260038783209160058301600260ff19825416179055600183015416910154905af161054d610f07565b825162461bcd60e51b8152908101849052603660248201527f54696d654c6f636b4167656e743a20546f6f206c61746520746f2063616e63656044820152756c2c2075736520657870697265206966207374616c6560501b6064820152608490fd5b634e487b7160e01b875260218252602487fd5b825162461bcd60e51b8152908101849052602860248201527f54696d654c6f636b4167656e743a2043616c6c6572206973206e6f74207468656044820152671031b932b0ba37b960c11b6064820152608490fd5b503461018357826003193601126101835761089a610d91565b6001549060ff8216156108dc575060ff1916600155513381527f5db9ee0a495bf2e6ff9c91a7834c1ba4fdd244a5e8aa4e537bd38aeae4b073aa90602090a180f35b8251638dfc202b60e01b8152fd5b5050346103c457806003193601126103c457610904610d76565b60243590811515809203610382577f9fdbc2d48b8a0db2f62663bf9312ad02f5b1f6414ad600b55a247d09aeec3ea29160209161093f610d91565b6001600160a01b031680865260058352848620805460ff191660ff84161790559351908152a280f35b5050346103c457816003193601126103c4576020906002549051908152f35b5090806003193601126101835761099c610d76565b9260248035906109aa610de5565b3415610b89576001600160a01b03958616928315610b475742831115610af057600254956109d787610dc0565b60025585519260e0840184811067ffffffffffffffff821117610ade578752878452602084019233845287850187815260608601348152608087019188835260a088019684885260c089019d8e4290528d8652876020528c862099518a558060018b01925116916bffffffffffffffffffffffff60a01b928382541617905560028a019251169082541617905551600387015551838601556005850193519280841015610ace575050509660069160209860ff801983541691161790555191015582519034825285820152837fac460bc36b8940a1f439f8582126bce906841b8a1496a9374b63cd95b3d03360843393a451908152f35b634e487b7160e01b825260219052fd5b50634e487b7160e01b83526041825282fd5b845162461bcd60e51b8152602081880152602c818401527f54696d654c6f636b4167656e743a20556e6c6f636b2074696d65206d7573742060448201526b626520696e2066757475726560a01b6064820152608490fd5b845162461bcd60e51b81526020818801819052818401527f54696d654c6f636b4167656e743a20496e76616c696420726563697069656e746044820152606490fd5b84602c608492602087519362461bcd60e51b85528401528201527f54696d654c6f636b4167656e743a20416d6f756e74206d75737420626520677260448201526b06561746572207468616e20360a41b6064820152fd5b5090346101835760208060031936011261038257823567ffffffffffffffff92838211610d725736602383011215610d725781850135938411610d72576024946005368787831b86010111610d6e57610c37610f68565b610c3f610de5565b33885280855260ff9384848a2054168015610d54575b610c5e90610e03565b885b878110610c6f57896001815580f35b8881841b83010135808b52848852858b206006810154158015610d2c575b610d09939291908015610d20575b610d1957858101908d80808060ff1994600186885416178755600360018060a01b03600283015416910154905af1610cd1610f07565b5015610d0e5750508651904282527f933b5d399a2cb8171a93e83d7b26f016dc6db708b3424cfbc84a04354f7a217a8a3393a3610dc0565b610c60565b815416905550610dc0565b5050610dc0565b50868101544210610c9b565b5087858201541686811015610d42571515610c8d565b634e487b7160e01b8d52602187528b8dfd5b506001543360089190911c6001600160a01b031614610c55565b8780fd5b8580fd5b600435906001600160a01b0382168203610d8c57565b600080fd5b60015460081c6001600160a01b03163303610da857565b60405163118cdaa760e01b8152336004820152602490fd5b6000198114610dcf5760010190565b634e487b7160e01b600052601160045260246000fd5b60ff60015416610df157565b60405163d93c066560e01b8152600490fd5b15610e0a57565b60405162461bcd60e51b815260206004820152602860248201527f54696d654c6f636b4167656e743a2043616c6c6572206973206e6f7420616e2060448201526732bc32b1baba37b960c11b6064820152608490fd5b15610e6757565b60405162461bcd60e51b815260206004820152602660248201527f54696d654c6f636b4167656e743a205472616e7366657220646f6573206e6f7460448201526508195e1a5cdd60d21b6064820152608490fd5b15610ec257565b60405162461bcd60e51b815260206004820152601d60248201527f54696d654c6f636b4167656e743a20496e76616c6964207374617475730000006044820152606490fd5b3d15610f635767ffffffffffffffff903d828111610f4d5760405192601f8201601f19908116603f0116840190811184821017610f4d5760405282523d6000602084013e565b634e487b7160e01b600052604160045260246000fd5b606090565b600260005414610f79576002600055565b604051633ee5aeb560e01b8152600490fd5b15610f9257565b60405162461bcd60e51b815260206004820152601c60248201527f54696d654c6f636b4167656e743a20526566756e64206661696c6564000000006044820152606490fdfea26469706673582212200553a9031d15c65763b815c958eb8d507e71b5db8f9856c11d32931328ddd79164736f6c63430008140033",
  "linkReferences": {},
  "deployedLinkReferences": {}
}