{
  "_format": "hh-sol-artifact-1",
  "contractName": "VisionEqualizer",
  "sourceName": "contracts/interop/VisionEqualizer.sol",
  "abi": [
    {
      "inputs": [],
      "stateMutability": "nonpayable",
      "type": "constructor"
    },
    {
      "anonymous": false,
      "inputs": [
        {
          "indexed": true,
          "internalType": "address",
          "name": "user",
          "type": "address"
        },
        {
          "indexed": false,
          "internalType": "uint256",
          "name": "targetChainId",
          "type": "uint256"
        },
        {
          "indexed": false,
          "internalType": "string",
          "name": "symbol",
          "type": "string"
        },
        {
          "indexed": false,
          "internalType": "uint256",
          "name": "amount",
          "type": "uint256"
        },
        {
          "indexed": false,
          "internalType": "uint256",
          "name": "nonce",
          "type": "uint256"
        }
      ],
      "name": "LiquidityReleaseRequested",
      "type": "event"
    },
    {
      "anonymous": false,
      "inputs": [
        {
          "indexed": true,
          "internalType": "address",
          "name": "user",
          "type": "address"
        },
        {
          "indexed": false,
          "internalType": "uint256",
          "name": "sourceChainId",
          "type": "uint256"
        },
        {
          "indexed": false,
          "internalType": "string",
          "name": "symbol",
          "type": "string"
        },
        {
          "indexed": false,
          "internalType": "uint256",
          "name": "amount",
          "type": "uint256"
        }
      ],
      "name": "LiquiditySynced",
      "type": "event"
    },
    {
      "anonymous": false,
      "inputs": [
        {
          "indexed": true,
          "internalType": "bytes32",
          "name": "role",
          "type": "bytes32"
        },
        {
          "indexed": true,
          "internalType": "bytes32",
          "name": "previousAdminRole",
          "type": "bytes32"
        },
        {
          "indexed": true,
          "internalType": "bytes32",
          "name": "newAdminRole",
          "type": "bytes32"
        }
      ],
      "name": "RoleAdminChanged",
      "type": "event"
    },
    {
      "anonymous": false,
      "inputs": [
        {
          "indexed": true,
          "internalType": "bytes32",
          "name": "role",
          "type": "bytes32"
        },
        {
          "indexed": true,
          "internalType": "address",
          "name": "account",
          "type": "address"
        },
        {
          "indexed": true,
          "internalType": "address",
          "name": "sender",
          "type": "address"
        }
      ],
      "name": "RoleGranted",
      "type": "event"
    },
    {
      "anonymous": false,
      "inputs": [
        {
          "indexed": true,
          "internalType": "bytes32",
          "name": "role",
          "type": "bytes32"
        },
        {
          "indexed": true,
          "internalType": "address",
          "name": "account",
          "type": "address"
        },
        {
          "indexed": true,
          "internalType": "address",
          "name": "sender",
          "type": "address"
        }
      ],
      "name": "RoleRevoked",
      "type": "event"
    },
    {
      "inputs": [],
      "name": "DEFAULT_ADMIN_ROLE",
      "outputs": [
        {
          "internalType": "bytes32",
          "name": "",
          "type": "bytes32"
        }
      ],
      "stateMutability": "view",
      "type": "function"
    },
    {
      "inputs": [],
      "name": "RELAYER_ROLE",
      "outputs": [
        {
          "internalType": "bytes32",
          "name": "",
          "type": "bytes32"
        }
      ],
      "stateMutability": "view",
      "type": "function"
    },
    {
      "inputs": [],
      "name": "VALIDATOR_ROLE",
      "outputs": [
        {
          "internalType": "bytes32",
          "name": "",
          "type": "bytes32"
        }
      ],
      "stateMutability": "view",
      "type": "function"
    },
    {
      "inputs": [
        {
          "internalType": "address",
          "name": "user",
          "type": "address"
        },
        {
          "internalType": "uint256",
          "name": "chainId",
          "type": "uint256"
        },
        {
          "internalType": "string",
          "name": "symbol",
          "type": "string"
        }
      ],
      "name": "getGlobalBalance",
      "outputs": [
        {
          "internalType": "uint256",
          "name": "",
          "type": "uint256"
        }
      ],
      "stateMutability": "view",
      "type": "function"
    },
    {
      "inputs": [
        {
          "internalType": "bytes32",
          "name": "role",
          "type": "bytes32"
        }
      ],
      "name": "getRoleAdmin",
      "outputs": [
        {
          "internalType": "bytes32",
          "name": "",
          "type": "bytes32"
        }
      ],
      "stateMutability": "view",
      "type": "function"
    },
    {
      "inputs": [
        {
          "internalType": "address",
          "name": "",
          "type": "address"
        },
        {
          "internalType": "uint256",
          "name": "",
          "type": "uint256"
        },
        {
          "internalType": "string",
          "name": "",
          "type": "string"
        }
      ],
      "name": "globalLiquidity",
      "outputs": [
        {
          "internalType": "uint256",
          "name": "",
          "type": "uint256"
        }
      ],
      "stateMutability": "view",
      "type": "function"
    },
    {
      "inputs": [
        {
          "internalType": "bytes32",
          "name": "role",
          "type": "bytes32"
        },
        {
          "internalType": "address",
          "name": "account",
          "type": "address"
        }
      ],
      "name": "grantRole",
      "outputs": [],
      "stateMutability": "nonpayable",
      "type": "function"
    },
    {
      "inputs": [
        {
          "internalType": "bytes32",
          "name": "role",
          "type": "bytes32"
        },
        {
          "internalType": "address",
          "name": "account",
          "type": "address"
        }
      ],
      "name": "hasRole",
      "outputs": [
        {
          "internalType": "bool",
          "name": "",
          "type": "bool"
        }
      ],
      "stateMutability": "view",
      "type": "function"
    },
    {
      "inputs": [
        {
          "internalType": "bytes32",
          "name": "role",
          "type": "bytes32"
        },
        {
          "internalType": "address",
          "name": "account",
          "type": "address"
        }
      ],
      "name": "renounceRole",
      "outputs": [],
      "stateMutability": "nonpayable",
      "type": "function"
    },
    {
      "inputs": [
        {
          "internalType": "uint256",
          "name": "sourceChainId",
          "type": "uint256"
        },
        {
          "internalType": "uint256",
          "name": "targetChainId",
          "type": "uint256"
        },
        {
          "internalType": "string",
          "name": "symbol",
          "type": "string"
        },
        {
          "internalType": "uint256",
          "name": "amount",
          "type": "uint256"
        }
      ],
      "name": "requestCrossChainMove",
      "outputs": [],
      "stateMutability": "nonpayable",
      "type": "function"
    },
    {
      "inputs": [
        {
          "internalType": "bytes32",
          "name": "role",
          "type": "bytes32"
        },
        {
          "internalType": "address",
          "name": "account",
          "type": "address"
        }
      ],
      "name": "revokeRole",
      "outputs": [],
      "stateMutability": "nonpayable",
      "type": "function"
    },
    {
      "inputs": [
        {
          "internalType": "bytes4",
          "name": "interfaceId",
          "type": "bytes4"
        }
      ],
      "name": "supportsInterface",
      "outputs": [
        {
          "internalType": "bool",
          "name": "",
          "type": "bool"
        }
      ],
      "stateMutability": "view",
      "type": "function"
    },
    {
      "inputs": [
        {
          "internalType": "address",
          "name": "user",
          "type": "address"
        },
        {
          "internalType": "uint256",
          "name": "sourceChainId",
          "type": "uint256"
        },
        {
          "internalType": "string",
          "name": "symbol",
          "type": "string"
        },
        {
          "internalType": "uint256",
          "name": "amount",
          "type": "uint256"
        }
      ],
      "name": "syncDeposit",
      "outputs": [],
      "stateMutability": "nonpayable",
      "type": "function"
    },
    {
      "inputs": [
        {
          "internalType": "address",
          "name": "",
          "type": "address"
        }
      ],
      "name": "userNonces",
      "outputs": [
        {
          "internalType": "uint256",
          "name": "",
          "type": "uint256"
        }
      ],
      "stateMutability": "view",
      "type": "function"
    }
  ],
  "bytecode": "0x608060405234801561001057600080fd5b5061001c60003361004b565b6100467fe2b7fb3b832174769106daebcfd6d1970523240dda11281102db9363b83b0dc43361004b565b6100ea565b6000828152602081815260408083206001600160a01b038516845290915290205460ff166100e6576000828152602081815260408083206001600160a01b03851684529091529020805460ff191660011790556100a53390565b6001600160a01b0316816001600160a01b0316837f2f8788117e7eff1d82e926ec794901d17c78024a50270940304540a733656f0d60405160405180910390a45b5050565b610db7806100f96000396000f3fe608060405234801561001057600080fd5b50600436106100ea5760003560e01c8063926d7d7f1161008c578063c400e6f111610066578063c400e6f1146101f8578063c49baebe1461023e578063cfef150514610265578063d547741f1461027857600080fd5b8063926d7d7f146101b6578063a217fddf146101dd578063ba01a1da146101e557600080fd5b80632f2ff15d116100c85780632f2ff15d1461015b5780632f7801f41461017057806336568abe1461019057806391d14854146101a357600080fd5b806301ffc9a7146100ef57806302ad313014610117578063248a9ca314610138575b600080fd5b6101026100fd366004610965565b61028b565b60405190151581526020015b60405180910390f35b61012a610125366004610a4e565b6102c2565b60405190815260200161010e565b61012a610146366004610aa5565b60009081526020819052604090206001015490565b61016e610169366004610abe565b61030b565b005b61012a61017e366004610aea565b60026020526000908152604090205481565b61016e61019e366004610abe565b610335565b6101026101b1366004610abe565b6103b8565b61012a7fe2b7fb3b832174769106daebcfd6d1970523240dda11281102db9363b83b0dc481565b61012a600081565b61016e6101f3366004610b05565b6103e1565b61012a610206366004610a4e565b600160209081526000938452604080852082529284529190922082518084018301805192815290830193909201929092209190525481565b61012a7f21702c8af46127c7fa207f89d0b0a8441bb32959a0ac7df790e9ab1a25c9892681565b61016e610273366004610b64565b6104b0565b61016e610286366004610abe565b61063c565b60006001600160e01b03198216637965db0b60e01b14806102bc57506301ffc9a760e01b6001600160e01b03198316145b92915050565b6001600160a01b038316600090815260016020908152604080832085845290915280822090516102f3908490610bc3565b90815260200160405180910390205490509392505050565b60008281526020819052604090206001015461032681610661565b610330838361066e565b505050565b6001600160a01b03811633146103aa5760405162461bcd60e51b815260206004820152602f60248201527f416363657373436f6e74726f6c3a2063616e206f6e6c792072656e6f756e636560448201526e103937b632b9903337b91039b2b63360891b60648201526084015b60405180910390fd5b6103b482826106f2565b5050565b6000918252602082815260408084206001600160a01b0393909316845291905290205460ff1690565b7fe2b7fb3b832174769106daebcfd6d1970523240dda11281102db9363b83b0dc461040b81610661565b6001600160a01b0385166000908152600160209081526040808320878452909152908190209051839190610440908690610bc3565b9081526020016040518091039020600082825461045d9190610bf5565b92505081905550846001600160a01b03167f3eddf3ac409ebf457e7df3f2cad83fa9c2162ee4815e69527317d8b60f1723558585856040516104a193929190610c34565b60405180910390a25050505050565b3360009081526001602090815260408083208784529091529081902090518291906104dc908590610bc3565b90815260200160405180910390205410156105395760405162461bcd60e51b815260206004820152601a60248201527f496e73756666696369656e7420476c6f62616c2043726564697400000000000060448201526064016103a1565b336000908152600160209081526040808320878452909152908190209051829190610565908590610bc3565b908152602001604051809103902060008282546105829190610c5d565b90915550503360009081526001602090815260408083208684529091529081902090518291906105b3908590610bc3565b908152602001604051809103902060008282546105d09190610bf5565b909155505033600081815260026020526040812080547fab6430f9570ff109bebfba66c0e3ce6254baa0ccec6bc8d2fdb3df0746c2c8209287928792879290919061061a83610c70565b9190505560405161062e9493929190610c89565b60405180910390a250505050565b60008281526020819052604090206001015461065781610661565b61033083836106f2565b61066b8133610757565b50565b61067882826103b8565b6103b4576000828152602081815260408083206001600160a01b03851684529091529020805460ff191660011790556106ae3390565b6001600160a01b0316816001600160a01b0316837f2f8788117e7eff1d82e926ec794901d17c78024a50270940304540a733656f0d60405160405180910390a45050565b6106fc82826103b8565b156103b4576000828152602081815260408083206001600160a01b0385168085529252808320805460ff1916905551339285917ff6391f5c32d9c69d2a47ea670b442974b53935d1edc7fd64eb21e047a839171b9190a45050565b61076182826103b8565b6103b45761076e816107b0565b6107798360206107c2565b60405160200161078a929190610cb5565b60408051601f198184030181529082905262461bcd60e51b82526103a191600401610d2a565b60606102bc6001600160a01b03831660145b606060006107d1836002610d3d565b6107dc906002610bf5565b67ffffffffffffffff8111156107f4576107f46109ab565b6040519080825280601f01601f19166020018201604052801561081e576020820181803683370190505b509050600360fc1b8160008151811061083957610839610d54565b60200101906001600160f81b031916908160001a905350600f60fb1b8160018151811061086857610868610d54565b60200101906001600160f81b031916908160001a905350600061088c846002610d3d565b610897906001610bf5565b90505b600181111561090f576f181899199a1a9b1b9c1cb0b131b232b360811b85600f16601081106108cb576108cb610d54565b1a60f81b8282815181106108e1576108e1610d54565b60200101906001600160f81b031916908160001a90535060049490941c9361090881610d6a565b905061089a565b50831561095e5760405162461bcd60e51b815260206004820181905260248201527f537472696e67733a20686578206c656e67746820696e73756666696369656e7460448201526064016103a1565b9392505050565b60006020828403121561097757600080fd5b81356001600160e01b03198116811461095e57600080fd5b80356001600160a01b03811681146109a657600080fd5b919050565b634e487b7160e01b600052604160045260246000fd5b600082601f8301126109d257600080fd5b813567ffffffffffffffff808211156109ed576109ed6109ab565b604051601f8301601f19908116603f01168101908282118183101715610a1557610a156109ab565b81604052838152866020858801011115610a2e57600080fd5b836020870160208301376000602085830101528094505050505092915050565b600080600060608486031215610a6357600080fd5b610a6c8461098f565b925060208401359150604084013567ffffffffffffffff811115610a8f57600080fd5b610a9b868287016109c1565b9150509250925092565b600060208284031215610ab757600080fd5b5035919050565b60008060408385031215610ad157600080fd5b82359150610ae16020840161098f565b90509250929050565b600060208284031215610afc57600080fd5b61095e8261098f565b60008060008060808587031215610b1b57600080fd5b610b248561098f565b935060208501359250604085013567ffffffffffffffff811115610b4757600080fd5b610b53878288016109c1565b949793965093946060013593505050565b60008060008060808587031215610b7a57600080fd5b8435935060208501359250604085013567ffffffffffffffff811115610b4757600080fd5b60005b83811015610bba578181015183820152602001610ba2565b50506000910152565b60008251610bd5818460208701610b9f565b9190910192915050565b634e487b7160e01b600052601160045260246000fd5b808201808211156102bc576102bc610bdf565b60008151808452610c20816020860160208601610b9f565b601f01601f19169290920160200192915050565b838152606060208201526000610c4d6060830185610c08565b9050826040830152949350505050565b818103818111156102bc576102bc610bdf565b600060018201610c8257610c82610bdf565b5060010190565b848152608060208201526000610ca26080830186610c08565b6040830194909452506060015292915050565b7f416363657373436f6e74726f6c3a206163636f756e7420000000000000000000815260008351610ced816017850160208801610b9f565b7001034b99036b4b9b9b4b733903937b6329607d1b6017918401918201528351610d1e816028840160208801610b9f565b01602801949350505050565b60208152600061095e6020830184610c08565b80820281158282048414176102bc576102bc610bdf565b634e487b7160e01b600052603260045260246000fd5b600081610d7957610d79610bdf565b50600019019056fea2646970667358221220fb137dfdefdee900290eb9854b9ca9329233faf886223de065593805084c850864736f6c63430008140033",
  "linkReferences": {},
  "deployedLinkReferences": {}
}