{"contracts/StorageRewards.sol":{"StorageRewards":{"abi":[{"inputs":[],"stateMutability":"nonpayable","type":"constructor"},{"inputs":[],"name":"EnforcedPause","type":"error"},{"inputs":[],"name":"ExpectedPause","type":"error"},{"inputs":[{"internalType":"address","name":"owner","type":"address"}],"name":"OwnableInvalidOwner","type":"error"},{"inputs":[{"internalType":"address","name":"account","type":"address"}],"name":"OwnableUnauthorizedAccount","type":"error"},{"inputs":[],"name":"ReentrancyGuardReentrantCall","type":"error"},{"anonymous":false,"inputs":[{"indexed":true,"internalType":"address","name":"executor","type":"address"},{"indexed":false,"internalType":"bool","name":"allowed","type":"bool"}],"name":"ExecutorUpdated","type":"event"},{"anonymous":false,"inputs":[{"indexed":true,"internalType":"bytes32","name":"nodeId","type":"bytes32"},{"indexed":false,"internalType":"uint256","name":"penaltyAmount","type":"uint256"},{"indexed":false,"internalType":"string","name":"reason","type":"string"}],"name":"NodeSlashed","type":"event"},{"anonymous":false,"inputs":[{"indexed":true,"internalType":"bytes32","name":"nodeId","type":"bytes32"},{"indexed":false,"internalType":"address","name":"wallet","type":"address"}],"name":"NodeWalletSet","type":"event"},{"anonymous":false,"inputs":[{"indexed":true,"internalType":"address","name":"previousOwner","type":"address"},{"indexed":true,"internalType":"address","name":"newOwner","type":"address"}],"name":"OwnershipTransferred","type":"event"},{"anonymous":false,"inputs":[{"indexed":false,"internalType":"address","name":"account","type":"address"}],"name":"Paused","type":"event"},{"anonymous":false,"inputs":[{"indexed":true,"internalType":"address","name":"funder","type":"address"},{"indexed":false,"internalType":"uint256","name":"amount","type":"uint256"},{"indexed":false,"internalType":"uint256","name":"newBalance","type":"uint256"}],"name":"PoolFunded","type":"event"},{"anonymous":false,"inputs":[{"indexed":true,"internalType":"bytes32","name":"nodeId","type":"bytes32"},{"indexed":false,"internalType":"uint256","name":"amount","type":"uint256"},{"indexed":false,"internalType":"uint256","name":"totalPending","type":"uint256"}],"name":"RewardAccrued","type":"event"},{"anonymous":false,"inputs":[{"indexed":true,"internalType":"bytes32","name":"nodeId","type":"bytes32"},{"indexed":true,"internalType":"address","name":"wallet","type":"address"},{"indexed":false,"internalType":"uint256","name":"amount","type":"uint256"}],"name":"RewardClaimed","type":"event"},{"anonymous":false,"inputs":[{"indexed":false,"internalType":"address","name":"account","type":"address"}],"name":"Unpaused","type":"event"},{"inputs":[{"internalType":"bytes32","name":"nodeId","type":"bytes32"},{"internalType":"uint256","name":"uptimeHours","type":"uint256"},{"internalType":"uint256","name":"capacityGB","type":"uint256"},{"internalType":"uint256","name":"proofSuccessRate","type":"uint256"},{"internalType":"uint256","name":"weightBp","type":"uint256"}],"name":"accrueReward","outputs":[],"stateMutability":"nonpayable","type":"function"},{"inputs":[{"internalType":"bytes32[]","name":"nodeIds","type":"bytes32[]"},{"internalType":"uint256[]","name":"uptimeHours","type":"uint256[]"},{"internalType":"uint256[]","name":"capacityGBs","type":"uint256[]"},{"internalType":"uint256[]","name":"proofRates","type":"uint256[]"},{"internalType":"uint256[]","name":"weights","type":"uint256[]"}],"name":"accrueRewardBatch","outputs":[],"stateMutability":"nonpayable","type":"function"},{"inputs":[],"name":"baseRewardPerDay","outputs":[{"internalType":"uint256","name":"","type":"uint256"}],"stateMutability":"view","type":"function"},{"inputs":[{"internalType":"bytes32","name":"nodeId","type":"bytes32"}],"name":"calculatePendingReward","outputs":[{"internalType":"uint256","name":"","type":"uint256"}],"stateMutability":"view","type":"function"},{"inputs":[{"internalType":"bytes32","name":"nodeId","type":"bytes32"}],"name":"claimReward","outputs":[],"stateMutability":"nonpayable","type":"function"},{"inputs":[],"name":"emergencyWithdraw","outputs":[],"stateMutability":"nonpayable","type":"function"},{"inputs":[],"name":"fundPool","outputs":[],"stateMutability":"payable","type":"function"},{"inputs":[],"name":"getPoolStats","outputs":[{"internalType":"uint256","name":"poolBalance","type":"uint256"},{"internalType":"uint256","name":"distributed","type":"uint256"},{"internalType":"uint256","name":"totalNodes","type":"uint256"}],"stateMutability":"view","type":"function"},{"inputs":[{"internalType":"bytes32","name":"nodeId","type":"bytes32"}],"name":"getRewardInfo","outputs":[{"components":[{"internalType":"uint256","name":"pendingReward","type":"uint256"},{"internalType":"uint256","name":"totalClaimed","type":"uint256"},{"internalType":"uint256","name":"lastCalculation","type":"uint256"},{"internalType":"uint256","name":"slashCount","type":"uint256"},{"internalType":"bool","name":"slashed","type":"bool"}],"internalType":"struct StorageRewards.RewardInfo","name":"","type":"tuple"}],"stateMutability":"view","type":"function"},{"inputs":[{"internalType":"address","name":"","type":"address"}],"name":"isExecutor","outputs":[{"internalType":"bool","name":"","type":"bool"}],"stateMutability":"view","type":"function"},{"inputs":[{"internalType":"bytes32","name":"","type":"bytes32"}],"name":"nodeWallets","outputs":[{"internalType":"address","name":"","type":"address"}],"stateMutability":"view","type":"function"},{"inputs":[],"name":"owner","outputs":[{"internalType":"address","name":"","type":"address"}],"stateMutability":"view","type":"function"},{"inputs":[],"name":"pause","outputs":[],"stateMutability":"nonpayable","type":"function"},{"inputs":[],"name":"paused","outputs":[{"internalType":"bool","name":"","type":"bool"}],"stateMutability":"view","type":"function"},{"inputs":[],"name":"proofBonusMultiplier","outputs":[{"internalType":"uint256","name":"","type":"uint256"}],"stateMutability":"view","type":"function"},{"inputs":[],"name":"renounceOwnership","outputs":[],"stateMutability":"nonpayable","type":"function"},{"inputs":[],"name":"rewardPoolBalance","outputs":[{"internalType":"uint256","name":"","type":"uint256"}],"stateMutability":"view","type":"function"},{"inputs":[{"internalType":"uint256","name":"","type":"uint256"}],"name":"rewardedNodes","outputs":[{"internalType":"bytes32","name":"","type":"bytes32"}],"stateMutability":"view","type":"function"},{"inputs":[{"internalType":"bytes32","name":"","type":"bytes32"}],"name":"rewards","outputs":[{"internalType":"uint256","name":"pendingReward","type":"uint256"},{"internalType":"uint256","name":"totalClaimed","type":"uint256"},{"internalType":"uint256","name":"lastCalculation","type":"uint256"},{"internalType":"uint256","name":"slashCount","type":"uint256"},{"internalType":"bool","name":"slashed","type":"bool"}],"stateMutability":"view","type":"function"},{"inputs":[{"internalType":"uint256","name":"rewardPerDay","type":"uint256"}],"name":"setBaseReward","outputs":[],"stateMutability":"nonpayable","type":"function"},{"inputs":[{"internalType":"address","name":"executor","type":"address"},{"internalType":"bool","name":"allowed","type":"bool"}],"name":"setExecutor","outputs":[],"stateMutability":"nonpayable","type":"function"},{"inputs":[{"internalType":"bytes32","name":"nodeId","type":"bytes32"},{"internalType":"address","name":"wallet","type":"address"}],"name":"setNodeWallet","outputs":[],"stateMutability":"nonpayable","type":"function"},{"inputs":[{"internalType":"uint256","name":"multiplier","type":"uint256"}],"name":"setProofBonusMultiplier","outputs":[],"stateMutability":"nonpayable","type":"function"},{"inputs":[{"internalType":"uint256","name":"percent","type":"uint256"}],"name":"setSlashPenalty","outputs":[],"stateMutability":"nonpayable","type":"function"},{"inputs":[{"internalType":"uint256","name":"multiplier","type":"uint256"}],"name":"setStorageBonusMultiplier","outputs":[],"stateMutability":"nonpayable","type":"function"},{"inputs":[],"name":"slashCooldownDays","outputs":[{"internalType":"uint256","name":"","type":"uint256"}],"stateMutability":"view","type":"function"},{"inputs":[{"internalType":"bytes32","name":"nodeId","type":"bytes32"},{"internalType":"string","name":"reason","type":"string"}],"name":"slashNode","outputs":[],"stateMutability":"nonpayable","type":"function"},{"inputs":[],"name":"slashPenaltyPercent","outputs":[{"internalType":"uint256","name":"","type":"uint256"}],"stateMutability":"view","type":"function"},{"inputs":[],"name":"storageBonusMultiplier","outputs":[{"internalType":"uint256","name":"","type":"uint256"}],"stateMutability":"view","type":"function"},{"inputs":[],"name":"totalDistributed","outputs":[{"internalType":"uint256","name":"","type":"uint256"}],"stateMutability":"view","type":"function"},{"inputs":[{"internalType":"address","name":"newOwner","type":"address"}],"name":"transferOwnership","outputs":[],"stateMutability":"nonpayable","type":"function"},{"inputs":[],"name":"unpause","outputs":[],"stateMutability":"nonpayable","type":"function"},{"inputs":[{"internalType":"bytes32","name":"nodeId","type":"bytes32"}],"name":"unslashNode","outputs":[],"stateMutability":"nonpayable","type":"function"},{"stateMutability":"payable","type":"receive"}],"evm":{"bytecode":{"linkReferences":{},"object":"608080604052346100b65733156100a05760008054336001600160a01b0319821681178355604080519390929091906001600160a01b03167f8be0079c531659141344cd1fd0a4f28419497f9722a3daafe3b4186f6b6457e08380a360018055670de0b6b3a764000060055560646006556101f460075560326008556007600955338152600c60205220600160ff1982541617905561149f90816100bc8239f35b631e4fbdf760e01b815260006004820152602490fd5b600080fdfe6080604052600436101561002a575b361561001957600080fd5b61002534600a5461119e565b600a55005b60003560e01c80630373a23a1461110a5780631e1bff3f1461108b57806323d5cf511461106d5780633f4ba83a146110035780633ffc8bc914610fd7578063448392c714610cea578063486e28e914610c3e5780635c975abb14610c1b5780635cfe49b914610ae957806361edd67714610ac85780636db824f714610a6857806370f37d27146109dd578063715018a614610984578063757c1c25146109665780637a5c08ae146109485780637ff4a6c51461092a5780638456cb59146108d0578063879dad92146108685780638d811c6b146108175780638da5cb5b146107ee578063938d967a146107915780639ca0e03c14610723578063b98bcfa514610705578063bbb85188146106d6578063bcb3c963146106b5578063cff7498f14610697578063db2e21bc14610625578063debfda30146105e6578063e86551e5146104d6578063ee201716146104a2578063efca2eed14610484578063f2fde38b146103f65763f54140230361000e57346103f1576020806003193601126103f1576004356002600154146103df5760026001556101c66113b4565b6000818152600d835260409020546001600160a01b03908116929083156103aa57833314908115610391575b8115610383575b501561034e578160005260038152604060002080549081156103145781600a54106102cf57806000600192550161023182825461119e565b905561023f81600a546113f1565b600a5561024e81600b5461119e565b600b55600080808084885af161026261141e565b501561029857907ffe236dfc7ce073698734b89da1aee0e7551c9c6d264404c502e6e8fefc1132a891604051908152a360018055005b60405162461bcd60e51b815260048101839052600f60248201526e151c985b9cd9995c8819985a5b1959608a1b6044820152606490fd5b60405162461bcd60e51b815260048101849052601960248201527f496e73756666696369656e7420706f6f6c2062616c616e6365000000000000006044820152606490fd5b60405162461bcd60e51b81526004810184905260126024820152714e6f2070656e64696e67207265776172647360701b6044820152606490fd5b6064906040519062461bcd60e51b82526004820152600e60248201526d139bdd08185d5d1a1bdc9a5e995960921b6044820152fd5b9050600054163314386101f9565b905033600052600c825260ff60406000205416906101f2565b60405162461bcd60e51b815260048101839052600d60248201526c139bc81dd85b1b195d081cd95d609a1b6044820152606490fd5b604051633ee5aeb560e01b8152600490fd5b600080fd5b346103f15760203660031901126103f15761040f61112b565b610417611172565b6001600160a01b0390811690811561046b57600054826bffffffffffffffffffffffff60a01b821617600055167f8be0079c531659141344cd1fd0a4f28419497f9722a3daafe3b4186f6b6457e0600080a3005b604051631e4fbdf760e01b815260006004820152602490fd5b346103f15760003660031901126103f1576020600b54604051908152f35b346103f15760203660031901126103f157600435600052600d602052602060018060a01b0360406000205416604051908152f35b346103f15760403660031901126103f1576004356024356001600160a01b03818116918290036103f1576105249033600052600c60205260ff604060002054169081156105d8575b506111ab565b80156105a25760207f1f1f2d9f286cbe7035ecf63bf75a0507775286669caf2ac60ae843f4b16303579183600052600d82526040600020816bffffffffffffffffffffffff60a01b825416179055600382526002604060002001805415610590575b50604051908152a2005b42905561059c846111e9565b84610586565b60405162461bcd60e51b815260206004820152600e60248201526d125b9d985b1a59081dd85b1b195d60921b6044820152606490fd5b90506000541633148461051e565b346103f15760203660031901126103f1576001600160a01b0361060761112b565b16600052600c602052602060ff604060002054166040519015158152f35b346103f15760003660031901126103f15761063e611172565b60008080804760018060a01b038254165af161065861141e565b501561066057005b60405162461bcd60e51b815260206004820152600f60248201526e15da5d1a191c985dc819985a5b1959608a1b6044820152606490fd5b346103f15760003660031901126103f1576020600754604051908152f35b346103f15760203660031901126103f1576106ce611172565b600435600755005b346103f15760003660031901126103f1576060600a54600b546004549060405192835260208301526040820152f35b346103f15760003660031901126103f1576020600854604051908152f35b346103f15760203660031901126103f15733600052600c60205260ff60406000205416801561077d575b610756906111ab565b600435600052600360205260406000206004810160ff198154169055600242910155600080f35b506000546001600160a01b0316331461074d565b346103f15760203660031901126103f157600435600052600360205260a06040600020805490600181015490600281015460ff60046003840154930154169260405194855260208501526040840152606083015215156080820152f35b346103f15760003660031901126103f1576000546040516001600160a01b039091168152602090f35b346103f15760203660031901126103f1576004356004548110156103f15760209060046000527f8a35acfbc15ff81a39ae7d344fd709f28e8600b4aa8c65c6b64bfe7fe36bd19b0154604051908152f35b346103f15760a03660031901126103f15733600052600c60205260ff6040600020541680156108bc575b61089b906111ab565b6108a36113b4565b6108ba608435606435604435602435600435611275565b005b506000546001600160a01b03163314610892565b346103f15760003660031901126103f1576108e9611172565b6108f16113b4565b600160ff1960025416176002557f62e78cea01bee320cd4e420270b5ea74000d11b0c9f74754ebdbfc544b05a2586020604051338152a1005b346103f15760003660031901126103f1576020600954604051908152f35b346103f15760003660031901126103f1576020600a54604051908152f35b346103f15760003660031901126103f1576020600554604051908152f35b346103f15760003660031901126103f15761099d611172565b600080546001600160a01b0319811682556001600160a01b03167f8be0079c531659141344cd1fd0a4f28419497f9722a3daafe3b4186f6b6457e08280a3005b60003660031901126103f1573415610a33576109fb34600a5461119e565b80600a556040519034825260208201527fce66f10ae4269ec7bfd83e4659aed202bd4efb93d241bae453642969c2f079d360403392a2005b60405162461bcd60e51b815260206004820152600d60248201526c26bab9ba1039b2b732102b21a760991b6044820152606490fd5b346103f15760203660031901126103f157600435610a84611172565b60648111610a9157600855005b60405162461bcd60e51b815260206004820152600f60248201526e125b9d985b1a59081c195c98d95b9d608a1b6044820152606490fd5b346103f15760203660031901126103f157610ae1611172565b600435600655005b346103f15760403660031901126103f15760043567ffffffffffffffff6024358181116103f157366023820112156103f15780600401359182116103f15736602483830101116103f15760607f2e2689c3d478097aae83cf665fd1a2a129def6bf175ced7accbc1f395138362c9233600052600c60205260ff604060002054168015610c07575b610b79906111ab565b8460005260036020526040600020906004825492610ba66064610b9e60085487611262565b0480956113f1565b815560038101610bb681546113d2565b905501600160ff19825416179055610bd082600a5461119e565b600a5580602460405195869485526040602086015282604086015201848401376000828201840152601f01601f19168101030190a2005b506000546001600160a01b03163314610b70565b346103f15760003660031901126103f157602060ff600254166040519015158152f35b346103f15760203660031901126103f15760006080610c5b6113fe565b8281528260208201528260408201528260608201520152600435600052600360205260a06040600020610c8c6113fe565b81549182825260018101546020830190815260028201549060408401918252608060ff600460038601549560608801968752015416940193151584526040519485525160208501525160408401525160608301525115156080820152f35b346103f15760a03660031901126103f15767ffffffffffffffff6004358181116103f157610d1c903690600401611141565b6024929192358281116103f157610d37903690600401611141565b9290916044358281116103f157610d52903690600401611141565b9590926064358181116103f157610d6d903690600401611141565b90916084359081116103f157610d87903690600401611141565b9533600052600c60205260ff604060002054168015610fc3575b610daa906111ab565b610db26113b4565b88861480610fba575b80610fb1575b80610fa8575b15610f6b5760005b868110610dd857005b610de38188886113e1565b35600052600360205260406000209060ff600483015416610f6157600282015415610f42575b610e14818c8c6113e1565b3591670de0b6b3a7640000928084810204841481151715610f2c5787838f928d610e85610e7b848d610e75610e6b8f8f9b8591610e64600554610e5d6127109e8f9d8e956113e1565b3590611262565b049c6113e1565b3560065490611262565b976113e1565b3560075490611262565b04938383018311610f2c57610eb669021e19e0c9bab240000095610ec1956018610ecf9b610ebc960204950161119e565b90611262565b611262565b0480610ed4575b50506113d2565b610dcf565b604081610f037f5470cc99038f326ef796f0210393438f4f315f8cb6f55d79bf34e9efb322511093855461119e565b93848155600242910155610f18858d8d6113e1565b359382519182526020820152a28c80610ec8565b634e487b7160e01b600052601160045260246000fd5b426002830155610f5c610f56828a8a6113e1565b356111e9565b610e09565b610ecf91506113d2565b60405162461bcd60e51b8152602060048201526015602482015274082e4e4c2f240d8cadccee8d040dad2e6dac2e8c6d605b1b6044820152606490fd5b50868614610dc7565b50828614610dc1565b50898614610dbb565b506000546001600160a01b03163314610da1565b346103f15760203660031901126103f15760043560005260036020526020604060002054604051908152f35b346103f15760003660031901126103f15761101c611172565b60025460ff81161561105b5760ff19166002557f5db9ee0a495bf2e6ff9c91a7834c1ba4fdd244a5e8aa4e537bd38aeae4b073aa6020604051338152a1005b604051638dfc202b60e01b8152600490fd5b346103f15760003660031901126103f1576020600654604051908152f35b346103f15760403660031901126103f1576110a461112b565b602435908115158092036103f15760207f9fdbc2d48b8a0db2f62663bf9312ad02f5b1f6414ad600b55a247d09aeec3ea2916110de611172565b60018060a01b03169283600052600c8252604060002060ff1981541660ff8316179055604051908152a2005b346103f15760203660031901126103f157611123611172565b600435600555005b600435906001600160a01b03821682036103f157565b9181601f840112156103f15782359167ffffffffffffffff83116103f1576020808501948460051b0101116103f157565b6000546001600160a01b0316330361118657565b60405163118cdaa760e01b8152336004820152602490fd5b91908201809211610f2c57565b156111b257565b60405162461bcd60e51b815260206004820152600f60248201526e2737ba1030b71032bc32b1baba37b960891b6044820152606490fd5b6004546801000000000000000081101561124c5760018101806004558110156112365760046000527f8a35acfbc15ff81a39ae7d344fd709f28e8600b4aa8c65c6b64bfe7fe36bd19b0155565b634e487b7160e01b600052603260045260246000fd5b634e487b7160e01b600052604160045260246000fd5b81810292918115918404141715610f2c57565b939190926000938585526003602052604085209460ff6004870154166113ab57600286019485541561139a575b670de0b6b3a76400009283810293818504149015171561138657906112d9949392916112ee6112e461271080988194600554611262565b049660065490611262565b9460075490611262565b04928501809511611372575061131b92610eb669021e19e0c9bab240000095936018610ebc94049461119e565b0480611328575b50505050565b82604092611358837f5470cc99038f326ef796f0210393438f4f315f8cb6f55d79bf34e9efb3225110965461119e565b80925542905582519182526020820152a238808080611322565b634e487b7160e01b81526011600452602490fd5b634e487b7160e01b82526011600452602482fd5b4286556113a6886111e9565b6112a2565b50505050505050565b60ff600254166113c057565b60405163d93c066560e01b8152600490fd5b6000198114610f2c5760010190565b91908110156112365760051b0190565b91908203918211610f2c57565b6040519060a0820182811067ffffffffffffffff82111761124c57604052565b3d156114645767ffffffffffffffff903d82811161124c5760405192601f8201601f19908116603f011684019081118482101761124c5760405282523d6000602084013e565b60609056fea2646970667358221220f0e5e8726c797b2d28ddb5634e2165e3a85c5b68347358f1dff911b7d315405864736f6c63430008140033","opcodes":"PUSH1 0x80 DUP1 PUSH1 0x40 MSTORE CALLVALUE PUSH2 0xB6 JUMPI CALLER ISZERO PUSH2 0xA0 JUMPI PUSH1 0x0 DUP1 SLOAD CALLER PUSH1 0x1 PUSH1 0x1 PUSH1 0xA0 SHL SUB NOT DUP3 AND DUP2 OR DUP4 SSTORE PUSH1 0x40 DUP1 MLOAD SWAP4 SWAP1 SWAP3 SWAP1 SWAP2 SWAP1 PUSH1 0x1 PUSH1 0x1 PUSH1 0xA0 SHL SUB AND PUSH32 0x8BE0079C531659141344CD1FD0A4F28419497F9722A3DAAFE3B4186F6B6457E0 DUP4 DUP1 LOG3 PUSH1 0x1 DUP1 SSTORE PUSH8 0xDE0B6B3A7640000 PUSH1 0x5 SSTORE PUSH1 0x64 PUSH1 0x6 SSTORE PUSH2 0x1F4 PUSH1 0x7 SSTORE PUSH1 0x32 PUSH1 0x8 SSTORE PUSH1 0x7 PUSH1 0x9 SSTORE CALLER DUP2 MSTORE PUSH1 0xC PUSH1 0x20 MSTORE KECCAK256 PUSH1 0x1 PUSH1 0xFF NOT DUP3 SLOAD AND OR SWAP1 SSTORE PUSH2 0x149F SWAP1 DUP2 PUSH2 0xBC DUP3 CODECOPY RETURN JUMPDEST PUSH4 0x1E4FBDF7 PUSH1 0xE0 SHL DUP2 MSTORE PUSH1 0x0 PUSH1 0x4 DUP3 ADD MSTORE PUSH1 0x24 SWAP1 REVERT JUMPDEST PUSH1 0x0 DUP1 REVERT INVALID PUSH1 0x80 PUSH1 0x40 MSTORE PUSH1 0x4 CALLDATASIZE LT ISZERO PUSH2 0x2A JUMPI JUMPDEST CALLDATASIZE ISZERO PUSH2 0x19 JUMPI PUSH1 0x0 DUP1 REVERT JUMPDEST PUSH2 0x25 CALLVALUE PUSH1 0xA SLOAD PUSH2 0x119E JUMP JUMPDEST PUSH1 0xA SSTORE STOP JUMPDEST PUSH1 0x0 CALLDATALOAD PUSH1 0xE0 SHR DUP1 PUSH4 0x373A23A EQ PUSH2 0x110A JUMPI DUP1 PUSH4 0x1E1BFF3F EQ PUSH2 0x108B JUMPI DUP1 PUSH4 0x23D5CF51 EQ PUSH2 0x106D JUMPI DUP1 PUSH4 0x3F4BA83A EQ PUSH2 0x1003 JUMPI DUP1 PUSH4 0x3FFC8BC9 EQ PUSH2 0xFD7 JUMPI DUP1 PUSH4 0x448392C7 EQ PUSH2 0xCEA JUMPI DUP1 PUSH4 0x486E28E9 EQ PUSH2 0xC3E JUMPI DUP1 PUSH4 0x5C975ABB EQ PUSH2 0xC1B JUMPI DUP1 PUSH4 0x5CFE49B9 EQ PUSH2 0xAE9 JUMPI DUP1 PUSH4 0x61EDD677 EQ PUSH2 0xAC8 JUMPI DUP1 PUSH4 0x6DB824F7 EQ PUSH2 0xA68 JUMPI DUP1 PUSH4 0x70F37D27 EQ PUSH2 0x9DD JUMPI DUP1 PUSH4 0x715018A6 EQ PUSH2 0x984 JUMPI DUP1 PUSH4 0x757C1C25 EQ PUSH2 0x966 JUMPI DUP1 PUSH4 0x7A5C08AE EQ PUSH2 0x948 JUMPI DUP1 PUSH4 0x7FF4A6C5 EQ PUSH2 0x92A JUMPI DUP1 PUSH4 0x8456CB59 EQ PUSH2 0x8D0 JUMPI DUP1 PUSH4 0x879DAD92 EQ PUSH2 0x868 JUMPI DUP1 PUSH4 0x8D811C6B EQ PUSH2 0x817 JUMPI DUP1 PUSH4 0x8DA5CB5B EQ PUSH2 0x7EE JUMPI DUP1 PUSH4 0x938D967A EQ PUSH2 0x791 JUMPI DUP1 PUSH4 0x9CA0E03C EQ PUSH2 0x723 JUMPI DUP1 PUSH4 0xB98BCFA5 EQ PUSH2 0x705 JUMPI DUP1 PUSH4 0xBBB85188 EQ PUSH2 0x6D6 JUMPI DUP1 PUSH4 0xBCB3C963 EQ PUSH2 0x6B5 JUMPI DUP1 PUSH4 0xCFF7498F EQ PUSH2 0x697 JUMPI DUP1 PUSH4 0xDB2E21BC EQ PUSH2 0x625 JUMPI DUP1 PUSH4 0xDEBFDA30 EQ PUSH2 0x5E6 JUMPI DUP1 PUSH4 0xE86551E5 EQ PUSH2 0x4D6 JUMPI DUP1 PUSH4 0xEE201716 EQ PUSH2 0x4A2 JUMPI DUP1 PUSH4 0xEFCA2EED EQ PUSH2 0x484 JUMPI DUP1 PUSH4 0xF2FDE38B EQ PUSH2 0x3F6 JUMPI PUSH4 0xF5414023 SUB PUSH2 0xE JUMPI CALLVALUE PUSH2 0x3F1 JUMPI PUSH1 0x20 DUP1 PUSH1 0x3 NOT CALLDATASIZE ADD SLT PUSH2 0x3F1 JUMPI PUSH1 0x4 CALLDATALOAD PUSH1 0x2 PUSH1 0x1 SLOAD EQ PUSH2 0x3DF JUMPI PUSH1 0x2 PUSH1 0x1 SSTORE PUSH2 0x1C6 PUSH2 0x13B4 JUMP JUMPDEST PUSH1 0x0 DUP2 DUP2 MSTORE PUSH1 0xD DUP4 MSTORE PUSH1 0x40 SWAP1 KECCAK256 SLOAD PUSH1 0x1 PUSH1 0x1 PUSH1 0xA0 SHL SUB SWAP1 DUP2 AND SWAP3 SWAP1 DUP4 ISZERO PUSH2 0x3AA JUMPI DUP4 CALLER EQ SWAP1 DUP2 ISZERO PUSH2 0x391 JUMPI JUMPDEST DUP2 ISZERO PUSH2 0x383 JUMPI JUMPDEST POP ISZERO PUSH2 0x34E JUMPI DUP2 PUSH1 0x0 MSTORE PUSH1 0x3 DUP2 MSTORE PUSH1 0x40 PUSH1 0x0 KECCAK256 DUP1 SLOAD SWAP1 DUP2 ISZERO PUSH2 0x314 JUMPI DUP2 PUSH1 0xA SLOAD LT PUSH2 0x2CF JUMPI DUP1 PUSH1 0x0 PUSH1 0x1 SWAP3 SSTORE ADD PUSH2 0x231 DUP3 DUP3 SLOAD PUSH2 0x119E JUMP JUMPDEST SWAP1 SSTORE PUSH2 0x23F DUP2 PUSH1 0xA SLOAD PUSH2 0x13F1 JUMP JUMPDEST PUSH1 0xA SSTORE PUSH2 0x24E DUP2 PUSH1 0xB SLOAD PUSH2 0x119E JUMP JUMPDEST PUSH1 0xB SSTORE PUSH1 0x0 DUP1 DUP1 DUP1 DUP5 DUP9 GAS CALL PUSH2 0x262 PUSH2 0x141E JUMP JUMPDEST POP ISZERO PUSH2 0x298 JUMPI SWAP1 PUSH32 0xFE236DFC7CE073698734B89DA1AEE0E7551C9C6D264404C502E6E8FEFC1132A8 SWAP2 PUSH1 0x40 MLOAD SWAP1 DUP2 MSTORE LOG3 PUSH1 0x1 DUP1 SSTORE STOP JUMPDEST PUSH1 0x40 MLOAD PUSH3 0x461BCD PUSH1 0xE5 SHL DUP2 MSTORE PUSH1 0x4 DUP2 ADD DUP4 SWAP1 MSTORE PUSH1 0xF PUSH1 0x24 DUP3 ADD MSTORE PUSH15 0x151C985B9CD9995C8819985A5B1959 PUSH1 0x8A SHL PUSH1 0x44 DUP3 ADD MSTORE PUSH1 0x64 SWAP1 REVERT JUMPDEST PUSH1 0x40 MLOAD PUSH3 0x461BCD PUSH1 0xE5 SHL DUP2 MSTORE PUSH1 0x4 DUP2 ADD DUP5 SWAP1 MSTORE PUSH1 0x19 PUSH1 0x24 DUP3 ADD MSTORE PUSH32 0x496E73756666696369656E7420706F6F6C2062616C616E636500000000000000 PUSH1 0x44 DUP3 ADD MSTORE PUSH1 0x64 SWAP1 REVERT JUMPDEST PUSH1 0x40 MLOAD PUSH3 0x461BCD PUSH1 0xE5 SHL DUP2 MSTORE PUSH1 0x4 DUP2 ADD DUP5 SWAP1 MSTORE PUSH1 0x12 PUSH1 0x24 DUP3 ADD MSTORE PUSH18 0x4E6F2070656E64696E672072657761726473 PUSH1 0x70 SHL PUSH1 0x44 DUP3 ADD MSTORE PUSH1 0x64 SWAP1 REVERT JUMPDEST PUSH1 0x64 SWAP1 PUSH1 0x40 MLOAD SWAP1 PUSH3 0x461BCD PUSH1 0xE5 SHL DUP3 MSTORE PUSH1 0x4 DUP3 ADD MSTORE PUSH1 0xE PUSH1 0x24 DUP3 ADD MSTORE PUSH14 0x139BDD08185D5D1A1BDC9A5E9959 PUSH1 0x92 SHL PUSH1 0x44 DUP3 ADD MSTORE REVERT JUMPDEST SWAP1 POP PUSH1 0x0 SLOAD AND CALLER EQ CODESIZE PUSH2 0x1F9 JUMP JUMPDEST SWAP1 POP CALLER PUSH1 0x0 MSTORE PUSH1 0xC DUP3 MSTORE PUSH1 0xFF PUSH1 0x40 PUSH1 0x0 KECCAK256 SLOAD AND SWAP1 PUSH2 0x1F2 JUMP JUMPDEST PUSH1 0x40 MLOAD PUSH3 0x461BCD PUSH1 0xE5 SHL DUP2 MSTORE PUSH1 0x4 DUP2 ADD DUP4 SWAP1 MSTORE PUSH1 0xD PUSH1 0x24 DUP3 ADD MSTORE PUSH13 0x139BC81DD85B1B195D081CD95D PUSH1 0x9A SHL PUSH1 0x44 DUP3 ADD MSTORE PUSH1 0x64 SWAP1 REVERT JUMPDEST PUSH1 0x40 MLOAD PUSH4 0x3EE5AEB5 PUSH1 0xE0 SHL DUP2 MSTORE PUSH1 0x4 SWAP1 REVERT JUMPDEST PUSH1 0x0 DUP1 REVERT JUMPDEST CALLVALUE PUSH2 0x3F1 JUMPI PUSH1 0x20 CALLDATASIZE PUSH1 0x3 NOT ADD SLT PUSH2 0x3F1 JUMPI PUSH2 0x40F PUSH2 0x112B JUMP JUMPDEST PUSH2 0x417 PUSH2 0x1172 JUMP JUMPDEST PUSH1 0x1 PUSH1 0x1 PUSH1 0xA0 SHL SUB SWAP1 DUP2 AND SWAP1 DUP2 ISZERO PUSH2 0x46B JUMPI PUSH1 0x0 SLOAD DUP3 PUSH12 0xFFFFFFFFFFFFFFFFFFFFFFFF PUSH1 0xA0 SHL DUP3 AND OR PUSH1 0x0 SSTORE AND PUSH32 0x8BE0079C531659141344CD1FD0A4F28419497F9722A3DAAFE3B4186F6B6457E0 PUSH1 0x0 DUP1 LOG3 STOP JUMPDEST PUSH1 0x40 MLOAD PUSH4 0x1E4FBDF7 PUSH1 0xE0 SHL DUP2 MSTORE PUSH1 0x0 PUSH1 0x4 DUP3 ADD MSTORE PUSH1 0x24 SWAP1 REVERT JUMPDEST CALLVALUE PUSH2 0x3F1 JUMPI PUSH1 0x0 CALLDATASIZE PUSH1 0x3 NOT ADD SLT PUSH2 0x3F1 JUMPI PUSH1 0x20 PUSH1 0xB SLOAD PUSH1 0x40 MLOAD SWAP1 DUP2 MSTORE RETURN JUMPDEST CALLVALUE PUSH2 0x3F1 JUMPI PUSH1 0x20 CALLDATASIZE PUSH1 0x3 NOT ADD SLT PUSH2 0x3F1 JUMPI PUSH1 0x4 CALLDATALOAD PUSH1 0x0 MSTORE PUSH1 0xD PUSH1 0x20 MSTORE PUSH1 0x20 PUSH1 0x1 DUP1 PUSH1 0xA0 SHL SUB PUSH1 0x40 PUSH1 0x0 KECCAK256 SLOAD AND PUSH1 0x40 MLOAD SWAP1 DUP2 MSTORE RETURN JUMPDEST CALLVALUE PUSH2 0x3F1 JUMPI PUSH1 0x40 CALLDATASIZE PUSH1 0x3 NOT ADD SLT PUSH2 0x3F1 JUMPI PUSH1 0x4 CALLDATALOAD PUSH1 0x24 CALLDATALOAD PUSH1 0x1 PUSH1 0x1 PUSH1 0xA0 SHL SUB DUP2 DUP2 AND SWAP2 DUP3 SWAP1 SUB PUSH2 0x3F1 JUMPI PUSH2 0x524 SWAP1 CALLER PUSH1 0x0 MSTORE PUSH1 0xC PUSH1 0x20 MSTORE PUSH1 0xFF PUSH1 0x40 PUSH1 0x0 KECCAK256 SLOAD AND SWAP1 DUP2 ISZERO PUSH2 0x5D8 JUMPI JUMPDEST POP PUSH2 0x11AB JUMP JUMPDEST DUP1 ISZERO PUSH2 0x5A2 JUMPI PUSH1 0x20 PUSH32 0x1F1F2D9F286CBE7035ECF63BF75A0507775286669CAF2AC60AE843F4B1630357 SWAP2 DUP4 PUSH1 0x0 MSTORE PUSH1 0xD DUP3 MSTORE PUSH1 0x40 PUSH1 0x0 KECCAK256 DUP2 PUSH12 0xFFFFFFFFFFFFFFFFFFFFFFFF PUSH1 0xA0 SHL DUP3 SLOAD AND OR SWAP1 SSTORE PUSH1 0x3 DUP3 MSTORE PUSH1 0x2 PUSH1 0x40 PUSH1 0x0 KECCAK256 ADD DUP1 SLOAD ISZERO PUSH2 0x590 JUMPI JUMPDEST POP PUSH1 0x40 MLOAD SWAP1 DUP2 MSTORE LOG2 STOP JUMPDEST TIMESTAMP SWAP1 SSTORE PUSH2 0x59C DUP5 PUSH2 0x11E9 JUMP JUMPDEST DUP5 PUSH2 0x586 JUMP JUMPDEST PUSH1 0x40 MLOAD PUSH3 0x461BCD PUSH1 0xE5 SHL DUP2 MSTORE PUSH1 0x20 PUSH1 0x4 DUP3 ADD MSTORE PUSH1 0xE PUSH1 0x24 DUP3 ADD MSTORE PUSH14 0x125B9D985B1A59081DD85B1B195D PUSH1 0x92 SHL PUSH1 0x44 DUP3 ADD MSTORE PUSH1 0x64 SWAP1 REVERT JUMPDEST SWAP1 POP PUSH1 0x0 SLOAD AND CALLER EQ DUP5 PUSH2 0x51E JUMP JUMPDEST CALLVALUE PUSH2 0x3F1 JUMPI PUSH1 0x20 CALLDATASIZE PUSH1 0x3 NOT ADD SLT PUSH2 0x3F1 JUMPI PUSH1 0x1 PUSH1 0x1 PUSH1 0xA0 SHL SUB PUSH2 0x607 PUSH2 0x112B JUMP JUMPDEST AND PUSH1 0x0 MSTORE PUSH1 0xC PUSH1 0x20 MSTORE PUSH1 0x20 PUSH1 0xFF PUSH1 0x40 PUSH1 0x0 KECCAK256 SLOAD AND PUSH1 0x40 MLOAD SWAP1 ISZERO ISZERO DUP2 MSTORE RETURN JUMPDEST CALLVALUE PUSH2 0x3F1 JUMPI PUSH1 0x0 CALLDATASIZE PUSH1 0x3 NOT ADD SLT PUSH2 0x3F1 JUMPI PUSH2 0x63E PUSH2 0x1172 JUMP JUMPDEST PUSH1 0x0 DUP1 DUP1 DUP1 SELFBALANCE PUSH1 0x1 DUP1 PUSH1 0xA0 SHL SUB DUP3 SLOAD AND GAS CALL PUSH2 0x658 PUSH2 0x141E JUMP JUMPDEST POP ISZERO PUSH2 0x660 JUMPI STOP JUMPDEST PUSH1 0x40 MLOAD PUSH3 0x461BCD PUSH1 0xE5 SHL DUP2 MSTORE PUSH1 0x20 PUSH1 0x4 DUP3 ADD MSTORE PUSH1 0xF PUSH1 0x24 DUP3 ADD MSTORE PUSH15 0x15DA5D1A191C985DC819985A5B1959 PUSH1 0x8A SHL PUSH1 0x44 DUP3 ADD MSTORE PUSH1 0x64 SWAP1 REVERT JUMPDEST CALLVALUE PUSH2 0x3F1 JUMPI PUSH1 0x0 CALLDATASIZE PUSH1 0x3 NOT ADD SLT PUSH2 0x3F1 JUMPI PUSH1 0x20 PUSH1 0x7 SLOAD PUSH1 0x40 MLOAD SWAP1 DUP2 MSTORE RETURN JUMPDEST CALLVALUE PUSH2 0x3F1 JUMPI PUSH1 0x20 CALLDATASIZE PUSH1 0x3 NOT ADD SLT PUSH2 0x3F1 JUMPI PUSH2 0x6CE PUSH2 0x1172 JUMP JUMPDEST PUSH1 0x4 CALLDATALOAD PUSH1 0x7 SSTORE STOP JUMPDEST CALLVALUE PUSH2 0x3F1 JUMPI PUSH1 0x0 CALLDATASIZE PUSH1 0x3 NOT ADD SLT PUSH2 0x3F1 JUMPI PUSH1 0x60 PUSH1 0xA SLOAD PUSH1 0xB SLOAD PUSH1 0x4 SLOAD SWAP1 PUSH1 0x40 MLOAD SWAP3 DUP4 MSTORE PUSH1 0x20 DUP4 ADD MSTORE PUSH1 0x40 DUP3 ADD MSTORE RETURN JUMPDEST CALLVALUE PUSH2 0x3F1 JUMPI PUSH1 0x0 CALLDATASIZE PUSH1 0x3 NOT ADD SLT PUSH2 0x3F1 JUMPI PUSH1 0x20 PUSH1 0x8 SLOAD PUSH1 0x40 MLOAD SWAP1 DUP2 MSTORE RETURN JUMPDEST CALLVALUE PUSH2 0x3F1 JUMPI PUSH1 0x20 CALLDATASIZE PUSH1 0x3 NOT ADD SLT PUSH2 0x3F1 JUMPI CALLER PUSH1 0x0 MSTORE PUSH1 0xC PUSH1 0x20 MSTORE PUSH1 0xFF PUSH1 0x40 PUSH1 0x0 KECCAK256 SLOAD AND DUP1 ISZERO PUSH2 0x77D JUMPI JUMPDEST PUSH2 0x756 SWAP1 PUSH2 0x11AB JUMP JUMPDEST PUSH1 0x4 CALLDATALOAD PUSH1 0x0 MSTORE PUSH1 0x3 PUSH1 0x20 MSTORE PUSH1 0x40 PUSH1 0x0 KECCAK256 PUSH1 0x4 DUP2 ADD PUSH1 0xFF NOT DUP2 SLOAD AND SWAP1 SSTORE PUSH1 0x2 TIMESTAMP SWAP2 ADD SSTORE PUSH1 0x0 DUP1 RETURN JUMPDEST POP PUSH1 0x0 SLOAD PUSH1 0x1 PUSH1 0x1 PUSH1 0xA0 SHL SUB AND CALLER EQ PUSH2 0x74D JUMP JUMPDEST CALLVALUE PUSH2 0x3F1 JUMPI PUSH1 0x20 CALLDATASIZE PUSH1 0x3 NOT ADD SLT PUSH2 0x3F1 JUMPI PUSH1 0x4 CALLDATALOAD PUSH1 0x0 MSTORE PUSH1 0x3 PUSH1 0x20 MSTORE PUSH1 0xA0 PUSH1 0x40 PUSH1 0x0 KECCAK256 DUP1 SLOAD SWAP1 PUSH1 0x1 DUP2 ADD SLOAD SWAP1 PUSH1 0x2 DUP2 ADD SLOAD PUSH1 0xFF PUSH1 0x4 PUSH1 0x3 DUP5 ADD SLOAD SWAP4 ADD SLOAD AND SWAP3 PUSH1 0x40 MLOAD SWAP5 DUP6 MSTORE PUSH1 0x20 DUP6 ADD MSTORE PUSH1 0x40 DUP5 ADD MSTORE PUSH1 0x60 DUP4 ADD MSTORE ISZERO ISZERO PUSH1 0x80 DUP3 ADD MSTORE RETURN JUMPDEST CALLVALUE PUSH2 0x3F1 JUMPI PUSH1 0x0 CALLDATASIZE PUSH1 0x3 NOT ADD SLT PUSH2 0x3F1 JUMPI PUSH1 0x0 SLOAD PUSH1 0x40 MLOAD PUSH1 0x1 PUSH1 0x1 PUSH1 0xA0 SHL SUB SWAP1 SWAP2 AND DUP2 MSTORE PUSH1 0x20 SWAP1 RETURN JUMPDEST CALLVALUE PUSH2 0x3F1 JUMPI PUSH1 0x20 CALLDATASIZE PUSH1 0x3 NOT ADD SLT PUSH2 0x3F1 JUMPI PUSH1 0x4 CALLDATALOAD PUSH1 0x4 SLOAD DUP2 LT ISZERO PUSH2 0x3F1 JUMPI PUSH1 0x20 SWAP1 PUSH1 0x4 PUSH1 0x0 MSTORE PUSH32 0x8A35ACFBC15FF81A39AE7D344FD709F28E8600B4AA8C65C6B64BFE7FE36BD19B ADD SLOAD PUSH1 0x40 MLOAD SWAP1 DUP2 MSTORE RETURN JUMPDEST CALLVALUE PUSH2 0x3F1 JUMPI PUSH1 0xA0 CALLDATASIZE PUSH1 0x3 NOT ADD SLT PUSH2 0x3F1 JUMPI CALLER PUSH1 0x0 MSTORE PUSH1 0xC PUSH1 0x20 MSTORE PUSH1 0xFF PUSH1 0x40 PUSH1 0x0 KECCAK256 SLOAD AND DUP1 ISZERO PUSH2 0x8BC JUMPI JUMPDEST PUSH2 0x89B SWAP1 PUSH2 0x11AB JUMP JUMPDEST PUSH2 0x8A3 PUSH2 0x13B4 JUMP JUMPDEST PUSH2 0x8BA PUSH1 0x84 CALLDATALOAD PUSH1 0x64 CALLDATALOAD PUSH1 0x44 CALLDATALOAD PUSH1 0x24 CALLDATALOAD PUSH1 0x4 CALLDATALOAD PUSH2 0x1275 JUMP JUMPDEST STOP JUMPDEST POP PUSH1 0x0 SLOAD PUSH1 0x1 PUSH1 0x1 PUSH1 0xA0 SHL SUB AND CALLER EQ PUSH2 0x892 JUMP JUMPDEST CALLVALUE PUSH2 0x3F1 JUMPI PUSH1 0x0 CALLDATASIZE PUSH1 0x3 NOT ADD SLT PUSH2 0x3F1 JUMPI PUSH2 0x8E9 PUSH2 0x1172 JUMP JUMPDEST PUSH2 0x8F1 PUSH2 0x13B4 JUMP JUMPDEST PUSH1 0x1 PUSH1 0xFF NOT PUSH1 0x2 SLOAD AND OR PUSH1 0x2 SSTORE PUSH32 0x62E78CEA01BEE320CD4E420270B5EA74000D11B0C9F74754EBDBFC544B05A258 PUSH1 0x20 PUSH1 0x40 MLOAD CALLER DUP2 MSTORE LOG1 STOP JUMPDEST CALLVALUE PUSH2 0x3F1 JUMPI PUSH1 0x0 CALLDATASIZE PUSH1 0x3 NOT ADD SLT PUSH2 0x3F1 JUMPI PUSH1 0x20 PUSH1 0x9 SLOAD PUSH1 0x40 MLOAD SWAP1 DUP2 MSTORE RETURN JUMPDEST CALLVALUE PUSH2 0x3F1 JUMPI PUSH1 0x0 CALLDATASIZE PUSH1 0x3 NOT ADD SLT PUSH2 0x3F1 JUMPI PUSH1 0x20 PUSH1 0xA SLOAD PUSH1 0x40 MLOAD SWAP1 DUP2 MSTORE RETURN JUMPDEST CALLVALUE PUSH2 0x3F1 JUMPI PUSH1 0x0 CALLDATASIZE PUSH1 0x3 NOT ADD SLT PUSH2 0x3F1 JUMPI PUSH1 0x20 PUSH1 0x5 SLOAD PUSH1 0x40 MLOAD SWAP1 DUP2 MSTORE RETURN JUMPDEST CALLVALUE PUSH2 0x3F1 JUMPI PUSH1 0x0 CALLDATASIZE PUSH1 0x3 NOT ADD SLT PUSH2 0x3F1 JUMPI PUSH2 0x99D PUSH2 0x1172 JUMP JUMPDEST PUSH1 0x0 DUP1 SLOAD PUSH1 0x1 PUSH1 0x1 PUSH1 0xA0 SHL SUB NOT DUP2 AND DUP3 SSTORE PUSH1 0x1 PUSH1 0x1 PUSH1 0xA0 SHL SUB AND PUSH32 0x8BE0079C531659141344CD1FD0A4F28419497F9722A3DAAFE3B4186F6B6457E0 DUP3 DUP1 LOG3 STOP JUMPDEST PUSH1 0x0 CALLDATASIZE PUSH1 0x3 NOT ADD SLT PUSH2 0x3F1 JUMPI CALLVALUE ISZERO PUSH2 0xA33 JUMPI PUSH2 0x9FB CALLVALUE PUSH1 0xA SLOAD PUSH2 0x119E JUMP JUMPDEST DUP1 PUSH1 0xA SSTORE PUSH1 0x40 MLOAD SWAP1 CALLVALUE DUP3 MSTORE PUSH1 0x20 DUP3 ADD MSTORE PUSH32 0xCE66F10AE4269EC7BFD83E4659AED202BD4EFB93D241BAE453642969C2F079D3 PUSH1 0x40 CALLER SWAP3 LOG2 STOP JUMPDEST PUSH1 0x40 MLOAD PUSH3 0x461BCD PUSH1 0xE5 SHL DUP2 MSTORE PUSH1 0x20 PUSH1 0x4 DUP3 ADD MSTORE PUSH1 0xD PUSH1 0x24 DUP3 ADD MSTORE PUSH13 0x26BAB9BA1039B2B732102B21A7 PUSH1 0x99 SHL PUSH1 0x44 DUP3 ADD MSTORE PUSH1 0x64 SWAP1 REVERT JUMPDEST CALLVALUE PUSH2 0x3F1 JUMPI PUSH1 0x20 CALLDATASIZE PUSH1 0x3 NOT ADD SLT PUSH2 0x3F1 JUMPI PUSH1 0x4 CALLDATALOAD PUSH2 0xA84 PUSH2 0x1172 JUMP JUMPDEST PUSH1 0x64 DUP2 GT PUSH2 0xA91 JUMPI PUSH1 0x8 SSTORE STOP JUMPDEST PUSH1 0x40 MLOAD PUSH3 0x461BCD PUSH1 0xE5 SHL DUP2 MSTORE PUSH1 0x20 PUSH1 0x4 DUP3 ADD MSTORE PUSH1 0xF PUSH1 0x24 DUP3 ADD MSTORE PUSH15 0x125B9D985B1A59081C195C98D95B9D PUSH1 0x8A SHL PUSH1 0x44 DUP3 ADD MSTORE PUSH1 0x64 SWAP1 REVERT JUMPDEST CALLVALUE PUSH2 0x3F1 JUMPI PUSH1 0x20 CALLDATASIZE PUSH1 0x3 NOT ADD SLT PUSH2 0x3F1 JUMPI PUSH2 0xAE1 PUSH2 0x1172 JUMP JUMPDEST PUSH1 0x4 CALLDATALOAD PUSH1 0x6 SSTORE STOP JUMPDEST CALLVALUE PUSH2 0x3F1 JUMPI PUSH1 0x40 CALLDATASIZE PUSH1 0x3 NOT ADD SLT PUSH2 0x3F1 JUMPI PUSH1 0x4 CALLDATALOAD PUSH8 0xFFFFFFFFFFFFFFFF PUSH1 0x24 CALLDATALOAD DUP2 DUP2 GT PUSH2 0x3F1 JUMPI CALLDATASIZE PUSH1 0x23 DUP3 ADD SLT ISZERO PUSH2 0x3F1 JUMPI DUP1 PUSH1 0x4 ADD CALLDATALOAD SWAP2 DUP3 GT PUSH2 0x3F1 JUMPI CALLDATASIZE PUSH1 0x24 DUP4 DUP4 ADD ADD GT PUSH2 0x3F1 JUMPI PUSH1 0x60 PUSH32 0x2E2689C3D478097AAE83CF665FD1A2A129DEF6BF175CED7ACCBC1F395138362C SWAP3 CALLER PUSH1 0x0 MSTORE PUSH1 0xC PUSH1 0x20 MSTORE PUSH1 0xFF PUSH1 0x40 PUSH1 0x0 KECCAK256 SLOAD AND DUP1 ISZERO PUSH2 0xC07 JUMPI JUMPDEST PUSH2 0xB79 SWAP1 PUSH2 0x11AB JUMP JUMPDEST DUP5 PUSH1 0x0 MSTORE PUSH1 0x3 PUSH1 0x20 MSTORE PUSH1 0x40 PUSH1 0x0 KECCAK256 SWAP1 PUSH1 0x4 DUP3 SLOAD SWAP3 PUSH2 0xBA6 PUSH1 0x64 PUSH2 0xB9E PUSH1 0x8 SLOAD DUP8 PUSH2 0x1262 JUMP JUMPDEST DIV DUP1 SWAP6 PUSH2 0x13F1 JUMP JUMPDEST DUP2 SSTORE PUSH1 0x3 DUP2 ADD PUSH2 0xBB6 DUP2 SLOAD PUSH2 0x13D2 JUMP JUMPDEST SWAP1 SSTORE ADD PUSH1 0x1 PUSH1 0xFF NOT DUP3 SLOAD AND OR SWAP1 SSTORE PUSH2 0xBD0 DUP3 PUSH1 0xA SLOAD PUSH2 0x119E JUMP JUMPDEST PUSH1 0xA SSTORE DUP1 PUSH1 0x24 PUSH1 0x40 MLOAD SWAP6 DUP7 SWAP5 DUP6 MSTORE PUSH1 0x40 PUSH1 0x20 DUP7 ADD MSTORE DUP3 PUSH1 0x40 DUP7 ADD MSTORE ADD DUP5 DUP5 ADD CALLDATACOPY PUSH1 0x0 DUP3 DUP3 ADD DUP5 ADD MSTORE PUSH1 0x1F ADD PUSH1 0x1F NOT AND DUP2 ADD SUB ADD SWAP1 LOG2 STOP JUMPDEST POP PUSH1 0x0 SLOAD PUSH1 0x1 PUSH1 0x1 PUSH1 0xA0 SHL SUB AND CALLER EQ PUSH2 0xB70 JUMP JUMPDEST CALLVALUE PUSH2 0x3F1 JUMPI PUSH1 0x0 CALLDATASIZE PUSH1 0x3 NOT ADD SLT PUSH2 0x3F1 JUMPI PUSH1 0x20 PUSH1 0xFF PUSH1 0x2 SLOAD AND PUSH1 0x40 MLOAD SWAP1 ISZERO ISZERO DUP2 MSTORE RETURN JUMPDEST CALLVALUE PUSH2 0x3F1 JUMPI PUSH1 0x20 CALLDATASIZE PUSH1 0x3 NOT ADD SLT PUSH2 0x3F1 JUMPI PUSH1 0x0 PUSH1 0x80 PUSH2 0xC5B PUSH2 0x13FE JUMP JUMPDEST DUP3 DUP2 MSTORE DUP3 PUSH1 0x20 DUP3 ADD MSTORE DUP3 PUSH1 0x40 DUP3 ADD MSTORE DUP3 PUSH1 0x60 DUP3 ADD MSTORE ADD MSTORE PUSH1 0x4 CALLDATALOAD PUSH1 0x0 MSTORE PUSH1 0x3 PUSH1 0x20 MSTORE PUSH1 0xA0 PUSH1 0x40 PUSH1 0x0 KECCAK256 PUSH2 0xC8C PUSH2 0x13FE JUMP JUMPDEST DUP2 SLOAD SWAP2 DUP3 DUP3 MSTORE PUSH1 0x1 DUP2 ADD SLOAD PUSH1 0x20 DUP4 ADD SWAP1 DUP2 MSTORE PUSH1 0x2 DUP3 ADD SLOAD SWAP1 PUSH1 0x40 DUP5 ADD SWAP2 DUP3 MSTORE PUSH1 0x80 PUSH1 0xFF PUSH1 0x4 PUSH1 0x3 DUP7 ADD SLOAD SWAP6 PUSH1 0x60 DUP9 ADD SWAP7 DUP8 MSTORE ADD SLOAD AND SWAP5 ADD SWAP4 ISZERO ISZERO DUP5 MSTORE PUSH1 0x40 MLOAD SWAP5 DUP6 MSTORE MLOAD PUSH1 0x20 DUP6 ADD MSTORE MLOAD PUSH1 0x40 DUP5 ADD MSTORE MLOAD PUSH1 0x60 DUP4 ADD MSTORE MLOAD ISZERO ISZERO PUSH1 0x80 DUP3 ADD MSTORE RETURN JUMPDEST CALLVALUE PUSH2 0x3F1 JUMPI PUSH1 0xA0 CALLDATASIZE PUSH1 0x3 NOT ADD SLT PUSH2 0x3F1 JUMPI PUSH8 0xFFFFFFFFFFFFFFFF PUSH1 0x4 CALLDATALOAD DUP2 DUP2 GT PUSH2 0x3F1 JUMPI PUSH2 0xD1C SWAP1 CALLDATASIZE SWAP1 PUSH1 0x4 ADD PUSH2 0x1141 JUMP JUMPDEST PUSH1 0x24 SWAP3 SWAP2 SWAP3 CALLDATALOAD DUP3 DUP2 GT PUSH2 0x3F1 JUMPI PUSH2 0xD37 SWAP1 CALLDATASIZE SWAP1 PUSH1 0x4 ADD PUSH2 0x1141 JUMP JUMPDEST SWAP3 SWAP1 SWAP2 PUSH1 0x44 CALLDATALOAD DUP3 DUP2 GT PUSH2 0x3F1 JUMPI PUSH2 0xD52 SWAP1 CALLDATASIZE SWAP1 PUSH1 0x4 ADD PUSH2 0x1141 JUMP JUMPDEST SWAP6 SWAP1 SWAP3 PUSH1 0x64 CALLDATALOAD DUP2 DUP2 GT PUSH2 0x3F1 JUMPI PUSH2 0xD6D SWAP1 CALLDATASIZE SWAP1 PUSH1 0x4 ADD PUSH2 0x1141 JUMP JUMPDEST SWAP1 SWAP2 PUSH1 0x84 CALLDATALOAD SWAP1 DUP2 GT PUSH2 0x3F1 JUMPI PUSH2 0xD87 SWAP1 CALLDATASIZE SWAP1 PUSH1 0x4 ADD PUSH2 0x1141 JUMP JUMPDEST SWAP6 CALLER PUSH1 0x0 MSTORE PUSH1 0xC PUSH1 0x20 MSTORE PUSH1 0xFF PUSH1 0x40 PUSH1 0x0 KECCAK256 SLOAD AND DUP1 ISZERO PUSH2 0xFC3 JUMPI JUMPDEST PUSH2 0xDAA SWAP1 PUSH2 0x11AB JUMP JUMPDEST PUSH2 0xDB2 PUSH2 0x13B4 JUMP JUMPDEST DUP9 DUP7 EQ DUP1 PUSH2 0xFBA JUMPI JUMPDEST DUP1 PUSH2 0xFB1 JUMPI JUMPDEST DUP1 PUSH2 0xFA8 JUMPI JUMPDEST ISZERO PUSH2 0xF6B JUMPI PUSH1 0x0 JUMPDEST DUP7 DUP2 LT PUSH2 0xDD8 JUMPI STOP JUMPDEST PUSH2 0xDE3 DUP2 DUP9 DUP9 PUSH2 0x13E1 JUMP JUMPDEST CALLDATALOAD PUSH1 0x0 MSTORE PUSH1 0x3 PUSH1 0x20 MSTORE PUSH1 0x40 PUSH1 0x0 KECCAK256 SWAP1 PUSH1 0xFF PUSH1 0x4 DUP4 ADD SLOAD AND PUSH2 0xF61 JUMPI PUSH1 0x2 DUP3 ADD SLOAD ISZERO PUSH2 0xF42 JUMPI JUMPDEST PUSH2 0xE14 DUP2 DUP13 DUP13 PUSH2 0x13E1 JUMP JUMPDEST CALLDATALOAD SWAP2 PUSH8 0xDE0B6B3A7640000 SWAP3 DUP1 DUP5 DUP2 MUL DIV DUP5 EQ DUP2 ISZERO OR ISZERO PUSH2 0xF2C JUMPI DUP8 DUP4 DUP16 SWAP3 DUP14 PUSH2 0xE85 PUSH2 0xE7B DUP5 DUP14 PUSH2 0xE75 PUSH2 0xE6B DUP16 DUP16 SWAP12 DUP6 SWAP2 PUSH2 0xE64 PUSH1 0x5 SLOAD PUSH2 0xE5D PUSH2 0x2710 SWAP15 DUP16 SWAP14 DUP15 SWAP6 PUSH2 0x13E1 JUMP JUMPDEST CALLDATALOAD SWAP1 PUSH2 0x1262 JUMP JUMPDEST DIV SWAP13 PUSH2 0x13E1 JUMP JUMPDEST CALLDATALOAD PUSH1 0x6 SLOAD SWAP1 PUSH2 0x1262 JUMP JUMPDEST SWAP8 PUSH2 0x13E1 JUMP JUMPDEST CALLDATALOAD PUSH1 0x7 SLOAD SWAP1 PUSH2 0x1262 JUMP JUMPDEST DIV SWAP4 DUP4 DUP4 ADD DUP4 GT PUSH2 0xF2C JUMPI PUSH2 0xEB6 PUSH10 0x21E19E0C9BAB2400000 SWAP6 PUSH2 0xEC1 SWAP6 PUSH1 0x18 PUSH2 0xECF SWAP12 PUSH2 0xEBC SWAP7 MUL DIV SWAP6 ADD PUSH2 0x119E JUMP JUMPDEST SWAP1 PUSH2 0x1262 JUMP JUMPDEST PUSH2 0x1262 JUMP JUMPDEST DIV DUP1 PUSH2 0xED4 JUMPI JUMPDEST POP POP PUSH2 0x13D2 JUMP JUMPDEST PUSH2 0xDCF JUMP JUMPDEST PUSH1 0x40 DUP2 PUSH2 0xF03 PUSH32 0x5470CC99038F326EF796F0210393438F4F315F8CB6F55D79BF34E9EFB3225110 SWAP4 DUP6 SLOAD PUSH2 0x119E JUMP JUMPDEST SWAP4 DUP5 DUP2 SSTORE PUSH1 0x2 TIMESTAMP SWAP2 ADD SSTORE PUSH2 0xF18 DUP6 DUP14 DUP14 PUSH2 0x13E1 JUMP JUMPDEST CALLDATALOAD SWAP4 DUP3 MLOAD SWAP2 DUP3 MSTORE PUSH1 0x20 DUP3 ADD MSTORE LOG2 DUP13 DUP1 PUSH2 0xEC8 JUMP JUMPDEST PUSH4 0x4E487B71 PUSH1 0xE0 SHL PUSH1 0x0 MSTORE PUSH1 0x11 PUSH1 0x4 MSTORE PUSH1 0x24 PUSH1 0x0 REVERT JUMPDEST TIMESTAMP PUSH1 0x2 DUP4 ADD SSTORE PUSH2 0xF5C PUSH2 0xF56 DUP3 DUP11 DUP11 PUSH2 0x13E1 JUMP JUMPDEST CALLDATALOAD PUSH2 0x11E9 JUMP JUMPDEST PUSH2 0xE09 JUMP JUMPDEST PUSH2 0xECF SWAP2 POP PUSH2 0x13D2 JUMP JUMPDEST PUSH1 0x40 MLOAD PUSH3 0x461BCD PUSH1 0xE5 SHL DUP2 MSTORE PUSH1 0x20 PUSH1 0x4 DUP3 ADD MSTORE PUSH1 0x15 PUSH1 0x24 DUP3 ADD MSTORE PUSH21 0x82E4E4C2F240D8CADCCEE8D040DAD2E6DAC2E8C6D PUSH1 0x5B SHL PUSH1 0x44 DUP3 ADD MSTORE PUSH1 0x64 SWAP1 REVERT JUMPDEST POP DUP7 DUP7 EQ PUSH2 0xDC7 JUMP JUMPDEST POP DUP3 DUP7 EQ PUSH2 0xDC1 JUMP JUMPDEST POP DUP10 DUP7 EQ PUSH2 0xDBB JUMP JUMPDEST POP PUSH1 0x0 SLOAD PUSH1 0x1 PUSH1 0x1 PUSH1 0xA0 SHL SUB AND CALLER EQ PUSH2 0xDA1 JUMP JUMPDEST CALLVALUE PUSH2 0x3F1 JUMPI PUSH1 0x20 CALLDATASIZE PUSH1 0x3 NOT ADD SLT PUSH2 0x3F1 JUMPI PUSH1 0x4 CALLDATALOAD PUSH1 0x0 MSTORE PUSH1 0x3 PUSH1 0x20 MSTORE PUSH1 0x20 PUSH1 0x40 PUSH1 0x0 KECCAK256 SLOAD PUSH1 0x40 MLOAD SWAP1 DUP2 MSTORE RETURN JUMPDEST CALLVALUE PUSH2 0x3F1 JUMPI PUSH1 0x0 CALLDATASIZE PUSH1 0x3 NOT ADD SLT PUSH2 0x3F1 JUMPI PUSH2 0x101C PUSH2 0x1172 JUMP JUMPDEST PUSH1 0x2 SLOAD PUSH1 0xFF DUP2 AND ISZERO PUSH2 0x105B JUMPI PUSH1 0xFF NOT AND PUSH1 0x2 SSTORE PUSH32 0x5DB9EE0A495BF2E6FF9C91A7834C1BA4FDD244A5E8AA4E537BD38AEAE4B073AA PUSH1 0x20 PUSH1 0x40 MLOAD CALLER DUP2 MSTORE LOG1 STOP JUMPDEST PUSH1 0x40 MLOAD PUSH4 0x8DFC202B PUSH1 0xE0 SHL DUP2 MSTORE PUSH1 0x4 SWAP1 REVERT JUMPDEST CALLVALUE PUSH2 0x3F1 JUMPI PUSH1 0x0 CALLDATASIZE PUSH1 0x3 NOT ADD SLT PUSH2 0x3F1 JUMPI PUSH1 0x20 PUSH1 0x6 SLOAD PUSH1 0x40 MLOAD SWAP1 DUP2 MSTORE RETURN JUMPDEST CALLVALUE PUSH2 0x3F1 JUMPI PUSH1 0x40 CALLDATASIZE PUSH1 0x3 NOT ADD SLT PUSH2 0x3F1 JUMPI PUSH2 0x10A4 PUSH2 0x112B JUMP JUMPDEST PUSH1 0x24 CALLDATALOAD SWAP1 DUP2 ISZERO ISZERO DUP1 SWAP3 SUB PUSH2 0x3F1 JUMPI PUSH1 0x20 PUSH32 0x9FDBC2D48B8A0DB2F62663BF9312AD02F5B1F6414AD600B55A247D09AEEC3EA2 SWAP2 PUSH2 0x10DE PUSH2 0x1172 JUMP JUMPDEST PUSH1 0x1 DUP1 PUSH1 0xA0 SHL SUB AND SWAP3 DUP4 PUSH1 0x0 MSTORE PUSH1 0xC DUP3 MSTORE PUSH1 0x40 PUSH1 0x0 KECCAK256 PUSH1 0xFF NOT DUP2 SLOAD AND PUSH1 0xFF DUP4 AND OR SWAP1 SSTORE PUSH1 0x40 MLOAD SWAP1 DUP2 MSTORE LOG2 STOP JUMPDEST CALLVALUE PUSH2 0x3F1 JUMPI PUSH1 0x20 CALLDATASIZE PUSH1 0x3 NOT ADD SLT PUSH2 0x3F1 JUMPI PUSH2 0x1123 PUSH2 0x1172 JUMP JUMPDEST PUSH1 0x4 CALLDATALOAD PUSH1 0x5 SSTORE STOP JUMPDEST PUSH1 0x4 CALLDATALOAD SWAP1 PUSH1 0x1 PUSH1 0x1 PUSH1 0xA0 SHL SUB DUP3 AND DUP3 SUB PUSH2 0x3F1 JUMPI JUMP JUMPDEST SWAP2 DUP2 PUSH1 0x1F DUP5 ADD SLT ISZERO PUSH2 0x3F1 JUMPI DUP3 CALLDATALOAD SWAP2 PUSH8 0xFFFFFFFFFFFFFFFF DUP4 GT PUSH2 0x3F1 JUMPI PUSH1 0x20 DUP1 DUP6 ADD SWAP5 DUP5 PUSH1 0x5 SHL ADD ADD GT PUSH2 0x3F1 JUMPI JUMP JUMPDEST PUSH1 0x0 SLOAD PUSH1 0x1 PUSH1 0x1 PUSH1 0xA0 SHL SUB AND CALLER SUB PUSH2 0x1186 JUMPI JUMP JUMPDEST PUSH1 0x40 MLOAD PUSH4 0x118CDAA7 PUSH1 0xE0 SHL DUP2 MSTORE CALLER PUSH1 0x4 DUP3 ADD MSTORE PUSH1 0x24 SWAP1 REVERT JUMPDEST SWAP2 SWAP1 DUP3 ADD DUP1 SWAP3 GT PUSH2 0xF2C JUMPI JUMP JUMPDEST ISZERO PUSH2 0x11B2 JUMPI JUMP JUMPDEST PUSH1 0x40 MLOAD PUSH3 0x461BCD PUSH1 0xE5 SHL DUP2 MSTORE PUSH1 0x20 PUSH1 0x4 DUP3 ADD MSTORE PUSH1 0xF PUSH1 0x24 DUP3 ADD MSTORE PUSH15 0x2737BA1030B71032BC32B1BABA37B9 PUSH1 0x89 SHL PUSH1 0x44 DUP3 ADD MSTORE PUSH1 0x64 SWAP1 REVERT JUMPDEST PUSH1 0x4 SLOAD PUSH9 0x10000000000000000 DUP2 LT ISZERO PUSH2 0x124C JUMPI PUSH1 0x1 DUP2 ADD DUP1 PUSH1 0x4 SSTORE DUP2 LT ISZERO PUSH2 0x1236 JUMPI PUSH1 0x4 PUSH1 0x0 MSTORE PUSH32 0x8A35ACFBC15FF81A39AE7D344FD709F28E8600B4AA8C65C6B64BFE7FE36BD19B ADD SSTORE JUMP JUMPDEST PUSH4 0x4E487B71 PUSH1 0xE0 SHL PUSH1 0x0 MSTORE PUSH1 0x32 PUSH1 0x4 MSTORE PUSH1 0x24 PUSH1 0x0 REVERT JUMPDEST PUSH4 0x4E487B71 PUSH1 0xE0 SHL PUSH1 0x0 MSTORE PUSH1 0x41 PUSH1 0x4 MSTORE PUSH1 0x24 PUSH1 0x0 REVERT JUMPDEST DUP2 DUP2 MUL SWAP3 SWAP2 DUP2 ISZERO SWAP2 DUP5 DIV EQ OR ISZERO PUSH2 0xF2C JUMPI JUMP JUMPDEST SWAP4 SWAP2 SWAP1 SWAP3 PUSH1 0x0 SWAP4 DUP6 DUP6 MSTORE PUSH1 0x3 PUSH1 0x20 MSTORE PUSH1 0x40 DUP6 KECCAK256 SWAP5 PUSH1 0xFF PUSH1 0x4 DUP8 ADD SLOAD AND PUSH2 0x13AB JUMPI PUSH1 0x2 DUP7 ADD SWAP5 DUP6 SLOAD ISZERO PUSH2 0x139A JUMPI JUMPDEST PUSH8 0xDE0B6B3A7640000 SWAP3 DUP4 DUP2 MUL SWAP4 DUP2 DUP6 DIV EQ SWAP1 ISZERO OR ISZERO PUSH2 0x1386 JUMPI SWAP1 PUSH2 0x12D9 SWAP5 SWAP4 SWAP3 SWAP2 PUSH2 0x12EE PUSH2 0x12E4 PUSH2 0x2710 DUP1 SWAP9 DUP2 SWAP5 PUSH1 0x5 SLOAD PUSH2 0x1262 JUMP JUMPDEST DIV SWAP7 PUSH1 0x6 SLOAD SWAP1 PUSH2 0x1262 JUMP JUMPDEST SWAP5 PUSH1 0x7 SLOAD SWAP1 PUSH2 0x1262 JUMP JUMPDEST DIV SWAP3 DUP6 ADD DUP1 SWAP6 GT PUSH2 0x1372 JUMPI POP PUSH2 0x131B SWAP3 PUSH2 0xEB6 PUSH10 0x21E19E0C9BAB2400000 SWAP6 SWAP4 PUSH1 0x18 PUSH2 0xEBC SWAP5 DIV SWAP5 PUSH2 0x119E JUMP JUMPDEST DIV DUP1 PUSH2 0x1328 JUMPI JUMPDEST POP POP POP POP JUMP JUMPDEST DUP3 PUSH1 0x40 SWAP3 PUSH2 0x1358 DUP4 PUSH32 0x5470CC99038F326EF796F0210393438F4F315F8CB6F55D79BF34E9EFB3225110 SWAP7 SLOAD PUSH2 0x119E JUMP JUMPDEST DUP1 SWAP3 SSTORE TIMESTAMP SWAP1 SSTORE DUP3 MLOAD SWAP2 DUP3 MSTORE PUSH1 0x20 DUP3 ADD MSTORE LOG2 CODESIZE DUP1 DUP1 DUP1 PUSH2 0x1322 JUMP JUMPDEST PUSH4 0x4E487B71 PUSH1 0xE0 SHL DUP2 MSTORE PUSH1 0x11 PUSH1 0x4 MSTORE PUSH1 0x24 SWAP1 REVERT JUMPDEST PUSH4 0x4E487B71 PUSH1 0xE0 SHL DUP3 MSTORE PUSH1 0x11 PUSH1 0x4 MSTORE PUSH1 0x24 DUP3 REVERT JUMPDEST TIMESTAMP DUP7 SSTORE PUSH2 0x13A6 DUP9 PUSH2 0x11E9 JUMP JUMPDEST PUSH2 0x12A2 JUMP JUMPDEST POP POP POP POP POP POP POP JUMP JUMPDEST PUSH1 0xFF PUSH1 0x2 SLOAD AND PUSH2 0x13C0 JUMPI JUMP JUMPDEST PUSH1 0x40 MLOAD PUSH4 0xD93C0665 PUSH1 0xE0 SHL DUP2 MSTORE PUSH1 0x4 SWAP1 REVERT JUMPDEST PUSH1 0x0 NOT DUP2 EQ PUSH2 0xF2C JUMPI PUSH1 0x1 ADD SWAP1 JUMP JUMPDEST SWAP2 SWAP1 DUP2 LT ISZERO PUSH2 0x1236 JUMPI PUSH1 0x5 SHL ADD SWAP1 JUMP JUMPDEST SWAP2 SWAP1 DUP3 SUB SWAP2 DUP3 GT PUSH2 0xF2C JUMPI JUMP JUMPDEST PUSH1 0x40 MLOAD SWAP1 PUSH1 0xA0 DUP3 ADD DUP3 DUP2 LT PUSH8 0xFFFFFFFFFFFFFFFF DUP3 GT OR PUSH2 0x124C JUMPI PUSH1 0x40 MSTORE JUMP JUMPDEST RETURNDATASIZE ISZERO PUSH2 0x1464 JUMPI PUSH8 0xFFFFFFFFFFFFFFFF SWAP1 RETURNDATASIZE DUP3 DUP2 GT PUSH2 0x124C JUMPI PUSH1 0x40 MLOAD SWAP3 PUSH1 0x1F DUP3 ADD PUSH1 0x1F NOT SWAP1 DUP2 AND PUSH1 0x3F ADD AND DUP5 ADD SWAP1 DUP2 GT DUP5 DUP3 LT OR PUSH2 0x124C JUMPI PUSH1 0x40 MSTORE DUP3 MSTORE RETURNDATASIZE PUSH1 0x0 PUSH1 0x20 DUP5 ADD RETURNDATACOPY JUMP JUMPDEST PUSH1 0x60 SWAP1 JUMP INVALID LOG2 PUSH5 0x6970667358 0x22 SLT KECCAK256 CREATE 0xE5 0xE8 PUSH19 0x6C797B2D28DDB5634E2165E3A85C5B68347358 CALL 0xDF 0xF9 GT 0xB7 0xD3 ISZERO BLOCKHASH PC PUSH5 0x736F6C6343 STOP ADDMOD EQ STOP CALLER "},"methodIdentifiers":{"accrueReward(bytes32,uint256,uint256,uint256,uint256)":"879dad92","accrueRewardBatch(bytes32[],uint256[],uint256[],uint256[],uint256[])":"448392c7","baseRewardPerDay()":"757c1c25","calculatePendingReward(bytes32)":"3ffc8bc9","claimReward(bytes32)":"f5414023","emergencyWithdraw()":"db2e21bc","fundPool()":"70f37d27","getPoolStats()":"bbb85188","getRewardInfo(bytes32)":"486e28e9","isExecutor(address)":"debfda30","nodeWallets(bytes32)":"ee201716","owner()":"8da5cb5b","pause()":"8456cb59","paused()":"5c975abb","proofBonusMultiplier()":"cff7498f","renounceOwnership()":"715018a6","rewardPoolBalance()":"7a5c08ae","rewardedNodes(uint256)":"8d811c6b","rewards(bytes32)":"938d967a","setBaseReward(uint256)":"0373a23a","setExecutor(address,bool)":"1e1bff3f","setNodeWallet(bytes32,address)":"e86551e5","setProofBonusMultiplier(uint256)":"bcb3c963","setSlashPenalty(uint256)":"6db824f7","setStorageBonusMultiplier(uint256)":"61edd677","slashCooldownDays()":"7ff4a6c5","slashNode(bytes32,string)":"5cfe49b9","slashPenaltyPercent()":"b98bcfa5","storageBonusMultiplier()":"23d5cf51","totalDistributed()":"efca2eed","transferOwnership(address)":"f2fde38b","unpause()":"3f4ba83a","unslashNode(bytes32)":"9ca0e03c"}}}}}