{"contracts/TimeLockAgent.sol":{"TimeLockAgent":{"abi":[{"inputs":[],"stateMutability":"nonpayable","type":"constructor"},{"inputs":[],"name":"EnforcedPause","type":"error"},{"inputs":[],"name":"ExpectedPause","type":"error"},{"inputs":[{"internalType":"address","name":"owner","type":"address"}],"name":"OwnableInvalidOwner","type":"error"},{"inputs":[{"internalType":"address","name":"account","type":"address"}],"name":"OwnableUnauthorizedAccount","type":"error"},{"inputs":[],"name":"ReentrancyGuardReentrantCall","type":"error"},{"anonymous":false,"inputs":[{"indexed":true,"internalType":"address","name":"executor","type":"address"},{"indexed":false,"internalType":"bool","name":"allowed","type":"bool"}],"name":"ExecutorUpdated","type":"event"},{"anonymous":false,"inputs":[{"indexed":false,"internalType":"uint256","name":"newGracePeriod","type":"uint256"}],"name":"GracePeriodUpdated","type":"event"},{"anonymous":false,"inputs":[{"indexed":true,"internalType":"address","name":"previousOwner","type":"address"},{"indexed":true,"internalType":"address","name":"newOwner","type":"address"}],"name":"OwnershipTransferred","type":"event"},{"anonymous":false,"inputs":[{"indexed":false,"internalType":"address","name":"account","type":"address"}],"name":"Paused","type":"event"},{"anonymous":false,"inputs":[{"indexed":true,"internalType":"uint256","name":"scheduleId","type":"uint256"},{"indexed":false,"internalType":"uint256","name":"cancelledAt","type":"uint256"}],"name":"TransferCancelled","type":"event"},{"anonymous":false,"inputs":[{"indexed":true,"internalType":"uint256","name":"scheduleId","type":"uint256"},{"indexed":true,"internalType":"address","name":"executor","type":"address"},{"indexed":false,"internalType":"uint256","name":"executedAt","type":"uint256"}],"name":"TransferExecuted","type":"event"},{"anonymous":false,"inputs":[{"indexed":true,"internalType":"uint256","name":"scheduleId","type":"uint256"},{"indexed":false,"internalType":"uint256","name":"expiredAt","type":"uint256"}],"name":"TransferExpired","type":"event"},{"anonymous":false,"inputs":[{"indexed":true,"internalType":"uint256","name":"scheduleId","type":"uint256"},{"indexed":true,"internalType":"address","name":"creator","type":"address"},{"indexed":true,"internalType":"address","name":"to","type":"address"},{"indexed":false,"internalType":"uint256","name":"amount","type":"uint256"},{"indexed":false,"internalType":"uint256","name":"unlockTime","type":"uint256"}],"name":"TransferScheduled","type":"event"},{"anonymous":false,"inputs":[{"indexed":false,"internalType":"address","name":"account","type":"address"}],"name":"Unpaused","type":"event"},{"inputs":[{"internalType":"uint256","name":"scheduleId","type":"uint256"}],"name":"cancelTransfer","outputs":[],"stateMutability":"nonpayable","type":"function"},{"inputs":[{"internalType":"uint256[]","name":"scheduleIds","type":"uint256[]"}],"name":"executeBatch","outputs":[],"stateMutability":"nonpayable","type":"function"},{"inputs":[{"internalType":"uint256","name":"scheduleId","type":"uint256"}],"name":"executeTransfer","outputs":[],"stateMutability":"nonpayable","type":"function"},{"inputs":[{"internalType":"uint256","name":"scheduleId","type":"uint256"}],"name":"expireTransfer","outputs":[],"stateMutability":"nonpayable","type":"function"},{"inputs":[],"name":"gracePeriod","outputs":[{"internalType":"uint256","name":"","type":"uint256"}],"stateMutability":"view","type":"function"},{"inputs":[{"internalType":"address","name":"","type":"address"}],"name":"isExecutor","outputs":[{"internalType":"bool","name":"","type":"bool"}],"stateMutability":"view","type":"function"},{"inputs":[],"name":"nextScheduleId","outputs":[{"internalType":"uint256","name":"","type":"uint256"}],"stateMutability":"view","type":"function"},{"inputs":[],"name":"owner","outputs":[{"internalType":"address","name":"","type":"address"}],"stateMutability":"view","type":"function"},{"inputs":[],"name":"pause","outputs":[],"stateMutability":"nonpayable","type":"function"},{"inputs":[],"name":"paused","outputs":[{"internalType":"bool","name":"","type":"bool"}],"stateMutability":"view","type":"function"},{"inputs":[],"name":"renounceOwnership","outputs":[],"stateMutability":"nonpayable","type":"function"},{"inputs":[{"internalType":"address","name":"to","type":"address"},{"internalType":"uint256","name":"unlockTime","type":"uint256"}],"name":"scheduleTransferNative","outputs":[{"internalType":"uint256","name":"","type":"uint256"}],"stateMutability":"payable","type":"function"},{"inputs":[{"internalType":"address","name":"executor","type":"address"},{"internalType":"bool","name":"allowed","type":"bool"}],"name":"setExecutor","outputs":[],"stateMutability":"nonpayable","type":"function"},{"inputs":[{"internalType":"uint256","name":"newGracePeriod","type":"uint256"}],"name":"setGracePeriod","outputs":[],"stateMutability":"nonpayable","type":"function"},{"inputs":[{"internalType":"address","name":"newOwner","type":"address"}],"name":"transferOwnership","outputs":[],"stateMutability":"nonpayable","type":"function"},{"inputs":[{"internalType":"uint256","name":"","type":"uint256"}],"name":"transfers","outputs":[{"internalType":"uint256","name":"id","type":"uint256"},{"internalType":"address","name":"creator","type":"address"},{"internalType":"address","name":"to","type":"address"},{"internalType":"uint256","name":"amount","type":"uint256"},{"internalType":"uint256","name":"unlockTime","type":"uint256"},{"internalType":"enum TimeLockAgent.Status","name":"status","type":"uint8"},{"internalType":"uint256","name":"createdAt","type":"uint256"}],"stateMutability":"view","type":"function"},{"inputs":[],"name":"unpause","outputs":[],"stateMutability":"nonpayable","type":"function"},{"stateMutability":"payable","type":"receive"}],"evm":{"bytecode":{"linkReferences":{},"object":"608080604052346100e0576000906001825533156100cc575060018054610100600160a81b0319811633600881811b610100600160a81b03169290921790935560408051949093909290911c6001600160a01b03167f8be0079c531659141344cd1fd0a4f28419497f9722a3daafe3b4186f6b6457e08380a362093a80600355338152600560205220600160ff19825416179055600181527f9fdbc2d48b8a0db2f62663bf9312ad02f5b1f6414ad600b55a247d09aeec3ea260203392a260405161100d90816100e68239f35b602491631e4fbdf760e01b82526004820152fd5b600080fdfe60406080815260049081361015610020575b5050361561001e57600080fd5b005b600091823560e01c80630265d99314610be05780630b628b0a146109875780630f038d41146109685780631e1bff3f146108ea5780633f4ba83a1461088157806359caecb5146106d35780635c975abb146106af578063715018a61461064b5780638456cb59146105f15780638da5cb5b146105c4578063902cd1641461047b5780639377d711146103e7578063a06db7dc146103c8578063debfda3014610386578063f05d5752146101d4578063f2f65960146101875763f2fde38b146100e85750610011565b3461018357602036600319011261018357610101610d76565b610109610d91565b6001600160a01b0381811693909290841561016d57505060018054610100600160a81b03198116600893841b610100600160a81b031617909155901c167f8be0079c531659141344cd1fd0a4f28419497f9722a3daafe3b4186f6b6457e08380a380f35b51631e4fbdf760e01b8152908101859052602490fd5b8280fd5b5034610183576020366003190112610183577f33d1191f5a3abfe19d468d51bb5ece97489f1277a912a5b5c65992fc279ad3d49160209135906101c8610d91565b8160035551908152a180f35b50346101835760209182600319360112610382578135916101f3610f68565b6101fb610de5565b3385526005845260ff82862054168015610368575b61021990610e03565b828552808452610230600683872001541515610e60565b82855280845260ff600583872001541681811015610355576102529015610ebb565b8285528084528185208181015442106103135760058101805460ff1916600117905560028101546003909101548691829182918291906001600160a01b03165af161029b610f07565b50156102d257505142815233927f933b5d399a2cb8171a93e83d7b26f016dc6db708b3424cfbc84a04354f7a217a91a36001815580f35b83606492519162461bcd60e51b8352820152601e60248201527f54696d654c6f636b4167656e743a205472616e73666572206661696c656400006044820152fd5b5083606492519162461bcd60e51b8352820152601a60248201527f54696d654c6f636b4167656e743a2054696d65206c6f636b65640000000000006044820152fd5b634e487b7160e01b865260218252602486fd5b506001543360089190911c6001600160a01b031614610210565b8380fd5b5050346103c45760203660031901126103c45760209160ff9082906001600160a01b036103b1610d76565b1681526005855220541690519015158152f35b5080fd5b5050346103c457816003193601126103c4576020906003549051908152f35b509190346103c45760203660031901126103c457823582528260205280822080549260018060a01b039283600184015416936002840154166003840154908785015492600660ff60058801541696015496815198895260208901528701526060860152608085015284821015610468575060e0935060a083015260c0820152f35b634e487b7160e01b815260218552602490fd5b50903461018357602090816003193601126103825782359261049b610f68565b8385528083526104b2600683872001541515610e60565b83855280835260ff600583872001541681811015610355576104d49015610ebb565b838552808352818520908082015460035481018091116105b15742111561055f575090610553858080808660057fec7f25aef06e3f0e65e88e262bb891d91ec94fec8cf5858339abf0907ed04f15999801600360ff19825416179055600360018060a01b03600183015416910154905af161054d610f07565b50610f8b565b51428152a26001815580f35b825162461bcd60e51b8152908101849052602660248201527f54696d654c6f636b4167656e743a20477261636520706572696f64206e6f74206044820152651c185cdcd95960d21b6064820152608490fd5b634e487b7160e01b875260118252602487fd5b5050346103c457816003193601126103c457600154905160089190911c6001600160a01b03168152602090f35b5050346103c457816003193601126103c45760207f62e78cea01bee320cd4e420270b5ea74000d11b0c9f74754ebdbfc544b05a2589161062f610d91565b610637610de5565b600160ff198154161760015551338152a180f35b83346106ac57806003193601126106ac57610664610d91565b60018054610100600160a81b03198116909155819060081c6001600160a01b03167f8be0079c531659141344cd1fd0a4f28419497f9722a3daafe3b4186f6b6457e08280a380f35b80fd5b5050346103c457816003193601126103c45760209060ff6001541690519015158152f35b5090346101835760209081600319360112610382578235926106f3610f68565b83855280835261070a600683872001541515610e60565b838552808352818520600101546001600160a01b0391908216330361082d5784865280845260ff60058488200154168181101561081a5761074b9015610ebb565b8486528084528083872001544210156107b857858080807f59c3e31ec8892c34508197e97c25f0e4da6d87733b22b22765425d203f44667a979695610553958a8352885260038783209160058301600260ff19825416179055600183015416910154905af161054d610f07565b825162461bcd60e51b8152908101849052603660248201527f54696d654c6f636b4167656e743a20546f6f206c61746520746f2063616e63656044820152756c2c2075736520657870697265206966207374616c6560501b6064820152608490fd5b634e487b7160e01b875260218252602487fd5b825162461bcd60e51b8152908101849052602860248201527f54696d654c6f636b4167656e743a2043616c6c6572206973206e6f74207468656044820152671031b932b0ba37b960c11b6064820152608490fd5b503461018357826003193601126101835761089a610d91565b6001549060ff8216156108dc575060ff1916600155513381527f5db9ee0a495bf2e6ff9c91a7834c1ba4fdd244a5e8aa4e537bd38aeae4b073aa90602090a180f35b8251638dfc202b60e01b8152fd5b5050346103c457806003193601126103c457610904610d76565b60243590811515809203610382577f9fdbc2d48b8a0db2f62663bf9312ad02f5b1f6414ad600b55a247d09aeec3ea29160209161093f610d91565b6001600160a01b031680865260058352848620805460ff191660ff84161790559351908152a280f35b5050346103c457816003193601126103c4576020906002549051908152f35b5090806003193601126101835761099c610d76565b9260248035906109aa610de5565b3415610b89576001600160a01b03958616928315610b475742831115610af057600254956109d787610dc0565b60025585519260e0840184811067ffffffffffffffff821117610ade578752878452602084019233845287850187815260608601348152608087019188835260a088019684885260c089019d8e4290528d8652876020528c862099518a558060018b01925116916bffffffffffffffffffffffff60a01b928382541617905560028a019251169082541617905551600387015551838601556005850193519280841015610ace575050509660069160209860ff801983541691161790555191015582519034825285820152837fac460bc36b8940a1f439f8582126bce906841b8a1496a9374b63cd95b3d03360843393a451908152f35b634e487b7160e01b825260219052fd5b50634e487b7160e01b83526041825282fd5b845162461bcd60e51b8152602081880152602c818401527f54696d654c6f636b4167656e743a20556e6c6f636b2074696d65206d7573742060448201526b626520696e2066757475726560a01b6064820152608490fd5b845162461bcd60e51b81526020818801819052818401527f54696d654c6f636b4167656e743a20496e76616c696420726563697069656e746044820152606490fd5b84602c608492602087519362461bcd60e51b85528401528201527f54696d654c6f636b4167656e743a20416d6f756e74206d75737420626520677260448201526b06561746572207468616e20360a41b6064820152fd5b5090346101835760208060031936011261038257823567ffffffffffffffff92838211610d725736602383011215610d725781850135938411610d72576024946005368787831b86010111610d6e57610c37610f68565b610c3f610de5565b33885280855260ff9384848a2054168015610d54575b610c5e90610e03565b885b878110610c6f57896001815580f35b8881841b83010135808b52848852858b206006810154158015610d2c575b610d09939291908015610d20575b610d1957858101908d80808060ff1994600186885416178755600360018060a01b03600283015416910154905af1610cd1610f07565b5015610d0e5750508651904282527f933b5d399a2cb8171a93e83d7b26f016dc6db708b3424cfbc84a04354f7a217a8a3393a3610dc0565b610c60565b815416905550610dc0565b5050610dc0565b50868101544210610c9b565b5087858201541686811015610d42571515610c8d565b634e487b7160e01b8d52602187528b8dfd5b506001543360089190911c6001600160a01b031614610c55565b8780fd5b8580fd5b600435906001600160a01b0382168203610d8c57565b600080fd5b60015460081c6001600160a01b03163303610da857565b60405163118cdaa760e01b8152336004820152602490fd5b6000198114610dcf5760010190565b634e487b7160e01b600052601160045260246000fd5b60ff60015416610df157565b60405163d93c066560e01b8152600490fd5b15610e0a57565b60405162461bcd60e51b815260206004820152602860248201527f54696d654c6f636b4167656e743a2043616c6c6572206973206e6f7420616e2060448201526732bc32b1baba37b960c11b6064820152608490fd5b15610e6757565b60405162461bcd60e51b815260206004820152602660248201527f54696d654c6f636b4167656e743a205472616e7366657220646f6573206e6f7460448201526508195e1a5cdd60d21b6064820152608490fd5b15610ec257565b60405162461bcd60e51b815260206004820152601d60248201527f54696d654c6f636b4167656e743a20496e76616c6964207374617475730000006044820152606490fd5b3d15610f635767ffffffffffffffff903d828111610f4d5760405192601f8201601f19908116603f0116840190811184821017610f4d5760405282523d6000602084013e565b634e487b7160e01b600052604160045260246000fd5b606090565b600260005414610f79576002600055565b604051633ee5aeb560e01b8152600490fd5b15610f9257565b60405162461bcd60e51b815260206004820152601c60248201527f54696d654c6f636b4167656e743a20526566756e64206661696c6564000000006044820152606490fdfea26469706673582212200553a9031d15c65763b815c958eb8d507e71b5db8f9856c11d32931328ddd79164736f6c63430008140033","opcodes":"PUSH1 0x80 DUP1 PUSH1 0x40 MSTORE CALLVALUE PUSH2 0xE0 JUMPI PUSH1 0x0 SWAP1 PUSH1 0x1 DUP3 SSTORE CALLER ISZERO PUSH2 0xCC JUMPI POP PUSH1 0x1 DUP1 SLOAD PUSH2 0x100 PUSH1 0x1 PUSH1 0xA8 SHL SUB NOT DUP2 AND CALLER PUSH1 0x8 DUP2 DUP2 SHL PUSH2 0x100 PUSH1 0x1 PUSH1 0xA8 SHL SUB AND SWAP3 SWAP1 SWAP3 OR SWAP1 SWAP4 SSTORE PUSH1 0x40 DUP1 MLOAD SWAP5 SWAP1 SWAP4 SWAP1 SWAP3 SWAP1 SWAP2 SHR PUSH1 0x1 PUSH1 0x1 PUSH1 0xA0 SHL SUB AND PUSH32 0x8BE0079C531659141344CD1FD0A4F28419497F9722A3DAAFE3B4186F6B6457E0 DUP4 DUP1 LOG3 PUSH3 0x93A80 PUSH1 0x3 SSTORE CALLER DUP2 MSTORE PUSH1 0x5 PUSH1 0x20 MSTORE KECCAK256 PUSH1 0x1 PUSH1 0xFF NOT DUP3 SLOAD AND OR SWAP1 SSTORE PUSH1 0x1 DUP2 MSTORE PUSH32 0x9FDBC2D48B8A0DB2F62663BF9312AD02F5B1F6414AD600B55A247D09AEEC3EA2 PUSH1 0x20 CALLER SWAP3 LOG2 PUSH1 0x40 MLOAD PUSH2 0x100D SWAP1 DUP2 PUSH2 0xE6 DUP3 CODECOPY RETURN JUMPDEST PUSH1 0x24 SWAP2 PUSH4 0x1E4FBDF7 PUSH1 0xE0 SHL DUP3 MSTORE PUSH1 0x4 DUP3 ADD MSTORE REVERT JUMPDEST PUSH1 0x0 DUP1 REVERT INVALID PUSH1 0x40 PUSH1 0x80 DUP2 MSTORE PUSH1 0x4 SWAP1 DUP2 CALLDATASIZE LT ISZERO PUSH2 0x20 JUMPI JUMPDEST POP POP CALLDATASIZE ISZERO PUSH2 0x1E JUMPI PUSH1 0x0 DUP1 REVERT JUMPDEST STOP JUMPDEST PUSH1 0x0 SWAP2 DUP3 CALLDATALOAD PUSH1 0xE0 SHR DUP1 PUSH4 0x265D993 EQ PUSH2 0xBE0 JUMPI DUP1 PUSH4 0xB628B0A EQ PUSH2 0x987 JUMPI DUP1 PUSH4 0xF038D41 EQ PUSH2 0x968 JUMPI DUP1 PUSH4 0x1E1BFF3F EQ PUSH2 0x8EA JUMPI DUP1 PUSH4 0x3F4BA83A EQ PUSH2 0x881 JUMPI DUP1 PUSH4 0x59CAECB5 EQ PUSH2 0x6D3 JUMPI DUP1 PUSH4 0x5C975ABB EQ PUSH2 0x6AF JUMPI DUP1 PUSH4 0x715018A6 EQ PUSH2 0x64B JUMPI DUP1 PUSH4 0x8456CB59 EQ PUSH2 0x5F1 JUMPI DUP1 PUSH4 0x8DA5CB5B EQ PUSH2 0x5C4 JUMPI DUP1 PUSH4 0x902CD164 EQ PUSH2 0x47B JUMPI DUP1 PUSH4 0x9377D711 EQ PUSH2 0x3E7 JUMPI DUP1 PUSH4 0xA06DB7DC EQ PUSH2 0x3C8 JUMPI DUP1 PUSH4 0xDEBFDA30 EQ PUSH2 0x386 JUMPI DUP1 PUSH4 0xF05D5752 EQ PUSH2 0x1D4 JUMPI DUP1 PUSH4 0xF2F65960 EQ PUSH2 0x187 JUMPI PUSH4 0xF2FDE38B EQ PUSH2 0xE8 JUMPI POP PUSH2 0x11 JUMP JUMPDEST CALLVALUE PUSH2 0x183 JUMPI PUSH1 0x20 CALLDATASIZE PUSH1 0x3 NOT ADD SLT PUSH2 0x183 JUMPI PUSH2 0x101 PUSH2 0xD76 JUMP JUMPDEST PUSH2 0x109 PUSH2 0xD91 JUMP JUMPDEST PUSH1 0x1 PUSH1 0x1 PUSH1 0xA0 SHL SUB DUP2 DUP2 AND SWAP4 SWAP1 SWAP3 SWAP1 DUP5 ISZERO PUSH2 0x16D JUMPI POP POP PUSH1 0x1 DUP1 SLOAD PUSH2 0x100 PUSH1 0x1 PUSH1 0xA8 SHL SUB NOT DUP2 AND PUSH1 0x8 SWAP4 DUP5 SHL PUSH2 0x100 PUSH1 0x1 PUSH1 0xA8 SHL SUB AND OR SWAP1 SWAP2 SSTORE SWAP1 SHR AND PUSH32 0x8BE0079C531659141344CD1FD0A4F28419497F9722A3DAAFE3B4186F6B6457E0 DUP4 DUP1 LOG3 DUP1 RETURN JUMPDEST MLOAD PUSH4 0x1E4FBDF7 PUSH1 0xE0 SHL DUP2 MSTORE SWAP1 DUP2 ADD DUP6 SWAP1 MSTORE PUSH1 0x24 SWAP1 REVERT JUMPDEST DUP3 DUP1 REVERT JUMPDEST POP CALLVALUE PUSH2 0x183 JUMPI PUSH1 0x20 CALLDATASIZE PUSH1 0x3 NOT ADD SLT PUSH2 0x183 JUMPI PUSH32 0x33D1191F5A3ABFE19D468D51BB5ECE97489F1277A912A5B5C65992FC279AD3D4 SWAP2 PUSH1 0x20 SWAP2 CALLDATALOAD SWAP1 PUSH2 0x1C8 PUSH2 0xD91 JUMP JUMPDEST DUP2 PUSH1 0x3 SSTORE MLOAD SWAP1 DUP2 MSTORE LOG1 DUP1 RETURN JUMPDEST POP CALLVALUE PUSH2 0x183 JUMPI PUSH1 0x20 SWAP2 DUP3 PUSH1 0x3 NOT CALLDATASIZE ADD SLT PUSH2 0x382 JUMPI DUP2 CALLDATALOAD SWAP2 PUSH2 0x1F3 PUSH2 0xF68 JUMP JUMPDEST PUSH2 0x1FB PUSH2 0xDE5 JUMP JUMPDEST CALLER DUP6 MSTORE PUSH1 0x5 DUP5 MSTORE PUSH1 0xFF DUP3 DUP7 KECCAK256 SLOAD AND DUP1 ISZERO PUSH2 0x368 JUMPI JUMPDEST PUSH2 0x219 SWAP1 PUSH2 0xE03 JUMP JUMPDEST DUP3 DUP6 MSTORE DUP1 DUP5 MSTORE PUSH2 0x230 PUSH1 0x6 DUP4 DUP8 KECCAK256 ADD SLOAD ISZERO ISZERO PUSH2 0xE60 JUMP JUMPDEST DUP3 DUP6 MSTORE DUP1 DUP5 MSTORE PUSH1 0xFF PUSH1 0x5 DUP4 DUP8 KECCAK256 ADD SLOAD AND DUP2 DUP2 LT ISZERO PUSH2 0x355 JUMPI PUSH2 0x252 SWAP1 ISZERO PUSH2 0xEBB JUMP JUMPDEST DUP3 DUP6 MSTORE DUP1 DUP5 MSTORE DUP2 DUP6 KECCAK256 DUP2 DUP2 ADD SLOAD TIMESTAMP LT PUSH2 0x313 JUMPI PUSH1 0x5 DUP2 ADD DUP1 SLOAD PUSH1 0xFF NOT AND PUSH1 0x1 OR SWAP1 SSTORE PUSH1 0x2 DUP2 ADD SLOAD PUSH1 0x3 SWAP1 SWAP2 ADD SLOAD DUP7 SWAP2 DUP3 SWAP2 DUP3 SWAP2 DUP3 SWAP2 SWAP1 PUSH1 0x1 PUSH1 0x1 PUSH1 0xA0 SHL SUB AND GAS CALL PUSH2 0x29B PUSH2 0xF07 JUMP JUMPDEST POP ISZERO PUSH2 0x2D2 JUMPI POP MLOAD TIMESTAMP DUP2 MSTORE CALLER SWAP3 PUSH32 0x933B5D399A2CB8171A93E83D7B26F016DC6DB708B3424CFBC84A04354F7A217A SWAP2 LOG3 PUSH1 0x1 DUP2 SSTORE DUP1 RETURN JUMPDEST DUP4 PUSH1 0x64 SWAP3 MLOAD SWAP2 PUSH3 0x461BCD PUSH1 0xE5 SHL DUP4 MSTORE DUP3 ADD MSTORE PUSH1 0x1E PUSH1 0x24 DUP3 ADD MSTORE PUSH32 0x54696D654C6F636B4167656E743A205472616E73666572206661696C65640000 PUSH1 0x44 DUP3 ADD MSTORE REVERT JUMPDEST POP DUP4 PUSH1 0x64 SWAP3 MLOAD SWAP2 PUSH3 0x461BCD PUSH1 0xE5 SHL DUP4 MSTORE DUP3 ADD MSTORE PUSH1 0x1A PUSH1 0x24 DUP3 ADD MSTORE PUSH32 0x54696D654C6F636B4167656E743A2054696D65206C6F636B6564000000000000 PUSH1 0x44 DUP3 ADD MSTORE REVERT JUMPDEST PUSH4 0x4E487B71 PUSH1 0xE0 SHL DUP7 MSTORE PUSH1 0x21 DUP3 MSTORE PUSH1 0x24 DUP7 REVERT JUMPDEST POP PUSH1 0x1 SLOAD CALLER PUSH1 0x8 SWAP2 SWAP1 SWAP2 SHR PUSH1 0x1 PUSH1 0x1 PUSH1 0xA0 SHL SUB AND EQ PUSH2 0x210 JUMP JUMPDEST DUP4 DUP1 REVERT JUMPDEST POP POP CALLVALUE PUSH2 0x3C4 JUMPI PUSH1 0x20 CALLDATASIZE PUSH1 0x3 NOT ADD SLT PUSH2 0x3C4 JUMPI PUSH1 0x20 SWAP2 PUSH1 0xFF SWAP1 DUP3 SWAP1 PUSH1 0x1 PUSH1 0x1 PUSH1 0xA0 SHL SUB PUSH2 0x3B1 PUSH2 0xD76 JUMP JUMPDEST AND DUP2 MSTORE PUSH1 0x5 DUP6 MSTORE KECCAK256 SLOAD AND SWAP1 MLOAD SWAP1 ISZERO ISZERO DUP2 MSTORE RETURN JUMPDEST POP DUP1 REVERT JUMPDEST POP POP CALLVALUE PUSH2 0x3C4 JUMPI DUP2 PUSH1 0x3 NOT CALLDATASIZE ADD SLT PUSH2 0x3C4 JUMPI PUSH1 0x20 SWAP1 PUSH1 0x3 SLOAD SWAP1 MLOAD SWAP1 DUP2 MSTORE RETURN JUMPDEST POP SWAP2 SWAP1 CALLVALUE PUSH2 0x3C4 JUMPI PUSH1 0x20 CALLDATASIZE PUSH1 0x3 NOT ADD SLT PUSH2 0x3C4 JUMPI DUP3 CALLDATALOAD DUP3 MSTORE DUP3 PUSH1 0x20 MSTORE DUP1 DUP3 KECCAK256 DUP1 SLOAD SWAP3 PUSH1 0x1 DUP1 PUSH1 0xA0 SHL SUB SWAP3 DUP4 PUSH1 0x1 DUP5 ADD SLOAD AND SWAP4 PUSH1 0x2 DUP5 ADD SLOAD AND PUSH1 0x3 DUP5 ADD SLOAD SWAP1 DUP8 DUP6 ADD SLOAD SWAP3 PUSH1 0x6 PUSH1 0xFF PUSH1 0x5 DUP9 ADD SLOAD AND SWAP7 ADD SLOAD SWAP7 DUP2 MLOAD SWAP9 DUP10 MSTORE PUSH1 0x20 DUP10 ADD MSTORE DUP8 ADD MSTORE PUSH1 0x60 DUP7 ADD MSTORE PUSH1 0x80 DUP6 ADD MSTORE DUP5 DUP3 LT ISZERO PUSH2 0x468 JUMPI POP PUSH1 0xE0 SWAP4 POP PUSH1 0xA0 DUP4 ADD MSTORE PUSH1 0xC0 DUP3 ADD MSTORE RETURN JUMPDEST PUSH4 0x4E487B71 PUSH1 0xE0 SHL DUP2 MSTORE PUSH1 0x21 DUP6 MSTORE PUSH1 0x24 SWAP1 REVERT JUMPDEST POP SWAP1 CALLVALUE PUSH2 0x183 JUMPI PUSH1 0x20 SWAP1 DUP2 PUSH1 0x3 NOT CALLDATASIZE ADD SLT PUSH2 0x382 JUMPI DUP3 CALLDATALOAD SWAP3 PUSH2 0x49B PUSH2 0xF68 JUMP JUMPDEST DUP4 DUP6 MSTORE DUP1 DUP4 MSTORE PUSH2 0x4B2 PUSH1 0x6 DUP4 DUP8 KECCAK256 ADD SLOAD ISZERO ISZERO PUSH2 0xE60 JUMP JUMPDEST DUP4 DUP6 MSTORE DUP1 DUP4 MSTORE PUSH1 0xFF PUSH1 0x5 DUP4 DUP8 KECCAK256 ADD SLOAD AND DUP2 DUP2 LT ISZERO PUSH2 0x355 JUMPI PUSH2 0x4D4 SWAP1 ISZERO PUSH2 0xEBB JUMP JUMPDEST DUP4 DUP6 MSTORE DUP1 DUP4 MSTORE DUP2 DUP6 KECCAK256 SWAP1 DUP1 DUP3 ADD SLOAD PUSH1 0x3 SLOAD DUP2 ADD DUP1 SWAP2 GT PUSH2 0x5B1 JUMPI TIMESTAMP GT ISZERO PUSH2 0x55F JUMPI POP SWAP1 PUSH2 0x553 DUP6 DUP1 DUP1 DUP1 DUP7 PUSH1 0x5 PUSH32 0xEC7F25AEF06E3F0E65E88E262BB891D91EC94FEC8CF5858339ABF0907ED04F15 SWAP10 SWAP9 ADD PUSH1 0x3 PUSH1 0xFF NOT DUP3 SLOAD AND OR SWAP1 SSTORE PUSH1 0x3 PUSH1 0x1 DUP1 PUSH1 0xA0 SHL SUB PUSH1 0x1 DUP4 ADD SLOAD AND SWAP2 ADD SLOAD SWAP1 GAS CALL PUSH2 0x54D PUSH2 0xF07 JUMP JUMPDEST POP PUSH2 0xF8B JUMP JUMPDEST MLOAD TIMESTAMP DUP2 MSTORE LOG2 PUSH1 0x1 DUP2 SSTORE DUP1 RETURN JUMPDEST DUP3 MLOAD PUSH3 0x461BCD PUSH1 0xE5 SHL DUP2 MSTORE SWAP1 DUP2 ADD DUP5 SWAP1 MSTORE PUSH1 0x26 PUSH1 0x24 DUP3 ADD MSTORE PUSH32 0x54696D654C6F636B4167656E743A20477261636520706572696F64206E6F7420 PUSH1 0x44 DUP3 ADD MSTORE PUSH6 0x1C185CDCD959 PUSH1 0xD2 SHL PUSH1 0x64 DUP3 ADD MSTORE PUSH1 0x84 SWAP1 REVERT JUMPDEST PUSH4 0x4E487B71 PUSH1 0xE0 SHL DUP8 MSTORE PUSH1 0x11 DUP3 MSTORE PUSH1 0x24 DUP8 REVERT JUMPDEST POP POP CALLVALUE PUSH2 0x3C4 JUMPI DUP2 PUSH1 0x3 NOT CALLDATASIZE ADD SLT PUSH2 0x3C4 JUMPI PUSH1 0x1 SLOAD SWAP1 MLOAD PUSH1 0x8 SWAP2 SWAP1 SWAP2 SHR PUSH1 0x1 PUSH1 0x1 PUSH1 0xA0 SHL SUB AND DUP2 MSTORE PUSH1 0x20 SWAP1 RETURN JUMPDEST POP POP CALLVALUE PUSH2 0x3C4 JUMPI DUP2 PUSH1 0x3 NOT CALLDATASIZE ADD SLT PUSH2 0x3C4 JUMPI PUSH1 0x20 PUSH32 0x62E78CEA01BEE320CD4E420270B5EA74000D11B0C9F74754EBDBFC544B05A258 SWAP2 PUSH2 0x62F PUSH2 0xD91 JUMP JUMPDEST PUSH2 0x637 PUSH2 0xDE5 JUMP JUMPDEST PUSH1 0x1 PUSH1 0xFF NOT DUP2 SLOAD AND OR PUSH1 0x1 SSTORE MLOAD CALLER DUP2 MSTORE LOG1 DUP1 RETURN JUMPDEST DUP4 CALLVALUE PUSH2 0x6AC JUMPI DUP1 PUSH1 0x3 NOT CALLDATASIZE ADD SLT PUSH2 0x6AC JUMPI PUSH2 0x664 PUSH2 0xD91 JUMP JUMPDEST PUSH1 0x1 DUP1 SLOAD PUSH2 0x100 PUSH1 0x1 PUSH1 0xA8 SHL SUB NOT DUP2 AND SWAP1 SWAP2 SSTORE DUP2 SWAP1 PUSH1 0x8 SHR PUSH1 0x1 PUSH1 0x1 PUSH1 0xA0 SHL SUB AND PUSH32 0x8BE0079C531659141344CD1FD0A4F28419497F9722A3DAAFE3B4186F6B6457E0 DUP3 DUP1 LOG3 DUP1 RETURN JUMPDEST DUP1 REVERT JUMPDEST POP POP CALLVALUE PUSH2 0x3C4 JUMPI DUP2 PUSH1 0x3 NOT CALLDATASIZE ADD SLT PUSH2 0x3C4 JUMPI PUSH1 0x20 SWAP1 PUSH1 0xFF PUSH1 0x1 SLOAD AND SWAP1 MLOAD SWAP1 ISZERO ISZERO DUP2 MSTORE RETURN JUMPDEST POP SWAP1 CALLVALUE PUSH2 0x183 JUMPI PUSH1 0x20 SWAP1 DUP2 PUSH1 0x3 NOT CALLDATASIZE ADD SLT PUSH2 0x382 JUMPI DUP3 CALLDATALOAD SWAP3 PUSH2 0x6F3 PUSH2 0xF68 JUMP JUMPDEST DUP4 DUP6 MSTORE DUP1 DUP4 MSTORE PUSH2 0x70A PUSH1 0x6 DUP4 DUP8 KECCAK256 ADD SLOAD ISZERO ISZERO PUSH2 0xE60 JUMP JUMPDEST DUP4 DUP6 MSTORE DUP1 DUP4 MSTORE DUP2 DUP6 KECCAK256 PUSH1 0x1 ADD SLOAD PUSH1 0x1 PUSH1 0x1 PUSH1 0xA0 SHL SUB SWAP2 SWAP1 DUP3 AND CALLER SUB PUSH2 0x82D JUMPI DUP5 DUP7 MSTORE DUP1 DUP5 MSTORE PUSH1 0xFF PUSH1 0x5 DUP5 DUP9 KECCAK256 ADD SLOAD AND DUP2 DUP2 LT ISZERO PUSH2 0x81A JUMPI PUSH2 0x74B SWAP1 ISZERO PUSH2 0xEBB JUMP JUMPDEST DUP5 DUP7 MSTORE DUP1 DUP5 MSTORE DUP1 DUP4 DUP8 KECCAK256 ADD SLOAD TIMESTAMP LT ISZERO PUSH2 0x7B8 JUMPI DUP6 DUP1 DUP1 DUP1 PUSH32 0x59C3E31EC8892C34508197E97C25F0E4DA6D87733B22B22765425D203F44667A SWAP8 SWAP7 SWAP6 PUSH2 0x553 SWAP6 DUP11 DUP4 MSTORE DUP9 MSTORE PUSH1 0x3 DUP8 DUP4 KECCAK256 SWAP2 PUSH1 0x5 DUP4 ADD PUSH1 0x2 PUSH1 0xFF NOT DUP3 SLOAD AND OR SWAP1 SSTORE PUSH1 0x1 DUP4 ADD SLOAD AND SWAP2 ADD SLOAD SWAP1 GAS CALL PUSH2 0x54D PUSH2 0xF07 JUMP JUMPDEST DUP3 MLOAD PUSH3 0x461BCD PUSH1 0xE5 SHL DUP2 MSTORE SWAP1 DUP2 ADD DUP5 SWAP1 MSTORE PUSH1 0x36 PUSH1 0x24 DUP3 ADD MSTORE PUSH32 0x54696D654C6F636B4167656E743A20546F6F206C61746520746F2063616E6365 PUSH1 0x44 DUP3 ADD MSTORE PUSH22 0x6C2C2075736520657870697265206966207374616C65 PUSH1 0x50 SHL PUSH1 0x64 DUP3 ADD MSTORE PUSH1 0x84 SWAP1 REVERT JUMPDEST PUSH4 0x4E487B71 PUSH1 0xE0 SHL DUP8 MSTORE PUSH1 0x21 DUP3 MSTORE PUSH1 0x24 DUP8 REVERT JUMPDEST DUP3 MLOAD PUSH3 0x461BCD PUSH1 0xE5 SHL DUP2 MSTORE SWAP1 DUP2 ADD DUP5 SWAP1 MSTORE PUSH1 0x28 PUSH1 0x24 DUP3 ADD MSTORE PUSH32 0x54696D654C6F636B4167656E743A2043616C6C6572206973206E6F7420746865 PUSH1 0x44 DUP3 ADD MSTORE PUSH8 0x1031B932B0BA37B9 PUSH1 0xC1 SHL PUSH1 0x64 DUP3 ADD MSTORE PUSH1 0x84 SWAP1 REVERT JUMPDEST POP CALLVALUE PUSH2 0x183 JUMPI DUP3 PUSH1 0x3 NOT CALLDATASIZE ADD SLT PUSH2 0x183 JUMPI PUSH2 0x89A PUSH2 0xD91 JUMP JUMPDEST PUSH1 0x1 SLOAD SWAP1 PUSH1 0xFF DUP3 AND ISZERO PUSH2 0x8DC JUMPI POP PUSH1 0xFF NOT AND PUSH1 0x1 SSTORE MLOAD CALLER DUP2 MSTORE PUSH32 0x5DB9EE0A495BF2E6FF9C91A7834C1BA4FDD244A5E8AA4E537BD38AEAE4B073AA SWAP1 PUSH1 0x20 SWAP1 LOG1 DUP1 RETURN JUMPDEST DUP3 MLOAD PUSH4 0x8DFC202B PUSH1 0xE0 SHL DUP2 MSTORE REVERT JUMPDEST POP POP CALLVALUE PUSH2 0x3C4 JUMPI DUP1 PUSH1 0x3 NOT CALLDATASIZE ADD SLT PUSH2 0x3C4 JUMPI PUSH2 0x904 PUSH2 0xD76 JUMP JUMPDEST PUSH1 0x24 CALLDATALOAD SWAP1 DUP2 ISZERO ISZERO DUP1 SWAP3 SUB PUSH2 0x382 JUMPI PUSH32 0x9FDBC2D48B8A0DB2F62663BF9312AD02F5B1F6414AD600B55A247D09AEEC3EA2 SWAP2 PUSH1 0x20 SWAP2 PUSH2 0x93F PUSH2 0xD91 JUMP JUMPDEST PUSH1 0x1 PUSH1 0x1 PUSH1 0xA0 SHL SUB AND DUP1 DUP7 MSTORE PUSH1 0x5 DUP4 MSTORE DUP5 DUP7 KECCAK256 DUP1 SLOAD PUSH1 0xFF NOT AND PUSH1 0xFF DUP5 AND OR SWAP1 SSTORE SWAP4 MLOAD SWAP1 DUP2 MSTORE LOG2 DUP1 RETURN JUMPDEST POP POP CALLVALUE PUSH2 0x3C4 JUMPI DUP2 PUSH1 0x3 NOT CALLDATASIZE ADD SLT PUSH2 0x3C4 JUMPI PUSH1 0x20 SWAP1 PUSH1 0x2 SLOAD SWAP1 MLOAD SWAP1 DUP2 MSTORE RETURN JUMPDEST POP SWAP1 DUP1 PUSH1 0x3 NOT CALLDATASIZE ADD SLT PUSH2 0x183 JUMPI PUSH2 0x99C PUSH2 0xD76 JUMP JUMPDEST SWAP3 PUSH1 0x24 DUP1 CALLDATALOAD SWAP1 PUSH2 0x9AA PUSH2 0xDE5 JUMP JUMPDEST CALLVALUE ISZERO PUSH2 0xB89 JUMPI PUSH1 0x1 PUSH1 0x1 PUSH1 0xA0 SHL SUB SWAP6 DUP7 AND SWAP3 DUP4 ISZERO PUSH2 0xB47 JUMPI TIMESTAMP DUP4 GT ISZERO PUSH2 0xAF0 JUMPI PUSH1 0x2 SLOAD SWAP6 PUSH2 0x9D7 DUP8 PUSH2 0xDC0 JUMP JUMPDEST PUSH1 0x2 SSTORE DUP6 MLOAD SWAP3 PUSH1 0xE0 DUP5 ADD DUP5 DUP2 LT PUSH8 0xFFFFFFFFFFFFFFFF DUP3 GT OR PUSH2 0xADE JUMPI DUP8 MSTORE DUP8 DUP5 MSTORE PUSH1 0x20 DUP5 ADD SWAP3 CALLER DUP5 MSTORE DUP8 DUP6 ADD DUP8 DUP2 MSTORE PUSH1 0x60 DUP7 ADD CALLVALUE DUP2 MSTORE PUSH1 0x80 DUP8 ADD SWAP2 DUP9 DUP4 MSTORE PUSH1 0xA0 DUP9 ADD SWAP7 DUP5 DUP9 MSTORE PUSH1 0xC0 DUP10 ADD SWAP14 DUP15 TIMESTAMP SWAP1 MSTORE DUP14 DUP7 MSTORE DUP8 PUSH1 0x20 MSTORE DUP13 DUP7 KECCAK256 SWAP10 MLOAD DUP11 SSTORE DUP1 PUSH1 0x1 DUP12 ADD SWAP3 MLOAD AND SWAP2 PUSH12 0xFFFFFFFFFFFFFFFFFFFFFFFF PUSH1 0xA0 SHL SWAP3 DUP4 DUP3 SLOAD AND OR SWAP1 SSTORE PUSH1 0x2 DUP11 ADD SWAP3 MLOAD AND SWAP1 DUP3 SLOAD AND OR SWAP1 SSTORE MLOAD PUSH1 0x3 DUP8 ADD SSTORE MLOAD DUP4 DUP7 ADD SSTORE PUSH1 0x5 DUP6 ADD SWAP4 MLOAD SWAP3 DUP1 DUP5 LT ISZERO PUSH2 0xACE JUMPI POP POP POP SWAP7 PUSH1 0x6 SWAP2 PUSH1 0x20 SWAP9 PUSH1 0xFF DUP1 NOT DUP4 SLOAD AND SWAP2 AND OR SWAP1 SSTORE MLOAD SWAP2 ADD SSTORE DUP3 MLOAD SWAP1 CALLVALUE DUP3 MSTORE DUP6 DUP3 ADD MSTORE DUP4 PUSH32 0xAC460BC36B8940A1F439F8582126BCE906841B8A1496A9374B63CD95B3D03360 DUP5 CALLER SWAP4 LOG4 MLOAD SWAP1 DUP2 MSTORE RETURN JUMPDEST PUSH4 0x4E487B71 PUSH1 0xE0 SHL DUP3 MSTORE PUSH1 0x21 SWAP1 MSTORE REVERT JUMPDEST POP PUSH4 0x4E487B71 PUSH1 0xE0 SHL DUP4 MSTORE PUSH1 0x41 DUP3 MSTORE DUP3 REVERT JUMPDEST DUP5 MLOAD PUSH3 0x461BCD PUSH1 0xE5 SHL DUP2 MSTORE PUSH1 0x20 DUP2 DUP9 ADD MSTORE PUSH1 0x2C DUP2 DUP5 ADD MSTORE PUSH32 0x54696D654C6F636B4167656E743A20556E6C6F636B2074696D65206D75737420 PUSH1 0x44 DUP3 ADD MSTORE PUSH12 0x626520696E20667574757265 PUSH1 0xA0 SHL PUSH1 0x64 DUP3 ADD MSTORE PUSH1 0x84 SWAP1 REVERT JUMPDEST DUP5 MLOAD PUSH3 0x461BCD PUSH1 0xE5 SHL DUP2 MSTORE PUSH1 0x20 DUP2 DUP9 ADD DUP2 SWAP1 MSTORE DUP2 DUP5 ADD MSTORE PUSH32 0x54696D654C6F636B4167656E743A20496E76616C696420726563697069656E74 PUSH1 0x44 DUP3 ADD MSTORE PUSH1 0x64 SWAP1 REVERT JUMPDEST DUP5 PUSH1 0x2C PUSH1 0x84 SWAP3 PUSH1 0x20 DUP8 MLOAD SWAP4 PUSH3 0x461BCD PUSH1 0xE5 SHL DUP6 MSTORE DUP5 ADD MSTORE DUP3 ADD MSTORE PUSH32 0x54696D654C6F636B4167656E743A20416D6F756E74206D757374206265206772 PUSH1 0x44 DUP3 ADD MSTORE PUSH12 0x6561746572207468616E203 PUSH1 0xA4 SHL PUSH1 0x64 DUP3 ADD MSTORE REVERT JUMPDEST POP SWAP1 CALLVALUE PUSH2 0x183 JUMPI PUSH1 0x20 DUP1 PUSH1 0x3 NOT CALLDATASIZE ADD SLT PUSH2 0x382 JUMPI DUP3 CALLDATALOAD PUSH8 0xFFFFFFFFFFFFFFFF SWAP3 DUP4 DUP3 GT PUSH2 0xD72 JUMPI CALLDATASIZE PUSH1 0x23 DUP4 ADD SLT ISZERO PUSH2 0xD72 JUMPI DUP2 DUP6 ADD CALLDATALOAD SWAP4 DUP5 GT PUSH2 0xD72 JUMPI PUSH1 0x24 SWAP5 PUSH1 0x5 CALLDATASIZE DUP8 DUP8 DUP4 SHL DUP7 ADD ADD GT PUSH2 0xD6E JUMPI PUSH2 0xC37 PUSH2 0xF68 JUMP JUMPDEST PUSH2 0xC3F PUSH2 0xDE5 JUMP JUMPDEST CALLER DUP9 MSTORE DUP1 DUP6 MSTORE PUSH1 0xFF SWAP4 DUP5 DUP5 DUP11 KECCAK256 SLOAD AND DUP1 ISZERO PUSH2 0xD54 JUMPI JUMPDEST PUSH2 0xC5E SWAP1 PUSH2 0xE03 JUMP JUMPDEST DUP9 JUMPDEST DUP8 DUP2 LT PUSH2 0xC6F JUMPI DUP10 PUSH1 0x1 DUP2 SSTORE DUP1 RETURN JUMPDEST DUP9 DUP2 DUP5 SHL DUP4 ADD ADD CALLDATALOAD DUP1 DUP12 MSTORE DUP5 DUP9 MSTORE DUP6 DUP12 KECCAK256 PUSH1 0x6 DUP2 ADD SLOAD ISZERO DUP1 ISZERO PUSH2 0xD2C JUMPI JUMPDEST PUSH2 0xD09 SWAP4 SWAP3 SWAP2 SWAP1 DUP1 ISZERO PUSH2 0xD20 JUMPI JUMPDEST PUSH2 0xD19 JUMPI DUP6 DUP2 ADD SWAP1 DUP14 DUP1 DUP1 DUP1 PUSH1 0xFF NOT SWAP5 PUSH1 0x1 DUP7 DUP9 SLOAD AND OR DUP8 SSTORE PUSH1 0x3 PUSH1 0x1 DUP1 PUSH1 0xA0 SHL SUB PUSH1 0x2 DUP4 ADD SLOAD AND SWAP2 ADD SLOAD SWAP1 GAS CALL PUSH2 0xCD1 PUSH2 0xF07 JUMP JUMPDEST POP ISZERO PUSH2 0xD0E JUMPI POP POP DUP7 MLOAD SWAP1 TIMESTAMP DUP3 MSTORE PUSH32 0x933B5D399A2CB8171A93E83D7B26F016DC6DB708B3424CFBC84A04354F7A217A DUP11 CALLER SWAP4 LOG3 PUSH2 0xDC0 JUMP JUMPDEST PUSH2 0xC60 JUMP JUMPDEST DUP2 SLOAD AND SWAP1 SSTORE POP PUSH2 0xDC0 JUMP JUMPDEST POP POP PUSH2 0xDC0 JUMP JUMPDEST POP DUP7 DUP2 ADD SLOAD TIMESTAMP LT PUSH2 0xC9B JUMP JUMPDEST POP DUP8 DUP6 DUP3 ADD SLOAD AND DUP7 DUP2 LT ISZERO PUSH2 0xD42 JUMPI ISZERO ISZERO PUSH2 0xC8D JUMP JUMPDEST PUSH4 0x4E487B71 PUSH1 0xE0 SHL DUP14 MSTORE PUSH1 0x21 DUP8 MSTORE DUP12 DUP14 REVERT JUMPDEST POP PUSH1 0x1 SLOAD CALLER PUSH1 0x8 SWAP2 SWAP1 SWAP2 SHR PUSH1 0x1 PUSH1 0x1 PUSH1 0xA0 SHL SUB AND EQ PUSH2 0xC55 JUMP JUMPDEST DUP8 DUP1 REVERT JUMPDEST DUP6 DUP1 REVERT JUMPDEST PUSH1 0x4 CALLDATALOAD SWAP1 PUSH1 0x1 PUSH1 0x1 PUSH1 0xA0 SHL SUB DUP3 AND DUP3 SUB PUSH2 0xD8C JUMPI JUMP JUMPDEST PUSH1 0x0 DUP1 REVERT JUMPDEST PUSH1 0x1 SLOAD PUSH1 0x8 SHR PUSH1 0x1 PUSH1 0x1 PUSH1 0xA0 SHL SUB AND CALLER SUB PUSH2 0xDA8 JUMPI JUMP JUMPDEST PUSH1 0x40 MLOAD PUSH4 0x118CDAA7 PUSH1 0xE0 SHL DUP2 MSTORE CALLER PUSH1 0x4 DUP3 ADD MSTORE PUSH1 0x24 SWAP1 REVERT JUMPDEST PUSH1 0x0 NOT DUP2 EQ PUSH2 0xDCF JUMPI PUSH1 0x1 ADD SWAP1 JUMP JUMPDEST PUSH4 0x4E487B71 PUSH1 0xE0 SHL PUSH1 0x0 MSTORE PUSH1 0x11 PUSH1 0x4 MSTORE PUSH1 0x24 PUSH1 0x0 REVERT JUMPDEST PUSH1 0xFF PUSH1 0x1 SLOAD AND PUSH2 0xDF1 JUMPI JUMP JUMPDEST PUSH1 0x40 MLOAD PUSH4 0xD93C0665 PUSH1 0xE0 SHL DUP2 MSTORE PUSH1 0x4 SWAP1 REVERT JUMPDEST ISZERO PUSH2 0xE0A JUMPI JUMP JUMPDEST PUSH1 0x40 MLOAD PUSH3 0x461BCD PUSH1 0xE5 SHL DUP2 MSTORE PUSH1 0x20 PUSH1 0x4 DUP3 ADD MSTORE PUSH1 0x28 PUSH1 0x24 DUP3 ADD MSTORE PUSH32 0x54696D654C6F636B4167656E743A2043616C6C6572206973206E6F7420616E20 PUSH1 0x44 DUP3 ADD MSTORE PUSH8 0x32BC32B1BABA37B9 PUSH1 0xC1 SHL PUSH1 0x64 DUP3 ADD MSTORE PUSH1 0x84 SWAP1 REVERT JUMPDEST ISZERO PUSH2 0xE67 JUMPI JUMP JUMPDEST PUSH1 0x40 MLOAD PUSH3 0x461BCD PUSH1 0xE5 SHL DUP2 MSTORE PUSH1 0x20 PUSH1 0x4 DUP3 ADD MSTORE PUSH1 0x26 PUSH1 0x24 DUP3 ADD MSTORE PUSH32 0x54696D654C6F636B4167656E743A205472616E7366657220646F6573206E6F74 PUSH1 0x44 DUP3 ADD MSTORE PUSH6 0x8195E1A5CDD PUSH1 0xD2 SHL PUSH1 0x64 DUP3 ADD MSTORE PUSH1 0x84 SWAP1 REVERT JUMPDEST ISZERO PUSH2 0xEC2 JUMPI JUMP JUMPDEST PUSH1 0x40 MLOAD PUSH3 0x461BCD PUSH1 0xE5 SHL DUP2 MSTORE PUSH1 0x20 PUSH1 0x4 DUP3 ADD MSTORE PUSH1 0x1D PUSH1 0x24 DUP3 ADD MSTORE PUSH32 0x54696D654C6F636B4167656E743A20496E76616C696420737461747573000000 PUSH1 0x44 DUP3 ADD MSTORE PUSH1 0x64 SWAP1 REVERT JUMPDEST RETURNDATASIZE ISZERO PUSH2 0xF63 JUMPI PUSH8 0xFFFFFFFFFFFFFFFF SWAP1 RETURNDATASIZE DUP3 DUP2 GT PUSH2 0xF4D JUMPI PUSH1 0x40 MLOAD SWAP3 PUSH1 0x1F DUP3 ADD PUSH1 0x1F NOT SWAP1 DUP2 AND PUSH1 0x3F ADD AND DUP5 ADD SWAP1 DUP2 GT DUP5 DUP3 LT OR PUSH2 0xF4D JUMPI PUSH1 0x40 MSTORE DUP3 MSTORE RETURNDATASIZE PUSH1 0x0 PUSH1 0x20 DUP5 ADD RETURNDATACOPY JUMP JUMPDEST PUSH4 0x4E487B71 PUSH1 0xE0 SHL PUSH1 0x0 MSTORE PUSH1 0x41 PUSH1 0x4 MSTORE PUSH1 0x24 PUSH1 0x0 REVERT JUMPDEST PUSH1 0x60 SWAP1 JUMP JUMPDEST PUSH1 0x2 PUSH1 0x0 SLOAD EQ PUSH2 0xF79 JUMPI PUSH1 0x2 PUSH1 0x0 SSTORE JUMP JUMPDEST PUSH1 0x40 MLOAD PUSH4 0x3EE5AEB5 PUSH1 0xE0 SHL DUP2 MSTORE PUSH1 0x4 SWAP1 REVERT JUMPDEST ISZERO PUSH2 0xF92 JUMPI JUMP JUMPDEST PUSH1 0x40 MLOAD PUSH3 0x461BCD PUSH1 0xE5 SHL DUP2 MSTORE PUSH1 0x20 PUSH1 0x4 DUP3 ADD MSTORE PUSH1 0x1C PUSH1 0x24 DUP3 ADD MSTORE PUSH32 0x54696D654C6F636B4167656E743A20526566756E64206661696C656400000000 PUSH1 0x44 DUP3 ADD MSTORE PUSH1 0x64 SWAP1 REVERT INVALID LOG2 PUSH5 0x6970667358 0x22 SLT KECCAK256 SDIV MSTORE8 0xA9 SUB SAR ISZERO 0xC6 JUMPI PUSH4 0xB815C958 0xEB DUP14 POP PUSH31 0x71B5DB8F9856C11D32931328DDD79164736F6C634300081400330000000000 "},"methodIdentifiers":{"cancelTransfer(uint256)":"59caecb5","executeBatch(uint256[])":"0265d993","executeTransfer(uint256)":"f05d5752","expireTransfer(uint256)":"902cd164","gracePeriod()":"a06db7dc","isExecutor(address)":"debfda30","nextScheduleId()":"0f038d41","owner()":"8da5cb5b","pause()":"8456cb59","paused()":"5c975abb","renounceOwnership()":"715018a6","scheduleTransferNative(address,uint256)":"0b628b0a","setExecutor(address,bool)":"1e1bff3f","setGracePeriod(uint256)":"f2f65960","transferOwnership(address)":"f2fde38b","transfers(uint256)":"9377d711","unpause()":"3f4ba83a"}}}}}