{"contracts/StorageRegistry.sol":{"StorageRegistry":{"abi":[{"inputs":[],"stateMutability":"nonpayable","type":"constructor"},{"inputs":[],"name":"EnforcedPause","type":"error"},{"inputs":[],"name":"ExpectedPause","type":"error"},{"inputs":[{"internalType":"address","name":"owner","type":"address"}],"name":"OwnableInvalidOwner","type":"error"},{"inputs":[{"internalType":"address","name":"account","type":"address"}],"name":"OwnableUnauthorizedAccount","type":"error"},{"anonymous":false,"inputs":[{"indexed":true,"internalType":"address","name":"executor","type":"address"},{"indexed":false,"internalType":"bool","name":"allowed","type":"bool"}],"name":"ExecutorUpdated","type":"event"},{"anonymous":false,"inputs":[{"indexed":true,"internalType":"bytes32","name":"nodeId","type":"bytes32"},{"indexed":false,"internalType":"uint256","name":"timestamp","type":"uint256"}],"name":"HeartbeatRecorded","type":"event"},{"anonymous":false,"inputs":[{"indexed":true,"internalType":"bytes32","name":"fileKey","type":"bytes32"},{"indexed":false,"internalType":"bytes32","name":"merkleRoot","type":"bytes32"},{"indexed":false,"internalType":"uint256","name":"timestamp","type":"uint256"}],"name":"MerkleRootRecorded","type":"event"},{"anonymous":false,"inputs":[{"indexed":true,"internalType":"bytes32","name":"nodeId","type":"bytes32"},{"indexed":true,"internalType":"address","name":"operator","type":"address"},{"indexed":false,"internalType":"uint256","name":"capacityGB","type":"uint256"},{"indexed":false,"internalType":"string","name":"nodeClass","type":"string"}],"name":"NodeRegistered","type":"event"},{"anonymous":false,"inputs":[{"indexed":true,"internalType":"bytes32","name":"nodeId","type":"bytes32"},{"indexed":false,"internalType":"enum StorageRegistry.NodeStatus","name":"status","type":"uint8"}],"name":"NodeStatusChanged","type":"event"},{"anonymous":false,"inputs":[{"indexed":true,"internalType":"bytes32","name":"nodeId","type":"bytes32"},{"indexed":false,"internalType":"uint256","name":"capacityGB","type":"uint256"},{"indexed":false,"internalType":"uint256","name":"usedGB","type":"uint256"}],"name":"NodeUpdated","type":"event"},{"anonymous":false,"inputs":[{"indexed":true,"internalType":"address","name":"previousOwner","type":"address"},{"indexed":true,"internalType":"address","name":"newOwner","type":"address"}],"name":"OwnershipTransferred","type":"event"},{"anonymous":false,"inputs":[{"indexed":false,"internalType":"address","name":"account","type":"address"}],"name":"Paused","type":"event"},{"anonymous":false,"inputs":[{"indexed":false,"internalType":"address","name":"account","type":"address"}],"name":"Unpaused","type":"event"},{"inputs":[{"internalType":"uint256","name":"","type":"uint256"}],"name":"allNodeIds","outputs":[{"internalType":"bytes32","name":"","type":"bytes32"}],"stateMutability":"view","type":"function"},{"inputs":[{"internalType":"bytes32","name":"","type":"bytes32"}],"name":"fileMerkleRoots","outputs":[{"internalType":"bytes32","name":"","type":"bytes32"}],"stateMutability":"view","type":"function"},{"inputs":[{"internalType":"bytes32","name":"","type":"bytes32"}],"name":"fileRegisteredAt","outputs":[{"internalType":"uint256","name":"","type":"uint256"}],"stateMutability":"view","type":"function"},{"inputs":[],"name":"getNetworkStats","outputs":[{"internalType":"uint256","name":"_totalNodes","type":"uint256"},{"internalType":"uint256","name":"_activeNodes","type":"uint256"},{"internalType":"uint256","name":"_totalCapacityGB","type":"uint256"},{"internalType":"uint256","name":"_totalUsedGB","type":"uint256"}],"stateMutability":"view","type":"function"},{"inputs":[{"internalType":"bytes32","name":"nodeId","type":"bytes32"}],"name":"getNode","outputs":[{"components":[{"internalType":"bytes32","name":"nodeId","type":"bytes32"},{"internalType":"address","name":"operator","type":"address"},{"internalType":"uint256","name":"capacityGB","type":"uint256"},{"internalType":"uint256","name":"usedGB","type":"uint256"},{"internalType":"string","name":"nodeClass","type":"string"},{"internalType":"uint256","name":"registeredAt","type":"uint256"},{"internalType":"uint256","name":"lastHeartbeat","type":"uint256"},{"internalType":"enum StorageRegistry.NodeStatus","name":"status","type":"uint8"},{"internalType":"uint256","name":"proofSuccessCount","type":"uint256"},{"internalType":"uint256","name":"proofFailCount","type":"uint256"}],"internalType":"struct StorageRegistry.NodeInfo","name":"","type":"tuple"}],"stateMutability":"view","type":"function"},{"inputs":[{"internalType":"address","name":"operator","type":"address"}],"name":"getOperatorNodes","outputs":[{"internalType":"bytes32[]","name":"","type":"bytes32[]"}],"stateMutability":"view","type":"function"},{"inputs":[],"name":"getTotalNodes","outputs":[{"internalType":"uint256","name":"","type":"uint256"}],"stateMutability":"view","type":"function"},{"inputs":[{"internalType":"address","name":"","type":"address"}],"name":"isExecutor","outputs":[{"internalType":"bool","name":"","type":"bool"}],"stateMutability":"view","type":"function"},{"inputs":[{"internalType":"bytes32","name":"","type":"bytes32"}],"name":"nodes","outputs":[{"internalType":"bytes32","name":"nodeId","type":"bytes32"},{"internalType":"address","name":"operator","type":"address"},{"internalType":"uint256","name":"capacityGB","type":"uint256"},{"internalType":"uint256","name":"usedGB","type":"uint256"},{"internalType":"string","name":"nodeClass","type":"string"},{"internalType":"uint256","name":"registeredAt","type":"uint256"},{"internalType":"uint256","name":"lastHeartbeat","type":"uint256"},{"internalType":"enum StorageRegistry.NodeStatus","name":"status","type":"uint8"},{"internalType":"uint256","name":"proofSuccessCount","type":"uint256"},{"internalType":"uint256","name":"proofFailCount","type":"uint256"}],"stateMutability":"view","type":"function"},{"inputs":[{"internalType":"address","name":"","type":"address"},{"internalType":"uint256","name":"","type":"uint256"}],"name":"operatorNodes","outputs":[{"internalType":"bytes32","name":"","type":"bytes32"}],"stateMutability":"view","type":"function"},{"inputs":[],"name":"owner","outputs":[{"internalType":"address","name":"","type":"address"}],"stateMutability":"view","type":"function"},{"inputs":[],"name":"pause","outputs":[],"stateMutability":"nonpayable","type":"function"},{"inputs":[],"name":"paused","outputs":[{"internalType":"bool","name":"","type":"bool"}],"stateMutability":"view","type":"function"},{"inputs":[{"internalType":"bytes32","name":"nodeId","type":"bytes32"}],"name":"recordHeartbeat","outputs":[],"stateMutability":"nonpayable","type":"function"},{"inputs":[{"internalType":"bytes32[]","name":"nodeIds","type":"bytes32[]"}],"name":"recordHeartbeatBatch","outputs":[],"stateMutability":"nonpayable","type":"function"},{"inputs":[{"internalType":"bytes32","name":"fileKey","type":"bytes32"},{"internalType":"bytes32","name":"merkleRoot","type":"bytes32"}],"name":"recordMerkleRoot","outputs":[],"stateMutability":"nonpayable","type":"function"},{"inputs":[{"internalType":"bytes32","name":"nodeId","type":"bytes32"},{"internalType":"bool","name":"passed","type":"bool"}],"name":"recordProofResult","outputs":[],"stateMutability":"nonpayable","type":"function"},{"inputs":[{"internalType":"bytes32","name":"nodeId","type":"bytes32"},{"internalType":"address","name":"operator","type":"address"},{"internalType":"uint256","name":"capacityGB","type":"uint256"},{"internalType":"string","name":"nodeClass","type":"string"}],"name":"registerNode","outputs":[],"stateMutability":"nonpayable","type":"function"},{"inputs":[],"name":"renounceOwnership","outputs":[],"stateMutability":"nonpayable","type":"function"},{"inputs":[{"internalType":"address","name":"executor","type":"address"},{"internalType":"bool","name":"allowed","type":"bool"}],"name":"setExecutor","outputs":[],"stateMutability":"nonpayable","type":"function"},{"inputs":[{"internalType":"bytes32","name":"nodeId","type":"bytes32"},{"internalType":"enum StorageRegistry.NodeStatus","name":"status","type":"uint8"}],"name":"setNodeStatus","outputs":[],"stateMutability":"nonpayable","type":"function"},{"inputs":[],"name":"totalActiveNodes","outputs":[{"internalType":"uint256","name":"","type":"uint256"}],"stateMutability":"view","type":"function"},{"inputs":[],"name":"totalCapacityGB","outputs":[{"internalType":"uint256","name":"","type":"uint256"}],"stateMutability":"view","type":"function"},{"inputs":[],"name":"totalUsedGB","outputs":[{"internalType":"uint256","name":"","type":"uint256"}],"stateMutability":"view","type":"function"},{"inputs":[{"internalType":"address","name":"newOwner","type":"address"}],"name":"transferOwnership","outputs":[],"stateMutability":"nonpayable","type":"function"},{"inputs":[],"name":"unpause","outputs":[],"stateMutability":"nonpayable","type":"function"},{"inputs":[{"internalType":"bytes32","name":"nodeId","type":"bytes32"},{"internalType":"uint256","name":"capacityGB","type":"uint256"},{"internalType":"uint256","name":"usedGB","type":"uint256"}],"name":"updateNode","outputs":[],"stateMutability":"nonpayable","type":"function"},{"inputs":[{"internalType":"bytes32","name":"fileKey","type":"bytes32"},{"internalType":"bytes32","name":"merkleRoot","type":"bytes32"}],"name":"verifyMerkleRoot","outputs":[{"internalType":"bool","name":"","type":"bool"}],"stateMutability":"view","type":"function"}],"evm":{"bytecode":{"linkReferences":{},"object":"6080806040523461009157331561007b5760008054336001600160a01b0319821681178355604080519390929091906001600160a01b03167f8be0079c531659141344cd1fd0a4f28419497f9722a3daafe3b4186f6b6457e08380a3338152600960205220805460ff1916600117905561166b90816100978239f35b631e4fbdf760e01b815260006004820152602490fd5b600080fdfe608080604052600436101561001357600080fd5b60003560e01c908162017c8b14611334575080630b2e956e1461125c5780631c0620f2146111cb5780631e1bff3f1461114e5780632e783190146110b55780632e7aab0f146110235780633f4ba83a14610fb157806349a5747714610f935780634a662f4814610f5c57806350c946fe14610dd757806354093cf614610db95780635432dd1c14610d8d5780635c975abb14610d6757806363584ecd14610d4957806365c1a0cf14610d1d578063715018a614610cc45780638456cb5914610c625780638da5cb5b14610c395780639b070b0014610be1578063a583497114610b90578063ad23bc401461064a578063b97910b514610596578063d3e1555514610417578063d86e697d1461035b578063debd6de01461033d578063debfda30146102fe578063e61ced22146101e55763f2fde38b1461015257600080fd5b346101e05760203660031901126101e05761016b61136e565b610173611517565b6001600160a01b039081169081156101c757600054826bffffffffffffffffffffffff60a01b821617600055167f8be0079c531659141344cd1fd0a4f28419497f9722a3daafe3b4186f6b6457e0600080a3005b604051631e4fbdf760e01b815260006004820152602490fd5b600080fd5b346101e0576020806003193601126101e05760043567ffffffffffffffff918282116101e057366023830112156101e05781600401359283116101e057602482016005926024369186861b0101116101e057336000526009825260ff6040600020541680156102ea575b61025890611543565b60005b84811061026457005b8061027361028f928785611625565b3560005260018085528560406000200154610294575b506115a6565b61025b565b61029f828886611625565b356000528452426006604060002001556102ba818785611625565b357f3e919d2e1b69ffff4c4ec7b0f8a8458457ebe560ad9214995260087505d89e4c85604051428152a286610289565b506000546001600160a01b0316331461024f565b346101e05760203660031901126101e0576001600160a01b0361031f61136e565b166000526009602052602060ff604060002054166040519015158152f35b346101e05760003660031901126101e0576020600554604051908152f35b346101e05760203660031901126101e05760043560005260016020526040600020805460018060a01b036001830154169160028101546003820154916104076103a660048301611471565b936005830154946103f260068501549160ff6007870154169360096008880154970154976040519b8c9b8c5260208c015260408b015260608a01526101408060808b0152890190611393565b9560a088015260c087015260e08601906113d3565b6101008401526101208301520390f35b346101e05760403660031901126101e0576004356024356003811015806101e05733600052600960205260ff604060002054168015610582575b61045a90611543565b82600052600160205260076040600020610479600582015415156115d6565b019060ff825416600381101561055d576001148080610573575b15610500575050906006549081156104ea576104da817f381f15a13568b94a36e74ecd7332ed11744e62047d2685807734c29b3d6c1b7e9460209460001901600655611581565b6104e760405180926113d3565ba2005b634e487b7160e01b600052601160045260246000fd5b15908161054b575b50916104da816020937f381f15a13568b94a36e74ecd7332ed11744e62047d2685807734c29b3d6c1b7e9515611581576105436006546115a6565b600655611581565b905061055d57600182146104da610508565b634e487b7160e01b600052602160045260246000fd5b50600091506001841415610493565b506000546001600160a01b03163314610451565b346101e0576020806003193601126101e0576001600160a01b036105b861136e565b1660005260028152604060002060405190818382549182815201908192600052846000209060005b868282106106365786866105f68288038361144f565b604051928392818401908285525180915260408401929160005b82811061061f57505050500390f35b835185528695509381019392810192600101610610565b8354855290930192600192830192016105e0565b346101e05760803660031901126101e0576024356001600160a01b03811681036101e05767ffffffffffffffff606435116101e0573660236064350112156101e05767ffffffffffffffff60643560040135116101e057366024606435600401356064350101116101e05733600052600960205260ff604060002054168015610b7c575b6106d790611543565b6106df6115b5565b6004356000526001602052600560406000200154610b37576001600160a01b03811615610aff5760443515610ac3576040519061071b82611432565b600435825260018060a01b038116602083015260443560408301526000606083015260405161075a6020601f19601f606435600401350116018261144f565b606435600481013580835290602401602083013760006020606435600401358301015260808301524260a08301524260c0830152600160e08301526000610100830152600061012083015260043560005260016020526040600020825181556001810160018060a01b036020850151166bffffffffffffffffffffffff60a01b8254161790556040830151600282015560608301516003820155608083015192835167ffffffffffffffff81116109ec5761081860048401546113f8565b601f8111610a7c575b506020601f8211600114610a0d578192939495600092610a02575b50508160011b916000199060031b1c19161760048301555b60a0810151600583015560c0810151600683015560e0810151600381101561055d576009916108896101209260078601611581565b610100810151600885015501519101556001600160a01b03811660009081526002602052604090208054680100000000000000009190828110156109ec576108d6916001820181556113e0565b81549060031b90600435821b91600019901b1916179055600354908110156109ec5760018101806003558110156109d6576003600052600435907fc2575a0e9e593c00f959f8c92f12db2869c3395a3b0502d05e2516446f71f85b0155610941604435600454611599565b60045561094f6006546115a6565b6006556040519060443582526040602083015260643560040135604083015260643560040135602460643501606084013760006060606435600401358401015260018060a01b0316907fb4f6fd92cd73fe9b81e87b8511cfd84227413f45c3e6754a46971b18bdca6ca160043591606081601f19601f6064356004013501168101030190a3005b634e487b7160e01b600052603260045260246000fd5b634e487b7160e01b600052604160045260246000fd5b01519050858061083c565b6004840160005260206000209060005b601f1984168110610a64575060019394959683601f19811610610a4b575b505050811b016004830155610854565b015160001960f88460031b161c19169055858080610a3b565b9091602060018192858b015181550193019101610a1d565b600484016000526020600020601f830160051c810160208410610abc575b601f830160051c82018110610ab0575050610821565b60008155600101610a9a565b5080610a9a565b60405162461bcd60e51b815260206004820152601460248201527304361706163697479206d757374206265203e20360641b6044820152606490fd5b60405162461bcd60e51b815260206004820152601060248201526f24b73b30b634b21037b832b930ba37b960811b6044820152606490fd5b60405162461bcd60e51b815260206004820152601760248201527f4e6f646520616c726561647920726567697374657265640000000000000000006044820152606490fd5b506000546001600160a01b031633146106ce565b346101e05760203660031901126101e0576004356003548110156101e05760209060036000527fc2575a0e9e593c00f959f8c92f12db2869c3395a3b0502d05e2516446f71f85b0154604051908152f35b346101e05760403660031901126101e057610bfa61136e565b6001600160a01b03166000908152600260205260409020805460243591908210156101e057602091610c2b916113e0565b90546040519160031b1c8152f35b346101e05760003660031901126101e0576000546040516001600160a01b039091168152602090f35b346101e05760003660031901126101e057610c7b611517565b610c836115b5565b6000805460ff60a01b1916600160a01b1790556040513381527f62e78cea01bee320cd4e420270b5ea74000d11b0c9f74754ebdbfc544b05a25890602090a1005b346101e05760003660031901126101e057610cdd611517565b600080546001600160a01b0319811682556001600160a01b03167f8be0079c531659141344cd1fd0a4f28419497f9722a3daafe3b4186f6b6457e08280a3005b346101e05760203660031901126101e05760043560005260086020526020604060002054604051908152f35b346101e05760003660031901126101e0576020600354604051908152f35b346101e05760003660031901126101e057602060ff60005460a01c166040519015158152f35b346101e05760203660031901126101e05760043560005260076020526020604060002054604051908152f35b346101e05760003660031901126101e0576020600454604051908152f35b346101e05760203660031901126101e0576000610120604051610df981611432565b828152826020820152826040820152826060820152606060808201528260a08201528260c08201528260e08201528261010082015201526004356000526001602052604060002060405190610e4d82611432565b8054825260018101546001600160a01b031660208301526002810154604083015260038101546060830152610e8460048201611471565b6080830152600581015460a0830152600681015460c083015260ff60078201541690600382101561055d5760099160e0840152600881015461010084015201546101208201526040518091602082528051602083015260018060a01b03602082015116604083015260408101516060830152606081015160808301526080810151610120610f20610140928360a0870152610160860190611393565b9260a081015160c086015260c081015160e0860152610f4860e08201516101008701906113d3565b610100810151828601520151908301520390f35b346101e05760003660031901126101e057608060035460065460045460055491604051938452602084015260408301526060820152f35b346101e05760003660031901126101e0576020600654604051908152f35b346101e05760003660031901126101e057610fca611517565b60005460ff8160a01c16156110115760ff60a01b19166000556040513381527f5db9ee0a495bf2e6ff9c91a7834c1ba4fdd244a5e8aa4e537bd38aeae4b073aa90602090a1005b604051638dfc202b60e01b8152600490fd5b346101e05760403660031901126101e05761103c611384565b33600052600960205260ff6040600020541680156110a1575b61105e90611543565b600435600052600160205260406000209061107e600583015415156115d6565b156110945760080161109081546115a6565b9055005b60090161109081546115a6565b506000546001600160a01b03163314611055565b346101e05760203660031901126101e05760043533600052600960205260ff60406000205416801561113a575b6110eb90611543565b8060005260016020526040600020611108600582015415156115d6565b6006429101557f3e919d2e1b69ffff4c4ec7b0f8a8458457ebe560ad9214995260087505d89e4c6020604051428152a2005b506000546001600160a01b031633146110e2565b346101e05760403660031901126101e05761116761136e565b7f9fdbc2d48b8a0db2f62663bf9312ad02f5b1f6414ad600b55a247d09aeec3ea26020611192611384565b9261119b611517565b60018060a01b031692836000526009825260406000209015159060ff1981541660ff8316179055604051908152a2005b346101e05760407ff98bf76e5e8e1baf7de3c584b950581cb7f5cea9c09de8213c1f2ec0aeae2bbd6111fc36611358565b92909233600052600960205260ff8260002054168015611248575b61122090611543565b83600052600760205280826000205560086020524282600020558151908152426020820152a2005b506000546001600160a01b03163314611217565b346101e05760603660031901126101e0576004357f965fbf96543825c74af432b57cf5645131a95bfe17bb67c1823a3c393876c494604060243560443533600052600960205260ff8360002054168015611320575b6112ba90611543565b84600052600160205280836000206112d7600582015415156115d6565b836004546112f4826112ef6002860193845490611618565b611599565b60045561130e846112ef6003600554960195865490611618565b600555555582519182526020820152a2005b506000546001600160a01b031633146112b1565b346101e05760209061134536611358565b9060005260078352604060002054148152f35b60409060031901126101e0576004359060243590565b600435906001600160a01b03821682036101e057565b6024359081151582036101e057565b919082519283825260005b8481106113bf575050826000602080949584010152601f8019910116010190565b60208183018101518483018201520161139e565b90600382101561055d5752565b80548210156109d65760005260206000200190600090565b90600182811c92168015611428575b602083101461141257565b634e487b7160e01b600052602260045260246000fd5b91607f1691611407565b610140810190811067ffffffffffffffff8211176109ec57604052565b90601f8019910116810190811067ffffffffffffffff8211176109ec57604052565b9060405191826000825492611485846113f8565b9081845260019485811690816000146114f457506001146114b1575b50506114af9250038361144f565b565b9093915060005260209081600020936000915b8183106114dc5750506114af935082010138806114a1565b855488840185015294850194879450918301916114c4565b9150506114af94506020925060ff191682840152151560051b82010138806114a1565b6000546001600160a01b0316330361152b57565b60405163118cdaa760e01b8152336004820152602490fd5b1561154a57565b60405162461bcd60e51b815260206004820152600f60248201526e2737ba1030b71032bc32b1baba37b960891b6044820152606490fd5b90600381101561055d5760ff80198354169116179055565b919082018092116104ea57565b60001981146104ea5760010190565b60ff60005460a01c166115c457565b60405163d93c066560e01b8152600490fd5b156115dd57565b60405162461bcd60e51b8152602060048201526013602482015272139bd919481b9bdd081c9959da5cdd195c9959606a1b6044820152606490fd5b919082039182116104ea57565b91908110156109d65760051b019056fea264697066735822122018794b6d6c6ee1ee31dcf39b130e5f11bce0f3c87170c2669a1f0dc847c5dd1664736f6c63430008140033","opcodes":"PUSH1 0x80 DUP1 PUSH1 0x40 MSTORE CALLVALUE PUSH2 0x91 JUMPI CALLER ISZERO PUSH2 0x7B JUMPI PUSH1 0x0 DUP1 SLOAD CALLER PUSH1 0x1 PUSH1 0x1 PUSH1 0xA0 SHL SUB NOT DUP3 AND DUP2 OR DUP4 SSTORE PUSH1 0x40 DUP1 MLOAD SWAP4 SWAP1 SWAP3 SWAP1 SWAP2 SWAP1 PUSH1 0x1 PUSH1 0x1 PUSH1 0xA0 SHL SUB AND PUSH32 0x8BE0079C531659141344CD1FD0A4F28419497F9722A3DAAFE3B4186F6B6457E0 DUP4 DUP1 LOG3 CALLER DUP2 MSTORE PUSH1 0x9 PUSH1 0x20 MSTORE KECCAK256 DUP1 SLOAD PUSH1 0xFF NOT AND PUSH1 0x1 OR SWAP1 SSTORE PUSH2 0x166B SWAP1 DUP2 PUSH2 0x97 DUP3 CODECOPY RETURN JUMPDEST PUSH4 0x1E4FBDF7 PUSH1 0xE0 SHL DUP2 MSTORE PUSH1 0x0 PUSH1 0x4 DUP3 ADD MSTORE PUSH1 0x24 SWAP1 REVERT JUMPDEST PUSH1 0x0 DUP1 REVERT INVALID PUSH1 0x80 DUP1 PUSH1 0x40 MSTORE PUSH1 0x4 CALLDATASIZE LT ISZERO PUSH2 0x13 JUMPI PUSH1 0x0 DUP1 REVERT JUMPDEST PUSH1 0x0 CALLDATALOAD PUSH1 0xE0 SHR SWAP1 DUP2 PUSH3 0x17C8B EQ PUSH2 0x1334 JUMPI POP DUP1 PUSH4 0xB2E956E EQ PUSH2 0x125C JUMPI DUP1 PUSH4 0x1C0620F2 EQ PUSH2 0x11CB JUMPI DUP1 PUSH4 0x1E1BFF3F EQ PUSH2 0x114E JUMPI DUP1 PUSH4 0x2E783190 EQ PUSH2 0x10B5 JUMPI DUP1 PUSH4 0x2E7AAB0F EQ PUSH2 0x1023 JUMPI DUP1 PUSH4 0x3F4BA83A EQ PUSH2 0xFB1 JUMPI DUP1 PUSH4 0x49A57477 EQ PUSH2 0xF93 JUMPI DUP1 PUSH4 0x4A662F48 EQ PUSH2 0xF5C JUMPI DUP1 PUSH4 0x50C946FE EQ PUSH2 0xDD7 JUMPI DUP1 PUSH4 0x54093CF6 EQ PUSH2 0xDB9 JUMPI DUP1 PUSH4 0x5432DD1C EQ PUSH2 0xD8D JUMPI DUP1 PUSH4 0x5C975ABB EQ PUSH2 0xD67 JUMPI DUP1 PUSH4 0x63584ECD EQ PUSH2 0xD49 JUMPI DUP1 PUSH4 0x65C1A0CF EQ PUSH2 0xD1D JUMPI DUP1 PUSH4 0x715018A6 EQ PUSH2 0xCC4 JUMPI DUP1 PUSH4 0x8456CB59 EQ PUSH2 0xC62 JUMPI DUP1 PUSH4 0x8DA5CB5B EQ PUSH2 0xC39 JUMPI DUP1 PUSH4 0x9B070B00 EQ PUSH2 0xBE1 JUMPI DUP1 PUSH4 0xA5834971 EQ PUSH2 0xB90 JUMPI DUP1 PUSH4 0xAD23BC40 EQ PUSH2 0x64A JUMPI DUP1 PUSH4 0xB97910B5 EQ PUSH2 0x596 JUMPI DUP1 PUSH4 0xD3E15555 EQ PUSH2 0x417 JUMPI DUP1 PUSH4 0xD86E697D EQ PUSH2 0x35B JUMPI DUP1 PUSH4 0xDEBD6DE0 EQ PUSH2 0x33D JUMPI DUP1 PUSH4 0xDEBFDA30 EQ PUSH2 0x2FE JUMPI DUP1 PUSH4 0xE61CED22 EQ PUSH2 0x1E5 JUMPI PUSH4 0xF2FDE38B EQ PUSH2 0x152 JUMPI PUSH1 0x0 DUP1 REVERT JUMPDEST CALLVALUE PUSH2 0x1E0 JUMPI PUSH1 0x20 CALLDATASIZE PUSH1 0x3 NOT ADD SLT PUSH2 0x1E0 JUMPI PUSH2 0x16B PUSH2 0x136E JUMP JUMPDEST PUSH2 0x173 PUSH2 0x1517 JUMP JUMPDEST PUSH1 0x1 PUSH1 0x1 PUSH1 0xA0 SHL SUB SWAP1 DUP2 AND SWAP1 DUP2 ISZERO PUSH2 0x1C7 JUMPI PUSH1 0x0 SLOAD DUP3 PUSH12 0xFFFFFFFFFFFFFFFFFFFFFFFF PUSH1 0xA0 SHL DUP3 AND OR PUSH1 0x0 SSTORE AND PUSH32 0x8BE0079C531659141344CD1FD0A4F28419497F9722A3DAAFE3B4186F6B6457E0 PUSH1 0x0 DUP1 LOG3 STOP JUMPDEST PUSH1 0x40 MLOAD PUSH4 0x1E4FBDF7 PUSH1 0xE0 SHL DUP2 MSTORE PUSH1 0x0 PUSH1 0x4 DUP3 ADD MSTORE PUSH1 0x24 SWAP1 REVERT JUMPDEST PUSH1 0x0 DUP1 REVERT JUMPDEST CALLVALUE PUSH2 0x1E0 JUMPI PUSH1 0x20 DUP1 PUSH1 0x3 NOT CALLDATASIZE ADD SLT PUSH2 0x1E0 JUMPI PUSH1 0x4 CALLDATALOAD PUSH8 0xFFFFFFFFFFFFFFFF SWAP2 DUP3 DUP3 GT PUSH2 0x1E0 JUMPI CALLDATASIZE PUSH1 0x23 DUP4 ADD SLT ISZERO PUSH2 0x1E0 JUMPI DUP2 PUSH1 0x4 ADD CALLDATALOAD SWAP3 DUP4 GT PUSH2 0x1E0 JUMPI PUSH1 0x24 DUP3 ADD PUSH1 0x5 SWAP3 PUSH1 0x24 CALLDATASIZE SWAP2 DUP7 DUP7 SHL ADD ADD GT PUSH2 0x1E0 JUMPI CALLER PUSH1 0x0 MSTORE PUSH1 0x9 DUP3 MSTORE PUSH1 0xFF PUSH1 0x40 PUSH1 0x0 KECCAK256 SLOAD AND DUP1 ISZERO PUSH2 0x2EA JUMPI JUMPDEST PUSH2 0x258 SWAP1 PUSH2 0x1543 JUMP JUMPDEST PUSH1 0x0 JUMPDEST DUP5 DUP2 LT PUSH2 0x264 JUMPI STOP JUMPDEST DUP1 PUSH2 0x273 PUSH2 0x28F SWAP3 DUP8 DUP6 PUSH2 0x1625 JUMP JUMPDEST CALLDATALOAD PUSH1 0x0 MSTORE PUSH1 0x1 DUP1 DUP6 MSTORE DUP6 PUSH1 0x40 PUSH1 0x0 KECCAK256 ADD SLOAD PUSH2 0x294 JUMPI JUMPDEST POP PUSH2 0x15A6 JUMP JUMPDEST PUSH2 0x25B JUMP JUMPDEST PUSH2 0x29F DUP3 DUP9 DUP7 PUSH2 0x1625 JUMP JUMPDEST CALLDATALOAD PUSH1 0x0 MSTORE DUP5 MSTORE TIMESTAMP PUSH1 0x6 PUSH1 0x40 PUSH1 0x0 KECCAK256 ADD SSTORE PUSH2 0x2BA DUP2 DUP8 DUP6 PUSH2 0x1625 JUMP JUMPDEST CALLDATALOAD PUSH32 0x3E919D2E1B69FFFF4C4EC7B0F8A8458457EBE560AD9214995260087505D89E4C DUP6 PUSH1 0x40 MLOAD TIMESTAMP DUP2 MSTORE LOG2 DUP7 PUSH2 0x289 JUMP JUMPDEST POP PUSH1 0x0 SLOAD PUSH1 0x1 PUSH1 0x1 PUSH1 0xA0 SHL SUB AND CALLER EQ PUSH2 0x24F JUMP JUMPDEST CALLVALUE PUSH2 0x1E0 JUMPI PUSH1 0x20 CALLDATASIZE PUSH1 0x3 NOT ADD SLT PUSH2 0x1E0 JUMPI PUSH1 0x1 PUSH1 0x1 PUSH1 0xA0 SHL SUB PUSH2 0x31F PUSH2 0x136E JUMP JUMPDEST AND PUSH1 0x0 MSTORE PUSH1 0x9 PUSH1 0x20 MSTORE PUSH1 0x20 PUSH1 0xFF PUSH1 0x40 PUSH1 0x0 KECCAK256 SLOAD AND PUSH1 0x40 MLOAD SWAP1 ISZERO ISZERO DUP2 MSTORE RETURN JUMPDEST CALLVALUE PUSH2 0x1E0 JUMPI PUSH1 0x0 CALLDATASIZE PUSH1 0x3 NOT ADD SLT PUSH2 0x1E0 JUMPI PUSH1 0x20 PUSH1 0x5 SLOAD PUSH1 0x40 MLOAD SWAP1 DUP2 MSTORE RETURN JUMPDEST CALLVALUE PUSH2 0x1E0 JUMPI PUSH1 0x20 CALLDATASIZE PUSH1 0x3 NOT ADD SLT PUSH2 0x1E0 JUMPI PUSH1 0x4 CALLDATALOAD PUSH1 0x0 MSTORE PUSH1 0x1 PUSH1 0x20 MSTORE PUSH1 0x40 PUSH1 0x0 KECCAK256 DUP1 SLOAD PUSH1 0x1 DUP1 PUSH1 0xA0 SHL SUB PUSH1 0x1 DUP4 ADD SLOAD AND SWAP2 PUSH1 0x2 DUP2 ADD SLOAD PUSH1 0x3 DUP3 ADD SLOAD SWAP2 PUSH2 0x407 PUSH2 0x3A6 PUSH1 0x4 DUP4 ADD PUSH2 0x1471 JUMP JUMPDEST SWAP4 PUSH1 0x5 DUP4 ADD SLOAD SWAP5 PUSH2 0x3F2 PUSH1 0x6 DUP6 ADD SLOAD SWAP2 PUSH1 0xFF PUSH1 0x7 DUP8 ADD SLOAD AND SWAP4 PUSH1 0x9 PUSH1 0x8 DUP9 ADD SLOAD SWAP8 ADD SLOAD SWAP8 PUSH1 0x40 MLOAD SWAP12 DUP13 SWAP12 DUP13 MSTORE PUSH1 0x20 DUP13 ADD MSTORE PUSH1 0x40 DUP12 ADD MSTORE PUSH1 0x60 DUP11 ADD MSTORE PUSH2 0x140 DUP1 PUSH1 0x80 DUP12 ADD MSTORE DUP10 ADD SWAP1 PUSH2 0x1393 JUMP JUMPDEST SWAP6 PUSH1 0xA0 DUP9 ADD MSTORE PUSH1 0xC0 DUP8 ADD MSTORE PUSH1 0xE0 DUP7 ADD SWAP1 PUSH2 0x13D3 JUMP JUMPDEST PUSH2 0x100 DUP5 ADD MSTORE PUSH2 0x120 DUP4 ADD MSTORE SUB SWAP1 RETURN JUMPDEST CALLVALUE PUSH2 0x1E0 JUMPI PUSH1 0x40 CALLDATASIZE PUSH1 0x3 NOT ADD SLT PUSH2 0x1E0 JUMPI PUSH1 0x4 CALLDATALOAD PUSH1 0x24 CALLDATALOAD PUSH1 0x3 DUP2 LT ISZERO DUP1 PUSH2 0x1E0 JUMPI CALLER PUSH1 0x0 MSTORE PUSH1 0x9 PUSH1 0x20 MSTORE PUSH1 0xFF PUSH1 0x40 PUSH1 0x0 KECCAK256 SLOAD AND DUP1 ISZERO PUSH2 0x582 JUMPI JUMPDEST PUSH2 0x45A SWAP1 PUSH2 0x1543 JUMP JUMPDEST DUP3 PUSH1 0x0 MSTORE PUSH1 0x1 PUSH1 0x20 MSTORE PUSH1 0x7 PUSH1 0x40 PUSH1 0x0 KECCAK256 PUSH2 0x479 PUSH1 0x5 DUP3 ADD SLOAD ISZERO ISZERO PUSH2 0x15D6 JUMP JUMPDEST ADD SWAP1 PUSH1 0xFF DUP3 SLOAD AND PUSH1 0x3 DUP2 LT ISZERO PUSH2 0x55D JUMPI PUSH1 0x1 EQ DUP1 DUP1 PUSH2 0x573 JUMPI JUMPDEST ISZERO PUSH2 0x500 JUMPI POP POP SWAP1 PUSH1 0x6 SLOAD SWAP1 DUP2 ISZERO PUSH2 0x4EA JUMPI PUSH2 0x4DA DUP2 PUSH32 0x381F15A13568B94A36E74ECD7332ED11744E62047D2685807734C29B3D6C1B7E SWAP5 PUSH1 0x20 SWAP5 PUSH1 0x0 NOT ADD PUSH1 0x6 SSTORE PUSH2 0x1581 JUMP JUMPDEST PUSH2 0x4E7 PUSH1 0x40 MLOAD DUP1 SWAP3 PUSH2 0x13D3 JUMP JUMPDEST LOG2 STOP JUMPDEST PUSH4 0x4E487B71 PUSH1 0xE0 SHL PUSH1 0x0 MSTORE PUSH1 0x11 PUSH1 0x4 MSTORE PUSH1 0x24 PUSH1 0x0 REVERT JUMPDEST ISZERO SWAP1 DUP2 PUSH2 0x54B JUMPI JUMPDEST POP SWAP2 PUSH2 0x4DA DUP2 PUSH1 0x20 SWAP4 PUSH32 0x381F15A13568B94A36E74ECD7332ED11744E62047D2685807734C29B3D6C1B7E SWAP6 ISZERO PUSH2 0x1581 JUMPI PUSH2 0x543 PUSH1 0x6 SLOAD PUSH2 0x15A6 JUMP JUMPDEST PUSH1 0x6 SSTORE PUSH2 0x1581 JUMP JUMPDEST SWAP1 POP PUSH2 0x55D JUMPI PUSH1 0x1 DUP3 EQ PUSH2 0x4DA PUSH2 0x508 JUMP JUMPDEST PUSH4 0x4E487B71 PUSH1 0xE0 SHL PUSH1 0x0 MSTORE PUSH1 0x21 PUSH1 0x4 MSTORE PUSH1 0x24 PUSH1 0x0 REVERT JUMPDEST POP PUSH1 0x0 SWAP2 POP PUSH1 0x1 DUP5 EQ ISZERO PUSH2 0x493 JUMP JUMPDEST POP PUSH1 0x0 SLOAD PUSH1 0x1 PUSH1 0x1 PUSH1 0xA0 SHL SUB AND CALLER EQ PUSH2 0x451 JUMP JUMPDEST CALLVALUE PUSH2 0x1E0 JUMPI PUSH1 0x20 DUP1 PUSH1 0x3 NOT CALLDATASIZE ADD SLT PUSH2 0x1E0 JUMPI PUSH1 0x1 PUSH1 0x1 PUSH1 0xA0 SHL SUB PUSH2 0x5B8 PUSH2 0x136E JUMP JUMPDEST AND PUSH1 0x0 MSTORE PUSH1 0x2 DUP2 MSTORE PUSH1 0x40 PUSH1 0x0 KECCAK256 PUSH1 0x40 MLOAD SWAP1 DUP2 DUP4 DUP3 SLOAD SWAP2 DUP3 DUP2 MSTORE ADD SWAP1 DUP2 SWAP3 PUSH1 0x0 MSTORE DUP5 PUSH1 0x0 KECCAK256 SWAP1 PUSH1 0x0 JUMPDEST DUP7 DUP3 DUP3 LT PUSH2 0x636 JUMPI DUP7 DUP7 PUSH2 0x5F6 DUP3 DUP9 SUB DUP4 PUSH2 0x144F JUMP JUMPDEST PUSH1 0x40 MLOAD SWAP3 DUP4 SWAP3 DUP2 DUP5 ADD SWAP1 DUP3 DUP6 MSTORE MLOAD DUP1 SWAP2 MSTORE PUSH1 0x40 DUP5 ADD SWAP3 SWAP2 PUSH1 0x0 JUMPDEST DUP3 DUP2 LT PUSH2 0x61F JUMPI POP POP POP POP SUB SWAP1 RETURN JUMPDEST DUP4 MLOAD DUP6 MSTORE DUP7 SWAP6 POP SWAP4 DUP2 ADD SWAP4 SWAP3 DUP2 ADD SWAP3 PUSH1 0x1 ADD PUSH2 0x610 JUMP JUMPDEST DUP4 SLOAD DUP6 MSTORE SWAP1 SWAP4 ADD SWAP3 PUSH1 0x1 SWAP3 DUP4 ADD SWAP3 ADD PUSH2 0x5E0 JUMP JUMPDEST CALLVALUE PUSH2 0x1E0 JUMPI PUSH1 0x80 CALLDATASIZE PUSH1 0x3 NOT ADD SLT PUSH2 0x1E0 JUMPI PUSH1 0x24 CALLDATALOAD PUSH1 0x1 PUSH1 0x1 PUSH1 0xA0 SHL SUB DUP2 AND DUP2 SUB PUSH2 0x1E0 JUMPI PUSH8 0xFFFFFFFFFFFFFFFF PUSH1 0x64 CALLDATALOAD GT PUSH2 0x1E0 JUMPI CALLDATASIZE PUSH1 0x23 PUSH1 0x64 CALLDATALOAD ADD SLT ISZERO PUSH2 0x1E0 JUMPI PUSH8 0xFFFFFFFFFFFFFFFF PUSH1 0x64 CALLDATALOAD PUSH1 0x4 ADD CALLDATALOAD GT PUSH2 0x1E0 JUMPI CALLDATASIZE PUSH1 0x24 PUSH1 0x64 CALLDATALOAD PUSH1 0x4 ADD CALLDATALOAD PUSH1 0x64 CALLDATALOAD ADD ADD GT PUSH2 0x1E0 JUMPI CALLER PUSH1 0x0 MSTORE PUSH1 0x9 PUSH1 0x20 MSTORE PUSH1 0xFF PUSH1 0x40 PUSH1 0x0 KECCAK256 SLOAD AND DUP1 ISZERO PUSH2 0xB7C JUMPI JUMPDEST PUSH2 0x6D7 SWAP1 PUSH2 0x1543 JUMP JUMPDEST PUSH2 0x6DF PUSH2 0x15B5 JUMP JUMPDEST PUSH1 0x4 CALLDATALOAD PUSH1 0x0 MSTORE PUSH1 0x1 PUSH1 0x20 MSTORE PUSH1 0x5 PUSH1 0x40 PUSH1 0x0 KECCAK256 ADD SLOAD PUSH2 0xB37 JUMPI PUSH1 0x1 PUSH1 0x1 PUSH1 0xA0 SHL SUB DUP2 AND ISZERO PUSH2 0xAFF JUMPI PUSH1 0x44 CALLDATALOAD ISZERO PUSH2 0xAC3 JUMPI PUSH1 0x40 MLOAD SWAP1 PUSH2 0x71B DUP3 PUSH2 0x1432 JUMP JUMPDEST PUSH1 0x4 CALLDATALOAD DUP3 MSTORE PUSH1 0x1 DUP1 PUSH1 0xA0 SHL SUB DUP2 AND PUSH1 0x20 DUP4 ADD MSTORE PUSH1 0x44 CALLDATALOAD PUSH1 0x40 DUP4 ADD MSTORE PUSH1 0x0 PUSH1 0x60 DUP4 ADD MSTORE PUSH1 0x40 MLOAD PUSH2 0x75A PUSH1 0x20 PUSH1 0x1F NOT PUSH1 0x1F PUSH1 0x64 CALLDATALOAD PUSH1 0x4 ADD CALLDATALOAD ADD AND ADD DUP3 PUSH2 0x144F JUMP JUMPDEST PUSH1 0x64 CALLDATALOAD PUSH1 0x4 DUP2 ADD CALLDATALOAD DUP1 DUP4 MSTORE SWAP1 PUSH1 0x24 ADD PUSH1 0x20 DUP4 ADD CALLDATACOPY PUSH1 0x0 PUSH1 0x20 PUSH1 0x64 CALLDATALOAD PUSH1 0x4 ADD CALLDATALOAD DUP4 ADD ADD MSTORE PUSH1 0x80 DUP4 ADD MSTORE TIMESTAMP PUSH1 0xA0 DUP4 ADD MSTORE TIMESTAMP PUSH1 0xC0 DUP4 ADD MSTORE PUSH1 0x1 PUSH1 0xE0 DUP4 ADD MSTORE PUSH1 0x0 PUSH2 0x100 DUP4 ADD MSTORE PUSH1 0x0 PUSH2 0x120 DUP4 ADD MSTORE PUSH1 0x4 CALLDATALOAD PUSH1 0x0 MSTORE PUSH1 0x1 PUSH1 0x20 MSTORE PUSH1 0x40 PUSH1 0x0 KECCAK256 DUP3 MLOAD DUP2 SSTORE PUSH1 0x1 DUP2 ADD PUSH1 0x1 DUP1 PUSH1 0xA0 SHL SUB PUSH1 0x20 DUP6 ADD MLOAD AND PUSH12 0xFFFFFFFFFFFFFFFFFFFFFFFF PUSH1 0xA0 SHL DUP3 SLOAD AND OR SWAP1 SSTORE PUSH1 0x40 DUP4 ADD MLOAD PUSH1 0x2 DUP3 ADD SSTORE PUSH1 0x60 DUP4 ADD MLOAD PUSH1 0x3 DUP3 ADD SSTORE PUSH1 0x80 DUP4 ADD MLOAD SWAP3 DUP4 MLOAD PUSH8 0xFFFFFFFFFFFFFFFF DUP2 GT PUSH2 0x9EC JUMPI PUSH2 0x818 PUSH1 0x4 DUP5 ADD SLOAD PUSH2 0x13F8 JUMP JUMPDEST PUSH1 0x1F DUP2 GT PUSH2 0xA7C JUMPI JUMPDEST POP PUSH1 0x20 PUSH1 0x1F DUP3 GT PUSH1 0x1 EQ PUSH2 0xA0D JUMPI DUP2 SWAP3 SWAP4 SWAP5 SWAP6 PUSH1 0x0 SWAP3 PUSH2 0xA02 JUMPI JUMPDEST POP POP DUP2 PUSH1 0x1 SHL SWAP2 PUSH1 0x0 NOT SWAP1 PUSH1 0x3 SHL SHR NOT AND OR PUSH1 0x4 DUP4 ADD SSTORE JUMPDEST PUSH1 0xA0 DUP2 ADD MLOAD PUSH1 0x5 DUP4 ADD SSTORE PUSH1 0xC0 DUP2 ADD MLOAD PUSH1 0x6 DUP4 ADD SSTORE PUSH1 0xE0 DUP2 ADD MLOAD PUSH1 0x3 DUP2 LT ISZERO PUSH2 0x55D JUMPI PUSH1 0x9 SWAP2 PUSH2 0x889 PUSH2 0x120 SWAP3 PUSH1 0x7 DUP7 ADD PUSH2 0x1581 JUMP JUMPDEST PUSH2 0x100 DUP2 ADD MLOAD PUSH1 0x8 DUP6 ADD SSTORE ADD MLOAD SWAP2 ADD SSTORE PUSH1 0x1 PUSH1 0x1 PUSH1 0xA0 SHL SUB DUP2 AND PUSH1 0x0 SWAP1 DUP2 MSTORE PUSH1 0x2 PUSH1 0x20 MSTORE PUSH1 0x40 SWAP1 KECCAK256 DUP1 SLOAD PUSH9 0x10000000000000000 SWAP2 SWAP1 DUP3 DUP2 LT ISZERO PUSH2 0x9EC JUMPI PUSH2 0x8D6 SWAP2 PUSH1 0x1 DUP3 ADD DUP2 SSTORE PUSH2 0x13E0 JUMP JUMPDEST DUP2 SLOAD SWAP1 PUSH1 0x3 SHL SWAP1 PUSH1 0x4 CALLDATALOAD DUP3 SHL SWAP2 PUSH1 0x0 NOT SWAP1 SHL NOT AND OR SWAP1 SSTORE PUSH1 0x3 SLOAD SWAP1 DUP2 LT ISZERO PUSH2 0x9EC JUMPI PUSH1 0x1 DUP2 ADD DUP1 PUSH1 0x3 SSTORE DUP2 LT ISZERO PUSH2 0x9D6 JUMPI PUSH1 0x3 PUSH1 0x0 MSTORE PUSH1 0x4 CALLDATALOAD SWAP1 PUSH32 0xC2575A0E9E593C00F959F8C92F12DB2869C3395A3B0502D05E2516446F71F85B ADD SSTORE PUSH2 0x941 PUSH1 0x44 CALLDATALOAD PUSH1 0x4 SLOAD PUSH2 0x1599 JUMP JUMPDEST PUSH1 0x4 SSTORE PUSH2 0x94F PUSH1 0x6 SLOAD PUSH2 0x15A6 JUMP JUMPDEST PUSH1 0x6 SSTORE PUSH1 0x40 MLOAD SWAP1 PUSH1 0x44 CALLDATALOAD DUP3 MSTORE PUSH1 0x40 PUSH1 0x20 DUP4 ADD MSTORE PUSH1 0x64 CALLDATALOAD PUSH1 0x4 ADD CALLDATALOAD PUSH1 0x40 DUP4 ADD MSTORE PUSH1 0x64 CALLDATALOAD PUSH1 0x4 ADD CALLDATALOAD PUSH1 0x24 PUSH1 0x64 CALLDATALOAD ADD PUSH1 0x60 DUP5 ADD CALLDATACOPY PUSH1 0x0 PUSH1 0x60 PUSH1 0x64 CALLDATALOAD PUSH1 0x4 ADD CALLDATALOAD DUP5 ADD ADD MSTORE PUSH1 0x1 DUP1 PUSH1 0xA0 SHL SUB AND SWAP1 PUSH32 0xB4F6FD92CD73FE9B81E87B8511CFD84227413F45C3E6754A46971B18BDCA6CA1 PUSH1 0x4 CALLDATALOAD SWAP2 PUSH1 0x60 DUP2 PUSH1 0x1F NOT PUSH1 0x1F PUSH1 0x64 CALLDATALOAD PUSH1 0x4 ADD CALLDATALOAD ADD AND DUP2 ADD SUB ADD SWAP1 LOG3 STOP JUMPDEST PUSH4 0x4E487B71 PUSH1 0xE0 SHL PUSH1 0x0 MSTORE PUSH1 0x32 PUSH1 0x4 MSTORE PUSH1 0x24 PUSH1 0x0 REVERT JUMPDEST PUSH4 0x4E487B71 PUSH1 0xE0 SHL PUSH1 0x0 MSTORE PUSH1 0x41 PUSH1 0x4 MSTORE PUSH1 0x24 PUSH1 0x0 REVERT JUMPDEST ADD MLOAD SWAP1 POP DUP6 DUP1 PUSH2 0x83C JUMP JUMPDEST PUSH1 0x4 DUP5 ADD PUSH1 0x0 MSTORE PUSH1 0x20 PUSH1 0x0 KECCAK256 SWAP1 PUSH1 0x0 JUMPDEST PUSH1 0x1F NOT DUP5 AND DUP2 LT PUSH2 0xA64 JUMPI POP PUSH1 0x1 SWAP4 SWAP5 SWAP6 SWAP7 DUP4 PUSH1 0x1F NOT DUP2 AND LT PUSH2 0xA4B JUMPI JUMPDEST POP POP POP DUP2 SHL ADD PUSH1 0x4 DUP4 ADD SSTORE PUSH2 0x854 JUMP JUMPDEST ADD MLOAD PUSH1 0x0 NOT PUSH1 0xF8 DUP5 PUSH1 0x3 SHL AND SHR NOT AND SWAP1 SSTORE DUP6 DUP1 DUP1 PUSH2 0xA3B JUMP JUMPDEST SWAP1 SWAP2 PUSH1 0x20 PUSH1 0x1 DUP2 SWAP3 DUP6 DUP12 ADD MLOAD DUP2 SSTORE ADD SWAP4 ADD SWAP2 ADD PUSH2 0xA1D JUMP JUMPDEST PUSH1 0x4 DUP5 ADD PUSH1 0x0 MSTORE PUSH1 0x20 PUSH1 0x0 KECCAK256 PUSH1 0x1F DUP4 ADD PUSH1 0x5 SHR DUP2 ADD PUSH1 0x20 DUP5 LT PUSH2 0xABC JUMPI JUMPDEST PUSH1 0x1F DUP4 ADD PUSH1 0x5 SHR DUP3 ADD DUP2 LT PUSH2 0xAB0 JUMPI POP POP PUSH2 0x821 JUMP JUMPDEST PUSH1 0x0 DUP2 SSTORE PUSH1 0x1 ADD PUSH2 0xA9A JUMP JUMPDEST POP DUP1 PUSH2 0xA9A JUMP JUMPDEST PUSH1 0x40 MLOAD PUSH3 0x461BCD PUSH1 0xE5 SHL DUP2 MSTORE PUSH1 0x20 PUSH1 0x4 DUP3 ADD MSTORE PUSH1 0x14 PUSH1 0x24 DUP3 ADD MSTORE PUSH20 0x4361706163697479206D757374206265203E203 PUSH1 0x64 SHL PUSH1 0x44 DUP3 ADD MSTORE PUSH1 0x64 SWAP1 REVERT JUMPDEST PUSH1 0x40 MLOAD PUSH3 0x461BCD PUSH1 0xE5 SHL DUP2 MSTORE PUSH1 0x20 PUSH1 0x4 DUP3 ADD MSTORE PUSH1 0x10 PUSH1 0x24 DUP3 ADD MSTORE PUSH16 0x24B73B30B634B21037B832B930BA37B9 PUSH1 0x81 SHL PUSH1 0x44 DUP3 ADD MSTORE PUSH1 0x64 SWAP1 REVERT JUMPDEST PUSH1 0x40 MLOAD PUSH3 0x461BCD PUSH1 0xE5 SHL DUP2 MSTORE PUSH1 0x20 PUSH1 0x4 DUP3 ADD MSTORE PUSH1 0x17 PUSH1 0x24 DUP3 ADD MSTORE PUSH32 0x4E6F646520616C72656164792072656769737465726564000000000000000000 PUSH1 0x44 DUP3 ADD MSTORE PUSH1 0x64 SWAP1 REVERT JUMPDEST POP PUSH1 0x0 SLOAD PUSH1 0x1 PUSH1 0x1 PUSH1 0xA0 SHL SUB AND CALLER EQ PUSH2 0x6CE JUMP JUMPDEST CALLVALUE PUSH2 0x1E0 JUMPI PUSH1 0x20 CALLDATASIZE PUSH1 0x3 NOT ADD SLT PUSH2 0x1E0 JUMPI PUSH1 0x4 CALLDATALOAD PUSH1 0x3 SLOAD DUP2 LT ISZERO PUSH2 0x1E0 JUMPI PUSH1 0x20 SWAP1 PUSH1 0x3 PUSH1 0x0 MSTORE PUSH32 0xC2575A0E9E593C00F959F8C92F12DB2869C3395A3B0502D05E2516446F71F85B ADD SLOAD PUSH1 0x40 MLOAD SWAP1 DUP2 MSTORE RETURN JUMPDEST CALLVALUE PUSH2 0x1E0 JUMPI PUSH1 0x40 CALLDATASIZE PUSH1 0x3 NOT ADD SLT PUSH2 0x1E0 JUMPI PUSH2 0xBFA PUSH2 0x136E JUMP JUMPDEST PUSH1 0x1 PUSH1 0x1 PUSH1 0xA0 SHL SUB AND PUSH1 0x0 SWAP1 DUP2 MSTORE PUSH1 0x2 PUSH1 0x20 MSTORE PUSH1 0x40 SWAP1 KECCAK256 DUP1 SLOAD PUSH1 0x24 CALLDATALOAD SWAP2 SWAP1 DUP3 LT ISZERO PUSH2 0x1E0 JUMPI PUSH1 0x20 SWAP2 PUSH2 0xC2B SWAP2 PUSH2 0x13E0 JUMP JUMPDEST SWAP1 SLOAD PUSH1 0x40 MLOAD SWAP2 PUSH1 0x3 SHL SHR DUP2 MSTORE RETURN JUMPDEST CALLVALUE PUSH2 0x1E0 JUMPI PUSH1 0x0 CALLDATASIZE PUSH1 0x3 NOT ADD SLT PUSH2 0x1E0 JUMPI PUSH1 0x0 SLOAD PUSH1 0x40 MLOAD PUSH1 0x1 PUSH1 0x1 PUSH1 0xA0 SHL SUB SWAP1 SWAP2 AND DUP2 MSTORE PUSH1 0x20 SWAP1 RETURN JUMPDEST CALLVALUE PUSH2 0x1E0 JUMPI PUSH1 0x0 CALLDATASIZE PUSH1 0x3 NOT ADD SLT PUSH2 0x1E0 JUMPI PUSH2 0xC7B PUSH2 0x1517 JUMP JUMPDEST PUSH2 0xC83 PUSH2 0x15B5 JUMP JUMPDEST PUSH1 0x0 DUP1 SLOAD PUSH1 0xFF PUSH1 0xA0 SHL NOT AND PUSH1 0x1 PUSH1 0xA0 SHL OR SWAP1 SSTORE PUSH1 0x40 MLOAD CALLER DUP2 MSTORE PUSH32 0x62E78CEA01BEE320CD4E420270B5EA74000D11B0C9F74754EBDBFC544B05A258 SWAP1 PUSH1 0x20 SWAP1 LOG1 STOP JUMPDEST CALLVALUE PUSH2 0x1E0 JUMPI PUSH1 0x0 CALLDATASIZE PUSH1 0x3 NOT ADD SLT PUSH2 0x1E0 JUMPI PUSH2 0xCDD PUSH2 0x1517 JUMP JUMPDEST PUSH1 0x0 DUP1 SLOAD PUSH1 0x1 PUSH1 0x1 PUSH1 0xA0 SHL SUB NOT DUP2 AND DUP3 SSTORE PUSH1 0x1 PUSH1 0x1 PUSH1 0xA0 SHL SUB AND PUSH32 0x8BE0079C531659141344CD1FD0A4F28419497F9722A3DAAFE3B4186F6B6457E0 DUP3 DUP1 LOG3 STOP JUMPDEST CALLVALUE PUSH2 0x1E0 JUMPI PUSH1 0x20 CALLDATASIZE PUSH1 0x3 NOT ADD SLT PUSH2 0x1E0 JUMPI PUSH1 0x4 CALLDATALOAD PUSH1 0x0 MSTORE PUSH1 0x8 PUSH1 0x20 MSTORE PUSH1 0x20 PUSH1 0x40 PUSH1 0x0 KECCAK256 SLOAD PUSH1 0x40 MLOAD SWAP1 DUP2 MSTORE RETURN JUMPDEST CALLVALUE PUSH2 0x1E0 JUMPI PUSH1 0x0 CALLDATASIZE PUSH1 0x3 NOT ADD SLT PUSH2 0x1E0 JUMPI PUSH1 0x20 PUSH1 0x3 SLOAD PUSH1 0x40 MLOAD SWAP1 DUP2 MSTORE RETURN JUMPDEST CALLVALUE PUSH2 0x1E0 JUMPI PUSH1 0x0 CALLDATASIZE PUSH1 0x3 NOT ADD SLT PUSH2 0x1E0 JUMPI PUSH1 0x20 PUSH1 0xFF PUSH1 0x0 SLOAD PUSH1 0xA0 SHR AND PUSH1 0x40 MLOAD SWAP1 ISZERO ISZERO DUP2 MSTORE RETURN JUMPDEST CALLVALUE PUSH2 0x1E0 JUMPI PUSH1 0x20 CALLDATASIZE PUSH1 0x3 NOT ADD SLT PUSH2 0x1E0 JUMPI PUSH1 0x4 CALLDATALOAD PUSH1 0x0 MSTORE PUSH1 0x7 PUSH1 0x20 MSTORE PUSH1 0x20 PUSH1 0x40 PUSH1 0x0 KECCAK256 SLOAD PUSH1 0x40 MLOAD SWAP1 DUP2 MSTORE RETURN JUMPDEST CALLVALUE PUSH2 0x1E0 JUMPI PUSH1 0x0 CALLDATASIZE PUSH1 0x3 NOT ADD SLT PUSH2 0x1E0 JUMPI PUSH1 0x20 PUSH1 0x4 SLOAD PUSH1 0x40 MLOAD SWAP1 DUP2 MSTORE RETURN JUMPDEST CALLVALUE PUSH2 0x1E0 JUMPI PUSH1 0x20 CALLDATASIZE PUSH1 0x3 NOT ADD SLT PUSH2 0x1E0 JUMPI PUSH1 0x0 PUSH2 0x120 PUSH1 0x40 MLOAD PUSH2 0xDF9 DUP2 PUSH2 0x1432 JUMP JUMPDEST DUP3 DUP2 MSTORE DUP3 PUSH1 0x20 DUP3 ADD MSTORE DUP3 PUSH1 0x40 DUP3 ADD MSTORE DUP3 PUSH1 0x60 DUP3 ADD MSTORE PUSH1 0x60 PUSH1 0x80 DUP3 ADD MSTORE DUP3 PUSH1 0xA0 DUP3 ADD MSTORE DUP3 PUSH1 0xC0 DUP3 ADD MSTORE DUP3 PUSH1 0xE0 DUP3 ADD MSTORE DUP3 PUSH2 0x100 DUP3 ADD MSTORE ADD MSTORE PUSH1 0x4 CALLDATALOAD PUSH1 0x0 MSTORE PUSH1 0x1 PUSH1 0x20 MSTORE PUSH1 0x40 PUSH1 0x0 KECCAK256 PUSH1 0x40 MLOAD SWAP1 PUSH2 0xE4D DUP3 PUSH2 0x1432 JUMP JUMPDEST DUP1 SLOAD DUP3 MSTORE PUSH1 0x1 DUP2 ADD SLOAD PUSH1 0x1 PUSH1 0x1 PUSH1 0xA0 SHL SUB AND PUSH1 0x20 DUP4 ADD MSTORE PUSH1 0x2 DUP2 ADD SLOAD PUSH1 0x40 DUP4 ADD MSTORE PUSH1 0x3 DUP2 ADD SLOAD PUSH1 0x60 DUP4 ADD MSTORE PUSH2 0xE84 PUSH1 0x4 DUP3 ADD PUSH2 0x1471 JUMP JUMPDEST PUSH1 0x80 DUP4 ADD MSTORE PUSH1 0x5 DUP2 ADD SLOAD PUSH1 0xA0 DUP4 ADD MSTORE PUSH1 0x6 DUP2 ADD SLOAD PUSH1 0xC0 DUP4 ADD MSTORE PUSH1 0xFF PUSH1 0x7 DUP3 ADD SLOAD AND SWAP1 PUSH1 0x3 DUP3 LT ISZERO PUSH2 0x55D JUMPI PUSH1 0x9 SWAP2 PUSH1 0xE0 DUP5 ADD MSTORE PUSH1 0x8 DUP2 ADD SLOAD PUSH2 0x100 DUP5 ADD MSTORE ADD SLOAD PUSH2 0x120 DUP3 ADD MSTORE PUSH1 0x40 MLOAD DUP1 SWAP2 PUSH1 0x20 DUP3 MSTORE DUP1 MLOAD PUSH1 0x20 DUP4 ADD MSTORE PUSH1 0x1 DUP1 PUSH1 0xA0 SHL SUB PUSH1 0x20 DUP3 ADD MLOAD AND PUSH1 0x40 DUP4 ADD MSTORE PUSH1 0x40 DUP2 ADD MLOAD PUSH1 0x60 DUP4 ADD MSTORE PUSH1 0x60 DUP2 ADD MLOAD PUSH1 0x80 DUP4 ADD MSTORE PUSH1 0x80 DUP2 ADD MLOAD PUSH2 0x120 PUSH2 0xF20 PUSH2 0x140 SWAP3 DUP4 PUSH1 0xA0 DUP8 ADD MSTORE PUSH2 0x160 DUP7 ADD SWAP1 PUSH2 0x1393 JUMP JUMPDEST SWAP3 PUSH1 0xA0 DUP2 ADD MLOAD PUSH1 0xC0 DUP7 ADD MSTORE PUSH1 0xC0 DUP2 ADD MLOAD PUSH1 0xE0 DUP7 ADD MSTORE PUSH2 0xF48 PUSH1 0xE0 DUP3 ADD MLOAD PUSH2 0x100 DUP8 ADD SWAP1 PUSH2 0x13D3 JUMP JUMPDEST PUSH2 0x100 DUP2 ADD MLOAD DUP3 DUP7 ADD MSTORE ADD MLOAD SWAP1 DUP4 ADD MSTORE SUB SWAP1 RETURN JUMPDEST CALLVALUE PUSH2 0x1E0 JUMPI PUSH1 0x0 CALLDATASIZE PUSH1 0x3 NOT ADD SLT PUSH2 0x1E0 JUMPI PUSH1 0x80 PUSH1 0x3 SLOAD PUSH1 0x6 SLOAD PUSH1 0x4 SLOAD PUSH1 0x5 SLOAD SWAP2 PUSH1 0x40 MLOAD SWAP4 DUP5 MSTORE PUSH1 0x20 DUP5 ADD MSTORE PUSH1 0x40 DUP4 ADD MSTORE PUSH1 0x60 DUP3 ADD MSTORE RETURN JUMPDEST CALLVALUE PUSH2 0x1E0 JUMPI PUSH1 0x0 CALLDATASIZE PUSH1 0x3 NOT ADD SLT PUSH2 0x1E0 JUMPI PUSH1 0x20 PUSH1 0x6 SLOAD PUSH1 0x40 MLOAD SWAP1 DUP2 MSTORE RETURN JUMPDEST CALLVALUE PUSH2 0x1E0 JUMPI PUSH1 0x0 CALLDATASIZE PUSH1 0x3 NOT ADD SLT PUSH2 0x1E0 JUMPI PUSH2 0xFCA PUSH2 0x1517 JUMP JUMPDEST PUSH1 0x0 SLOAD PUSH1 0xFF DUP2 PUSH1 0xA0 SHR AND ISZERO PUSH2 0x1011 JUMPI PUSH1 0xFF PUSH1 0xA0 SHL NOT AND PUSH1 0x0 SSTORE PUSH1 0x40 MLOAD CALLER DUP2 MSTORE PUSH32 0x5DB9EE0A495BF2E6FF9C91A7834C1BA4FDD244A5E8AA4E537BD38AEAE4B073AA SWAP1 PUSH1 0x20 SWAP1 LOG1 STOP JUMPDEST PUSH1 0x40 MLOAD PUSH4 0x8DFC202B PUSH1 0xE0 SHL DUP2 MSTORE PUSH1 0x4 SWAP1 REVERT JUMPDEST CALLVALUE PUSH2 0x1E0 JUMPI PUSH1 0x40 CALLDATASIZE PUSH1 0x3 NOT ADD SLT PUSH2 0x1E0 JUMPI PUSH2 0x103C PUSH2 0x1384 JUMP JUMPDEST CALLER PUSH1 0x0 MSTORE PUSH1 0x9 PUSH1 0x20 MSTORE PUSH1 0xFF PUSH1 0x40 PUSH1 0x0 KECCAK256 SLOAD AND DUP1 ISZERO PUSH2 0x10A1 JUMPI JUMPDEST PUSH2 0x105E SWAP1 PUSH2 0x1543 JUMP JUMPDEST PUSH1 0x4 CALLDATALOAD PUSH1 0x0 MSTORE PUSH1 0x1 PUSH1 0x20 MSTORE PUSH1 0x40 PUSH1 0x0 KECCAK256 SWAP1 PUSH2 0x107E PUSH1 0x5 DUP4 ADD SLOAD ISZERO ISZERO PUSH2 0x15D6 JUMP JUMPDEST ISZERO PUSH2 0x1094 JUMPI PUSH1 0x8 ADD PUSH2 0x1090 DUP2 SLOAD PUSH2 0x15A6 JUMP JUMPDEST SWAP1 SSTORE STOP JUMPDEST PUSH1 0x9 ADD PUSH2 0x1090 DUP2 SLOAD PUSH2 0x15A6 JUMP JUMPDEST POP PUSH1 0x0 SLOAD PUSH1 0x1 PUSH1 0x1 PUSH1 0xA0 SHL SUB AND CALLER EQ PUSH2 0x1055 JUMP JUMPDEST CALLVALUE PUSH2 0x1E0 JUMPI PUSH1 0x20 CALLDATASIZE PUSH1 0x3 NOT ADD SLT PUSH2 0x1E0 JUMPI PUSH1 0x4 CALLDATALOAD CALLER PUSH1 0x0 MSTORE PUSH1 0x9 PUSH1 0x20 MSTORE PUSH1 0xFF PUSH1 0x40 PUSH1 0x0 KECCAK256 SLOAD AND DUP1 ISZERO PUSH2 0x113A JUMPI JUMPDEST PUSH2 0x10EB SWAP1 PUSH2 0x1543 JUMP JUMPDEST DUP1 PUSH1 0x0 MSTORE PUSH1 0x1 PUSH1 0x20 MSTORE PUSH1 0x40 PUSH1 0x0 KECCAK256 PUSH2 0x1108 PUSH1 0x5 DUP3 ADD SLOAD ISZERO ISZERO PUSH2 0x15D6 JUMP JUMPDEST PUSH1 0x6 TIMESTAMP SWAP2 ADD SSTORE PUSH32 0x3E919D2E1B69FFFF4C4EC7B0F8A8458457EBE560AD9214995260087505D89E4C PUSH1 0x20 PUSH1 0x40 MLOAD TIMESTAMP DUP2 MSTORE LOG2 STOP JUMPDEST POP PUSH1 0x0 SLOAD PUSH1 0x1 PUSH1 0x1 PUSH1 0xA0 SHL SUB AND CALLER EQ PUSH2 0x10E2 JUMP JUMPDEST CALLVALUE PUSH2 0x1E0 JUMPI PUSH1 0x40 CALLDATASIZE PUSH1 0x3 NOT ADD SLT PUSH2 0x1E0 JUMPI PUSH2 0x1167 PUSH2 0x136E JUMP JUMPDEST PUSH32 0x9FDBC2D48B8A0DB2F62663BF9312AD02F5B1F6414AD600B55A247D09AEEC3EA2 PUSH1 0x20 PUSH2 0x1192 PUSH2 0x1384 JUMP JUMPDEST SWAP3 PUSH2 0x119B PUSH2 0x1517 JUMP JUMPDEST PUSH1 0x1 DUP1 PUSH1 0xA0 SHL SUB AND SWAP3 DUP4 PUSH1 0x0 MSTORE PUSH1 0x9 DUP3 MSTORE PUSH1 0x40 PUSH1 0x0 KECCAK256 SWAP1 ISZERO ISZERO SWAP1 PUSH1 0xFF NOT DUP2 SLOAD AND PUSH1 0xFF DUP4 AND OR SWAP1 SSTORE PUSH1 0x40 MLOAD SWAP1 DUP2 MSTORE LOG2 STOP JUMPDEST CALLVALUE PUSH2 0x1E0 JUMPI PUSH1 0x40 PUSH32 0xF98BF76E5E8E1BAF7DE3C584B950581CB7F5CEA9C09DE8213C1F2EC0AEAE2BBD PUSH2 0x11FC CALLDATASIZE PUSH2 0x1358 JUMP JUMPDEST SWAP3 SWAP1 SWAP3 CALLER PUSH1 0x0 MSTORE PUSH1 0x9 PUSH1 0x20 MSTORE PUSH1 0xFF DUP3 PUSH1 0x0 KECCAK256 SLOAD AND DUP1 ISZERO PUSH2 0x1248 JUMPI JUMPDEST PUSH2 0x1220 SWAP1 PUSH2 0x1543 JUMP JUMPDEST DUP4 PUSH1 0x0 MSTORE PUSH1 0x7 PUSH1 0x20 MSTORE DUP1 DUP3 PUSH1 0x0 KECCAK256 SSTORE PUSH1 0x8 PUSH1 0x20 MSTORE TIMESTAMP DUP3 PUSH1 0x0 KECCAK256 SSTORE DUP2 MLOAD SWAP1 DUP2 MSTORE TIMESTAMP PUSH1 0x20 DUP3 ADD MSTORE LOG2 STOP JUMPDEST POP PUSH1 0x0 SLOAD PUSH1 0x1 PUSH1 0x1 PUSH1 0xA0 SHL SUB AND CALLER EQ PUSH2 0x1217 JUMP JUMPDEST CALLVALUE PUSH2 0x1E0 JUMPI PUSH1 0x60 CALLDATASIZE PUSH1 0x3 NOT ADD SLT PUSH2 0x1E0 JUMPI PUSH1 0x4 CALLDATALOAD PUSH32 0x965FBF96543825C74AF432B57CF5645131A95BFE17BB67C1823A3C393876C494 PUSH1 0x40 PUSH1 0x24 CALLDATALOAD PUSH1 0x44 CALLDATALOAD CALLER PUSH1 0x0 MSTORE PUSH1 0x9 PUSH1 0x20 MSTORE PUSH1 0xFF DUP4 PUSH1 0x0 KECCAK256 SLOAD AND DUP1 ISZERO PUSH2 0x1320 JUMPI JUMPDEST PUSH2 0x12BA SWAP1 PUSH2 0x1543 JUMP JUMPDEST DUP5 PUSH1 0x0 MSTORE PUSH1 0x1 PUSH1 0x20 MSTORE DUP1 DUP4 PUSH1 0x0 KECCAK256 PUSH2 0x12D7 PUSH1 0x5 DUP3 ADD SLOAD ISZERO ISZERO PUSH2 0x15D6 JUMP JUMPDEST DUP4 PUSH1 0x4 SLOAD PUSH2 0x12F4 DUP3 PUSH2 0x12EF PUSH1 0x2 DUP7 ADD SWAP4 DUP5 SLOAD SWAP1 PUSH2 0x1618 JUMP JUMPDEST PUSH2 0x1599 JUMP JUMPDEST PUSH1 0x4 SSTORE PUSH2 0x130E DUP5 PUSH2 0x12EF PUSH1 0x3 PUSH1 0x5 SLOAD SWAP7 ADD SWAP6 DUP7 SLOAD SWAP1 PUSH2 0x1618 JUMP JUMPDEST PUSH1 0x5 SSTORE SSTORE SSTORE DUP3 MLOAD SWAP2 DUP3 MSTORE PUSH1 0x20 DUP3 ADD MSTORE LOG2 STOP JUMPDEST POP PUSH1 0x0 SLOAD PUSH1 0x1 PUSH1 0x1 PUSH1 0xA0 SHL SUB AND CALLER EQ PUSH2 0x12B1 JUMP JUMPDEST CALLVALUE PUSH2 0x1E0 JUMPI PUSH1 0x20 SWAP1 PUSH2 0x1345 CALLDATASIZE PUSH2 0x1358 JUMP JUMPDEST SWAP1 PUSH1 0x0 MSTORE PUSH1 0x7 DUP4 MSTORE PUSH1 0x40 PUSH1 0x0 KECCAK256 SLOAD EQ DUP2 MSTORE RETURN JUMPDEST PUSH1 0x40 SWAP1 PUSH1 0x3 NOT ADD SLT PUSH2 0x1E0 JUMPI PUSH1 0x4 CALLDATALOAD SWAP1 PUSH1 0x24 CALLDATALOAD SWAP1 JUMP JUMPDEST PUSH1 0x4 CALLDATALOAD SWAP1 PUSH1 0x1 PUSH1 0x1 PUSH1 0xA0 SHL SUB DUP3 AND DUP3 SUB PUSH2 0x1E0 JUMPI JUMP JUMPDEST PUSH1 0x24 CALLDATALOAD SWAP1 DUP2 ISZERO ISZERO DUP3 SUB PUSH2 0x1E0 JUMPI JUMP JUMPDEST SWAP2 SWAP1 DUP3 MLOAD SWAP3 DUP4 DUP3 MSTORE PUSH1 0x0 JUMPDEST DUP5 DUP2 LT PUSH2 0x13BF JUMPI POP POP DUP3 PUSH1 0x0 PUSH1 0x20 DUP1 SWAP5 SWAP6 DUP5 ADD ADD MSTORE PUSH1 0x1F DUP1 NOT SWAP2 ADD AND ADD ADD SWAP1 JUMP JUMPDEST PUSH1 0x20 DUP2 DUP4 ADD DUP2 ADD MLOAD DUP5 DUP4 ADD DUP3 ADD MSTORE ADD PUSH2 0x139E JUMP JUMPDEST SWAP1 PUSH1 0x3 DUP3 LT ISZERO PUSH2 0x55D JUMPI MSTORE JUMP JUMPDEST DUP1 SLOAD DUP3 LT ISZERO PUSH2 0x9D6 JUMPI PUSH1 0x0 MSTORE PUSH1 0x20 PUSH1 0x0 KECCAK256 ADD SWAP1 PUSH1 0x0 SWAP1 JUMP JUMPDEST SWAP1 PUSH1 0x1 DUP3 DUP2 SHR SWAP3 AND DUP1 ISZERO PUSH2 0x1428 JUMPI JUMPDEST PUSH1 0x20 DUP4 LT EQ PUSH2 0x1412 JUMPI JUMP JUMPDEST PUSH4 0x4E487B71 PUSH1 0xE0 SHL PUSH1 0x0 MSTORE PUSH1 0x22 PUSH1 0x4 MSTORE PUSH1 0x24 PUSH1 0x0 REVERT JUMPDEST SWAP2 PUSH1 0x7F AND SWAP2 PUSH2 0x1407 JUMP JUMPDEST PUSH2 0x140 DUP2 ADD SWAP1 DUP2 LT PUSH8 0xFFFFFFFFFFFFFFFF DUP3 GT OR PUSH2 0x9EC JUMPI PUSH1 0x40 MSTORE JUMP JUMPDEST SWAP1 PUSH1 0x1F DUP1 NOT SWAP2 ADD AND DUP2 ADD SWAP1 DUP2 LT PUSH8 0xFFFFFFFFFFFFFFFF DUP3 GT OR PUSH2 0x9EC JUMPI PUSH1 0x40 MSTORE JUMP JUMPDEST SWAP1 PUSH1 0x40 MLOAD SWAP2 DUP3 PUSH1 0x0 DUP3 SLOAD SWAP3 PUSH2 0x1485 DUP5 PUSH2 0x13F8 JUMP JUMPDEST SWAP1 DUP2 DUP5 MSTORE PUSH1 0x1 SWAP5 DUP6 DUP2 AND SWAP1 DUP2 PUSH1 0x0 EQ PUSH2 0x14F4 JUMPI POP PUSH1 0x1 EQ PUSH2 0x14B1 JUMPI JUMPDEST POP POP PUSH2 0x14AF SWAP3 POP SUB DUP4 PUSH2 0x144F JUMP JUMPDEST JUMP JUMPDEST SWAP1 SWAP4 SWAP2 POP PUSH1 0x0 MSTORE PUSH1 0x20 SWAP1 DUP2 PUSH1 0x0 KECCAK256 SWAP4 PUSH1 0x0 SWAP2 JUMPDEST DUP2 DUP4 LT PUSH2 0x14DC JUMPI POP POP PUSH2 0x14AF SWAP4 POP DUP3 ADD ADD CODESIZE DUP1 PUSH2 0x14A1 JUMP JUMPDEST DUP6 SLOAD DUP9 DUP5 ADD DUP6 ADD MSTORE SWAP5 DUP6 ADD SWAP5 DUP8 SWAP5 POP SWAP2 DUP4 ADD SWAP2 PUSH2 0x14C4 JUMP JUMPDEST SWAP2 POP POP PUSH2 0x14AF SWAP5 POP PUSH1 0x20 SWAP3 POP PUSH1 0xFF NOT AND DUP3 DUP5 ADD MSTORE ISZERO ISZERO PUSH1 0x5 SHL DUP3 ADD ADD CODESIZE DUP1 PUSH2 0x14A1 JUMP JUMPDEST PUSH1 0x0 SLOAD PUSH1 0x1 PUSH1 0x1 PUSH1 0xA0 SHL SUB AND CALLER SUB PUSH2 0x152B JUMPI JUMP JUMPDEST PUSH1 0x40 MLOAD PUSH4 0x118CDAA7 PUSH1 0xE0 SHL DUP2 MSTORE CALLER PUSH1 0x4 DUP3 ADD MSTORE PUSH1 0x24 SWAP1 REVERT JUMPDEST ISZERO PUSH2 0x154A JUMPI JUMP JUMPDEST PUSH1 0x40 MLOAD PUSH3 0x461BCD PUSH1 0xE5 SHL DUP2 MSTORE PUSH1 0x20 PUSH1 0x4 DUP3 ADD MSTORE PUSH1 0xF PUSH1 0x24 DUP3 ADD MSTORE PUSH15 0x2737BA1030B71032BC32B1BABA37B9 PUSH1 0x89 SHL PUSH1 0x44 DUP3 ADD MSTORE PUSH1 0x64 SWAP1 REVERT JUMPDEST SWAP1 PUSH1 0x3 DUP2 LT ISZERO PUSH2 0x55D JUMPI PUSH1 0xFF DUP1 NOT DUP4 SLOAD AND SWAP2 AND OR SWAP1 SSTORE JUMP JUMPDEST SWAP2 SWAP1 DUP3 ADD DUP1 SWAP3 GT PUSH2 0x4EA JUMPI JUMP JUMPDEST PUSH1 0x0 NOT DUP2 EQ PUSH2 0x4EA JUMPI PUSH1 0x1 ADD SWAP1 JUMP JUMPDEST PUSH1 0xFF PUSH1 0x0 SLOAD PUSH1 0xA0 SHR AND PUSH2 0x15C4 JUMPI JUMP JUMPDEST PUSH1 0x40 MLOAD PUSH4 0xD93C0665 PUSH1 0xE0 SHL DUP2 MSTORE PUSH1 0x4 SWAP1 REVERT JUMPDEST ISZERO PUSH2 0x15DD JUMPI JUMP JUMPDEST PUSH1 0x40 MLOAD PUSH3 0x461BCD PUSH1 0xE5 SHL DUP2 MSTORE PUSH1 0x20 PUSH1 0x4 DUP3 ADD MSTORE PUSH1 0x13 PUSH1 0x24 DUP3 ADD MSTORE PUSH19 0x139BD919481B9BDD081C9959DA5CDD195C9959 PUSH1 0x6A SHL PUSH1 0x44 DUP3 ADD MSTORE PUSH1 0x64 SWAP1 REVERT JUMPDEST SWAP2 SWAP1 DUP3 SUB SWAP2 DUP3 GT PUSH2 0x4EA JUMPI JUMP JUMPDEST SWAP2 SWAP1 DUP2 LT ISZERO PUSH2 0x9D6 JUMPI PUSH1 0x5 SHL ADD SWAP1 JUMP INVALID LOG2 PUSH5 0x6970667358 0x22 SLT KECCAK256 XOR PUSH26 0x4B6D6C6EE1EE31DCF39B130E5F11BCE0F3C87170C2669A1F0DC8 SELFBALANCE 0xC5 0xDD AND PUSH5 0x736F6C6343 STOP ADDMOD EQ STOP CALLER "},"methodIdentifiers":{"allNodeIds(uint256)":"a5834971","fileMerkleRoots(bytes32)":"5432dd1c","fileRegisteredAt(bytes32)":"65c1a0cf","getNetworkStats()":"4a662f48","getNode(bytes32)":"50c946fe","getOperatorNodes(address)":"b97910b5","getTotalNodes()":"63584ecd","isExecutor(address)":"debfda30","nodes(bytes32)":"d86e697d","operatorNodes(address,uint256)":"9b070b00","owner()":"8da5cb5b","pause()":"8456cb59","paused()":"5c975abb","recordHeartbeat(bytes32)":"2e783190","recordHeartbeatBatch(bytes32[])":"e61ced22","recordMerkleRoot(bytes32,bytes32)":"1c0620f2","recordProofResult(bytes32,bool)":"2e7aab0f","registerNode(bytes32,address,uint256,string)":"ad23bc40","renounceOwnership()":"715018a6","setExecutor(address,bool)":"1e1bff3f","setNodeStatus(bytes32,uint8)":"d3e15555","totalActiveNodes()":"49a57477","totalCapacityGB()":"54093cf6","totalUsedGB()":"debd6de0","transferOwnership(address)":"f2fde38b","unpause()":"3f4ba83a","updateNode(bytes32,uint256,uint256)":"0b2e956e","verifyMerkleRoot(bytes32,bytes32)":"00017c8b"}}}}}