{"contracts/VisionAgentSBT.sol":{"VisionAgentSBT":{"abi":[{"inputs":[],"stateMutability":"nonpayable","type":"constructor"},{"inputs":[],"name":"AgentNameTaken","type":"error"},{"inputs":[],"name":"AlreadyHasSBT","type":"error"},{"inputs":[],"name":"AlreadyRevoked","type":"error"},{"inputs":[{"internalType":"address","name":"sender","type":"address"},{"internalType":"uint256","name":"tokenId","type":"uint256"},{"internalType":"address","name":"owner","type":"address"}],"name":"ERC721IncorrectOwner","type":"error"},{"inputs":[{"internalType":"address","name":"operator","type":"address"},{"internalType":"uint256","name":"tokenId","type":"uint256"}],"name":"ERC721InsufficientApproval","type":"error"},{"inputs":[{"internalType":"address","name":"approver","type":"address"}],"name":"ERC721InvalidApprover","type":"error"},{"inputs":[{"internalType":"address","name":"operator","type":"address"}],"name":"ERC721InvalidOperator","type":"error"},{"inputs":[{"internalType":"address","name":"owner","type":"address"}],"name":"ERC721InvalidOwner","type":"error"},{"inputs":[{"internalType":"address","name":"receiver","type":"address"}],"name":"ERC721InvalidReceiver","type":"error"},{"inputs":[{"internalType":"address","name":"sender","type":"address"}],"name":"ERC721InvalidSender","type":"error"},{"inputs":[{"internalType":"uint256","name":"tokenId","type":"uint256"}],"name":"ERC721NonexistentToken","type":"error"},{"inputs":[],"name":"EmptyName","type":"error"},{"inputs":[],"name":"NotMinter","type":"error"},{"inputs":[{"internalType":"address","name":"owner","type":"address"}],"name":"OwnableInvalidOwner","type":"error"},{"inputs":[{"internalType":"address","name":"account","type":"address"}],"name":"OwnableUnauthorizedAccount","type":"error"},{"inputs":[],"name":"SoulBound","type":"error"},{"inputs":[],"name":"TokenNotExists","type":"error"},{"anonymous":false,"inputs":[{"indexed":true,"internalType":"address","name":"owner","type":"address"},{"indexed":true,"internalType":"address","name":"approved","type":"address"},{"indexed":true,"internalType":"uint256","name":"tokenId","type":"uint256"}],"name":"Approval","type":"event"},{"anonymous":false,"inputs":[{"indexed":true,"internalType":"address","name":"owner","type":"address"},{"indexed":true,"internalType":"address","name":"operator","type":"address"},{"indexed":false,"internalType":"bool","name":"approved","type":"bool"}],"name":"ApprovalForAll","type":"event"},{"anonymous":false,"inputs":[{"indexed":false,"internalType":"uint256","name":"tokenId","type":"uint256"}],"name":"Locked","type":"event"},{"anonymous":false,"inputs":[{"indexed":true,"internalType":"address","name":"previousOwner","type":"address"},{"indexed":true,"internalType":"address","name":"newOwner","type":"address"}],"name":"OwnershipTransferred","type":"event"},{"anonymous":false,"inputs":[{"indexed":true,"internalType":"uint256","name":"tokenId","type":"uint256"},{"indexed":false,"internalType":"string","name":"agentName","type":"string"}],"name":"Revoked","type":"event"},{"anonymous":false,"inputs":[{"indexed":true,"internalType":"address","name":"from","type":"address"},{"indexed":true,"internalType":"address","name":"to","type":"address"},{"indexed":true,"internalType":"uint256","name":"tokenId","type":"uint256"}],"name":"Transfer","type":"event"},{"inputs":[{"internalType":"uint256","name":"","type":"uint256"}],"name":"agentInfo","outputs":[{"internalType":"string","name":"agentName","type":"string"},{"internalType":"string","name":"platform","type":"string"},{"internalType":"uint256","name":"mintedAt","type":"uint256"}],"stateMutability":"view","type":"function"},{"inputs":[{"internalType":"address","name":"","type":"address"}],"name":"agentTokenOf","outputs":[{"internalType":"uint256","name":"","type":"uint256"}],"stateMutability":"view","type":"function"},{"inputs":[{"internalType":"address","name":"to","type":"address"},{"internalType":"uint256","name":"tokenId","type":"uint256"}],"name":"approve","outputs":[],"stateMutability":"nonpayable","type":"function"},{"inputs":[{"internalType":"address","name":"owner","type":"address"}],"name":"balanceOf","outputs":[{"internalType":"uint256","name":"","type":"uint256"}],"stateMutability":"view","type":"function"},{"inputs":[{"internalType":"address","name":"wallet","type":"address"}],"name":"getAgentByAddress","outputs":[{"internalType":"uint256","name":"tokenId","type":"uint256"},{"internalType":"string","name":"agentName","type":"string"},{"internalType":"string","name":"platform","type":"string"},{"internalType":"uint256","name":"mintedAt","type":"uint256"}],"stateMutability":"view","type":"function"},{"inputs":[{"internalType":"uint256","name":"tokenId","type":"uint256"}],"name":"getApproved","outputs":[{"internalType":"address","name":"","type":"address"}],"stateMutability":"view","type":"function"},{"inputs":[{"internalType":"address","name":"owner","type":"address"},{"internalType":"address","name":"operator","type":"address"}],"name":"isApprovedForAll","outputs":[{"internalType":"bool","name":"","type":"bool"}],"stateMutability":"view","type":"function"},{"inputs":[{"internalType":"address","name":"","type":"address"}],"name":"isMinter","outputs":[{"internalType":"bool","name":"","type":"bool"}],"stateMutability":"view","type":"function"},{"inputs":[{"internalType":"uint256","name":"tokenId","type":"uint256"}],"name":"isRevoked","outputs":[{"internalType":"bool","name":"","type":"bool"}],"stateMutability":"view","type":"function"},{"inputs":[{"internalType":"uint256","name":"tokenId","type":"uint256"}],"name":"locked","outputs":[{"internalType":"bool","name":"","type":"bool"}],"stateMutability":"view","type":"function"},{"inputs":[{"internalType":"address","name":"to","type":"address"},{"internalType":"string","name":"agentName","type":"string"},{"internalType":"string","name":"platform","type":"string"}],"name":"mintAgentIdentity","outputs":[{"internalType":"uint256","name":"","type":"uint256"}],"stateMutability":"nonpayable","type":"function"},{"inputs":[],"name":"name","outputs":[{"internalType":"string","name":"","type":"string"}],"stateMutability":"view","type":"function"},{"inputs":[{"internalType":"bytes32","name":"","type":"bytes32"}],"name":"nameExists","outputs":[{"internalType":"bool","name":"","type":"bool"}],"stateMutability":"view","type":"function"},{"inputs":[],"name":"owner","outputs":[{"internalType":"address","name":"","type":"address"}],"stateMutability":"view","type":"function"},{"inputs":[{"internalType":"uint256","name":"tokenId","type":"uint256"}],"name":"ownerOf","outputs":[{"internalType":"address","name":"","type":"address"}],"stateMutability":"view","type":"function"},{"inputs":[],"name":"renounceOwnership","outputs":[],"stateMutability":"nonpayable","type":"function"},{"inputs":[{"internalType":"uint256","name":"tokenId","type":"uint256"}],"name":"revokeIdentity","outputs":[],"stateMutability":"nonpayable","type":"function"},{"inputs":[{"internalType":"uint256","name":"","type":"uint256"}],"name":"revoked","outputs":[{"internalType":"bool","name":"","type":"bool"}],"stateMutability":"view","type":"function"},{"inputs":[{"internalType":"address","name":"from","type":"address"},{"internalType":"address","name":"to","type":"address"},{"internalType":"uint256","name":"tokenId","type":"uint256"}],"name":"safeTransferFrom","outputs":[],"stateMutability":"nonpayable","type":"function"},{"inputs":[{"internalType":"address","name":"from","type":"address"},{"internalType":"address","name":"to","type":"address"},{"internalType":"uint256","name":"tokenId","type":"uint256"},{"internalType":"bytes","name":"data","type":"bytes"}],"name":"safeTransferFrom","outputs":[],"stateMutability":"nonpayable","type":"function"},{"inputs":[{"internalType":"address","name":"operator","type":"address"},{"internalType":"bool","name":"approved","type":"bool"}],"name":"setApprovalForAll","outputs":[],"stateMutability":"nonpayable","type":"function"},{"inputs":[{"internalType":"address","name":"minter","type":"address"},{"internalType":"bool","name":"allowed","type":"bool"}],"name":"setMinter","outputs":[],"stateMutability":"nonpayable","type":"function"},{"inputs":[{"internalType":"bytes4","name":"interfaceId","type":"bytes4"}],"name":"supportsInterface","outputs":[{"internalType":"bool","name":"","type":"bool"}],"stateMutability":"view","type":"function"},{"inputs":[],"name":"symbol","outputs":[{"internalType":"string","name":"","type":"string"}],"stateMutability":"view","type":"function"},{"inputs":[{"internalType":"uint256","name":"tokenId","type":"uint256"}],"name":"tokenURI","outputs":[{"internalType":"string","name":"","type":"string"}],"stateMutability":"view","type":"function"},{"inputs":[],"name":"totalSupply","outputs":[{"internalType":"uint256","name":"","type":"uint256"}],"stateMutability":"view","type":"function"},{"inputs":[{"internalType":"address","name":"from","type":"address"},{"internalType":"address","name":"to","type":"address"},{"internalType":"uint256","name":"tokenId","type":"uint256"}],"name":"transferFrom","outputs":[],"stateMutability":"nonpayable","type":"function"},{"inputs":[{"internalType":"address","name":"newOwner","type":"address"}],"name":"transferOwnership","outputs":[],"stateMutability":"nonpayable","type":"function"}],"evm":{"bytecode":{"linkReferences":{},"object":"608034620003a6576001600160401b039060408181018381118382101762000390578152601582526020927f566973696f6e204167656e74204964656e7469747900000000000000000000008484015281519082820182811082821117620003905783526005825264159054d09560da1b85830152835181811162000390576000928354916001968784811c9416801562000385575b8985101462000371578190601f948581116200031e575b508990858311600114620002ba578792620002ae575b5050600019600383901b1c191690871b1784555b80519283116200029a5785548681811c911680156200028f575b888210146200027b579081838594931162000226575b5087918311600114620001c2578492620001b6575b5050600019600383901b1c191690841b1783555b3315620001a05760068054336001600160a01b031982168117909255835195600b9290916001600160a01b03167f8be0079c531659141344cd1fd0a4f28419497f9722a3daafe3b4186f6b6457e08580a38460075533835252209060ff1982541617905561205b9081620003ac8239f35b6024915190631e4fbdf760e01b82526004820152fd5b0151905038806200011b565b8685528785208794509190601f198416865b8a8282106200020f5750508411620001f5575b505050811b0183556200012f565b015160001960f88460031b161c19169055388080620001e7565b8385015186558a97909501949384019301620001d4565b909192508685528785208380860160051c8201928a871062000271575b9186958a929594930160051c01915b8281106200026257505062000106565b87815586955089910162000252565b9250819262000243565b634e487b7160e01b85526022600452602485fd5b90607f1690620000f0565b634e487b7160e01b84526041600452602484fd5b015190503880620000c2565b8780528a88208a94509190601f198416895b8d828210620003075750508411620002ed575b505050811b018455620000d6565b015160001960f88460031b161c19169055388080620002df565b8385015186558d97909501949384019301620002cc565b9091508680528987208580850160051c8201928c861062000367575b918b91869594930160051c01915b82811062000358575050620000ac565b8981558594508b910162000348565b925081926200033a565b634e487b7160e01b86526022600452602486fd5b93607f169362000095565b634e487b7160e01b600052604160045260246000fd5b600080fdfe6080604052600436101561001257600080fd5b60003560e01c806301ffc9a7146101d257806306fdde03146101cd578063081812fc146101c8578063095ea7b3146101c3578063143dc3f8146101be57806318160ddd146101b957806323b872dd146101b457806342842e0e146101af578063525f91d8146101aa5780635ccc561e1461015f5780636352211e146101a557806370a08231146101a0578063715018a61461019b57806380a9aed014610196578063864f976f146101915780638da5cb5b1461018c57806395d89b4114610187578063a22cb46514610182578063aa271e1a1461017d578063b45a3c0e14610178578063b80180e714610173578063b88d4fde1461016e578063c87b56dd14610169578063cf456ae714610164578063d5b141e71461015f578063e68dd3421461015a578063e985e9c5146101555763f2fde38b1461015057600080fd5b6112d7565b61127a565b61121f565b6107c3565b6111df565b610f4b565b610ee5565b610e4b565b610e23565b610de4565b610d3e565b610c6a565b610c41565b610a23565b6108db565b61087d565b610824565b6107f4565b610754565b6105cb565b6105b4565b61054f565b61051e565b61041f565b6103b5565b6102d2565b6101ee565b6001600160e01b03198116036101e957565b600080fd5b346101e95760203660031901126101e957602060043561020d816101d7565b63ffffffff60e01b16635a2d1e0760e11b8114908115610233575b506040519015158152f35b6380ac58cd60e01b811491508115610265575b8115610254575b5038610228565b6301ffc9a760e01b1490503861024d565b635b5e139f60e01b81149150610246565b60005b8381106102895750506000910152565b8181015183820152602001610279565b906020916102b281518092818552858086019101610276565b601f01601f1916010190565b9060206102cf928181520190610299565b90565b346101e9576000806003193601126103b257604051908080546102f4816105ff565b80855291600191808316908115610388575060011461032e575b61032a8561031e8187038261068c565b604051918291826102be565b0390f35b80809450527f290decd9548b62a8d60345a988386fc84ba6bc95484008f6362f93160ef3e5635b82841061037057505050810160200161031e8261032a61030e565b80546020858701810191909152909301928101610355565b86955061032a9693506020925061031e94915060ff191682840152151560051b820101929361030e565b80fd5b346101e95760203660031901126101e9576004356103d281611518565b506000526004602052602060018060a01b0360406000205416604051908152f35b600435906001600160a01b03821682036101e957565b602435906001600160a01b03821682036101e957565b346101e95760403660031901126101e9576104386103f3565b6024359061044582611518565b3315158061050b575b806104dd575b6104c5576104c3926104a49181906001600160a01b0385811691167f8c5be1e5ebec7d5bd14f71427d1e84f3dd0314c0f7b2291e5b200ac8c7c3b925600080a46000526004602052604060002090565b80546001600160a01b0319166001600160a01b03909216919091179055565b005b60405163a9fbf51f60e01b8152336004820152602490fd5b506001600160a01b038116600090815260056020908152604080832033845290915290205460ff1615610454565b506001600160a01b03811633141561044e565b346101e95760203660031901126101e957600435600052600a602052602060ff604060002054166040519015158152f35b346101e95760003660031901126101e957600754600019810190811161057a57602090604051908152f35b61179a565b60609060031901126101e9576001600160a01b039060043582811681036101e9579160243590811681036101e9579060443590565b346101e9576104c36105c53661057f565b91611391565b346101e9576104c36105dc3661057f565b90604051926105ea84610670565b600084526105f9838383611391565b336116ed565b90600182811c9216801561062f575b602083101461061957565b634e487b7160e01b600052602260045260246000fd5b91607f169161060e565b634e487b7160e01b600052604160045260246000fd5b6060810190811067ffffffffffffffff82111761066b57604052565b610639565b6020810190811067ffffffffffffffff82111761066b57604052565b90601f8019910116810190811067ffffffffffffffff82111761066b57604052565b90604051918260008254926106c2846105ff565b90818452600194858116908160001461073157506001146106ee575b50506106ec9250038361068c565b565b9093915060005260209081600020936000915b8183106107195750506106ec935082010138806106de565b85548884018501529485019487945091830191610701565b9150506106ec94506020925060ff191682840152151560051b82010138806106de565b346101e95760203660031901126101e95760043560005260086020526107ab6040600020610781816106ae565b906107b96002610793600184016106ae565b92015491604051948594606086526060860190610299565b908482036020860152610299565b9060408301520390f35b346101e95760203660031901126101e957600435600052600c602052602060ff604060002054166040519015158152f35b346101e95760203660031901126101e9576020610812600435611518565b6040516001600160a01b039091168152f35b346101e95760203660031901126101e9576001600160a01b036108456103f3565b1680156108645760005260036020526020604060002054604051908152f35b6040516322718ad960e21b815260006004820152602490fd5b346101e9576000806003193601126103b257610897611365565b600680546001600160a01b0319811690915581906001600160a01b03167f8be0079c531659141344cd1fd0a4f28419497f9722a3daafe3b4186f6b6457e08280a380f35b346101e95760203660031901126101e957600435600090338252600b602052604060ff818420541615806109e0575b6109d057811580156109c4575b6109b557818352600c6020528083205460ff166109a55761099f7f09e41d39f5fbe80f71bc2f0a44e937a0ee3dff62dd07f191a8a461a339891a039161097761096a85600052600c602052604060002090565b805460ff19166001179055565b61099361098e856000526008602052604060002090565b611bd8565b519051918291826102be565b0390a280f35b5163905e710760e01b8152600490fd5b51626f708760e21b8152600490fd5b50600754821015610917565b51633e34a41b60e21b8152600490fd5b506006546001600160a01b031633141561090a565b9181601f840112156101e95782359167ffffffffffffffff83116101e957602083818601950101116101e957565b346101e95760603660031901126101e957610a3c6103f3565b6024359067ffffffffffffffff908183116101e957610a60600493369085016109f5565b90926044359081116101e957610a7990369086016109f5565b33600052600b60205260409460ff8660002054161580610c2c575b610c1c578315610c0c576001600160a01b038516600090815260096020526040902054610bfc57610ace610ac9368684610eae565b611d04565b8651610af081610ae2602082018095611783565b03601f19810183528261068c565b51902096610b12610b0b89600052600a602052604060002090565b5460ff1690565b610bee5761032a61096a88610bb58b8a610bb08b610b8d8c8c610b848d610b596007549c8d9a610b49610b448d6117b0565b600755565b600052600a602052604060002090565b6001600160a01b0388166000908152600960205260409020899055610b7c610e85565b953691610eae565b84523691610eae565b60208201524286820152610bab846000526008602052604060002090565b6118e2565b6119d8565b80518281527f032bc66be43dbccb7487781d168eb7bda224628a3b2c3388bdf69b532a3a161190602090a1519081529081906020820190565b8651639b08112560e01b8152fd5b85516371b95a0b60e01b81528790fd5b8551632ef1310560e01b81528790fd5b8551633e34a41b60e21b81528790fd5b506006546001600160a01b0316331415610a94565b346101e95760003660031901126101e9576006546040516001600160a01b039091168152602090f35b346101e9576000806003193601126103b25760405190806001805491610c8f836105ff565b808652928281169081156103885750600114610cb55761032a8561031e8187038261068c565b92508083527fb10e2d527612073b26eecdfd717e6a320cf44b4afac2b0732d9fcbe2b7fa0cf65b828410610cf757505050810160200161031e8261032a61030e565b80546020858701810191909152909301928101610cdc565b60409060031901126101e9576004356001600160a01b03811681036101e9579060243580151581036101e95790565b346101e957610d4c36610d0f565b6001600160a01b038216918215610dcb5781610d8a610d9b9233600052600560205260406000209060018060a01b0316600052602052604060002090565b9060ff801983541691151516179055565b60405190151581527f17307eab39ab6107e8899845ad3d59bd9653f200f220920489ca2b5937696c3160203392a3005b604051630b61174360e31b815260048101849052602490fd5b346101e95760203660031901126101e9576001600160a01b03610e056103f3565b16600052600b602052602060ff604060002054166040519015158152f35b346101e95760203660031901126101e957610e3f600435611518565b50602060405160018152f35b346101e95760203660031901126101e9576001600160a01b03610e6c6103f3565b1660005260096020526020604060002054604051908152f35b604051906106ec8261064f565b67ffffffffffffffff811161066b57601f01601f191660200190565b929192610eba82610e92565b91610ec8604051938461068c565b8294818452818301116101e9578281602093846000960137010152565b346101e95760803660031901126101e957610efe6103f3565b610f06610409565b906044356064359267ffffffffffffffff84116101e957366023850112156101e957610f3f6104c3943690602481600401359101610eae565b926105f9838383611391565b346101e95760203660031901126101e957600435610f6881611518565b5060005260086020526040600020610f7f90611bd8565b805160208201519160400151610f9490611e08565b6040516f03d913730b6b2911d1120b3b2b73a1d160851b6020820152928392610fc06030850182611783565b7f222c226465736372697074696f6e223a22566973696f6e20436861696e20414981527f204167656e7420536f756c426f756e64204964656e7469747920546f6b656e2060208201526b0a1152540b4d4c4e4c8a488b60a21b6040820152604c016d2261747472696275746573223a5b60901b8152600e017f7b2274726169745f74797065223a224167656e74204e616d65222c2276616c7581526332911d1160e11b602082015260240161107491611783565b62089f4b60ea1b81526003017f7b2274726169745f74797065223a22506c6174666f726d222c2276616c7565228152611d1160f11b60208201526022016110ba91611783565b62089f4b60ea1b81526003017f7b2274726169745f74797065223a224d696e746564204174222c22646973706c81527f61795f74797065223a2264617465222c2276616c7565223a0000000000000000602082015260380161111b91611783565b611f4b60f21b81526002017f7b2274726169745f74797065223a22536f756c426f756e64222c2276616c7565815268223a2274727565227d60b81b6020820152602901615d7d60f01b81526002010390601f1991828101825261117e908261068c565b61118790611f2a565b6040517f646174613a6170706c69636174696f6e2f6a736f6e3b6261736536342c000000602082015291908290603d82016111c191611783565b0390810182526111d1908261068c565b60405161032a8192826102be565b346101e9576104c36111f036610d0f565b906111f9611365565b60018060a01b0316600052600b60205260406000209060ff801983541691151516179055565b346101e95760203660031901126101e95761127061124361123e6103f3565b611c0e565b9193906112626040519586958652608060208701526080860190610299565b908482036040860152610299565b9060608301520390f35b346101e95760403660031901126101e957602060ff6112cb61129a6103f3565b6112a2610409565b6001600160a01b0391821660009081526005865260408082209290931681526020919091522090565b54166040519015158152f35b346101e95760203660031901126101e9576112f06103f3565b6112f8611365565b6001600160a01b0390811690811561134c57600654826bffffffffffffffffffffffff60a01b821617600655167f8be0079c531659141344cd1fd0a4f28419497f9722a3daafe3b4186f6b6457e0600080a3005b604051631e4fbdf760e01b815260006004820152602490fd5b6006546001600160a01b0316330361137957565b60405163118cdaa760e01b8152336004820152602490fd5b6001600160a01b039082821680156114c8576000908582526002602052836040832054166114b657858252600260205260408220548692907fddf252ad1be2c89b69c2b068fc378daa952ba7f163c4a11628f55a4df523b3ef906001600160a01b031691336114a6575b61143e87841698899485611471575b506001600160a01b0381166000908152600360205260409020600181540190556104a4876000526002602052604060002090565b80a4169182820361144e57505050565b60649350604051926364283d7b60e01b8452600484015260248301526044820152fd5b6114989061147e896114f4565b6001600160a01b0316600090815260036020526040902090565b80546000190190553861140a565b6114b1853385611aff565b6113fb565b604051631267838f60e11b8152600490fd5b604051633250574960e11b815260006004820152602490fd5b604051906114ee82610670565b60008252565b611508906000526004602052604060002090565b80546001600160a01b0319169055565b6000818152600260205260409020546001600160a01b031690811561153b575090565b60249060405190637e27328960e01b82526004820152fd5b908160209103126101e957516102cf816101d7565b6102cf939260809260018060a01b031682526000602083015260408201528160608201520190610299565b6001600160a01b0391821681529116602082015260408101919091526080606082018190526102cf92910190610299565b3d156115ef573d906115d582610e92565b916115e3604051938461068c565b82523d6000602084013e565b606090565b91929092833b611605575b50505050565b611629916020916040519384928392630a85bd0160e11b9788855260048501611568565b038160006001600160a01b0388165af1600091816116bd575b5061168157826116506115c4565b805191908261167a57604051633250574960e11b81526001600160a01b0383166004820152602490fd5b6020915001fd5b6001600160e01b0319160361169a5750388080806115ff565b604051633250574960e11b81526001600160a01b03919091166004820152602490fd5b6116df91925060203d81116116e6575b6116d7818361068c565b810190611553565b9038611642565b503d6116cd565b92939193843b6116ff575b5050505050565b6020916117226040519485938493630a85bd0160e11b9889865260048601611593565b038160006001600160a01b0388165af160009181611763575b5061174957826116506115c4565b6001600160e01b0319160361169a575038808080806116f8565b61177c91925060203d81116116e6576116d7818361068c565b903861173b565b9061179660209282815194859201610276565b0190565b634e487b7160e01b600052601160045260246000fd5b600019811461057a5760010190565b90601f81116117cd57505050565b600091825260208220906020601f850160051c83019410611809575b601f0160051c01915b8281106117fe57505050565b8181556001016117f2565b90925082906117e9565b919091825167ffffffffffffffff811161066b5761183b8161183584546105ff565b846117bf565b602080601f831160011461187757508192939460009261186c575b50508160011b916000199060031b1c1916179055565b015190503880611856565b90601f1983169561188d85600052602060002090565b926000905b8882106118ca575050836001959697106118b1575b505050811b019055565b015160001960f88460031b161c191690553880806118a7565b80600185968294968601518155019501930190611892565b908051805167ffffffffffffffff811161066b5761190a8161190486546105ff565b866117bf565b6020918290601f83116001146119625792826002959361195093604096600092611957575b50508160011b916000199060031b1c19161786555b82015160018601611813565b0151910155565b01519050388061192f565b90601f1983169161197887600052602060002090565b9260005b8181106119c157509361195093604096936001938360029a98106119a8575b505050811b018655611944565b015160001960f88460031b161c1916905538808061199b565b92938660018192878601518155019501930161197c565b9190916040928351916119ea83610670565b60008084526001600160a01b038281168015611ae7578483526002602052818884205416611ad6578483526002602052878320548591906001600160a01b03169283168015159384611abb575b506001600160a01b038616600090815260036020526040902060018154019055611a6f866104a4856000526002602052604060002090565b7fddf252ad1be2c89b69c2b068fc378daa952ba7f163c4a11628f55a4df523b3ef8580a4611aa457506106ec939450336115f4565b6024908651906339e3563760e11b82526004820152fd5b611ac89061147e856114f4565b805460001901905538611a37565b8751631267838f60e11b8152600490fd5b8751633250574960e11b815260048101849052602490fd5b6001600160a01b03908282168015159081611b6a575b5015611b215750505050565b16611b3f57604051637e27328960e01b815260048101839052602490fd5b60405163177e802f60e01b81526001600160a01b039190911660048201526024810191909152604490fd5b82841680821492508215611ba2575b508115611b88575b5038611b15565b905084600052600460205282604060002054161438611b81565b909150600052600560205260ff611bcf8560406000209060018060a01b0316600052602052604060002090565b54169038611b79565b90604051611be58161064f565b604060028294611bf4816106ae565b8452611c02600182016106ae565b60208501520154910152565b6001600160a01b03166000908152600960205260408082205492918315611c73578084839252600860205220918151611c468161064f565b611c4f846106ae565b81526002611c5f600186016106ae565b948560208401520154809382015251929190565b8091929350928251611c8481610670565b8281529251611c9281610670565b8281529190565b90611ca382610e92565b611cb0604051918261068c565b8281528092611cc1601f1991610e92565b0190602036910137565b908151811015611cdc570160200190565b634e487b7160e01b600052603260045260246000fd5b60ff60209116019060ff821161057a57565b90611d0f8251611c99565b600092835b8151811015611dd757611da190604160f81b611d51611d44611d368487611ccb565b516001600160f81b03191690565b6001600160f81b03191690565b101580611db3575b15611da657611d8f611d7f611d7a611d74611d368588611ccb565b60f81c90565b611cf2565b60f81b6001600160f81b03191690565b861a611d9b8286611ccb565b536117b0565b611d14565b611d8f611d368285611ccb565b50602d60f91b6001600160f81b0319611dcf611d368487611ccb565b161115611d59565b5090925050565b603001908160301161057a57565b906002820180921161057a57565b906020820180921161057a57565b8015611e84576000818181805b611e6c5750611e2381611c99565b935b611e2f5750505090565b600019810190811161057a578091600a91611e63611e5a611d7f611e54868606611dde565b60ff1690565b861a9187611ccb565b53049081611e25565b9150611e79600a916117b0565b910480849291611e15565b506040516040810181811067ffffffffffffffff82111761066b5760405260018152600360fc1b602082015290565b60405190611ec08261064f565b604082527f6768696a6b6c6d6e6f707172737475767778797a303132333435363738392b2f6040837f4142434445464748494a4b4c4d4e4f505152535455565758595a61626364656660208201520152565b600281901b91906001600160fe1b0381160361057a57565b611f32611eb3565b81511561201b57611f55611f50611f498451611dec565b6003900490565b611f12565b91611f67611f6284611dfa565b611c99565b92600091602085015b838251811015611fd55790600491600380910195840101516001603f9080828460121c168a010151918960ff9384848488600c1c1684010151168585600894868a60061c160101511691831b01821b01901b931689010151160160e01b815201611f70565b509250600391935051068060011461200757600214611ff5575b50815290565b603d60f81b6000199091015238611fef565b50613d3d60f01b6001199091015238611fef565b50506102cf6114e156fea2646970667358221220476ccc50ed513e9ff55b9ddbc7a8c5be3a2e9f3c1073773e2ccbfcbb7f0db45964736f6c63430008140033","opcodes":"PUSH1 0x80 CALLVALUE PUSH3 0x3A6 JUMPI PUSH1 0x1 PUSH1 0x1 PUSH1 0x40 SHL SUB SWAP1 PUSH1 0x40 DUP2 DUP2 ADD DUP4 DUP2 GT DUP4 DUP3 LT OR PUSH3 0x390 JUMPI DUP2 MSTORE PUSH1 0x15 DUP3 MSTORE PUSH1 0x20 SWAP3 PUSH32 0x566973696F6E204167656E74204964656E746974790000000000000000000000 DUP5 DUP5 ADD MSTORE DUP2 MLOAD SWAP1 DUP3 DUP3 ADD DUP3 DUP2 LT DUP3 DUP3 GT OR PUSH3 0x390 JUMPI DUP4 MSTORE PUSH1 0x5 DUP3 MSTORE PUSH5 0x159054D095 PUSH1 0xDA SHL DUP6 DUP4 ADD MSTORE DUP4 MLOAD DUP2 DUP2 GT PUSH3 0x390 JUMPI PUSH1 0x0 SWAP3 DUP4 SLOAD SWAP2 PUSH1 0x1 SWAP7 DUP8 DUP5 DUP2 SHR SWAP5 AND DUP1 ISZERO PUSH3 0x385 JUMPI JUMPDEST DUP10 DUP6 LT EQ PUSH3 0x371 JUMPI DUP2 SWAP1 PUSH1 0x1F SWAP5 DUP6 DUP2 GT PUSH3 0x31E JUMPI JUMPDEST POP DUP10 SWAP1 DUP6 DUP4 GT PUSH1 0x1 EQ PUSH3 0x2BA JUMPI DUP8 SWAP3 PUSH3 0x2AE JUMPI JUMPDEST POP POP PUSH1 0x0 NOT PUSH1 0x3 DUP4 SWAP1 SHL SHR NOT AND SWAP1 DUP8 SHL OR DUP5 SSTORE JUMPDEST DUP1 MLOAD SWAP3 DUP4 GT PUSH3 0x29A JUMPI DUP6 SLOAD DUP7 DUP2 DUP2 SHR SWAP2 AND DUP1 ISZERO PUSH3 0x28F JUMPI JUMPDEST DUP9 DUP3 LT EQ PUSH3 0x27B JUMPI SWAP1 DUP2 DUP4 DUP6 SWAP5 SWAP4 GT PUSH3 0x226 JUMPI JUMPDEST POP DUP8 SWAP2 DUP4 GT PUSH1 0x1 EQ PUSH3 0x1C2 JUMPI DUP5 SWAP3 PUSH3 0x1B6 JUMPI JUMPDEST POP POP PUSH1 0x0 NOT PUSH1 0x3 DUP4 SWAP1 SHL SHR NOT AND SWAP1 DUP5 SHL OR DUP4 SSTORE JUMPDEST CALLER ISZERO PUSH3 0x1A0 JUMPI PUSH1 0x6 DUP1 SLOAD CALLER PUSH1 0x1 PUSH1 0x1 PUSH1 0xA0 SHL SUB NOT DUP3 AND DUP2 OR SWAP1 SWAP3 SSTORE DUP4 MLOAD SWAP6 PUSH1 0xB SWAP3 SWAP1 SWAP2 PUSH1 0x1 PUSH1 0x1 PUSH1 0xA0 SHL SUB AND PUSH32 0x8BE0079C531659141344CD1FD0A4F28419497F9722A3DAAFE3B4186F6B6457E0 DUP6 DUP1 LOG3 DUP5 PUSH1 0x7 SSTORE CALLER DUP4 MSTORE MSTORE KECCAK256 SWAP1 PUSH1 0xFF NOT DUP3 SLOAD AND OR SWAP1 SSTORE PUSH2 0x205B SWAP1 DUP2 PUSH3 0x3AC DUP3 CODECOPY RETURN JUMPDEST PUSH1 0x24 SWAP2 MLOAD SWAP1 PUSH4 0x1E4FBDF7 PUSH1 0xE0 SHL DUP3 MSTORE PUSH1 0x4 DUP3 ADD MSTORE REVERT JUMPDEST ADD MLOAD SWAP1 POP CODESIZE DUP1 PUSH3 0x11B JUMP JUMPDEST DUP7 DUP6 MSTORE DUP8 DUP6 KECCAK256 DUP8 SWAP5 POP SWAP2 SWAP1 PUSH1 0x1F NOT DUP5 AND DUP7 JUMPDEST DUP11 DUP3 DUP3 LT PUSH3 0x20F JUMPI POP POP DUP5 GT PUSH3 0x1F5 JUMPI JUMPDEST POP POP POP DUP2 SHL ADD DUP4 SSTORE PUSH3 0x12F JUMP JUMPDEST ADD MLOAD PUSH1 0x0 NOT PUSH1 0xF8 DUP5 PUSH1 0x3 SHL AND SHR NOT AND SWAP1 SSTORE CODESIZE DUP1 DUP1 PUSH3 0x1E7 JUMP JUMPDEST DUP4 DUP6 ADD MLOAD DUP7 SSTORE DUP11 SWAP8 SWAP1 SWAP6 ADD SWAP5 SWAP4 DUP5 ADD SWAP4 ADD PUSH3 0x1D4 JUMP JUMPDEST SWAP1 SWAP2 SWAP3 POP DUP7 DUP6 MSTORE DUP8 DUP6 KECCAK256 DUP4 DUP1 DUP7 ADD PUSH1 0x5 SHR DUP3 ADD SWAP3 DUP11 DUP8 LT PUSH3 0x271 JUMPI JUMPDEST SWAP2 DUP7 SWAP6 DUP11 SWAP3 SWAP6 SWAP5 SWAP4 ADD PUSH1 0x5 SHR ADD SWAP2 JUMPDEST DUP3 DUP2 LT PUSH3 0x262 JUMPI POP POP PUSH3 0x106 JUMP JUMPDEST DUP8 DUP2 SSTORE DUP7 SWAP6 POP DUP10 SWAP2 ADD PUSH3 0x252 JUMP JUMPDEST SWAP3 POP DUP2 SWAP3 PUSH3 0x243 JUMP JUMPDEST PUSH4 0x4E487B71 PUSH1 0xE0 SHL DUP6 MSTORE PUSH1 0x22 PUSH1 0x4 MSTORE PUSH1 0x24 DUP6 REVERT JUMPDEST SWAP1 PUSH1 0x7F AND SWAP1 PUSH3 0xF0 JUMP JUMPDEST PUSH4 0x4E487B71 PUSH1 0xE0 SHL DUP5 MSTORE PUSH1 0x41 PUSH1 0x4 MSTORE PUSH1 0x24 DUP5 REVERT JUMPDEST ADD MLOAD SWAP1 POP CODESIZE DUP1 PUSH3 0xC2 JUMP JUMPDEST DUP8 DUP1 MSTORE DUP11 DUP9 KECCAK256 DUP11 SWAP5 POP SWAP2 SWAP1 PUSH1 0x1F NOT DUP5 AND DUP10 JUMPDEST DUP14 DUP3 DUP3 LT PUSH3 0x307 JUMPI POP POP DUP5 GT PUSH3 0x2ED JUMPI JUMPDEST POP POP POP DUP2 SHL ADD DUP5 SSTORE PUSH3 0xD6 JUMP JUMPDEST ADD MLOAD PUSH1 0x0 NOT PUSH1 0xF8 DUP5 PUSH1 0x3 SHL AND SHR NOT AND SWAP1 SSTORE CODESIZE DUP1 DUP1 PUSH3 0x2DF JUMP JUMPDEST DUP4 DUP6 ADD MLOAD DUP7 SSTORE DUP14 SWAP8 SWAP1 SWAP6 ADD SWAP5 SWAP4 DUP5 ADD SWAP4 ADD PUSH3 0x2CC JUMP JUMPDEST SWAP1 SWAP2 POP DUP7 DUP1 MSTORE DUP10 DUP8 KECCAK256 DUP6 DUP1 DUP6 ADD PUSH1 0x5 SHR DUP3 ADD SWAP3 DUP13 DUP7 LT PUSH3 0x367 JUMPI JUMPDEST SWAP2 DUP12 SWAP2 DUP7 SWAP6 SWAP5 SWAP4 ADD PUSH1 0x5 SHR ADD SWAP2 JUMPDEST DUP3 DUP2 LT PUSH3 0x358 JUMPI POP POP PUSH3 0xAC JUMP JUMPDEST DUP10 DUP2 SSTORE DUP6 SWAP5 POP DUP12 SWAP2 ADD PUSH3 0x348 JUMP JUMPDEST SWAP3 POP DUP2 SWAP3 PUSH3 0x33A JUMP JUMPDEST PUSH4 0x4E487B71 PUSH1 0xE0 SHL DUP7 MSTORE PUSH1 0x22 PUSH1 0x4 MSTORE PUSH1 0x24 DUP7 REVERT JUMPDEST SWAP4 PUSH1 0x7F AND SWAP4 PUSH3 0x95 JUMP JUMPDEST PUSH4 0x4E487B71 PUSH1 0xE0 SHL PUSH1 0x0 MSTORE PUSH1 0x41 PUSH1 0x4 MSTORE PUSH1 0x24 PUSH1 0x0 REVERT JUMPDEST PUSH1 0x0 DUP1 REVERT INVALID PUSH1 0x80 PUSH1 0x40 MSTORE PUSH1 0x4 CALLDATASIZE LT ISZERO PUSH2 0x12 JUMPI PUSH1 0x0 DUP1 REVERT JUMPDEST PUSH1 0x0 CALLDATALOAD PUSH1 0xE0 SHR DUP1 PUSH4 0x1FFC9A7 EQ PUSH2 0x1D2 JUMPI DUP1 PUSH4 0x6FDDE03 EQ PUSH2 0x1CD JUMPI DUP1 PUSH4 0x81812FC EQ PUSH2 0x1C8 JUMPI DUP1 PUSH4 0x95EA7B3 EQ PUSH2 0x1C3 JUMPI DUP1 PUSH4 0x143DC3F8 EQ PUSH2 0x1BE JUMPI DUP1 PUSH4 0x18160DDD EQ PUSH2 0x1B9 JUMPI DUP1 PUSH4 0x23B872DD EQ PUSH2 0x1B4 JUMPI DUP1 PUSH4 0x42842E0E EQ PUSH2 0x1AF JUMPI DUP1 PUSH4 0x525F91D8 EQ PUSH2 0x1AA JUMPI DUP1 PUSH4 0x5CCC561E EQ PUSH2 0x15F JUMPI DUP1 PUSH4 0x6352211E EQ PUSH2 0x1A5 JUMPI DUP1 PUSH4 0x70A08231 EQ PUSH2 0x1A0 JUMPI DUP1 PUSH4 0x715018A6 EQ PUSH2 0x19B JUMPI DUP1 PUSH4 0x80A9AED0 EQ PUSH2 0x196 JUMPI DUP1 PUSH4 0x864F976F EQ PUSH2 0x191 JUMPI DUP1 PUSH4 0x8DA5CB5B EQ PUSH2 0x18C JUMPI DUP1 PUSH4 0x95D89B41 EQ PUSH2 0x187 JUMPI DUP1 PUSH4 0xA22CB465 EQ PUSH2 0x182 JUMPI DUP1 PUSH4 0xAA271E1A EQ PUSH2 0x17D JUMPI DUP1 PUSH4 0xB45A3C0E EQ PUSH2 0x178 JUMPI DUP1 PUSH4 0xB80180E7 EQ PUSH2 0x173 JUMPI DUP1 PUSH4 0xB88D4FDE EQ PUSH2 0x16E JUMPI DUP1 PUSH4 0xC87B56DD EQ PUSH2 0x169 JUMPI DUP1 PUSH4 0xCF456AE7 EQ PUSH2 0x164 JUMPI DUP1 PUSH4 0xD5B141E7 EQ PUSH2 0x15F JUMPI DUP1 PUSH4 0xE68DD342 EQ PUSH2 0x15A JUMPI DUP1 PUSH4 0xE985E9C5 EQ PUSH2 0x155 JUMPI PUSH4 0xF2FDE38B EQ PUSH2 0x150 JUMPI PUSH1 0x0 DUP1 REVERT JUMPDEST PUSH2 0x12D7 JUMP JUMPDEST PUSH2 0x127A JUMP JUMPDEST PUSH2 0x121F JUMP JUMPDEST PUSH2 0x7C3 JUMP JUMPDEST PUSH2 0x11DF JUMP JUMPDEST PUSH2 0xF4B JUMP JUMPDEST PUSH2 0xEE5 JUMP JUMPDEST PUSH2 0xE4B JUMP JUMPDEST PUSH2 0xE23 JUMP JUMPDEST PUSH2 0xDE4 JUMP JUMPDEST PUSH2 0xD3E JUMP JUMPDEST PUSH2 0xC6A JUMP JUMPDEST PUSH2 0xC41 JUMP JUMPDEST PUSH2 0xA23 JUMP JUMPDEST PUSH2 0x8DB JUMP JUMPDEST PUSH2 0x87D JUMP JUMPDEST PUSH2 0x824 JUMP JUMPDEST PUSH2 0x7F4 JUMP JUMPDEST PUSH2 0x754 JUMP JUMPDEST PUSH2 0x5CB JUMP JUMPDEST PUSH2 0x5B4 JUMP JUMPDEST PUSH2 0x54F JUMP JUMPDEST PUSH2 0x51E JUMP JUMPDEST PUSH2 0x41F JUMP JUMPDEST PUSH2 0x3B5 JUMP JUMPDEST PUSH2 0x2D2 JUMP JUMPDEST PUSH2 0x1EE JUMP JUMPDEST PUSH1 0x1 PUSH1 0x1 PUSH1 0xE0 SHL SUB NOT DUP2 AND SUB PUSH2 0x1E9 JUMPI JUMP JUMPDEST PUSH1 0x0 DUP1 REVERT JUMPDEST CALLVALUE PUSH2 0x1E9 JUMPI PUSH1 0x20 CALLDATASIZE PUSH1 0x3 NOT ADD SLT PUSH2 0x1E9 JUMPI PUSH1 0x20 PUSH1 0x4 CALLDATALOAD PUSH2 0x20D DUP2 PUSH2 0x1D7 JUMP JUMPDEST PUSH4 0xFFFFFFFF PUSH1 0xE0 SHL AND PUSH4 0x5A2D1E07 PUSH1 0xE1 SHL DUP2 EQ SWAP1 DUP2 ISZERO PUSH2 0x233 JUMPI JUMPDEST POP PUSH1 0x40 MLOAD SWAP1 ISZERO ISZERO DUP2 MSTORE RETURN JUMPDEST PUSH4 0x80AC58CD PUSH1 0xE0 SHL DUP2 EQ SWAP2 POP DUP2 ISZERO PUSH2 0x265 JUMPI JUMPDEST DUP2 ISZERO PUSH2 0x254 JUMPI JUMPDEST POP CODESIZE PUSH2 0x228 JUMP JUMPDEST PUSH4 0x1FFC9A7 PUSH1 0xE0 SHL EQ SWAP1 POP CODESIZE PUSH2 0x24D JUMP JUMPDEST PUSH4 0x5B5E139F PUSH1 0xE0 SHL DUP2 EQ SWAP2 POP PUSH2 0x246 JUMP JUMPDEST PUSH1 0x0 JUMPDEST DUP4 DUP2 LT PUSH2 0x289 JUMPI POP POP PUSH1 0x0 SWAP2 ADD MSTORE JUMP JUMPDEST DUP2 DUP2 ADD MLOAD DUP4 DUP3 ADD MSTORE PUSH1 0x20 ADD PUSH2 0x279 JUMP JUMPDEST SWAP1 PUSH1 0x20 SWAP2 PUSH2 0x2B2 DUP2 MLOAD DUP1 SWAP3 DUP2 DUP6 MSTORE DUP6 DUP1 DUP7 ADD SWAP2 ADD PUSH2 0x276 JUMP JUMPDEST PUSH1 0x1F ADD PUSH1 0x1F NOT AND ADD ADD SWAP1 JUMP JUMPDEST SWAP1 PUSH1 0x20 PUSH2 0x2CF SWAP3 DUP2 DUP2 MSTORE ADD SWAP1 PUSH2 0x299 JUMP JUMPDEST SWAP1 JUMP JUMPDEST CALLVALUE PUSH2 0x1E9 JUMPI PUSH1 0x0 DUP1 PUSH1 0x3 NOT CALLDATASIZE ADD SLT PUSH2 0x3B2 JUMPI PUSH1 0x40 MLOAD SWAP1 DUP1 DUP1 SLOAD PUSH2 0x2F4 DUP2 PUSH2 0x5FF JUMP JUMPDEST DUP1 DUP6 MSTORE SWAP2 PUSH1 0x1 SWAP2 DUP1 DUP4 AND SWAP1 DUP2 ISZERO PUSH2 0x388 JUMPI POP PUSH1 0x1 EQ PUSH2 0x32E JUMPI JUMPDEST PUSH2 0x32A DUP6 PUSH2 0x31E DUP2 DUP8 SUB DUP3 PUSH2 0x68C JUMP JUMPDEST PUSH1 0x40 MLOAD SWAP2 DUP3 SWAP2 DUP3 PUSH2 0x2BE JUMP JUMPDEST SUB SWAP1 RETURN JUMPDEST DUP1 DUP1 SWAP5 POP MSTORE PUSH32 0x290DECD9548B62A8D60345A988386FC84BA6BC95484008F6362F93160EF3E563 JUMPDEST DUP3 DUP5 LT PUSH2 0x370 JUMPI POP POP POP DUP2 ADD PUSH1 0x20 ADD PUSH2 0x31E DUP3 PUSH2 0x32A PUSH2 0x30E JUMP JUMPDEST DUP1 SLOAD PUSH1 0x20 DUP6 DUP8 ADD DUP2 ADD SWAP2 SWAP1 SWAP2 MSTORE SWAP1 SWAP4 ADD SWAP3 DUP2 ADD PUSH2 0x355 JUMP JUMPDEST DUP7 SWAP6 POP PUSH2 0x32A SWAP7 SWAP4 POP PUSH1 0x20 SWAP3 POP PUSH2 0x31E SWAP5 SWAP2 POP PUSH1 0xFF NOT AND DUP3 DUP5 ADD MSTORE ISZERO ISZERO PUSH1 0x5 SHL DUP3 ADD ADD SWAP3 SWAP4 PUSH2 0x30E JUMP JUMPDEST DUP1 REVERT JUMPDEST CALLVALUE PUSH2 0x1E9 JUMPI PUSH1 0x20 CALLDATASIZE PUSH1 0x3 NOT ADD SLT PUSH2 0x1E9 JUMPI PUSH1 0x4 CALLDATALOAD PUSH2 0x3D2 DUP2 PUSH2 0x1518 JUMP JUMPDEST POP PUSH1 0x0 MSTORE PUSH1 0x4 PUSH1 0x20 MSTORE PUSH1 0x20 PUSH1 0x1 DUP1 PUSH1 0xA0 SHL SUB PUSH1 0x40 PUSH1 0x0 KECCAK256 SLOAD AND PUSH1 0x40 MLOAD SWAP1 DUP2 MSTORE RETURN JUMPDEST PUSH1 0x4 CALLDATALOAD SWAP1 PUSH1 0x1 PUSH1 0x1 PUSH1 0xA0 SHL SUB DUP3 AND DUP3 SUB PUSH2 0x1E9 JUMPI JUMP JUMPDEST PUSH1 0x24 CALLDATALOAD SWAP1 PUSH1 0x1 PUSH1 0x1 PUSH1 0xA0 SHL SUB DUP3 AND DUP3 SUB PUSH2 0x1E9 JUMPI JUMP JUMPDEST CALLVALUE PUSH2 0x1E9 JUMPI PUSH1 0x40 CALLDATASIZE PUSH1 0x3 NOT ADD SLT PUSH2 0x1E9 JUMPI PUSH2 0x438 PUSH2 0x3F3 JUMP JUMPDEST PUSH1 0x24 CALLDATALOAD SWAP1 PUSH2 0x445 DUP3 PUSH2 0x1518 JUMP JUMPDEST CALLER ISZERO ISZERO DUP1 PUSH2 0x50B JUMPI JUMPDEST DUP1 PUSH2 0x4DD JUMPI JUMPDEST PUSH2 0x4C5 JUMPI PUSH2 0x4C3 SWAP3 PUSH2 0x4A4 SWAP2 DUP2 SWAP1 PUSH1 0x1 PUSH1 0x1 PUSH1 0xA0 SHL SUB DUP6 DUP2 AND SWAP2 AND PUSH32 0x8C5BE1E5EBEC7D5BD14F71427D1E84F3DD0314C0F7B2291E5B200AC8C7C3B925 PUSH1 0x0 DUP1 LOG4 PUSH1 0x0 MSTORE PUSH1 0x4 PUSH1 0x20 MSTORE PUSH1 0x40 PUSH1 0x0 KECCAK256 SWAP1 JUMP JUMPDEST DUP1 SLOAD PUSH1 0x1 PUSH1 0x1 PUSH1 0xA0 SHL SUB NOT AND PUSH1 0x1 PUSH1 0x1 PUSH1 0xA0 SHL SUB SWAP1 SWAP3 AND SWAP2 SWAP1 SWAP2 OR SWAP1 SSTORE JUMP JUMPDEST STOP JUMPDEST PUSH1 0x40 MLOAD PUSH4 0xA9FBF51F PUSH1 0xE0 SHL DUP2 MSTORE CALLER PUSH1 0x4 DUP3 ADD MSTORE PUSH1 0x24 SWAP1 REVERT JUMPDEST POP PUSH1 0x1 PUSH1 0x1 PUSH1 0xA0 SHL SUB DUP2 AND PUSH1 0x0 SWAP1 DUP2 MSTORE PUSH1 0x5 PUSH1 0x20 SWAP1 DUP2 MSTORE PUSH1 0x40 DUP1 DUP4 KECCAK256 CALLER DUP5 MSTORE SWAP1 SWAP2 MSTORE SWAP1 KECCAK256 SLOAD PUSH1 0xFF AND ISZERO PUSH2 0x454 JUMP JUMPDEST POP PUSH1 0x1 PUSH1 0x1 PUSH1 0xA0 SHL SUB DUP2 AND CALLER EQ ISZERO PUSH2 0x44E JUMP JUMPDEST CALLVALUE PUSH2 0x1E9 JUMPI PUSH1 0x20 CALLDATASIZE PUSH1 0x3 NOT ADD SLT PUSH2 0x1E9 JUMPI PUSH1 0x4 CALLDATALOAD PUSH1 0x0 MSTORE PUSH1 0xA PUSH1 0x20 MSTORE PUSH1 0x20 PUSH1 0xFF PUSH1 0x40 PUSH1 0x0 KECCAK256 SLOAD AND PUSH1 0x40 MLOAD SWAP1 ISZERO ISZERO DUP2 MSTORE RETURN JUMPDEST CALLVALUE PUSH2 0x1E9 JUMPI PUSH1 0x0 CALLDATASIZE PUSH1 0x3 NOT ADD SLT PUSH2 0x1E9 JUMPI PUSH1 0x7 SLOAD PUSH1 0x0 NOT DUP2 ADD SWAP1 DUP2 GT PUSH2 0x57A JUMPI PUSH1 0x20 SWAP1 PUSH1 0x40 MLOAD SWAP1 DUP2 MSTORE RETURN JUMPDEST PUSH2 0x179A JUMP JUMPDEST PUSH1 0x60 SWAP1 PUSH1 0x3 NOT ADD SLT PUSH2 0x1E9 JUMPI PUSH1 0x1 PUSH1 0x1 PUSH1 0xA0 SHL SUB SWAP1 PUSH1 0x4 CALLDATALOAD DUP3 DUP2 AND DUP2 SUB PUSH2 0x1E9 JUMPI SWAP2 PUSH1 0x24 CALLDATALOAD SWAP1 DUP2 AND DUP2 SUB PUSH2 0x1E9 JUMPI SWAP1 PUSH1 0x44 CALLDATALOAD SWAP1 JUMP JUMPDEST CALLVALUE PUSH2 0x1E9 JUMPI PUSH2 0x4C3 PUSH2 0x5C5 CALLDATASIZE PUSH2 0x57F JUMP JUMPDEST SWAP2 PUSH2 0x1391 JUMP JUMPDEST CALLVALUE PUSH2 0x1E9 JUMPI PUSH2 0x4C3 PUSH2 0x5DC CALLDATASIZE PUSH2 0x57F JUMP JUMPDEST SWAP1 PUSH1 0x40 MLOAD SWAP3 PUSH2 0x5EA DUP5 PUSH2 0x670 JUMP JUMPDEST PUSH1 0x0 DUP5 MSTORE PUSH2 0x5F9 DUP4 DUP4 DUP4 PUSH2 0x1391 JUMP JUMPDEST CALLER PUSH2 0x16ED JUMP JUMPDEST SWAP1 PUSH1 0x1 DUP3 DUP2 SHR SWAP3 AND DUP1 ISZERO PUSH2 0x62F JUMPI JUMPDEST PUSH1 0x20 DUP4 LT EQ PUSH2 0x619 JUMPI JUMP JUMPDEST PUSH4 0x4E487B71 PUSH1 0xE0 SHL PUSH1 0x0 MSTORE PUSH1 0x22 PUSH1 0x4 MSTORE PUSH1 0x24 PUSH1 0x0 REVERT JUMPDEST SWAP2 PUSH1 0x7F AND SWAP2 PUSH2 0x60E JUMP JUMPDEST PUSH4 0x4E487B71 PUSH1 0xE0 SHL PUSH1 0x0 MSTORE PUSH1 0x41 PUSH1 0x4 MSTORE PUSH1 0x24 PUSH1 0x0 REVERT JUMPDEST PUSH1 0x60 DUP2 ADD SWAP1 DUP2 LT PUSH8 0xFFFFFFFFFFFFFFFF DUP3 GT OR PUSH2 0x66B JUMPI PUSH1 0x40 MSTORE JUMP JUMPDEST PUSH2 0x639 JUMP JUMPDEST PUSH1 0x20 DUP2 ADD SWAP1 DUP2 LT PUSH8 0xFFFFFFFFFFFFFFFF DUP3 GT OR PUSH2 0x66B JUMPI PUSH1 0x40 MSTORE JUMP JUMPDEST SWAP1 PUSH1 0x1F DUP1 NOT SWAP2 ADD AND DUP2 ADD SWAP1 DUP2 LT PUSH8 0xFFFFFFFFFFFFFFFF DUP3 GT OR PUSH2 0x66B JUMPI PUSH1 0x40 MSTORE JUMP JUMPDEST SWAP1 PUSH1 0x40 MLOAD SWAP2 DUP3 PUSH1 0x0 DUP3 SLOAD SWAP3 PUSH2 0x6C2 DUP5 PUSH2 0x5FF JUMP JUMPDEST SWAP1 DUP2 DUP5 MSTORE PUSH1 0x1 SWAP5 DUP6 DUP2 AND SWAP1 DUP2 PUSH1 0x0 EQ PUSH2 0x731 JUMPI POP PUSH1 0x1 EQ PUSH2 0x6EE JUMPI JUMPDEST POP POP PUSH2 0x6EC SWAP3 POP SUB DUP4 PUSH2 0x68C JUMP JUMPDEST JUMP JUMPDEST SWAP1 SWAP4 SWAP2 POP PUSH1 0x0 MSTORE PUSH1 0x20 SWAP1 DUP2 PUSH1 0x0 KECCAK256 SWAP4 PUSH1 0x0 SWAP2 JUMPDEST DUP2 DUP4 LT PUSH2 0x719 JUMPI POP POP PUSH2 0x6EC SWAP4 POP DUP3 ADD ADD CODESIZE DUP1 PUSH2 0x6DE JUMP JUMPDEST DUP6 SLOAD DUP9 DUP5 ADD DUP6 ADD MSTORE SWAP5 DUP6 ADD SWAP5 DUP8 SWAP5 POP SWAP2 DUP4 ADD SWAP2 PUSH2 0x701 JUMP JUMPDEST SWAP2 POP POP PUSH2 0x6EC SWAP5 POP PUSH1 0x20 SWAP3 POP PUSH1 0xFF NOT AND DUP3 DUP5 ADD MSTORE ISZERO ISZERO PUSH1 0x5 SHL DUP3 ADD ADD CODESIZE DUP1 PUSH2 0x6DE JUMP JUMPDEST CALLVALUE PUSH2 0x1E9 JUMPI PUSH1 0x20 CALLDATASIZE PUSH1 0x3 NOT ADD SLT PUSH2 0x1E9 JUMPI PUSH1 0x4 CALLDATALOAD PUSH1 0x0 MSTORE PUSH1 0x8 PUSH1 0x20 MSTORE PUSH2 0x7AB PUSH1 0x40 PUSH1 0x0 KECCAK256 PUSH2 0x781 DUP2 PUSH2 0x6AE JUMP JUMPDEST SWAP1 PUSH2 0x7B9 PUSH1 0x2 PUSH2 0x793 PUSH1 0x1 DUP5 ADD PUSH2 0x6AE JUMP JUMPDEST SWAP3 ADD SLOAD SWAP2 PUSH1 0x40 MLOAD SWAP5 DUP6 SWAP5 PUSH1 0x60 DUP7 MSTORE PUSH1 0x60 DUP7 ADD SWAP1 PUSH2 0x299 JUMP JUMPDEST SWAP1 DUP5 DUP3 SUB PUSH1 0x20 DUP7 ADD MSTORE PUSH2 0x299 JUMP JUMPDEST SWAP1 PUSH1 0x40 DUP4 ADD MSTORE SUB SWAP1 RETURN JUMPDEST CALLVALUE PUSH2 0x1E9 JUMPI PUSH1 0x20 CALLDATASIZE PUSH1 0x3 NOT ADD SLT PUSH2 0x1E9 JUMPI PUSH1 0x4 CALLDATALOAD PUSH1 0x0 MSTORE PUSH1 0xC PUSH1 0x20 MSTORE PUSH1 0x20 PUSH1 0xFF PUSH1 0x40 PUSH1 0x0 KECCAK256 SLOAD AND PUSH1 0x40 MLOAD SWAP1 ISZERO ISZERO DUP2 MSTORE RETURN JUMPDEST CALLVALUE PUSH2 0x1E9 JUMPI PUSH1 0x20 CALLDATASIZE PUSH1 0x3 NOT ADD SLT PUSH2 0x1E9 JUMPI PUSH1 0x20 PUSH2 0x812 PUSH1 0x4 CALLDATALOAD PUSH2 0x1518 JUMP JUMPDEST PUSH1 0x40 MLOAD PUSH1 0x1 PUSH1 0x1 PUSH1 0xA0 SHL SUB SWAP1 SWAP2 AND DUP2 MSTORE RETURN JUMPDEST CALLVALUE PUSH2 0x1E9 JUMPI PUSH1 0x20 CALLDATASIZE PUSH1 0x3 NOT ADD SLT PUSH2 0x1E9 JUMPI PUSH1 0x1 PUSH1 0x1 PUSH1 0xA0 SHL SUB PUSH2 0x845 PUSH2 0x3F3 JUMP JUMPDEST AND DUP1 ISZERO PUSH2 0x864 JUMPI PUSH1 0x0 MSTORE PUSH1 0x3 PUSH1 0x20 MSTORE PUSH1 0x20 PUSH1 0x40 PUSH1 0x0 KECCAK256 SLOAD PUSH1 0x40 MLOAD SWAP1 DUP2 MSTORE RETURN JUMPDEST PUSH1 0x40 MLOAD PUSH4 0x22718AD9 PUSH1 0xE2 SHL DUP2 MSTORE PUSH1 0x0 PUSH1 0x4 DUP3 ADD MSTORE PUSH1 0x24 SWAP1 REVERT JUMPDEST CALLVALUE PUSH2 0x1E9 JUMPI PUSH1 0x0 DUP1 PUSH1 0x3 NOT CALLDATASIZE ADD SLT PUSH2 0x3B2 JUMPI PUSH2 0x897 PUSH2 0x1365 JUMP JUMPDEST PUSH1 0x6 DUP1 SLOAD PUSH1 0x1 PUSH1 0x1 PUSH1 0xA0 SHL SUB NOT DUP2 AND SWAP1 SWAP2 SSTORE DUP2 SWAP1 PUSH1 0x1 PUSH1 0x1 PUSH1 0xA0 SHL SUB AND PUSH32 0x8BE0079C531659141344CD1FD0A4F28419497F9722A3DAAFE3B4186F6B6457E0 DUP3 DUP1 LOG3 DUP1 RETURN JUMPDEST CALLVALUE PUSH2 0x1E9 JUMPI PUSH1 0x20 CALLDATASIZE PUSH1 0x3 NOT ADD SLT PUSH2 0x1E9 JUMPI PUSH1 0x4 CALLDATALOAD PUSH1 0x0 SWAP1 CALLER DUP3 MSTORE PUSH1 0xB PUSH1 0x20 MSTORE PUSH1 0x40 PUSH1 0xFF DUP2 DUP5 KECCAK256 SLOAD AND ISZERO DUP1 PUSH2 0x9E0 JUMPI JUMPDEST PUSH2 0x9D0 JUMPI DUP2 ISZERO DUP1 ISZERO PUSH2 0x9C4 JUMPI JUMPDEST PUSH2 0x9B5 JUMPI DUP2 DUP4 MSTORE PUSH1 0xC PUSH1 0x20 MSTORE DUP1 DUP4 KECCAK256 SLOAD PUSH1 0xFF AND PUSH2 0x9A5 JUMPI PUSH2 0x99F PUSH32 0x9E41D39F5FBE80F71BC2F0A44E937A0EE3DFF62DD07F191A8A461A339891A03 SWAP2 PUSH2 0x977 PUSH2 0x96A DUP6 PUSH1 0x0 MSTORE PUSH1 0xC PUSH1 0x20 MSTORE PUSH1 0x40 PUSH1 0x0 KECCAK256 SWAP1 JUMP JUMPDEST DUP1 SLOAD PUSH1 0xFF NOT AND PUSH1 0x1 OR SWAP1 SSTORE JUMP JUMPDEST PUSH2 0x993 PUSH2 0x98E DUP6 PUSH1 0x0 MSTORE PUSH1 0x8 PUSH1 0x20 MSTORE PUSH1 0x40 PUSH1 0x0 KECCAK256 SWAP1 JUMP JUMPDEST PUSH2 0x1BD8 JUMP JUMPDEST MLOAD SWAP1 MLOAD SWAP2 DUP3 SWAP2 DUP3 PUSH2 0x2BE JUMP JUMPDEST SUB SWAP1 LOG2 DUP1 RETURN JUMPDEST MLOAD PUSH4 0x905E7107 PUSH1 0xE0 SHL DUP2 MSTORE PUSH1 0x4 SWAP1 REVERT JUMPDEST MLOAD PUSH3 0x6F7087 PUSH1 0xE2 SHL DUP2 MSTORE PUSH1 0x4 SWAP1 REVERT JUMPDEST POP PUSH1 0x7 SLOAD DUP3 LT ISZERO PUSH2 0x917 JUMP JUMPDEST MLOAD PUSH4 0x3E34A41B PUSH1 0xE2 SHL DUP2 MSTORE PUSH1 0x4 SWAP1 REVERT JUMPDEST POP PUSH1 0x6 SLOAD PUSH1 0x1 PUSH1 0x1 PUSH1 0xA0 SHL SUB AND CALLER EQ ISZERO PUSH2 0x90A JUMP JUMPDEST SWAP2 DUP2 PUSH1 0x1F DUP5 ADD SLT ISZERO PUSH2 0x1E9 JUMPI DUP3 CALLDATALOAD SWAP2 PUSH8 0xFFFFFFFFFFFFFFFF DUP4 GT PUSH2 0x1E9 JUMPI PUSH1 0x20 DUP4 DUP2 DUP7 ADD SWAP6 ADD ADD GT PUSH2 0x1E9 JUMPI JUMP JUMPDEST CALLVALUE PUSH2 0x1E9 JUMPI PUSH1 0x60 CALLDATASIZE PUSH1 0x3 NOT ADD SLT PUSH2 0x1E9 JUMPI PUSH2 0xA3C PUSH2 0x3F3 JUMP JUMPDEST PUSH1 0x24 CALLDATALOAD SWAP1 PUSH8 0xFFFFFFFFFFFFFFFF SWAP1 DUP2 DUP4 GT PUSH2 0x1E9 JUMPI PUSH2 0xA60 PUSH1 0x4 SWAP4 CALLDATASIZE SWAP1 DUP6 ADD PUSH2 0x9F5 JUMP JUMPDEST SWAP1 SWAP3 PUSH1 0x44 CALLDATALOAD SWAP1 DUP2 GT PUSH2 0x1E9 JUMPI PUSH2 0xA79 SWAP1 CALLDATASIZE SWAP1 DUP7 ADD PUSH2 0x9F5 JUMP JUMPDEST CALLER PUSH1 0x0 MSTORE PUSH1 0xB PUSH1 0x20 MSTORE PUSH1 0x40 SWAP5 PUSH1 0xFF DUP7 PUSH1 0x0 KECCAK256 SLOAD AND ISZERO DUP1 PUSH2 0xC2C JUMPI JUMPDEST PUSH2 0xC1C JUMPI DUP4 ISZERO PUSH2 0xC0C JUMPI PUSH1 0x1 PUSH1 0x1 PUSH1 0xA0 SHL SUB DUP6 AND PUSH1 0x0 SWAP1 DUP2 MSTORE PUSH1 0x9 PUSH1 0x20 MSTORE PUSH1 0x40 SWAP1 KECCAK256 SLOAD PUSH2 0xBFC JUMPI PUSH2 0xACE PUSH2 0xAC9 CALLDATASIZE DUP7 DUP5 PUSH2 0xEAE JUMP JUMPDEST PUSH2 0x1D04 JUMP JUMPDEST DUP7 MLOAD PUSH2 0xAF0 DUP2 PUSH2 0xAE2 PUSH1 0x20 DUP3 ADD DUP1 SWAP6 PUSH2 0x1783 JUMP JUMPDEST SUB PUSH1 0x1F NOT DUP2 ADD DUP4 MSTORE DUP3 PUSH2 0x68C JUMP JUMPDEST MLOAD SWAP1 KECCAK256 SWAP7 PUSH2 0xB12 PUSH2 0xB0B DUP10 PUSH1 0x0 MSTORE PUSH1 0xA PUSH1 0x20 MSTORE PUSH1 0x40 PUSH1 0x0 KECCAK256 SWAP1 JUMP JUMPDEST SLOAD PUSH1 0xFF AND SWAP1 JUMP JUMPDEST PUSH2 0xBEE JUMPI PUSH2 0x32A PUSH2 0x96A DUP9 PUSH2 0xBB5 DUP12 DUP11 PUSH2 0xBB0 DUP12 PUSH2 0xB8D DUP13 DUP13 PUSH2 0xB84 DUP14 PUSH2 0xB59 PUSH1 0x7 SLOAD SWAP13 DUP14 SWAP11 PUSH2 0xB49 PUSH2 0xB44 DUP14 PUSH2 0x17B0 JUMP JUMPDEST PUSH1 0x7 SSTORE JUMP JUMPDEST PUSH1 0x0 MSTORE PUSH1 0xA PUSH1 0x20 MSTORE PUSH1 0x40 PUSH1 0x0 KECCAK256 SWAP1 JUMP JUMPDEST PUSH1 0x1 PUSH1 0x1 PUSH1 0xA0 SHL SUB DUP9 AND PUSH1 0x0 SWAP1 DUP2 MSTORE PUSH1 0x9 PUSH1 0x20 MSTORE PUSH1 0x40 SWAP1 KECCAK256 DUP10 SWAP1 SSTORE PUSH2 0xB7C PUSH2 0xE85 JUMP JUMPDEST SWAP6 CALLDATASIZE SWAP2 PUSH2 0xEAE JUMP JUMPDEST DUP5 MSTORE CALLDATASIZE SWAP2 PUSH2 0xEAE JUMP JUMPDEST PUSH1 0x20 DUP3 ADD MSTORE TIMESTAMP DUP7 DUP3 ADD MSTORE PUSH2 0xBAB DUP5 PUSH1 0x0 MSTORE PUSH1 0x8 PUSH1 0x20 MSTORE PUSH1 0x40 PUSH1 0x0 KECCAK256 SWAP1 JUMP JUMPDEST PUSH2 0x18E2 JUMP JUMPDEST PUSH2 0x19D8 JUMP JUMPDEST DUP1 MLOAD DUP3 DUP2 MSTORE PUSH32 0x32BC66BE43DBCCB7487781D168EB7BDA224628A3B2C3388BDF69B532A3A1611 SWAP1 PUSH1 0x20 SWAP1 LOG1 MLOAD SWAP1 DUP2 MSTORE SWAP1 DUP2 SWAP1 PUSH1 0x20 DUP3 ADD SWAP1 JUMP JUMPDEST DUP7 MLOAD PUSH4 0x9B081125 PUSH1 0xE0 SHL DUP2 MSTORE REVERT JUMPDEST DUP6 MLOAD PUSH4 0x71B95A0B PUSH1 0xE0 SHL DUP2 MSTORE DUP8 SWAP1 REVERT JUMPDEST DUP6 MLOAD PUSH4 0x2EF13105 PUSH1 0xE0 SHL DUP2 MSTORE DUP8 SWAP1 REVERT JUMPDEST DUP6 MLOAD PUSH4 0x3E34A41B PUSH1 0xE2 SHL DUP2 MSTORE DUP8 SWAP1 REVERT JUMPDEST POP PUSH1 0x6 SLOAD PUSH1 0x1 PUSH1 0x1 PUSH1 0xA0 SHL SUB AND CALLER EQ ISZERO PUSH2 0xA94 JUMP JUMPDEST CALLVALUE PUSH2 0x1E9 JUMPI PUSH1 0x0 CALLDATASIZE PUSH1 0x3 NOT ADD SLT PUSH2 0x1E9 JUMPI PUSH1 0x6 SLOAD PUSH1 0x40 MLOAD PUSH1 0x1 PUSH1 0x1 PUSH1 0xA0 SHL SUB SWAP1 SWAP2 AND DUP2 MSTORE PUSH1 0x20 SWAP1 RETURN JUMPDEST CALLVALUE PUSH2 0x1E9 JUMPI PUSH1 0x0 DUP1 PUSH1 0x3 NOT CALLDATASIZE ADD SLT PUSH2 0x3B2 JUMPI PUSH1 0x40 MLOAD SWAP1 DUP1 PUSH1 0x1 DUP1 SLOAD SWAP2 PUSH2 0xC8F DUP4 PUSH2 0x5FF JUMP JUMPDEST DUP1 DUP7 MSTORE SWAP3 DUP3 DUP2 AND SWAP1 DUP2 ISZERO PUSH2 0x388 JUMPI POP PUSH1 0x1 EQ PUSH2 0xCB5 JUMPI PUSH2 0x32A DUP6 PUSH2 0x31E DUP2 DUP8 SUB DUP3 PUSH2 0x68C JUMP JUMPDEST SWAP3 POP DUP1 DUP4 MSTORE PUSH32 0xB10E2D527612073B26EECDFD717E6A320CF44B4AFAC2B0732D9FCBE2B7FA0CF6 JUMPDEST DUP3 DUP5 LT PUSH2 0xCF7 JUMPI POP POP POP DUP2 ADD PUSH1 0x20 ADD PUSH2 0x31E DUP3 PUSH2 0x32A PUSH2 0x30E JUMP JUMPDEST DUP1 SLOAD PUSH1 0x20 DUP6 DUP8 ADD DUP2 ADD SWAP2 SWAP1 SWAP2 MSTORE SWAP1 SWAP4 ADD SWAP3 DUP2 ADD PUSH2 0xCDC JUMP JUMPDEST PUSH1 0x40 SWAP1 PUSH1 0x3 NOT ADD SLT PUSH2 0x1E9 JUMPI PUSH1 0x4 CALLDATALOAD PUSH1 0x1 PUSH1 0x1 PUSH1 0xA0 SHL SUB DUP2 AND DUP2 SUB PUSH2 0x1E9 JUMPI SWAP1 PUSH1 0x24 CALLDATALOAD DUP1 ISZERO ISZERO DUP2 SUB PUSH2 0x1E9 JUMPI SWAP1 JUMP JUMPDEST CALLVALUE PUSH2 0x1E9 JUMPI PUSH2 0xD4C CALLDATASIZE PUSH2 0xD0F JUMP JUMPDEST PUSH1 0x1 PUSH1 0x1 PUSH1 0xA0 SHL SUB DUP3 AND SWAP2 DUP3 ISZERO PUSH2 0xDCB JUMPI DUP2 PUSH2 0xD8A PUSH2 0xD9B SWAP3 CALLER PUSH1 0x0 MSTORE PUSH1 0x5 PUSH1 0x20 MSTORE PUSH1 0x40 PUSH1 0x0 KECCAK256 SWAP1 PUSH1 0x1 DUP1 PUSH1 0xA0 SHL SUB AND PUSH1 0x0 MSTORE PUSH1 0x20 MSTORE PUSH1 0x40 PUSH1 0x0 KECCAK256 SWAP1 JUMP JUMPDEST SWAP1 PUSH1 0xFF DUP1 NOT DUP4 SLOAD AND SWAP2 ISZERO ISZERO AND OR SWAP1 SSTORE JUMP JUMPDEST PUSH1 0x40 MLOAD SWAP1 ISZERO ISZERO DUP2 MSTORE PUSH32 0x17307EAB39AB6107E8899845AD3D59BD9653F200F220920489CA2B5937696C31 PUSH1 0x20 CALLER SWAP3 LOG3 STOP JUMPDEST PUSH1 0x40 MLOAD PUSH4 0xB611743 PUSH1 0xE3 SHL DUP2 MSTORE PUSH1 0x4 DUP2 ADD DUP5 SWAP1 MSTORE PUSH1 0x24 SWAP1 REVERT JUMPDEST CALLVALUE PUSH2 0x1E9 JUMPI PUSH1 0x20 CALLDATASIZE PUSH1 0x3 NOT ADD SLT PUSH2 0x1E9 JUMPI PUSH1 0x1 PUSH1 0x1 PUSH1 0xA0 SHL SUB PUSH2 0xE05 PUSH2 0x3F3 JUMP JUMPDEST AND PUSH1 0x0 MSTORE PUSH1 0xB PUSH1 0x20 MSTORE PUSH1 0x20 PUSH1 0xFF PUSH1 0x40 PUSH1 0x0 KECCAK256 SLOAD AND PUSH1 0x40 MLOAD SWAP1 ISZERO ISZERO DUP2 MSTORE RETURN JUMPDEST CALLVALUE PUSH2 0x1E9 JUMPI PUSH1 0x20 CALLDATASIZE PUSH1 0x3 NOT ADD SLT PUSH2 0x1E9 JUMPI PUSH2 0xE3F PUSH1 0x4 CALLDATALOAD PUSH2 0x1518 JUMP JUMPDEST POP PUSH1 0x20 PUSH1 0x40 MLOAD PUSH1 0x1 DUP2 MSTORE RETURN JUMPDEST CALLVALUE PUSH2 0x1E9 JUMPI PUSH1 0x20 CALLDATASIZE PUSH1 0x3 NOT ADD SLT PUSH2 0x1E9 JUMPI PUSH1 0x1 PUSH1 0x1 PUSH1 0xA0 SHL SUB PUSH2 0xE6C PUSH2 0x3F3 JUMP JUMPDEST AND PUSH1 0x0 MSTORE PUSH1 0x9 PUSH1 0x20 MSTORE PUSH1 0x20 PUSH1 0x40 PUSH1 0x0 KECCAK256 SLOAD PUSH1 0x40 MLOAD SWAP1 DUP2 MSTORE RETURN JUMPDEST PUSH1 0x40 MLOAD SWAP1 PUSH2 0x6EC DUP3 PUSH2 0x64F JUMP JUMPDEST PUSH8 0xFFFFFFFFFFFFFFFF DUP2 GT PUSH2 0x66B JUMPI PUSH1 0x1F ADD PUSH1 0x1F NOT AND PUSH1 0x20 ADD SWAP1 JUMP JUMPDEST SWAP3 SWAP2 SWAP3 PUSH2 0xEBA DUP3 PUSH2 0xE92 JUMP JUMPDEST SWAP2 PUSH2 0xEC8 PUSH1 0x40 MLOAD SWAP4 DUP5 PUSH2 0x68C JUMP JUMPDEST DUP3 SWAP5 DUP2 DUP5 MSTORE DUP2 DUP4 ADD GT PUSH2 0x1E9 JUMPI DUP3 DUP2 PUSH1 0x20 SWAP4 DUP5 PUSH1 0x0 SWAP7 ADD CALLDATACOPY ADD ADD MSTORE JUMP JUMPDEST CALLVALUE PUSH2 0x1E9 JUMPI PUSH1 0x80 CALLDATASIZE PUSH1 0x3 NOT ADD SLT PUSH2 0x1E9 JUMPI PUSH2 0xEFE PUSH2 0x3F3 JUMP JUMPDEST PUSH2 0xF06 PUSH2 0x409 JUMP JUMPDEST SWAP1 PUSH1 0x44 CALLDATALOAD PUSH1 0x64 CALLDATALOAD SWAP3 PUSH8 0xFFFFFFFFFFFFFFFF DUP5 GT PUSH2 0x1E9 JUMPI CALLDATASIZE PUSH1 0x23 DUP6 ADD SLT ISZERO PUSH2 0x1E9 JUMPI PUSH2 0xF3F PUSH2 0x4C3 SWAP5 CALLDATASIZE SWAP1 PUSH1 0x24 DUP2 PUSH1 0x4 ADD CALLDATALOAD SWAP2 ADD PUSH2 0xEAE JUMP JUMPDEST SWAP3 PUSH2 0x5F9 DUP4 DUP4 DUP4 PUSH2 0x1391 JUMP JUMPDEST CALLVALUE PUSH2 0x1E9 JUMPI PUSH1 0x20 CALLDATASIZE PUSH1 0x3 NOT ADD SLT PUSH2 0x1E9 JUMPI PUSH1 0x4 CALLDATALOAD PUSH2 0xF68 DUP2 PUSH2 0x1518 JUMP JUMPDEST POP PUSH1 0x0 MSTORE PUSH1 0x8 PUSH1 0x20 MSTORE PUSH1 0x40 PUSH1 0x0 KECCAK256 PUSH2 0xF7F SWAP1 PUSH2 0x1BD8 JUMP JUMPDEST DUP1 MLOAD PUSH1 0x20 DUP3 ADD MLOAD SWAP2 PUSH1 0x40 ADD MLOAD PUSH2 0xF94 SWAP1 PUSH2 0x1E08 JUMP JUMPDEST PUSH1 0x40 MLOAD PUSH16 0x3D913730B6B2911D1120B3B2B73A1D1 PUSH1 0x85 SHL PUSH1 0x20 DUP3 ADD MSTORE SWAP3 DUP4 SWAP3 PUSH2 0xFC0 PUSH1 0x30 DUP6 ADD DUP3 PUSH2 0x1783 JUMP JUMPDEST PUSH32 0x222C226465736372697074696F6E223A22566973696F6E20436861696E204149 DUP2 MSTORE PUSH32 0x204167656E7420536F756C426F756E64204964656E7469747920546F6B656E20 PUSH1 0x20 DUP3 ADD MSTORE PUSH12 0xA1152540B4D4C4E4C8A488B PUSH1 0xA2 SHL PUSH1 0x40 DUP3 ADD MSTORE PUSH1 0x4C ADD PUSH14 0x2261747472696275746573223A5B PUSH1 0x90 SHL DUP2 MSTORE PUSH1 0xE ADD PUSH32 0x7B2274726169745F74797065223A224167656E74204E616D65222C2276616C75 DUP2 MSTORE PUSH4 0x32911D11 PUSH1 0xE1 SHL PUSH1 0x20 DUP3 ADD MSTORE PUSH1 0x24 ADD PUSH2 0x1074 SWAP2 PUSH2 0x1783 JUMP JUMPDEST PUSH3 0x89F4B PUSH1 0xEA SHL DUP2 MSTORE PUSH1 0x3 ADD PUSH32 0x7B2274726169745F74797065223A22506C6174666F726D222C2276616C756522 DUP2 MSTORE PUSH2 0x1D11 PUSH1 0xF1 SHL PUSH1 0x20 DUP3 ADD MSTORE PUSH1 0x22 ADD PUSH2 0x10BA SWAP2 PUSH2 0x1783 JUMP JUMPDEST PUSH3 0x89F4B PUSH1 0xEA SHL DUP2 MSTORE PUSH1 0x3 ADD PUSH32 0x7B2274726169745F74797065223A224D696E746564204174222C22646973706C DUP2 MSTORE PUSH32 0x61795F74797065223A2264617465222C2276616C7565223A0000000000000000 PUSH1 0x20 DUP3 ADD MSTORE PUSH1 0x38 ADD PUSH2 0x111B SWAP2 PUSH2 0x1783 JUMP JUMPDEST PUSH2 0x1F4B PUSH1 0xF2 SHL DUP2 MSTORE PUSH1 0x2 ADD PUSH32 0x7B2274726169745F74797065223A22536F756C426F756E64222C2276616C7565 DUP2 MSTORE PUSH9 0x223A2274727565227D PUSH1 0xB8 SHL PUSH1 0x20 DUP3 ADD MSTORE PUSH1 0x29 ADD PUSH2 0x5D7D PUSH1 0xF0 SHL DUP2 MSTORE PUSH1 0x2 ADD SUB SWAP1 PUSH1 0x1F NOT SWAP2 DUP3 DUP2 ADD DUP3 MSTORE PUSH2 0x117E SWAP1 DUP3 PUSH2 0x68C JUMP JUMPDEST PUSH2 0x1187 SWAP1 PUSH2 0x1F2A JUMP JUMPDEST PUSH1 0x40 MLOAD PUSH32 0x646174613A6170706C69636174696F6E2F6A736F6E3B6261736536342C000000 PUSH1 0x20 DUP3 ADD MSTORE SWAP2 SWAP1 DUP3 SWAP1 PUSH1 0x3D DUP3 ADD PUSH2 0x11C1 SWAP2 PUSH2 0x1783 JUMP JUMPDEST SUB SWAP1 DUP2 ADD DUP3 MSTORE PUSH2 0x11D1 SWAP1 DUP3 PUSH2 0x68C JUMP JUMPDEST PUSH1 0x40 MLOAD PUSH2 0x32A DUP2 SWAP3 DUP3 PUSH2 0x2BE JUMP JUMPDEST CALLVALUE PUSH2 0x1E9 JUMPI PUSH2 0x4C3 PUSH2 0x11F0 CALLDATASIZE PUSH2 0xD0F JUMP JUMPDEST SWAP1 PUSH2 0x11F9 PUSH2 0x1365 JUMP JUMPDEST PUSH1 0x1 DUP1 PUSH1 0xA0 SHL SUB AND PUSH1 0x0 MSTORE PUSH1 0xB PUSH1 0x20 MSTORE PUSH1 0x40 PUSH1 0x0 KECCAK256 SWAP1 PUSH1 0xFF DUP1 NOT DUP4 SLOAD AND SWAP2 ISZERO ISZERO AND OR SWAP1 SSTORE JUMP JUMPDEST CALLVALUE PUSH2 0x1E9 JUMPI PUSH1 0x20 CALLDATASIZE PUSH1 0x3 NOT ADD SLT PUSH2 0x1E9 JUMPI PUSH2 0x1270 PUSH2 0x1243 PUSH2 0x123E PUSH2 0x3F3 JUMP JUMPDEST PUSH2 0x1C0E JUMP JUMPDEST SWAP2 SWAP4 SWAP1 PUSH2 0x1262 PUSH1 0x40 MLOAD SWAP6 DUP7 SWAP6 DUP7 MSTORE PUSH1 0x80 PUSH1 0x20 DUP8 ADD MSTORE PUSH1 0x80 DUP7 ADD SWAP1 PUSH2 0x299 JUMP JUMPDEST SWAP1 DUP5 DUP3 SUB PUSH1 0x40 DUP7 ADD MSTORE PUSH2 0x299 JUMP JUMPDEST SWAP1 PUSH1 0x60 DUP4 ADD MSTORE SUB SWAP1 RETURN JUMPDEST CALLVALUE PUSH2 0x1E9 JUMPI PUSH1 0x40 CALLDATASIZE PUSH1 0x3 NOT ADD SLT PUSH2 0x1E9 JUMPI PUSH1 0x20 PUSH1 0xFF PUSH2 0x12CB PUSH2 0x129A PUSH2 0x3F3 JUMP JUMPDEST PUSH2 0x12A2 PUSH2 0x409 JUMP JUMPDEST PUSH1 0x1 PUSH1 0x1 PUSH1 0xA0 SHL SUB SWAP2 DUP3 AND PUSH1 0x0 SWAP1 DUP2 MSTORE PUSH1 0x5 DUP7 MSTORE PUSH1 0x40 DUP1 DUP3 KECCAK256 SWAP3 SWAP1 SWAP4 AND DUP2 MSTORE PUSH1 0x20 SWAP2 SWAP1 SWAP2 MSTORE KECCAK256 SWAP1 JUMP JUMPDEST SLOAD AND PUSH1 0x40 MLOAD SWAP1 ISZERO ISZERO DUP2 MSTORE RETURN JUMPDEST CALLVALUE PUSH2 0x1E9 JUMPI PUSH1 0x20 CALLDATASIZE PUSH1 0x3 NOT ADD SLT PUSH2 0x1E9 JUMPI PUSH2 0x12F0 PUSH2 0x3F3 JUMP JUMPDEST PUSH2 0x12F8 PUSH2 0x1365 JUMP JUMPDEST PUSH1 0x1 PUSH1 0x1 PUSH1 0xA0 SHL SUB SWAP1 DUP2 AND SWAP1 DUP2 ISZERO PUSH2 0x134C JUMPI PUSH1 0x6 SLOAD DUP3 PUSH12 0xFFFFFFFFFFFFFFFFFFFFFFFF PUSH1 0xA0 SHL DUP3 AND OR PUSH1 0x6 SSTORE AND PUSH32 0x8BE0079C531659141344CD1FD0A4F28419497F9722A3DAAFE3B4186F6B6457E0 PUSH1 0x0 DUP1 LOG3 STOP JUMPDEST PUSH1 0x40 MLOAD PUSH4 0x1E4FBDF7 PUSH1 0xE0 SHL DUP2 MSTORE PUSH1 0x0 PUSH1 0x4 DUP3 ADD MSTORE PUSH1 0x24 SWAP1 REVERT JUMPDEST PUSH1 0x6 SLOAD PUSH1 0x1 PUSH1 0x1 PUSH1 0xA0 SHL SUB AND CALLER SUB PUSH2 0x1379 JUMPI JUMP JUMPDEST PUSH1 0x40 MLOAD PUSH4 0x118CDAA7 PUSH1 0xE0 SHL DUP2 MSTORE CALLER PUSH1 0x4 DUP3 ADD MSTORE PUSH1 0x24 SWAP1 REVERT JUMPDEST PUSH1 0x1 PUSH1 0x1 PUSH1 0xA0 SHL SUB SWAP1 DUP3 DUP3 AND DUP1 ISZERO PUSH2 0x14C8 JUMPI PUSH1 0x0 SWAP1 DUP6 DUP3 MSTORE PUSH1 0x2 PUSH1 0x20 MSTORE DUP4 PUSH1 0x40 DUP4 KECCAK256 SLOAD AND PUSH2 0x14B6 JUMPI DUP6 DUP3 MSTORE PUSH1 0x2 PUSH1 0x20 MSTORE PUSH1 0x40 DUP3 KECCAK256 SLOAD DUP7 SWAP3 SWAP1 PUSH32 0xDDF252AD1BE2C89B69C2B068FC378DAA952BA7F163C4A11628F55A4DF523B3EF SWAP1 PUSH1 0x1 PUSH1 0x1 PUSH1 0xA0 SHL SUB AND SWAP2 CALLER PUSH2 0x14A6 JUMPI JUMPDEST PUSH2 0x143E DUP8 DUP5 AND SWAP9 DUP10 SWAP5 DUP6 PUSH2 0x1471 JUMPI JUMPDEST POP PUSH1 0x1 PUSH1 0x1 PUSH1 0xA0 SHL SUB DUP2 AND PUSH1 0x0 SWAP1 DUP2 MSTORE PUSH1 0x3 PUSH1 0x20 MSTORE PUSH1 0x40 SWAP1 KECCAK256 PUSH1 0x1 DUP2 SLOAD ADD SWAP1 SSTORE PUSH2 0x4A4 DUP8 PUSH1 0x0 MSTORE PUSH1 0x2 PUSH1 0x20 MSTORE PUSH1 0x40 PUSH1 0x0 KECCAK256 SWAP1 JUMP JUMPDEST DUP1 LOG4 AND SWAP2 DUP3 DUP3 SUB PUSH2 0x144E JUMPI POP POP POP JUMP JUMPDEST PUSH1 0x64 SWAP4 POP PUSH1 0x40 MLOAD SWAP3 PUSH4 0x64283D7B PUSH1 0xE0 SHL DUP5 MSTORE PUSH1 0x4 DUP5 ADD MSTORE PUSH1 0x24 DUP4 ADD MSTORE PUSH1 0x44 DUP3 ADD MSTORE REVERT JUMPDEST PUSH2 0x1498 SWAP1 PUSH2 0x147E DUP10 PUSH2 0x14F4 JUMP JUMPDEST PUSH1 0x1 PUSH1 0x1 PUSH1 0xA0 SHL SUB AND PUSH1 0x0 SWAP1 DUP2 MSTORE PUSH1 0x3 PUSH1 0x20 MSTORE PUSH1 0x40 SWAP1 KECCAK256 SWAP1 JUMP JUMPDEST DUP1 SLOAD PUSH1 0x0 NOT ADD SWAP1 SSTORE CODESIZE PUSH2 0x140A JUMP JUMPDEST PUSH2 0x14B1 DUP6 CALLER DUP6 PUSH2 0x1AFF JUMP JUMPDEST PUSH2 0x13FB JUMP JUMPDEST PUSH1 0x40 MLOAD PUSH4 0x1267838F PUSH1 0xE1 SHL DUP2 MSTORE PUSH1 0x4 SWAP1 REVERT JUMPDEST PUSH1 0x40 MLOAD PUSH4 0x32505749 PUSH1 0xE1 SHL DUP2 MSTORE PUSH1 0x0 PUSH1 0x4 DUP3 ADD MSTORE PUSH1 0x24 SWAP1 REVERT JUMPDEST PUSH1 0x40 MLOAD SWAP1 PUSH2 0x14EE DUP3 PUSH2 0x670 JUMP JUMPDEST PUSH1 0x0 DUP3 MSTORE JUMP JUMPDEST PUSH2 0x1508 SWAP1 PUSH1 0x0 MSTORE PUSH1 0x4 PUSH1 0x20 MSTORE PUSH1 0x40 PUSH1 0x0 KECCAK256 SWAP1 JUMP JUMPDEST DUP1 SLOAD PUSH1 0x1 PUSH1 0x1 PUSH1 0xA0 SHL SUB NOT AND SWAP1 SSTORE JUMP JUMPDEST PUSH1 0x0 DUP2 DUP2 MSTORE PUSH1 0x2 PUSH1 0x20 MSTORE PUSH1 0x40 SWAP1 KECCAK256 SLOAD PUSH1 0x1 PUSH1 0x1 PUSH1 0xA0 SHL SUB AND SWAP1 DUP2 ISZERO PUSH2 0x153B JUMPI POP SWAP1 JUMP JUMPDEST PUSH1 0x24 SWAP1 PUSH1 0x40 MLOAD SWAP1 PUSH4 0x7E273289 PUSH1 0xE0 SHL DUP3 MSTORE PUSH1 0x4 DUP3 ADD MSTORE REVERT JUMPDEST SWAP1 DUP2 PUSH1 0x20 SWAP2 SUB SLT PUSH2 0x1E9 JUMPI MLOAD PUSH2 0x2CF DUP2 PUSH2 0x1D7 JUMP JUMPDEST PUSH2 0x2CF SWAP4 SWAP3 PUSH1 0x80 SWAP3 PUSH1 0x1 DUP1 PUSH1 0xA0 SHL SUB AND DUP3 MSTORE PUSH1 0x0 PUSH1 0x20 DUP4 ADD MSTORE PUSH1 0x40 DUP3 ADD MSTORE DUP2 PUSH1 0x60 DUP3 ADD MSTORE ADD SWAP1 PUSH2 0x299 JUMP JUMPDEST PUSH1 0x1 PUSH1 0x1 PUSH1 0xA0 SHL SUB SWAP2 DUP3 AND DUP2 MSTORE SWAP2 AND PUSH1 0x20 DUP3 ADD MSTORE PUSH1 0x40 DUP2 ADD SWAP2 SWAP1 SWAP2 MSTORE PUSH1 0x80 PUSH1 0x60 DUP3 ADD DUP2 SWAP1 MSTORE PUSH2 0x2CF SWAP3 SWAP2 ADD SWAP1 PUSH2 0x299 JUMP JUMPDEST RETURNDATASIZE ISZERO PUSH2 0x15EF JUMPI RETURNDATASIZE SWAP1 PUSH2 0x15D5 DUP3 PUSH2 0xE92 JUMP JUMPDEST SWAP2 PUSH2 0x15E3 PUSH1 0x40 MLOAD SWAP4 DUP5 PUSH2 0x68C JUMP JUMPDEST DUP3 MSTORE RETURNDATASIZE PUSH1 0x0 PUSH1 0x20 DUP5 ADD RETURNDATACOPY JUMP JUMPDEST PUSH1 0x60 SWAP1 JUMP JUMPDEST SWAP2 SWAP3 SWAP1 SWAP3 DUP4 EXTCODESIZE PUSH2 0x1605 JUMPI JUMPDEST POP POP POP POP JUMP JUMPDEST PUSH2 0x1629 SWAP2 PUSH1 0x20 SWAP2 PUSH1 0x40 MLOAD SWAP4 DUP5 SWAP3 DUP4 SWAP3 PUSH4 0xA85BD01 PUSH1 0xE1 SHL SWAP8 DUP9 DUP6 MSTORE PUSH1 0x4 DUP6 ADD PUSH2 0x1568 JUMP JUMPDEST SUB DUP2 PUSH1 0x0 PUSH1 0x1 PUSH1 0x1 PUSH1 0xA0 SHL SUB DUP9 AND GAS CALL PUSH1 0x0 SWAP2 DUP2 PUSH2 0x16BD JUMPI JUMPDEST POP PUSH2 0x1681 JUMPI DUP3 PUSH2 0x1650 PUSH2 0x15C4 JUMP JUMPDEST DUP1 MLOAD SWAP2 SWAP1 DUP3 PUSH2 0x167A JUMPI PUSH1 0x40 MLOAD PUSH4 0x32505749 PUSH1 0xE1 SHL DUP2 MSTORE PUSH1 0x1 PUSH1 0x1 PUSH1 0xA0 SHL SUB DUP4 AND PUSH1 0x4 DUP3 ADD MSTORE PUSH1 0x24 SWAP1 REVERT JUMPDEST PUSH1 0x20 SWAP2 POP ADD REVERT JUMPDEST PUSH1 0x1 PUSH1 0x1 PUSH1 0xE0 SHL SUB NOT AND SUB PUSH2 0x169A JUMPI POP CODESIZE DUP1 DUP1 DUP1 PUSH2 0x15FF JUMP JUMPDEST PUSH1 0x40 MLOAD PUSH4 0x32505749 PUSH1 0xE1 SHL DUP2 MSTORE PUSH1 0x1 PUSH1 0x1 PUSH1 0xA0 SHL SUB SWAP2 SWAP1 SWAP2 AND PUSH1 0x4 DUP3 ADD MSTORE PUSH1 0x24 SWAP1 REVERT JUMPDEST PUSH2 0x16DF SWAP2 SWAP3 POP PUSH1 0x20 RETURNDATASIZE DUP2 GT PUSH2 0x16E6 JUMPI JUMPDEST PUSH2 0x16D7 DUP2 DUP4 PUSH2 0x68C JUMP JUMPDEST DUP2 ADD SWAP1 PUSH2 0x1553 JUMP JUMPDEST SWAP1 CODESIZE PUSH2 0x1642 JUMP JUMPDEST POP RETURNDATASIZE PUSH2 0x16CD JUMP JUMPDEST SWAP3 SWAP4 SWAP2 SWAP4 DUP5 EXTCODESIZE PUSH2 0x16FF JUMPI JUMPDEST POP POP POP POP POP JUMP JUMPDEST PUSH1 0x20 SWAP2 PUSH2 0x1722 PUSH1 0x40 MLOAD SWAP5 DUP6 SWAP4 DUP5 SWAP4 PUSH4 0xA85BD01 PUSH1 0xE1 SHL SWAP9 DUP10 DUP7 MSTORE PUSH1 0x4 DUP7 ADD PUSH2 0x1593 JUMP JUMPDEST SUB DUP2 PUSH1 0x0 PUSH1 0x1 PUSH1 0x1 PUSH1 0xA0 SHL SUB DUP9 AND GAS CALL PUSH1 0x0 SWAP2 DUP2 PUSH2 0x1763 JUMPI JUMPDEST POP PUSH2 0x1749 JUMPI DUP3 PUSH2 0x1650 PUSH2 0x15C4 JUMP JUMPDEST PUSH1 0x1 PUSH1 0x1 PUSH1 0xE0 SHL SUB NOT AND SUB PUSH2 0x169A JUMPI POP CODESIZE DUP1 DUP1 DUP1 DUP1 PUSH2 0x16F8 JUMP JUMPDEST PUSH2 0x177C SWAP2 SWAP3 POP PUSH1 0x20 RETURNDATASIZE DUP2 GT PUSH2 0x16E6 JUMPI PUSH2 0x16D7 DUP2 DUP4 PUSH2 0x68C JUMP JUMPDEST SWAP1 CODESIZE PUSH2 0x173B JUMP JUMPDEST SWAP1 PUSH2 0x1796 PUSH1 0x20 SWAP3 DUP3 DUP2 MLOAD SWAP5 DUP6 SWAP3 ADD PUSH2 0x276 JUMP JUMPDEST ADD SWAP1 JUMP JUMPDEST PUSH4 0x4E487B71 PUSH1 0xE0 SHL PUSH1 0x0 MSTORE PUSH1 0x11 PUSH1 0x4 MSTORE PUSH1 0x24 PUSH1 0x0 REVERT JUMPDEST PUSH1 0x0 NOT DUP2 EQ PUSH2 0x57A JUMPI PUSH1 0x1 ADD SWAP1 JUMP JUMPDEST SWAP1 PUSH1 0x1F DUP2 GT PUSH2 0x17CD JUMPI POP POP POP JUMP JUMPDEST PUSH1 0x0 SWAP2 DUP3 MSTORE PUSH1 0x20 DUP3 KECCAK256 SWAP1 PUSH1 0x20 PUSH1 0x1F DUP6 ADD PUSH1 0x5 SHR DUP4 ADD SWAP5 LT PUSH2 0x1809 JUMPI JUMPDEST PUSH1 0x1F ADD PUSH1 0x5 SHR ADD SWAP2 JUMPDEST DUP3 DUP2 LT PUSH2 0x17FE JUMPI POP POP POP JUMP JUMPDEST DUP2 DUP2 SSTORE PUSH1 0x1 ADD PUSH2 0x17F2 JUMP JUMPDEST SWAP1 SWAP3 POP DUP3 SWAP1 PUSH2 0x17E9 JUMP JUMPDEST SWAP2 SWAP1 SWAP2 DUP3 MLOAD PUSH8 0xFFFFFFFFFFFFFFFF DUP2 GT PUSH2 0x66B JUMPI PUSH2 0x183B DUP2 PUSH2 0x1835 DUP5 SLOAD PUSH2 0x5FF JUMP JUMPDEST DUP5 PUSH2 0x17BF JUMP JUMPDEST PUSH1 0x20 DUP1 PUSH1 0x1F DUP4 GT PUSH1 0x1 EQ PUSH2 0x1877 JUMPI POP DUP2 SWAP3 SWAP4 SWAP5 PUSH1 0x0 SWAP3 PUSH2 0x186C JUMPI JUMPDEST POP POP DUP2 PUSH1 0x1 SHL SWAP2 PUSH1 0x0 NOT SWAP1 PUSH1 0x3 SHL SHR NOT AND OR SWAP1 SSTORE JUMP JUMPDEST ADD MLOAD SWAP1 POP CODESIZE DUP1 PUSH2 0x1856 JUMP JUMPDEST SWAP1 PUSH1 0x1F NOT DUP4 AND SWAP6 PUSH2 0x188D DUP6 PUSH1 0x0 MSTORE PUSH1 0x20 PUSH1 0x0 KECCAK256 SWAP1 JUMP JUMPDEST SWAP3 PUSH1 0x0 SWAP1 JUMPDEST DUP9 DUP3 LT PUSH2 0x18CA JUMPI POP POP DUP4 PUSH1 0x1 SWAP6 SWAP7 SWAP8 LT PUSH2 0x18B1 JUMPI JUMPDEST POP POP POP DUP2 SHL ADD SWAP1 SSTORE JUMP JUMPDEST ADD MLOAD PUSH1 0x0 NOT PUSH1 0xF8 DUP5 PUSH1 0x3 SHL AND SHR NOT AND SWAP1 SSTORE CODESIZE DUP1 DUP1 PUSH2 0x18A7 JUMP JUMPDEST DUP1 PUSH1 0x1 DUP6 SWAP7 DUP3 SWAP5 SWAP7 DUP7 ADD MLOAD DUP2 SSTORE ADD SWAP6 ADD SWAP4 ADD SWAP1 PUSH2 0x1892 JUMP JUMPDEST SWAP1 DUP1 MLOAD DUP1 MLOAD PUSH8 0xFFFFFFFFFFFFFFFF DUP2 GT PUSH2 0x66B JUMPI PUSH2 0x190A DUP2 PUSH2 0x1904 DUP7 SLOAD PUSH2 0x5FF JUMP JUMPDEST DUP7 PUSH2 0x17BF JUMP JUMPDEST PUSH1 0x20 SWAP2 DUP3 SWAP1 PUSH1 0x1F DUP4 GT PUSH1 0x1 EQ PUSH2 0x1962 JUMPI SWAP3 DUP3 PUSH1 0x2 SWAP6 SWAP4 PUSH2 0x1950 SWAP4 PUSH1 0x40 SWAP7 PUSH1 0x0 SWAP3 PUSH2 0x1957 JUMPI JUMPDEST POP POP DUP2 PUSH1 0x1 SHL SWAP2 PUSH1 0x0 NOT SWAP1 PUSH1 0x3 SHL SHR NOT AND OR DUP7 SSTORE JUMPDEST DUP3 ADD MLOAD PUSH1 0x1 DUP7 ADD PUSH2 0x1813 JUMP JUMPDEST ADD MLOAD SWAP2 ADD SSTORE JUMP JUMPDEST ADD MLOAD SWAP1 POP CODESIZE DUP1 PUSH2 0x192F JUMP JUMPDEST SWAP1 PUSH1 0x1F NOT DUP4 AND SWAP2 PUSH2 0x1978 DUP8 PUSH1 0x0 MSTORE PUSH1 0x20 PUSH1 0x0 KECCAK256 SWAP1 JUMP JUMPDEST SWAP3 PUSH1 0x0 JUMPDEST DUP2 DUP2 LT PUSH2 0x19C1 JUMPI POP SWAP4 PUSH2 0x1950 SWAP4 PUSH1 0x40 SWAP7 SWAP4 PUSH1 0x1 SWAP4 DUP4 PUSH1 0x2 SWAP11 SWAP9 LT PUSH2 0x19A8 JUMPI JUMPDEST POP POP POP DUP2 SHL ADD DUP7 SSTORE PUSH2 0x1944 JUMP JUMPDEST ADD MLOAD PUSH1 0x0 NOT PUSH1 0xF8 DUP5 PUSH1 0x3 SHL AND SHR NOT AND SWAP1 SSTORE CODESIZE DUP1 DUP1 PUSH2 0x199B JUMP JUMPDEST SWAP3 SWAP4 DUP7 PUSH1 0x1 DUP2 SWAP3 DUP8 DUP7 ADD MLOAD DUP2 SSTORE ADD SWAP6 ADD SWAP4 ADD PUSH2 0x197C JUMP JUMPDEST SWAP2 SWAP1 SWAP2 PUSH1 0x40 SWAP3 DUP4 MLOAD SWAP2 PUSH2 0x19EA DUP4 PUSH2 0x670 JUMP JUMPDEST PUSH1 0x0 DUP1 DUP5 MSTORE PUSH1 0x1 PUSH1 0x1 PUSH1 0xA0 SHL SUB DUP3 DUP2 AND DUP1 ISZERO PUSH2 0x1AE7 JUMPI DUP5 DUP4 MSTORE PUSH1 0x2 PUSH1 0x20 MSTORE DUP2 DUP9 DUP5 KECCAK256 SLOAD AND PUSH2 0x1AD6 JUMPI DUP5 DUP4 MSTORE PUSH1 0x2 PUSH1 0x20 MSTORE DUP8 DUP4 KECCAK256 SLOAD DUP6 SWAP2 SWAP1 PUSH1 0x1 PUSH1 0x1 PUSH1 0xA0 SHL SUB AND SWAP3 DUP4 AND DUP1 ISZERO ISZERO SWAP4 DUP5 PUSH2 0x1ABB JUMPI JUMPDEST POP PUSH1 0x1 PUSH1 0x1 PUSH1 0xA0 SHL SUB DUP7 AND PUSH1 0x0 SWAP1 DUP2 MSTORE PUSH1 0x3 PUSH1 0x20 MSTORE PUSH1 0x40 SWAP1 KECCAK256 PUSH1 0x1 DUP2 SLOAD ADD SWAP1 SSTORE PUSH2 0x1A6F DUP7 PUSH2 0x4A4 DUP6 PUSH1 0x0 MSTORE PUSH1 0x2 PUSH1 0x20 MSTORE PUSH1 0x40 PUSH1 0x0 KECCAK256 SWAP1 JUMP JUMPDEST PUSH32 0xDDF252AD1BE2C89B69C2B068FC378DAA952BA7F163C4A11628F55A4DF523B3EF DUP6 DUP1 LOG4 PUSH2 0x1AA4 JUMPI POP PUSH2 0x6EC SWAP4 SWAP5 POP CALLER PUSH2 0x15F4 JUMP JUMPDEST PUSH1 0x24 SWAP1 DUP7 MLOAD SWAP1 PUSH4 0x39E35637 PUSH1 0xE1 SHL DUP3 MSTORE PUSH1 0x4 DUP3 ADD MSTORE REVERT JUMPDEST PUSH2 0x1AC8 SWAP1 PUSH2 0x147E DUP6 PUSH2 0x14F4 JUMP JUMPDEST DUP1 SLOAD PUSH1 0x0 NOT ADD SWAP1 SSTORE CODESIZE PUSH2 0x1A37 JUMP JUMPDEST DUP8 MLOAD PUSH4 0x1267838F PUSH1 0xE1 SHL DUP2 MSTORE PUSH1 0x4 SWAP1 REVERT JUMPDEST DUP8 MLOAD PUSH4 0x32505749 PUSH1 0xE1 SHL DUP2 MSTORE PUSH1 0x4 DUP2 ADD DUP5 SWAP1 MSTORE PUSH1 0x24 SWAP1 REVERT JUMPDEST PUSH1 0x1 PUSH1 0x1 PUSH1 0xA0 SHL SUB SWAP1 DUP3 DUP3 AND DUP1 ISZERO ISZERO SWAP1 DUP2 PUSH2 0x1B6A JUMPI JUMPDEST POP ISZERO PUSH2 0x1B21 JUMPI POP POP POP POP JUMP JUMPDEST AND PUSH2 0x1B3F JUMPI PUSH1 0x40 MLOAD PUSH4 0x7E273289 PUSH1 0xE0 SHL DUP2 MSTORE PUSH1 0x4 DUP2 ADD DUP4 SWAP1 MSTORE PUSH1 0x24 SWAP1 REVERT JUMPDEST PUSH1 0x40 MLOAD PUSH4 0x177E802F PUSH1 0xE0 SHL DUP2 MSTORE PUSH1 0x1 PUSH1 0x1 PUSH1 0xA0 SHL SUB SWAP2 SWAP1 SWAP2 AND PUSH1 0x4 DUP3 ADD MSTORE PUSH1 0x24 DUP2 ADD SWAP2 SWAP1 SWAP2 MSTORE PUSH1 0x44 SWAP1 REVERT JUMPDEST DUP3 DUP5 AND DUP1 DUP3 EQ SWAP3 POP DUP3 ISZERO PUSH2 0x1BA2 JUMPI JUMPDEST POP DUP2 ISZERO PUSH2 0x1B88 JUMPI JUMPDEST POP CODESIZE PUSH2 0x1B15 JUMP JUMPDEST SWAP1 POP DUP5 PUSH1 0x0 MSTORE PUSH1 0x4 PUSH1 0x20 MSTORE DUP3 PUSH1 0x40 PUSH1 0x0 KECCAK256 SLOAD AND EQ CODESIZE PUSH2 0x1B81 JUMP JUMPDEST SWAP1 SWAP2 POP PUSH1 0x0 MSTORE PUSH1 0x5 PUSH1 0x20 MSTORE PUSH1 0xFF PUSH2 0x1BCF DUP6 PUSH1 0x40 PUSH1 0x0 KECCAK256 SWAP1 PUSH1 0x1 DUP1 PUSH1 0xA0 SHL SUB AND PUSH1 0x0 MSTORE PUSH1 0x20 MSTORE PUSH1 0x40 PUSH1 0x0 KECCAK256 SWAP1 JUMP JUMPDEST SLOAD AND SWAP1 CODESIZE PUSH2 0x1B79 JUMP JUMPDEST SWAP1 PUSH1 0x40 MLOAD PUSH2 0x1BE5 DUP2 PUSH2 0x64F JUMP JUMPDEST PUSH1 0x40 PUSH1 0x2 DUP3 SWAP5 PUSH2 0x1BF4 DUP2 PUSH2 0x6AE JUMP JUMPDEST DUP5 MSTORE PUSH2 0x1C02 PUSH1 0x1 DUP3 ADD PUSH2 0x6AE JUMP JUMPDEST PUSH1 0x20 DUP6 ADD MSTORE ADD SLOAD SWAP2 ADD MSTORE JUMP JUMPDEST PUSH1 0x1 PUSH1 0x1 PUSH1 0xA0 SHL SUB AND PUSH1 0x0 SWAP1 DUP2 MSTORE PUSH1 0x9 PUSH1 0x20 MSTORE PUSH1 0x40 DUP1 DUP3 KECCAK256 SLOAD SWAP3 SWAP2 DUP4 ISZERO PUSH2 0x1C73 JUMPI DUP1 DUP5 DUP4 SWAP3 MSTORE PUSH1 0x8 PUSH1 0x20 MSTORE KECCAK256 SWAP2 DUP2 MLOAD PUSH2 0x1C46 DUP2 PUSH2 0x64F JUMP JUMPDEST PUSH2 0x1C4F DUP5 PUSH2 0x6AE JUMP JUMPDEST DUP2 MSTORE PUSH1 0x2 PUSH2 0x1C5F PUSH1 0x1 DUP7 ADD PUSH2 0x6AE JUMP JUMPDEST SWAP5 DUP6 PUSH1 0x20 DUP5 ADD MSTORE ADD SLOAD DUP1 SWAP4 DUP3 ADD MSTORE MLOAD SWAP3 SWAP2 SWAP1 JUMP JUMPDEST DUP1 SWAP2 SWAP3 SWAP4 POP SWAP3 DUP3 MLOAD PUSH2 0x1C84 DUP2 PUSH2 0x670 JUMP JUMPDEST DUP3 DUP2 MSTORE SWAP3 MLOAD PUSH2 0x1C92 DUP2 PUSH2 0x670 JUMP JUMPDEST DUP3 DUP2 MSTORE SWAP2 SWAP1 JUMP JUMPDEST SWAP1 PUSH2 0x1CA3 DUP3 PUSH2 0xE92 JUMP JUMPDEST PUSH2 0x1CB0 PUSH1 0x40 MLOAD SWAP2 DUP3 PUSH2 0x68C JUMP JUMPDEST DUP3 DUP2 MSTORE DUP1 SWAP3 PUSH2 0x1CC1 PUSH1 0x1F NOT SWAP2 PUSH2 0xE92 JUMP JUMPDEST ADD SWAP1 PUSH1 0x20 CALLDATASIZE SWAP2 ADD CALLDATACOPY JUMP JUMPDEST SWAP1 DUP2 MLOAD DUP2 LT ISZERO PUSH2 0x1CDC JUMPI ADD PUSH1 0x20 ADD SWAP1 JUMP JUMPDEST PUSH4 0x4E487B71 PUSH1 0xE0 SHL PUSH1 0x0 MSTORE PUSH1 0x32 PUSH1 0x4 MSTORE PUSH1 0x24 PUSH1 0x0 REVERT JUMPDEST PUSH1 0xFF PUSH1 0x20 SWAP2 AND ADD SWAP1 PUSH1 0xFF DUP3 GT PUSH2 0x57A JUMPI JUMP JUMPDEST SWAP1 PUSH2 0x1D0F DUP3 MLOAD PUSH2 0x1C99 JUMP JUMPDEST PUSH1 0x0 SWAP3 DUP4 JUMPDEST DUP2 MLOAD DUP2 LT ISZERO PUSH2 0x1DD7 JUMPI PUSH2 0x1DA1 SWAP1 PUSH1 0x41 PUSH1 0xF8 SHL PUSH2 0x1D51 PUSH2 0x1D44 PUSH2 0x1D36 DUP5 DUP8 PUSH2 0x1CCB JUMP JUMPDEST MLOAD PUSH1 0x1 PUSH1 0x1 PUSH1 0xF8 SHL SUB NOT AND SWAP1 JUMP JUMPDEST PUSH1 0x1 PUSH1 0x1 PUSH1 0xF8 SHL SUB NOT AND SWAP1 JUMP JUMPDEST LT ISZERO DUP1 PUSH2 0x1DB3 JUMPI JUMPDEST ISZERO PUSH2 0x1DA6 JUMPI PUSH2 0x1D8F PUSH2 0x1D7F PUSH2 0x1D7A PUSH2 0x1D74 PUSH2 0x1D36 DUP6 DUP9 PUSH2 0x1CCB JUMP JUMPDEST PUSH1 0xF8 SHR SWAP1 JUMP JUMPDEST PUSH2 0x1CF2 JUMP JUMPDEST PUSH1 0xF8 SHL PUSH1 0x1 PUSH1 0x1 PUSH1 0xF8 SHL SUB NOT AND SWAP1 JUMP JUMPDEST DUP7 BYTE PUSH2 0x1D9B DUP3 DUP7 PUSH2 0x1CCB JUMP JUMPDEST MSTORE8 PUSH2 0x17B0 JUMP JUMPDEST PUSH2 0x1D14 JUMP JUMPDEST PUSH2 0x1D8F PUSH2 0x1D36 DUP3 DUP6 PUSH2 0x1CCB JUMP JUMPDEST POP PUSH1 0x2D PUSH1 0xF9 SHL PUSH1 0x1 PUSH1 0x1 PUSH1 0xF8 SHL SUB NOT PUSH2 0x1DCF PUSH2 0x1D36 DUP5 DUP8 PUSH2 0x1CCB JUMP JUMPDEST AND GT ISZERO PUSH2 0x1D59 JUMP JUMPDEST POP SWAP1 SWAP3 POP POP JUMP JUMPDEST PUSH1 0x30 ADD SWAP1 DUP2 PUSH1 0x30 GT PUSH2 0x57A JUMPI JUMP JUMPDEST SWAP1 PUSH1 0x2 DUP3 ADD DUP1 SWAP3 GT PUSH2 0x57A JUMPI JUMP JUMPDEST SWAP1 PUSH1 0x20 DUP3 ADD DUP1 SWAP3 GT PUSH2 0x57A JUMPI JUMP JUMPDEST DUP1 ISZERO PUSH2 0x1E84 JUMPI PUSH1 0x0 DUP2 DUP2 DUP2 DUP1 JUMPDEST PUSH2 0x1E6C JUMPI POP PUSH2 0x1E23 DUP2 PUSH2 0x1C99 JUMP JUMPDEST SWAP4 JUMPDEST PUSH2 0x1E2F JUMPI POP POP POP SWAP1 JUMP JUMPDEST PUSH1 0x0 NOT DUP2 ADD SWAP1 DUP2 GT PUSH2 0x57A JUMPI DUP1 SWAP2 PUSH1 0xA SWAP2 PUSH2 0x1E63 PUSH2 0x1E5A PUSH2 0x1D7F PUSH2 0x1E54 DUP7 DUP7 MOD PUSH2 0x1DDE JUMP JUMPDEST PUSH1 0xFF AND SWAP1 JUMP JUMPDEST DUP7 BYTE SWAP2 DUP8 PUSH2 0x1CCB JUMP JUMPDEST MSTORE8 DIV SWAP1 DUP2 PUSH2 0x1E25 JUMP JUMPDEST SWAP2 POP PUSH2 0x1E79 PUSH1 0xA SWAP2 PUSH2 0x17B0 JUMP JUMPDEST SWAP2 DIV DUP1 DUP5 SWAP3 SWAP2 PUSH2 0x1E15 JUMP JUMPDEST POP PUSH1 0x40 MLOAD PUSH1 0x40 DUP2 ADD DUP2 DUP2 LT PUSH8 0xFFFFFFFFFFFFFFFF DUP3 GT OR PUSH2 0x66B JUMPI PUSH1 0x40 MSTORE PUSH1 0x1 DUP2 MSTORE PUSH1 0x3 PUSH1 0xFC SHL PUSH1 0x20 DUP3 ADD MSTORE SWAP1 JUMP JUMPDEST PUSH1 0x40 MLOAD SWAP1 PUSH2 0x1EC0 DUP3 PUSH2 0x64F JUMP JUMPDEST PUSH1 0x40 DUP3 MSTORE PUSH32 0x6768696A6B6C6D6E6F707172737475767778797A303132333435363738392B2F PUSH1 0x40 DUP4 PUSH32 0x4142434445464748494A4B4C4D4E4F505152535455565758595A616263646566 PUSH1 0x20 DUP3 ADD MSTORE ADD MSTORE JUMP JUMPDEST PUSH1 0x2 DUP2 SWAP1 SHL SWAP2 SWAP1 PUSH1 0x1 PUSH1 0x1 PUSH1 0xFE SHL SUB DUP2 AND SUB PUSH2 0x57A JUMPI JUMP JUMPDEST PUSH2 0x1F32 PUSH2 0x1EB3 JUMP JUMPDEST DUP2 MLOAD ISZERO PUSH2 0x201B JUMPI PUSH2 0x1F55 PUSH2 0x1F50 PUSH2 0x1F49 DUP5 MLOAD PUSH2 0x1DEC JUMP JUMPDEST PUSH1 0x3 SWAP1 DIV SWAP1 JUMP JUMPDEST PUSH2 0x1F12 JUMP JUMPDEST SWAP2 PUSH2 0x1F67 PUSH2 0x1F62 DUP5 PUSH2 0x1DFA JUMP JUMPDEST PUSH2 0x1C99 JUMP JUMPDEST SWAP3 PUSH1 0x0 SWAP2 PUSH1 0x20 DUP6 ADD JUMPDEST DUP4 DUP3 MLOAD DUP2 LT ISZERO PUSH2 0x1FD5 JUMPI SWAP1 PUSH1 0x4 SWAP2 PUSH1 0x3 DUP1 SWAP2 ADD SWAP6 DUP5 ADD ADD MLOAD PUSH1 0x1 PUSH1 0x3F SWAP1 DUP1 DUP3 DUP5 PUSH1 0x12 SHR AND DUP11 ADD ADD MLOAD SWAP2 DUP10 PUSH1 0xFF SWAP4 DUP5 DUP5 DUP5 DUP9 PUSH1 0xC SHR AND DUP5 ADD ADD MLOAD AND DUP6 DUP6 PUSH1 0x8 SWAP5 DUP7 DUP11 PUSH1 0x6 SHR AND ADD ADD MLOAD AND SWAP2 DUP4 SHL ADD DUP3 SHL ADD SWAP1 SHL SWAP4 AND DUP10 ADD ADD MLOAD AND ADD PUSH1 0xE0 SHL DUP2 MSTORE ADD PUSH2 0x1F70 JUMP JUMPDEST POP SWAP3 POP PUSH1 0x3 SWAP2 SWAP4 POP MLOAD MOD DUP1 PUSH1 0x1 EQ PUSH2 0x2007 JUMPI PUSH1 0x2 EQ PUSH2 0x1FF5 JUMPI JUMPDEST POP DUP2 MSTORE SWAP1 JUMP JUMPDEST PUSH1 0x3D PUSH1 0xF8 SHL PUSH1 0x0 NOT SWAP1 SWAP2 ADD MSTORE CODESIZE PUSH2 0x1FEF JUMP JUMPDEST POP PUSH2 0x3D3D PUSH1 0xF0 SHL PUSH1 0x1 NOT SWAP1 SWAP2 ADD MSTORE CODESIZE PUSH2 0x1FEF JUMP JUMPDEST POP POP PUSH2 0x2CF PUSH2 0x14E1 JUMP INVALID LOG2 PUSH5 0x6970667358 0x22 SLT KECCAK256 SELFBALANCE PUSH13 0xCC50ED513E9FF55B9DDBC7A8C5 0xBE GASPRICE 0x2E SWAP16 EXTCODECOPY LT PUSH20 0x773E2CCBFCBB7F0DB45964736F6C634300081400 CALLER "},"methodIdentifiers":{"agentInfo(uint256)":"525f91d8","agentTokenOf(address)":"b80180e7","approve(address,uint256)":"095ea7b3","balanceOf(address)":"70a08231","getAgentByAddress(address)":"e68dd342","getApproved(uint256)":"081812fc","isApprovedForAll(address,address)":"e985e9c5","isMinter(address)":"aa271e1a","isRevoked(uint256)":"5ccc561e","locked(uint256)":"b45a3c0e","mintAgentIdentity(address,string,string)":"864f976f","name()":"06fdde03","nameExists(bytes32)":"143dc3f8","owner()":"8da5cb5b","ownerOf(uint256)":"6352211e","renounceOwnership()":"715018a6","revokeIdentity(uint256)":"80a9aed0","revoked(uint256)":"d5b141e7","safeTransferFrom(address,address,uint256)":"42842e0e","safeTransferFrom(address,address,uint256,bytes)":"b88d4fde","setApprovalForAll(address,bool)":"a22cb465","setMinter(address,bool)":"cf456ae7","supportsInterface(bytes4)":"01ffc9a7","symbol()":"95d89b41","tokenURI(uint256)":"c87b56dd","totalSupply()":"18160ddd","transferFrom(address,address,uint256)":"23b872dd","transferOwnership(address)":"f2fde38b"}}}}}