{"contracts/StorageProof.sol":{"StorageProof":{"abi":[{"inputs":[],"stateMutability":"nonpayable","type":"constructor"},{"inputs":[{"internalType":"address","name":"owner","type":"address"}],"name":"OwnableInvalidOwner","type":"error"},{"inputs":[{"internalType":"address","name":"account","type":"address"}],"name":"OwnableUnauthorizedAccount","type":"error"},{"anonymous":false,"inputs":[{"indexed":true,"internalType":"bytes32","name":"challengeId","type":"bytes32"},{"indexed":true,"internalType":"bytes32","name":"nodeId","type":"bytes32"}],"name":"ChallengeExpired","type":"event"},{"anonymous":false,"inputs":[{"indexed":true,"internalType":"bytes32","name":"challengeId","type":"bytes32"},{"indexed":true,"internalType":"bytes32","name":"nodeId","type":"bytes32"},{"indexed":false,"internalType":"bytes32","name":"chunkHash","type":"bytes32"},{"indexed":false,"internalType":"uint256","name":"offset","type":"uint256"}],"name":"ChallengeIssued","type":"event"},{"anonymous":false,"inputs":[{"indexed":true,"internalType":"address","name":"executor","type":"address"},{"indexed":false,"internalType":"bool","name":"allowed","type":"bool"}],"name":"ExecutorUpdated","type":"event"},{"anonymous":false,"inputs":[{"indexed":true,"internalType":"address","name":"previousOwner","type":"address"},{"indexed":true,"internalType":"address","name":"newOwner","type":"address"}],"name":"OwnershipTransferred","type":"event"},{"anonymous":false,"inputs":[{"indexed":true,"internalType":"bytes32","name":"challengeId","type":"bytes32"},{"indexed":true,"internalType":"bytes32","name":"nodeId","type":"bytes32"},{"indexed":false,"internalType":"bytes32","name":"proofHash","type":"bytes32"}],"name":"ProofSubmitted","type":"event"},{"anonymous":false,"inputs":[{"indexed":true,"internalType":"bytes32","name":"challengeId","type":"bytes32"},{"indexed":true,"internalType":"bytes32","name":"nodeId","type":"bytes32"},{"indexed":false,"internalType":"bool","name":"passed","type":"bool"}],"name":"ProofVerified","type":"event"},{"inputs":[{"internalType":"uint256","name":"","type":"uint256"}],"name":"allChallengeIds","outputs":[{"internalType":"bytes32","name":"","type":"bytes32"}],"stateMutability":"view","type":"function"},{"inputs":[],"name":"challengeExpirySeconds","outputs":[{"internalType":"uint256","name":"","type":"uint256"}],"stateMutability":"view","type":"function"},{"inputs":[{"internalType":"bytes32","name":"","type":"bytes32"}],"name":"challenges","outputs":[{"internalType":"bytes32","name":"challengeId","type":"bytes32"},{"internalType":"bytes32","name":"nodeId","type":"bytes32"},{"internalType":"bytes32","name":"chunkHash","type":"bytes32"},{"internalType":"uint256","name":"offset","type":"uint256"},{"internalType":"uint256","name":"readBytes","type":"uint256"},{"internalType":"uint256","name":"createdAt","type":"uint256"},{"internalType":"uint256","name":"expiresAt","type":"uint256"},{"internalType":"enum StorageProof.ChallengeStatus","name":"status","type":"uint8"},{"internalType":"bytes32","name":"expectedHash","type":"bytes32"},{"internalType":"bytes32","name":"submittedHash","type":"bytes32"}],"stateMutability":"view","type":"function"},{"inputs":[{"internalType":"bytes32[]","name":"challengeIds","type":"bytes32[]"}],"name":"expireChallenges","outputs":[],"stateMutability":"nonpayable","type":"function"},{"inputs":[{"internalType":"bytes32","name":"challengeId","type":"bytes32"}],"name":"getChallenge","outputs":[{"components":[{"internalType":"bytes32","name":"challengeId","type":"bytes32"},{"internalType":"bytes32","name":"nodeId","type":"bytes32"},{"internalType":"bytes32","name":"chunkHash","type":"bytes32"},{"internalType":"uint256","name":"offset","type":"uint256"},{"internalType":"uint256","name":"readBytes","type":"uint256"},{"internalType":"uint256","name":"createdAt","type":"uint256"},{"internalType":"uint256","name":"expiresAt","type":"uint256"},{"internalType":"enum StorageProof.ChallengeStatus","name":"status","type":"uint8"},{"internalType":"bytes32","name":"expectedHash","type":"bytes32"},{"internalType":"bytes32","name":"submittedHash","type":"bytes32"}],"internalType":"struct StorageProof.Challenge","name":"","type":"tuple"}],"stateMutability":"view","type":"function"},{"inputs":[{"internalType":"bytes32","name":"nodeId","type":"bytes32"}],"name":"getNodeProofStats","outputs":[{"internalType":"uint256","name":"passed","type":"uint256"},{"internalType":"uint256","name":"failed","type":"uint256"},{"internalType":"uint256","name":"lastChallenge","type":"uint256"},{"internalType":"uint256","name":"successRate","type":"uint256"}],"stateMutability":"view","type":"function"},{"inputs":[],"name":"getTotalChallenges","outputs":[{"internalType":"uint256","name":"","type":"uint256"}],"stateMutability":"view","type":"function"},{"inputs":[{"internalType":"address","name":"","type":"address"}],"name":"isExecutor","outputs":[{"internalType":"bool","name":"","type":"bool"}],"stateMutability":"view","type":"function"},{"inputs":[{"internalType":"bytes32[]","name":"challengeIds","type":"bytes32[]"},{"internalType":"bytes32[]","name":"nodeIds","type":"bytes32[]"},{"internalType":"bytes32[]","name":"chunkHashes","type":"bytes32[]"},{"internalType":"uint256[]","name":"offsets","type":"uint256[]"},{"internalType":"uint256[]","name":"readBytesArr","type":"uint256[]"}],"name":"issueChallenges","outputs":[],"stateMutability":"nonpayable","type":"function"},{"inputs":[],"name":"maxChallengesPerBatch","outputs":[{"internalType":"uint256","name":"","type":"uint256"}],"stateMutability":"view","type":"function"},{"inputs":[{"internalType":"bytes32","name":"","type":"bytes32"}],"name":"nodeLastChallenge","outputs":[{"internalType":"uint256","name":"","type":"uint256"}],"stateMutability":"view","type":"function"},{"inputs":[{"internalType":"bytes32","name":"","type":"bytes32"}],"name":"nodeProofsFailed","outputs":[{"internalType":"uint256","name":"","type":"uint256"}],"stateMutability":"view","type":"function"},{"inputs":[{"internalType":"bytes32","name":"","type":"bytes32"}],"name":"nodeProofsPassed","outputs":[{"internalType":"uint256","name":"","type":"uint256"}],"stateMutability":"view","type":"function"},{"inputs":[],"name":"owner","outputs":[{"internalType":"address","name":"","type":"address"}],"stateMutability":"view","type":"function"},{"inputs":[],"name":"renounceOwnership","outputs":[],"stateMutability":"nonpayable","type":"function"},{"inputs":[{"internalType":"uint256","name":"seconds_","type":"uint256"}],"name":"setChallengeExpiry","outputs":[],"stateMutability":"nonpayable","type":"function"},{"inputs":[{"internalType":"address","name":"executor","type":"address"},{"internalType":"bool","name":"allowed","type":"bool"}],"name":"setExecutor","outputs":[],"stateMutability":"nonpayable","type":"function"},{"inputs":[{"internalType":"uint256","name":"maxBatch","type":"uint256"}],"name":"setMaxBatchSize","outputs":[],"stateMutability":"nonpayable","type":"function"},{"inputs":[{"internalType":"bytes32[]","name":"challengeIds","type":"bytes32[]"},{"internalType":"bytes32[]","name":"proofHashes","type":"bytes32[]"}],"name":"submitProofs","outputs":[],"stateMutability":"nonpayable","type":"function"},{"inputs":[{"internalType":"address","name":"newOwner","type":"address"}],"name":"transferOwnership","outputs":[],"stateMutability":"nonpayable","type":"function"},{"inputs":[{"internalType":"bytes32[]","name":"challengeIds","type":"bytes32[]"},{"internalType":"bytes32[]","name":"expectedHashes","type":"bytes32[]"}],"name":"verifyProofs","outputs":[],"stateMutability":"nonpayable","type":"function"}],"evm":{"bytecode":{"linkReferences":{},"object":"6080806040523461009c5733156100865760008054336001600160a01b0319821681178355604080519390929091906001600160a01b03167f8be0079c531659141344cd1fd0a4f28419497f9722a3daafe3b4186f6b6457e08380a361012c600655600a600755338152600860205220805460ff191660011790556111d490816100a28239f35b631e4fbdf760e01b815260006004820152602490fd5b600080fdfe608080604052600436101561001357600080fd5b60003560e01c9081630e2d861814610f44575080631e1bff3f14610ec5578063251e3f0e14610ea45780632b26a6bf14610e83578063458d2bf114610d3d5780634cf314d414610c825780635127953b14610c4b57806363ef286414610a9a57806367a0e30a14610967578063715018a61461090e57806378ea8d42146108e25780638da5cb5b146108b9578063a404fc501461088d578063ac3e7e86146106c8578063b693d4ef1461069c578063c1e69b6614610601578063dbe65cd3146105e3578063de9105b3146105c5578063debfda3014610586578063f2fde38b146104f85763fefa0c7d1461010657600080fd5b346104f35760a03660031901126104f35767ffffffffffffffff6004358181116104f357610138903690600401610fcf565b60249182358481116104f357610152903690600401610fcf565b6044929192358681116104f35761016d903690600401610fcf565b9190946064358881116104f357610188903690600401610fcf565b9490986084359081116104f3576101a3903690600401610fcf565b98909833600052600860205260ff6040600020541680156104df575b6101c890611077565b848414806104d6575b806104cd575b806104c4575b6101e6906110b5565b600754841161048a576101fb600654426110f9565b9060005b85811061020857005b610213818787611115565b35600052600160205260056040600020015461044657898b8d8f61026d85878f8f8f918f8f869361025885610266976102518261025f978197611115565b359f611115565b359b611115565b3596611115565b3594611115565b3592610277611125565b94855260208501526040840152606083015260808201524260a08201528360c0820152600060e0820152600061010082015260006101208201526102bc828888611115565b356000526001602052604060002090805182556020810151600183015560408101516002830155606081015160038301556080810151600483015560a0810151600583015560c0810151600683015560e081015160048110156104315760099161012091600785019060ff801983541691161790556101008101516008850155015191015561034c818787611115565b356002546801000000000000000081101561041c578b8f60408f93916104068f978f988f8f8f9b6103f885846104179f829f83968f927fff9335d945650a7848603e44892785bec52df2318c45f23b634eb2d0ff7b3b939f866103ff9b6103f19682966103c28560016103dd9701600255610f82565b819291549060031b91821b91600019901b1916179055611115565b356000526005602052428f60002055611115565b359c611115565b359a611115565b3593611115565b3582519182526020820152a3611106565b6101ff565b85634e487b7160e01b60005260416004526000fd5b86634e487b7160e01b60005260216004526000fd5b60405162461bcd60e51b8152602060048201526018818601527f4368616c6c656e676520616c72656164792065786973747300000000000000006044820152606490fd5b60405162461bcd60e51b81526020600482015260138184015272546f6f206d616e79206368616c6c656e67657360681b6044820152606490fd5b508381146101dd565b508684146101d7565b508584146101d1565b506000546001600160a01b031633146101bf565b600080fd5b346104f35760203660031901126104f357610511610f5f565b61051961104b565b6001600160a01b0390811690811561056d57600054826bffffffffffffffffffffffff60a01b821617600055167f8be0079c531659141344cd1fd0a4f28419497f9722a3daafe3b4186f6b6457e0600080a3005b604051631e4fbdf760e01b815260006004820152602490fd5b346104f35760203660031901126104f3576001600160a01b036105a7610f5f565b166000526008602052602060ff604060002054166040519015158152f35b346104f35760003660031901126104f3576020600254604051908152f35b346104f35760003660031901126104f3576020600754604051908152f35b346104f35760203660031901126104f3576004356000526001602052610140604060002080549060018101549061068e60028201546003830154600484015460058501549060068601549260ff6007880154169460096008890154980154986040519a8b5260208b015260408a01526060890152608088015260a087015260c086015260e0850190610f75565b610100830152610120820152f35b346104f35760203660031901126104f35760043560005260036020526020604060002054604051908152f35b346104f3576106d636611000565b92336000526020936008855260ff9182604060002054168015610879575b6106fd90611077565b6107088286146110b5565b60005b85811061071457005b61071f818784611115565b356000526001808852604060002061073c6005820154151561115c565b6007810180548781166004811015610863576108265790829160066107c3969594015442116107c85750509061077383878a611115565b356009830155610784838a87611115565b35910154907f32c9117442431c0bcfdbbef33bc9918d148ad082e0f38d70bbde857f01d225c88a6107b685898c611115565b35604051908152a3611106565b61070b565b60039060ff19161790550180546000526004895260406000206107eb8154611106565b90556107f8828986611115565b359054907fbda12ecafa37ca6b8d9c088ed9e32c0d08904a603e51d9135dc713da994ba0b1600080a3611106565b60405162461bcd60e51b8152600481018c905260156024820152744368616c6c656e6765206e6f742070656e64696e6760581b6044820152606490fd5b634e487b7160e01b600052602160045260246000fd5b506000546001600160a01b031633146106f4565b346104f35760203660031901126104f35760043560005260056020526020604060002054604051908152f35b346104f35760003660031901126104f3576000546040516001600160a01b039091168152602090f35b346104f35760203660031901126104f35760043560005260046020526020604060002054604051908152f35b346104f35760003660031901126104f35761092761104b565b600080546001600160a01b0319811682556001600160a01b03167f8be0079c531659141344cd1fd0a4f28419497f9722a3daafe3b4186f6b6457e08280a3005b346104f3576020806003193601126104f35760043567ffffffffffffffff81116104f357610999903690600401610fcf565b9091336000526008815260ff80604060002054168015610a86575b6109bd90611077565b60005b8381106109c957005b6109d4818587611115565b35600052600190818452604060002091600783019283549385851694600486101561086357610a12951580610a79575b610a17575b50505050611106565b6109c0565b60039060ff1916179055018054600052600485526040600020610a3a8154611106565b9055610a47828789611115565b359054907fbda12ecafa37ca6b8d9c088ed9e32c0d08904a603e51d9135dc713da994ba0b1600080a386808080610a09565b5060068301544211610a04565b506000546001600160a01b031633146109b4565b346104f357610aa836611000565b919033600052600893602085815260ff9384604060002054168015610c37575b610ad190611077565b610adc8682146110b5565b60005b818110610ae857005b610af3818386611115565b356000526001908184526040600020610b116005820154151561115c565b60078101805491898316600481101561086357610bcf958a938e878f8c95610c2957610b5292610b4283838b611115565b3590880155600987015497611115565b3585149485610bff575b5084957f93d4ed78b89f39dcd2420a893e1b1e1de5b0eebd04d5982192df6853a0b5e87b9495600014610bd457508160ff1982541617905580840154600052600382526040600020610bae8154611106565b90555b610bbc86898c611115565b35930154936040519015158152a3611106565b610adf565b60029060ff191617905580840154600052600482526040600020610bf88154611106565b9055610bb1565b151594507f93d4ed78b89f39dcd2420a893e1b1e1de5b0eebd04d5982192df6853a0b5e87b610b5c565b505050505050505050611106565b506000546001600160a01b03163314610ac8565b346104f35760203660031901126104f3576004356002548110156104f357610c74602091610f82565b90546040519160031b1c8152f35b346104f35760203660031901126104f3576004356000526003602052604060002054600460205260406000205490600560205260406000205491610cc681836110f9565b8015939084610d305761271094858502958587041485151715610d1a57610d045760809404915b604051938452602084015260408301526060820152f35b634e487b7160e01b600052601260045260246000fd5b634e487b7160e01b600052601160045260246000fd5b5060809350600091610ced565b346104f35760203660031901126104f357610d56611125565b6000815260006020820152600060408201526000606082015260006080820152600060a0820152600060c0820152600060e08201526101006000818301526000610120809301526004356000526001602052604060002091610db6611125565b918354835260018401549060208401918252600285015494604085019586526003810154906060860191825260048101549160808701928352600582015460a0880190815260068301549060c0890191825260ff6007850154169460e08a01936004871015610863576101409b6009610e77978d9988528a60088201549a01998a520154998b8d019a8b526040519c518d525160208d01525160408c01525160608b01525160808a01525160a08901525160c08801525160e0870190610f75565b51908401525190820152f35b346104f35760203660031901126104f357610e9c61104b565b600435600755005b346104f35760203660031901126104f357610ebd61104b565b600435600655005b346104f35760403660031901126104f357610ede610f5f565b602435908115158092036104f35760207f9fdbc2d48b8a0db2f62663bf9312ad02f5b1f6414ad600b55a247d09aeec3ea291610f1861104b565b60018060a01b0316928360005260088252604060002060ff1981541660ff8316179055604051908152a2005b346104f35760003660031901126104f3576020906006548152f35b600435906001600160a01b03821682036104f357565b9060048210156108635752565b600254811015610fb95760026000527f405787fa12a823e0f2b7631cc41b3ba8828b3321ca811111fa75cd3aa3bb5ace0190600090565b634e487b7160e01b600052603260045260246000fd5b9181601f840112156104f35782359167ffffffffffffffff83116104f3576020808501948460051b0101116104f357565b60406003198201126104f35767ffffffffffffffff916004358381116104f3578261102d91600401610fcf565b939093926024359182116104f35761104791600401610fcf565b9091565b6000546001600160a01b0316330361105f57565b60405163118cdaa760e01b8152336004820152602490fd5b1561107e57565b60405162461bcd60e51b815260206004820152600f60248201526e2737ba1030b71032bc32b1baba37b960891b6044820152606490fd5b156110bc57565b60405162461bcd60e51b8152602060048201526015602482015274082e4e4c2f240d8cadccee8d040dad2e6dac2e8c6d605b1b6044820152606490fd5b91908201809211610d1a57565b6000198114610d1a5760010190565b9190811015610fb95760051b0190565b60405190610140820182811067ffffffffffffffff82111761114657604052565b634e487b7160e01b600052604160045260246000fd5b1561116357565b60405162461bcd60e51b815260206004820152601360248201527210da185b1b195b99d9481b9bdd08199bdd5b99606a1b6044820152606490fdfea26469706673582212203f5b0d8c4bb65b7ef2a6509eb3fe471cb9a534c5a8d1bc85f21e339780f289c664736f6c63430008140033","opcodes":"PUSH1 0x80 DUP1 PUSH1 0x40 MSTORE CALLVALUE PUSH2 0x9C JUMPI CALLER ISZERO PUSH2 0x86 JUMPI PUSH1 0x0 DUP1 SLOAD CALLER PUSH1 0x1 PUSH1 0x1 PUSH1 0xA0 SHL SUB NOT DUP3 AND DUP2 OR DUP4 SSTORE PUSH1 0x40 DUP1 MLOAD SWAP4 SWAP1 SWAP3 SWAP1 SWAP2 SWAP1 PUSH1 0x1 PUSH1 0x1 PUSH1 0xA0 SHL SUB AND PUSH32 0x8BE0079C531659141344CD1FD0A4F28419497F9722A3DAAFE3B4186F6B6457E0 DUP4 DUP1 LOG3 PUSH2 0x12C PUSH1 0x6 SSTORE PUSH1 0xA PUSH1 0x7 SSTORE CALLER DUP2 MSTORE PUSH1 0x8 PUSH1 0x20 MSTORE KECCAK256 DUP1 SLOAD PUSH1 0xFF NOT AND PUSH1 0x1 OR SWAP1 SSTORE PUSH2 0x11D4 SWAP1 DUP2 PUSH2 0xA2 DUP3 CODECOPY RETURN JUMPDEST PUSH4 0x1E4FBDF7 PUSH1 0xE0 SHL DUP2 MSTORE PUSH1 0x0 PUSH1 0x4 DUP3 ADD MSTORE PUSH1 0x24 SWAP1 REVERT JUMPDEST PUSH1 0x0 DUP1 REVERT INVALID PUSH1 0x80 DUP1 PUSH1 0x40 MSTORE PUSH1 0x4 CALLDATASIZE LT ISZERO PUSH2 0x13 JUMPI PUSH1 0x0 DUP1 REVERT JUMPDEST PUSH1 0x0 CALLDATALOAD PUSH1 0xE0 SHR SWAP1 DUP2 PUSH4 0xE2D8618 EQ PUSH2 0xF44 JUMPI POP DUP1 PUSH4 0x1E1BFF3F EQ PUSH2 0xEC5 JUMPI DUP1 PUSH4 0x251E3F0E EQ PUSH2 0xEA4 JUMPI DUP1 PUSH4 0x2B26A6BF EQ PUSH2 0xE83 JUMPI DUP1 PUSH4 0x458D2BF1 EQ PUSH2 0xD3D JUMPI DUP1 PUSH4 0x4CF314D4 EQ PUSH2 0xC82 JUMPI DUP1 PUSH4 0x5127953B EQ PUSH2 0xC4B JUMPI DUP1 PUSH4 0x63EF2864 EQ PUSH2 0xA9A JUMPI DUP1 PUSH4 0x67A0E30A EQ PUSH2 0x967 JUMPI DUP1 PUSH4 0x715018A6 EQ PUSH2 0x90E JUMPI DUP1 PUSH4 0x78EA8D42 EQ PUSH2 0x8E2 JUMPI DUP1 PUSH4 0x8DA5CB5B EQ PUSH2 0x8B9 JUMPI DUP1 PUSH4 0xA404FC50 EQ PUSH2 0x88D JUMPI DUP1 PUSH4 0xAC3E7E86 EQ PUSH2 0x6C8 JUMPI DUP1 PUSH4 0xB693D4EF EQ PUSH2 0x69C JUMPI DUP1 PUSH4 0xC1E69B66 EQ PUSH2 0x601 JUMPI DUP1 PUSH4 0xDBE65CD3 EQ PUSH2 0x5E3 JUMPI DUP1 PUSH4 0xDE9105B3 EQ PUSH2 0x5C5 JUMPI DUP1 PUSH4 0xDEBFDA30 EQ PUSH2 0x586 JUMPI DUP1 PUSH4 0xF2FDE38B EQ PUSH2 0x4F8 JUMPI PUSH4 0xFEFA0C7D EQ PUSH2 0x106 JUMPI PUSH1 0x0 DUP1 REVERT JUMPDEST CALLVALUE PUSH2 0x4F3 JUMPI PUSH1 0xA0 CALLDATASIZE PUSH1 0x3 NOT ADD SLT PUSH2 0x4F3 JUMPI PUSH8 0xFFFFFFFFFFFFFFFF PUSH1 0x4 CALLDATALOAD DUP2 DUP2 GT PUSH2 0x4F3 JUMPI PUSH2 0x138 SWAP1 CALLDATASIZE SWAP1 PUSH1 0x4 ADD PUSH2 0xFCF JUMP JUMPDEST PUSH1 0x24 SWAP2 DUP3 CALLDATALOAD DUP5 DUP2 GT PUSH2 0x4F3 JUMPI PUSH2 0x152 SWAP1 CALLDATASIZE SWAP1 PUSH1 0x4 ADD PUSH2 0xFCF JUMP JUMPDEST PUSH1 0x44 SWAP3 SWAP2 SWAP3 CALLDATALOAD DUP7 DUP2 GT PUSH2 0x4F3 JUMPI PUSH2 0x16D SWAP1 CALLDATASIZE SWAP1 PUSH1 0x4 ADD PUSH2 0xFCF JUMP JUMPDEST SWAP2 SWAP1 SWAP5 PUSH1 0x64 CALLDATALOAD DUP9 DUP2 GT PUSH2 0x4F3 JUMPI PUSH2 0x188 SWAP1 CALLDATASIZE SWAP1 PUSH1 0x4 ADD PUSH2 0xFCF JUMP JUMPDEST SWAP5 SWAP1 SWAP9 PUSH1 0x84 CALLDATALOAD SWAP1 DUP2 GT PUSH2 0x4F3 JUMPI PUSH2 0x1A3 SWAP1 CALLDATASIZE SWAP1 PUSH1 0x4 ADD PUSH2 0xFCF JUMP JUMPDEST SWAP9 SWAP1 SWAP9 CALLER PUSH1 0x0 MSTORE PUSH1 0x8 PUSH1 0x20 MSTORE PUSH1 0xFF PUSH1 0x40 PUSH1 0x0 KECCAK256 SLOAD AND DUP1 ISZERO PUSH2 0x4DF JUMPI JUMPDEST PUSH2 0x1C8 SWAP1 PUSH2 0x1077 JUMP JUMPDEST DUP5 DUP5 EQ DUP1 PUSH2 0x4D6 JUMPI JUMPDEST DUP1 PUSH2 0x4CD JUMPI JUMPDEST DUP1 PUSH2 0x4C4 JUMPI JUMPDEST PUSH2 0x1E6 SWAP1 PUSH2 0x10B5 JUMP JUMPDEST PUSH1 0x7 SLOAD DUP5 GT PUSH2 0x48A JUMPI PUSH2 0x1FB PUSH1 0x6 SLOAD TIMESTAMP PUSH2 0x10F9 JUMP JUMPDEST SWAP1 PUSH1 0x0 JUMPDEST DUP6 DUP2 LT PUSH2 0x208 JUMPI STOP JUMPDEST PUSH2 0x213 DUP2 DUP8 DUP8 PUSH2 0x1115 JUMP JUMPDEST CALLDATALOAD PUSH1 0x0 MSTORE PUSH1 0x1 PUSH1 0x20 MSTORE PUSH1 0x5 PUSH1 0x40 PUSH1 0x0 KECCAK256 ADD SLOAD PUSH2 0x446 JUMPI DUP10 DUP12 DUP14 DUP16 PUSH2 0x26D DUP6 DUP8 DUP16 DUP16 DUP16 SWAP2 DUP16 DUP16 DUP7 SWAP4 PUSH2 0x258 DUP6 PUSH2 0x266 SWAP8 PUSH2 0x251 DUP3 PUSH2 0x25F SWAP8 DUP2 SWAP8 PUSH2 0x1115 JUMP JUMPDEST CALLDATALOAD SWAP16 PUSH2 0x1115 JUMP JUMPDEST CALLDATALOAD SWAP12 PUSH2 0x1115 JUMP JUMPDEST CALLDATALOAD SWAP7 PUSH2 0x1115 JUMP JUMPDEST CALLDATALOAD SWAP5 PUSH2 0x1115 JUMP JUMPDEST CALLDATALOAD SWAP3 PUSH2 0x277 PUSH2 0x1125 JUMP JUMPDEST SWAP5 DUP6 MSTORE PUSH1 0x20 DUP6 ADD MSTORE PUSH1 0x40 DUP5 ADD MSTORE PUSH1 0x60 DUP4 ADD MSTORE PUSH1 0x80 DUP3 ADD MSTORE TIMESTAMP PUSH1 0xA0 DUP3 ADD MSTORE DUP4 PUSH1 0xC0 DUP3 ADD MSTORE PUSH1 0x0 PUSH1 0xE0 DUP3 ADD MSTORE PUSH1 0x0 PUSH2 0x100 DUP3 ADD MSTORE PUSH1 0x0 PUSH2 0x120 DUP3 ADD MSTORE PUSH2 0x2BC DUP3 DUP9 DUP9 PUSH2 0x1115 JUMP JUMPDEST CALLDATALOAD PUSH1 0x0 MSTORE PUSH1 0x1 PUSH1 0x20 MSTORE PUSH1 0x40 PUSH1 0x0 KECCAK256 SWAP1 DUP1 MLOAD DUP3 SSTORE PUSH1 0x20 DUP2 ADD MLOAD PUSH1 0x1 DUP4 ADD SSTORE PUSH1 0x40 DUP2 ADD MLOAD PUSH1 0x2 DUP4 ADD SSTORE PUSH1 0x60 DUP2 ADD MLOAD PUSH1 0x3 DUP4 ADD SSTORE PUSH1 0x80 DUP2 ADD MLOAD PUSH1 0x4 DUP4 ADD SSTORE PUSH1 0xA0 DUP2 ADD MLOAD PUSH1 0x5 DUP4 ADD SSTORE PUSH1 0xC0 DUP2 ADD MLOAD PUSH1 0x6 DUP4 ADD SSTORE PUSH1 0xE0 DUP2 ADD MLOAD PUSH1 0x4 DUP2 LT ISZERO PUSH2 0x431 JUMPI PUSH1 0x9 SWAP2 PUSH2 0x120 SWAP2 PUSH1 0x7 DUP6 ADD SWAP1 PUSH1 0xFF DUP1 NOT DUP4 SLOAD AND SWAP2 AND OR SWAP1 SSTORE PUSH2 0x100 DUP2 ADD MLOAD PUSH1 0x8 DUP6 ADD SSTORE ADD MLOAD SWAP2 ADD SSTORE PUSH2 0x34C DUP2 DUP8 DUP8 PUSH2 0x1115 JUMP JUMPDEST CALLDATALOAD PUSH1 0x2 SLOAD PUSH9 0x10000000000000000 DUP2 LT ISZERO PUSH2 0x41C JUMPI DUP12 DUP16 PUSH1 0x40 DUP16 SWAP4 SWAP2 PUSH2 0x406 DUP16 SWAP8 DUP16 SWAP9 DUP16 DUP16 DUP16 SWAP12 PUSH2 0x3F8 DUP6 DUP5 PUSH2 0x417 SWAP16 DUP3 SWAP16 DUP4 SWAP7 DUP16 SWAP3 PUSH32 0xFF9335D945650A7848603E44892785BEC52DF2318C45F23B634EB2D0FF7B3B93 SWAP16 DUP7 PUSH2 0x3FF SWAP12 PUSH2 0x3F1 SWAP7 DUP3 SWAP7 PUSH2 0x3C2 DUP6 PUSH1 0x1 PUSH2 0x3DD SWAP8 ADD PUSH1 0x2 SSTORE PUSH2 0xF82 JUMP JUMPDEST DUP2 SWAP3 SWAP2 SLOAD SWAP1 PUSH1 0x3 SHL SWAP2 DUP3 SHL SWAP2 PUSH1 0x0 NOT SWAP1 SHL NOT AND OR SWAP1 SSTORE PUSH2 0x1115 JUMP JUMPDEST CALLDATALOAD PUSH1 0x0 MSTORE PUSH1 0x5 PUSH1 0x20 MSTORE TIMESTAMP DUP16 PUSH1 0x0 KECCAK256 SSTORE PUSH2 0x1115 JUMP JUMPDEST CALLDATALOAD SWAP13 PUSH2 0x1115 JUMP JUMPDEST CALLDATALOAD SWAP11 PUSH2 0x1115 JUMP JUMPDEST CALLDATALOAD SWAP4 PUSH2 0x1115 JUMP JUMPDEST CALLDATALOAD DUP3 MLOAD SWAP2 DUP3 MSTORE PUSH1 0x20 DUP3 ADD MSTORE LOG3 PUSH2 0x1106 JUMP JUMPDEST PUSH2 0x1FF JUMP JUMPDEST DUP6 PUSH4 0x4E487B71 PUSH1 0xE0 SHL PUSH1 0x0 MSTORE PUSH1 0x41 PUSH1 0x4 MSTORE PUSH1 0x0 REVERT JUMPDEST DUP7 PUSH4 0x4E487B71 PUSH1 0xE0 SHL PUSH1 0x0 MSTORE PUSH1 0x21 PUSH1 0x4 MSTORE PUSH1 0x0 REVERT JUMPDEST PUSH1 0x40 MLOAD PUSH3 0x461BCD PUSH1 0xE5 SHL DUP2 MSTORE PUSH1 0x20 PUSH1 0x4 DUP3 ADD MSTORE PUSH1 0x18 DUP2 DUP7 ADD MSTORE PUSH32 0x4368616C6C656E676520616C7265616479206578697374730000000000000000 PUSH1 0x44 DUP3 ADD MSTORE PUSH1 0x64 SWAP1 REVERT JUMPDEST PUSH1 0x40 MLOAD PUSH3 0x461BCD PUSH1 0xE5 SHL DUP2 MSTORE PUSH1 0x20 PUSH1 0x4 DUP3 ADD MSTORE PUSH1 0x13 DUP2 DUP5 ADD MSTORE PUSH19 0x546F6F206D616E79206368616C6C656E676573 PUSH1 0x68 SHL PUSH1 0x44 DUP3 ADD MSTORE PUSH1 0x64 SWAP1 REVERT JUMPDEST POP DUP4 DUP2 EQ PUSH2 0x1DD JUMP JUMPDEST POP DUP7 DUP5 EQ PUSH2 0x1D7 JUMP JUMPDEST POP DUP6 DUP5 EQ PUSH2 0x1D1 JUMP JUMPDEST POP PUSH1 0x0 SLOAD PUSH1 0x1 PUSH1 0x1 PUSH1 0xA0 SHL SUB AND CALLER EQ PUSH2 0x1BF JUMP JUMPDEST PUSH1 0x0 DUP1 REVERT JUMPDEST CALLVALUE PUSH2 0x4F3 JUMPI PUSH1 0x20 CALLDATASIZE PUSH1 0x3 NOT ADD SLT PUSH2 0x4F3 JUMPI PUSH2 0x511 PUSH2 0xF5F JUMP JUMPDEST PUSH2 0x519 PUSH2 0x104B JUMP JUMPDEST PUSH1 0x1 PUSH1 0x1 PUSH1 0xA0 SHL SUB SWAP1 DUP2 AND SWAP1 DUP2 ISZERO PUSH2 0x56D JUMPI PUSH1 0x0 SLOAD DUP3 PUSH12 0xFFFFFFFFFFFFFFFFFFFFFFFF PUSH1 0xA0 SHL DUP3 AND OR PUSH1 0x0 SSTORE AND PUSH32 0x8BE0079C531659141344CD1FD0A4F28419497F9722A3DAAFE3B4186F6B6457E0 PUSH1 0x0 DUP1 LOG3 STOP JUMPDEST PUSH1 0x40 MLOAD PUSH4 0x1E4FBDF7 PUSH1 0xE0 SHL DUP2 MSTORE PUSH1 0x0 PUSH1 0x4 DUP3 ADD MSTORE PUSH1 0x24 SWAP1 REVERT JUMPDEST CALLVALUE PUSH2 0x4F3 JUMPI PUSH1 0x20 CALLDATASIZE PUSH1 0x3 NOT ADD SLT PUSH2 0x4F3 JUMPI PUSH1 0x1 PUSH1 0x1 PUSH1 0xA0 SHL SUB PUSH2 0x5A7 PUSH2 0xF5F JUMP JUMPDEST AND PUSH1 0x0 MSTORE PUSH1 0x8 PUSH1 0x20 MSTORE PUSH1 0x20 PUSH1 0xFF PUSH1 0x40 PUSH1 0x0 KECCAK256 SLOAD AND PUSH1 0x40 MLOAD SWAP1 ISZERO ISZERO DUP2 MSTORE RETURN JUMPDEST CALLVALUE PUSH2 0x4F3 JUMPI PUSH1 0x0 CALLDATASIZE PUSH1 0x3 NOT ADD SLT PUSH2 0x4F3 JUMPI PUSH1 0x20 PUSH1 0x2 SLOAD PUSH1 0x40 MLOAD SWAP1 DUP2 MSTORE RETURN JUMPDEST CALLVALUE PUSH2 0x4F3 JUMPI PUSH1 0x0 CALLDATASIZE PUSH1 0x3 NOT ADD SLT PUSH2 0x4F3 JUMPI PUSH1 0x20 PUSH1 0x7 SLOAD PUSH1 0x40 MLOAD SWAP1 DUP2 MSTORE RETURN JUMPDEST CALLVALUE PUSH2 0x4F3 JUMPI PUSH1 0x20 CALLDATASIZE PUSH1 0x3 NOT ADD SLT PUSH2 0x4F3 JUMPI PUSH1 0x4 CALLDATALOAD PUSH1 0x0 MSTORE PUSH1 0x1 PUSH1 0x20 MSTORE PUSH2 0x140 PUSH1 0x40 PUSH1 0x0 KECCAK256 DUP1 SLOAD SWAP1 PUSH1 0x1 DUP2 ADD SLOAD SWAP1 PUSH2 0x68E PUSH1 0x2 DUP3 ADD SLOAD PUSH1 0x3 DUP4 ADD SLOAD PUSH1 0x4 DUP5 ADD SLOAD PUSH1 0x5 DUP6 ADD SLOAD SWAP1 PUSH1 0x6 DUP7 ADD SLOAD SWAP3 PUSH1 0xFF PUSH1 0x7 DUP9 ADD SLOAD AND SWAP5 PUSH1 0x9 PUSH1 0x8 DUP10 ADD SLOAD SWAP9 ADD SLOAD SWAP9 PUSH1 0x40 MLOAD SWAP11 DUP12 MSTORE PUSH1 0x20 DUP12 ADD MSTORE PUSH1 0x40 DUP11 ADD MSTORE PUSH1 0x60 DUP10 ADD MSTORE PUSH1 0x80 DUP9 ADD MSTORE PUSH1 0xA0 DUP8 ADD MSTORE PUSH1 0xC0 DUP7 ADD MSTORE PUSH1 0xE0 DUP6 ADD SWAP1 PUSH2 0xF75 JUMP JUMPDEST PUSH2 0x100 DUP4 ADD MSTORE PUSH2 0x120 DUP3 ADD MSTORE RETURN JUMPDEST CALLVALUE PUSH2 0x4F3 JUMPI PUSH1 0x20 CALLDATASIZE PUSH1 0x3 NOT ADD SLT PUSH2 0x4F3 JUMPI PUSH1 0x4 CALLDATALOAD PUSH1 0x0 MSTORE PUSH1 0x3 PUSH1 0x20 MSTORE PUSH1 0x20 PUSH1 0x40 PUSH1 0x0 KECCAK256 SLOAD PUSH1 0x40 MLOAD SWAP1 DUP2 MSTORE RETURN JUMPDEST CALLVALUE PUSH2 0x4F3 JUMPI PUSH2 0x6D6 CALLDATASIZE PUSH2 0x1000 JUMP JUMPDEST SWAP3 CALLER PUSH1 0x0 MSTORE PUSH1 0x20 SWAP4 PUSH1 0x8 DUP6 MSTORE PUSH1 0xFF SWAP2 DUP3 PUSH1 0x40 PUSH1 0x0 KECCAK256 SLOAD AND DUP1 ISZERO PUSH2 0x879 JUMPI JUMPDEST PUSH2 0x6FD SWAP1 PUSH2 0x1077 JUMP JUMPDEST PUSH2 0x708 DUP3 DUP7 EQ PUSH2 0x10B5 JUMP JUMPDEST PUSH1 0x0 JUMPDEST DUP6 DUP2 LT PUSH2 0x714 JUMPI STOP JUMPDEST PUSH2 0x71F DUP2 DUP8 DUP5 PUSH2 0x1115 JUMP JUMPDEST CALLDATALOAD PUSH1 0x0 MSTORE PUSH1 0x1 DUP1 DUP9 MSTORE PUSH1 0x40 PUSH1 0x0 KECCAK256 PUSH2 0x73C PUSH1 0x5 DUP3 ADD SLOAD ISZERO ISZERO PUSH2 0x115C JUMP JUMPDEST PUSH1 0x7 DUP2 ADD DUP1 SLOAD DUP8 DUP2 AND PUSH1 0x4 DUP2 LT ISZERO PUSH2 0x863 JUMPI PUSH2 0x826 JUMPI SWAP1 DUP3 SWAP2 PUSH1 0x6 PUSH2 0x7C3 SWAP7 SWAP6 SWAP5 ADD SLOAD TIMESTAMP GT PUSH2 0x7C8 JUMPI POP POP SWAP1 PUSH2 0x773 DUP4 DUP8 DUP11 PUSH2 0x1115 JUMP JUMPDEST CALLDATALOAD PUSH1 0x9 DUP4 ADD SSTORE PUSH2 0x784 DUP4 DUP11 DUP8 PUSH2 0x1115 JUMP JUMPDEST CALLDATALOAD SWAP2 ADD SLOAD SWAP1 PUSH32 0x32C9117442431C0BCFDBBEF33BC9918D148AD082E0F38D70BBDE857F01D225C8 DUP11 PUSH2 0x7B6 DUP6 DUP10 DUP13 PUSH2 0x1115 JUMP JUMPDEST CALLDATALOAD PUSH1 0x40 MLOAD SWAP1 DUP2 MSTORE LOG3 PUSH2 0x1106 JUMP JUMPDEST PUSH2 0x70B JUMP JUMPDEST PUSH1 0x3 SWAP1 PUSH1 0xFF NOT AND OR SWAP1 SSTORE ADD DUP1 SLOAD PUSH1 0x0 MSTORE PUSH1 0x4 DUP10 MSTORE PUSH1 0x40 PUSH1 0x0 KECCAK256 PUSH2 0x7EB DUP2 SLOAD PUSH2 0x1106 JUMP JUMPDEST SWAP1 SSTORE PUSH2 0x7F8 DUP3 DUP10 DUP7 PUSH2 0x1115 JUMP JUMPDEST CALLDATALOAD SWAP1 SLOAD SWAP1 PUSH32 0xBDA12ECAFA37CA6B8D9C088ED9E32C0D08904A603E51D9135DC713DA994BA0B1 PUSH1 0x0 DUP1 LOG3 PUSH2 0x1106 JUMP JUMPDEST PUSH1 0x40 MLOAD PUSH3 0x461BCD PUSH1 0xE5 SHL DUP2 MSTORE PUSH1 0x4 DUP2 ADD DUP13 SWAP1 MSTORE PUSH1 0x15 PUSH1 0x24 DUP3 ADD MSTORE PUSH21 0x4368616C6C656E6765206E6F742070656E64696E67 PUSH1 0x58 SHL PUSH1 0x44 DUP3 ADD MSTORE PUSH1 0x64 SWAP1 REVERT JUMPDEST PUSH4 0x4E487B71 PUSH1 0xE0 SHL PUSH1 0x0 MSTORE PUSH1 0x21 PUSH1 0x4 MSTORE PUSH1 0x24 PUSH1 0x0 REVERT JUMPDEST POP PUSH1 0x0 SLOAD PUSH1 0x1 PUSH1 0x1 PUSH1 0xA0 SHL SUB AND CALLER EQ PUSH2 0x6F4 JUMP JUMPDEST CALLVALUE PUSH2 0x4F3 JUMPI PUSH1 0x20 CALLDATASIZE PUSH1 0x3 NOT ADD SLT PUSH2 0x4F3 JUMPI PUSH1 0x4 CALLDATALOAD PUSH1 0x0 MSTORE PUSH1 0x5 PUSH1 0x20 MSTORE PUSH1 0x20 PUSH1 0x40 PUSH1 0x0 KECCAK256 SLOAD PUSH1 0x40 MLOAD SWAP1 DUP2 MSTORE RETURN JUMPDEST CALLVALUE PUSH2 0x4F3 JUMPI PUSH1 0x0 CALLDATASIZE PUSH1 0x3 NOT ADD SLT PUSH2 0x4F3 JUMPI PUSH1 0x0 SLOAD PUSH1 0x40 MLOAD PUSH1 0x1 PUSH1 0x1 PUSH1 0xA0 SHL SUB SWAP1 SWAP2 AND DUP2 MSTORE PUSH1 0x20 SWAP1 RETURN JUMPDEST CALLVALUE PUSH2 0x4F3 JUMPI PUSH1 0x20 CALLDATASIZE PUSH1 0x3 NOT ADD SLT PUSH2 0x4F3 JUMPI PUSH1 0x4 CALLDATALOAD PUSH1 0x0 MSTORE PUSH1 0x4 PUSH1 0x20 MSTORE PUSH1 0x20 PUSH1 0x40 PUSH1 0x0 KECCAK256 SLOAD PUSH1 0x40 MLOAD SWAP1 DUP2 MSTORE RETURN JUMPDEST CALLVALUE PUSH2 0x4F3 JUMPI PUSH1 0x0 CALLDATASIZE PUSH1 0x3 NOT ADD SLT PUSH2 0x4F3 JUMPI PUSH2 0x927 PUSH2 0x104B JUMP JUMPDEST PUSH1 0x0 DUP1 SLOAD PUSH1 0x1 PUSH1 0x1 PUSH1 0xA0 SHL SUB NOT DUP2 AND DUP3 SSTORE PUSH1 0x1 PUSH1 0x1 PUSH1 0xA0 SHL SUB AND PUSH32 0x8BE0079C531659141344CD1FD0A4F28419497F9722A3DAAFE3B4186F6B6457E0 DUP3 DUP1 LOG3 STOP JUMPDEST CALLVALUE PUSH2 0x4F3 JUMPI PUSH1 0x20 DUP1 PUSH1 0x3 NOT CALLDATASIZE ADD SLT PUSH2 0x4F3 JUMPI PUSH1 0x4 CALLDATALOAD PUSH8 0xFFFFFFFFFFFFFFFF DUP2 GT PUSH2 0x4F3 JUMPI PUSH2 0x999 SWAP1 CALLDATASIZE SWAP1 PUSH1 0x4 ADD PUSH2 0xFCF JUMP JUMPDEST SWAP1 SWAP2 CALLER PUSH1 0x0 MSTORE PUSH1 0x8 DUP2 MSTORE PUSH1 0xFF DUP1 PUSH1 0x40 PUSH1 0x0 KECCAK256 SLOAD AND DUP1 ISZERO PUSH2 0xA86 JUMPI JUMPDEST PUSH2 0x9BD SWAP1 PUSH2 0x1077 JUMP JUMPDEST PUSH1 0x0 JUMPDEST DUP4 DUP2 LT PUSH2 0x9C9 JUMPI STOP JUMPDEST PUSH2 0x9D4 DUP2 DUP6 DUP8 PUSH2 0x1115 JUMP JUMPDEST CALLDATALOAD PUSH1 0x0 MSTORE PUSH1 0x1 SWAP1 DUP2 DUP5 MSTORE PUSH1 0x40 PUSH1 0x0 KECCAK256 SWAP2 PUSH1 0x7 DUP4 ADD SWAP3 DUP4 SLOAD SWAP4 DUP6 DUP6 AND SWAP5 PUSH1 0x4 DUP7 LT ISZERO PUSH2 0x863 JUMPI PUSH2 0xA12 SWAP6 ISZERO DUP1 PUSH2 0xA79 JUMPI JUMPDEST PUSH2 0xA17 JUMPI JUMPDEST POP POP POP POP PUSH2 0x1106 JUMP JUMPDEST PUSH2 0x9C0 JUMP JUMPDEST PUSH1 0x3 SWAP1 PUSH1 0xFF NOT AND OR SWAP1 SSTORE ADD DUP1 SLOAD PUSH1 0x0 MSTORE PUSH1 0x4 DUP6 MSTORE PUSH1 0x40 PUSH1 0x0 KECCAK256 PUSH2 0xA3A DUP2 SLOAD PUSH2 0x1106 JUMP JUMPDEST SWAP1 SSTORE PUSH2 0xA47 DUP3 DUP8 DUP10 PUSH2 0x1115 JUMP JUMPDEST CALLDATALOAD SWAP1 SLOAD SWAP1 PUSH32 0xBDA12ECAFA37CA6B8D9C088ED9E32C0D08904A603E51D9135DC713DA994BA0B1 PUSH1 0x0 DUP1 LOG3 DUP7 DUP1 DUP1 DUP1 PUSH2 0xA09 JUMP JUMPDEST POP PUSH1 0x6 DUP4 ADD SLOAD TIMESTAMP GT PUSH2 0xA04 JUMP JUMPDEST POP PUSH1 0x0 SLOAD PUSH1 0x1 PUSH1 0x1 PUSH1 0xA0 SHL SUB AND CALLER EQ PUSH2 0x9B4 JUMP JUMPDEST CALLVALUE PUSH2 0x4F3 JUMPI PUSH2 0xAA8 CALLDATASIZE PUSH2 0x1000 JUMP JUMPDEST SWAP2 SWAP1 CALLER PUSH1 0x0 MSTORE PUSH1 0x8 SWAP4 PUSH1 0x20 DUP6 DUP2 MSTORE PUSH1 0xFF SWAP4 DUP5 PUSH1 0x40 PUSH1 0x0 KECCAK256 SLOAD AND DUP1 ISZERO PUSH2 0xC37 JUMPI JUMPDEST PUSH2 0xAD1 SWAP1 PUSH2 0x1077 JUMP JUMPDEST PUSH2 0xADC DUP7 DUP3 EQ PUSH2 0x10B5 JUMP JUMPDEST PUSH1 0x0 JUMPDEST DUP2 DUP2 LT PUSH2 0xAE8 JUMPI STOP JUMPDEST PUSH2 0xAF3 DUP2 DUP4 DUP7 PUSH2 0x1115 JUMP JUMPDEST CALLDATALOAD PUSH1 0x0 MSTORE PUSH1 0x1 SWAP1 DUP2 DUP5 MSTORE PUSH1 0x40 PUSH1 0x0 KECCAK256 PUSH2 0xB11 PUSH1 0x5 DUP3 ADD SLOAD ISZERO ISZERO PUSH2 0x115C JUMP JUMPDEST PUSH1 0x7 DUP2 ADD DUP1 SLOAD SWAP2 DUP10 DUP4 AND PUSH1 0x4 DUP2 LT ISZERO PUSH2 0x863 JUMPI PUSH2 0xBCF SWAP6 DUP11 SWAP4 DUP15 DUP8 DUP16 DUP13 SWAP6 PUSH2 0xC29 JUMPI PUSH2 0xB52 SWAP3 PUSH2 0xB42 DUP4 DUP4 DUP12 PUSH2 0x1115 JUMP JUMPDEST CALLDATALOAD SWAP1 DUP9 ADD SSTORE PUSH1 0x9 DUP8 ADD SLOAD SWAP8 PUSH2 0x1115 JUMP JUMPDEST CALLDATALOAD DUP6 EQ SWAP5 DUP6 PUSH2 0xBFF JUMPI JUMPDEST POP DUP5 SWAP6 PUSH32 0x93D4ED78B89F39DCD2420A893E1B1E1DE5B0EEBD04D5982192DF6853A0B5E87B SWAP5 SWAP6 PUSH1 0x0 EQ PUSH2 0xBD4 JUMPI POP DUP2 PUSH1 0xFF NOT DUP3 SLOAD AND OR SWAP1 SSTORE DUP1 DUP5 ADD SLOAD PUSH1 0x0 MSTORE PUSH1 0x3 DUP3 MSTORE PUSH1 0x40 PUSH1 0x0 KECCAK256 PUSH2 0xBAE DUP2 SLOAD PUSH2 0x1106 JUMP JUMPDEST SWAP1 SSTORE JUMPDEST PUSH2 0xBBC DUP7 DUP10 DUP13 PUSH2 0x1115 JUMP JUMPDEST CALLDATALOAD SWAP4 ADD SLOAD SWAP4 PUSH1 0x40 MLOAD SWAP1 ISZERO ISZERO DUP2 MSTORE LOG3 PUSH2 0x1106 JUMP JUMPDEST PUSH2 0xADF JUMP JUMPDEST PUSH1 0x2 SWAP1 PUSH1 0xFF NOT AND OR SWAP1 SSTORE DUP1 DUP5 ADD SLOAD PUSH1 0x0 MSTORE PUSH1 0x4 DUP3 MSTORE PUSH1 0x40 PUSH1 0x0 KECCAK256 PUSH2 0xBF8 DUP2 SLOAD PUSH2 0x1106 JUMP JUMPDEST SWAP1 SSTORE PUSH2 0xBB1 JUMP JUMPDEST ISZERO ISZERO SWAP5 POP PUSH32 0x93D4ED78B89F39DCD2420A893E1B1E1DE5B0EEBD04D5982192DF6853A0B5E87B PUSH2 0xB5C JUMP JUMPDEST POP POP POP POP POP POP POP POP POP PUSH2 0x1106 JUMP JUMPDEST POP PUSH1 0x0 SLOAD PUSH1 0x1 PUSH1 0x1 PUSH1 0xA0 SHL SUB AND CALLER EQ PUSH2 0xAC8 JUMP JUMPDEST CALLVALUE PUSH2 0x4F3 JUMPI PUSH1 0x20 CALLDATASIZE PUSH1 0x3 NOT ADD SLT PUSH2 0x4F3 JUMPI PUSH1 0x4 CALLDATALOAD PUSH1 0x2 SLOAD DUP2 LT ISZERO PUSH2 0x4F3 JUMPI PUSH2 0xC74 PUSH1 0x20 SWAP2 PUSH2 0xF82 JUMP JUMPDEST SWAP1 SLOAD PUSH1 0x40 MLOAD SWAP2 PUSH1 0x3 SHL SHR DUP2 MSTORE RETURN JUMPDEST CALLVALUE PUSH2 0x4F3 JUMPI PUSH1 0x20 CALLDATASIZE PUSH1 0x3 NOT ADD SLT PUSH2 0x4F3 JUMPI PUSH1 0x4 CALLDATALOAD PUSH1 0x0 MSTORE PUSH1 0x3 PUSH1 0x20 MSTORE PUSH1 0x40 PUSH1 0x0 KECCAK256 SLOAD PUSH1 0x4 PUSH1 0x20 MSTORE PUSH1 0x40 PUSH1 0x0 KECCAK256 SLOAD SWAP1 PUSH1 0x5 PUSH1 0x20 MSTORE PUSH1 0x40 PUSH1 0x0 KECCAK256 SLOAD SWAP2 PUSH2 0xCC6 DUP2 DUP4 PUSH2 0x10F9 JUMP JUMPDEST DUP1 ISZERO SWAP4 SWAP1 DUP5 PUSH2 0xD30 JUMPI PUSH2 0x2710 SWAP5 DUP6 DUP6 MUL SWAP6 DUP6 DUP8 DIV EQ DUP6 ISZERO OR ISZERO PUSH2 0xD1A JUMPI PUSH2 0xD04 JUMPI PUSH1 0x80 SWAP5 DIV SWAP2 JUMPDEST PUSH1 0x40 MLOAD SWAP4 DUP5 MSTORE PUSH1 0x20 DUP5 ADD MSTORE PUSH1 0x40 DUP4 ADD MSTORE PUSH1 0x60 DUP3 ADD MSTORE RETURN JUMPDEST PUSH4 0x4E487B71 PUSH1 0xE0 SHL PUSH1 0x0 MSTORE PUSH1 0x12 PUSH1 0x4 MSTORE PUSH1 0x24 PUSH1 0x0 REVERT JUMPDEST PUSH4 0x4E487B71 PUSH1 0xE0 SHL PUSH1 0x0 MSTORE PUSH1 0x11 PUSH1 0x4 MSTORE PUSH1 0x24 PUSH1 0x0 REVERT JUMPDEST POP PUSH1 0x80 SWAP4 POP PUSH1 0x0 SWAP2 PUSH2 0xCED JUMP JUMPDEST CALLVALUE PUSH2 0x4F3 JUMPI PUSH1 0x20 CALLDATASIZE PUSH1 0x3 NOT ADD SLT PUSH2 0x4F3 JUMPI PUSH2 0xD56 PUSH2 0x1125 JUMP JUMPDEST PUSH1 0x0 DUP2 MSTORE PUSH1 0x0 PUSH1 0x20 DUP3 ADD MSTORE PUSH1 0x0 PUSH1 0x40 DUP3 ADD MSTORE PUSH1 0x0 PUSH1 0x60 DUP3 ADD MSTORE PUSH1 0x0 PUSH1 0x80 DUP3 ADD MSTORE PUSH1 0x0 PUSH1 0xA0 DUP3 ADD MSTORE PUSH1 0x0 PUSH1 0xC0 DUP3 ADD MSTORE PUSH1 0x0 PUSH1 0xE0 DUP3 ADD MSTORE PUSH2 0x100 PUSH1 0x0 DUP2 DUP4 ADD MSTORE PUSH1 0x0 PUSH2 0x120 DUP1 SWAP4 ADD MSTORE PUSH1 0x4 CALLDATALOAD PUSH1 0x0 MSTORE PUSH1 0x1 PUSH1 0x20 MSTORE PUSH1 0x40 PUSH1 0x0 KECCAK256 SWAP2 PUSH2 0xDB6 PUSH2 0x1125 JUMP JUMPDEST SWAP2 DUP4 SLOAD DUP4 MSTORE PUSH1 0x1 DUP5 ADD SLOAD SWAP1 PUSH1 0x20 DUP5 ADD SWAP2 DUP3 MSTORE PUSH1 0x2 DUP6 ADD SLOAD SWAP5 PUSH1 0x40 DUP6 ADD SWAP6 DUP7 MSTORE PUSH1 0x3 DUP2 ADD SLOAD SWAP1 PUSH1 0x60 DUP7 ADD SWAP2 DUP3 MSTORE PUSH1 0x4 DUP2 ADD SLOAD SWAP2 PUSH1 0x80 DUP8 ADD SWAP3 DUP4 MSTORE PUSH1 0x5 DUP3 ADD SLOAD PUSH1 0xA0 DUP9 ADD SWAP1 DUP2 MSTORE PUSH1 0x6 DUP4 ADD SLOAD SWAP1 PUSH1 0xC0 DUP10 ADD SWAP2 DUP3 MSTORE PUSH1 0xFF PUSH1 0x7 DUP6 ADD SLOAD AND SWAP5 PUSH1 0xE0 DUP11 ADD SWAP4 PUSH1 0x4 DUP8 LT ISZERO PUSH2 0x863 JUMPI PUSH2 0x140 SWAP12 PUSH1 0x9 PUSH2 0xE77 SWAP8 DUP14 SWAP10 DUP9 MSTORE DUP11 PUSH1 0x8 DUP3 ADD SLOAD SWAP11 ADD SWAP10 DUP11 MSTORE ADD SLOAD SWAP10 DUP12 DUP14 ADD SWAP11 DUP12 MSTORE PUSH1 0x40 MLOAD SWAP13 MLOAD DUP14 MSTORE MLOAD PUSH1 0x20 DUP14 ADD MSTORE MLOAD PUSH1 0x40 DUP13 ADD MSTORE MLOAD PUSH1 0x60 DUP12 ADD MSTORE MLOAD PUSH1 0x80 DUP11 ADD MSTORE MLOAD PUSH1 0xA0 DUP10 ADD MSTORE MLOAD PUSH1 0xC0 DUP9 ADD MSTORE MLOAD PUSH1 0xE0 DUP8 ADD SWAP1 PUSH2 0xF75 JUMP JUMPDEST MLOAD SWAP1 DUP5 ADD MSTORE MLOAD SWAP1 DUP3 ADD MSTORE RETURN JUMPDEST CALLVALUE PUSH2 0x4F3 JUMPI PUSH1 0x20 CALLDATASIZE PUSH1 0x3 NOT ADD SLT PUSH2 0x4F3 JUMPI PUSH2 0xE9C PUSH2 0x104B JUMP JUMPDEST PUSH1 0x4 CALLDATALOAD PUSH1 0x7 SSTORE STOP JUMPDEST CALLVALUE PUSH2 0x4F3 JUMPI PUSH1 0x20 CALLDATASIZE PUSH1 0x3 NOT ADD SLT PUSH2 0x4F3 JUMPI PUSH2 0xEBD PUSH2 0x104B JUMP JUMPDEST PUSH1 0x4 CALLDATALOAD PUSH1 0x6 SSTORE STOP JUMPDEST CALLVALUE PUSH2 0x4F3 JUMPI PUSH1 0x40 CALLDATASIZE PUSH1 0x3 NOT ADD SLT PUSH2 0x4F3 JUMPI PUSH2 0xEDE PUSH2 0xF5F JUMP JUMPDEST PUSH1 0x24 CALLDATALOAD SWAP1 DUP2 ISZERO ISZERO DUP1 SWAP3 SUB PUSH2 0x4F3 JUMPI PUSH1 0x20 PUSH32 0x9FDBC2D48B8A0DB2F62663BF9312AD02F5B1F6414AD600B55A247D09AEEC3EA2 SWAP2 PUSH2 0xF18 PUSH2 0x104B JUMP JUMPDEST PUSH1 0x1 DUP1 PUSH1 0xA0 SHL SUB AND SWAP3 DUP4 PUSH1 0x0 MSTORE PUSH1 0x8 DUP3 MSTORE PUSH1 0x40 PUSH1 0x0 KECCAK256 PUSH1 0xFF NOT DUP2 SLOAD AND PUSH1 0xFF DUP4 AND OR SWAP1 SSTORE PUSH1 0x40 MLOAD SWAP1 DUP2 MSTORE LOG2 STOP JUMPDEST CALLVALUE PUSH2 0x4F3 JUMPI PUSH1 0x0 CALLDATASIZE PUSH1 0x3 NOT ADD SLT PUSH2 0x4F3 JUMPI PUSH1 0x20 SWAP1 PUSH1 0x6 SLOAD DUP2 MSTORE RETURN JUMPDEST PUSH1 0x4 CALLDATALOAD SWAP1 PUSH1 0x1 PUSH1 0x1 PUSH1 0xA0 SHL SUB DUP3 AND DUP3 SUB PUSH2 0x4F3 JUMPI JUMP JUMPDEST SWAP1 PUSH1 0x4 DUP3 LT ISZERO PUSH2 0x863 JUMPI MSTORE JUMP JUMPDEST PUSH1 0x2 SLOAD DUP2 LT ISZERO PUSH2 0xFB9 JUMPI PUSH1 0x2 PUSH1 0x0 MSTORE PUSH32 0x405787FA12A823E0F2B7631CC41B3BA8828B3321CA811111FA75CD3AA3BB5ACE ADD SWAP1 PUSH1 0x0 SWAP1 JUMP JUMPDEST PUSH4 0x4E487B71 PUSH1 0xE0 SHL PUSH1 0x0 MSTORE PUSH1 0x32 PUSH1 0x4 MSTORE PUSH1 0x24 PUSH1 0x0 REVERT JUMPDEST SWAP2 DUP2 PUSH1 0x1F DUP5 ADD SLT ISZERO PUSH2 0x4F3 JUMPI DUP3 CALLDATALOAD SWAP2 PUSH8 0xFFFFFFFFFFFFFFFF DUP4 GT PUSH2 0x4F3 JUMPI PUSH1 0x20 DUP1 DUP6 ADD SWAP5 DUP5 PUSH1 0x5 SHL ADD ADD GT PUSH2 0x4F3 JUMPI JUMP JUMPDEST PUSH1 0x40 PUSH1 0x3 NOT DUP3 ADD SLT PUSH2 0x4F3 JUMPI PUSH8 0xFFFFFFFFFFFFFFFF SWAP2 PUSH1 0x4 CALLDATALOAD DUP4 DUP2 GT PUSH2 0x4F3 JUMPI DUP3 PUSH2 0x102D SWAP2 PUSH1 0x4 ADD PUSH2 0xFCF JUMP JUMPDEST SWAP4 SWAP1 SWAP4 SWAP3 PUSH1 0x24 CALLDATALOAD SWAP2 DUP3 GT PUSH2 0x4F3 JUMPI PUSH2 0x1047 SWAP2 PUSH1 0x4 ADD PUSH2 0xFCF JUMP JUMPDEST SWAP1 SWAP2 JUMP JUMPDEST PUSH1 0x0 SLOAD PUSH1 0x1 PUSH1 0x1 PUSH1 0xA0 SHL SUB AND CALLER SUB PUSH2 0x105F JUMPI JUMP JUMPDEST PUSH1 0x40 MLOAD PUSH4 0x118CDAA7 PUSH1 0xE0 SHL DUP2 MSTORE CALLER PUSH1 0x4 DUP3 ADD MSTORE PUSH1 0x24 SWAP1 REVERT JUMPDEST ISZERO PUSH2 0x107E JUMPI JUMP JUMPDEST PUSH1 0x40 MLOAD PUSH3 0x461BCD PUSH1 0xE5 SHL DUP2 MSTORE PUSH1 0x20 PUSH1 0x4 DUP3 ADD MSTORE PUSH1 0xF PUSH1 0x24 DUP3 ADD MSTORE PUSH15 0x2737BA1030B71032BC32B1BABA37B9 PUSH1 0x89 SHL PUSH1 0x44 DUP3 ADD MSTORE PUSH1 0x64 SWAP1 REVERT JUMPDEST ISZERO PUSH2 0x10BC JUMPI JUMP JUMPDEST PUSH1 0x40 MLOAD PUSH3 0x461BCD PUSH1 0xE5 SHL DUP2 MSTORE PUSH1 0x20 PUSH1 0x4 DUP3 ADD MSTORE PUSH1 0x15 PUSH1 0x24 DUP3 ADD MSTORE PUSH21 0x82E4E4C2F240D8CADCCEE8D040DAD2E6DAC2E8C6D PUSH1 0x5B SHL PUSH1 0x44 DUP3 ADD MSTORE PUSH1 0x64 SWAP1 REVERT JUMPDEST SWAP2 SWAP1 DUP3 ADD DUP1 SWAP3 GT PUSH2 0xD1A JUMPI JUMP JUMPDEST PUSH1 0x0 NOT DUP2 EQ PUSH2 0xD1A JUMPI PUSH1 0x1 ADD SWAP1 JUMP JUMPDEST SWAP2 SWAP1 DUP2 LT ISZERO PUSH2 0xFB9 JUMPI PUSH1 0x5 SHL ADD SWAP1 JUMP JUMPDEST PUSH1 0x40 MLOAD SWAP1 PUSH2 0x140 DUP3 ADD DUP3 DUP2 LT PUSH8 0xFFFFFFFFFFFFFFFF DUP3 GT OR PUSH2 0x1146 JUMPI PUSH1 0x40 MSTORE JUMP JUMPDEST PUSH4 0x4E487B71 PUSH1 0xE0 SHL PUSH1 0x0 MSTORE PUSH1 0x41 PUSH1 0x4 MSTORE PUSH1 0x24 PUSH1 0x0 REVERT JUMPDEST ISZERO PUSH2 0x1163 JUMPI JUMP JUMPDEST PUSH1 0x40 MLOAD PUSH3 0x461BCD PUSH1 0xE5 SHL DUP2 MSTORE PUSH1 0x20 PUSH1 0x4 DUP3 ADD MSTORE PUSH1 0x13 PUSH1 0x24 DUP3 ADD MSTORE PUSH19 0x10DA185B1B195B99D9481B9BDD08199BDD5B99 PUSH1 0x6A SHL PUSH1 0x44 DUP3 ADD MSTORE PUSH1 0x64 SWAP1 REVERT INVALID LOG2 PUSH5 0x6970667358 0x22 SLT KECCAK256 EXTCODEHASH JUMPDEST 0xD DUP13 0x4B 0xB6 JUMPDEST PUSH31 0xF2A6509EB3FE471CB9A534C5A8D1BC85F21E339780F289C664736F6C634300 ADDMOD EQ STOP CALLER "},"methodIdentifiers":{"allChallengeIds(uint256)":"5127953b","challengeExpirySeconds()":"0e2d8618","challenges(bytes32)":"c1e69b66","expireChallenges(bytes32[])":"67a0e30a","getChallenge(bytes32)":"458d2bf1","getNodeProofStats(bytes32)":"4cf314d4","getTotalChallenges()":"de9105b3","isExecutor(address)":"debfda30","issueChallenges(bytes32[],bytes32[],bytes32[],uint256[],uint256[])":"fefa0c7d","maxChallengesPerBatch()":"dbe65cd3","nodeLastChallenge(bytes32)":"a404fc50","nodeProofsFailed(bytes32)":"78ea8d42","nodeProofsPassed(bytes32)":"b693d4ef","owner()":"8da5cb5b","renounceOwnership()":"715018a6","setChallengeExpiry(uint256)":"251e3f0e","setExecutor(address,bool)":"1e1bff3f","setMaxBatchSize(uint256)":"2b26a6bf","submitProofs(bytes32[],bytes32[])":"ac3e7e86","transferOwnership(address)":"f2fde38b","verifyProofs(bytes32[],bytes32[])":"63ef2864"}}}}}