{
  "_format": "hh-sol-artifact-1",
  "contractName": "VisionBridgeSecure",
  "sourceName": "contracts/bridge/VisionBridgeSecure.sol",
  "abi": [
    {
      "inputs": [
        {
          "internalType": "address",
          "name": "admin",
          "type": "address"
        },
        {
          "internalType": "address",
          "name": "_intentCommitment",
          "type": "address"
        },
        {
          "internalType": "address",
          "name": "_messageInbox",
          "type": "address"
        }
      ],
      "stateMutability": "nonpayable",
      "type": "constructor"
    },
    {
      "anonymous": false,
      "inputs": [
        {
          "indexed": false,
          "internalType": "uint256",
          "name": "chainId",
          "type": "uint256"
        },
        {
          "indexed": false,
          "internalType": "bool",
          "name": "supported",
          "type": "bool"
        },
        {
          "indexed": false,
          "internalType": "address",
          "name": "bridgeAddress",
          "type": "address"
        }
      ],
      "name": "ChainConfigured",
      "type": "event"
    },
    {
      "anonymous": false,
      "inputs": [
        {
          "indexed": false,
          "internalType": "address",
          "name": "account",
          "type": "address"
        }
      ],
      "name": "Paused",
      "type": "event"
    },
    {
      "anonymous": false,
      "inputs": [
        {
          "indexed": true,
          "internalType": "bytes32",
          "name": "lockId",
          "type": "bytes32"
        }
      ],
      "name": "RecoveryCancelled",
      "type": "event"
    },
    {
      "anonymous": false,
      "inputs": [
        {
          "indexed": true,
          "internalType": "bytes32",
          "name": "lockId",
          "type": "bytes32"
        },
        {
          "indexed": true,
          "internalType": "address",
          "name": "recipient",
          "type": "address"
        },
        {
          "indexed": false,
          "internalType": "uint256",
          "name": "amount",
          "type": "uint256"
        }
      ],
      "name": "RecoveryExecuted",
      "type": "event"
    },
    {
      "anonymous": false,
      "inputs": [
        {
          "indexed": true,
          "internalType": "bytes32",
          "name": "lockId",
          "type": "bytes32"
        },
        {
          "indexed": true,
          "internalType": "address",
          "name": "requester",
          "type": "address"
        }
      ],
      "name": "RecoveryRequested",
      "type": "event"
    },
    {
      "anonymous": false,
      "inputs": [
        {
          "indexed": true,
          "internalType": "bytes32",
          "name": "role",
          "type": "bytes32"
        },
        {
          "indexed": true,
          "internalType": "bytes32",
          "name": "previousAdminRole",
          "type": "bytes32"
        },
        {
          "indexed": true,
          "internalType": "bytes32",
          "name": "newAdminRole",
          "type": "bytes32"
        }
      ],
      "name": "RoleAdminChanged",
      "type": "event"
    },
    {
      "anonymous": false,
      "inputs": [
        {
          "indexed": true,
          "internalType": "bytes32",
          "name": "role",
          "type": "bytes32"
        },
        {
          "indexed": true,
          "internalType": "address",
          "name": "account",
          "type": "address"
        },
        {
          "indexed": true,
          "internalType": "address",
          "name": "sender",
          "type": "address"
        }
      ],
      "name": "RoleGranted",
      "type": "event"
    },
    {
      "anonymous": false,
      "inputs": [
        {
          "indexed": true,
          "internalType": "bytes32",
          "name": "role",
          "type": "bytes32"
        },
        {
          "indexed": true,
          "internalType": "address",
          "name": "account",
          "type": "address"
        },
        {
          "indexed": true,
          "internalType": "address",
          "name": "sender",
          "type": "address"
        }
      ],
      "name": "RoleRevoked",
      "type": "event"
    },
    {
      "anonymous": false,
      "inputs": [
        {
          "indexed": false,
          "internalType": "address",
          "name": "account",
          "type": "address"
        }
      ],
      "name": "Unpaused",
      "type": "event"
    },
    {
      "anonymous": false,
      "inputs": [
        {
          "indexed": true,
          "internalType": "bytes32",
          "name": "lockId",
          "type": "bytes32"
        },
        {
          "indexed": true,
          "internalType": "bytes32",
          "name": "intentHash",
          "type": "bytes32"
        },
        {
          "indexed": true,
          "internalType": "address",
          "name": "sender",
          "type": "address"
        },
        {
          "indexed": false,
          "internalType": "address",
          "name": "recipient",
          "type": "address"
        },
        {
          "indexed": false,
          "internalType": "uint256",
          "name": "amount",
          "type": "uint256"
        },
        {
          "indexed": false,
          "internalType": "uint256",
          "name": "destChainId",
          "type": "uint256"
        }
      ],
      "name": "VCNLocked",
      "type": "event"
    },
    {
      "anonymous": false,
      "inputs": [
        {
          "indexed": true,
          "internalType": "bytes32",
          "name": "lockId",
          "type": "bytes32"
        },
        {
          "indexed": true,
          "internalType": "address",
          "name": "recipient",
          "type": "address"
        },
        {
          "indexed": false,
          "internalType": "uint256",
          "name": "amount",
          "type": "uint256"
        },
        {
          "indexed": false,
          "internalType": "bytes32",
          "name": "sourceMessageId",
          "type": "bytes32"
        }
      ],
      "name": "VCNUnlocked",
      "type": "event"
    },
    {
      "inputs": [],
      "name": "DEFAULT_ADMIN_ROLE",
      "outputs": [
        {
          "internalType": "bytes32",
          "name": "",
          "type": "bytes32"
        }
      ],
      "stateMutability": "view",
      "type": "function"
    },
    {
      "inputs": [],
      "name": "OPERATOR_ROLE",
      "outputs": [
        {
          "internalType": "bytes32",
          "name": "",
          "type": "bytes32"
        }
      ],
      "stateMutability": "view",
      "type": "function"
    },
    {
      "inputs": [],
      "name": "TSS_ROLE",
      "outputs": [
        {
          "internalType": "bytes32",
          "name": "",
          "type": "bytes32"
        }
      ],
      "stateMutability": "view",
      "type": "function"
    },
    {
      "inputs": [
        {
          "internalType": "bytes32",
          "name": "lockId",
          "type": "bytes32"
        }
      ],
      "name": "cancelRecovery",
      "outputs": [],
      "stateMutability": "nonpayable",
      "type": "function"
    },
    {
      "inputs": [
        {
          "internalType": "uint256",
          "name": "chainId",
          "type": "uint256"
        },
        {
          "internalType": "bool",
          "name": "supported",
          "type": "bool"
        },
        {
          "internalType": "address",
          "name": "bridgeAddress",
          "type": "address"
        }
      ],
      "name": "configureChain",
      "outputs": [],
      "stateMutability": "nonpayable",
      "type": "function"
    },
    {
      "inputs": [
        {
          "internalType": "address",
          "name": "",
          "type": "address"
        }
      ],
      "name": "dailyLockAmount",
      "outputs": [
        {
          "internalType": "uint256",
          "name": "",
          "type": "uint256"
        }
      ],
      "stateMutability": "view",
      "type": "function"
    },
    {
      "inputs": [],
      "name": "dailyVolume",
      "outputs": [
        {
          "internalType": "uint256",
          "name": "",
          "type": "uint256"
        }
      ],
      "stateMutability": "view",
      "type": "function"
    },
    {
      "inputs": [
        {
          "internalType": "uint256",
          "name": "",
          "type": "uint256"
        }
      ],
      "name": "destBridgeAddresses",
      "outputs": [
        {
          "internalType": "address",
          "name": "",
          "type": "address"
        }
      ],
      "stateMutability": "view",
      "type": "function"
    },
    {
      "inputs": [
        {
          "internalType": "address",
          "name": "to",
          "type": "address"
        }
      ],
      "name": "emergencyWithdraw",
      "outputs": [],
      "stateMutability": "nonpayable",
      "type": "function"
    },
    {
      "inputs": [
        {
          "internalType": "bytes32",
          "name": "lockId",
          "type": "bytes32"
        }
      ],
      "name": "executeRecovery",
      "outputs": [],
      "stateMutability": "nonpayable",
      "type": "function"
    },
    {
      "inputs": [],
      "name": "getBridgeBalance",
      "outputs": [
        {
          "internalType": "uint256",
          "name": "",
          "type": "uint256"
        }
      ],
      "stateMutability": "view",
      "type": "function"
    },
    {
      "inputs": [
        {
          "internalType": "bytes32",
          "name": "lockId",
          "type": "bytes32"
        }
      ],
      "name": "getLockRecord",
      "outputs": [
        {
          "components": [
            {
              "internalType": "address",
              "name": "sender",
              "type": "address"
            },
            {
              "internalType": "address",
              "name": "recipient",
              "type": "address"
            },
            {
              "internalType": "uint256",
              "name": "amount",
              "type": "uint256"
            },
            {
              "internalType": "uint256",
              "name": "destChainId",
              "type": "uint256"
            },
            {
              "internalType": "bytes32",
              "name": "intentHash",
              "type": "bytes32"
            },
            {
              "internalType": "uint256",
              "name": "lockedAt",
              "type": "uint256"
            },
            {
              "internalType": "bool",
              "name": "unlocked",
              "type": "bool"
            },
            {
              "internalType": "bool",
              "name": "executed",
              "type": "bool"
            }
          ],
          "internalType": "struct VisionBridgeSecure.LockRecord",
          "name": "",
          "type": "tuple"
        }
      ],
      "stateMutability": "view",
      "type": "function"
    },
    {
      "inputs": [
        {
          "internalType": "address",
          "name": "user",
          "type": "address"
        }
      ],
      "name": "getRemainingDailyLimit",
      "outputs": [
        {
          "internalType": "uint256",
          "name": "userRemaining",
          "type": "uint256"
        },
        {
          "internalType": "uint256",
          "name": "globalRemaining",
          "type": "uint256"
        }
      ],
      "stateMutability": "view",
      "type": "function"
    },
    {
      "inputs": [
        {
          "internalType": "bytes32",
          "name": "role",
          "type": "bytes32"
        }
      ],
      "name": "getRoleAdmin",
      "outputs": [
        {
          "internalType": "bytes32",
          "name": "",
          "type": "bytes32"
        }
      ],
      "stateMutability": "view",
      "type": "function"
    },
    {
      "inputs": [],
      "name": "getSupplyStatus",
      "outputs": [
        {
          "internalType": "uint256",
          "name": "locked",
          "type": "uint256"
        },
        {
          "internalType": "uint256",
          "name": "unlocked",
          "type": "uint256"
        },
        {
          "internalType": "int256",
          "name": "netLocked",
          "type": "int256"
        }
      ],
      "stateMutability": "view",
      "type": "function"
    },
    {
      "inputs": [],
      "name": "globalDailyLimit",
      "outputs": [
        {
          "internalType": "uint256",
          "name": "",
          "type": "uint256"
        }
      ],
      "stateMutability": "view",
      "type": "function"
    },
    {
      "inputs": [
        {
          "internalType": "bytes32",
          "name": "role",
          "type": "bytes32"
        },
        {
          "internalType": "address",
          "name": "account",
          "type": "address"
        }
      ],
      "name": "grantRole",
      "outputs": [],
      "stateMutability": "nonpayable",
      "type": "function"
    },
    {
      "inputs": [
        {
          "internalType": "bytes32",
          "name": "role",
          "type": "bytes32"
        },
        {
          "internalType": "address",
          "name": "account",
          "type": "address"
        }
      ],
      "name": "hasRole",
      "outputs": [
        {
          "internalType": "bool",
          "name": "",
          "type": "bool"
        }
      ],
      "stateMutability": "view",
      "type": "function"
    },
    {
      "inputs": [],
      "name": "intentCommitment",
      "outputs": [
        {
          "internalType": "contract IntentCommitment",
          "name": "",
          "type": "address"
        }
      ],
      "stateMutability": "view",
      "type": "function"
    },
    {
      "inputs": [
        {
          "internalType": "address",
          "name": "",
          "type": "address"
        }
      ],
      "name": "lastLockDay",
      "outputs": [
        {
          "internalType": "uint256",
          "name": "",
          "type": "uint256"
        }
      ],
      "stateMutability": "view",
      "type": "function"
    },
    {
      "inputs": [],
      "name": "lastVolumeReset",
      "outputs": [
        {
          "internalType": "uint256",
          "name": "",
          "type": "uint256"
        }
      ],
      "stateMutability": "view",
      "type": "function"
    },
    {
      "inputs": [],
      "name": "lockNonce",
      "outputs": [
        {
          "internalType": "uint256",
          "name": "",
          "type": "uint256"
        }
      ],
      "stateMutability": "view",
      "type": "function"
    },
    {
      "inputs": [
        {
          "internalType": "bytes32",
          "name": "",
          "type": "bytes32"
        }
      ],
      "name": "lockRecords",
      "outputs": [
        {
          "internalType": "address",
          "name": "sender",
          "type": "address"
        },
        {
          "internalType": "address",
          "name": "recipient",
          "type": "address"
        },
        {
          "internalType": "uint256",
          "name": "amount",
          "type": "uint256"
        },
        {
          "internalType": "uint256",
          "name": "destChainId",
          "type": "uint256"
        },
        {
          "internalType": "bytes32",
          "name": "intentHash",
          "type": "bytes32"
        },
        {
          "internalType": "uint256",
          "name": "lockedAt",
          "type": "uint256"
        },
        {
          "internalType": "bool",
          "name": "unlocked",
          "type": "bool"
        },
        {
          "internalType": "bool",
          "name": "executed",
          "type": "bool"
        }
      ],
      "stateMutability": "view",
      "type": "function"
    },
    {
      "inputs": [
        {
          "internalType": "bytes32",
          "name": "intentHash",
          "type": "bytes32"
        },
        {
          "internalType": "address",
          "name": "recipient",
          "type": "address"
        },
        {
          "internalType": "uint256",
          "name": "destChainId",
          "type": "uint256"
        }
      ],
      "name": "lockVCN",
      "outputs": [],
      "stateMutability": "payable",
      "type": "function"
    },
    {
      "inputs": [
        {
          "internalType": "bytes32",
          "name": "lockId",
          "type": "bytes32"
        }
      ],
      "name": "markExecuted",
      "outputs": [],
      "stateMutability": "nonpayable",
      "type": "function"
    },
    {
      "inputs": [],
      "name": "maxDailyLockPerUser",
      "outputs": [
        {
          "internalType": "uint256",
          "name": "",
          "type": "uint256"
        }
      ],
      "stateMutability": "view",
      "type": "function"
    },
    {
      "inputs": [],
      "name": "maxLockAmount",
      "outputs": [
        {
          "internalType": "uint256",
          "name": "",
          "type": "uint256"
        }
      ],
      "stateMutability": "view",
      "type": "function"
    },
    {
      "inputs": [],
      "name": "messageInbox",
      "outputs": [
        {
          "internalType": "contract MessageInbox",
          "name": "",
          "type": "address"
        }
      ],
      "stateMutability": "view",
      "type": "function"
    },
    {
      "inputs": [],
      "name": "minLockAmount",
      "outputs": [
        {
          "internalType": "uint256",
          "name": "",
          "type": "uint256"
        }
      ],
      "stateMutability": "view",
      "type": "function"
    },
    {
      "inputs": [],
      "name": "pause",
      "outputs": [],
      "stateMutability": "nonpayable",
      "type": "function"
    },
    {
      "inputs": [],
      "name": "paused",
      "outputs": [
        {
          "internalType": "bool",
          "name": "",
          "type": "bool"
        }
      ],
      "stateMutability": "view",
      "type": "function"
    },
    {
      "inputs": [],
      "name": "recoveryDelay",
      "outputs": [
        {
          "internalType": "uint256",
          "name": "",
          "type": "uint256"
        }
      ],
      "stateMutability": "view",
      "type": "function"
    },
    {
      "inputs": [
        {
          "internalType": "bytes32",
          "name": "",
          "type": "bytes32"
        }
      ],
      "name": "recoveryRequestTime",
      "outputs": [
        {
          "internalType": "uint256",
          "name": "",
          "type": "uint256"
        }
      ],
      "stateMutability": "view",
      "type": "function"
    },
    {
      "inputs": [
        {
          "internalType": "bytes32",
          "name": "",
          "type": "bytes32"
        }
      ],
      "name": "recoveryRequested",
      "outputs": [
        {
          "internalType": "bool",
          "name": "",
          "type": "bool"
        }
      ],
      "stateMutability": "view",
      "type": "function"
    },
    {
      "inputs": [
        {
          "internalType": "bytes32",
          "name": "role",
          "type": "bytes32"
        },
        {
          "internalType": "address",
          "name": "account",
          "type": "address"
        }
      ],
      "name": "renounceRole",
      "outputs": [],
      "stateMutability": "nonpayable",
      "type": "function"
    },
    {
      "inputs": [
        {
          "internalType": "bytes32",
          "name": "lockId",
          "type": "bytes32"
        }
      ],
      "name": "requestRecovery",
      "outputs": [],
      "stateMutability": "nonpayable",
      "type": "function"
    },
    {
      "inputs": [
        {
          "internalType": "bytes32",
          "name": "role",
          "type": "bytes32"
        },
        {
          "internalType": "address",
          "name": "account",
          "type": "address"
        }
      ],
      "name": "revokeRole",
      "outputs": [],
      "stateMutability": "nonpayable",
      "type": "function"
    },
    {
      "inputs": [
        {
          "internalType": "uint256",
          "name": "_minLock",
          "type": "uint256"
        },
        {
          "internalType": "uint256",
          "name": "_maxLock",
          "type": "uint256"
        },
        {
          "internalType": "uint256",
          "name": "_maxDailyPerUser",
          "type": "uint256"
        },
        {
          "internalType": "uint256",
          "name": "_globalDaily",
          "type": "uint256"
        }
      ],
      "name": "setLimits",
      "outputs": [],
      "stateMutability": "nonpayable",
      "type": "function"
    },
    {
      "inputs": [
        {
          "internalType": "uint256",
          "name": "delay",
          "type": "uint256"
        }
      ],
      "name": "setRecoveryDelay",
      "outputs": [],
      "stateMutability": "nonpayable",
      "type": "function"
    },
    {
      "inputs": [
        {
          "internalType": "uint256",
          "name": "",
          "type": "uint256"
        }
      ],
      "name": "supportedChains",
      "outputs": [
        {
          "internalType": "bool",
          "name": "",
          "type": "bool"
        }
      ],
      "stateMutability": "view",
      "type": "function"
    },
    {
      "inputs": [
        {
          "internalType": "bytes4",
          "name": "interfaceId",
          "type": "bytes4"
        }
      ],
      "name": "supportsInterface",
      "outputs": [
        {
          "internalType": "bool",
          "name": "",
          "type": "bool"
        }
      ],
      "stateMutability": "view",
      "type": "function"
    },
    {
      "inputs": [],
      "name": "totalLocked",
      "outputs": [
        {
          "internalType": "uint256",
          "name": "",
          "type": "uint256"
        }
      ],
      "stateMutability": "view",
      "type": "function"
    },
    {
      "inputs": [],
      "name": "totalUnlocked",
      "outputs": [
        {
          "internalType": "uint256",
          "name": "",
          "type": "uint256"
        }
      ],
      "stateMutability": "view",
      "type": "function"
    },
    {
      "inputs": [
        {
          "internalType": "bytes32",
          "name": "lockId",
          "type": "bytes32"
        },
        {
          "internalType": "address",
          "name": "recipient",
          "type": "address"
        },
        {
          "internalType": "uint256",
          "name": "amount",
          "type": "uint256"
        },
        {
          "internalType": "bytes32",
          "name": "sourceMessageId",
          "type": "bytes32"
        },
        {
          "internalType": "bytes[]",
          "name": "tssSignatures",
          "type": "bytes[]"
        }
      ],
      "name": "unlockVCN",
      "outputs": [],
      "stateMutability": "nonpayable",
      "type": "function"
    },
    {
      "inputs": [],
      "name": "unpause",
      "outputs": [],
      "stateMutability": "nonpayable",
      "type": "function"
    },
    {
      "inputs": [
        {
          "internalType": "address",
          "name": "_intent",
          "type": "address"
        },
        {
          "internalType": "address",
          "name": "_inbox",
          "type": "address"
        }
      ],
      "name": "updateContracts",
      "outputs": [],
      "stateMutability": "nonpayable",
      "type": "function"
    },
    {
      "stateMutability": "payable",
      "type": "receive"
    }
  ],
  "bytecode": "0x608060405269152d02c7e14af6800000600c55670de0b6b3a7640000600d5569d3c21bcecceda1000000600e556a084595161401484a000000600f5562093a806014553480156200004f57600080fd5b506040516200273f3803806200273f8339810160408190526200007291620001e0565b600180556002805460ff191690556200008d60008462000122565b620000b97f0da06bffcb63442de88b7f8385468eaf51e47079d4fa96875938e2c27c451deb8462000122565b620000e57f97667070c54ef182b0f5858b034beac1b6f3089aa2d3188bb1e8929f4fa9b9298462000122565b60028054610100600160a81b0319166101006001600160a01b0394851602179055600380546001600160a01b03191691909216179055506200022a565b6000828152602081815260408083206001600160a01b038516845290915290205460ff16620001bf576000828152602081815260408083206001600160a01b03851684529091529020805460ff191660011790556200017e3390565b6001600160a01b0316816001600160a01b0316837f2f8788117e7eff1d82e926ec794901d17c78024a50270940304540a733656f0d60405160405180910390a45b5050565b80516001600160a01b0381168114620001db57600080fd5b919050565b600080600060608486031215620001f657600080fd5b6200020184620001c3565b92506200021160208501620001c3565b91506200022160408501620001c3565b90509250925092565b612505806200023a6000396000f3fe6080604052600436106102815760003560e01c80637aee7fb11161014f578063a8bd3d41116100c1578063e5bd9fa11161007a578063e5bd9fa11461098a578063e692c49f146109a0578063ec37d259146109c0578063f0bc86de146109f5578063f5b541a614610a08578063fce54c9914610a3c57600080fd5b8063a8bd3d41146108de578063ace89f6d1461090b578063b5a9096e14610921578063c00bbfc214610937578063d547741f1461094a578063d7e222221461096a57600080fd5b806398c8877e1161011357806398c8877e1461078d5780639f000324146107a3578063a075b7c71461085f578063a217fddf1461087f578063a779d08014610894578063a783c789146108aa57600080fd5b80637aee7fb1146106f85780638456cb59146107185780638eb8bd8f1461072d57806391d148541461074d578063965ef01b1461076d57600080fd5b80633d9a3400116101f35780635c975abb116101ac5780635c975abb14610633578063631fec7f1461064b578063665d4c611461066b57806369052b4a1461068b5780636ff1c9bc146106b85780637abed905146106d857600080fd5b80633d9a34001461044f5780633f4ba83a1461059d57806347cb5c8a146105b25780634e7e1135146105c8578063548d496f146105ed578063568914121461061d57600080fd5b80632f78c3cd116102455780632f78c3cd1461036857806333c252eb146103b657806336568abe146103d65780633758ca7a146103f657806338d59f931461040c5780633d38932c1461042257600080fd5b806301ffc9a71461028d57806308804275146102c2578063248a9ca3146102e657806324fb1988146103165780632f2ff15d1461034657600080fd5b3661028857005b600080fd5b34801561029957600080fd5b506102ad6102a836600461209f565b610a6c565b60405190151581526020015b60405180910390f35b3480156102ce57600080fd5b506102d8600d5481565b6040519081526020016102b9565b3480156102f257600080fd5b506102d86103013660046120c9565b60009081526020819052604090206001015490565b34801561032257600080fd5b506102ad6103313660046120c9565b60126020526000908152604090205460ff1681565b34801561035257600080fd5b506103666103613660046120fe565b610aa3565b005b34801561037457600080fd5b5061039e6103833660046120c9565b6005602052600090815260409020546001600160a01b031681565b6040516001600160a01b0390911681526020016102b9565b3480156103c257600080fd5b506103666103d1366004612138565b610acd565b3480156103e257600080fd5b506103666103f13660046120fe565b610b61565b34801561040257600080fd5b506102d860145481565b34801561041857600080fd5b506102d8600c5481565b34801561042e57600080fd5b506102d861043d366004612176565b600b6020526000908152604090205481565b34801561045b57600080fd5b5061052c61046a3660046120c9565b6040805161010081018252600080825260208201819052918101829052606081018290526080810182905260a0810182905260c0810182905260e0810191909152506000908152600660208181526040928390208351610100808201865282546001600160a01b039081168352600184015416938201939093526002820154948101949094526003810154606085015260048101546080850152600581015460a08501529091015460ff808216151560c085015291900416151560e082015290565b6040516102b9919060006101008201905060018060a01b038084511683528060208501511660208401525060408301516040830152606083015160608301526080830151608083015260a083015160a083015260c0830151151560c083015260e0830151151560e083015292915050565b3480156105a957600080fd5b50610366610be4565b3480156105be57600080fd5b506102d8600e5481565b3480156105d457600080fd5b5060025461039e9061010090046001600160a01b031681565b3480156105f957600080fd5b506102ad6106083660046120c9565b60046020526000908152604090205460ff1681565b34801561062957600080fd5b506102d860085481565b34801561063f57600080fd5b5060025460ff166102ad565b34801561065757600080fd5b506103666106663660046120c9565b610bfa565b34801561067757600080fd5b506103666106863660046120c9565b610cc9565b34801561069757600080fd5b506102d86106a63660046120c9565b60136020526000908152604090205481565b3480156106c457600080fd5b506103666106d3366004612176565b610d75565b3480156106e457600080fd5b506103666106f33660046120c9565b610e58565b34801561070457600080fd5b50610366610713366004612191565b6110c3565b34801561072457600080fd5b506103666112ec565b34801561073957600080fd5b506103666107483660046120c9565b6112ff565b34801561075957600080fd5b506102ad6107683660046120fe565b611353565b34801561077957600080fd5b5060035461039e906001600160a01b031681565b34801561079957600080fd5b506102d860105481565b3480156107af57600080fd5b506108156107be3660046120c9565b600660208190526000918252604090912080546001820154600283015460038401546004850154600586015495909601546001600160a01b0394851696939094169491939092919060ff8082169161010090041688565b604080516001600160a01b03998a168152989097166020890152958701949094526060860192909252608085015260a0840152151560c0830152151560e0820152610100016102b9565b34801561086b57600080fd5b5061036661087a366004612233565b61137c565b34801561088b57600080fd5b506102d8600081565b3480156108a057600080fd5b506102d860095481565b3480156108b657600080fd5b506102d87f0da06bffcb63442de88b7f8385468eaf51e47079d4fa96875938e2c27c451deb81565b3480156108ea57600080fd5b506102d86108f9366004612176565b600a6020526000908152604090205481565b34801561091757600080fd5b506102d8600f5481565b34801561092d57600080fd5b506102d860075481565b610366610945366004612265565b61139c565b34801561095657600080fd5b506103666109653660046120fe565b6118da565b34801561097657600080fd5b506103666109853660046120c9565b6118ff565b34801561099657600080fd5b506102d860115481565b3480156109ac57600080fd5b506103666109bb36600461229a565b611adc565b3480156109cc57600080fd5b506109e06109db366004612176565b611b48565b604080519283526020830191909152016102b9565b348015610a0157600080fd5b50476102d8565b348015610a1457600080fd5b506102d87f97667070c54ef182b0f5858b034beac1b6f3089aa2d3188bb1e8929f4fa9b92981565b348015610a4857600080fd5b50610a51611bff565b604080519384526020840192909252908201526060016102b9565b60006001600160e01b03198216637965db0b60e01b1480610a9d57506301ffc9a760e01b6001600160e01b03198316145b92915050565b600082815260208190526040902060010154610abe81611c25565b610ac88383611c2f565b505050565b6000610ad881611c25565b6000848152600460209081526040808320805460ff1916871515908117909155600583529281902080546001600160a01b0319166001600160a01b0387169081179091558151888152928301939093528101919091527f8ea790833e8d72b023dad0c8159201a10642185b0b926ceb8138b0b5ac0af8b29060600160405180910390a150505050565b6001600160a01b0381163314610bd65760405162461bcd60e51b815260206004820152602f60248201527f416363657373436f6e74726f6c3a2063616e206f6e6c792072656e6f756e636560448201526e103937b632b9903337b91039b2b63360891b60648201526084015b60405180910390fd5b610be08282611cb3565b5050565b6000610bef81611c25565b610bf7611d18565b50565b7f97667070c54ef182b0f5858b034beac1b6f3089aa2d3188bb1e8929f4fa9b929610c2481611c25565b60008281526012602052604090205460ff16610c7b5760405162461bcd60e51b8152602060048201526016602482015275149958dbdd995c9e481b9bdd081c995c5d595cdd195960521b6044820152606401610bcd565b6000828152601260209081526040808320805460ff1916905560139091528082208290555183917f7d6dceb0ad9e1c7d903468b0d49a3151dcb4d9f5fb0c5d0940b3ee2a7a8fd5d191a25050565b7f0da06bffcb63442de88b7f8385468eaf51e47079d4fa96875938e2c27c451deb610cf381611c25565b60008281526006602081905260409091209081015460ff1615610d285760405162461bcd60e51b8152600401610bcd906122c4565b60068101805461ff00191661010017905560008381526012602052604090205460ff1615610ac85750506000908152601260209081526040808320805460ff191690556013909152812055565b6000610d8081611c25565b60025460ff16610dc35760405162461bcd60e51b815260206004820152600e60248201526d135d5cdd081899481c185d5cd95960921b6044820152606401610bcd565b6000826001600160a01b03164760405160006040518083038185875af1925050503d8060008114610e10576040519150601f19603f3d011682016040523d82523d6000602084013e610e15565b606091505b5050905080610ac85760405162461bcd60e51b815260206004820152600f60248201526e15da5d1a191c985dc819985a5b1959608a1b6044820152606401610bcd565b610e60611d6a565b600081815260066020526040902080546001600160a01b03163314610eb85760405162461bcd60e51b815260206004820152600e60248201526d2737ba103637b1b59037bbb732b960911b6044820152606401610bcd565b60008281526012602052604090205460ff16610f0f5760405162461bcd60e51b8152602060048201526016602482015275149958dbdd995c9e481b9bdd081c995c5d595cdd195960521b6044820152606401610bcd565b600681015460ff1615610f345760405162461bcd60e51b8152600401610bcd906122c4565b601454600083815260136020526040902054610f509190612304565b421015610f9f5760405162461bcd60e51b815260206004820152601960248201527f5265636f766572792064656c6179206e6f7420706173736564000000000000006044820152606401610bcd565b60068101805460ff19166001179055600281015460098054600090610fc5908490612304565b9091555050805460028201546040516000926001600160a01b031691908381818185875af1925050503d806000811461101a576040519150601f19603f3d011682016040523d82523d6000602084013e61101f565b606091505b50509050806110705760405162461bcd60e51b815260206004820152601860248201527f5265636f76657279207472616e73666572206661696c656400000000000000006044820152606401610bcd565b815460028301546040519081526001600160a01b039091169084907f5d1f29cc2ccda049ac0357316a0d2f79a70e489f700164ca4e8cd815596ce6249060200160405180910390a35050610bf760018055565b7f0da06bffcb63442de88b7f8385468eaf51e47079d4fa96875938e2c27c451deb6110ed81611c25565b6110f5611d6a565b6110fd611dc3565b600382101561114e5760405162461bcd60e51b815260206004820152601e60248201527f4e656564206174206c65617374203320545353207369676e61747572657300006044820152606401610bcd565b6001600160a01b0386166111985760405162461bcd60e51b8152602060048201526011602482015270125b9d985b1a59081c9958da5c1a595b9d607a1b6044820152606401610bcd565b6000851180156111a85750478511155b6111e55760405162461bcd60e51b815260206004820152600e60248201526d125b9d985b1a5908185b5bdd5b9d60921b6044820152606401610bcd565b84600960008282546111f79190612304565b90915550506040516000906001600160a01b0388169087908381818185875af1925050503d8060008114611247576040519150601f19603f3d011682016040523d82523d6000602084013e61124c565b606091505b50509050806112935760405162461bcd60e51b81526020600482015260136024820152721590d3881d1c985b9cd9995c8819985a5b1959606a1b6044820152606401610bcd565b60408051878152602081018790526001600160a01b038916918a917f34d7c2c767f150cbd60a943f8dfed5f99ce97c76db5341c71f9848ee8240c4dc910160405180910390a3506112e360018055565b50505050505050565b60006112f781611c25565b610bf7611e0b565b600061130a81611c25565b6201518082101561134d5760405162461bcd60e51b815260206004820152600d60248201526c4d696e696d756d20312064617960981b6044820152606401610bcd565b50601455565b6000918252602082815260408084206001600160a01b0393909316845291905290205460ff1690565b600061138781611c25565b50600d93909355600e91909155600c55600f55565b6113a4611d6a565b6113ac611dc3565b600d543410156113f15760405162461bcd60e51b815260206004820152601060248201526f105b5bdd5b9d081d1bdbc81cdb585b1b60821b6044820152606401610bcd565b600e543411156114365760405162461bcd60e51b815260206004820152601060248201526f416d6f756e7420746f6f206c6172676560801b6044820152606401610bcd565b60008181526004602052604090205460ff166114945760405162461bcd60e51b815260206004820152601d60248201527f556e737570706f727465642064657374696e6174696f6e20636861696e0000006044820152606401610bcd565b6001600160a01b0382166114de5760405162461bcd60e51b8152602060048201526011602482015270125b9d985b1a59081c9958da5c1a595b9d607a1b6044820152606401610bcd565b60025460405163645bbcfd60e11b8152600481018590523360248201526001600160a01b038481166044830152346064830152608482018490526101009092049091169063c8b779fa9060a4016020604051808303816000875af115801561154a573d6000803e3d6000fd5b505050506040513d601f19601f8201168201806040525081019061156e9190612317565b6115ba5760405162461bcd60e51b815260206004820152601a60248201527f496e74656e7420766572696669636174696f6e206661696c65640000000000006044820152606401610bcd565b60006115c96201518042612334565b336000908152600b6020526040902054909150811461160257336000908152600a60209081526040808320839055600b90915290208190555b600c54336000908152600a6020526040902054611620903490612304565b111561166e5760405162461bcd60e51b815260206004820152601960248201527f55736572206461696c79206c696d6974206578636565646564000000000000006044820152606401610bcd565b336000908152600a60205260408120805434929061168d908490612304565b909155505060115481146116a657600060105560118190555b600f54346010546116b79190612304565b11156117055760405162461bcd60e51b815260206004820152601b60248201527f476c6f62616c206461696c79206c696d697420657863656564656400000000006044820152606401610bcd565b34601060008282546117179190612304565b90915550506007805490600061172c83612356565b909155505060075460408051602081018790526bffffffffffffffffffffffff1933606090811b8216938301939093529186901b90911660548201523460688201526088810184905260a88101919091524260c882015260009060e80160408051808303601f19018152828252805160209182012061010080850184523385526001600160a01b0389811684870190815234878701818152606089018c815260808a018f81524260a08c01908152600060c08d0181815260e08e018281528b835260069c8d90529c82209d518e546001600160a01b0319908116918b16919091178f55975160018f018054909916991698909817909655925160028c0155905160038b01555160048a01555160058901559151969094018054955161ffff1990961696151561ff001916969096179415159091029390931790935560088054939450919261187b908490612304565b9091555050604080516001600160a01b03861681523460208201529081018490523390869083907ff9d826c40729cbbcf853d96b6c63f2ebba45e48c622ca3d50a94c186aa4bb7049060600160405180910390a45050610ac860018055565b6000828152602081905260409020600101546118f581611c25565b610ac88383611cb3565b600081815260066020526040902080546001600160a01b031633146119575760405162461bcd60e51b815260206004820152600e60248201526d2737ba103637b1b59037bbb732b960911b6044820152606401610bcd565b600681015460ff161561197c5760405162461bcd60e51b8152600401610bcd906122c4565b6006810154610100900460ff16156119c95760405162461bcd60e51b815260206004820152601060248201526f105b1c9958591e48195e1958dd5d195960821b6044820152606401610bcd565b60008281526012602052604090205460ff1615611a285760405162461bcd60e51b815260206004820152601a60248201527f5265636f7665727920616c7265616479207265717565737465640000000000006044820152606401610bcd565b6005810154611a3a9062015180612304565b4211611a885760405162461bcd60e51b815260206004820152601d60248201527f546f6f206561726c7920746f2072657175657374207265636f766572790000006044820152606401610bcd565b6000828152601260209081526040808320805460ff19166001179055601390915280822042905551339184917f015ece9be4b3b56b41a1d9a81b5f67f7d61fd18b97e629272fe458b79392d5bd9190a35050565b6000611ae781611c25565b6001600160a01b03831615611b175760028054610100600160a81b0319166101006001600160a01b038616021790555b6001600160a01b03821615610ac857600380546001600160a01b0384166001600160a01b0319909116179055505050565b60008080611b596201518042612334565b6001600160a01b0385166000908152600b6020526040812054919250908214611b83576000611b9d565b6001600160a01b0385166000908152600a60205260409020545b905060008260115414611bb1576000611bb5565b6010545b905081600c5411611bc7576000611bd5565b81600c54611bd5919061236f565b81600f5411611be5576000611bf3565b81600f54611bf3919061236f565b94509450505050915091565b6000806000600854600954600954600854611c1a9190612382565b925092509250909192565b610bf78133611e48565b611c398282611353565b610be0576000828152602081815260408083206001600160a01b03851684529091529020805460ff19166001179055611c6f3390565b6001600160a01b0316816001600160a01b0316837f2f8788117e7eff1d82e926ec794901d17c78024a50270940304540a733656f0d60405160405180910390a45050565b611cbd8282611353565b15610be0576000828152602081815260408083206001600160a01b0385168085529252808320805460ff1916905551339285917ff6391f5c32d9c69d2a47ea670b442974b53935d1edc7fd64eb21e047a839171b9190a45050565b611d20611ea1565b6002805460ff191690557f5db9ee0a495bf2e6ff9c91a7834c1ba4fdd244a5e8aa4e537bd38aeae4b073aa335b6040516001600160a01b03909116815260200160405180910390a1565b600260015403611dbc5760405162461bcd60e51b815260206004820152601f60248201527f5265656e7472616e637947756172643a207265656e7472616e742063616c6c006044820152606401610bcd565b6002600155565b60025460ff1615611e095760405162461bcd60e51b815260206004820152601060248201526f14185d5cd8589b194e881c185d5cd95960821b6044820152606401610bcd565b565b611e13611dc3565b6002805460ff191660011790557f62e78cea01bee320cd4e420270b5ea74000d11b0c9f74754ebdbfc544b05a258611d4d3390565b611e528282611353565b610be057611e5f81611eea565b611e6a836020611efc565b604051602001611e7b9291906123cd565b60408051601f198184030181529082905262461bcd60e51b8252610bcd91600401612442565b60025460ff16611e095760405162461bcd60e51b815260206004820152601460248201527314185d5cd8589b194e881b9bdd081c185d5cd95960621b6044820152606401610bcd565b6060610a9d6001600160a01b03831660145b60606000611f0b836002612475565b611f16906002612304565b67ffffffffffffffff811115611f2e57611f2e61248c565b6040519080825280601f01601f191660200182016040528015611f58576020820181803683370190505b509050600360fc1b81600081518110611f7357611f736124a2565b60200101906001600160f81b031916908160001a905350600f60fb1b81600181518110611fa257611fa26124a2565b60200101906001600160f81b031916908160001a9053506000611fc6846002612475565b611fd1906001612304565b90505b6001811115612049576f181899199a1a9b1b9c1cb0b131b232b360811b85600f1660108110612005576120056124a2565b1a60f81b82828151811061201b5761201b6124a2565b60200101906001600160f81b031916908160001a90535060049490941c93612042816124b8565b9050611fd4565b5083156120985760405162461bcd60e51b815260206004820181905260248201527f537472696e67733a20686578206c656e67746820696e73756666696369656e746044820152606401610bcd565b9392505050565b6000602082840312156120b157600080fd5b81356001600160e01b03198116811461209857600080fd5b6000602082840312156120db57600080fd5b5035919050565b80356001600160a01b03811681146120f957600080fd5b919050565b6000806040838503121561211157600080fd5b82359150612121602084016120e2565b90509250929050565b8015158114610bf757600080fd5b60008060006060848603121561214d57600080fd5b83359250602084013561215f8161212a565b915061216d604085016120e2565b90509250925092565b60006020828403121561218857600080fd5b612098826120e2565b60008060008060008060a087890312156121aa57600080fd5b863595506121ba602088016120e2565b94506040870135935060608701359250608087013567ffffffffffffffff808211156121e557600080fd5b818901915089601f8301126121f957600080fd5b81358181111561220857600080fd5b8a60208260051b850101111561221d57600080fd5b6020830194508093505050509295509295509295565b6000806000806080858703121561224957600080fd5b5050823594602084013594506040840135936060013592509050565b60008060006060848603121561227a57600080fd5b8335925061228a602085016120e2565b9150604084013590509250925092565b600080604083850312156122ad57600080fd5b6122b6836120e2565b9150612121602084016120e2565b60208082526010908201526f105b1c9958591e481d5b9b1bd8dad95960821b604082015260600190565b634e487b7160e01b600052601160045260246000fd5b80820180821115610a9d57610a9d6122ee565b60006020828403121561232957600080fd5b81516120988161212a565b60008261235157634e487b7160e01b600052601260045260246000fd5b500490565b600060018201612368576123686122ee565b5060010190565b81810381811115610a9d57610a9d6122ee565b81810360008312801583831316838312821617156123a2576123a26122ee565b5092915050565b60005b838110156123c45781810151838201526020016123ac565b50506000910152565b7f416363657373436f6e74726f6c3a206163636f756e74200000000000000000008152600083516124058160178501602088016123a9565b7001034b99036b4b9b9b4b733903937b6329607d1b60179184019182015283516124368160288401602088016123a9565b01602801949350505050565b60208152600082518060208401526124618160408501602087016123a9565b601f01601f19169190910160400192915050565b8082028115828204841417610a9d57610a9d6122ee565b634e487b7160e01b600052604160045260246000fd5b634e487b7160e01b600052603260045260246000fd5b6000816124c7576124c76122ee565b50600019019056fea264697066735822122051337905da92658b291abac2b2c7c915f1fbf535e7e5438ebc0e08285e0b3ab264736f6c63430008140033",
  "linkReferences": {},
  "deployedLinkReferences": {}
}