{
  "_format": "hh-sol-artifact-1",
  "contractName": "VisionEqualizerV2",
  "sourceName": "contracts/interop/VisionEqualizerV2.sol",
  "abi": [
    {
      "inputs": [
        {
          "internalType": "address",
          "name": "_lzEndpoint",
          "type": "address"
        }
      ],
      "stateMutability": "nonpayable",
      "type": "constructor"
    },
    {
      "anonymous": false,
      "inputs": [
        {
          "indexed": false,
          "internalType": "address",
          "name": "user",
          "type": "address"
        },
        {
          "indexed": false,
          "internalType": "uint256",
          "name": "chainId",
          "type": "uint256"
        },
        {
          "indexed": false,
          "internalType": "string",
          "name": "symbol",
          "type": "string"
        },
        {
          "indexed": false,
          "internalType": "uint256",
          "name": "amount",
          "type": "uint256"
        }
      ],
      "name": "LiquiditySynced",
      "type": "event"
    },
    {
      "anonymous": false,
      "inputs": [
        {
          "indexed": false,
          "internalType": "uint16",
          "name": "_srcChainId",
          "type": "uint16"
        },
        {
          "indexed": false,
          "internalType": "bytes",
          "name": "_srcAddress",
          "type": "bytes"
        },
        {
          "indexed": false,
          "internalType": "uint64",
          "name": "_nonce",
          "type": "uint64"
        },
        {
          "indexed": false,
          "internalType": "bytes",
          "name": "_payload",
          "type": "bytes"
        },
        {
          "indexed": false,
          "internalType": "bytes",
          "name": "_reason",
          "type": "bytes"
        }
      ],
      "name": "MessageFailed",
      "type": "event"
    },
    {
      "anonymous": false,
      "inputs": [
        {
          "indexed": false,
          "internalType": "uint16",
          "name": "_srcChainId",
          "type": "uint16"
        },
        {
          "indexed": false,
          "internalType": "bytes",
          "name": "_srcAddress",
          "type": "bytes"
        },
        {
          "indexed": false,
          "internalType": "uint64",
          "name": "_nonce",
          "type": "uint64"
        },
        {
          "indexed": false,
          "internalType": "bytes",
          "name": "_payload",
          "type": "bytes"
        }
      ],
      "name": "MessageReceived",
      "type": "event"
    },
    {
      "anonymous": false,
      "inputs": [
        {
          "indexed": false,
          "internalType": "bytes32",
          "name": "_msgHash",
          "type": "bytes32"
        }
      ],
      "name": "MessageRetried",
      "type": "event"
    },
    {
      "anonymous": false,
      "inputs": [
        {
          "indexed": false,
          "internalType": "address",
          "name": "account",
          "type": "address"
        }
      ],
      "name": "Paused",
      "type": "event"
    },
    {
      "anonymous": false,
      "inputs": [
        {
          "indexed": true,
          "internalType": "bytes32",
          "name": "role",
          "type": "bytes32"
        },
        {
          "indexed": true,
          "internalType": "bytes32",
          "name": "previousAdminRole",
          "type": "bytes32"
        },
        {
          "indexed": true,
          "internalType": "bytes32",
          "name": "newAdminRole",
          "type": "bytes32"
        }
      ],
      "name": "RoleAdminChanged",
      "type": "event"
    },
    {
      "anonymous": false,
      "inputs": [
        {
          "indexed": true,
          "internalType": "bytes32",
          "name": "role",
          "type": "bytes32"
        },
        {
          "indexed": true,
          "internalType": "address",
          "name": "account",
          "type": "address"
        },
        {
          "indexed": true,
          "internalType": "address",
          "name": "sender",
          "type": "address"
        }
      ],
      "name": "RoleGranted",
      "type": "event"
    },
    {
      "anonymous": false,
      "inputs": [
        {
          "indexed": true,
          "internalType": "bytes32",
          "name": "role",
          "type": "bytes32"
        },
        {
          "indexed": true,
          "internalType": "address",
          "name": "account",
          "type": "address"
        },
        {
          "indexed": true,
          "internalType": "address",
          "name": "sender",
          "type": "address"
        }
      ],
      "name": "RoleRevoked",
      "type": "event"
    },
    {
      "anonymous": false,
      "inputs": [
        {
          "indexed": true,
          "internalType": "bytes32",
          "name": "requestId",
          "type": "bytes32"
        },
        {
          "indexed": false,
          "internalType": "address",
          "name": "user",
          "type": "address"
        },
        {
          "indexed": false,
          "internalType": "uint256",
          "name": "targetChainId",
          "type": "uint256"
        },
        {
          "indexed": false,
          "internalType": "uint256",
          "name": "amount",
          "type": "uint256"
        }
      ],
      "name": "TSSRequestEmitted",
      "type": "event"
    },
    {
      "anonymous": false,
      "inputs": [
        {
          "indexed": false,
          "internalType": "address",
          "name": "account",
          "type": "address"
        }
      ],
      "name": "Unpaused",
      "type": "event"
    },
    {
      "inputs": [],
      "name": "DEFAULT_ADMIN_ROLE",
      "outputs": [
        {
          "internalType": "bytes32",
          "name": "",
          "type": "bytes32"
        }
      ],
      "stateMutability": "view",
      "type": "function"
    },
    {
      "inputs": [],
      "name": "PAUSER_ROLE",
      "outputs": [
        {
          "internalType": "bytes32",
          "name": "",
          "type": "bytes32"
        }
      ],
      "stateMutability": "view",
      "type": "function"
    },
    {
      "inputs": [],
      "name": "RELAYER_ROLE",
      "outputs": [
        {
          "internalType": "bytes32",
          "name": "",
          "type": "bytes32"
        }
      ],
      "stateMutability": "view",
      "type": "function"
    },
    {
      "inputs": [],
      "name": "TSS_SIGNER_ROLE",
      "outputs": [
        {
          "internalType": "bytes32",
          "name": "",
          "type": "bytes32"
        }
      ],
      "stateMutability": "view",
      "type": "function"
    },
    {
      "inputs": [
        {
          "internalType": "uint256",
          "name": "",
          "type": "uint256"
        },
        {
          "internalType": "string",
          "name": "",
          "type": "string"
        }
      ],
      "name": "chainBalance",
      "outputs": [
        {
          "internalType": "uint256",
          "name": "",
          "type": "uint256"
        }
      ],
      "stateMutability": "view",
      "type": "function"
    },
    {
      "inputs": [
        {
          "internalType": "bytes32",
          "name": "",
          "type": "bytes32"
        }
      ],
      "name": "failedMessages",
      "outputs": [
        {
          "internalType": "bytes",
          "name": "",
          "type": "bytes"
        }
      ],
      "stateMutability": "view",
      "type": "function"
    },
    {
      "inputs": [
        {
          "internalType": "bytes32",
          "name": "role",
          "type": "bytes32"
        }
      ],
      "name": "getRoleAdmin",
      "outputs": [
        {
          "internalType": "bytes32",
          "name": "",
          "type": "bytes32"
        }
      ],
      "stateMutability": "view",
      "type": "function"
    },
    {
      "inputs": [
        {
          "internalType": "address",
          "name": "",
          "type": "address"
        },
        {
          "internalType": "uint256",
          "name": "",
          "type": "uint256"
        },
        {
          "internalType": "string",
          "name": "",
          "type": "string"
        }
      ],
      "name": "globalLiquidity",
      "outputs": [
        {
          "internalType": "uint256",
          "name": "",
          "type": "uint256"
        }
      ],
      "stateMutability": "view",
      "type": "function"
    },
    {
      "inputs": [
        {
          "internalType": "bytes32",
          "name": "role",
          "type": "bytes32"
        },
        {
          "internalType": "address",
          "name": "account",
          "type": "address"
        }
      ],
      "name": "grantRole",
      "outputs": [],
      "stateMutability": "nonpayable",
      "type": "function"
    },
    {
      "inputs": [
        {
          "internalType": "bytes32",
          "name": "role",
          "type": "bytes32"
        },
        {
          "internalType": "address",
          "name": "account",
          "type": "address"
        }
      ],
      "name": "hasRole",
      "outputs": [
        {
          "internalType": "bool",
          "name": "",
          "type": "bool"
        }
      ],
      "stateMutability": "view",
      "type": "function"
    },
    {
      "inputs": [],
      "name": "lzEndpoint",
      "outputs": [
        {
          "internalType": "address",
          "name": "",
          "type": "address"
        }
      ],
      "stateMutability": "view",
      "type": "function"
    },
    {
      "inputs": [
        {
          "internalType": "uint16",
          "name": "_srcChainId",
          "type": "uint16"
        },
        {
          "internalType": "bytes",
          "name": "_srcAddress",
          "type": "bytes"
        },
        {
          "internalType": "uint64",
          "name": "_nonce",
          "type": "uint64"
        },
        {
          "internalType": "bytes",
          "name": "_payload",
          "type": "bytes"
        }
      ],
      "name": "lzReceive",
      "outputs": [],
      "stateMutability": "nonpayable",
      "type": "function"
    },
    {
      "inputs": [
        {
          "internalType": "uint16",
          "name": "_srcChainId",
          "type": "uint16"
        },
        {
          "internalType": "bytes",
          "name": "_srcAddress",
          "type": "bytes"
        },
        {
          "internalType": "uint64",
          "name": "_nonce",
          "type": "uint64"
        },
        {
          "internalType": "bytes",
          "name": "_payload",
          "type": "bytes"
        }
      ],
      "name": "nonblockingLzReceive",
      "outputs": [],
      "stateMutability": "nonpayable",
      "type": "function"
    },
    {
      "inputs": [],
      "name": "pause",
      "outputs": [],
      "stateMutability": "nonpayable",
      "type": "function"
    },
    {
      "inputs": [],
      "name": "paused",
      "outputs": [
        {
          "internalType": "bool",
          "name": "",
          "type": "bool"
        }
      ],
      "stateMutability": "view",
      "type": "function"
    },
    {
      "inputs": [
        {
          "internalType": "bytes32",
          "name": "",
          "type": "bytes32"
        }
      ],
      "name": "processedMessages",
      "outputs": [
        {
          "internalType": "bool",
          "name": "",
          "type": "bool"
        }
      ],
      "stateMutability": "view",
      "type": "function"
    },
    {
      "inputs": [
        {
          "internalType": "bytes32",
          "name": "role",
          "type": "bytes32"
        },
        {
          "internalType": "address",
          "name": "account",
          "type": "address"
        }
      ],
      "name": "renounceRole",
      "outputs": [],
      "stateMutability": "nonpayable",
      "type": "function"
    },
    {
      "inputs": [
        {
          "internalType": "uint256",
          "name": "sourceChainId",
          "type": "uint256"
        },
        {
          "internalType": "uint256",
          "name": "targetChainId",
          "type": "uint256"
        },
        {
          "internalType": "string",
          "name": "symbol",
          "type": "string"
        },
        {
          "internalType": "uint256",
          "name": "amount",
          "type": "uint256"
        }
      ],
      "name": "requestTSSMigration",
      "outputs": [],
      "stateMutability": "nonpayable",
      "type": "function"
    },
    {
      "inputs": [
        {
          "internalType": "uint16",
          "name": "_srcChainId",
          "type": "uint16"
        },
        {
          "internalType": "bytes",
          "name": "_srcAddress",
          "type": "bytes"
        },
        {
          "internalType": "uint64",
          "name": "_nonce",
          "type": "uint64"
        },
        {
          "internalType": "bytes",
          "name": "_payload",
          "type": "bytes"
        }
      ],
      "name": "retryMessage",
      "outputs": [],
      "stateMutability": "nonpayable",
      "type": "function"
    },
    {
      "inputs": [
        {
          "internalType": "bytes32",
          "name": "role",
          "type": "bytes32"
        },
        {
          "internalType": "address",
          "name": "account",
          "type": "address"
        }
      ],
      "name": "revokeRole",
      "outputs": [],
      "stateMutability": "nonpayable",
      "type": "function"
    },
    {
      "inputs": [
        {
          "internalType": "uint16",
          "name": "_srcChainId",
          "type": "uint16"
        },
        {
          "internalType": "bytes",
          "name": "_path",
          "type": "bytes"
        }
      ],
      "name": "setTrustedRemote",
      "outputs": [],
      "stateMutability": "nonpayable",
      "type": "function"
    },
    {
      "inputs": [
        {
          "internalType": "bytes4",
          "name": "interfaceId",
          "type": "bytes4"
        }
      ],
      "name": "supportsInterface",
      "outputs": [
        {
          "internalType": "bool",
          "name": "",
          "type": "bool"
        }
      ],
      "stateMutability": "view",
      "type": "function"
    },
    {
      "inputs": [
        {
          "internalType": "uint16",
          "name": "",
          "type": "uint16"
        },
        {
          "internalType": "bytes",
          "name": "",
          "type": "bytes"
        }
      ],
      "name": "trustedRemoteLookup",
      "outputs": [
        {
          "internalType": "bool",
          "name": "",
          "type": "bool"
        }
      ],
      "stateMutability": "view",
      "type": "function"
    },
    {
      "inputs": [
        {
          "internalType": "bytes32",
          "name": "",
          "type": "bytes32"
        }
      ],
      "name": "tssRequests",
      "outputs": [
        {
          "internalType": "address",
          "name": "user",
          "type": "address"
        },
        {
          "internalType": "uint256",
          "name": "targetChainId",
          "type": "uint256"
        },
        {
          "internalType": "string",
          "name": "symbol",
          "type": "string"
        },
        {
          "internalType": "uint256",
          "name": "amount",
          "type": "uint256"
        },
        {
          "internalType": "enum VisionEqualizerV2.RequestStatus",
          "name": "status",
          "type": "uint8"
        }
      ],
      "stateMutability": "view",
      "type": "function"
    },
    {
      "inputs": [],
      "name": "unpause",
      "outputs": [],
      "stateMutability": "nonpayable",
      "type": "function"
    },
    {
      "inputs": [
        {
          "internalType": "address",
          "name": "_newEndpoint",
          "type": "address"
        }
      ],
      "name": "updateLzEndpoint",
      "outputs": [],
      "stateMutability": "nonpayable",
      "type": "function"
    }
  ],
  "bytecode": "0x60806040523480156200001157600080fd5b5060405162001fa138038062001fa1833981016040819052620000349162000144565b6001805460ff191690556200004b600033620000a3565b620000777f65d7a28e3265b37a6474929f336521b332c1681b933f6cb9f3376673440d862a33620000a3565b600180546001600160a01b0390921661010002610100600160a81b031990921691909117905562000176565b6000828152602081815260408083206001600160a01b038516845290915290205460ff1662000140576000828152602081815260408083206001600160a01b03851684529091529020805460ff19166001179055620000ff3390565b6001600160a01b0316816001600160a01b0316837f2f8788117e7eff1d82e926ec794901d17c78024a50270940304540a733656f0d60405160405180910390a45b5050565b6000602082840312156200015757600080fd5b81516001600160a01b03811681146200016f57600080fd5b9392505050565b611e1b80620001866000396000f3fe608060405234801561001057600080fd5b506004361061018d5760003560e01c8063926d7d7f116100de578063ba76316511610097578063d1deba1f11610071578063d1deba1f1461043b578063d547741f1461044e578063e63ab1e914610461578063eb8d72b71461048857600080fd5b8063ba763165146103bb578063c400e6f1146103e2578063c62be3ca1461042857600080fd5b8063926d7d7f1461030557806395f6d7251461032c5780639866641614610350578063a217fddf14610363578063a4e7f8bd1461036b578063b353aaa71461038b57600080fd5b80633f4ba83a1161014b5780638456cb59116101255780638456cb591461028857806388ba16ab146102905780638d542dc1146102b357806391d14854146102f257600080fd5b80633f4ba83a146102625780635c975abb1461026a57806366ad5c8a1461027557600080fd5b80621d35671461019257806301ffc9a7146101a75780631ddb3ced146101cf578063248a9ca3146102195780632f2ff15d1461023c57806336568abe1461024f575b600080fd5b6101a56101a03660046114a9565b61049b565b005b6101ba6101b5366004611542565b610773565b60405190151581526020015b60405180910390f35b61020b6101dd366004611617565b6006602090815260009283526040909220815180830184018051928152908401929093019190912091525481565b6040519081526020016101c6565b61020b61022736600461165d565b60009081526020819052604090206001015490565b6101a561024a36600461168b565b6107aa565b6101a561025d36600461168b565b6107d4565b6101a5610852565b60015460ff166101ba565b6101a56102833660046114a9565b610868565b6101a56109c2565b6101ba61029e36600461165d565b60046020526000908152604090205460ff1681565b6101ba6102c13660046116bb565b6002602090815260009283526040909220815180830184018051928152908401929093019190912091525460ff1681565b6101ba61030036600461168b565b6109f4565b61020b7fe2b7fb3b832174769106daebcfd6d1970523240dda11281102db9363b83b0dc481565b61033f61033a36600461165d565b610a1d565b6040516101c6959493929190611778565b6101a561035e3660046117d5565b610ae2565b61020b600081565b61037e61037936600461165d565b610d30565b6040516101c6919061182c565b6001546103a39061010090046001600160a01b031681565b6040516001600160a01b0390911681526020016101c6565b61020b7f7efc34804d06122ce3b5b934ed76f62febd6b0d5db93e14fa5e1577d7ac4492d81565b61020b6103f036600461183f565b600360209081526000938452604080852082529284529190922082518084018301805192815290830193909201929092209190525481565b6101a5610436366004611897565b610dca565b6101a56104493660046114a9565b610dfe565b6101a561045c36600461168b565b610f60565b61020b7f65d7a28e3265b37a6474929f336521b332c1681b933f6cb9f3376673440d862a81565b6101a56104963660046118b4565b610f85565b6104a3610fde565b60015461010090046001600160a01b031633146105075760405162461bcd60e51b815260206004820152601760248201527f496e76616c696420656e64706f696e742063616c6c657200000000000000000060448201526064015b60405180910390fd5b61ffff861660009081526002602052604090819020905161052b9087908790611906565b9081526040519081900360200190205460ff1661058a5760405162461bcd60e51b815260206004820152601760248201527f496e76616c696420736f7572636520636f6e747261637400000000000000000060448201526064016104fe565b60008686868686866040516020016105a796959493929190611916565b60408051601f1981840301815291815281516020928301206000818152600490935291205490915060ff161561061f5760405162461bcd60e51b815260206004820152601960248201527f4d65737361676520616c72656164792070726f6365737365640000000000000060448201526064016104fe565b600081815260046020819052604091829020805460ff191660011790559051633356ae4560e11b815230916366ad5c8a91610666918b918b918b918b918b918b910161198e565b600060405180830381600087803b15801561068057600080fd5b505af1925050508015610691575060015b610728573d8080156106bf576040519150601f19603f3d011682016040523d82523d6000602084013e6106c4565b606091505b5060008281526005602052604090206106de848683611a63565b507fe183f33de2837795525b4792ca4cd60535bd77c53b7e7030060bfcf5734d6b0c8888888888888760405161071a9796959493929190611b23565b60405180910390a15061076a565b7fa677d9c7a0feb5b64587975420c62b4624eb96b5a2eca6acd65efb1e5ffa14a28787878787876040516107619695949392919061198e565b60405180910390a15b50505050505050565b60006001600160e01b03198216637965db0b60e01b14806107a457506301ffc9a760e01b6001600160e01b03198316145b92915050565b6000828152602081905260409020600101546107c581611026565b6107cf8383611030565b505050565b6001600160a01b03811633146108445760405162461bcd60e51b815260206004820152602f60248201527f416363657373436f6e74726f6c3a2063616e206f6e6c792072656e6f756e636560448201526e103937b632b9903337b91039b2b63360891b60648201526084016104fe565b61084e82826110b4565b5050565b600061085d81611026565b610865611119565b50565b3330146108ad5760405162461bcd60e51b815260206004820152601360248201527221b0b63632b91036bab9ba1031329039b2b63360691b60448201526064016104fe565b600080806108bd84860186611b85565b9250925092508060036000856001600160a01b03166001600160a01b0316815260200190815260200160002060008b61ffff1681526020019081526020016000208360405161090c9190611bdd565b908152602001604051809103902060008282546109299190611c0f565b909155505061ffff8916600090815260066020526040908190209051829190610953908590611bdd565b908152602001604051809103902060008282546109709190611c0f565b90915550506040517f3eddf3ac409ebf457e7df3f2cad83fa9c2162ee4815e69527317d8b60f172355906109af90859061ffff8d169086908690611c22565b60405180910390a1505050505050505050565b7f65d7a28e3265b37a6474929f336521b332c1681b933f6cb9f3376673440d862a6109ec81611026565b61086561116b565b6000918252602082815260408084206001600160a01b0393909316845291905290205460ff1690565b6007602052600090815260409020805460018201546002830180546001600160a01b03909316939192610a4f906119db565b80601f0160208091040260200160405190810160405280929190818152602001828054610a7b906119db565b8015610ac85780601f10610a9d57610100808354040283529160200191610ac8565b820191906000526020600020905b815481529060010190602001808311610aab57829003601f168201915b50505050600383015460049093015491929160ff16905085565b610aea610fde565b336000908152600360209081526040808320878452909152908190209051829190610b16908590611bdd565b9081526020016040518091039020541015610b695760405162461bcd60e51b8152602060048201526013602482015272125b9cdd59999a58da595b9d0810dc99591a5d606a1b60448201526064016104fe565b336000908152600360209081526040808320878452909152908190209051829190610b95908590611bdd565b90815260200160405180910390206000828254610bb29190611c5a565b9091555050600084815260066020526040908190209051829190610bd7908590611bdd565b90815260200160405180910390206000828254610bf49190611c5a565b90915550506040516bffffffffffffffffffffffff193360601b166020820152426034820152605481018290526074810184905260009060940160408051808303601f19018152828252805160209182012060a08401835233845281840188815284840188815260608601889052600060808701819052838152600790945293909220845181546001600160a01b039091166001600160a01b0319909116178155915160018301559151919350906002820190610cb19082611c6d565b5060608201516003820155608082015160048201805460ff19166001836002811115610cdf57610cdf611762565b02179055505060408051338152602081018790529081018490528291507f9041c4c184cbd37ff295bc92a8eb06fabe0ee28e3e80dcf8c7fd467a38b69e639060600160405180910390a25050505050565b60056020526000908152604090208054610d49906119db565b80601f0160208091040260200160405190810160405280929190818152602001828054610d75906119db565b8015610dc25780601f10610d9757610100808354040283529160200191610dc2565b820191906000526020600020905b815481529060010190602001808311610da557829003601f168201915b505050505081565b6000610dd581611026565b50600180546001600160a01b0390921661010002610100600160a81b0319909216919091179055565b610e06610fde565b6000868686868686604051602001610e2396959493929190611916565b6040516020818303038152906040528051906020012090506000600560008381526020019081526020016000208054610e5b906119db565b905011610eb95760405162461bcd60e51b815260206004820152602660248201527f4d657373616765206e6f7420666f756e64206f7220616c72656164792070726f60448201526518d95cdcd95960d21b60648201526084016104fe565b6000818152600560205260408120610ed0916113fc565b604051633356ae4560e11b815230906366ad5c8a90610efd908a908a908a908a908a908a9060040161198e565b600060405180830381600087803b158015610f1757600080fd5b505af1158015610f2b573d6000803e3d6000fd5b505050507f72d1525c4df70aedf1877ec89702311c795a01c082917308a30fb40059da2cc78160405161076191815260200190565b600082815260208190526040902060010154610f7b81611026565b6107cf83836110b4565b6000610f9081611026565b61ffff841660009081526002602052604090819020905160019190610fb89086908690611906565b908152604051908190036020019020805491151560ff1990921691909117905550505050565b60015460ff16156110245760405162461bcd60e51b815260206004820152601060248201526f14185d5cd8589b194e881c185d5cd95960821b60448201526064016104fe565b565b61086581336111a6565b61103a82826109f4565b61084e576000828152602081815260408083206001600160a01b03851684529091529020805460ff191660011790556110703390565b6001600160a01b0316816001600160a01b0316837f2f8788117e7eff1d82e926ec794901d17c78024a50270940304540a733656f0d60405160405180910390a45050565b6110be82826109f4565b1561084e576000828152602081815260408083206001600160a01b0385168085529252808320805460ff1916905551339285917ff6391f5c32d9c69d2a47ea670b442974b53935d1edc7fd64eb21e047a839171b9190a45050565b6111216111ff565b6001805460ff191690557f5db9ee0a495bf2e6ff9c91a7834c1ba4fdd244a5e8aa4e537bd38aeae4b073aa335b6040516001600160a01b03909116815260200160405180910390a1565b611173610fde565b6001805460ff1916811790557f62e78cea01bee320cd4e420270b5ea74000d11b0c9f74754ebdbfc544b05a2583361114e565b6111b082826109f4565b61084e576111bd81611248565b6111c883602061125a565b6040516020016111d9929190611d2c565b60408051601f198184030181529082905262461bcd60e51b82526104fe9160040161182c565b60015460ff166110245760405162461bcd60e51b815260206004820152601460248201527314185d5cd8589b194e881b9bdd081c185d5cd95960621b60448201526064016104fe565b60606107a46001600160a01b03831660145b60606000611269836002611da1565b611274906002611c0f565b6001600160401b0381111561128b5761128b61156c565b6040519080825280601f01601f1916602001820160405280156112b5576020820181803683370190505b509050600360fc1b816000815181106112d0576112d0611db8565b60200101906001600160f81b031916908160001a905350600f60fb1b816001815181106112ff576112ff611db8565b60200101906001600160f81b031916908160001a9053506000611323846002611da1565b61132e906001611c0f565b90505b60018111156113a6576f181899199a1a9b1b9c1cb0b131b232b360811b85600f166010811061136257611362611db8565b1a60f81b82828151811061137857611378611db8565b60200101906001600160f81b031916908160001a90535060049490941c9361139f81611dce565b9050611331565b5083156113f55760405162461bcd60e51b815260206004820181905260248201527f537472696e67733a20686578206c656e67746820696e73756666696369656e7460448201526064016104fe565b9392505050565b508054611408906119db565b6000825580601f10611418575050565b601f01602090049060005260206000209081019061086591905b808211156114465760008155600101611432565b5090565b803561ffff8116811461145c57600080fd5b919050565b60008083601f84011261147357600080fd5b5081356001600160401b0381111561148a57600080fd5b6020830191508360208285010111156114a257600080fd5b9250929050565b600080600080600080608087890312156114c257600080fd5b6114cb8761144a565b955060208701356001600160401b03808211156114e757600080fd5b6114f38a838b01611461565b909750955060408901359150808216821461150d57600080fd5b9093506060880135908082111561152357600080fd5b5061153089828a01611461565b979a9699509497509295939492505050565b60006020828403121561155457600080fd5b81356001600160e01b0319811681146113f557600080fd5b634e487b7160e01b600052604160045260246000fd5b60006001600160401b038084111561159c5761159c61156c565b604051601f8501601f19908116603f011681019082821181831017156115c4576115c461156c565b816040528093508581528686860111156115dd57600080fd5b858560208301376000602087830101525050509392505050565b600082601f83011261160857600080fd5b6113f583833560208501611582565b6000806040838503121561162a57600080fd5b8235915060208301356001600160401b0381111561164757600080fd5b611653858286016115f7565b9150509250929050565b60006020828403121561166f57600080fd5b5035919050565b6001600160a01b038116811461086557600080fd5b6000806040838503121561169e57600080fd5b8235915060208301356116b081611676565b809150509250929050565b600080604083850312156116ce57600080fd5b6116d78361144a565b915060208301356001600160401b038111156116f257600080fd5b8301601f8101851361170357600080fd5b61165385823560208401611582565b60005b8381101561172d578181015183820152602001611715565b50506000910152565b6000815180845261174e816020860160208601611712565b601f01601f19169290920160200192915050565b634e487b7160e01b600052602160045260246000fd5b60018060a01b038616815284602082015260a06040820152600061179f60a0830186611736565b9050836060830152600383106117c557634e487b7160e01b600052602160045260246000fd5b8260808301529695505050505050565b600080600080608085870312156117eb57600080fd5b843593506020850135925060408501356001600160401b0381111561180f57600080fd5b61181b878288016115f7565b949793965093946060013593505050565b6020815260006113f56020830184611736565b60008060006060848603121561185457600080fd5b833561185f81611676565b92506020840135915060408401356001600160401b0381111561188157600080fd5b61188d868287016115f7565b9150509250925092565b6000602082840312156118a957600080fd5b81356113f581611676565b6000806000604084860312156118c957600080fd5b6118d28461144a565b925060208401356001600160401b038111156118ed57600080fd5b6118f986828701611461565b9497909650939450505050565b8183823760009101908152919050565b60f087901b6001600160f01b03191681528486600283013760008582016001600160401b0360c01b8660c01b1660028201528385600a83013760009301600a0192835250909695505050505050565b81835281816020850137506000828201602090810191909152601f909101601f19169091010190565b61ffff871681526080602082015260006119ac608083018789611965565b6001600160401b038616604084015282810360608401526119ce818587611965565b9998505050505050505050565b600181811c908216806119ef57607f821691505b602082108103611a0f57634e487b7160e01b600052602260045260246000fd5b50919050565b601f8211156107cf57600081815260208120601f850160051c81016020861015611a3c5750805b601f850160051c820191505b81811015611a5b57828155600101611a48565b505050505050565b6001600160401b03831115611a7a57611a7a61156c565b611a8e83611a8883546119db565b83611a15565b6000601f841160018114611ac25760008515611aaa5750838201355b600019600387901b1c1916600186901b178355611b1c565b600083815260209020601f19861690835b82811015611af35786850135825560209485019460019092019101611ad3565b5086821015611b105760001960f88860031b161c19848701351681555b505060018560011b0183555b5050505050565b61ffff8816815260a060208201526000611b4160a08301888a611965565b6001600160401b03871660408401528281036060840152611b63818688611965565b90508281036080840152611b778185611736565b9a9950505050505050505050565b600080600060608486031215611b9a57600080fd5b8335611ba581611676565b925060208401356001600160401b03811115611bc057600080fd5b611bcc868287016115f7565b925050604084013590509250925092565b60008251611bef818460208701611712565b9190910192915050565b634e487b7160e01b600052601160045260246000fd5b808201808211156107a4576107a4611bf9565b60018060a01b0385168152836020820152608060408201526000611c496080830185611736565b905082606083015295945050505050565b818103818111156107a4576107a4611bf9565b81516001600160401b03811115611c8657611c8661156c565b611c9a81611c9484546119db565b84611a15565b602080601f831160018114611ccf5760008415611cb75750858301515b600019600386901b1c1916600185901b178555611a5b565b600085815260208120601f198616915b82811015611cfe57888601518255948401946001909101908401611cdf565b5085821015611d1c5787850151600019600388901b60f8161c191681555b5050505050600190811b01905550565b7f416363657373436f6e74726f6c3a206163636f756e7420000000000000000000815260008351611d64816017850160208801611712565b7001034b99036b4b9b9b4b733903937b6329607d1b6017918401918201528351611d95816028840160208801611712565b01602801949350505050565b80820281158282048414176107a4576107a4611bf9565b634e487b7160e01b600052603260045260246000fd5b600081611ddd57611ddd611bf9565b50600019019056fea264697066735822122066a7ffdbaef14116f97bdf35a9edda3cc04a620211e0900d3f52958c8a3bbf6464736f6c63430008140033",
  "linkReferences": {},
  "deployedLinkReferences": {}
}