{
  "_format": "hh-sol-artifact-1",
  "contractName": "VCNPaymasterV2",
  "sourceName": "contracts/VCNPaymasterV2.sol",
  "abi": [
    {
      "inputs": [
        {
          "internalType": "contract IEntryPoint",
          "name": "_entryPoint",
          "type": "address"
        },
        {
          "internalType": "address",
          "name": "_verifyingSigner",
          "type": "address"
        }
      ],
      "stateMutability": "nonpayable",
      "type": "constructor"
    },
    {
      "anonymous": false,
      "inputs": [
        {
          "indexed": true,
          "internalType": "address",
          "name": "previousOwner",
          "type": "address"
        },
        {
          "indexed": true,
          "internalType": "address",
          "name": "newOwner",
          "type": "address"
        }
      ],
      "name": "OwnershipTransferred",
      "type": "event"
    },
    {
      "anonymous": false,
      "inputs": [
        {
          "indexed": true,
          "internalType": "address",
          "name": "oldSigner",
          "type": "address"
        },
        {
          "indexed": true,
          "internalType": "address",
          "name": "newSigner",
          "type": "address"
        }
      ],
      "name": "VerifyingSignerChanged",
      "type": "event"
    },
    {
      "inputs": [],
      "name": "DEFAULT_DAILY_LIMIT",
      "outputs": [
        {
          "internalType": "uint256",
          "name": "",
          "type": "uint256"
        }
      ],
      "stateMutability": "view",
      "type": "function"
    },
    {
      "inputs": [],
      "name": "SIGNATURE_VALIDITY_WINDOW",
      "outputs": [
        {
          "internalType": "uint256",
          "name": "",
          "type": "uint256"
        }
      ],
      "stateMutability": "view",
      "type": "function"
    },
    {
      "inputs": [
        {
          "internalType": "uint32",
          "name": "unstakeDelaySec",
          "type": "uint32"
        }
      ],
      "name": "addStake",
      "outputs": [],
      "stateMutability": "payable",
      "type": "function"
    },
    {
      "inputs": [],
      "name": "deposit",
      "outputs": [],
      "stateMutability": "payable",
      "type": "function"
    },
    {
      "inputs": [],
      "name": "entryPoint",
      "outputs": [
        {
          "internalType": "contract IEntryPoint",
          "name": "",
          "type": "address"
        }
      ],
      "stateMutability": "view",
      "type": "function"
    },
    {
      "inputs": [],
      "name": "getDeposit",
      "outputs": [
        {
          "internalType": "uint256",
          "name": "",
          "type": "uint256"
        }
      ],
      "stateMutability": "view",
      "type": "function"
    },
    {
      "inputs": [],
      "name": "owner",
      "outputs": [
        {
          "internalType": "address",
          "name": "",
          "type": "address"
        }
      ],
      "stateMutability": "view",
      "type": "function"
    },
    {
      "inputs": [
        {
          "internalType": "enum IPaymaster.PostOpMode",
          "name": "mode",
          "type": "uint8"
        },
        {
          "internalType": "bytes",
          "name": "context",
          "type": "bytes"
        },
        {
          "internalType": "uint256",
          "name": "actualGasCost",
          "type": "uint256"
        }
      ],
      "name": "postOp",
      "outputs": [],
      "stateMutability": "nonpayable",
      "type": "function"
    },
    {
      "inputs": [],
      "name": "renounceOwnership",
      "outputs": [],
      "stateMutability": "nonpayable",
      "type": "function"
    },
    {
      "inputs": [
        {
          "internalType": "address",
          "name": "user",
          "type": "address"
        },
        {
          "internalType": "uint256",
          "name": "limit",
          "type": "uint256"
        }
      ],
      "name": "setUserDailyLimit",
      "outputs": [],
      "stateMutability": "nonpayable",
      "type": "function"
    },
    {
      "inputs": [
        {
          "internalType": "address",
          "name": "_newSigner",
          "type": "address"
        }
      ],
      "name": "setVerifyingSigner",
      "outputs": [],
      "stateMutability": "nonpayable",
      "type": "function"
    },
    {
      "inputs": [
        {
          "internalType": "address",
          "name": "newOwner",
          "type": "address"
        }
      ],
      "name": "transferOwnership",
      "outputs": [],
      "stateMutability": "nonpayable",
      "type": "function"
    },
    {
      "inputs": [],
      "name": "unlockStake",
      "outputs": [],
      "stateMutability": "nonpayable",
      "type": "function"
    },
    {
      "inputs": [
        {
          "internalType": "address",
          "name": "",
          "type": "address"
        }
      ],
      "name": "userPolicies",
      "outputs": [
        {
          "internalType": "uint256",
          "name": "dailyLimit",
          "type": "uint256"
        },
        {
          "internalType": "uint256",
          "name": "usedToday",
          "type": "uint256"
        },
        {
          "internalType": "uint256",
          "name": "lastReset",
          "type": "uint256"
        }
      ],
      "stateMutability": "view",
      "type": "function"
    },
    {
      "inputs": [
        {
          "components": [
            {
              "internalType": "address",
              "name": "sender",
              "type": "address"
            },
            {
              "internalType": "uint256",
              "name": "nonce",
              "type": "uint256"
            },
            {
              "internalType": "bytes",
              "name": "initCode",
              "type": "bytes"
            },
            {
              "internalType": "bytes",
              "name": "callData",
              "type": "bytes"
            },
            {
              "internalType": "uint256",
              "name": "callGasLimit",
              "type": "uint256"
            },
            {
              "internalType": "uint256",
              "name": "verificationGasLimit",
              "type": "uint256"
            },
            {
              "internalType": "uint256",
              "name": "preVerificationGas",
              "type": "uint256"
            },
            {
              "internalType": "uint256",
              "name": "maxFeePerGas",
              "type": "uint256"
            },
            {
              "internalType": "uint256",
              "name": "maxPriorityFeePerGas",
              "type": "uint256"
            },
            {
              "internalType": "bytes",
              "name": "paymasterAndData",
              "type": "bytes"
            },
            {
              "internalType": "bytes",
              "name": "signature",
              "type": "bytes"
            }
          ],
          "internalType": "struct UserOperation",
          "name": "userOp",
          "type": "tuple"
        },
        {
          "internalType": "bytes32",
          "name": "userOpHash",
          "type": "bytes32"
        },
        {
          "internalType": "uint256",
          "name": "maxCost",
          "type": "uint256"
        }
      ],
      "name": "validatePaymasterUserOp",
      "outputs": [
        {
          "internalType": "bytes",
          "name": "context",
          "type": "bytes"
        },
        {
          "internalType": "uint256",
          "name": "validationData",
          "type": "uint256"
        }
      ],
      "stateMutability": "nonpayable",
      "type": "function"
    },
    {
      "inputs": [],
      "name": "verifyingSigner",
      "outputs": [
        {
          "internalType": "address",
          "name": "",
          "type": "address"
        }
      ],
      "stateMutability": "view",
      "type": "function"
    },
    {
      "inputs": [
        {
          "internalType": "address payable",
          "name": "withdrawAddress",
          "type": "address"
        }
      ],
      "name": "withdrawStake",
      "outputs": [],
      "stateMutability": "nonpayable",
      "type": "function"
    },
    {
      "inputs": [
        {
          "internalType": "address payable",
          "name": "withdrawAddress",
          "type": "address"
        },
        {
          "internalType": "uint256",
          "name": "amount",
          "type": "uint256"
        }
      ],
      "name": "withdrawTo",
      "outputs": [],
      "stateMutability": "nonpayable",
      "type": "function"
    },
    {
      "stateMutability": "payable",
      "type": "receive"
    }
  ],
  "bytecode": "0x60a06040523480156200001157600080fd5b506040516200153938038062001539833981016040819052620000349162000138565b816200004033620000cf565b6001600160a01b039081166080528116620000a15760405162461bcd60e51b815260206004820152601d60248201527f5369676e65722063616e6e6f74206265207a65726f2061646472657373000000604482015260640160405180910390fd5b600180546001600160a01b0319166001600160a01b038316179055620000c733620000cf565b505062000177565b600080546001600160a01b038381166001600160a01b0319831681178455604051919092169283917f8be0079c531659141344cd1fd0a4f28419497f9722a3daafe3b4186f6b6457e09190a35050565b6001600160a01b03811681146200013557600080fd5b50565b600080604083850312156200014c57600080fd5b825162000159816200011f565b60208401519092506200016c816200011f565b809150509250929050565b60805161136e620001cb6000396000818161012e0152818161036201528181610466015281816105210152818161059d01528181610631015281816106a8015281816107350152610993015261136e6000f3fe60806040526004361061010d5760003560e01c8063aecbdfd711610095578063c399ec8811610064578063c399ec88146103b9578063d0e30db0146103ce578063f2fde38b146103d6578063f465c77e146103f6578063f5cba98c1461042457600080fd5b8063aecbdfd714610334578063b0d691fe14610350578063bb9fe6bf14610384578063c23a5cea1461039957600080fd5b806323d9ac9b116100dc57806323d9ac9b14610253578063715018a61461028b57806387a22944146102a05780638da5cb5b146102f6578063a9a234091461031457600080fd5b80630396cb60146101d7578063177c49a7146101ea5780631d61c2f61461020a578063205c28781461023357600080fd5b366101d25734156101d0576040513060248201526000906001600160a01b037f00000000000000000000000000000000000000000000000000000000000000001690349060440160408051601f198184030181529181526020820180516001600160e01b031663b760faf960e01b179052516101899190611097565b60006040518083038185875af1925050503d80600081146101c6576040519150601f19603f3d011682016040523d82523d6000602084013e6101cb565b606091505b505050505b005b600080fd5b6101d06101e53660046110b3565b610444565b3480156101f657600080fd5b506101d06102053660046110f5565b6104cf565b34801561021657600080fd5b5061022061012c81565b6040519081526020015b60405180910390f35b34801561023f57600080fd5b506101d061024e3660046110f5565b6104f3565b34801561025f57600080fd5b50600154610273906001600160a01b031681565b6040516001600160a01b03909116815260200161022a565b34801561029757600080fd5b506101d0610565565b3480156102ac57600080fd5b506102db6102bb366004611121565b600260208190526000918252604090912080546001820154919092015483565b6040805193845260208401929092529082015260600161022a565b34801561030257600080fd5b506000546001600160a01b0316610273565b34801561032057600080fd5b506101d061032f36600461113e565b610579565b34801561034057600080fd5b506102206706f05b59d3b2000081565b34801561035c57600080fd5b506102737f000000000000000000000000000000000000000000000000000000000000000081565b34801561039057600080fd5b506101d0610593565b3480156103a557600080fd5b506101d06103b4366004611121565b61060a565b3480156103c557600080fd5b50610220610690565b6101d0610720565b3480156103e257600080fd5b506101d06103f1366004611121565b610782565b34801561040257600080fd5b506104166104113660046111cd565b610800565b60405161022a929190611221565b34801561043057600080fd5b506101d061043f366004611121565b610824565b61044c6108de565b604051621cb65b60e51b815263ffffffff821660048201527f00000000000000000000000000000000000000000000000000000000000000006001600160a01b031690630396cb609034906024016000604051808303818588803b1580156104b357600080fd5b505af11580156104c7573d6000803e3d6000fd5b505050505050565b6104d76108de565b6001600160a01b03909116600090815260026020526040902055565b6104fb6108de565b60405163040b850f60e31b81526001600160a01b038381166004830152602482018390527f0000000000000000000000000000000000000000000000000000000000000000169063205c287890604401600060405180830381600087803b1580156104b357600080fd5b61056d6108de565b6105776000610938565b565b610581610988565b61058d848484846109f8565b50505050565b61059b6108de565b7f00000000000000000000000000000000000000000000000000000000000000006001600160a01b031663bb9fe6bf6040518163ffffffff1660e01b8152600401600060405180830381600087803b1580156105f657600080fd5b505af115801561058d573d6000803e3d6000fd5b6106126108de565b60405163611d2e7560e11b81526001600160a01b0382811660048301527f0000000000000000000000000000000000000000000000000000000000000000169063c23a5cea90602401600060405180830381600087803b15801561067557600080fd5b505af1158015610689573d6000803e3d6000fd5b5050505050565b6040516370a0823160e01b81523060048201526000907f00000000000000000000000000000000000000000000000000000000000000006001600160a01b0316906370a0823190602401602060405180830381865afa1580156106f7573d6000803e3d6000fd5b505050506040513d601f19601f8201168201806040525081019061071b919061125c565b905090565b60405163b760faf960e01b81523060048201527f00000000000000000000000000000000000000000000000000000000000000006001600160a01b03169063b760faf99034906024016000604051808303818588803b15801561067557600080fd5b61078a6108de565b6001600160a01b0381166107f45760405162461bcd60e51b815260206004820152602660248201527f4f776e61626c653a206e6577206f776e657220697320746865207a65726f206160448201526564647265737360d01b60648201526084015b60405180910390fd5b6107fd81610938565b50565b6060600061080c610988565b610817858585610a30565b915091505b935093915050565b61082c6108de565b6001600160a01b0381166108825760405162461bcd60e51b815260206004820152601d60248201527f5369676e65722063616e6e6f74206265207a65726f206164647265737300000060448201526064016107eb565b6001546040516001600160a01b038084169216907f37a521a2988207a9b869f3e24fa23ae892580f99064daf05fd27cf6c09fd1f2990600090a3600180546001600160a01b0319166001600160a01b0392909216919091179055565b6000546001600160a01b031633146105775760405162461bcd60e51b815260206004820181905260248201527f4f776e61626c653a2063616c6c6572206973206e6f7420746865206f776e657260448201526064016107eb565b600080546001600160a01b038381166001600160a01b0319831681178455604051919092169283917f8be0079c531659141344cd1fd0a4f28419497f9722a3daafe3b4186f6b6457e09190a35050565b336001600160a01b037f000000000000000000000000000000000000000000000000000000000000000016146105775760405162461bcd60e51b815260206004820152601560248201527414d95b99195c881b9bdd08115b9d1c9e541bda5b9d605a1b60448201526064016107eb565b60405162461bcd60e51b815260206004820152600d60248201526c6d757374206f7665727269646560981b60448201526064016107eb565b6060600064746a5288008560e001351115610a825760405162461bcd60e51b815260206004820152601260248201527108ec2e640e0e4d2c6ca40e8dede40d0d2ced60731b60448201526064016107eb565b6055610a92610120870187611275565b90501015610abf57610aa76001600080610c47565b6040805160208101909152600081529250905061081c565b6000610ace6020870187611121565b9050610ada8185610c7f565b366000610aeb610120890189611275565b6041610afb6101208c018c611275565b610b069291506112d2565b610b119282906112e5565b6040805160208082018c905246828401523060608084019190915283518084039091018152608090920190925280519101207f19457468657265756d205369676e6564204d6573736167653a0a3332000000006000908152601c829052603c81209395509193509190506000610bbf85858080601f0160208091040260200160405190810160405280939291908181526020018383808284376000920191909152508693925050610d979050565b6001549091506001600160a01b03808316911614610c0457610be46001600080610c47565b60405180602001604052806000815250909750975050505050505061081c565b610c1a610c1460208d018d611121565b8a610dbd565b610c276000806000610c47565b6040805160208101909152600081529c909b509950505050505050505050565b600060d08265ffffffffffff16901b60a08465ffffffffffff16901b85610c6f576000610c72565b60015b60ff161717949350505050565b6001600160a01b0382166000908152600260208181526040808420815160608101835281548082526001830154948201949094529301549083015290919015610cc9578151610cd3565b6706f05b59d3b200005b9050816040015162015180610ce8919061130f565b421115610d3e5780831115610d395760405162461bcd60e51b8152602060048201526017602482015276115e18d959591cc819185a5b1e4819d85cc81b1a5b5a5d604a1b60448201526064016107eb565b61058d565b80838360200151610d4f919061130f565b111561058d5760405162461bcd60e51b8152602060048201526017602482015276115e18d959591cc819185a5b1e4819d85cc81b1a5b5a5d604a1b60448201526064016107eb565b6000806000610da68585610e20565b91509150610db381610e65565b5090505b92915050565b6001600160a01b038216600090815260026020819052604090912090810154610de9906201518061130f565b421115610e025760018101829055426002820155505050565b81816001016000828254610e16919061130f565b9091555050505050565b6000808251604103610e565760208301516040840151606085015160001a610e4a87828585610faf565b94509450505050610e5e565b506000905060025b9250929050565b6000816004811115610e7957610e79611322565b03610e815750565b6001816004811115610e9557610e95611322565b03610ee25760405162461bcd60e51b815260206004820152601860248201527f45434453413a20696e76616c6964207369676e6174757265000000000000000060448201526064016107eb565b6002816004811115610ef657610ef6611322565b03610f435760405162461bcd60e51b815260206004820152601f60248201527f45434453413a20696e76616c6964207369676e6174757265206c656e6774680060448201526064016107eb565b6003816004811115610f5757610f57611322565b036107fd5760405162461bcd60e51b815260206004820152602260248201527f45434453413a20696e76616c6964207369676e6174757265202773272076616c604482015261756560f01b60648201526084016107eb565b6000807f7fffffffffffffffffffffffffffffff5d576e7357a4501ddfe92f46681b20a0831115610fe6575060009050600361106a565b6040805160008082526020820180845289905260ff881692820192909252606081018690526080810185905260019060a0016020604051602081039080840390855afa15801561103a573d6000803e3d6000fd5b5050604051601f1901519150506001600160a01b0381166110635760006001925092505061106a565b9150600090505b94509492505050565b60005b8381101561108e578181015183820152602001611076565b50506000910152565b600082516110a9818460208701611073565b9190910192915050565b6000602082840312156110c557600080fd5b813563ffffffff811681146110d957600080fd5b9392505050565b6001600160a01b03811681146107fd57600080fd5b6000806040838503121561110857600080fd5b8235611113816110e0565b946020939093013593505050565b60006020828403121561113357600080fd5b81356110d9816110e0565b6000806000806060858703121561115457600080fd5b84356003811061116357600080fd5b9350602085013567ffffffffffffffff8082111561118057600080fd5b818701915087601f83011261119457600080fd5b8135818111156111a357600080fd5b8860208285010111156111b557600080fd5b95986020929092019750949560400135945092505050565b6000806000606084860312156111e257600080fd5b833567ffffffffffffffff8111156111f957600080fd5b8401610160818703121561120c57600080fd5b95602085013595506040909401359392505050565b6040815260008351806040840152611240816060850160208801611073565b602083019390935250601f91909101601f191601606001919050565b60006020828403121561126e57600080fd5b5051919050565b6000808335601e1984360301811261128c57600080fd5b83018035915067ffffffffffffffff8211156112a757600080fd5b602001915036819003821315610e5e57600080fd5b634e487b7160e01b600052601160045260246000fd5b81810381811115610db757610db76112bc565b600080858511156112f557600080fd5b8386111561130257600080fd5b5050820193919092039150565b80820180821115610db757610db76112bc565b634e487b7160e01b600052602160045260246000fdfea26469706673582212200eebf8809692182a4d00cec6a0bf50994818ce90261797df9fdcf442f7e9209864736f6c63430008140033",
  "linkReferences": {},
  "deployedLinkReferences": {}
}