{
  "_format": "hh-sol-artifact-1",
  "contractName": "VCNPaymasterV2",
  "sourceName": "contracts/VCNPaymasterV2.sol",
  "abi": [
    {
      "inputs": [
        {
          "internalType": "contract IEntryPoint",
          "name": "_entryPoint",
          "type": "address"
        },
        {
          "internalType": "address",
          "name": "_verifyingSigner",
          "type": "address"
        }
      ],
      "stateMutability": "nonpayable",
      "type": "constructor"
    },
    {
      "anonymous": false,
      "inputs": [
        {
          "indexed": true,
          "internalType": "address",
          "name": "previousOwner",
          "type": "address"
        },
        {
          "indexed": true,
          "internalType": "address",
          "name": "newOwner",
          "type": "address"
        }
      ],
      "name": "OwnershipTransferred",
      "type": "event"
    },
    {
      "anonymous": false,
      "inputs": [
        {
          "indexed": true,
          "internalType": "address",
          "name": "signer",
          "type": "address"
        },
        {
          "indexed": false,
          "internalType": "bool",
          "name": "success",
          "type": "bool"
        }
      ],
      "name": "UserOpSignedBy",
      "type": "event"
    },
    {
      "anonymous": false,
      "inputs": [
        {
          "indexed": true,
          "internalType": "address",
          "name": "oldSigner",
          "type": "address"
        },
        {
          "indexed": true,
          "internalType": "address",
          "name": "newSigner",
          "type": "address"
        }
      ],
      "name": "VerifyingSignerChanged",
      "type": "event"
    },
    {
      "inputs": [],
      "name": "DEFAULT_DAILY_LIMIT",
      "outputs": [
        {
          "internalType": "uint256",
          "name": "",
          "type": "uint256"
        }
      ],
      "stateMutability": "view",
      "type": "function"
    },
    {
      "inputs": [],
      "name": "SIGNATURE_VALIDITY_WINDOW",
      "outputs": [
        {
          "internalType": "uint256",
          "name": "",
          "type": "uint256"
        }
      ],
      "stateMutability": "view",
      "type": "function"
    },
    {
      "inputs": [
        {
          "internalType": "uint32",
          "name": "unstakeDelaySec",
          "type": "uint32"
        }
      ],
      "name": "addStake",
      "outputs": [],
      "stateMutability": "payable",
      "type": "function"
    },
    {
      "inputs": [],
      "name": "deposit",
      "outputs": [],
      "stateMutability": "payable",
      "type": "function"
    },
    {
      "inputs": [],
      "name": "entryPoint",
      "outputs": [
        {
          "internalType": "contract IEntryPoint",
          "name": "",
          "type": "address"
        }
      ],
      "stateMutability": "view",
      "type": "function"
    },
    {
      "inputs": [],
      "name": "getDeposit",
      "outputs": [
        {
          "internalType": "uint256",
          "name": "",
          "type": "uint256"
        }
      ],
      "stateMutability": "view",
      "type": "function"
    },
    {
      "inputs": [
        {
          "components": [
            {
              "internalType": "address",
              "name": "sender",
              "type": "address"
            },
            {
              "internalType": "uint256",
              "name": "nonce",
              "type": "uint256"
            },
            {
              "internalType": "bytes",
              "name": "initCode",
              "type": "bytes"
            },
            {
              "internalType": "bytes",
              "name": "callData",
              "type": "bytes"
            },
            {
              "internalType": "uint256",
              "name": "callGasLimit",
              "type": "uint256"
            },
            {
              "internalType": "uint256",
              "name": "verificationGasLimit",
              "type": "uint256"
            },
            {
              "internalType": "uint256",
              "name": "preVerificationGas",
              "type": "uint256"
            },
            {
              "internalType": "uint256",
              "name": "maxFeePerGas",
              "type": "uint256"
            },
            {
              "internalType": "uint256",
              "name": "maxPriorityFeePerGas",
              "type": "uint256"
            },
            {
              "internalType": "bytes",
              "name": "paymasterAndData",
              "type": "bytes"
            },
            {
              "internalType": "bytes",
              "name": "signature",
              "type": "bytes"
            }
          ],
          "internalType": "struct UserOperation",
          "name": "userOp",
          "type": "tuple"
        },
        {
          "internalType": "uint48",
          "name": "validUntil",
          "type": "uint48"
        },
        {
          "internalType": "uint48",
          "name": "validAfter",
          "type": "uint48"
        }
      ],
      "name": "getHash",
      "outputs": [
        {
          "internalType": "bytes32",
          "name": "",
          "type": "bytes32"
        }
      ],
      "stateMutability": "view",
      "type": "function"
    },
    {
      "inputs": [],
      "name": "owner",
      "outputs": [
        {
          "internalType": "address",
          "name": "",
          "type": "address"
        }
      ],
      "stateMutability": "view",
      "type": "function"
    },
    {
      "inputs": [
        {
          "internalType": "enum IPaymaster.PostOpMode",
          "name": "mode",
          "type": "uint8"
        },
        {
          "internalType": "bytes",
          "name": "context",
          "type": "bytes"
        },
        {
          "internalType": "uint256",
          "name": "actualGasCost",
          "type": "uint256"
        }
      ],
      "name": "postOp",
      "outputs": [],
      "stateMutability": "nonpayable",
      "type": "function"
    },
    {
      "inputs": [],
      "name": "renounceOwnership",
      "outputs": [],
      "stateMutability": "nonpayable",
      "type": "function"
    },
    {
      "inputs": [
        {
          "internalType": "address",
          "name": "user",
          "type": "address"
        },
        {
          "internalType": "uint256",
          "name": "limit",
          "type": "uint256"
        }
      ],
      "name": "setUserDailyLimit",
      "outputs": [],
      "stateMutability": "nonpayable",
      "type": "function"
    },
    {
      "inputs": [
        {
          "internalType": "address",
          "name": "_newSigner",
          "type": "address"
        }
      ],
      "name": "setVerifyingSigner",
      "outputs": [],
      "stateMutability": "nonpayable",
      "type": "function"
    },
    {
      "inputs": [
        {
          "internalType": "address",
          "name": "newOwner",
          "type": "address"
        }
      ],
      "name": "transferOwnership",
      "outputs": [],
      "stateMutability": "nonpayable",
      "type": "function"
    },
    {
      "inputs": [],
      "name": "unlockStake",
      "outputs": [],
      "stateMutability": "nonpayable",
      "type": "function"
    },
    {
      "inputs": [
        {
          "internalType": "address",
          "name": "",
          "type": "address"
        }
      ],
      "name": "userPolicies",
      "outputs": [
        {
          "internalType": "uint256",
          "name": "dailyLimit",
          "type": "uint256"
        },
        {
          "internalType": "uint256",
          "name": "usedToday",
          "type": "uint256"
        },
        {
          "internalType": "uint256",
          "name": "lastReset",
          "type": "uint256"
        }
      ],
      "stateMutability": "view",
      "type": "function"
    },
    {
      "inputs": [
        {
          "components": [
            {
              "internalType": "address",
              "name": "sender",
              "type": "address"
            },
            {
              "internalType": "uint256",
              "name": "nonce",
              "type": "uint256"
            },
            {
              "internalType": "bytes",
              "name": "initCode",
              "type": "bytes"
            },
            {
              "internalType": "bytes",
              "name": "callData",
              "type": "bytes"
            },
            {
              "internalType": "uint256",
              "name": "callGasLimit",
              "type": "uint256"
            },
            {
              "internalType": "uint256",
              "name": "verificationGasLimit",
              "type": "uint256"
            },
            {
              "internalType": "uint256",
              "name": "preVerificationGas",
              "type": "uint256"
            },
            {
              "internalType": "uint256",
              "name": "maxFeePerGas",
              "type": "uint256"
            },
            {
              "internalType": "uint256",
              "name": "maxPriorityFeePerGas",
              "type": "uint256"
            },
            {
              "internalType": "bytes",
              "name": "paymasterAndData",
              "type": "bytes"
            },
            {
              "internalType": "bytes",
              "name": "signature",
              "type": "bytes"
            }
          ],
          "internalType": "struct UserOperation",
          "name": "userOp",
          "type": "tuple"
        },
        {
          "internalType": "bytes32",
          "name": "userOpHash",
          "type": "bytes32"
        },
        {
          "internalType": "uint256",
          "name": "maxCost",
          "type": "uint256"
        }
      ],
      "name": "validatePaymasterUserOp",
      "outputs": [
        {
          "internalType": "bytes",
          "name": "context",
          "type": "bytes"
        },
        {
          "internalType": "uint256",
          "name": "validationData",
          "type": "uint256"
        }
      ],
      "stateMutability": "nonpayable",
      "type": "function"
    },
    {
      "inputs": [],
      "name": "verifyingSigner",
      "outputs": [
        {
          "internalType": "address",
          "name": "",
          "type": "address"
        }
      ],
      "stateMutability": "view",
      "type": "function"
    },
    {
      "inputs": [
        {
          "internalType": "address payable",
          "name": "withdrawAddress",
          "type": "address"
        }
      ],
      "name": "withdrawStake",
      "outputs": [],
      "stateMutability": "nonpayable",
      "type": "function"
    },
    {
      "inputs": [
        {
          "internalType": "address payable",
          "name": "withdrawAddress",
          "type": "address"
        },
        {
          "internalType": "uint256",
          "name": "amount",
          "type": "uint256"
        }
      ],
      "name": "withdrawTo",
      "outputs": [],
      "stateMutability": "nonpayable",
      "type": "function"
    },
    {
      "stateMutability": "payable",
      "type": "receive"
    }
  ],
  "bytecode": "0x60a06040523480156200001157600080fd5b506040516200173338038062001733833981016040819052620000349162000138565b816200004033620000cf565b6001600160a01b039081166080528116620000a15760405162461bcd60e51b815260206004820152601d60248201527f5369676e65722063616e6e6f74206265207a65726f2061646472657373000000604482015260640160405180910390fd5b600180546001600160a01b0319166001600160a01b038316179055620000c733620000cf565b505062000177565b600080546001600160a01b038381166001600160a01b0319831681178455604051919092169283917f8be0079c531659141344cd1fd0a4f28419497f9722a3daafe3b4186f6b6457e09190a35050565b6001600160a01b03811681146200013557600080fd5b50565b600080604083850312156200014c57600080fd5b825162000159816200011f565b60208401519092506200016c816200011f565b809150509250929050565b608051611568620001cb600039600081816101390152818161038d015281816104910152818161054c015281816106cd01528181610761015281816107d8015281816108650152610ac301526115686000f3fe6080604052600436106101185760003560e01c8063a9a23409116100a0578063c399ec8811610064578063c399ec88146103e4578063d0e30db0146103f9578063f2fde38b14610401578063f465c77e14610421578063f5cba98c1461044f57600080fd5b8063a9a234091461033f578063aecbdfd71461035f578063b0d691fe1461037b578063bb9fe6bf146103af578063c23a5cea146103c457600080fd5b806323d9ac9b116100e757806323d9ac9b1461025e578063715018a61461029657806387a22944146102ab5780638da5cb5b1461030157806394e1fc191461031f57600080fd5b80630396cb60146101e2578063177c49a7146101f55780631d61c2f614610215578063205c28781461023e57600080fd5b366101dd5734156101db576040513060248201526000906001600160a01b037f00000000000000000000000000000000000000000000000000000000000000001690349060440160408051601f198184030181529181526020820180516001600160e01b031663b760faf960e01b1790525161019491906111e0565b60006040518083038185875af1925050503d80600081146101d1576040519150601f19603f3d011682016040523d82523d6000602084013e6101d6565b606091505b505050505b005b600080fd5b6101db6101f03660046111fc565b61046f565b34801561020157600080fd5b506101db61021036600461123e565b6104fa565b34801561022157600080fd5b5061022b61012c81565b6040519081526020015b60405180910390f35b34801561024a57600080fd5b506101db61025936600461123e565b61051e565b34801561026a57600080fd5b5060015461027e906001600160a01b031681565b6040516001600160a01b039091168152602001610235565b3480156102a257600080fd5b506101db610590565b3480156102b757600080fd5b506102e66102c636600461126a565b600260208190526000918252604090912080546001820154919092015483565b60408051938452602084019290925290820152606001610235565b34801561030d57600080fd5b506000546001600160a01b031661027e565b34801561032b57600080fd5b5061022b61033a3660046112bb565b6105a4565b34801561034b57600080fd5b506101db61035a366004611319565b6106a9565b34801561036b57600080fd5b5061022b6706f05b59d3b2000081565b34801561038757600080fd5b5061027e7f000000000000000000000000000000000000000000000000000000000000000081565b3480156103bb57600080fd5b506101db6106c3565b3480156103d057600080fd5b506101db6103df36600461126a565b61073a565b3480156103f057600080fd5b5061022b6107c0565b6101db610850565b34801561040d57600080fd5b506101db61041c36600461126a565b6108b2565b34801561042d57600080fd5b5061044161043c3660046113a8565b610930565b6040516102359291906113f6565b34801561045b57600080fd5b506101db61046a36600461126a565b610954565b610477610a0e565b604051621cb65b60e51b815263ffffffff821660048201527f00000000000000000000000000000000000000000000000000000000000000006001600160a01b031690630396cb609034906024016000604051808303818588803b1580156104de57600080fd5b505af11580156104f2573d6000803e3d6000fd5b505050505050565b610502610a0e565b6001600160a01b03909116600090815260026020526040902055565b610526610a0e565b60405163040b850f60e31b81526001600160a01b038381166004830152602482018390527f0000000000000000000000000000000000000000000000000000000000000000169063205c287890604401600060405180830381600087803b1580156104de57600080fd5b610598610a0e565b6105a26000610a68565b565b60006105b3602085018561126a565b60208501356105c56040870187611431565b6040516105d3929190611478565b6040519081900390206105e96060880188611431565b6040516105f7929190611478565b604080519182900382206001600160a01b03909516602083015281019290925260608201526080808201929092529085013560a08083019190915285013560c08083019190915285013560e08083019190915285013561010080830191909152850135610120820152466101408201523061016082015265ffffffffffff80851661018083015283166101a08201526101c0016040516020818303038152906040528051906020012090509392505050565b6106b1610ab8565b6106bd84848484610b28565b50505050565b6106cb610a0e565b7f00000000000000000000000000000000000000000000000000000000000000006001600160a01b031663bb9fe6bf6040518163ffffffff1660e01b8152600401600060405180830381600087803b15801561072657600080fd5b505af11580156106bd573d6000803e3d6000fd5b610742610a0e565b60405163611d2e7560e11b81526001600160a01b0382811660048301527f0000000000000000000000000000000000000000000000000000000000000000169063c23a5cea90602401600060405180830381600087803b1580156107a557600080fd5b505af11580156107b9573d6000803e3d6000fd5b5050505050565b6040516370a0823160e01b81523060048201526000907f00000000000000000000000000000000000000000000000000000000000000006001600160a01b0316906370a0823190602401602060405180830381865afa158015610827573d6000803e3d6000fd5b505050506040513d601f19601f8201168201806040525081019061084b9190611488565b905090565b60405163b760faf960e01b81523060048201527f00000000000000000000000000000000000000000000000000000000000000006001600160a01b03169063b760faf99034906024016000604051808303818588803b1580156107a557600080fd5b6108ba610a0e565b6001600160a01b0381166109245760405162461bcd60e51b815260206004820152602660248201527f4f776e61626c653a206e6577206f776e657220697320746865207a65726f206160448201526564647265737360d01b60648201526084015b60405180910390fd5b61092d81610a68565b50565b6060600061093c610ab8565b610947858585610b60565b915091505b935093915050565b61095c610a0e565b6001600160a01b0381166109b25760405162461bcd60e51b815260206004820152601d60248201527f5369676e65722063616e6e6f74206265207a65726f2061646472657373000000604482015260640161091b565b6001546040516001600160a01b038084169216907f37a521a2988207a9b869f3e24fa23ae892580f99064daf05fd27cf6c09fd1f2990600090a3600180546001600160a01b0319166001600160a01b0392909216919091179055565b6000546001600160a01b031633146105a25760405162461bcd60e51b815260206004820181905260248201527f4f776e61626c653a2063616c6c6572206973206e6f7420746865206f776e6572604482015260640161091b565b600080546001600160a01b038381166001600160a01b0319831681178455604051919092169283917f8be0079c531659141344cd1fd0a4f28419497f9722a3daafe3b4186f6b6457e09190a35050565b336001600160a01b037f000000000000000000000000000000000000000000000000000000000000000016146105a25760405162461bcd60e51b815260206004820152601560248201527414d95b99195c881b9bdd08115b9d1c9e541bda5b9d605a1b604482015260640161091b565b60405162461bcd60e51b815260206004820152600d60248201526c6d757374206f7665727269646560981b604482015260640161091b565b6060600064746a5288008560e001351115610bb25760405162461bcd60e51b815260206004820152601260248201527108ec2e640e0e4d2c6ca40e8dede40d0d2ced60731b604482015260640161091b565b610bc8610bc2602087018761126a565b84610d90565b6061610bd8610120870187611431565b90501015610c0557610bed6001600080610ea8565b6040805160208101909152600081529250905061094c565b6000803681610c186101208a018a611431565b610c2791601a916014916114a1565b610c30916114cb565b60d01c9350610c436101208a018a611431565b610c5291602091601a916114a1565b610c5b916114cb565b60d01c9250610c6e6101208a018a611431565b610c7c9160209082906114a1565b915091506000610c8d8a86866105a4565b7f19457468657265756d205369676e6564204d6573736167653a0a3332000000006000908152601c829052603c8120919250506000610d0485858080601f0160208091040260200160405190810160405280939291908181526020018383808284376000920191909152508693925050610ee09050565b6001546040516001600160a01b03838116921682148082529293507f94a588c8f9e20d98a0aed35823044b34dc43037b021beedab9e666a2546c5a2a9060200160405180910390a2610d62610d5c60208f018f61126a565b8c610f06565b610d6e60008989610ea8565b6040805160208101909152600081529e909d509b505050505050505050505050565b6001600160a01b0382166000908152600260208181526040808420815160608101835281548082526001830154948201949094529301549083015290919015610dda578151610de4565b6706f05b59d3b200005b9050816040015162015180610df991906114fb565b421115610e4f5780831115610e4a5760405162461bcd60e51b8152602060048201526017602482015276115e18d959591cc819185a5b1e4819d85cc81b1a5b5a5d604a1b604482015260640161091b565b6106bd565b80838360200151610e6091906114fb565b11156106bd5760405162461bcd60e51b8152602060048201526017602482015276115e18d959591cc819185a5b1e4819d85cc81b1a5b5a5d604a1b604482015260640161091b565b600060d08265ffffffffffff16901b60a08465ffffffffffff16901b85610ed0576000610ed3565b60015b60ff161717949350505050565b6000806000610eef8585610f69565b91509150610efc81610fae565b5090505b92915050565b6001600160a01b038216600090815260026020819052604090912090810154610f3290620151806114fb565b421115610f4b5760018101829055426002820155505050565b81816001016000828254610f5f91906114fb565b9091555050505050565b6000808251604103610f9f5760208301516040840151606085015160001a610f93878285856110f8565b94509450505050610fa7565b506000905060025b9250929050565b6000816004811115610fc257610fc261151c565b03610fca5750565b6001816004811115610fde57610fde61151c565b0361102b5760405162461bcd60e51b815260206004820152601860248201527f45434453413a20696e76616c6964207369676e61747572650000000000000000604482015260640161091b565b600281600481111561103f5761103f61151c565b0361108c5760405162461bcd60e51b815260206004820152601f60248201527f45434453413a20696e76616c6964207369676e6174757265206c656e67746800604482015260640161091b565b60038160048111156110a0576110a061151c565b0361092d5760405162461bcd60e51b815260206004820152602260248201527f45434453413a20696e76616c6964207369676e6174757265202773272076616c604482015261756560f01b606482015260840161091b565b6000807f7fffffffffffffffffffffffffffffff5d576e7357a4501ddfe92f46681b20a083111561112f57506000905060036111b3565b6040805160008082526020820180845289905260ff881692820192909252606081018690526080810185905260019060a0016020604051602081039080840390855afa158015611183573d6000803e3d6000fd5b5050604051601f1901519150506001600160a01b0381166111ac576000600192509250506111b3565b9150600090505b94509492505050565b60005b838110156111d75781810151838201526020016111bf565b50506000910152565b600082516111f28184602087016111bc565b9190910192915050565b60006020828403121561120e57600080fd5b813563ffffffff8116811461122257600080fd5b9392505050565b6001600160a01b038116811461092d57600080fd5b6000806040838503121561125157600080fd5b823561125c81611229565b946020939093013593505050565b60006020828403121561127c57600080fd5b813561122281611229565b6000610160828403121561129a57600080fd5b50919050565b803565ffffffffffff811681146112b657600080fd5b919050565b6000806000606084860312156112d057600080fd5b833567ffffffffffffffff8111156112e757600080fd5b6112f386828701611287565b935050611302602085016112a0565b9150611310604085016112a0565b90509250925092565b6000806000806060858703121561132f57600080fd5b84356003811061133e57600080fd5b9350602085013567ffffffffffffffff8082111561135b57600080fd5b818701915087601f83011261136f57600080fd5b81358181111561137e57600080fd5b88602082850101111561139057600080fd5b95986020929092019750949560400135945092505050565b6000806000606084860312156113bd57600080fd5b833567ffffffffffffffff8111156113d457600080fd5b6113e086828701611287565b9660208601359650604090950135949350505050565b60408152600083518060408401526114158160608501602088016111bc565b602083019390935250601f91909101601f191601606001919050565b6000808335601e1984360301811261144857600080fd5b83018035915067ffffffffffffffff82111561146357600080fd5b602001915036819003821315610fa757600080fd5b8183823760009101908152919050565b60006020828403121561149a57600080fd5b5051919050565b600080858511156114b157600080fd5b838611156114be57600080fd5b5050820193919092039150565b6001600160d01b031981358181169160068510156114f35780818660060360031b1b83161692505b505092915050565b80820180821115610f0057634e487b7160e01b600052601160045260246000fd5b634e487b7160e01b600052602160045260246000fdfea26469706673582212207d26945804746ae2ef87b926769a84df9df62b74a59b5fc948f889d11700346a64736f6c63430008140033",
  "linkReferences": {},
  "deployedLinkReferences": {}
}