{
  "_format": "hh-sol-artifact-1",
  "contractName": "VCNPaymasterV2",
  "sourceName": "contracts/VCNPaymasterV2.sol",
  "abi": [
    {
      "inputs": [
        {
          "internalType": "address",
          "name": "_tssSigner",
          "type": "address"
        }
      ],
      "stateMutability": "nonpayable",
      "type": "constructor"
    },
    {
      "anonymous": false,
      "inputs": [
        {
          "indexed": true,
          "internalType": "address",
          "name": "user",
          "type": "address"
        },
        {
          "indexed": true,
          "internalType": "bytes32",
          "name": "opHash",
          "type": "bytes32"
        },
        {
          "indexed": false,
          "internalType": "uint256",
          "name": "amount",
          "type": "uint256"
        }
      ],
      "name": "GasSponsored",
      "type": "event"
    },
    {
      "anonymous": false,
      "inputs": [
        {
          "indexed": true,
          "internalType": "address",
          "name": "previousOwner",
          "type": "address"
        },
        {
          "indexed": true,
          "internalType": "address",
          "name": "newOwner",
          "type": "address"
        }
      ],
      "name": "OwnershipTransferred",
      "type": "event"
    },
    {
      "anonymous": false,
      "inputs": [
        {
          "indexed": false,
          "internalType": "address",
          "name": "account",
          "type": "address"
        }
      ],
      "name": "Paused",
      "type": "event"
    },
    {
      "anonymous": false,
      "inputs": [
        {
          "indexed": false,
          "internalType": "address",
          "name": "account",
          "type": "address"
        }
      ],
      "name": "PauserAdded",
      "type": "event"
    },
    {
      "anonymous": false,
      "inputs": [
        {
          "indexed": false,
          "internalType": "address",
          "name": "account",
          "type": "address"
        }
      ],
      "name": "PauserRemoved",
      "type": "event"
    },
    {
      "anonymous": false,
      "inputs": [
        {
          "indexed": true,
          "internalType": "address",
          "name": "user",
          "type": "address"
        },
        {
          "indexed": false,
          "internalType": "uint256",
          "name": "limit",
          "type": "uint256"
        }
      ],
      "name": "PolicyUpdated",
      "type": "event"
    },
    {
      "anonymous": false,
      "inputs": [
        {
          "indexed": false,
          "internalType": "uint256",
          "name": "epoch",
          "type": "uint256"
        },
        {
          "indexed": false,
          "internalType": "address",
          "name": "newSigner",
          "type": "address"
        }
      ],
      "name": "TSSRotated",
      "type": "event"
    },
    {
      "anonymous": false,
      "inputs": [
        {
          "indexed": false,
          "internalType": "address",
          "name": "account",
          "type": "address"
        }
      ],
      "name": "Unpaused",
      "type": "event"
    },
    {
      "inputs": [],
      "name": "currentEpoch",
      "outputs": [
        {
          "internalType": "uint256",
          "name": "",
          "type": "uint256"
        }
      ],
      "stateMutability": "view",
      "type": "function"
    },
    {
      "inputs": [],
      "name": "owner",
      "outputs": [
        {
          "internalType": "address",
          "name": "",
          "type": "address"
        }
      ],
      "stateMutability": "view",
      "type": "function"
    },
    {
      "inputs": [],
      "name": "pause",
      "outputs": [],
      "stateMutability": "nonpayable",
      "type": "function"
    },
    {
      "inputs": [],
      "name": "paused",
      "outputs": [
        {
          "internalType": "bool",
          "name": "",
          "type": "bool"
        }
      ],
      "stateMutability": "view",
      "type": "function"
    },
    {
      "inputs": [
        {
          "internalType": "address",
          "name": "",
          "type": "address"
        }
      ],
      "name": "pausers",
      "outputs": [
        {
          "internalType": "bool",
          "name": "",
          "type": "bool"
        }
      ],
      "stateMutability": "view",
      "type": "function"
    },
    {
      "inputs": [
        {
          "internalType": "bytes32",
          "name": "",
          "type": "bytes32"
        }
      ],
      "name": "processedOps",
      "outputs": [
        {
          "internalType": "bool",
          "name": "",
          "type": "bool"
        }
      ],
      "stateMutability": "view",
      "type": "function"
    },
    {
      "inputs": [],
      "name": "renounceOwnership",
      "outputs": [],
      "stateMutability": "nonpayable",
      "type": "function"
    },
    {
      "inputs": [
        {
          "internalType": "address",
          "name": "_newSigner",
          "type": "address"
        }
      ],
      "name": "rotateTSSKey",
      "outputs": [],
      "stateMutability": "nonpayable",
      "type": "function"
    },
    {
      "inputs": [
        {
          "internalType": "address",
          "name": "account",
          "type": "address"
        },
        {
          "internalType": "bool",
          "name": "status",
          "type": "bool"
        }
      ],
      "name": "setPauser",
      "outputs": [],
      "stateMutability": "nonpayable",
      "type": "function"
    },
    {
      "inputs": [
        {
          "internalType": "address",
          "name": "_target",
          "type": "address"
        },
        {
          "internalType": "bool",
          "name": "_status",
          "type": "bool"
        }
      ],
      "name": "setTargetAllowlist",
      "outputs": [],
      "stateMutability": "nonpayable",
      "type": "function"
    },
    {
      "inputs": [
        {
          "internalType": "address",
          "name": "_user",
          "type": "address"
        },
        {
          "internalType": "uint256",
          "name": "_dailyLimit",
          "type": "uint256"
        }
      ],
      "name": "setUserPolicy",
      "outputs": [],
      "stateMutability": "nonpayable",
      "type": "function"
    },
    {
      "inputs": [
        {
          "internalType": "address",
          "name": "",
          "type": "address"
        }
      ],
      "name": "targetAllowlist",
      "outputs": [
        {
          "internalType": "bool",
          "name": "",
          "type": "bool"
        }
      ],
      "stateMutability": "view",
      "type": "function"
    },
    {
      "inputs": [
        {
          "internalType": "address",
          "name": "newOwner",
          "type": "address"
        }
      ],
      "name": "transferOwnership",
      "outputs": [],
      "stateMutability": "nonpayable",
      "type": "function"
    },
    {
      "inputs": [],
      "name": "tssSigner",
      "outputs": [
        {
          "internalType": "address",
          "name": "",
          "type": "address"
        }
      ],
      "stateMutability": "view",
      "type": "function"
    },
    {
      "inputs": [],
      "name": "unpause",
      "outputs": [],
      "stateMutability": "nonpayable",
      "type": "function"
    },
    {
      "inputs": [
        {
          "internalType": "address",
          "name": "",
          "type": "address"
        }
      ],
      "name": "userPolicies",
      "outputs": [
        {
          "internalType": "bool",
          "name": "allowed",
          "type": "bool"
        },
        {
          "internalType": "uint256",
          "name": "dailyLimit",
          "type": "uint256"
        },
        {
          "internalType": "uint256",
          "name": "usedToday",
          "type": "uint256"
        },
        {
          "internalType": "uint256",
          "name": "lastReset",
          "type": "uint256"
        }
      ],
      "stateMutability": "view",
      "type": "function"
    },
    {
      "inputs": [
        {
          "internalType": "bytes32",
          "name": "opHash",
          "type": "bytes32"
        },
        {
          "internalType": "address",
          "name": "user",
          "type": "address"
        },
        {
          "internalType": "address",
          "name": "target",
          "type": "address"
        },
        {
          "internalType": "uint256",
          "name": "amount",
          "type": "uint256"
        },
        {
          "internalType": "uint256",
          "name": "validUntil",
          "type": "uint256"
        },
        {
          "internalType": "bytes",
          "name": "signature",
          "type": "bytes"
        }
      ],
      "name": "validatePaymasterOp",
      "outputs": [],
      "stateMutability": "nonpayable",
      "type": "function"
    }
  ],
  "bytecode": "0x608060405234801561001057600080fd5b506040516111bd3803806111bd83398101604081905261002f9161011c565b61003833610072565b6000805460ff60a01b19169055600180546001600160a01b0319166001600160a01b03831617815560025561006c336100c2565b5061014c565b600080546001600160a01b038381166001600160a01b0319831681178455604051919092169283917f8be0079c531659141344cd1fd0a4f28419497f9722a3daafe3b4186f6b6457e09190a35050565b6001600160a01b038116600081815260066020908152604091829020805460ff1916600117905590519182527f6719d08c1888103bea251a4ed56406bd0c3e69723c8a1686e017e7bbe159b6f8910160405180910390a150565b60006020828403121561012e57600080fd5b81516001600160a01b038116811461014557600080fd5b9392505050565b6110628061015b6000396000f3fe608060405234801561001057600080fd5b506004361061010b5760003560e01c80638456cb59116100a25780638da5cb5b116100715780638da5cb5b14610251578063b25d6f5214610276578063d5e2cb3714610289578063f2fde38b1461029c578063f87cf42b146102af57600080fd5b80638456cb59146101c857806387a22944146101d057806389147f791461022b5780638c02d0111461023e57600080fd5b80637180c8ca116100de5780637180c8ca14610158578063766718081461016b57806378f84c3e1461018257806380f51c12146101a557600080fd5b806316813b36146101105780633f4ba83a146101255780635c975abb1461012d578063715018a614610150575b600080fd5b61012361011e366004610e82565b6102d2565b005b61012361058a565b600054600160a01b900460ff165b60405190151581526020015b60405180910390f35b61012361059c565b610123610166366004610f33565b6105ae565b61017460025481565b604051908152602001610147565b61013b610190366004610f6f565b60036020526000908152604090205460ff1681565b61013b6101b3366004610f6f565b60066020526000908152604090205460ff1681565b6101236105d2565b6102096101de366004610f6f565b600460205260009081526040902080546001820154600283015460039093015460ff90921692909184565b6040805194151585526020850193909352918301526060820152608001610147565b610123610239366004610f91565b610656565b61012361024c366004610f6f565b6106c5565b6000546001600160a01b03165b6040516001600160a01b039091168152602001610147565b610123610284366004610f33565b610789565b60015461025e906001600160a01b031681565b6101236102aa366004610f6f565b6107bc565b61013b6102bd366004610fbb565b60056020526000908152604090205460ff1681565b6102da610835565b824211156103235760405162461bcd60e51b815260206004820152601160248201527014da59db985d1d5c9948195e1c1a5c9959607a1b60448201526064015b60405180910390fd5b60008781526005602052604090205460ff16156103825760405162461bcd60e51b815260206004820152601b60248201527f4f7065726174696f6e20616c72656164792070726f6365737365640000000000604482015260640161031a565b6001600160a01b03851660009081526003602052604090205460ff166103df5760405162461bcd60e51b815260206004820152601260248201527115185c99d95d081b9bdd08185b1b1bddd95960721b604482015260640161031a565b6103e98685610882565b60025460408051602081018a90526bffffffffffffffffffffffff1960608a901b169181019190915260548101869052607481019190915246609482015260009061047a9060b401604051602081830303815290604052805190602001207f19457468657265756d205369676e6564204d6573736167653a0a3332000000006000908152601c91909152603c902090565b905060006104c084848080601f01602080910402602001604051908101604052809392919081815260200183838082843760009201919091525086939250506109559050565b6001549091506001600160a01b038083169116146105185760405162461bcd60e51b8152602060048201526015602482015274496e76616c696420545353207369676e617475726560581b604482015260640161031a565b6000898152600560205260409020805460ff1916600117905561053b888761097b565b88886001600160a01b03167f147c2743d2a4091996b92688d10a98c1aab610dda9d8546e3c666b32e6ec3e1a8860405161057791815260200190565b60405180910390a3505050505050505050565b6105926109dc565b61059a610a36565b565b6105a46109dc565b61059a6000610a8b565b6105b66109dc565b80156105c9576105c582610adb565b5050565b6105c582610b2f565b336105e56000546001600160a01b031690565b6001600160a01b0316148061060957503360009081526006602052604090205460ff165b61064e5760405162461bcd60e51b815260206004820152601660248201527521b0b63632b91034b9903737ba1030903830bab9b2b960511b604482015260640161031a565b61059a610b80565b61065e6109dc565b6001600160a01b03821660008181526004602052604090819020805460ff19166001908117825501839055517f6d69364a3d2877037e33cea027500f2c22234886348c83cca1207d145b52bb23906106b99084815260200190565b60405180910390a25050565b6106cd6109dc565b6001600160a01b0381166107115760405162461bcd60e51b815260206004820152600b60248201526a496e76616c6964206b657960a81b604482015260640161031a565b600180546001600160a01b0319166001600160a01b0383161790556002805490600061073c83610fea565b9091555050600254604080519182526001600160a01b03831660208301527fdea55030471ba1573428e3631e31b1964dc0cb2a5e1b92a36d2c7f70501fcfde91015b60405180910390a150565b6107916109dc565b6001600160a01b03919091166000908152600360205260409020805460ff1916911515919091179055565b6107c46109dc565b6001600160a01b0381166108295760405162461bcd60e51b815260206004820152602660248201527f4f776e61626c653a206e6577206f776e657220697320746865207a65726f206160448201526564647265737360d01b606482015260840161031a565b61083281610a8b565b50565b600054600160a01b900460ff161561059a5760405162461bcd60e51b815260206004820152601060248201526f14185d5cd8589b194e881c185d5cd95960821b604482015260640161031a565b6001600160a01b0382166000908152600460209081526040918290208251608081018452815460ff1615158152600182015492810192909252600281015492820192909252600390910154606082018190526108e19062015180611003565b4211156108ed57505050565b80602001518282604001516109029190611003565b11156109505760405162461bcd60e51b815260206004820152601860248201527f4461696c7920676173206c696d69742065786365656465640000000000000000604482015260640161031a565b505050565b60008060006109648585610bc3565b9150915061097181610c08565b5090505b92915050565b6001600160a01b038216600090815260046020526040902060038101546109a59062015180611003565b4211156109be5760028101829055426003820155505050565b818160020160008282546109d29190611003565b9091555050505050565b6000546001600160a01b0316331461059a5760405162461bcd60e51b815260206004820181905260248201527f4f776e61626c653a2063616c6c6572206973206e6f7420746865206f776e6572604482015260640161031a565b610a3e610d52565b6000805460ff60a01b191690557f5db9ee0a495bf2e6ff9c91a7834c1ba4fdd244a5e8aa4e537bd38aeae4b073aa335b6040516001600160a01b03909116815260200160405180910390a1565b600080546001600160a01b038381166001600160a01b0319831681178455604051919092169283917f8be0079c531659141344cd1fd0a4f28419497f9722a3daafe3b4186f6b6457e09190a35050565b6001600160a01b038116600081815260066020908152604091829020805460ff1916600117905590519182527f6719d08c1888103bea251a4ed56406bd0c3e69723c8a1686e017e7bbe159b6f8910161077e565b6001600160a01b038116600081815260066020908152604091829020805460ff1916905590519182527fcd265ebaf09df2871cc7bd4133404a235ba12eff2041bb89d9c714a2621c7c7e910161077e565b610b88610835565b6000805460ff60a01b1916600160a01b1790557f62e78cea01bee320cd4e420270b5ea74000d11b0c9f74754ebdbfc544b05a258610a6e3390565b6000808251604103610bf95760208301516040840151606085015160001a610bed87828585610da2565b94509450505050610c01565b506000905060025b9250929050565b6000816004811115610c1c57610c1c611016565b03610c245750565b6001816004811115610c3857610c38611016565b03610c855760405162461bcd60e51b815260206004820152601860248201527f45434453413a20696e76616c6964207369676e61747572650000000000000000604482015260640161031a565b6002816004811115610c9957610c99611016565b03610ce65760405162461bcd60e51b815260206004820152601f60248201527f45434453413a20696e76616c6964207369676e6174757265206c656e67746800604482015260640161031a565b6003816004811115610cfa57610cfa611016565b036108325760405162461bcd60e51b815260206004820152602260248201527f45434453413a20696e76616c6964207369676e6174757265202773272076616c604482015261756560f01b606482015260840161031a565b600054600160a01b900460ff1661059a5760405162461bcd60e51b815260206004820152601460248201527314185d5cd8589b194e881b9bdd081c185d5cd95960621b604482015260640161031a565b6000807f7fffffffffffffffffffffffffffffff5d576e7357a4501ddfe92f46681b20a0831115610dd95750600090506003610e5d565b6040805160008082526020820180845289905260ff881692820192909252606081018690526080810185905260019060a0016020604051602081039080840390855afa158015610e2d573d6000803e3d6000fd5b5050604051601f1901519150506001600160a01b038116610e5657600060019250925050610e5d565b9150600090505b94509492505050565b80356001600160a01b0381168114610e7d57600080fd5b919050565b600080600080600080600060c0888a031215610e9d57600080fd5b87359650610ead60208901610e66565b9550610ebb60408901610e66565b9450606088013593506080880135925060a088013567ffffffffffffffff80821115610ee657600080fd5b818a0191508a601f830112610efa57600080fd5b813581811115610f0957600080fd5b8b6020828501011115610f1b57600080fd5b60208301945080935050505092959891949750929550565b60008060408385031215610f4657600080fd5b610f4f83610e66565b915060208301358015158114610f6457600080fd5b809150509250929050565b600060208284031215610f8157600080fd5b610f8a82610e66565b9392505050565b60008060408385031215610fa457600080fd5b610fad83610e66565b946020939093013593505050565b600060208284031215610fcd57600080fd5b5035919050565b634e487b7160e01b600052601160045260246000fd5b600060018201610ffc57610ffc610fd4565b5060010190565b8082018082111561097557610975610fd4565b634e487b7160e01b600052602160045260246000fdfea2646970667358221220f09df67488b3b5f5860d36428186aa091fc3dbe5a48f5154a36639442349a02664736f6c63430008140033",
  "linkReferences": {},
  "deployedLinkReferences": {}
}