{
  "_format": "hh-sol-artifact-1",
  "contractName": "VCNPaymasterV2",
  "sourceName": "contracts/VCNPaymasterV2.sol",
  "abi": [
    {
      "inputs": [
        {
          "internalType": "contract IEntryPoint",
          "name": "_entryPoint",
          "type": "address"
        },
        {
          "internalType": "address",
          "name": "_verifyingSigner",
          "type": "address"
        }
      ],
      "stateMutability": "nonpayable",
      "type": "constructor"
    },
    {
      "anonymous": false,
      "inputs": [
        {
          "indexed": true,
          "internalType": "address",
          "name": "previousOwner",
          "type": "address"
        },
        {
          "indexed": true,
          "internalType": "address",
          "name": "newOwner",
          "type": "address"
        }
      ],
      "name": "OwnershipTransferred",
      "type": "event"
    },
    {
      "anonymous": false,
      "inputs": [
        {
          "indexed": true,
          "internalType": "address",
          "name": "signer",
          "type": "address"
        },
        {
          "indexed": false,
          "internalType": "bool",
          "name": "success",
          "type": "bool"
        }
      ],
      "name": "UserOpSignedBy",
      "type": "event"
    },
    {
      "anonymous": false,
      "inputs": [
        {
          "indexed": true,
          "internalType": "address",
          "name": "oldSigner",
          "type": "address"
        },
        {
          "indexed": true,
          "internalType": "address",
          "name": "newSigner",
          "type": "address"
        }
      ],
      "name": "VerifyingSignerChanged",
      "type": "event"
    },
    {
      "inputs": [],
      "name": "DEFAULT_DAILY_LIMIT",
      "outputs": [
        {
          "internalType": "uint256",
          "name": "",
          "type": "uint256"
        }
      ],
      "stateMutability": "view",
      "type": "function"
    },
    {
      "inputs": [],
      "name": "SIGNATURE_VALIDITY_WINDOW",
      "outputs": [
        {
          "internalType": "uint256",
          "name": "",
          "type": "uint256"
        }
      ],
      "stateMutability": "view",
      "type": "function"
    },
    {
      "inputs": [
        {
          "internalType": "uint32",
          "name": "unstakeDelaySec",
          "type": "uint32"
        }
      ],
      "name": "addStake",
      "outputs": [],
      "stateMutability": "payable",
      "type": "function"
    },
    {
      "inputs": [],
      "name": "deposit",
      "outputs": [],
      "stateMutability": "payable",
      "type": "function"
    },
    {
      "inputs": [],
      "name": "entryPoint",
      "outputs": [
        {
          "internalType": "contract IEntryPoint",
          "name": "",
          "type": "address"
        }
      ],
      "stateMutability": "view",
      "type": "function"
    },
    {
      "inputs": [
        {
          "internalType": "address",
          "name": "target",
          "type": "address"
        },
        {
          "internalType": "uint256",
          "name": "value",
          "type": "uint256"
        },
        {
          "internalType": "bytes",
          "name": "data",
          "type": "bytes"
        }
      ],
      "name": "execute",
      "outputs": [
        {
          "internalType": "bytes",
          "name": "",
          "type": "bytes"
        }
      ],
      "stateMutability": "nonpayable",
      "type": "function"
    },
    {
      "inputs": [],
      "name": "getDeposit",
      "outputs": [
        {
          "internalType": "uint256",
          "name": "",
          "type": "uint256"
        }
      ],
      "stateMutability": "view",
      "type": "function"
    },
    {
      "inputs": [
        {
          "components": [
            {
              "internalType": "address",
              "name": "sender",
              "type": "address"
            },
            {
              "internalType": "uint256",
              "name": "nonce",
              "type": "uint256"
            },
            {
              "internalType": "bytes",
              "name": "initCode",
              "type": "bytes"
            },
            {
              "internalType": "bytes",
              "name": "callData",
              "type": "bytes"
            },
            {
              "internalType": "uint256",
              "name": "callGasLimit",
              "type": "uint256"
            },
            {
              "internalType": "uint256",
              "name": "verificationGasLimit",
              "type": "uint256"
            },
            {
              "internalType": "uint256",
              "name": "preVerificationGas",
              "type": "uint256"
            },
            {
              "internalType": "uint256",
              "name": "maxFeePerGas",
              "type": "uint256"
            },
            {
              "internalType": "uint256",
              "name": "maxPriorityFeePerGas",
              "type": "uint256"
            },
            {
              "internalType": "bytes",
              "name": "paymasterAndData",
              "type": "bytes"
            },
            {
              "internalType": "bytes",
              "name": "signature",
              "type": "bytes"
            }
          ],
          "internalType": "struct UserOperation",
          "name": "userOp",
          "type": "tuple"
        },
        {
          "internalType": "uint48",
          "name": "validUntil",
          "type": "uint48"
        },
        {
          "internalType": "uint48",
          "name": "validAfter",
          "type": "uint48"
        }
      ],
      "name": "getHash",
      "outputs": [
        {
          "internalType": "bytes32",
          "name": "",
          "type": "bytes32"
        }
      ],
      "stateMutability": "view",
      "type": "function"
    },
    {
      "inputs": [],
      "name": "owner",
      "outputs": [
        {
          "internalType": "address",
          "name": "",
          "type": "address"
        }
      ],
      "stateMutability": "view",
      "type": "function"
    },
    {
      "inputs": [
        {
          "internalType": "enum IPaymaster.PostOpMode",
          "name": "mode",
          "type": "uint8"
        },
        {
          "internalType": "bytes",
          "name": "context",
          "type": "bytes"
        },
        {
          "internalType": "uint256",
          "name": "actualGasCost",
          "type": "uint256"
        }
      ],
      "name": "postOp",
      "outputs": [],
      "stateMutability": "nonpayable",
      "type": "function"
    },
    {
      "inputs": [],
      "name": "renounceOwnership",
      "outputs": [],
      "stateMutability": "nonpayable",
      "type": "function"
    },
    {
      "inputs": [
        {
          "internalType": "address",
          "name": "user",
          "type": "address"
        },
        {
          "internalType": "uint256",
          "name": "limit",
          "type": "uint256"
        }
      ],
      "name": "setUserDailyLimit",
      "outputs": [],
      "stateMutability": "nonpayable",
      "type": "function"
    },
    {
      "inputs": [
        {
          "internalType": "address",
          "name": "_newSigner",
          "type": "address"
        }
      ],
      "name": "setVerifyingSigner",
      "outputs": [],
      "stateMutability": "nonpayable",
      "type": "function"
    },
    {
      "inputs": [
        {
          "internalType": "address",
          "name": "newOwner",
          "type": "address"
        }
      ],
      "name": "transferOwnership",
      "outputs": [],
      "stateMutability": "nonpayable",
      "type": "function"
    },
    {
      "inputs": [],
      "name": "unlockStake",
      "outputs": [],
      "stateMutability": "nonpayable",
      "type": "function"
    },
    {
      "inputs": [
        {
          "internalType": "address",
          "name": "",
          "type": "address"
        }
      ],
      "name": "userPolicies",
      "outputs": [
        {
          "internalType": "uint256",
          "name": "dailyLimit",
          "type": "uint256"
        },
        {
          "internalType": "uint256",
          "name": "usedToday",
          "type": "uint256"
        },
        {
          "internalType": "uint256",
          "name": "lastReset",
          "type": "uint256"
        }
      ],
      "stateMutability": "view",
      "type": "function"
    },
    {
      "inputs": [
        {
          "components": [
            {
              "internalType": "address",
              "name": "sender",
              "type": "address"
            },
            {
              "internalType": "uint256",
              "name": "nonce",
              "type": "uint256"
            },
            {
              "internalType": "bytes",
              "name": "initCode",
              "type": "bytes"
            },
            {
              "internalType": "bytes",
              "name": "callData",
              "type": "bytes"
            },
            {
              "internalType": "uint256",
              "name": "callGasLimit",
              "type": "uint256"
            },
            {
              "internalType": "uint256",
              "name": "verificationGasLimit",
              "type": "uint256"
            },
            {
              "internalType": "uint256",
              "name": "preVerificationGas",
              "type": "uint256"
            },
            {
              "internalType": "uint256",
              "name": "maxFeePerGas",
              "type": "uint256"
            },
            {
              "internalType": "uint256",
              "name": "maxPriorityFeePerGas",
              "type": "uint256"
            },
            {
              "internalType": "bytes",
              "name": "paymasterAndData",
              "type": "bytes"
            },
            {
              "internalType": "bytes",
              "name": "signature",
              "type": "bytes"
            }
          ],
          "internalType": "struct UserOperation",
          "name": "userOp",
          "type": "tuple"
        },
        {
          "internalType": "bytes32",
          "name": "userOpHash",
          "type": "bytes32"
        },
        {
          "internalType": "uint256",
          "name": "maxCost",
          "type": "uint256"
        }
      ],
      "name": "validatePaymasterUserOp",
      "outputs": [
        {
          "internalType": "bytes",
          "name": "context",
          "type": "bytes"
        },
        {
          "internalType": "uint256",
          "name": "validationData",
          "type": "uint256"
        }
      ],
      "stateMutability": "nonpayable",
      "type": "function"
    },
    {
      "inputs": [],
      "name": "verifyingSigner",
      "outputs": [
        {
          "internalType": "address",
          "name": "",
          "type": "address"
        }
      ],
      "stateMutability": "view",
      "type": "function"
    },
    {
      "inputs": [
        {
          "internalType": "address payable",
          "name": "withdrawAddress",
          "type": "address"
        }
      ],
      "name": "withdrawStake",
      "outputs": [],
      "stateMutability": "nonpayable",
      "type": "function"
    },
    {
      "inputs": [
        {
          "internalType": "address payable",
          "name": "withdrawAddress",
          "type": "address"
        },
        {
          "internalType": "uint256",
          "name": "amount",
          "type": "uint256"
        }
      ],
      "name": "withdrawTo",
      "outputs": [],
      "stateMutability": "nonpayable",
      "type": "function"
    },
    {
      "stateMutability": "payable",
      "type": "receive"
    }
  ],
  "bytecode": "0x60a06040523480156200001157600080fd5b50604051620018e9380380620018e9833981016040819052620000349162000138565b816200004033620000cf565b6001600160a01b039081166080528116620000a15760405162461bcd60e51b815260206004820152601d60248201527f5369676e65722063616e6e6f74206265207a65726f2061646472657373000000604482015260640160405180910390fd5b600180546001600160a01b0319166001600160a01b038316179055620000c733620000cf565b505062000177565b600080546001600160a01b038381166001600160a01b0319831681178455604051919092169283917f8be0079c531659141344cd1fd0a4f28419497f9722a3daafe3b4186f6b6457e09190a35050565b6001600160a01b03811681146200013557600080fd5b50565b600080604083850312156200014c57600080fd5b825162000159816200011f565b60208401519092506200016c816200011f565b809150509250929050565b60805161171e620001cb6000396000818161014401528181610398015281816104c901528181610584015281816107f301528181610887015281816108fe0152818161098b0152610be4015261171e6000f3fe6080604052600436106101235760003560e01c8063aecbdfd7116100a0578063c399ec8811610064578063c399ec881461041c578063d0e30db014610431578063f2fde38b14610439578063f465c77e14610459578063f5cba98c1461048757600080fd5b8063aecbdfd71461036a578063b0d691fe14610386578063b61d27f6146103ba578063bb9fe6bf146103e7578063c23a5cea146103fc57600080fd5b8063715018a6116100e7578063715018a6146102a157806387a22944146102b65780638da5cb5b1461030c57806394e1fc191461032a578063a9a234091461034a57600080fd5b80630396cb60146101ed578063177c49a7146102005780631d61c2f614610220578063205c28781461024957806323d9ac9b1461026957600080fd5b366101e85734156101e6576040513060248201526000906001600160a01b037f00000000000000000000000000000000000000000000000000000000000000001690349060440160408051601f198184030181529181526020820180516001600160e01b031663b760faf960e01b1790525161019f9190611301565b60006040518083038185875af1925050503d80600081146101dc576040519150601f19603f3d011682016040523d82523d6000602084013e6101e1565b606091505b505050505b005b600080fd5b6101e66101fb36600461131d565b6104a7565b34801561020c57600080fd5b506101e661021b36600461135f565b610532565b34801561022c57600080fd5b5061023661012c81565b6040519081526020015b60405180910390f35b34801561025557600080fd5b506101e661026436600461135f565b610556565b34801561027557600080fd5b50600154610289906001600160a01b031681565b6040516001600160a01b039091168152602001610240565b3480156102ad57600080fd5b506101e66105c8565b3480156102c257600080fd5b506102f16102d136600461138b565b600260208190526000918252604090912080546001820154919092015483565b60408051938452602084019290925290820152606001610240565b34801561031857600080fd5b506000546001600160a01b0316610289565b34801561033657600080fd5b506102366103453660046113dc565b6105dc565b34801561035657600080fd5b506101e661036536600461147c565b6106e1565b34801561037657600080fd5b506102366706f05b59d3b2000081565b34801561039257600080fd5b506102897f000000000000000000000000000000000000000000000000000000000000000081565b3480156103c657600080fd5b506103da6103d53660046114dc565b6106fb565b6040516102409190611564565b3480156103f357600080fd5b506101e66107e9565b34801561040857600080fd5b506101e661041736600461138b565b610860565b34801561042857600080fd5b506102366108e6565b6101e6610976565b34801561044557600080fd5b506101e661045436600461138b565b6109d8565b34801561046557600080fd5b50610479610474366004611577565b610a51565b6040516102409291906115c5565b34801561049357600080fd5b506101e66104a236600461138b565b610a75565b6104af610b2f565b604051621cb65b60e51b815263ffffffff821660048201527f00000000000000000000000000000000000000000000000000000000000000006001600160a01b031690630396cb609034906024016000604051808303818588803b15801561051657600080fd5b505af115801561052a573d6000803e3d6000fd5b505050505050565b61053a610b2f565b6001600160a01b03909116600090815260026020526040902055565b61055e610b2f565b60405163040b850f60e31b81526001600160a01b038381166004830152602482018390527f0000000000000000000000000000000000000000000000000000000000000000169063205c287890604401600060405180830381600087803b15801561051657600080fd5b6105d0610b2f565b6105da6000610b89565b565b60006105eb602085018561138b565b60208501356105fd60408701876115e7565b60405161060b92919061162e565b60405190819003902061062160608801886115e7565b60405161062f92919061162e565b604080519182900382206001600160a01b03909516602083015281019290925260608201526080808201929092529085013560a08083019190915285013560c08083019190915285013560e08083019190915285013561010080830191909152850135610120820152466101408201523061016082015265ffffffffffff80851661018083015283166101a08201526101c0016040516020818303038152906040528051906020012090509392505050565b6106e9610bd9565b6106f584848484610c49565b50505050565b6060610705610b2f565b600080866001600160a01b031686868660405161072392919061162e565b60006040518083038185875af1925050503d8060008114610760576040519150601f19603f3d011682016040523d82523d6000602084013e610765565b606091505b5091509150816107df5780511561077f5780518082602001fd5b60405162461bcd60e51b815260206004820152602a60248201527f536d61727452656c617965723a2063616c6c207265766572746564207769746860448201526937baba103932b0b9b7b760b11b60648201526084015b60405180910390fd5b9695505050505050565b6107f1610b2f565b7f00000000000000000000000000000000000000000000000000000000000000006001600160a01b031663bb9fe6bf6040518163ffffffff1660e01b8152600401600060405180830381600087803b15801561084c57600080fd5b505af11580156106f5573d6000803e3d6000fd5b610868610b2f565b60405163611d2e7560e11b81526001600160a01b0382811660048301527f0000000000000000000000000000000000000000000000000000000000000000169063c23a5cea90602401600060405180830381600087803b1580156108cb57600080fd5b505af11580156108df573d6000803e3d6000fd5b5050505050565b6040516370a0823160e01b81523060048201526000907f00000000000000000000000000000000000000000000000000000000000000006001600160a01b0316906370a0823190602401602060405180830381865afa15801561094d573d6000803e3d6000fd5b505050506040513d601f19601f82011682018060405250810190610971919061163e565b905090565b60405163b760faf960e01b81523060048201527f00000000000000000000000000000000000000000000000000000000000000006001600160a01b03169063b760faf99034906024016000604051808303818588803b1580156108cb57600080fd5b6109e0610b2f565b6001600160a01b038116610a455760405162461bcd60e51b815260206004820152602660248201527f4f776e61626c653a206e6577206f776e657220697320746865207a65726f206160448201526564647265737360d01b60648201526084016107d6565b610a4e81610b89565b50565b60606000610a5d610bd9565b610a68858585610c81565b915091505b935093915050565b610a7d610b2f565b6001600160a01b038116610ad35760405162461bcd60e51b815260206004820152601d60248201527f5369676e65722063616e6e6f74206265207a65726f206164647265737300000060448201526064016107d6565b6001546040516001600160a01b038084169216907f37a521a2988207a9b869f3e24fa23ae892580f99064daf05fd27cf6c09fd1f2990600090a3600180546001600160a01b0319166001600160a01b0392909216919091179055565b6000546001600160a01b031633146105da5760405162461bcd60e51b815260206004820181905260248201527f4f776e61626c653a2063616c6c6572206973206e6f7420746865206f776e657260448201526064016107d6565b600080546001600160a01b038381166001600160a01b0319831681178455604051919092169283917f8be0079c531659141344cd1fd0a4f28419497f9722a3daafe3b4186f6b6457e09190a35050565b336001600160a01b037f000000000000000000000000000000000000000000000000000000000000000016146105da5760405162461bcd60e51b815260206004820152601560248201527414d95b99195c881b9bdd08115b9d1c9e541bda5b9d605a1b60448201526064016107d6565b60405162461bcd60e51b815260206004820152600d60248201526c6d757374206f7665727269646560981b60448201526064016107d6565b6060600064746a5288008560e001351115610cd35760405162461bcd60e51b815260206004820152601260248201527108ec2e640e0e4d2c6ca40e8dede40d0d2ced60731b60448201526064016107d6565b610ce9610ce3602087018761138b565b84610eb1565b6061610cf96101208701876115e7565b90501015610d2657610d0e6001600080610fc9565b60408051602081019091526000815292509050610a6d565b6000803681610d396101208a018a6115e7565b610d4891601a91601491611657565b610d5191611681565b60d01c9350610d646101208a018a6115e7565b610d7391602091601a91611657565b610d7c91611681565b60d01c9250610d8f6101208a018a6115e7565b610d9d916020908290611657565b915091506000610dae8a86866105dc565b7f19457468657265756d205369676e6564204d6573736167653a0a3332000000006000908152601c829052603c8120919250506000610e2585858080601f01602080910402602001604051908101604052809392919081815260200183838082843760009201919091525086939250506110019050565b6001546040516001600160a01b03838116921682148082529293507f94a588c8f9e20d98a0aed35823044b34dc43037b021beedab9e666a2546c5a2a9060200160405180910390a2610e83610e7d60208f018f61138b565b8c611027565b610e8f60008989610fc9565b6040805160208101909152600081529e909d509b505050505050505050505050565b6001600160a01b0382166000908152600260208181526040808420815160608101835281548082526001830154948201949094529301549083015290919015610efb578151610f05565b6706f05b59d3b200005b9050816040015162015180610f1a91906116b1565b421115610f705780831115610f6b5760405162461bcd60e51b8152602060048201526017602482015276115e18d959591cc819185a5b1e4819d85cc81b1a5b5a5d604a1b60448201526064016107d6565b6106f5565b80838360200151610f8191906116b1565b11156106f55760405162461bcd60e51b8152602060048201526017602482015276115e18d959591cc819185a5b1e4819d85cc81b1a5b5a5d604a1b60448201526064016107d6565b600060d08265ffffffffffff16901b60a08465ffffffffffff16901b85610ff1576000610ff4565b60015b60ff161717949350505050565b6000806000611010858561108a565b9150915061101d816110cf565b5090505b92915050565b6001600160a01b03821660009081526002602081905260409091209081015461105390620151806116b1565b42111561106c5760018101829055426002820155505050565b8181600101600082825461108091906116b1565b9091555050505050565b60008082516041036110c05760208301516040840151606085015160001a6110b487828585611219565b945094505050506110c8565b506000905060025b9250929050565b60008160048111156110e3576110e36116d2565b036110eb5750565b60018160048111156110ff576110ff6116d2565b0361114c5760405162461bcd60e51b815260206004820152601860248201527f45434453413a20696e76616c6964207369676e6174757265000000000000000060448201526064016107d6565b6002816004811115611160576111606116d2565b036111ad5760405162461bcd60e51b815260206004820152601f60248201527f45434453413a20696e76616c6964207369676e6174757265206c656e6774680060448201526064016107d6565b60038160048111156111c1576111c16116d2565b03610a4e5760405162461bcd60e51b815260206004820152602260248201527f45434453413a20696e76616c6964207369676e6174757265202773272076616c604482015261756560f01b60648201526084016107d6565b6000807f7fffffffffffffffffffffffffffffff5d576e7357a4501ddfe92f46681b20a083111561125057506000905060036112d4565b6040805160008082526020820180845289905260ff881692820192909252606081018690526080810185905260019060a0016020604051602081039080840390855afa1580156112a4573d6000803e3d6000fd5b5050604051601f1901519150506001600160a01b0381166112cd576000600192509250506112d4565b9150600090505b94509492505050565b60005b838110156112f85781810151838201526020016112e0565b50506000910152565b600082516113138184602087016112dd565b9190910192915050565b60006020828403121561132f57600080fd5b813563ffffffff8116811461134357600080fd5b9392505050565b6001600160a01b0381168114610a4e57600080fd5b6000806040838503121561137257600080fd5b823561137d8161134a565b946020939093013593505050565b60006020828403121561139d57600080fd5b81356113438161134a565b600061016082840312156113bb57600080fd5b50919050565b803565ffffffffffff811681146113d757600080fd5b919050565b6000806000606084860312156113f157600080fd5b833567ffffffffffffffff81111561140857600080fd5b611414868287016113a8565b935050611423602085016113c1565b9150611431604085016113c1565b90509250925092565b60008083601f84011261144c57600080fd5b50813567ffffffffffffffff81111561146457600080fd5b6020830191508360208285010111156110c857600080fd5b6000806000806060858703121561149257600080fd5b8435600381106114a157600080fd5b9350602085013567ffffffffffffffff8111156114bd57600080fd5b6114c98782880161143a565b9598909750949560400135949350505050565b600080600080606085870312156114f257600080fd5b84356114fd8161134a565b935060208501359250604085013567ffffffffffffffff81111561152057600080fd5b61152c8782880161143a565b95989497509550505050565b600081518084526115508160208601602086016112dd565b601f01601f19169290920160200192915050565b6020815260006113436020830184611538565b60008060006060848603121561158c57600080fd5b833567ffffffffffffffff8111156115a357600080fd5b6115af868287016113a8565b9660208601359650604090950135949350505050565b6040815260006115d86040830185611538565b90508260208301529392505050565b6000808335601e198436030181126115fe57600080fd5b83018035915067ffffffffffffffff82111561161957600080fd5b6020019150368190038213156110c857600080fd5b8183823760009101908152919050565b60006020828403121561165057600080fd5b5051919050565b6000808585111561166757600080fd5b8386111561167457600080fd5b5050820193919092039150565b6001600160d01b031981358181169160068510156116a95780818660060360031b1b83161692505b505092915050565b8082018082111561102157634e487b7160e01b600052601160045260246000fd5b634e487b7160e01b600052602160045260246000fdfea2646970667358221220cc93576ad6be8b2e2285aecd123f79d3aae7842f10f23451b740949bdd66ed8364736f6c63430008140033",
  "linkReferences": {},
  "deployedLinkReferences": {}
}