{
  "_format": "hh-sol-artifact-1",
  "contractName": "ChallengeManager",
  "sourceName": "contracts/interop/ChallengeManager.sol",
  "abi": [
    {
      "inputs": [
        {
          "internalType": "address",
          "name": "_messageInbox",
          "type": "address"
        }
      ],
      "stateMutability": "nonpayable",
      "type": "constructor"
    },
    {
      "anonymous": false,
      "inputs": [
        {
          "indexed": true,
          "internalType": "bytes32",
          "name": "challengeId",
          "type": "bytes32"
        },
        {
          "indexed": false,
          "internalType": "enum ChallengeManager.ChallengeStatus",
          "name": "status",
          "type": "uint8"
        },
        {
          "indexed": false,
          "internalType": "string",
          "name": "resolution",
          "type": "string"
        }
      ],
      "name": "ChallengeResolved",
      "type": "event"
    },
    {
      "anonymous": false,
      "inputs": [
        {
          "indexed": true,
          "internalType": "bytes32",
          "name": "challengeId",
          "type": "bytes32"
        },
        {
          "indexed": true,
          "internalType": "bytes32",
          "name": "messageHash",
          "type": "bytes32"
        },
        {
          "indexed": false,
          "internalType": "enum ChallengeManager.ChallengeType",
          "name": "challengeType",
          "type": "uint8"
        },
        {
          "indexed": true,
          "internalType": "address",
          "name": "challenger",
          "type": "address"
        }
      ],
      "name": "ChallengeSubmitted",
      "type": "event"
    },
    {
      "anonymous": false,
      "inputs": [
        {
          "indexed": true,
          "internalType": "address",
          "name": "challenger",
          "type": "address"
        },
        {
          "indexed": false,
          "internalType": "uint256",
          "name": "amount",
          "type": "uint256"
        }
      ],
      "name": "DepositReceived",
      "type": "event"
    },
    {
      "anonymous": false,
      "inputs": [
        {
          "indexed": true,
          "internalType": "address",
          "name": "challenger",
          "type": "address"
        },
        {
          "indexed": false,
          "internalType": "uint256",
          "name": "amount",
          "type": "uint256"
        }
      ],
      "name": "DepositWithdrawn",
      "type": "event"
    },
    {
      "anonymous": false,
      "inputs": [
        {
          "indexed": true,
          "internalType": "address",
          "name": "challenger",
          "type": "address"
        },
        {
          "indexed": false,
          "internalType": "uint256",
          "name": "amount",
          "type": "uint256"
        }
      ],
      "name": "RewardPaid",
      "type": "event"
    },
    {
      "anonymous": false,
      "inputs": [
        {
          "indexed": true,
          "internalType": "bytes32",
          "name": "role",
          "type": "bytes32"
        },
        {
          "indexed": true,
          "internalType": "bytes32",
          "name": "previousAdminRole",
          "type": "bytes32"
        },
        {
          "indexed": true,
          "internalType": "bytes32",
          "name": "newAdminRole",
          "type": "bytes32"
        }
      ],
      "name": "RoleAdminChanged",
      "type": "event"
    },
    {
      "anonymous": false,
      "inputs": [
        {
          "indexed": true,
          "internalType": "bytes32",
          "name": "role",
          "type": "bytes32"
        },
        {
          "indexed": true,
          "internalType": "address",
          "name": "account",
          "type": "address"
        },
        {
          "indexed": true,
          "internalType": "address",
          "name": "sender",
          "type": "address"
        }
      ],
      "name": "RoleGranted",
      "type": "event"
    },
    {
      "anonymous": false,
      "inputs": [
        {
          "indexed": true,
          "internalType": "bytes32",
          "name": "role",
          "type": "bytes32"
        },
        {
          "indexed": true,
          "internalType": "address",
          "name": "account",
          "type": "address"
        },
        {
          "indexed": true,
          "internalType": "address",
          "name": "sender",
          "type": "address"
        }
      ],
      "name": "RoleRevoked",
      "type": "event"
    },
    {
      "anonymous": false,
      "inputs": [
        {
          "indexed": true,
          "internalType": "address",
          "name": "validator",
          "type": "address"
        },
        {
          "indexed": true,
          "internalType": "address",
          "name": "challenger",
          "type": "address"
        },
        {
          "indexed": false,
          "internalType": "uint256",
          "name": "slashedAmount",
          "type": "uint256"
        }
      ],
      "name": "ValidatorSlashed",
      "type": "event"
    },
    {
      "inputs": [],
      "name": "CHALLENGER_ROLE",
      "outputs": [
        {
          "internalType": "bytes32",
          "name": "",
          "type": "bytes32"
        }
      ],
      "stateMutability": "view",
      "type": "function"
    },
    {
      "inputs": [],
      "name": "DEFAULT_ADMIN_ROLE",
      "outputs": [
        {
          "internalType": "bytes32",
          "name": "",
          "type": "bytes32"
        }
      ],
      "stateMutability": "view",
      "type": "function"
    },
    {
      "inputs": [],
      "name": "RESOLVER_ROLE",
      "outputs": [
        {
          "internalType": "bytes32",
          "name": "",
          "type": "bytes32"
        }
      ],
      "stateMutability": "view",
      "type": "function"
    },
    {
      "inputs": [],
      "name": "bridgeStaking",
      "outputs": [
        {
          "internalType": "contract BridgeStaking",
          "name": "",
          "type": "address"
        }
      ],
      "stateMutability": "view",
      "type": "function"
    },
    {
      "inputs": [],
      "name": "challengeDeposit",
      "outputs": [
        {
          "internalType": "uint256",
          "name": "",
          "type": "uint256"
        }
      ],
      "stateMutability": "view",
      "type": "function"
    },
    {
      "inputs": [],
      "name": "challengeRewardBps",
      "outputs": [
        {
          "internalType": "uint256",
          "name": "",
          "type": "uint256"
        }
      ],
      "stateMutability": "view",
      "type": "function"
    },
    {
      "inputs": [
        {
          "internalType": "bytes32",
          "name": "",
          "type": "bytes32"
        }
      ],
      "name": "challenges",
      "outputs": [
        {
          "internalType": "bytes32",
          "name": "messageHash",
          "type": "bytes32"
        },
        {
          "internalType": "enum ChallengeManager.ChallengeType",
          "name": "challengeType",
          "type": "uint8"
        },
        {
          "internalType": "address",
          "name": "challenger",
          "type": "address"
        },
        {
          "internalType": "bytes",
          "name": "evidence",
          "type": "bytes"
        },
        {
          "internalType": "uint256",
          "name": "submittedAt",
          "type": "uint256"
        },
        {
          "internalType": "enum ChallengeManager.ChallengeStatus",
          "name": "status",
          "type": "uint8"
        },
        {
          "internalType": "string",
          "name": "resolution",
          "type": "string"
        }
      ],
      "stateMutability": "view",
      "type": "function"
    },
    {
      "inputs": [],
      "name": "deposit",
      "outputs": [],
      "stateMutability": "payable",
      "type": "function"
    },
    {
      "inputs": [
        {
          "internalType": "address",
          "name": "",
          "type": "address"
        }
      ],
      "name": "deposits",
      "outputs": [
        {
          "internalType": "uint256",
          "name": "",
          "type": "uint256"
        }
      ],
      "stateMutability": "view",
      "type": "function"
    },
    {
      "inputs": [
        {
          "internalType": "bytes32",
          "name": "challengeId",
          "type": "bytes32"
        }
      ],
      "name": "getChallenge",
      "outputs": [
        {
          "components": [
            {
              "internalType": "bytes32",
              "name": "messageHash",
              "type": "bytes32"
            },
            {
              "internalType": "enum ChallengeManager.ChallengeType",
              "name": "challengeType",
              "type": "uint8"
            },
            {
              "internalType": "address",
              "name": "challenger",
              "type": "address"
            },
            {
              "internalType": "bytes",
              "name": "evidence",
              "type": "bytes"
            },
            {
              "internalType": "uint256",
              "name": "submittedAt",
              "type": "uint256"
            },
            {
              "internalType": "enum ChallengeManager.ChallengeStatus",
              "name": "status",
              "type": "uint8"
            },
            {
              "internalType": "string",
              "name": "resolution",
              "type": "string"
            }
          ],
          "internalType": "struct ChallengeManager.Challenge",
          "name": "",
          "type": "tuple"
        }
      ],
      "stateMutability": "view",
      "type": "function"
    },
    {
      "inputs": [
        {
          "internalType": "bytes32",
          "name": "messageHash",
          "type": "bytes32"
        }
      ],
      "name": "getChallengeCount",
      "outputs": [
        {
          "internalType": "uint256",
          "name": "",
          "type": "uint256"
        }
      ],
      "stateMutability": "view",
      "type": "function"
    },
    {
      "inputs": [
        {
          "internalType": "bytes32",
          "name": "messageHash",
          "type": "bytes32"
        }
      ],
      "name": "getMessageChallenges",
      "outputs": [
        {
          "internalType": "bytes32[]",
          "name": "",
          "type": "bytes32[]"
        }
      ],
      "stateMutability": "view",
      "type": "function"
    },
    {
      "inputs": [
        {
          "internalType": "bytes32",
          "name": "role",
          "type": "bytes32"
        }
      ],
      "name": "getRoleAdmin",
      "outputs": [
        {
          "internalType": "bytes32",
          "name": "",
          "type": "bytes32"
        }
      ],
      "stateMutability": "view",
      "type": "function"
    },
    {
      "inputs": [
        {
          "internalType": "bytes32",
          "name": "role",
          "type": "bytes32"
        },
        {
          "internalType": "address",
          "name": "account",
          "type": "address"
        }
      ],
      "name": "grantRole",
      "outputs": [],
      "stateMutability": "nonpayable",
      "type": "function"
    },
    {
      "inputs": [
        {
          "internalType": "bytes32",
          "name": "role",
          "type": "bytes32"
        },
        {
          "internalType": "address",
          "name": "account",
          "type": "address"
        }
      ],
      "name": "hasRole",
      "outputs": [
        {
          "internalType": "bool",
          "name": "",
          "type": "bool"
        }
      ],
      "stateMutability": "view",
      "type": "function"
    },
    {
      "inputs": [
        {
          "internalType": "bytes32",
          "name": "",
          "type": "bytes32"
        },
        {
          "internalType": "uint256",
          "name": "",
          "type": "uint256"
        }
      ],
      "name": "messageChallenges",
      "outputs": [
        {
          "internalType": "bytes32",
          "name": "",
          "type": "bytes32"
        }
      ],
      "stateMutability": "view",
      "type": "function"
    },
    {
      "inputs": [],
      "name": "messageInbox",
      "outputs": [
        {
          "internalType": "contract MessageInbox",
          "name": "",
          "type": "address"
        }
      ],
      "stateMutability": "view",
      "type": "function"
    },
    {
      "inputs": [
        {
          "internalType": "bytes32",
          "name": "",
          "type": "bytes32"
        }
      ],
      "name": "messageValidators",
      "outputs": [
        {
          "internalType": "address",
          "name": "",
          "type": "address"
        }
      ],
      "stateMutability": "view",
      "type": "function"
    },
    {
      "inputs": [
        {
          "internalType": "bytes32",
          "name": "messageHash",
          "type": "bytes32"
        },
        {
          "internalType": "address",
          "name": "validator",
          "type": "address"
        }
      ],
      "name": "registerMessageValidator",
      "outputs": [],
      "stateMutability": "nonpayable",
      "type": "function"
    },
    {
      "inputs": [
        {
          "internalType": "bytes32",
          "name": "role",
          "type": "bytes32"
        },
        {
          "internalType": "address",
          "name": "account",
          "type": "address"
        }
      ],
      "name": "renounceRole",
      "outputs": [],
      "stateMutability": "nonpayable",
      "type": "function"
    },
    {
      "inputs": [
        {
          "internalType": "bytes32",
          "name": "challengeId",
          "type": "bytes32"
        },
        {
          "internalType": "bool",
          "name": "isValid",
          "type": "bool"
        },
        {
          "internalType": "string",
          "name": "resolution",
          "type": "string"
        }
      ],
      "name": "resolveChallenge",
      "outputs": [],
      "stateMutability": "nonpayable",
      "type": "function"
    },
    {
      "inputs": [
        {
          "internalType": "bytes32",
          "name": "role",
          "type": "bytes32"
        },
        {
          "internalType": "address",
          "name": "account",
          "type": "address"
        }
      ],
      "name": "revokeRole",
      "outputs": [],
      "stateMutability": "nonpayable",
      "type": "function"
    },
    {
      "inputs": [
        {
          "internalType": "address",
          "name": "_staking",
          "type": "address"
        }
      ],
      "name": "setBridgeStaking",
      "outputs": [],
      "stateMutability": "nonpayable",
      "type": "function"
    },
    {
      "inputs": [
        {
          "internalType": "uint256",
          "name": "_deposit",
          "type": "uint256"
        }
      ],
      "name": "setChallengeDeposit",
      "outputs": [],
      "stateMutability": "nonpayable",
      "type": "function"
    },
    {
      "inputs": [
        {
          "internalType": "uint256",
          "name": "_bps",
          "type": "uint256"
        }
      ],
      "name": "setChallengeRewardBps",
      "outputs": [],
      "stateMutability": "nonpayable",
      "type": "function"
    },
    {
      "inputs": [
        {
          "internalType": "address",
          "name": "_inbox",
          "type": "address"
        }
      ],
      "name": "setMessageInbox",
      "outputs": [],
      "stateMutability": "nonpayable",
      "type": "function"
    },
    {
      "inputs": [
        {
          "internalType": "bytes32",
          "name": "messageHash",
          "type": "bytes32"
        },
        {
          "internalType": "enum ChallengeManager.ChallengeType",
          "name": "challengeType",
          "type": "uint8"
        },
        {
          "internalType": "bytes",
          "name": "evidence",
          "type": "bytes"
        }
      ],
      "name": "submitChallenge",
      "outputs": [
        {
          "internalType": "bytes32",
          "name": "challengeId",
          "type": "bytes32"
        }
      ],
      "stateMutability": "nonpayable",
      "type": "function"
    },
    {
      "inputs": [
        {
          "internalType": "bytes4",
          "name": "interfaceId",
          "type": "bytes4"
        }
      ],
      "name": "supportsInterface",
      "outputs": [
        {
          "internalType": "bool",
          "name": "",
          "type": "bool"
        }
      ],
      "stateMutability": "view",
      "type": "function"
    },
    {
      "inputs": [
        {
          "internalType": "uint256",
          "name": "amount",
          "type": "uint256"
        }
      ],
      "name": "withdraw",
      "outputs": [],
      "stateMutability": "nonpayable",
      "type": "function"
    },
    {
      "inputs": [
        {
          "internalType": "address",
          "name": "to",
          "type": "address"
        },
        {
          "internalType": "uint256",
          "name": "amount",
          "type": "uint256"
        }
      ],
      "name": "withdrawTreasury",
      "outputs": [],
      "stateMutability": "nonpayable",
      "type": "function"
    },
    {
      "stateMutability": "payable",
      "type": "receive"
    }
  ],
  "bytecode": "0x6080604052662386f26fc10000600655610bb86008553480156200002257600080fd5b50604051620022e5380380620022e5833981016040819052620000459162000149565b6001805562000056600033620000a8565b620000827f92a19c77d2ea87c7f81d50c74403cb2f401780f3ad919571121efe2bdb427eb133620000a8565b600280546001600160a01b0319166001600160a01b03929092169190911790556200017b565b6000828152602081815260408083206001600160a01b038516845290915290205460ff1662000145576000828152602081815260408083206001600160a01b03851684529091529020805460ff19166001179055620001043390565b6001600160a01b0316816001600160a01b0316837f2f8788117e7eff1d82e926ec794901d17c78024a50270940304540a733656f0d60405160405180910390a45b5050565b6000602082840312156200015c57600080fd5b81516001600160a01b03811681146200017457600080fd5b9392505050565b61215a806200018b6000396000f3fe6080604052600436106101d15760003560e01c806378fab260116100f7578063c1e69b6611610095578063d547741f11610064578063d547741f146105ab578063f5c559f0146105cb578063f7f11cec146105eb578063fc7e286d1461060b57600080fd5b8063c1e69b661461053a578063c8ed3d0e1461056d578063cf1c63c31461058d578063d0e30db0146105a357600080fd5b8063965ef01b116100d1578063965ef01b146104c5578063a217fddf146104e5578063be6225e8146104fa578063c15b90a31461051a57600080fd5b806378fab2601461045157806379ed2b5b1461048557806391d14854146104a557600080fd5b806336568abe1161016f578063530adbb41161013e578063530adbb41461038f5780636a9cd6c1146103c357806371d18783146103fb57806376b58e871461041b57600080fd5b806336568abe146102f5578063390457e8146103155780633c6f181814610342578063458d2bf11461036257600080fd5b8063248a9ca3116101ab578063248a9ca3146102585780632e1a7d4d146102885780632f2ff15d146102a8578063301c8f58146102c857600080fd5b806301ffc9a7146101dd5780630d13fd7b146102125780630d86419a1461023657600080fd5b366101d857005b600080fd5b3480156101e957600080fd5b506101fd6101f83660046119b7565b610638565b60405190151581526020015b60405180910390f35b34801561021e57600080fd5b5061022860065481565b604051908152602001610209565b34801561024257600080fd5b506102566102513660046119fd565b61066f565b005b34801561026457600080fd5b50610228610273366004611a27565b60009081526020819052604090206001015490565b34801561029457600080fd5b506102566102a3366004611a27565b610762565b3480156102b457600080fd5b506102566102c3366004611a40565b6108b0565b3480156102d457600080fd5b506102e86102e3366004611a27565b6108da565b6040516102099190611a6c565b34801561030157600080fd5b50610256610310366004611a40565b61093c565b34801561032157600080fd5b50610228610330366004611a27565b60009081526005602052604090205490565b34801561034e57600080fd5b5061025661035d366004611a27565b6109ba565b34801561036e57600080fd5b5061038261037d366004611a27565b610a0b565b6040516102099190611b3a565b34801561039b57600080fd5b506102287fe752add323323eb13e36c71ee508dfd16d74e9e4c4fd78786ba97989e5e1381881565b3480156103cf57600080fd5b506003546103e3906001600160a01b031681565b6040516001600160a01b039091168152602001610209565b34801561040757600080fd5b50610228610416366004611bcc565b610c1f565b34801561042757600080fd5b506103e3610436366004611a27565b6009602052600090815260409020546001600160a01b031681565b34801561045d57600080fd5b506102287f92a19c77d2ea87c7f81d50c74403cb2f401780f3ad919571121efe2bdb427eb181565b34801561049157600080fd5b506102566104a0366004611a27565b610c50565b3480156104b157600080fd5b506101fd6104c0366004611a40565b610c61565b3480156104d157600080fd5b506002546103e3906001600160a01b031681565b3480156104f157600080fd5b50610228600081565b34801561050657600080fd5b50610256610515366004611bee565b610c8a565b34801561052657600080fd5b50610256610535366004611a40565b610cb8565b34801561054657600080fd5b5061055a610555366004611a27565b610d2d565b6040516102099796959493929190611c09565b34801561057957600080fd5b50610228610588366004611cbc565b610e90565b34801561059957600080fd5b5061022860085481565b6102566111f5565b3480156105b757600080fd5b506102566105c6366004611a40565b611250565b3480156105d757600080fd5b506102566105e6366004611bee565b611275565b3480156105f757600080fd5b50610256610606366004611d1c565b6112a3565b34801561061757600080fd5b50610228610626366004611bee565b60076020526000908152604090205481565b60006001600160e01b03198216637965db0b60e01b148061066957506301ffc9a760e01b6001600160e01b03198316145b92915050565b600061067a8161165d565b6001600160a01b0383166106c75760405162461bcd60e51b815260206004820152600f60248201526e496e76616c6964206164647265737360881b60448201526064015b60405180910390fd5b6000836001600160a01b03168360405160006040518083038185875af1925050503d8060008114610714576040519150601f19603f3d011682016040523d82523d6000602084013e610719565b606091505b505090508061075c5760405162461bcd60e51b815260206004820152600f60248201526e151c985b9cd9995c8819985a5b1959608a1b60448201526064016106be565b50505050565b61076a611667565b336000908152600760205260409020548111156107c05760405162461bcd60e51b8152602060048201526014602482015273125b9cdd59999a58da595b9d0819195c1bdcda5d60621b60448201526064016106be565b33600090815260076020526040812080548392906107df908490611d5f565b9091555050604051600090339083908381818185875af1925050503d8060008114610826576040519150601f19603f3d011682016040523d82523d6000602084013e61082b565b606091505b505090508061086e5760405162461bcd60e51b815260206004820152600f60248201526e151c985b9cd9995c8819985a5b1959608a1b60448201526064016106be565b60405182815233907f4482101800a5c2e900f4156e57e05e19ffd7b366cde579553d723fd3abb2180e9060200160405180910390a2506108ad60018055565b50565b6000828152602081905260409020600101546108cb8161165d565b6108d583836116c0565b505050565b60008181526005602090815260409182902080548351818402810184019094528084526060939283018282801561093057602002820191906000526020600020905b81548152602001906001019080831161091c575b50505050509050919050565b6001600160a01b03811633146109ac5760405162461bcd60e51b815260206004820152602f60248201527f416363657373436f6e74726f6c3a2063616e206f6e6c792072656e6f756e636560448201526e103937b632b9903337b91039b2b63360891b60648201526084016106be565b6109b68282611744565b5050565b60006109c58161165d565b612710821115610a055760405162461bcd60e51b815260206004820152600b60248201526a496e76616c69642062707360a81b60448201526064016106be565b50600855565b610a4a6040805160e081018252600080825260208201819052918101829052606080820152608081018290529060a08201908152602001606081525090565b600082815260046020908152604091829020825160e08101909352805483526001810154909183019060ff166005811115610a8757610a87611ab0565b6005811115610a9857610a98611ab0565b8152600182015461010090046001600160a01b03166020820152600282018054604090920191610ac790611d72565b80601f0160208091040260200160405190810160405280929190818152602001828054610af390611d72565b8015610b405780601f10610b1557610100808354040283529160200191610b40565b820191906000526020600020905b815481529060010190602001808311610b2357829003601f168201915b505050918352505060038201546020820152600482015460409091019060ff166002811115610b7157610b71611ab0565b6002811115610b8257610b82611ab0565b8152602001600582018054610b9690611d72565b80601f0160208091040260200160405190810160405280929190818152602001828054610bc290611d72565b8015610c0f5780601f10610be457610100808354040283529160200191610c0f565b820191906000526020600020905b815481529060010190602001808311610bf257829003601f168201915b5050505050815250509050919050565b60056020528160005260406000208181548110610c3b57600080fd5b90600052602060002001600091509150505481565b6000610c5b8161165d565b50600655565b6000918252602082815260408084206001600160a01b0393909316845291905290205460ff1690565b6000610c958161165d565b50600380546001600160a01b0319166001600160a01b0392909216919091179055565b6002546001600160a01b03163314610cff5760405162461bcd60e51b815260206004820152600a60248201526909edcd8f240d2dcc4def60b31b60448201526064016106be565b60009182526009602052604090912080546001600160a01b0319166001600160a01b03909216919091179055565b600460205260009081526040902080546001820154600283018054929360ff8316936101009093046001600160a01b031692909190610d6b90611d72565b80601f0160208091040260200160405190810160405280929190818152602001828054610d9790611d72565b8015610de45780601f10610db957610100808354040283529160200191610de4565b820191906000526020600020905b815481529060010190602001808311610dc757829003601f168201915b50505050600383015460048401546005850180549495929460ff909216935090610e0d90611d72565b80601f0160208091040260200160405190810160405280929190818152602001828054610e3990611d72565b8015610e865780601f10610e5b57610100808354040283529160200191610e86565b820191906000526020600020905b815481529060010190602001808311610e6957829003601f168201915b5050505050905087565b60007fe752add323323eb13e36c71ee508dfd16d74e9e4c4fd78786ba97989e5e13818610ebc8161165d565b610ec4611667565b600654336000908152600760205260409020541015610f1c5760405162461bcd60e51b8152602060048201526014602482015273125b9cdd59999a58da595b9d0819195c1bdcda5d60621b60448201526064016106be565b85853342604051602001610f339493929190611dac565b60408051601f1981840301815291815281516020928301206000818152600490935291206003015490925015610f9e5760405162461bcd60e51b815260206004820152601060248201526f4368616c6c656e67652065786973747360801b60448201526064016106be565b6040518060e00160405280878152602001866005811115610fc157610fc1611ab0565b8152602001336001600160a01b0316815260200185858080601f016020809104026020016040519081016040528093929190818152602001838380828437600092018290525093855250504260208401525060409091019081526040805160208181018352600080835293810191909152858352600481529120825181559082015160018083018054909160ff199091169083600581111561106557611065611ab0565b021790555060408201516001820180546001600160a01b0390921661010002610100600160a81b0319909216919091179055606082015160028201906110ab9082611e3f565b506080820151600382015560a082015160048201805460ff191660018360028111156110d9576110d9611ab0565b021790555060c082015160058201906110f29082611e3f565b505050600086815260056020908152604080832080546001810182559084528284200185905560065433845260079092528220805491929091611136908490611d5f565b9091555050600254604051632b68e9d960e21b815260048101889052602481018490526001600160a01b039091169063ada3a76490604401600060405180830381600087803b15801561118857600080fd5b505af115801561119c573d6000803e3d6000fd5b50505050336001600160a01b031686837f7a327d2043b72a934bc457f50e9e67ce17a8c54d2460f0c1285fbf27dea7acdf886040516111db9190611eff565b60405180910390a46111ec60018055565b50949350505050565b3360009081526007602052604081208054349290611214908490611f0d565b909155505060405134815233907f9936746a4565f9766fa768f88f56a7487c78780ac179562773d1c75c5269537e9060200160405180910390a2565b60008281526020819052604090206001015461126b8161165d565b6108d58383611744565b60006112808161165d565b50600280546001600160a01b0319166001600160a01b0392909216919091179055565b7f92a19c77d2ea87c7f81d50c74403cb2f401780f3ad919571121efe2bdb427eb16112cd8161165d565b6112d5611667565b600085815260046020526040812090600482015460ff1660028111156112fd576112fd611ab0565b1461133d5760405162461bcd60e51b815260206004820152601060248201526f105b1c9958591e481c995cdbdb1d995960821b60448201526064016106be565b84156115e7576004818101805460ff19166001179055600254825460405163d0556bd760e01b8152928301526001600160a01b03169063d0556bd790602401600060405180830381600087803b15801561139657600080fd5b505af11580156113aa573d6000803e3d6000fd5b5050505060006127106008546006546113c39190611f20565b6113cd9190611f37565b90506000816006546113df9190611f0d565b60018401546040519192506000916101009091046001600160a01b03169083908381818185875af1925050503d8060008114611437576040519150601f19603f3d011682016040523d82523d6000602084013e61143c565b606091505b50509050806114865760405162461bcd60e51b815260206004820152601660248201527514995dd85c99081d1c985b9cd9995c8819985a5b195960521b60448201526064016106be565b60018401546040518381526101009091046001600160a01b0316907fe2403640ba68fed3a2f88b7557551d1993f84b99bb10ff833f0cf8db0c5e04869060200160405180910390a283546000908152600960205260409020546001600160a01b0316801580159061150157506003546001600160a01b031615155b156115de576003546001860154604051637aeccce960e01b81526001600160a01b038481166004830152610100909204821660248201526000929190911690637aeccce9906044016020604051808303816000875af1158015611568573d6000803e3d6000fd5b505050506040513d601f19601f8201168201806040525081019061158c9190611f59565b60018701546040518281529192506001600160a01b03610100909104811691908416907f6c6f87171ccdd4f0f7d6c1a0c543d6eb923914876823d2f8e01fe0988a235ac09060200160405180910390a3505b505050506115f7565b60048101805460ff191660021790555b60058101611606848683611f72565b50600481015460405187917f7cb6652a39bce3e6e95c0a2da25b32591925ed5f35357d187cbd376a805f9eb7916116449160ff169088908890612032565b60405180910390a25061165660018055565b5050505050565b6108ad81336117a9565b6002600154036116b95760405162461bcd60e51b815260206004820152601f60248201527f5265656e7472616e637947756172643a207265656e7472616e742063616c6c0060448201526064016106be565b6002600155565b6116ca8282610c61565b6109b6576000828152602081815260408083206001600160a01b03851684529091529020805460ff191660011790556117003390565b6001600160a01b0316816001600160a01b0316837f2f8788117e7eff1d82e926ec794901d17c78024a50270940304540a733656f0d60405160405180910390a45050565b61174e8282610c61565b156109b6576000828152602081815260408083206001600160a01b0385168085529252808320805460ff1916905551339285917ff6391f5c32d9c69d2a47ea670b442974b53935d1edc7fd64eb21e047a839171b9190a45050565b6117b38282610c61565b6109b6576117c081611802565b6117cb836020611814565b6040516020016117dc92919061206f565b60408051601f198184030181529082905262461bcd60e51b82526106be916004016120e4565b60606106696001600160a01b03831660145b60606000611823836002611f20565b61182e906002611f0d565b67ffffffffffffffff81111561184657611846611ddb565b6040519080825280601f01601f191660200182016040528015611870576020820181803683370190505b509050600360fc1b8160008151811061188b5761188b6120f7565b60200101906001600160f81b031916908160001a905350600f60fb1b816001815181106118ba576118ba6120f7565b60200101906001600160f81b031916908160001a90535060006118de846002611f20565b6118e9906001611f0d565b90505b6001811115611961576f181899199a1a9b1b9c1cb0b131b232b360811b85600f166010811061191d5761191d6120f7565b1a60f81b828281518110611933576119336120f7565b60200101906001600160f81b031916908160001a90535060049490941c9361195a8161210d565b90506118ec565b5083156119b05760405162461bcd60e51b815260206004820181905260248201527f537472696e67733a20686578206c656e67746820696e73756666696369656e7460448201526064016106be565b9392505050565b6000602082840312156119c957600080fd5b81356001600160e01b0319811681146119b057600080fd5b80356001600160a01b03811681146119f857600080fd5b919050565b60008060408385031215611a1057600080fd5b611a19836119e1565b946020939093013593505050565b600060208284031215611a3957600080fd5b5035919050565b60008060408385031215611a5357600080fd5b82359150611a63602084016119e1565b90509250929050565b6020808252825182820181905260009190848201906040850190845b81811015611aa457835183529284019291840191600101611a88565b50909695505050505050565b634e487b7160e01b600052602160045260246000fd5b60068110611ad657611ad6611ab0565b9052565b60005b83811015611af5578181015183820152602001611add565b50506000910152565b60008151808452611b16816020860160208601611ada565b601f01601f19169290920160200192915050565b60038110611ad657611ad6611ab0565b602081528151602082015260006020830151611b596040840182611ac6565b5060408301516001600160a01b031660608381019190915283015160e06080840152611b89610100840182611afe565b9050608084015160a084015260a0840151611ba760c0850182611b2a565b5060c0840151838203601f190160e0850152611bc38282611afe565b95945050505050565b60008060408385031215611bdf57600080fd5b50508035926020909101359150565b600060208284031215611c0057600080fd5b6119b0826119e1565b878152611c196020820188611ac6565b6001600160a01b038616604082015260e060608201819052600090611c4090830187611afe565b856080840152611c5360a0840186611b2a565b82810360c0840152611c658185611afe565b9a9950505050505050505050565b60008083601f840112611c8557600080fd5b50813567ffffffffffffffff811115611c9d57600080fd5b602083019150836020828501011115611cb557600080fd5b9250929050565b60008060008060608587031215611cd257600080fd5b84359350602085013560068110611ce857600080fd5b9250604085013567ffffffffffffffff811115611d0457600080fd5b611d1087828801611c73565b95989497509550505050565b60008060008060608587031215611d3257600080fd5b8435935060208501358015158114611ce857600080fd5b634e487b7160e01b600052601160045260246000fd5b8181038181111561066957610669611d49565b600181811c90821680611d8657607f821691505b602082108103611da657634e487b7160e01b600052602260045260246000fd5b50919050565b84815260808101611dc06020830186611ac6565b6001600160a01b039390931660408201526060015292915050565b634e487b7160e01b600052604160045260246000fd5b601f8211156108d557600081815260208120601f850160051c81016020861015611e185750805b601f850160051c820191505b81811015611e3757828155600101611e24565b505050505050565b815167ffffffffffffffff811115611e5957611e59611ddb565b611e6d81611e678454611d72565b84611df1565b602080601f831160018114611ea25760008415611e8a5750858301515b600019600386901b1c1916600185901b178555611e37565b600085815260208120601f198616915b82811015611ed157888601518255948401946001909101908401611eb2565b5085821015611eef5787850151600019600388901b60f8161c191681555b5050505050600190811b01905550565b602081016106698284611ac6565b8082018082111561066957610669611d49565b808202811582820484141761066957610669611d49565b600082611f5457634e487b7160e01b600052601260045260246000fd5b500490565b600060208284031215611f6b57600080fd5b5051919050565b67ffffffffffffffff831115611f8a57611f8a611ddb565b611f9e83611f988354611d72565b83611df1565b6000601f841160018114611fd25760008515611fba5750838201355b600019600387901b1c1916600186901b178355611656565b600083815260209020601f19861690835b828110156120035786850135825560209485019460019092019101611fe3565b50868210156120205760001960f88860031b161c19848701351681555b505060018560011b0183555050505050565b61203c8185611b2a565b60406020820152816040820152818360608301376000818301606090810191909152601f909201601f1916010192915050565b7f416363657373436f6e74726f6c3a206163636f756e74200000000000000000008152600083516120a7816017850160208801611ada565b7001034b99036b4b9b9b4b733903937b6329607d1b60179184019182015283516120d8816028840160208801611ada565b01602801949350505050565b6020815260006119b06020830184611afe565b634e487b7160e01b600052603260045260246000fd5b60008161211c5761211c611d49565b50600019019056fea26469706673582212202ccaa044cfa62655a539397cfd472eb01356c348df1918c43e0572912436056264736f6c63430008140033",
  "linkReferences": {},
  "deployedLinkReferences": {}
}