{
  "_format": "hh-sol-artifact-1",
  "contractName": "ChallengeManager",
  "sourceName": "contracts/interop/ChallengeManager.sol",
  "abi": [
    {
      "inputs": [
        {
          "internalType": "address",
          "name": "_messageInbox",
          "type": "address"
        }
      ],
      "stateMutability": "nonpayable",
      "type": "constructor"
    },
    {
      "anonymous": false,
      "inputs": [
        {
          "indexed": true,
          "internalType": "bytes32",
          "name": "challengeId",
          "type": "bytes32"
        },
        {
          "indexed": false,
          "internalType": "enum ChallengeManager.ChallengeStatus",
          "name": "status",
          "type": "uint8"
        },
        {
          "indexed": false,
          "internalType": "string",
          "name": "resolution",
          "type": "string"
        }
      ],
      "name": "ChallengeResolved",
      "type": "event"
    },
    {
      "anonymous": false,
      "inputs": [
        {
          "indexed": true,
          "internalType": "bytes32",
          "name": "challengeId",
          "type": "bytes32"
        },
        {
          "indexed": true,
          "internalType": "bytes32",
          "name": "messageHash",
          "type": "bytes32"
        },
        {
          "indexed": false,
          "internalType": "enum ChallengeManager.ChallengeType",
          "name": "challengeType",
          "type": "uint8"
        },
        {
          "indexed": true,
          "internalType": "address",
          "name": "challenger",
          "type": "address"
        }
      ],
      "name": "ChallengeSubmitted",
      "type": "event"
    },
    {
      "anonymous": false,
      "inputs": [
        {
          "indexed": true,
          "internalType": "address",
          "name": "challenger",
          "type": "address"
        },
        {
          "indexed": false,
          "internalType": "uint256",
          "name": "amount",
          "type": "uint256"
        }
      ],
      "name": "DepositReceived",
      "type": "event"
    },
    {
      "anonymous": false,
      "inputs": [
        {
          "indexed": true,
          "internalType": "address",
          "name": "challenger",
          "type": "address"
        },
        {
          "indexed": false,
          "internalType": "uint256",
          "name": "amount",
          "type": "uint256"
        }
      ],
      "name": "DepositWithdrawn",
      "type": "event"
    },
    {
      "anonymous": false,
      "inputs": [
        {
          "indexed": true,
          "internalType": "address",
          "name": "challenger",
          "type": "address"
        },
        {
          "indexed": false,
          "internalType": "uint256",
          "name": "amount",
          "type": "uint256"
        }
      ],
      "name": "RewardPaid",
      "type": "event"
    },
    {
      "anonymous": false,
      "inputs": [
        {
          "indexed": true,
          "internalType": "bytes32",
          "name": "role",
          "type": "bytes32"
        },
        {
          "indexed": true,
          "internalType": "bytes32",
          "name": "previousAdminRole",
          "type": "bytes32"
        },
        {
          "indexed": true,
          "internalType": "bytes32",
          "name": "newAdminRole",
          "type": "bytes32"
        }
      ],
      "name": "RoleAdminChanged",
      "type": "event"
    },
    {
      "anonymous": false,
      "inputs": [
        {
          "indexed": true,
          "internalType": "bytes32",
          "name": "role",
          "type": "bytes32"
        },
        {
          "indexed": true,
          "internalType": "address",
          "name": "account",
          "type": "address"
        },
        {
          "indexed": true,
          "internalType": "address",
          "name": "sender",
          "type": "address"
        }
      ],
      "name": "RoleGranted",
      "type": "event"
    },
    {
      "anonymous": false,
      "inputs": [
        {
          "indexed": true,
          "internalType": "bytes32",
          "name": "role",
          "type": "bytes32"
        },
        {
          "indexed": true,
          "internalType": "address",
          "name": "account",
          "type": "address"
        },
        {
          "indexed": true,
          "internalType": "address",
          "name": "sender",
          "type": "address"
        }
      ],
      "name": "RoleRevoked",
      "type": "event"
    },
    {
      "inputs": [],
      "name": "CHALLENGER_ROLE",
      "outputs": [
        {
          "internalType": "bytes32",
          "name": "",
          "type": "bytes32"
        }
      ],
      "stateMutability": "view",
      "type": "function"
    },
    {
      "inputs": [],
      "name": "DEFAULT_ADMIN_ROLE",
      "outputs": [
        {
          "internalType": "bytes32",
          "name": "",
          "type": "bytes32"
        }
      ],
      "stateMutability": "view",
      "type": "function"
    },
    {
      "inputs": [],
      "name": "RESOLVER_ROLE",
      "outputs": [
        {
          "internalType": "bytes32",
          "name": "",
          "type": "bytes32"
        }
      ],
      "stateMutability": "view",
      "type": "function"
    },
    {
      "inputs": [],
      "name": "challengeDeposit",
      "outputs": [
        {
          "internalType": "uint256",
          "name": "",
          "type": "uint256"
        }
      ],
      "stateMutability": "view",
      "type": "function"
    },
    {
      "inputs": [],
      "name": "challengeRewardBps",
      "outputs": [
        {
          "internalType": "uint256",
          "name": "",
          "type": "uint256"
        }
      ],
      "stateMutability": "view",
      "type": "function"
    },
    {
      "inputs": [
        {
          "internalType": "bytes32",
          "name": "",
          "type": "bytes32"
        }
      ],
      "name": "challenges",
      "outputs": [
        {
          "internalType": "bytes32",
          "name": "messageHash",
          "type": "bytes32"
        },
        {
          "internalType": "enum ChallengeManager.ChallengeType",
          "name": "challengeType",
          "type": "uint8"
        },
        {
          "internalType": "address",
          "name": "challenger",
          "type": "address"
        },
        {
          "internalType": "bytes",
          "name": "evidence",
          "type": "bytes"
        },
        {
          "internalType": "uint256",
          "name": "submittedAt",
          "type": "uint256"
        },
        {
          "internalType": "enum ChallengeManager.ChallengeStatus",
          "name": "status",
          "type": "uint8"
        },
        {
          "internalType": "string",
          "name": "resolution",
          "type": "string"
        }
      ],
      "stateMutability": "view",
      "type": "function"
    },
    {
      "inputs": [],
      "name": "deposit",
      "outputs": [],
      "stateMutability": "payable",
      "type": "function"
    },
    {
      "inputs": [
        {
          "internalType": "address",
          "name": "",
          "type": "address"
        }
      ],
      "name": "deposits",
      "outputs": [
        {
          "internalType": "uint256",
          "name": "",
          "type": "uint256"
        }
      ],
      "stateMutability": "view",
      "type": "function"
    },
    {
      "inputs": [
        {
          "internalType": "bytes32",
          "name": "challengeId",
          "type": "bytes32"
        }
      ],
      "name": "getChallenge",
      "outputs": [
        {
          "components": [
            {
              "internalType": "bytes32",
              "name": "messageHash",
              "type": "bytes32"
            },
            {
              "internalType": "enum ChallengeManager.ChallengeType",
              "name": "challengeType",
              "type": "uint8"
            },
            {
              "internalType": "address",
              "name": "challenger",
              "type": "address"
            },
            {
              "internalType": "bytes",
              "name": "evidence",
              "type": "bytes"
            },
            {
              "internalType": "uint256",
              "name": "submittedAt",
              "type": "uint256"
            },
            {
              "internalType": "enum ChallengeManager.ChallengeStatus",
              "name": "status",
              "type": "uint8"
            },
            {
              "internalType": "string",
              "name": "resolution",
              "type": "string"
            }
          ],
          "internalType": "struct ChallengeManager.Challenge",
          "name": "",
          "type": "tuple"
        }
      ],
      "stateMutability": "view",
      "type": "function"
    },
    {
      "inputs": [
        {
          "internalType": "bytes32",
          "name": "messageHash",
          "type": "bytes32"
        }
      ],
      "name": "getChallengeCount",
      "outputs": [
        {
          "internalType": "uint256",
          "name": "",
          "type": "uint256"
        }
      ],
      "stateMutability": "view",
      "type": "function"
    },
    {
      "inputs": [
        {
          "internalType": "bytes32",
          "name": "messageHash",
          "type": "bytes32"
        }
      ],
      "name": "getMessageChallenges",
      "outputs": [
        {
          "internalType": "bytes32[]",
          "name": "",
          "type": "bytes32[]"
        }
      ],
      "stateMutability": "view",
      "type": "function"
    },
    {
      "inputs": [
        {
          "internalType": "bytes32",
          "name": "role",
          "type": "bytes32"
        }
      ],
      "name": "getRoleAdmin",
      "outputs": [
        {
          "internalType": "bytes32",
          "name": "",
          "type": "bytes32"
        }
      ],
      "stateMutability": "view",
      "type": "function"
    },
    {
      "inputs": [
        {
          "internalType": "bytes32",
          "name": "role",
          "type": "bytes32"
        },
        {
          "internalType": "address",
          "name": "account",
          "type": "address"
        }
      ],
      "name": "grantRole",
      "outputs": [],
      "stateMutability": "nonpayable",
      "type": "function"
    },
    {
      "inputs": [
        {
          "internalType": "bytes32",
          "name": "role",
          "type": "bytes32"
        },
        {
          "internalType": "address",
          "name": "account",
          "type": "address"
        }
      ],
      "name": "hasRole",
      "outputs": [
        {
          "internalType": "bool",
          "name": "",
          "type": "bool"
        }
      ],
      "stateMutability": "view",
      "type": "function"
    },
    {
      "inputs": [
        {
          "internalType": "bytes32",
          "name": "",
          "type": "bytes32"
        },
        {
          "internalType": "uint256",
          "name": "",
          "type": "uint256"
        }
      ],
      "name": "messageChallenges",
      "outputs": [
        {
          "internalType": "bytes32",
          "name": "",
          "type": "bytes32"
        }
      ],
      "stateMutability": "view",
      "type": "function"
    },
    {
      "inputs": [],
      "name": "messageInbox",
      "outputs": [
        {
          "internalType": "contract MessageInbox",
          "name": "",
          "type": "address"
        }
      ],
      "stateMutability": "view",
      "type": "function"
    },
    {
      "inputs": [
        {
          "internalType": "bytes32",
          "name": "role",
          "type": "bytes32"
        },
        {
          "internalType": "address",
          "name": "account",
          "type": "address"
        }
      ],
      "name": "renounceRole",
      "outputs": [],
      "stateMutability": "nonpayable",
      "type": "function"
    },
    {
      "inputs": [
        {
          "internalType": "bytes32",
          "name": "challengeId",
          "type": "bytes32"
        },
        {
          "internalType": "bool",
          "name": "isValid",
          "type": "bool"
        },
        {
          "internalType": "string",
          "name": "resolution",
          "type": "string"
        }
      ],
      "name": "resolveChallenge",
      "outputs": [],
      "stateMutability": "nonpayable",
      "type": "function"
    },
    {
      "inputs": [
        {
          "internalType": "bytes32",
          "name": "role",
          "type": "bytes32"
        },
        {
          "internalType": "address",
          "name": "account",
          "type": "address"
        }
      ],
      "name": "revokeRole",
      "outputs": [],
      "stateMutability": "nonpayable",
      "type": "function"
    },
    {
      "inputs": [
        {
          "internalType": "uint256",
          "name": "_deposit",
          "type": "uint256"
        }
      ],
      "name": "setChallengeDeposit",
      "outputs": [],
      "stateMutability": "nonpayable",
      "type": "function"
    },
    {
      "inputs": [
        {
          "internalType": "uint256",
          "name": "_bps",
          "type": "uint256"
        }
      ],
      "name": "setChallengeRewardBps",
      "outputs": [],
      "stateMutability": "nonpayable",
      "type": "function"
    },
    {
      "inputs": [
        {
          "internalType": "address",
          "name": "_inbox",
          "type": "address"
        }
      ],
      "name": "setMessageInbox",
      "outputs": [],
      "stateMutability": "nonpayable",
      "type": "function"
    },
    {
      "inputs": [
        {
          "internalType": "bytes32",
          "name": "messageHash",
          "type": "bytes32"
        },
        {
          "internalType": "enum ChallengeManager.ChallengeType",
          "name": "challengeType",
          "type": "uint8"
        },
        {
          "internalType": "bytes",
          "name": "evidence",
          "type": "bytes"
        }
      ],
      "name": "submitChallenge",
      "outputs": [
        {
          "internalType": "bytes32",
          "name": "challengeId",
          "type": "bytes32"
        }
      ],
      "stateMutability": "nonpayable",
      "type": "function"
    },
    {
      "inputs": [
        {
          "internalType": "bytes4",
          "name": "interfaceId",
          "type": "bytes4"
        }
      ],
      "name": "supportsInterface",
      "outputs": [
        {
          "internalType": "bool",
          "name": "",
          "type": "bool"
        }
      ],
      "stateMutability": "view",
      "type": "function"
    },
    {
      "inputs": [
        {
          "internalType": "uint256",
          "name": "amount",
          "type": "uint256"
        }
      ],
      "name": "withdraw",
      "outputs": [],
      "stateMutability": "nonpayable",
      "type": "function"
    },
    {
      "inputs": [
        {
          "internalType": "address",
          "name": "to",
          "type": "address"
        },
        {
          "internalType": "uint256",
          "name": "amount",
          "type": "uint256"
        }
      ],
      "name": "withdrawTreasury",
      "outputs": [],
      "stateMutability": "nonpayable",
      "type": "function"
    },
    {
      "stateMutability": "payable",
      "type": "receive"
    }
  ],
  "bytecode": "0x6080604052662386f26fc10000600555610bb86007553480156200002257600080fd5b506040516200203c3803806200203c833981016040819052620000459162000149565b6001805562000056600033620000a8565b620000827f92a19c77d2ea87c7f81d50c74403cb2f401780f3ad919571121efe2bdb427eb133620000a8565b600280546001600160a01b0319166001600160a01b03929092169190911790556200017b565b6000828152602081815260408083206001600160a01b038516845290915290205460ff1662000145576000828152602081815260408083206001600160a01b03851684529091529020805460ff19166001179055620001043390565b6001600160a01b0316816001600160a01b0316837f2f8788117e7eff1d82e926ec794901d17c78024a50270940304540a733656f0d60405160405180910390a45b5050565b6000602082840312156200015c57600080fd5b81516001600160a01b03811681146200017457600080fd5b9392505050565b611eb1806200018b6000396000f3fe6080604052600436106101855760003560e01c806378fab260116100d1578063c8ed3d0e1161008a578063d547741f11610064578063d547741f146104c9578063f5c559f0146104e9578063f7f11cec14610509578063fc7e286d1461052957600080fd5b8063c8ed3d0e1461048b578063cf1c63c3146104ab578063d0e30db0146104c157600080fd5b806378fab2601461039757806379ed2b5b146103cb57806391d14854146103eb578063965ef01b1461040b578063a217fddf14610443578063c1e69b661461045857600080fd5b8063301c8f581161013e5780633c6f1818116101185780633c6f1818146102f6578063458d2bf114610316578063530adbb41461034357806371d187831461037757600080fd5b8063301c8f581461027c57806336568abe146102a9578063390457e8146102c957600080fd5b806301ffc9a7146101915780630d13fd7b146101c65780630d86419a146101ea578063248a9ca31461020c5780632e1a7d4d1461023c5780632f2ff15d1461025c57600080fd5b3661018c57005b600080fd5b34801561019d57600080fd5b506101b16101ac366004611727565b610556565b60405190151581526020015b60405180910390f35b3480156101d257600080fd5b506101dc60055481565b6040519081526020016101bd565b3480156101f657600080fd5b5061020a61020536600461176d565b61058d565b005b34801561021857600080fd5b506101dc610227366004611797565b60009081526020819052604090206001015490565b34801561024857600080fd5b5061020a610257366004611797565b610680565b34801561026857600080fd5b5061020a6102773660046117b0565b6107ce565b34801561028857600080fd5b5061029c610297366004611797565b6107f8565b6040516101bd91906117dc565b3480156102b557600080fd5b5061020a6102c43660046117b0565b61085a565b3480156102d557600080fd5b506101dc6102e4366004611797565b60009081526004602052604090205490565b34801561030257600080fd5b5061020a610311366004611797565b6108d8565b34801561032257600080fd5b50610336610331366004611797565b610929565b6040516101bd91906118aa565b34801561034f57600080fd5b506101dc7fe752add323323eb13e36c71ee508dfd16d74e9e4c4fd78786ba97989e5e1381881565b34801561038357600080fd5b506101dc61039236600461193c565b610b3d565b3480156103a357600080fd5b506101dc7f92a19c77d2ea87c7f81d50c74403cb2f401780f3ad919571121efe2bdb427eb181565b3480156103d757600080fd5b5061020a6103e6366004611797565b610b6e565b3480156103f757600080fd5b506101b16104063660046117b0565b610b7f565b34801561041757600080fd5b5060025461042b906001600160a01b031681565b6040516001600160a01b0390911681526020016101bd565b34801561044f57600080fd5b506101dc600081565b34801561046457600080fd5b50610478610473366004611797565b610ba8565b6040516101bd979695949392919061195e565b34801561049757600080fd5b506101dc6104a6366004611a11565b610d0b565b3480156104b757600080fd5b506101dc60075481565b61020a611076565b3480156104d557600080fd5b5061020a6104e43660046117b0565b6110d1565b3480156104f557600080fd5b5061020a610504366004611a71565b6110f6565b34801561051557600080fd5b5061020a610524366004611a8c565b611124565b34801561053557600080fd5b506101dc610544366004611a71565b60066020526000908152604090205481565b60006001600160e01b03198216637965db0b60e01b148061058757506301ffc9a760e01b6001600160e01b03198316145b92915050565b6000610598816113cd565b6001600160a01b0383166105e55760405162461bcd60e51b815260206004820152600f60248201526e496e76616c6964206164647265737360881b60448201526064015b60405180910390fd5b6000836001600160a01b03168360405160006040518083038185875af1925050503d8060008114610632576040519150601f19603f3d011682016040523d82523d6000602084013e610637565b606091505b505090508061067a5760405162461bcd60e51b815260206004820152600f60248201526e151c985b9cd9995c8819985a5b1959608a1b60448201526064016105dc565b50505050565b6106886113d7565b336000908152600660205260409020548111156106de5760405162461bcd60e51b8152602060048201526014602482015273125b9cdd59999a58da595b9d0819195c1bdcda5d60621b60448201526064016105dc565b33600090815260066020526040812080548392906106fd908490611acf565b9091555050604051600090339083908381818185875af1925050503d8060008114610744576040519150601f19603f3d011682016040523d82523d6000602084013e610749565b606091505b505090508061078c5760405162461bcd60e51b815260206004820152600f60248201526e151c985b9cd9995c8819985a5b1959608a1b60448201526064016105dc565b60405182815233907f4482101800a5c2e900f4156e57e05e19ffd7b366cde579553d723fd3abb2180e9060200160405180910390a2506107cb60018055565b50565b6000828152602081905260409020600101546107e9816113cd565b6107f38383611430565b505050565b60008181526004602090815260409182902080548351818402810184019094528084526060939283018282801561084e57602002820191906000526020600020905b81548152602001906001019080831161083a575b50505050509050919050565b6001600160a01b03811633146108ca5760405162461bcd60e51b815260206004820152602f60248201527f416363657373436f6e74726f6c3a2063616e206f6e6c792072656e6f756e636560448201526e103937b632b9903337b91039b2b63360891b60648201526084016105dc565b6108d482826114b4565b5050565b60006108e3816113cd565b6127108211156109235760405162461bcd60e51b815260206004820152600b60248201526a496e76616c69642062707360a81b60448201526064016105dc565b50600755565b6109686040805160e081018252600080825260208201819052918101829052606080820152608081018290529060a08201908152602001606081525090565b600082815260036020908152604091829020825160e08101909352805483526001810154909183019060ff1660058111156109a5576109a5611820565b60058111156109b6576109b6611820565b8152600182015461010090046001600160a01b031660208201526002820180546040909201916109e590611ae2565b80601f0160208091040260200160405190810160405280929190818152602001828054610a1190611ae2565b8015610a5e5780601f10610a3357610100808354040283529160200191610a5e565b820191906000526020600020905b815481529060010190602001808311610a4157829003601f168201915b505050918352505060038201546020820152600482015460409091019060ff166002811115610a8f57610a8f611820565b6002811115610aa057610aa0611820565b8152602001600582018054610ab490611ae2565b80601f0160208091040260200160405190810160405280929190818152602001828054610ae090611ae2565b8015610b2d5780601f10610b0257610100808354040283529160200191610b2d565b820191906000526020600020905b815481529060010190602001808311610b1057829003601f168201915b5050505050815250509050919050565b60046020528160005260406000208181548110610b5957600080fd5b90600052602060002001600091509150505481565b6000610b79816113cd565b50600555565b6000918252602082815260408084206001600160a01b0393909316845291905290205460ff1690565b600360205260009081526040902080546001820154600283018054929360ff8316936101009093046001600160a01b031692909190610be690611ae2565b80601f0160208091040260200160405190810160405280929190818152602001828054610c1290611ae2565b8015610c5f5780601f10610c3457610100808354040283529160200191610c5f565b820191906000526020600020905b815481529060010190602001808311610c4257829003601f168201915b50505050600383015460048401546005850180549495929460ff909216935090610c8890611ae2565b80601f0160208091040260200160405190810160405280929190818152602001828054610cb490611ae2565b8015610d015780601f10610cd657610100808354040283529160200191610d01565b820191906000526020600020905b815481529060010190602001808311610ce457829003601f168201915b5050505050905087565b60007fe752add323323eb13e36c71ee508dfd16d74e9e4c4fd78786ba97989e5e13818610d37816113cd565b610d3f6113d7565b600554336000908152600660205260409020541015610d975760405162461bcd60e51b8152602060048201526014602482015273125b9cdd59999a58da595b9d0819195c1bdcda5d60621b60448201526064016105dc565b85853342604051602001610dae9493929190611b1c565b6040516020818303038152906040528051906020012091506003600083815260200190815260200160002060030154600014610e1f5760405162461bcd60e51b815260206004820152601060248201526f4368616c6c656e67652065786973747360801b60448201526064016105dc565b6040518060e00160405280878152602001866005811115610e4257610e42611820565b8152602001336001600160a01b0316815260200185858080601f016020809104026020016040519081016040528093929190818152602001838380828437600092018290525093855250504260208401525060409091019081526040805160208181018352600080835293810191909152858352600381529120825181559082015160018083018054909160ff1990911690836005811115610ee657610ee6611820565b021790555060408201516001820180546001600160a01b0390921661010002610100600160a81b031990921691909117905560608201516002820190610f2c9082611baf565b506080820151600382015560a082015160048201805460ff19166001836002811115610f5a57610f5a611820565b021790555060c08201516005820190610f739082611baf565b505050600086815260046020908152604080832080546001810182559084528284200185905560055433845260069092528220805491929091610fb7908490611acf565b9091555050600254604051632b68e9d960e21b815260048101889052602481018490526001600160a01b039091169063ada3a76490604401600060405180830381600087803b15801561100957600080fd5b505af115801561101d573d6000803e3d6000fd5b50505050336001600160a01b031686837f7a327d2043b72a934bc457f50e9e67ce17a8c54d2460f0c1285fbf27dea7acdf8860405161105c9190611c6f565b60405180910390a461106d60018055565b50949350505050565b3360009081526006602052604081208054349290611095908490611c7d565b909155505060405134815233907f9936746a4565f9766fa768f88f56a7487c78780ac179562773d1c75c5269537e9060200160405180910390a2565b6000828152602081905260409020600101546110ec816113cd565b6107f383836114b4565b6000611101816113cd565b50600280546001600160a01b0319166001600160a01b0392909216919091179055565b7f92a19c77d2ea87c7f81d50c74403cb2f401780f3ad919571121efe2bdb427eb161114e816113cd565b6111566113d7565b600085815260036020526040812090600482015460ff16600281111561117e5761117e611820565b146111be5760405162461bcd60e51b815260206004820152601060248201526f105b1c9958591e481c995cdbdb1d995960821b60448201526064016105dc565b8415611357576004818101805460ff19166001179055600254825460405163d0556bd760e01b8152928301526001600160a01b03169063d0556bd790602401600060405180830381600087803b15801561121757600080fd5b505af115801561122b573d6000803e3d6000fd5b5050505060006127106007546005546112449190611c90565b61124e9190611ca7565b90506000816005546112609190611c7d565b60018401546040519192506000916101009091046001600160a01b03169083908381818185875af1925050503d80600081146112b8576040519150601f19603f3d011682016040523d82523d6000602084013e6112bd565b606091505b50509050806113075760405162461bcd60e51b815260206004820152601660248201527514995dd85c99081d1c985b9cd9995c8819985a5b195960521b60448201526064016105dc565b60018401546040518381526101009091046001600160a01b0316907fe2403640ba68fed3a2f88b7557551d1993f84b99bb10ff833f0cf8db0c5e04869060200160405180910390a2505050611367565b60048101805460ff191660021790555b60058101611376848683611cc9565b50600481015460405187917f7cb6652a39bce3e6e95c0a2da25b32591925ed5f35357d187cbd376a805f9eb7916113b49160ff169088908890611d89565b60405180910390a2506113c660018055565b5050505050565b6107cb8133611519565b6002600154036114295760405162461bcd60e51b815260206004820152601f60248201527f5265656e7472616e637947756172643a207265656e7472616e742063616c6c0060448201526064016105dc565b6002600155565b61143a8282610b7f565b6108d4576000828152602081815260408083206001600160a01b03851684529091529020805460ff191660011790556114703390565b6001600160a01b0316816001600160a01b0316837f2f8788117e7eff1d82e926ec794901d17c78024a50270940304540a733656f0d60405160405180910390a45050565b6114be8282610b7f565b156108d4576000828152602081815260408083206001600160a01b0385168085529252808320805460ff1916905551339285917ff6391f5c32d9c69d2a47ea670b442974b53935d1edc7fd64eb21e047a839171b9190a45050565b6115238282610b7f565b6108d45761153081611572565b61153b836020611584565b60405160200161154c929190611dc6565b60408051601f198184030181529082905262461bcd60e51b82526105dc91600401611e3b565b60606105876001600160a01b03831660145b60606000611593836002611c90565b61159e906002611c7d565b67ffffffffffffffff8111156115b6576115b6611b4b565b6040519080825280601f01601f1916602001820160405280156115e0576020820181803683370190505b509050600360fc1b816000815181106115fb576115fb611e4e565b60200101906001600160f81b031916908160001a905350600f60fb1b8160018151811061162a5761162a611e4e565b60200101906001600160f81b031916908160001a905350600061164e846002611c90565b611659906001611c7d565b90505b60018111156116d1576f181899199a1a9b1b9c1cb0b131b232b360811b85600f166010811061168d5761168d611e4e565b1a60f81b8282815181106116a3576116a3611e4e565b60200101906001600160f81b031916908160001a90535060049490941c936116ca81611e64565b905061165c565b5083156117205760405162461bcd60e51b815260206004820181905260248201527f537472696e67733a20686578206c656e67746820696e73756666696369656e7460448201526064016105dc565b9392505050565b60006020828403121561173957600080fd5b81356001600160e01b03198116811461172057600080fd5b80356001600160a01b038116811461176857600080fd5b919050565b6000806040838503121561178057600080fd5b61178983611751565b946020939093013593505050565b6000602082840312156117a957600080fd5b5035919050565b600080604083850312156117c357600080fd5b823591506117d360208401611751565b90509250929050565b6020808252825182820181905260009190848201906040850190845b81811015611814578351835292840192918401916001016117f8565b50909695505050505050565b634e487b7160e01b600052602160045260246000fd5b6006811061184657611846611820565b9052565b60005b8381101561186557818101518382015260200161184d565b50506000910152565b6000815180845261188681602086016020860161184a565b601f01601f19169290920160200192915050565b6003811061184657611846611820565b6020815281516020820152600060208301516118c96040840182611836565b5060408301516001600160a01b031660608381019190915283015160e060808401526118f961010084018261186e565b9050608084015160a084015260a084015161191760c085018261189a565b5060c0840151838203601f190160e0850152611933828261186e565b95945050505050565b6000806040838503121561194f57600080fd5b50508035926020909101359150565b87815261196e6020820188611836565b6001600160a01b038616604082015260e0606082018190526000906119959083018761186e565b8560808401526119a860a084018661189a565b82810360c08401526119ba818561186e565b9a9950505050505050505050565b60008083601f8401126119da57600080fd5b50813567ffffffffffffffff8111156119f257600080fd5b602083019150836020828501011115611a0a57600080fd5b9250929050565b60008060008060608587031215611a2757600080fd5b84359350602085013560068110611a3d57600080fd5b9250604085013567ffffffffffffffff811115611a5957600080fd5b611a65878288016119c8565b95989497509550505050565b600060208284031215611a8357600080fd5b61172082611751565b60008060008060608587031215611aa257600080fd5b8435935060208501358015158114611a3d57600080fd5b634e487b7160e01b600052601160045260246000fd5b8181038181111561058757610587611ab9565b600181811c90821680611af657607f821691505b602082108103611b1657634e487b7160e01b600052602260045260246000fd5b50919050565b84815260808101611b306020830186611836565b6001600160a01b039390931660408201526060015292915050565b634e487b7160e01b600052604160045260246000fd5b601f8211156107f357600081815260208120601f850160051c81016020861015611b885750805b601f850160051c820191505b81811015611ba757828155600101611b94565b505050505050565b815167ffffffffffffffff811115611bc957611bc9611b4b565b611bdd81611bd78454611ae2565b84611b61565b602080601f831160018114611c125760008415611bfa5750858301515b600019600386901b1c1916600185901b178555611ba7565b600085815260208120601f198616915b82811015611c4157888601518255948401946001909101908401611c22565b5085821015611c5f5787850151600019600388901b60f8161c191681555b5050505050600190811b01905550565b602081016105878284611836565b8082018082111561058757610587611ab9565b808202811582820484141761058757610587611ab9565b600082611cc457634e487b7160e01b600052601260045260246000fd5b500490565b67ffffffffffffffff831115611ce157611ce1611b4b565b611cf583611cef8354611ae2565b83611b61565b6000601f841160018114611d295760008515611d115750838201355b600019600387901b1c1916600186901b1783556113c6565b600083815260209020601f19861690835b82811015611d5a5786850135825560209485019460019092019101611d3a565b5086821015611d775760001960f88860031b161c19848701351681555b505060018560011b0183555050505050565b611d93818561189a565b60406020820152816040820152818360608301376000818301606090810191909152601f909201601f1916010192915050565b7f416363657373436f6e74726f6c3a206163636f756e7420000000000000000000815260008351611dfe81601785016020880161184a565b7001034b99036b4b9b9b4b733903937b6329607d1b6017918401918201528351611e2f81602884016020880161184a565b01602801949350505050565b602081526000611720602083018461186e565b634e487b7160e01b600052603260045260246000fd5b600081611e7357611e73611ab9565b50600019019056fea26469706673582212200d214abc26a8e9e47113f555b2eb08e0c0b6cf35e9ac59d163c355771dfdae5364736f6c63430008140033",
  "linkReferences": {},
  "deployedLinkReferences": {}
}