{
  "_format": "hh-sol-artifact-1",
  "contractName": "WrappedVCN",
  "sourceName": "contracts/WrappedVCN.sol",
  "abi": [
    {
      "inputs": [],
      "stateMutability": "nonpayable",
      "type": "constructor"
    },
    {
      "inputs": [],
      "name": "InvalidShortString",
      "type": "error"
    },
    {
      "inputs": [
        {
          "internalType": "string",
          "name": "str",
          "type": "string"
        }
      ],
      "name": "StringTooLong",
      "type": "error"
    },
    {
      "anonymous": false,
      "inputs": [
        {
          "indexed": true,
          "internalType": "address",
          "name": "owner",
          "type": "address"
        },
        {
          "indexed": true,
          "internalType": "address",
          "name": "spender",
          "type": "address"
        },
        {
          "indexed": false,
          "internalType": "uint256",
          "name": "value",
          "type": "uint256"
        }
      ],
      "name": "Approval",
      "type": "event"
    },
    {
      "anonymous": false,
      "inputs": [
        {
          "indexed": true,
          "internalType": "address",
          "name": "account",
          "type": "address"
        },
        {
          "indexed": false,
          "internalType": "uint256",
          "name": "amount",
          "type": "uint256"
        }
      ],
      "name": "Deposit",
      "type": "event"
    },
    {
      "anonymous": false,
      "inputs": [],
      "name": "EIP712DomainChanged",
      "type": "event"
    },
    {
      "anonymous": false,
      "inputs": [
        {
          "indexed": true,
          "internalType": "address",
          "name": "from",
          "type": "address"
        },
        {
          "indexed": true,
          "internalType": "address",
          "name": "to",
          "type": "address"
        },
        {
          "indexed": false,
          "internalType": "uint256",
          "name": "value",
          "type": "uint256"
        }
      ],
      "name": "Transfer",
      "type": "event"
    },
    {
      "anonymous": false,
      "inputs": [
        {
          "indexed": true,
          "internalType": "address",
          "name": "account",
          "type": "address"
        },
        {
          "indexed": false,
          "internalType": "uint256",
          "name": "amount",
          "type": "uint256"
        }
      ],
      "name": "Withdrawal",
      "type": "event"
    },
    {
      "inputs": [],
      "name": "DOMAIN_SEPARATOR",
      "outputs": [
        {
          "internalType": "bytes32",
          "name": "",
          "type": "bytes32"
        }
      ],
      "stateMutability": "view",
      "type": "function"
    },
    {
      "inputs": [
        {
          "internalType": "address",
          "name": "owner",
          "type": "address"
        },
        {
          "internalType": "address",
          "name": "spender",
          "type": "address"
        }
      ],
      "name": "allowance",
      "outputs": [
        {
          "internalType": "uint256",
          "name": "",
          "type": "uint256"
        }
      ],
      "stateMutability": "view",
      "type": "function"
    },
    {
      "inputs": [
        {
          "internalType": "address",
          "name": "spender",
          "type": "address"
        },
        {
          "internalType": "uint256",
          "name": "amount",
          "type": "uint256"
        }
      ],
      "name": "approve",
      "outputs": [
        {
          "internalType": "bool",
          "name": "",
          "type": "bool"
        }
      ],
      "stateMutability": "nonpayable",
      "type": "function"
    },
    {
      "inputs": [
        {
          "internalType": "address",
          "name": "account",
          "type": "address"
        }
      ],
      "name": "balanceOf",
      "outputs": [
        {
          "internalType": "uint256",
          "name": "",
          "type": "uint256"
        }
      ],
      "stateMutability": "view",
      "type": "function"
    },
    {
      "inputs": [
        {
          "internalType": "uint256",
          "name": "amount",
          "type": "uint256"
        }
      ],
      "name": "burn",
      "outputs": [],
      "stateMutability": "nonpayable",
      "type": "function"
    },
    {
      "inputs": [
        {
          "internalType": "address",
          "name": "account",
          "type": "address"
        },
        {
          "internalType": "uint256",
          "name": "amount",
          "type": "uint256"
        }
      ],
      "name": "burnFrom",
      "outputs": [],
      "stateMutability": "nonpayable",
      "type": "function"
    },
    {
      "inputs": [],
      "name": "decimals",
      "outputs": [
        {
          "internalType": "uint8",
          "name": "",
          "type": "uint8"
        }
      ],
      "stateMutability": "view",
      "type": "function"
    },
    {
      "inputs": [
        {
          "internalType": "address",
          "name": "spender",
          "type": "address"
        },
        {
          "internalType": "uint256",
          "name": "subtractedValue",
          "type": "uint256"
        }
      ],
      "name": "decreaseAllowance",
      "outputs": [
        {
          "internalType": "bool",
          "name": "",
          "type": "bool"
        }
      ],
      "stateMutability": "nonpayable",
      "type": "function"
    },
    {
      "inputs": [],
      "name": "deposit",
      "outputs": [],
      "stateMutability": "payable",
      "type": "function"
    },
    {
      "inputs": [],
      "name": "eip712Domain",
      "outputs": [
        {
          "internalType": "bytes1",
          "name": "fields",
          "type": "bytes1"
        },
        {
          "internalType": "string",
          "name": "name",
          "type": "string"
        },
        {
          "internalType": "string",
          "name": "version",
          "type": "string"
        },
        {
          "internalType": "uint256",
          "name": "chainId",
          "type": "uint256"
        },
        {
          "internalType": "address",
          "name": "verifyingContract",
          "type": "address"
        },
        {
          "internalType": "bytes32",
          "name": "salt",
          "type": "bytes32"
        },
        {
          "internalType": "uint256[]",
          "name": "extensions",
          "type": "uint256[]"
        }
      ],
      "stateMutability": "view",
      "type": "function"
    },
    {
      "inputs": [
        {
          "internalType": "address",
          "name": "spender",
          "type": "address"
        },
        {
          "internalType": "uint256",
          "name": "addedValue",
          "type": "uint256"
        }
      ],
      "name": "increaseAllowance",
      "outputs": [
        {
          "internalType": "bool",
          "name": "",
          "type": "bool"
        }
      ],
      "stateMutability": "nonpayable",
      "type": "function"
    },
    {
      "inputs": [],
      "name": "name",
      "outputs": [
        {
          "internalType": "string",
          "name": "",
          "type": "string"
        }
      ],
      "stateMutability": "view",
      "type": "function"
    },
    {
      "inputs": [
        {
          "internalType": "address",
          "name": "owner",
          "type": "address"
        }
      ],
      "name": "nonces",
      "outputs": [
        {
          "internalType": "uint256",
          "name": "",
          "type": "uint256"
        }
      ],
      "stateMutability": "view",
      "type": "function"
    },
    {
      "inputs": [
        {
          "internalType": "address",
          "name": "owner",
          "type": "address"
        },
        {
          "internalType": "address",
          "name": "spender",
          "type": "address"
        },
        {
          "internalType": "uint256",
          "name": "value",
          "type": "uint256"
        },
        {
          "internalType": "uint256",
          "name": "deadline",
          "type": "uint256"
        },
        {
          "internalType": "uint8",
          "name": "v",
          "type": "uint8"
        },
        {
          "internalType": "bytes32",
          "name": "r",
          "type": "bytes32"
        },
        {
          "internalType": "bytes32",
          "name": "s",
          "type": "bytes32"
        }
      ],
      "name": "permit",
      "outputs": [],
      "stateMutability": "nonpayable",
      "type": "function"
    },
    {
      "inputs": [],
      "name": "symbol",
      "outputs": [
        {
          "internalType": "string",
          "name": "",
          "type": "string"
        }
      ],
      "stateMutability": "view",
      "type": "function"
    },
    {
      "inputs": [],
      "name": "totalSupply",
      "outputs": [
        {
          "internalType": "uint256",
          "name": "",
          "type": "uint256"
        }
      ],
      "stateMutability": "view",
      "type": "function"
    },
    {
      "inputs": [
        {
          "internalType": "address",
          "name": "to",
          "type": "address"
        },
        {
          "internalType": "uint256",
          "name": "amount",
          "type": "uint256"
        }
      ],
      "name": "transfer",
      "outputs": [
        {
          "internalType": "bool",
          "name": "",
          "type": "bool"
        }
      ],
      "stateMutability": "nonpayable",
      "type": "function"
    },
    {
      "inputs": [
        {
          "internalType": "address",
          "name": "from",
          "type": "address"
        },
        {
          "internalType": "address",
          "name": "to",
          "type": "address"
        },
        {
          "internalType": "uint256",
          "name": "amount",
          "type": "uint256"
        }
      ],
      "name": "transferFrom",
      "outputs": [
        {
          "internalType": "bool",
          "name": "",
          "type": "bool"
        }
      ],
      "stateMutability": "nonpayable",
      "type": "function"
    },
    {
      "inputs": [
        {
          "internalType": "uint256",
          "name": "amount",
          "type": "uint256"
        }
      ],
      "name": "withdraw",
      "outputs": [],
      "stateMutability": "nonpayable",
      "type": "function"
    },
    {
      "stateMutability": "payable",
      "type": "receive"
    }
  ],
  "bytecode": "0x6101606040523480156200001257600080fd5b506040518060400160405280601a81526020017f5772617070656420566973696f6e20436861696e20546f6b656e00000000000081525080604051806040016040528060018152602001603160f81b8152506040518060400160405280601a81526020017f5772617070656420566973696f6e20436861696e20546f6b656e000000000000815250604051806040016040528060048152602001633bab21a760e11b8152508160039081620000c89190620002c2565b506004620000d78282620002c2565b50620000e99150839050600562000198565b61012052620000fa81600662000198565b61014052815160208084019190912060e052815190820120610100524660a0526200018860e05161010051604080517f8b73c3c69bb8fe3d512ecc4cf759cc79239f7b179b0ffacaa9a75d522b39400f60208201529081019290925260608201524660808201523060a082015260009060c00160405160208183030381529060405280519060200120905090565b60805250503060c0525062000403565b6000602083511015620001b857620001b083620001d1565b9050620001cb565b81620001c58482620002c2565b5060ff90505b92915050565b600080829050601f8151111562000208578260405163305a27a960e01b8152600401620001ff91906200038e565b60405180910390fd5b80516200021582620003de565b179392505050565b634e487b7160e01b600052604160045260246000fd5b600181811c908216806200024857607f821691505b6020821081036200026957634e487b7160e01b600052602260045260246000fd5b50919050565b601f821115620002bd57600081815260208120601f850160051c81016020861015620002985750805b601f850160051c820191505b81811015620002b957828155600101620002a4565b5050505b505050565b81516001600160401b03811115620002de57620002de6200021d565b620002f681620002ef845462000233565b846200026f565b602080601f8311600181146200032e5760008415620003155750858301515b600019600386901b1c1916600185901b178555620002b9565b600085815260208120601f198616915b828110156200035f578886015182559484019460019091019084016200033e565b50858210156200037e5787850151600019600388901b60f8161c191681555b5050505050600190811b01905550565b600060208083528351808285015260005b81811015620003bd578581018301518582016040015282016200039f565b506000604082860101526040601f19601f8301168501019250505092915050565b80516020808301519190811015620002695760001960209190910360031b1b16919050565b60805160a05160c05160e0516101005161012051610140516115d36200045e60003960006106750152600061064a01526000610ef201526000610eca01526000610e2501526000610e4f01526000610e7901526115d36000f3fe6080604052600436106101185760003560e01c806370a08231116100a0578063a457c2d711610064578063a457c2d71461030a578063a9059cbb1461032a578063d0e30db01461034a578063d505accf14610352578063dd62ed3e1461037257600080fd5b806370a082311461025757806379cc67901461028d5780637ecebe00146102ad57806384b0196e146102cd57806395d89b41146102f557600080fd5b80632e1a7d4d116100e75780632e1a7d4d146101c6578063313ce567146101e65780633644e51514610202578063395093511461021757806342966c681461023757600080fd5b806306fdde031461012c578063095ea7b31461015757806318160ddd1461018757806323b872dd146101a657600080fd5b3661012757610125610392565b005b600080fd5b34801561013857600080fd5b50610141610428565b60405161014e9190611326565b60405180910390f35b34801561016357600080fd5b5061017761017236600461135c565b6104ba565b604051901515815260200161014e565b34801561019357600080fd5b506002545b60405190815260200161014e565b3480156101b257600080fd5b506101776101c1366004611386565b6104d4565b3480156101d257600080fd5b506101256101e13660046113c2565b6104f8565b3480156101f257600080fd5b506040516012815260200161014e565b34801561020e57600080fd5b506101986105c7565b34801561022357600080fd5b5061017761023236600461135c565b6105d6565b34801561024357600080fd5b506101256102523660046113c2565b6105f8565b34801561026357600080fd5b506101986102723660046113db565b6001600160a01b031660009081526020819052604090205490565b34801561029957600080fd5b506101256102a836600461135c565b610605565b3480156102b957600080fd5b506101986102c83660046113db565b61061e565b3480156102d957600080fd5b506102e261063c565b60405161014e97969594939291906113f6565b34801561030157600080fd5b506101416106c5565b34801561031657600080fd5b5061017761032536600461135c565b6106d4565b34801561033657600080fd5b5061017761034536600461135c565b61074f565b610125610392565b34801561035e57600080fd5b5061012561036d36600461148c565b61075d565b34801561037e57600080fd5b5061019861038d3660046114ff565b6108c1565b600034116103e75760405162461bcd60e51b815260206004820152601c60248201527f4d757374206465706f736974206e6f6e2d7a65726f20616d6f756e740000000060448201526064015b60405180910390fd5b6103f133346108ec565b60405134815233907fe1fffcc4923d04b559f4d29a8bfc6cda04eb5b0d3c460751c2402c5c5cc9109c9060200160405180910390a2565b60606003805461043790611532565b80601f016020809104026020016040519081016040528092919081815260200182805461046390611532565b80156104b05780601f10610485576101008083540402835291602001916104b0565b820191906000526020600020905b81548152906001019060200180831161049357829003601f168201915b5050505050905090565b6000336104c88185856109ab565b60019150505b92915050565b6000336104e2858285610ad0565b6104ed858585610b4a565b506001949350505050565b336000908152602081905260409020548111156105575760405162461bcd60e51b815260206004820152601960248201527f496e73756666696369656e74207756434e2062616c616e63650000000000000060448201526064016103de565b6105613382610cee565b604051339082156108fc029083906000818181858888f1935050505015801561058e573d6000803e3d6000fd5b5060405181815233907f7fcf532c15f0a6db0bd6d0e038bea71d30d808c7d98cb3bf7268a95bf5081b659060200160405180910390a250565b60006105d1610e18565b905090565b6000336104c88185856105e983836108c1565b6105f39190611566565b6109ab565b6106023382610cee565b50565b610610823383610ad0565b61061a8282610cee565b5050565b6001600160a01b0381166000908152600760205260408120546104ce565b6000606080828080836106707f00000000000000000000000000000000000000000000000000000000000000006005610f43565b61069b7f00000000000000000000000000000000000000000000000000000000000000006006610f43565b60408051600080825260208201909252600f60f81b9b939a50919850469750309650945092509050565b60606004805461043790611532565b600033816106e282866108c1565b9050838110156107425760405162461bcd60e51b815260206004820152602560248201527f45524332303a2064656372656173656420616c6c6f77616e63652062656c6f77604482015264207a65726f60d81b60648201526084016103de565b6104ed82868684036109ab565b6000336104c8818585610b4a565b834211156107ad5760405162461bcd60e51b815260206004820152601d60248201527f45524332305065726d69743a206578706972656420646561646c696e6500000060448201526064016103de565b60007f6e71edae12b1b97f4d1f60370fef10105fa2faae0126114a169c64845d6126c98888886107dc8c610fee565b6040805160208101969096526001600160a01b0394851690860152929091166060840152608083015260a082015260c0810186905260e001604051602081830303815290604052805190602001209050600061083782611016565b9050600061084782878787611043565b9050896001600160a01b0316816001600160a01b0316146108aa5760405162461bcd60e51b815260206004820152601e60248201527f45524332305065726d69743a20696e76616c6964207369676e6174757265000060448201526064016103de565b6108b58a8a8a6109ab565b50505050505050505050565b6001600160a01b03918216600090815260016020908152604080832093909416825291909152205490565b6001600160a01b0382166109425760405162461bcd60e51b815260206004820152601f60248201527f45524332303a206d696e7420746f20746865207a65726f20616464726573730060448201526064016103de565b80600260008282546109549190611566565b90915550506001600160a01b038216600081815260208181526040808320805486019055518481527fddf252ad1be2c89b69c2b068fc378daa952ba7f163c4a11628f55a4df523b3ef910160405180910390a35050565b6001600160a01b038316610a0d5760405162461bcd60e51b8152602060048201526024808201527f45524332303a20617070726f76652066726f6d20746865207a65726f206164646044820152637265737360e01b60648201526084016103de565b6001600160a01b038216610a6e5760405162461bcd60e51b815260206004820152602260248201527f45524332303a20617070726f766520746f20746865207a65726f206164647265604482015261737360f01b60648201526084016103de565b6001600160a01b0383811660008181526001602090815260408083209487168084529482529182902085905590518481527f8c5be1e5ebec7d5bd14f71427d1e84f3dd0314c0f7b2291e5b200ac8c7c3b92591015b60405180910390a3505050565b6000610adc84846108c1565b90506000198114610b445781811015610b375760405162461bcd60e51b815260206004820152601d60248201527f45524332303a20696e73756666696369656e7420616c6c6f77616e636500000060448201526064016103de565b610b4484848484036109ab565b50505050565b6001600160a01b038316610bae5760405162461bcd60e51b815260206004820152602560248201527f45524332303a207472616e736665722066726f6d20746865207a65726f206164604482015264647265737360d81b60648201526084016103de565b6001600160a01b038216610c105760405162461bcd60e51b815260206004820152602360248201527f45524332303a207472616e7366657220746f20746865207a65726f206164647260448201526265737360e81b60648201526084016103de565b6001600160a01b03831660009081526020819052604090205481811015610c885760405162461bcd60e51b815260206004820152602660248201527f45524332303a207472616e7366657220616d6f756e7420657863656564732062604482015265616c616e636560d01b60648201526084016103de565b6001600160a01b03848116600081815260208181526040808320878703905593871680835291849020805487019055925185815290927fddf252ad1be2c89b69c2b068fc378daa952ba7f163c4a11628f55a4df523b3ef910160405180910390a3610b44565b6001600160a01b038216610d4e5760405162461bcd60e51b815260206004820152602160248201527f45524332303a206275726e2066726f6d20746865207a65726f206164647265736044820152607360f81b60648201526084016103de565b6001600160a01b03821660009081526020819052604090205481811015610dc25760405162461bcd60e51b815260206004820152602260248201527f45524332303a206275726e20616d6f756e7420657863656564732062616c616e604482015261636560f01b60648201526084016103de565b6001600160a01b0383166000818152602081815260408083208686039055600280548790039055518581529192917fddf252ad1be2c89b69c2b068fc378daa952ba7f163c4a11628f55a4df523b3ef9101610ac3565b6000306001600160a01b037f000000000000000000000000000000000000000000000000000000000000000016148015610e7157507f000000000000000000000000000000000000000000000000000000000000000046145b15610e9b57507f000000000000000000000000000000000000000000000000000000000000000090565b6105d1604080517f8b73c3c69bb8fe3d512ecc4cf759cc79239f7b179b0ffacaa9a75d522b39400f60208201527f0000000000000000000000000000000000000000000000000000000000000000918101919091527f000000000000000000000000000000000000000000000000000000000000000060608201524660808201523060a082015260009060c00160405160208183030381529060405280519060200120905090565b606060ff8314610f5d57610f568361106b565b90506104ce565b818054610f6990611532565b80601f0160208091040260200160405190810160405280929190818152602001828054610f9590611532565b8015610fe25780601f10610fb757610100808354040283529160200191610fe2565b820191906000526020600020905b815481529060010190602001808311610fc557829003601f168201915b505050505090506104ce565b6001600160a01b03811660009081526007602052604090208054600181018255905b50919050565b60006104ce611023610e18565b8360405161190160f01b8152600281019290925260228201526042902090565b6000806000611054878787876110aa565b915091506110618161116e565b5095945050505050565b60606000611078836112b8565b604080516020808252818301909252919250600091906020820181803683375050509182525060208101929092525090565b6000807f7fffffffffffffffffffffffffffffff5d576e7357a4501ddfe92f46681b20a08311156110e15750600090506003611165565b6040805160008082526020820180845289905260ff881692820192909252606081018690526080810185905260019060a0016020604051602081039080840390855afa158015611135573d6000803e3d6000fd5b5050604051601f1901519150506001600160a01b03811661115e57600060019250925050611165565b9150600090505b94509492505050565b600081600481111561118257611182611587565b0361118a5750565b600181600481111561119e5761119e611587565b036111eb5760405162461bcd60e51b815260206004820152601860248201527f45434453413a20696e76616c6964207369676e6174757265000000000000000060448201526064016103de565b60028160048111156111ff576111ff611587565b0361124c5760405162461bcd60e51b815260206004820152601f60248201527f45434453413a20696e76616c6964207369676e6174757265206c656e6774680060448201526064016103de565b600381600481111561126057611260611587565b036106025760405162461bcd60e51b815260206004820152602260248201527f45434453413a20696e76616c6964207369676e6174757265202773272076616c604482015261756560f01b60648201526084016103de565b600060ff8216601f8111156104ce57604051632cd44ac360e21b815260040160405180910390fd5b6000815180845260005b81811015611306576020818501810151868301820152016112ea565b506000602082860101526020601f19601f83011685010191505092915050565b60208152600061133960208301846112e0565b9392505050565b80356001600160a01b038116811461135757600080fd5b919050565b6000806040838503121561136f57600080fd5b61137883611340565b946020939093013593505050565b60008060006060848603121561139b57600080fd5b6113a484611340565b92506113b260208501611340565b9150604084013590509250925092565b6000602082840312156113d457600080fd5b5035919050565b6000602082840312156113ed57600080fd5b61133982611340565b60ff60f81b881681526000602060e08184015261141660e084018a6112e0565b8381036040850152611428818a6112e0565b606085018990526001600160a01b038816608086015260a0850187905284810360c0860152855180825283870192509083019060005b8181101561147a5783518352928401929184019160010161145e565b50909c9b505050505050505050505050565b600080600080600080600060e0888a0312156114a757600080fd5b6114b088611340565b96506114be60208901611340565b95506040880135945060608801359350608088013560ff811681146114e257600080fd5b9699959850939692959460a0840135945060c09093013592915050565b6000806040838503121561151257600080fd5b61151b83611340565b915061152960208401611340565b90509250929050565b600181811c9082168061154657607f821691505b60208210810361101057634e487b7160e01b600052602260045260246000fd5b808201808211156104ce57634e487b7160e01b600052601160045260246000fd5b634e487b7160e01b600052602160045260246000fdfea264697066735822122042d6438a78defa750dca7b4f0a825de92352fb9d5e38aec6c0213677e170f54f64736f6c63430008140033",
  "linkReferences": {},
  "deployedLinkReferences": {}
}