{
  "_format": "hh-sol-artifact-1",
  "contractName": "DEXSettlement",
  "sourceName": "contracts/DEXSettlement.sol",
  "abi": [
    {
      "inputs": [
        {
          "internalType": "address",
          "name": "admin",
          "type": "address"
        },
        {
          "internalType": "address",
          "name": "settler",
          "type": "address"
        },
        {
          "internalType": "address",
          "name": "_feeCollector",
          "type": "address"
        }
      ],
      "stateMutability": "nonpayable",
      "type": "constructor"
    },
    {
      "anonymous": false,
      "inputs": [
        {
          "indexed": true,
          "internalType": "uint256",
          "name": "round",
          "type": "uint256"
        },
        {
          "indexed": false,
          "internalType": "uint256",
          "name": "tradeCount",
          "type": "uint256"
        },
        {
          "indexed": false,
          "internalType": "uint256",
          "name": "timestamp",
          "type": "uint256"
        }
      ],
      "name": "BatchSettled",
      "type": "event"
    },
    {
      "anonymous": false,
      "inputs": [
        {
          "indexed": true,
          "internalType": "address",
          "name": "user",
          "type": "address"
        },
        {
          "indexed": true,
          "internalType": "address",
          "name": "token",
          "type": "address"
        },
        {
          "indexed": false,
          "internalType": "uint256",
          "name": "amount",
          "type": "uint256"
        }
      ],
      "name": "Deposited",
      "type": "event"
    },
    {
      "anonymous": false,
      "inputs": [
        {
          "indexed": true,
          "internalType": "bytes32",
          "name": "role",
          "type": "bytes32"
        },
        {
          "indexed": true,
          "internalType": "bytes32",
          "name": "previousAdminRole",
          "type": "bytes32"
        },
        {
          "indexed": true,
          "internalType": "bytes32",
          "name": "newAdminRole",
          "type": "bytes32"
        }
      ],
      "name": "RoleAdminChanged",
      "type": "event"
    },
    {
      "anonymous": false,
      "inputs": [
        {
          "indexed": true,
          "internalType": "bytes32",
          "name": "role",
          "type": "bytes32"
        },
        {
          "indexed": true,
          "internalType": "address",
          "name": "account",
          "type": "address"
        },
        {
          "indexed": true,
          "internalType": "address",
          "name": "sender",
          "type": "address"
        }
      ],
      "name": "RoleGranted",
      "type": "event"
    },
    {
      "anonymous": false,
      "inputs": [
        {
          "indexed": true,
          "internalType": "bytes32",
          "name": "role",
          "type": "bytes32"
        },
        {
          "indexed": true,
          "internalType": "address",
          "name": "account",
          "type": "address"
        },
        {
          "indexed": true,
          "internalType": "address",
          "name": "sender",
          "type": "address"
        }
      ],
      "name": "RoleRevoked",
      "type": "event"
    },
    {
      "anonymous": false,
      "inputs": [
        {
          "indexed": true,
          "internalType": "uint256",
          "name": "round",
          "type": "uint256"
        },
        {
          "indexed": true,
          "internalType": "address",
          "name": "buyer",
          "type": "address"
        },
        {
          "indexed": true,
          "internalType": "address",
          "name": "seller",
          "type": "address"
        },
        {
          "indexed": false,
          "internalType": "uint256",
          "name": "baseAmount",
          "type": "uint256"
        },
        {
          "indexed": false,
          "internalType": "uint256",
          "name": "quoteAmount",
          "type": "uint256"
        }
      ],
      "name": "TradeSettled",
      "type": "event"
    },
    {
      "anonymous": false,
      "inputs": [
        {
          "indexed": true,
          "internalType": "address",
          "name": "user",
          "type": "address"
        },
        {
          "indexed": true,
          "internalType": "address",
          "name": "token",
          "type": "address"
        },
        {
          "indexed": false,
          "internalType": "uint256",
          "name": "amount",
          "type": "uint256"
        }
      ],
      "name": "Withdrawn",
      "type": "event"
    },
    {
      "inputs": [],
      "name": "DEFAULT_ADMIN_ROLE",
      "outputs": [
        {
          "internalType": "bytes32",
          "name": "",
          "type": "bytes32"
        }
      ],
      "stateMutability": "view",
      "type": "function"
    },
    {
      "inputs": [],
      "name": "SETTLER_ROLE",
      "outputs": [
        {
          "internalType": "bytes32",
          "name": "",
          "type": "bytes32"
        }
      ],
      "stateMutability": "view",
      "type": "function"
    },
    {
      "inputs": [
        {
          "internalType": "address",
          "name": "",
          "type": "address"
        },
        {
          "internalType": "address",
          "name": "",
          "type": "address"
        }
      ],
      "name": "balances",
      "outputs": [
        {
          "internalType": "uint256",
          "name": "",
          "type": "uint256"
        }
      ],
      "stateMutability": "view",
      "type": "function"
    },
    {
      "inputs": [
        {
          "internalType": "address",
          "name": "user",
          "type": "address"
        },
        {
          "internalType": "address",
          "name": "token",
          "type": "address"
        },
        {
          "internalType": "uint256",
          "name": "amount",
          "type": "uint256"
        }
      ],
      "name": "creditBalance",
      "outputs": [],
      "stateMutability": "nonpayable",
      "type": "function"
    },
    {
      "inputs": [
        {
          "internalType": "address",
          "name": "token",
          "type": "address"
        },
        {
          "internalType": "uint256",
          "name": "amount",
          "type": "uint256"
        }
      ],
      "name": "deposit",
      "outputs": [],
      "stateMutability": "nonpayable",
      "type": "function"
    },
    {
      "inputs": [
        {
          "internalType": "address",
          "name": "user",
          "type": "address"
        },
        {
          "internalType": "address",
          "name": "token",
          "type": "address"
        },
        {
          "internalType": "uint256",
          "name": "amount",
          "type": "uint256"
        }
      ],
      "name": "depositFor",
      "outputs": [],
      "stateMutability": "nonpayable",
      "type": "function"
    },
    {
      "inputs": [],
      "name": "feeCollector",
      "outputs": [
        {
          "internalType": "address",
          "name": "",
          "type": "address"
        }
      ],
      "stateMutability": "view",
      "type": "function"
    },
    {
      "inputs": [
        {
          "internalType": "address",
          "name": "user",
          "type": "address"
        },
        {
          "internalType": "address",
          "name": "token",
          "type": "address"
        }
      ],
      "name": "getBalance",
      "outputs": [
        {
          "internalType": "uint256",
          "name": "",
          "type": "uint256"
        }
      ],
      "stateMutability": "view",
      "type": "function"
    },
    {
      "inputs": [
        {
          "internalType": "bytes32",
          "name": "role",
          "type": "bytes32"
        }
      ],
      "name": "getRoleAdmin",
      "outputs": [
        {
          "internalType": "bytes32",
          "name": "",
          "type": "bytes32"
        }
      ],
      "stateMutability": "view",
      "type": "function"
    },
    {
      "inputs": [],
      "name": "getStats",
      "outputs": [
        {
          "internalType": "uint256",
          "name": "round",
          "type": "uint256"
        },
        {
          "internalType": "uint256",
          "name": "settlements",
          "type": "uint256"
        },
        {
          "internalType": "uint256",
          "name": "trades",
          "type": "uint256"
        }
      ],
      "stateMutability": "view",
      "type": "function"
    },
    {
      "inputs": [
        {
          "internalType": "bytes32",
          "name": "role",
          "type": "bytes32"
        },
        {
          "internalType": "address",
          "name": "account",
          "type": "address"
        }
      ],
      "name": "grantRole",
      "outputs": [],
      "stateMutability": "nonpayable",
      "type": "function"
    },
    {
      "inputs": [
        {
          "internalType": "bytes32",
          "name": "role",
          "type": "bytes32"
        },
        {
          "internalType": "address",
          "name": "account",
          "type": "address"
        }
      ],
      "name": "hasRole",
      "outputs": [
        {
          "internalType": "bool",
          "name": "",
          "type": "bool"
        }
      ],
      "stateMutability": "view",
      "type": "function"
    },
    {
      "inputs": [],
      "name": "lastSettlementRound",
      "outputs": [
        {
          "internalType": "uint256",
          "name": "",
          "type": "uint256"
        }
      ],
      "stateMutability": "view",
      "type": "function"
    },
    {
      "inputs": [
        {
          "internalType": "bytes32",
          "name": "role",
          "type": "bytes32"
        },
        {
          "internalType": "address",
          "name": "account",
          "type": "address"
        }
      ],
      "name": "renounceRole",
      "outputs": [],
      "stateMutability": "nonpayable",
      "type": "function"
    },
    {
      "inputs": [
        {
          "internalType": "bytes32",
          "name": "role",
          "type": "bytes32"
        },
        {
          "internalType": "address",
          "name": "account",
          "type": "address"
        }
      ],
      "name": "revokeRole",
      "outputs": [],
      "stateMutability": "nonpayable",
      "type": "function"
    },
    {
      "inputs": [
        {
          "internalType": "address",
          "name": "_feeCollector",
          "type": "address"
        }
      ],
      "name": "setFeeCollector",
      "outputs": [],
      "stateMutability": "nonpayable",
      "type": "function"
    },
    {
      "inputs": [
        {
          "internalType": "uint256",
          "name": "round",
          "type": "uint256"
        },
        {
          "components": [
            {
              "internalType": "address",
              "name": "buyer",
              "type": "address"
            },
            {
              "internalType": "address",
              "name": "seller",
              "type": "address"
            },
            {
              "internalType": "address",
              "name": "baseToken",
              "type": "address"
            },
            {
              "internalType": "address",
              "name": "quoteToken",
              "type": "address"
            },
            {
              "internalType": "uint256",
              "name": "baseAmount",
              "type": "uint256"
            },
            {
              "internalType": "uint256",
              "name": "quoteAmount",
              "type": "uint256"
            },
            {
              "internalType": "uint256",
              "name": "buyerFee",
              "type": "uint256"
            },
            {
              "internalType": "uint256",
              "name": "sellerFee",
              "type": "uint256"
            }
          ],
          "internalType": "struct DEXSettlement.Trade[]",
          "name": "trades",
          "type": "tuple[]"
        }
      ],
      "name": "settleBatch",
      "outputs": [],
      "stateMutability": "nonpayable",
      "type": "function"
    },
    {
      "inputs": [
        {
          "internalType": "bytes4",
          "name": "interfaceId",
          "type": "bytes4"
        }
      ],
      "name": "supportsInterface",
      "outputs": [
        {
          "internalType": "bool",
          "name": "",
          "type": "bool"
        }
      ],
      "stateMutability": "view",
      "type": "function"
    },
    {
      "inputs": [],
      "name": "totalSettlements",
      "outputs": [
        {
          "internalType": "uint256",
          "name": "",
          "type": "uint256"
        }
      ],
      "stateMutability": "view",
      "type": "function"
    },
    {
      "inputs": [],
      "name": "totalTradesSettled",
      "outputs": [
        {
          "internalType": "uint256",
          "name": "",
          "type": "uint256"
        }
      ],
      "stateMutability": "view",
      "type": "function"
    },
    {
      "inputs": [
        {
          "internalType": "address",
          "name": "token",
          "type": "address"
        },
        {
          "internalType": "uint256",
          "name": "amount",
          "type": "uint256"
        }
      ],
      "name": "withdraw",
      "outputs": [],
      "stateMutability": "nonpayable",
      "type": "function"
    }
  ],
  "bytecode": "0x60806040523480156200001157600080fd5b50604051620019cb380380620019cb833981016040819052620000349162000158565b60018055620000456000846200009a565b620000717f6666bf5bfee463d10a7fc50448047f8a53b7762d7e28fbc5c643182785f3fd3f836200009a565b600380546001600160a01b0319166001600160a01b039290921691909117905550620001a29050565b6000828152602081815260408083206001600160a01b038516845290915290205460ff1662000137576000828152602081815260408083206001600160a01b03851684529091529020805460ff19166001179055620000f63390565b6001600160a01b0316816001600160a01b0316837f2f8788117e7eff1d82e926ec794901d17c78024a50270940304540a733656f0d60405160405180910390a45b5050565b80516001600160a01b03811681146200015357600080fd5b919050565b6000806000606084860312156200016e57600080fd5b62000179846200013b565b925062000189602085016200013b565b915062000199604085016200013b565b90509250925092565b61181980620001b26000396000f3fe608060405234801561001057600080fd5b50600436106101375760003560e01c806391d14854116100b8578063c23f001f1161007c578063c23f001f14610279578063c415b95c146102a4578063c59d4847146102cf578063d4fac45d146102f3578063d547741f1461032c578063f3fef3a31461033f57600080fd5b806391d1485414610225578063a080ef1214610238578063a217fddf1461024b578063a42dce8014610253578063b3db428b1461026657600080fd5b80633ed379a5116100ff5780633ed379a5146101c657806347e7ef24146101cf57806367540b93146101e25780637445e85c146101f557806388dae6a81461021c57600080fd5b806301ffc9a71461013c5780632297435b14610164578063248a9ca31461017b5780632f2ff15d1461019e57806336568abe146101b3575b600080fd5b61014f61014a366004611450565b610352565b60405190151581526020015b60405180910390f35b61016d60045481565b60405190815260200161015b565b61016d61018936600461147a565b60009081526020819052604090206001015490565b6101b16101ac3660046114af565b610389565b005b6101b16101c13660046114af565b6103b3565b61016d60065481565b6101b16101dd3660046114db565b610436565b6101b16101f0366004611505565b6104f5565b61016d7f6666bf5bfee463d10a7fc50448047f8a53b7762d7e28fbc5c643182785f3fd3f81565b61016d60055481565b61014f6102333660046114af565b610b0c565b6101b1610246366004611584565b610b35565b61016d600081565b6101b16102613660046115c0565b610b82565b6101b1610274366004611584565b610bb0565b61016d6102873660046115db565b600260209081526000928352604080842090915290825290205481565b6003546102b7906001600160a01b031681565b6040516001600160a01b03909116815260200161015b565b6004546005546006546040805193845260208401929092529082015260600161015b565b61016d6103013660046115db565b6001600160a01b03918216600090815260026020908152604080832093909416825291909152205490565b6101b161033a3660046114af565b610cac565b6101b161034d3660046114db565b610cd1565b60006001600160e01b03198216637965db0b60e01b148061038357506301ffc9a760e01b6001600160e01b03198316145b92915050565b6000828152602081905260409020600101546103a481610ded565b6103ae8383610dfa565b505050565b6001600160a01b03811633146104285760405162461bcd60e51b815260206004820152602f60248201527f416363657373436f6e74726f6c3a2063616e206f6e6c792072656e6f756e636560448201526e103937b632b9903337b91039b2b63360891b60648201526084015b60405180910390fd5b6104328282610e7e565b5050565b61043e610ee3565b6000811161045e5760405162461bcd60e51b815260040161041f90611605565b6104736001600160a01b038316333084610f3c565b3360009081526002602090815260408083206001600160a01b0386168452909152812080548392906104a6908490611640565b90915550506040518181526001600160a01b0383169033907f8752a472e571a816aea92eec8dae9baf628e840f4929fbcc2d155e6233ff68a7906020015b60405180910390a361043260018055565b7f6666bf5bfee463d10a7fc50448047f8a53b7762d7e28fbc5c643182785f3fd3f61051f81610ded565b60045484116105685760405162461bcd60e51b8152602060048201526015602482015274149bdd5b9908185b1c9958591e481cd95d1d1b1959605a1b604482015260640161041f565b816105a35760405162461bcd60e51b815260206004820152600b60248201526a08adae0e8f240c4c2e8c6d60ab1b604482015260640161041f565b60c88211156105e65760405162461bcd60e51b815260206004820152600f60248201526e426174636820746f6f206c6172676560881b604482015260640161041f565b60005b82811015610a97573684848381811061060457610604611653565b90506101000201905060008160c001358260a001356106239190611640565b9050806002600061063760208601866115c0565b6001600160a01b03168152602081019190915260400160009081209061066360808601606087016115c0565b6001600160a01b03166001600160a01b031681526020019081526020016000205410156106d25760405162461bcd60e51b815260206004820152601860248201527f427579657220696e73756666696369656e742071756f74650000000000000000604482015260640161041f565b6080820135600260006106eb60408601602087016115c0565b6001600160a01b03166001600160a01b03168152602001908152602001600020600084604001602081019061072091906115c0565b6001600160a01b03166001600160a01b0316815260200190815260200160002054101561078f5760405162461bcd60e51b815260206004820152601860248201527f53656c6c657220696e73756666696369656e7420626173650000000000000000604482015260640161041f565b80600260006107a160208601866115c0565b6001600160a01b0316815260208101919091526040016000908120906107cd60808601606087016115c0565b6001600160a01b03166001600160a01b0316815260200190815260200160002060008282546107fc9190611669565b909155505060808201356002600061081760208601866115c0565b6001600160a01b03166001600160a01b03168152602001908152602001600020600084604001602081019061084c91906115c0565b6001600160a01b03166001600160a01b03168152602001908152602001600020600082825461087b9190611640565b909155505060808201356002600061089960408601602087016115c0565b6001600160a01b03166001600160a01b0316815260200190815260200160002060008460400160208101906108ce91906115c0565b6001600160a01b03166001600160a01b0316815260200190815260200160002060008282546108fd9190611669565b90915550610915905060e083013560a0840135611669565b6002600061092960408601602087016115c0565b6001600160a01b03168152602081019190915260400160009081209061095560808601606087016115c0565b6001600160a01b03166001600160a01b0316815260200190815260200160002060008282546109849190611640565b909155506000905061099e60e084013560c0850135611640565b90508015610a07576003546001600160a01b0316600090815260026020526040812082916109d260808701606088016115c0565b6001600160a01b03166001600160a01b031681526020019081526020016000206000828254610a019190611640565b90915550505b610a1760408401602085016115c0565b6001600160a01b0316610a2d60208501856115c0565b6001600160a01b0316897f21a4e93bc292518c83e5623a9dde5c8df7f96b1561c0afca68fbe100b11221cf86608001358760a00135604051610a79929190918252602082015260400190565b60405180910390a45050508080610a8f9061167c565b9150506105e9565b50600484905560058054906000610aad8361167c565b91905055508282905060066000828254610ac79190611640565b90915550506040805183815242602082015285917f394d10d0c361d6f116b7ddf0a96fedd949bf97857d795bad6b2c861ca9204c60910160405180910390a250505050565b6000918252602082815260408084206001600160a01b0393909316845291905290205460ff1690565b6000610b4081610ded565b6001600160a01b03808516600090815260026020908152604080832093871683529290529081208054849290610b77908490611640565b909155505050505050565b6000610b8d81610ded565b50600380546001600160a01b0319166001600160a01b0392909216919091179055565b610bb8610ee3565b7f6666bf5bfee463d10a7fc50448047f8a53b7762d7e28fbc5c643182785f3fd3f610be281610ded565b60008211610c025760405162461bcd60e51b815260040161041f90611605565b610c176001600160a01b038416333085610f3c565b6001600160a01b03808516600090815260026020908152604080832093871683529290529081208054849290610c4e908490611640565b92505081905550826001600160a01b0316846001600160a01b03167f8752a472e571a816aea92eec8dae9baf628e840f4929fbcc2d155e6233ff68a784604051610c9a91815260200190565b60405180910390a3506103ae60018055565b600082815260208190526040902060010154610cc781610ded565b6103ae8383610e7e565b610cd9610ee3565b60008111610cf95760405162461bcd60e51b815260040161041f90611605565b3360009081526002602090815260408083206001600160a01b0386168452909152902054811115610d635760405162461bcd60e51b8152602060048201526014602482015273496e73756666696369656e742062616c616e636560601b604482015260640161041f565b3360009081526002602090815260408083206001600160a01b038616845290915281208054839290610d96908490611669565b90915550610db090506001600160a01b0383163383610fad565b6040518181526001600160a01b0383169033907fd1c19fbcd4551a5edfb66d43d2e337c04837afda3482b42bdf569a8fccdae5fb906020016104e4565b610df78133610fdd565b50565b610e048282610b0c565b610432576000828152602081815260408083206001600160a01b03851684529091529020805460ff19166001179055610e3a3390565b6001600160a01b0316816001600160a01b0316837f2f8788117e7eff1d82e926ec794901d17c78024a50270940304540a733656f0d60405160405180910390a45050565b610e888282610b0c565b15610432576000828152602081815260408083206001600160a01b0385168085529252808320805460ff1916905551339285917ff6391f5c32d9c69d2a47ea670b442974b53935d1edc7fd64eb21e047a839171b9190a45050565b600260015403610f355760405162461bcd60e51b815260206004820152601f60248201527f5265656e7472616e637947756172643a207265656e7472616e742063616c6c00604482015260640161041f565b6002600155565b6040516001600160a01b0380851660248301528316604482015260648101829052610fa79085906323b872dd60e01b906084015b60408051601f198184030181529190526020810180516001600160e01b03166001600160e01b031990931692909217909152611036565b50505050565b6040516001600160a01b0383166024820152604481018290526103ae90849063a9059cbb60e01b90606401610f70565b610fe78282610b0c565b61043257610ff48161110b565b610fff83602061111d565b6040516020016110109291906116b9565b60408051601f198184030181529082905262461bcd60e51b825261041f9160040161172e565b600061108b826040518060400160405280602081526020017f5361666545524332303a206c6f772d6c6576656c2063616c6c206661696c6564815250856001600160a01b03166112c09092919063ffffffff16565b90508051600014806110ac5750808060200190518101906110ac9190611761565b6103ae5760405162461bcd60e51b815260206004820152602a60248201527f5361666545524332303a204552433230206f7065726174696f6e20646964206e6044820152691bdd081cdd58d8d9595960b21b606482015260840161041f565b60606103836001600160a01b03831660145b6060600061112c836002611783565b611137906002611640565b67ffffffffffffffff81111561114f5761114f61179a565b6040519080825280601f01601f191660200182016040528015611179576020820181803683370190505b509050600360fc1b8160008151811061119457611194611653565b60200101906001600160f81b031916908160001a905350600f60fb1b816001815181106111c3576111c3611653565b60200101906001600160f81b031916908160001a90535060006111e7846002611783565b6111f2906001611640565b90505b600181111561126a576f181899199a1a9b1b9c1cb0b131b232b360811b85600f166010811061122657611226611653565b1a60f81b82828151811061123c5761123c611653565b60200101906001600160f81b031916908160001a90535060049490941c93611263816117b0565b90506111f5565b5083156112b95760405162461bcd60e51b815260206004820181905260248201527f537472696e67733a20686578206c656e67746820696e73756666696369656e74604482015260640161041f565b9392505050565b60606112cf84846000856112d7565b949350505050565b6060824710156113385760405162461bcd60e51b815260206004820152602660248201527f416464726573733a20696e73756666696369656e742062616c616e636520666f6044820152651c8818d85b1b60d21b606482015260840161041f565b600080866001600160a01b0316858760405161135491906117c7565b60006040518083038185875af1925050503d8060008114611391576040519150601f19603f3d011682016040523d82523d6000602084013e611396565b606091505b50915091506113a7878383876113b2565b979650505050505050565b6060831561142157825160000361141a576001600160a01b0385163b61141a5760405162461bcd60e51b815260206004820152601d60248201527f416464726573733a2063616c6c20746f206e6f6e2d636f6e7472616374000000604482015260640161041f565b50816112cf565b6112cf83838151156114365781518083602001fd5b8060405162461bcd60e51b815260040161041f919061172e565b60006020828403121561146257600080fd5b81356001600160e01b0319811681146112b957600080fd5b60006020828403121561148c57600080fd5b5035919050565b80356001600160a01b03811681146114aa57600080fd5b919050565b600080604083850312156114c257600080fd5b823591506114d260208401611493565b90509250929050565b600080604083850312156114ee57600080fd5b6114f783611493565b946020939093013593505050565b60008060006040848603121561151a57600080fd5b83359250602084013567ffffffffffffffff8082111561153957600080fd5b818601915086601f83011261154d57600080fd5b81358181111561155c57600080fd5b8760208260081b850101111561157157600080fd5b6020830194508093505050509250925092565b60008060006060848603121561159957600080fd5b6115a284611493565b92506115b060208501611493565b9150604084013590509250925092565b6000602082840312156115d257600080fd5b6112b982611493565b600080604083850312156115ee57600080fd5b6115f783611493565b91506114d260208401611493565b6020808252600b908201526a16995c9bc8185b5bdd5b9d60aa1b604082015260600190565b634e487b7160e01b600052601160045260246000fd5b808201808211156103835761038361162a565b634e487b7160e01b600052603260045260246000fd5b818103818111156103835761038361162a565b60006001820161168e5761168e61162a565b5060010190565b60005b838110156116b0578181015183820152602001611698565b50506000910152565b7f416363657373436f6e74726f6c3a206163636f756e74200000000000000000008152600083516116f1816017850160208801611695565b7001034b99036b4b9b9b4b733903937b6329607d1b6017918401918201528351611722816028840160208801611695565b01602801949350505050565b602081526000825180602084015261174d816040850160208701611695565b601f01601f19169190910160400192915050565b60006020828403121561177357600080fd5b815180151581146112b957600080fd5b80820281158282048414176103835761038361162a565b634e487b7160e01b600052604160045260246000fd5b6000816117bf576117bf61162a565b506000190190565b600082516117d9818460208701611695565b919091019291505056fea2646970667358221220e12104dace7b88d26861279fd483df8b9c0963acb012fd63c3a4a5a72654653564736f6c63430008140033",
  "linkReferences": {},
  "deployedLinkReferences": {}
}