{
  "_format": "hh-sol-artifact-1",
  "contractName": "VCNToken",
  "sourceName": "contracts/VCNToken.sol",
  "abi": [
    {
      "inputs": [
        {
          "internalType": "address",
          "name": "defaultAdmin",
          "type": "address"
        },
        {
          "internalType": "address",
          "name": "initialMinter",
          "type": "address"
        }
      ],
      "stateMutability": "nonpayable",
      "type": "constructor"
    },
    {
      "inputs": [],
      "name": "InvalidShortString",
      "type": "error"
    },
    {
      "inputs": [
        {
          "internalType": "string",
          "name": "str",
          "type": "string"
        }
      ],
      "name": "StringTooLong",
      "type": "error"
    },
    {
      "anonymous": false,
      "inputs": [
        {
          "indexed": true,
          "internalType": "address",
          "name": "owner",
          "type": "address"
        },
        {
          "indexed": true,
          "internalType": "address",
          "name": "spender",
          "type": "address"
        },
        {
          "indexed": false,
          "internalType": "uint256",
          "name": "value",
          "type": "uint256"
        }
      ],
      "name": "Approval",
      "type": "event"
    },
    {
      "anonymous": false,
      "inputs": [],
      "name": "EIP712DomainChanged",
      "type": "event"
    },
    {
      "anonymous": false,
      "inputs": [
        {
          "indexed": true,
          "internalType": "bytes32",
          "name": "role",
          "type": "bytes32"
        },
        {
          "indexed": true,
          "internalType": "bytes32",
          "name": "previousAdminRole",
          "type": "bytes32"
        },
        {
          "indexed": true,
          "internalType": "bytes32",
          "name": "newAdminRole",
          "type": "bytes32"
        }
      ],
      "name": "RoleAdminChanged",
      "type": "event"
    },
    {
      "anonymous": false,
      "inputs": [
        {
          "indexed": true,
          "internalType": "bytes32",
          "name": "role",
          "type": "bytes32"
        },
        {
          "indexed": true,
          "internalType": "address",
          "name": "account",
          "type": "address"
        },
        {
          "indexed": true,
          "internalType": "address",
          "name": "sender",
          "type": "address"
        }
      ],
      "name": "RoleGranted",
      "type": "event"
    },
    {
      "anonymous": false,
      "inputs": [
        {
          "indexed": true,
          "internalType": "bytes32",
          "name": "role",
          "type": "bytes32"
        },
        {
          "indexed": true,
          "internalType": "address",
          "name": "account",
          "type": "address"
        },
        {
          "indexed": true,
          "internalType": "address",
          "name": "sender",
          "type": "address"
        }
      ],
      "name": "RoleRevoked",
      "type": "event"
    },
    {
      "anonymous": false,
      "inputs": [
        {
          "indexed": true,
          "internalType": "address",
          "name": "from",
          "type": "address"
        },
        {
          "indexed": true,
          "internalType": "address",
          "name": "to",
          "type": "address"
        },
        {
          "indexed": false,
          "internalType": "uint256",
          "name": "value",
          "type": "uint256"
        }
      ],
      "name": "Transfer",
      "type": "event"
    },
    {
      "inputs": [],
      "name": "DEFAULT_ADMIN_ROLE",
      "outputs": [
        {
          "internalType": "bytes32",
          "name": "",
          "type": "bytes32"
        }
      ],
      "stateMutability": "view",
      "type": "function"
    },
    {
      "inputs": [],
      "name": "DOMAIN_SEPARATOR",
      "outputs": [
        {
          "internalType": "bytes32",
          "name": "",
          "type": "bytes32"
        }
      ],
      "stateMutability": "view",
      "type": "function"
    },
    {
      "inputs": [],
      "name": "MAX_SUPPLY",
      "outputs": [
        {
          "internalType": "uint256",
          "name": "",
          "type": "uint256"
        }
      ],
      "stateMutability": "view",
      "type": "function"
    },
    {
      "inputs": [],
      "name": "MINTER_ROLE",
      "outputs": [
        {
          "internalType": "bytes32",
          "name": "",
          "type": "bytes32"
        }
      ],
      "stateMutability": "view",
      "type": "function"
    },
    {
      "inputs": [
        {
          "internalType": "address",
          "name": "owner",
          "type": "address"
        },
        {
          "internalType": "address",
          "name": "spender",
          "type": "address"
        }
      ],
      "name": "allowance",
      "outputs": [
        {
          "internalType": "uint256",
          "name": "",
          "type": "uint256"
        }
      ],
      "stateMutability": "view",
      "type": "function"
    },
    {
      "inputs": [
        {
          "internalType": "address",
          "name": "spender",
          "type": "address"
        },
        {
          "internalType": "uint256",
          "name": "amount",
          "type": "uint256"
        }
      ],
      "name": "approve",
      "outputs": [
        {
          "internalType": "bool",
          "name": "",
          "type": "bool"
        }
      ],
      "stateMutability": "nonpayable",
      "type": "function"
    },
    {
      "inputs": [
        {
          "internalType": "address",
          "name": "account",
          "type": "address"
        }
      ],
      "name": "balanceOf",
      "outputs": [
        {
          "internalType": "uint256",
          "name": "",
          "type": "uint256"
        }
      ],
      "stateMutability": "view",
      "type": "function"
    },
    {
      "inputs": [
        {
          "internalType": "uint256",
          "name": "amount",
          "type": "uint256"
        }
      ],
      "name": "burn",
      "outputs": [],
      "stateMutability": "nonpayable",
      "type": "function"
    },
    {
      "inputs": [
        {
          "internalType": "address",
          "name": "account",
          "type": "address"
        },
        {
          "internalType": "uint256",
          "name": "amount",
          "type": "uint256"
        }
      ],
      "name": "burnFrom",
      "outputs": [],
      "stateMutability": "nonpayable",
      "type": "function"
    },
    {
      "inputs": [],
      "name": "decimals",
      "outputs": [
        {
          "internalType": "uint8",
          "name": "",
          "type": "uint8"
        }
      ],
      "stateMutability": "view",
      "type": "function"
    },
    {
      "inputs": [
        {
          "internalType": "address",
          "name": "spender",
          "type": "address"
        },
        {
          "internalType": "uint256",
          "name": "subtractedValue",
          "type": "uint256"
        }
      ],
      "name": "decreaseAllowance",
      "outputs": [
        {
          "internalType": "bool",
          "name": "",
          "type": "bool"
        }
      ],
      "stateMutability": "nonpayable",
      "type": "function"
    },
    {
      "inputs": [],
      "name": "eip712Domain",
      "outputs": [
        {
          "internalType": "bytes1",
          "name": "fields",
          "type": "bytes1"
        },
        {
          "internalType": "string",
          "name": "name",
          "type": "string"
        },
        {
          "internalType": "string",
          "name": "version",
          "type": "string"
        },
        {
          "internalType": "uint256",
          "name": "chainId",
          "type": "uint256"
        },
        {
          "internalType": "address",
          "name": "verifyingContract",
          "type": "address"
        },
        {
          "internalType": "bytes32",
          "name": "salt",
          "type": "bytes32"
        },
        {
          "internalType": "uint256[]",
          "name": "extensions",
          "type": "uint256[]"
        }
      ],
      "stateMutability": "view",
      "type": "function"
    },
    {
      "inputs": [
        {
          "internalType": "bytes32",
          "name": "role",
          "type": "bytes32"
        }
      ],
      "name": "getRoleAdmin",
      "outputs": [
        {
          "internalType": "bytes32",
          "name": "",
          "type": "bytes32"
        }
      ],
      "stateMutability": "view",
      "type": "function"
    },
    {
      "inputs": [
        {
          "internalType": "bytes32",
          "name": "role",
          "type": "bytes32"
        },
        {
          "internalType": "address",
          "name": "account",
          "type": "address"
        }
      ],
      "name": "grantRole",
      "outputs": [],
      "stateMutability": "nonpayable",
      "type": "function"
    },
    {
      "inputs": [
        {
          "internalType": "bytes32",
          "name": "role",
          "type": "bytes32"
        },
        {
          "internalType": "address",
          "name": "account",
          "type": "address"
        }
      ],
      "name": "hasRole",
      "outputs": [
        {
          "internalType": "bool",
          "name": "",
          "type": "bool"
        }
      ],
      "stateMutability": "view",
      "type": "function"
    },
    {
      "inputs": [
        {
          "internalType": "address",
          "name": "spender",
          "type": "address"
        },
        {
          "internalType": "uint256",
          "name": "addedValue",
          "type": "uint256"
        }
      ],
      "name": "increaseAllowance",
      "outputs": [
        {
          "internalType": "bool",
          "name": "",
          "type": "bool"
        }
      ],
      "stateMutability": "nonpayable",
      "type": "function"
    },
    {
      "inputs": [
        {
          "internalType": "address",
          "name": "to",
          "type": "address"
        },
        {
          "internalType": "uint256",
          "name": "amount",
          "type": "uint256"
        }
      ],
      "name": "mint",
      "outputs": [],
      "stateMutability": "nonpayable",
      "type": "function"
    },
    {
      "inputs": [],
      "name": "name",
      "outputs": [
        {
          "internalType": "string",
          "name": "",
          "type": "string"
        }
      ],
      "stateMutability": "view",
      "type": "function"
    },
    {
      "inputs": [
        {
          "internalType": "address",
          "name": "owner",
          "type": "address"
        }
      ],
      "name": "nonces",
      "outputs": [
        {
          "internalType": "uint256",
          "name": "",
          "type": "uint256"
        }
      ],
      "stateMutability": "view",
      "type": "function"
    },
    {
      "inputs": [
        {
          "internalType": "address",
          "name": "owner",
          "type": "address"
        },
        {
          "internalType": "address",
          "name": "spender",
          "type": "address"
        },
        {
          "internalType": "uint256",
          "name": "value",
          "type": "uint256"
        },
        {
          "internalType": "uint256",
          "name": "deadline",
          "type": "uint256"
        },
        {
          "internalType": "uint8",
          "name": "v",
          "type": "uint8"
        },
        {
          "internalType": "bytes32",
          "name": "r",
          "type": "bytes32"
        },
        {
          "internalType": "bytes32",
          "name": "s",
          "type": "bytes32"
        }
      ],
      "name": "permit",
      "outputs": [],
      "stateMutability": "nonpayable",
      "type": "function"
    },
    {
      "inputs": [
        {
          "internalType": "bytes32",
          "name": "role",
          "type": "bytes32"
        },
        {
          "internalType": "address",
          "name": "account",
          "type": "address"
        }
      ],
      "name": "renounceRole",
      "outputs": [],
      "stateMutability": "nonpayable",
      "type": "function"
    },
    {
      "inputs": [
        {
          "internalType": "bytes32",
          "name": "role",
          "type": "bytes32"
        },
        {
          "internalType": "address",
          "name": "account",
          "type": "address"
        }
      ],
      "name": "revokeRole",
      "outputs": [],
      "stateMutability": "nonpayable",
      "type": "function"
    },
    {
      "inputs": [
        {
          "internalType": "bytes4",
          "name": "interfaceId",
          "type": "bytes4"
        }
      ],
      "name": "supportsInterface",
      "outputs": [
        {
          "internalType": "bool",
          "name": "",
          "type": "bool"
        }
      ],
      "stateMutability": "view",
      "type": "function"
    },
    {
      "inputs": [],
      "name": "symbol",
      "outputs": [
        {
          "internalType": "string",
          "name": "",
          "type": "string"
        }
      ],
      "stateMutability": "view",
      "type": "function"
    },
    {
      "inputs": [],
      "name": "totalSupply",
      "outputs": [
        {
          "internalType": "uint256",
          "name": "",
          "type": "uint256"
        }
      ],
      "stateMutability": "view",
      "type": "function"
    },
    {
      "inputs": [
        {
          "internalType": "address",
          "name": "to",
          "type": "address"
        },
        {
          "internalType": "uint256",
          "name": "amount",
          "type": "uint256"
        }
      ],
      "name": "transfer",
      "outputs": [
        {
          "internalType": "bool",
          "name": "",
          "type": "bool"
        }
      ],
      "stateMutability": "nonpayable",
      "type": "function"
    },
    {
      "inputs": [
        {
          "internalType": "address",
          "name": "from",
          "type": "address"
        },
        {
          "internalType": "address",
          "name": "to",
          "type": "address"
        },
        {
          "internalType": "uint256",
          "name": "amount",
          "type": "uint256"
        }
      ],
      "name": "transferFrom",
      "outputs": [
        {
          "internalType": "bool",
          "name": "",
          "type": "bool"
        }
      ],
      "stateMutability": "nonpayable",
      "type": "function"
    }
  ],
  "bytecode": "0x6101606040523480156200001257600080fd5b506040516200215e3803806200215e833981016040819052620000359162000400565b604051806040016040528060128152602001712b34b9b4b7b71021b430b4b7102a37b5b2b760711b81525080604051806040016040528060018152602001603160f81b815250604051806040016040528060128152602001712b34b9b4b7b71021b430b4b7102a37b5b2b760711b815250604051806040016040528060038152602001622b21a760e91b8152508160039081620000d39190620004dc565b506004620000e28282620004dc565b50620000f491508390506005620001f6565b6101205262000105816006620001f6565b61014052815160208084019190912060e052815190820120610100524660a0526200019360e05161010051604080517f8b73c3c69bb8fe3d512ecc4cf759cc79239f7b179b0ffacaa9a75d522b39400f60208201529081019290925260608201524660808201523060a082015260009060c00160405160208183030381529060405280519060200120905090565b60805250503060c05250620001aa6000836200022f565b620001d67f9f2df0fed2c77648de5860a4cc508cd0818c85b8b8a1ab4ceeef8d981c8956a6826200022f565b620001ee826b0cecb8f27f4200f3a0000000620002d4565b50506200063f565b600060208351101562000216576200020e836200039b565b905062000229565b81620002238482620004dc565b5060ff90505b92915050565b60008281526009602090815260408083206001600160a01b038516845290915290205460ff16620002d05760008281526009602090815260408083206001600160a01b03851684529091529020805460ff191660011790556200028f3390565b6001600160a01b0316816001600160a01b0316837f2f8788117e7eff1d82e926ec794901d17c78024a50270940304540a733656f0d60405160405180910390a45b5050565b6001600160a01b038216620003305760405162461bcd60e51b815260206004820152601f60248201527f45524332303a206d696e7420746f20746865207a65726f20616464726573730060448201526064015b60405180910390fd5b8060026000828254620003449190620005a8565b90915550506001600160a01b038216600081815260208181526040808320805486019055518481527fddf252ad1be2c89b69c2b068fc378daa952ba7f163c4a11628f55a4df523b3ef910160405180910390a35050565b600080829050601f81511115620003c9578260405163305a27a960e01b8152600401620003279190620005ca565b8051620003d6826200061a565b179392505050565b505050565b80516001600160a01b0381168114620003fb57600080fd5b919050565b600080604083850312156200041457600080fd5b6200041f83620003e3565b91506200042f60208401620003e3565b90509250929050565b634e487b7160e01b600052604160045260246000fd5b600181811c908216806200046357607f821691505b6020821081036200048457634e487b7160e01b600052602260045260246000fd5b50919050565b601f821115620003de57600081815260208120601f850160051c81016020861015620004b35750805b601f850160051c820191505b81811015620004d457828155600101620004bf565b505050505050565b81516001600160401b03811115620004f857620004f862000438565b62000510816200050984546200044e565b846200048a565b602080601f8311600181146200054857600084156200052f5750858301515b600019600386901b1c1916600185901b178555620004d4565b600085815260208120601f198616915b82811015620005795788860151825594840194600190910190840162000558565b5085821015620005985787850151600019600388901b60f8161c191681555b5050505050600190811b01905550565b808201808211156200022957634e487b7160e01b600052601160045260246000fd5b600060208083528351808285015260005b81811015620005f957858101830151858201604001528201620005db565b506000604082860101526040601f19601f8301168501019250505092915050565b80516020808301519190811015620004845760001960209190910360031b1b16919050565b60805160a05160c05160e051610100516101205161014051611ac46200069a60003960006106e3015260006106b801526000610e5601526000610e2e01526000610d8901526000610db301526000610ddd0152611ac46000f3fe608060405234801561001057600080fd5b50600436106101a95760003560e01c806342966c68116100f9578063a217fddf11610097578063d505accf11610071578063d505accf14610384578063d539139314610397578063d547741f146103be578063dd62ed3e146103d157600080fd5b8063a217fddf14610356578063a457c2d71461035e578063a9059cbb1461037157600080fd5b80637ecebe00116100d35780637ecebe001461030d57806384b0196e1461032057806391d148541461033b57806395d89b411461034e57600080fd5b806342966c68146102be57806370a08231146102d157806379cc6790146102fa57600080fd5b80632f2ff15d116101665780633644e515116101405780633644e5151461027d57806336568abe14610285578063395093511461029857806340c10f19146102ab57600080fd5b80632f2ff15d14610246578063313ce5671461025b57806332cb6b0c1461026a57600080fd5b806301ffc9a7146101ae57806306fdde03146101d6578063095ea7b3146101eb57806318160ddd146101fe57806323b872dd14610210578063248a9ca314610223575b600080fd5b6101c16101bc3660046116aa565b6103e4565b60405190151581526020015b60405180910390f35b6101de61041b565b6040516101cd9190611724565b6101c16101f9366004611753565b6104ad565b6002545b6040519081526020016101cd565b6101c161021e36600461177d565b6104c5565b6102026102313660046117b9565b60009081526009602052604090206001015490565b6102596102543660046117d2565b6104e9565b005b604051601281526020016101cd565b6102026b204fce5e3e2502611000000081565b610202610513565b6102596102933660046117d2565b610522565b6101c16102a6366004611753565b6105a5565b6102596102b9366004611753565b6105c7565b6102596102cc3660046117b9565b61066a565b6102026102df3660046117fe565b6001600160a01b031660009081526020819052604090205490565b610259610308366004611753565b610677565b61020261031b3660046117fe565b61068c565b6103286106aa565b6040516101cd9796959493929190611819565b6101c16103493660046117d2565b610733565b6101de61075e565b610202600081565b6101c161036c366004611753565b61076d565b6101c161037f366004611753565b6107e8565b6102596103923660046118af565b6107f6565b6102027f9f2df0fed2c77648de5860a4cc508cd0818c85b8b8a1ab4ceeef8d981c8956a681565b6102596103cc3660046117d2565b61095a565b6102026103df366004611922565b61097f565b60006001600160e01b03198216637965db0b60e01b148061041557506301ffc9a760e01b6001600160e01b03198316145b92915050565b60606003805461042a9061194c565b80601f01602080910402602001604051908101604052809291908181526020018280546104569061194c565b80156104a35780601f10610478576101008083540402835291602001916104a3565b820191906000526020600020905b81548152906001019060200180831161048657829003601f168201915b5050505050905090565b6000336104bb8185856109aa565b5060019392505050565b6000336104d3858285610ace565b6104de858585610b48565b506001949350505050565b60008281526009602052604090206001015461050481610cec565b61050e8383610cf6565b505050565b600061051d610d7c565b905090565b6001600160a01b03811633146105975760405162461bcd60e51b815260206004820152602f60248201527f416363657373436f6e74726f6c3a2063616e206f6e6c792072656e6f756e636560448201526e103937b632b9903337b91039b2b63360891b60648201526084015b60405180910390fd5b6105a18282610ea7565b5050565b6000336104bb8185856105b8838361097f565b6105c29190611996565b6109aa565b7f9f2df0fed2c77648de5860a4cc508cd0818c85b8b8a1ab4ceeef8d981c8956a66105f181610cec565b6b204fce5e3e250261100000008261060860025490565b6106129190611996565b11156106605760405162461bcd60e51b815260206004820152601860248201527f56434e3a204d617820737570706c792065786365656465640000000000000000604482015260640161058e565b61050e8383610f0e565b6106743382610fcd565b50565b610682823383610ace565b6105a18282610fcd565b6001600160a01b038116600090815260076020526040812054610415565b6000606080828080836106de7f000000000000000000000000000000000000000000000000000000000000000060056110ff565b6107097f000000000000000000000000000000000000000000000000000000000000000060066110ff565b60408051600080825260208201909252600f60f81b9b939a50919850469750309650945092509050565b60009182526009602090815260408084206001600160a01b0393909316845291905290205460ff1690565b60606004805461042a9061194c565b6000338161077b828661097f565b9050838110156107db5760405162461bcd60e51b815260206004820152602560248201527f45524332303a2064656372656173656420616c6c6f77616e63652062656c6f77604482015264207a65726f60d81b606482015260840161058e565b6104de82868684036109aa565b6000336104bb818585610b48565b834211156108465760405162461bcd60e51b815260206004820152601d60248201527f45524332305065726d69743a206578706972656420646561646c696e65000000604482015260640161058e565b60007f6e71edae12b1b97f4d1f60370fef10105fa2faae0126114a169c64845d6126c98888886108758c6111aa565b6040805160208101969096526001600160a01b0394851690860152929091166060840152608083015260a082015260c0810186905260e00160405160208183030381529060405280519060200120905060006108d0826111d2565b905060006108e0828787876111ff565b9050896001600160a01b0316816001600160a01b0316146109435760405162461bcd60e51b815260206004820152601e60248201527f45524332305065726d69743a20696e76616c6964207369676e61747572650000604482015260640161058e565b61094e8a8a8a6109aa565b50505050505050505050565b60008281526009602052604090206001015461097581610cec565b61050e8383610ea7565b6001600160a01b03918216600090815260016020908152604080832093909416825291909152205490565b6001600160a01b038316610a0c5760405162461bcd60e51b8152602060048201526024808201527f45524332303a20617070726f76652066726f6d20746865207a65726f206164646044820152637265737360e01b606482015260840161058e565b6001600160a01b038216610a6d5760405162461bcd60e51b815260206004820152602260248201527f45524332303a20617070726f766520746f20746865207a65726f206164647265604482015261737360f01b606482015260840161058e565b6001600160a01b0383811660008181526001602090815260408083209487168084529482529182902085905590518481527f8c5be1e5ebec7d5bd14f71427d1e84f3dd0314c0f7b2291e5b200ac8c7c3b925910160405180910390a3505050565b6000610ada848461097f565b90506000198114610b425781811015610b355760405162461bcd60e51b815260206004820152601d60248201527f45524332303a20696e73756666696369656e7420616c6c6f77616e6365000000604482015260640161058e565b610b4284848484036109aa565b50505050565b6001600160a01b038316610bac5760405162461bcd60e51b815260206004820152602560248201527f45524332303a207472616e736665722066726f6d20746865207a65726f206164604482015264647265737360d81b606482015260840161058e565b6001600160a01b038216610c0e5760405162461bcd60e51b815260206004820152602360248201527f45524332303a207472616e7366657220746f20746865207a65726f206164647260448201526265737360e81b606482015260840161058e565b6001600160a01b03831660009081526020819052604090205481811015610c865760405162461bcd60e51b815260206004820152602660248201527f45524332303a207472616e7366657220616d6f756e7420657863656564732062604482015265616c616e636560d01b606482015260840161058e565b6001600160a01b03848116600081815260208181526040808320878703905593871680835291849020805487019055925185815290927fddf252ad1be2c89b69c2b068fc378daa952ba7f163c4a11628f55a4df523b3ef910160405180910390a3610b42565b6106748133611227565b610d008282610733565b6105a15760008281526009602090815260408083206001600160a01b03851684529091529020805460ff19166001179055610d383390565b6001600160a01b0316816001600160a01b0316837f2f8788117e7eff1d82e926ec794901d17c78024a50270940304540a733656f0d60405160405180910390a45050565b6000306001600160a01b037f000000000000000000000000000000000000000000000000000000000000000016148015610dd557507f000000000000000000000000000000000000000000000000000000000000000046145b15610dff57507f000000000000000000000000000000000000000000000000000000000000000090565b61051d604080517f8b73c3c69bb8fe3d512ecc4cf759cc79239f7b179b0ffacaa9a75d522b39400f60208201527f0000000000000000000000000000000000000000000000000000000000000000918101919091527f000000000000000000000000000000000000000000000000000000000000000060608201524660808201523060a082015260009060c00160405160208183030381529060405280519060200120905090565b610eb18282610733565b156105a15760008281526009602090815260408083206001600160a01b0385168085529252808320805460ff1916905551339285917ff6391f5c32d9c69d2a47ea670b442974b53935d1edc7fd64eb21e047a839171b9190a45050565b6001600160a01b038216610f645760405162461bcd60e51b815260206004820152601f60248201527f45524332303a206d696e7420746f20746865207a65726f206164647265737300604482015260640161058e565b8060026000828254610f769190611996565b90915550506001600160a01b038216600081815260208181526040808320805486019055518481527fddf252ad1be2c89b69c2b068fc378daa952ba7f163c4a11628f55a4df523b3ef910160405180910390a35050565b6001600160a01b03821661102d5760405162461bcd60e51b815260206004820152602160248201527f45524332303a206275726e2066726f6d20746865207a65726f206164647265736044820152607360f81b606482015260840161058e565b6001600160a01b038216600090815260208190526040902054818110156110a15760405162461bcd60e51b815260206004820152602260248201527f45524332303a206275726e20616d6f756e7420657863656564732062616c616e604482015261636560f01b606482015260840161058e565b6001600160a01b0383166000818152602081815260408083208686039055600280548790039055518581529192917fddf252ad1be2c89b69c2b068fc378daa952ba7f163c4a11628f55a4df523b3ef910160405180910390a3505050565b606060ff83146111195761111283611280565b9050610415565b8180546111259061194c565b80601f01602080910402602001604051908101604052809291908181526020018280546111519061194c565b801561119e5780601f106111735761010080835404028352916020019161119e565b820191906000526020600020905b81548152906001019060200180831161118157829003601f168201915b50505050509050610415565b6001600160a01b03811660009081526007602052604090208054600181018255905b50919050565b60006104156111df610d7c565b8360405161190160f01b8152600281019290925260228201526042902090565b6000806000611210878787876112bf565b9150915061121d81611383565b5095945050505050565b6112318282610733565b6105a15761123e816114cd565b6112498360206114df565b60405160200161125a9291906119bf565b60408051601f198184030181529082905262461bcd60e51b825261058e91600401611724565b6060600061128d83611682565b604080516020808252818301909252919250600091906020820181803683375050509182525060208101929092525090565b6000807f7fffffffffffffffffffffffffffffff5d576e7357a4501ddfe92f46681b20a08311156112f6575060009050600361137a565b6040805160008082526020820180845289905260ff881692820192909252606081018690526080810185905260019060a0016020604051602081039080840390855afa15801561134a573d6000803e3d6000fd5b5050604051601f1901519150506001600160a01b0381166113735760006001925092505061137a565b9150600090505b94509492505050565b600081600481111561139757611397611a34565b0361139f5750565b60018160048111156113b3576113b3611a34565b036114005760405162461bcd60e51b815260206004820152601860248201527f45434453413a20696e76616c6964207369676e61747572650000000000000000604482015260640161058e565b600281600481111561141457611414611a34565b036114615760405162461bcd60e51b815260206004820152601f60248201527f45434453413a20696e76616c6964207369676e6174757265206c656e67746800604482015260640161058e565b600381600481111561147557611475611a34565b036106745760405162461bcd60e51b815260206004820152602260248201527f45434453413a20696e76616c6964207369676e6174757265202773272076616c604482015261756560f01b606482015260840161058e565b60606104156001600160a01b03831660145b606060006114ee836002611a4a565b6114f9906002611996565b67ffffffffffffffff811115611511576115116119a9565b6040519080825280601f01601f19166020018201604052801561153b576020820181803683370190505b509050600360fc1b8160008151811061155657611556611a61565b60200101906001600160f81b031916908160001a905350600f60fb1b8160018151811061158557611585611a61565b60200101906001600160f81b031916908160001a90535060006115a9846002611a4a565b6115b4906001611996565b90505b600181111561162c576f181899199a1a9b1b9c1cb0b131b232b360811b85600f16601081106115e8576115e8611a61565b1a60f81b8282815181106115fe576115fe611a61565b60200101906001600160f81b031916908160001a90535060049490941c9361162581611a77565b90506115b7565b50831561167b5760405162461bcd60e51b815260206004820181905260248201527f537472696e67733a20686578206c656e67746820696e73756666696369656e74604482015260640161058e565b9392505050565b600060ff8216601f81111561041557604051632cd44ac360e21b815260040160405180910390fd5b6000602082840312156116bc57600080fd5b81356001600160e01b03198116811461167b57600080fd5b60005b838110156116ef5781810151838201526020016116d7565b50506000910152565b600081518084526117108160208601602086016116d4565b601f01601f19169290920160200192915050565b60208152600061167b60208301846116f8565b80356001600160a01b038116811461174e57600080fd5b919050565b6000806040838503121561176657600080fd5b61176f83611737565b946020939093013593505050565b60008060006060848603121561179257600080fd5b61179b84611737565b92506117a960208501611737565b9150604084013590509250925092565b6000602082840312156117cb57600080fd5b5035919050565b600080604083850312156117e557600080fd5b823591506117f560208401611737565b90509250929050565b60006020828403121561181057600080fd5b61167b82611737565b60ff60f81b881681526000602060e08184015261183960e084018a6116f8565b838103604085015261184b818a6116f8565b606085018990526001600160a01b038816608086015260a0850187905284810360c0860152855180825283870192509083019060005b8181101561189d57835183529284019291840191600101611881565b50909c9b505050505050505050505050565b600080600080600080600060e0888a0312156118ca57600080fd5b6118d388611737565b96506118e160208901611737565b95506040880135945060608801359350608088013560ff8116811461190557600080fd5b9699959850939692959460a0840135945060c09093013592915050565b6000806040838503121561193557600080fd5b61193e83611737565b91506117f560208401611737565b600181811c9082168061196057607f821691505b6020821081036111cc57634e487b7160e01b600052602260045260246000fd5b634e487b7160e01b600052601160045260246000fd5b8082018082111561041557610415611980565b634e487b7160e01b600052604160045260246000fd5b7f416363657373436f6e74726f6c3a206163636f756e74200000000000000000008152600083516119f78160178501602088016116d4565b7001034b99036b4b9b9b4b733903937b6329607d1b6017918401918201528351611a288160288401602088016116d4565b01602801949350505050565b634e487b7160e01b600052602160045260246000fd5b808202811582820484141761041557610415611980565b634e487b7160e01b600052603260045260246000fd5b600081611a8657611a86611980565b50600019019056fea2646970667358221220fa20c3d98e166e52102e84ca4ad3e237af1b7f65284db598574d2cd75af0865564736f6c63430008140033",
  "linkReferences": {},
  "deployedLinkReferences": {}
}