{
  "_format": "hh-sol-artifact-1",
  "contractName": "BridgeStaking",
  "sourceName": "contracts/BridgeStaking.sol",
  "abi": [
    {
      "inputs": [
        {
          "internalType": "address",
          "name": "_stakingToken",
          "type": "address"
        }
      ],
      "stateMutability": "nonpayable",
      "type": "constructor"
    },
    {
      "anonymous": false,
      "inputs": [
        {
          "indexed": true,
          "internalType": "address",
          "name": "oldBridge",
          "type": "address"
        },
        {
          "indexed": true,
          "internalType": "address",
          "name": "newBridge",
          "type": "address"
        }
      ],
      "name": "BridgeUpdated",
      "type": "event"
    },
    {
      "anonymous": false,
      "inputs": [
        {
          "indexed": false,
          "internalType": "uint256",
          "name": "amount",
          "type": "uint256"
        }
      ],
      "name": "FeesDeposited",
      "type": "event"
    },
    {
      "anonymous": false,
      "inputs": [
        {
          "indexed": true,
          "internalType": "address",
          "name": "previousOwner",
          "type": "address"
        },
        {
          "indexed": true,
          "internalType": "address",
          "name": "newOwner",
          "type": "address"
        }
      ],
      "name": "OwnershipTransferred",
      "type": "event"
    },
    {
      "anonymous": false,
      "inputs": [
        {
          "indexed": false,
          "internalType": "uint256",
          "name": "amount",
          "type": "uint256"
        },
        {
          "indexed": false,
          "internalType": "uint256",
          "name": "newBalance",
          "type": "uint256"
        }
      ],
      "name": "RewardPoolFunded",
      "type": "event"
    },
    {
      "anonymous": false,
      "inputs": [
        {
          "indexed": false,
          "internalType": "uint256",
          "name": "amount",
          "type": "uint256"
        },
        {
          "indexed": false,
          "internalType": "uint256",
          "name": "newBalance",
          "type": "uint256"
        }
      ],
      "name": "RewardPoolWithdrawn",
      "type": "event"
    },
    {
      "anonymous": false,
      "inputs": [
        {
          "indexed": true,
          "internalType": "address",
          "name": "validator",
          "type": "address"
        },
        {
          "indexed": false,
          "internalType": "uint256",
          "name": "amount",
          "type": "uint256"
        }
      ],
      "name": "RewardsClaimed",
      "type": "event"
    },
    {
      "anonymous": false,
      "inputs": [
        {
          "indexed": false,
          "internalType": "uint256",
          "name": "accRewardPerShare",
          "type": "uint256"
        },
        {
          "indexed": false,
          "internalType": "uint256",
          "name": "totalRewardsPaid",
          "type": "uint256"
        }
      ],
      "name": "RewardsUpdated",
      "type": "event"
    },
    {
      "anonymous": false,
      "inputs": [
        {
          "indexed": true,
          "internalType": "address",
          "name": "validator",
          "type": "address"
        },
        {
          "indexed": false,
          "internalType": "uint256",
          "name": "amount",
          "type": "uint256"
        },
        {
          "indexed": true,
          "internalType": "address",
          "name": "slasher",
          "type": "address"
        }
      ],
      "name": "Slashed",
      "type": "event"
    },
    {
      "anonymous": false,
      "inputs": [
        {
          "indexed": true,
          "internalType": "address",
          "name": "validator",
          "type": "address"
        },
        {
          "indexed": false,
          "internalType": "uint256",
          "name": "amount",
          "type": "uint256"
        },
        {
          "indexed": false,
          "internalType": "uint256",
          "name": "totalStaked",
          "type": "uint256"
        }
      ],
      "name": "Staked",
      "type": "event"
    },
    {
      "anonymous": false,
      "inputs": [
        {
          "indexed": false,
          "internalType": "uint256",
          "name": "apyBasisPoints",
          "type": "uint256"
        }
      ],
      "name": "TargetAPYSet",
      "type": "event"
    },
    {
      "anonymous": false,
      "inputs": [
        {
          "indexed": true,
          "internalType": "address",
          "name": "validator",
          "type": "address"
        },
        {
          "indexed": false,
          "internalType": "uint256",
          "name": "amount",
          "type": "uint256"
        },
        {
          "indexed": false,
          "internalType": "uint256",
          "name": "unlockTime",
          "type": "uint256"
        }
      ],
      "name": "UnstakeRequested",
      "type": "event"
    },
    {
      "anonymous": false,
      "inputs": [
        {
          "indexed": true,
          "internalType": "address",
          "name": "validator",
          "type": "address"
        }
      ],
      "name": "ValidatorActivated",
      "type": "event"
    },
    {
      "anonymous": false,
      "inputs": [
        {
          "indexed": true,
          "internalType": "address",
          "name": "validator",
          "type": "address"
        }
      ],
      "name": "ValidatorDeactivated",
      "type": "event"
    },
    {
      "anonymous": false,
      "inputs": [
        {
          "indexed": true,
          "internalType": "address",
          "name": "validator",
          "type": "address"
        },
        {
          "indexed": false,
          "internalType": "uint256",
          "name": "amount",
          "type": "uint256"
        }
      ],
      "name": "Withdrawn",
      "type": "event"
    },
    {
      "inputs": [],
      "name": "COOLDOWN_PERIOD",
      "outputs": [
        {
          "internalType": "uint256",
          "name": "",
          "type": "uint256"
        }
      ],
      "stateMutability": "view",
      "type": "function"
    },
    {
      "inputs": [],
      "name": "MAX_APY",
      "outputs": [
        {
          "internalType": "uint256",
          "name": "",
          "type": "uint256"
        }
      ],
      "stateMutability": "view",
      "type": "function"
    },
    {
      "inputs": [],
      "name": "MINIMUM_STAKE",
      "outputs": [
        {
          "internalType": "uint256",
          "name": "",
          "type": "uint256"
        }
      ],
      "stateMutability": "view",
      "type": "function"
    },
    {
      "inputs": [],
      "name": "PRECISION",
      "outputs": [
        {
          "internalType": "uint256",
          "name": "",
          "type": "uint256"
        }
      ],
      "stateMutability": "view",
      "type": "function"
    },
    {
      "inputs": [],
      "name": "SLASH_PERCENTAGE",
      "outputs": [
        {
          "internalType": "uint256",
          "name": "",
          "type": "uint256"
        }
      ],
      "stateMutability": "view",
      "type": "function"
    },
    {
      "inputs": [],
      "name": "accRewardPerShare",
      "outputs": [
        {
          "internalType": "uint256",
          "name": "",
          "type": "uint256"
        }
      ],
      "stateMutability": "view",
      "type": "function"
    },
    {
      "inputs": [],
      "name": "bridge",
      "outputs": [
        {
          "internalType": "address",
          "name": "",
          "type": "address"
        }
      ],
      "stateMutability": "view",
      "type": "function"
    },
    {
      "inputs": [],
      "name": "cancelUnstake",
      "outputs": [],
      "stateMutability": "nonpayable",
      "type": "function"
    },
    {
      "inputs": [],
      "name": "claimRewards",
      "outputs": [],
      "stateMutability": "nonpayable",
      "type": "function"
    },
    {
      "inputs": [],
      "name": "currentAPY",
      "outputs": [
        {
          "internalType": "uint256",
          "name": "",
          "type": "uint256"
        }
      ],
      "stateMutability": "view",
      "type": "function"
    },
    {
      "inputs": [
        {
          "internalType": "uint256",
          "name": "amount",
          "type": "uint256"
        }
      ],
      "name": "depositFees",
      "outputs": [],
      "stateMutability": "nonpayable",
      "type": "function"
    },
    {
      "inputs": [],
      "name": "feePool",
      "outputs": [
        {
          "internalType": "uint256",
          "name": "",
          "type": "uint256"
        }
      ],
      "stateMutability": "view",
      "type": "function"
    },
    {
      "inputs": [
        {
          "internalType": "uint256",
          "name": "amount",
          "type": "uint256"
        }
      ],
      "name": "fundRewardPool",
      "outputs": [],
      "stateMutability": "nonpayable",
      "type": "function"
    },
    {
      "inputs": [],
      "name": "getActiveValidators",
      "outputs": [
        {
          "internalType": "address[]",
          "name": "",
          "type": "address[]"
        }
      ],
      "stateMutability": "view",
      "type": "function"
    },
    {
      "inputs": [
        {
          "internalType": "address",
          "name": "account",
          "type": "address"
        }
      ],
      "name": "getPendingUnstake",
      "outputs": [
        {
          "internalType": "uint256",
          "name": "amount",
          "type": "uint256"
        },
        {
          "internalType": "uint256",
          "name": "unlockTime",
          "type": "uint256"
        }
      ],
      "stateMutability": "view",
      "type": "function"
    },
    {
      "inputs": [],
      "name": "getRewardInfo",
      "outputs": [
        {
          "internalType": "uint256",
          "name": "_rewardPool",
          "type": "uint256"
        },
        {
          "internalType": "uint256",
          "name": "_feePool",
          "type": "uint256"
        },
        {
          "internalType": "uint256",
          "name": "_targetAPY",
          "type": "uint256"
        },
        {
          "internalType": "uint256",
          "name": "_totalStaked",
          "type": "uint256"
        },
        {
          "internalType": "uint256",
          "name": "_totalRewardsPaid",
          "type": "uint256"
        }
      ],
      "stateMutability": "view",
      "type": "function"
    },
    {
      "inputs": [
        {
          "internalType": "address",
          "name": "account",
          "type": "address"
        }
      ],
      "name": "getStake",
      "outputs": [
        {
          "internalType": "uint256",
          "name": "",
          "type": "uint256"
        }
      ],
      "stateMutability": "view",
      "type": "function"
    },
    {
      "inputs": [],
      "name": "getValidatorCount",
      "outputs": [
        {
          "internalType": "uint256",
          "name": "",
          "type": "uint256"
        }
      ],
      "stateMutability": "view",
      "type": "function"
    },
    {
      "inputs": [
        {
          "internalType": "address",
          "name": "account",
          "type": "address"
        }
      ],
      "name": "isActiveValidator",
      "outputs": [
        {
          "internalType": "bool",
          "name": "",
          "type": "bool"
        }
      ],
      "stateMutability": "view",
      "type": "function"
    },
    {
      "inputs": [],
      "name": "lastRewardTime",
      "outputs": [
        {
          "internalType": "uint256",
          "name": "",
          "type": "uint256"
        }
      ],
      "stateMutability": "view",
      "type": "function"
    },
    {
      "inputs": [],
      "name": "owner",
      "outputs": [
        {
          "internalType": "address",
          "name": "",
          "type": "address"
        }
      ],
      "stateMutability": "view",
      "type": "function"
    },
    {
      "inputs": [
        {
          "internalType": "address",
          "name": "account",
          "type": "address"
        }
      ],
      "name": "pendingReward",
      "outputs": [
        {
          "internalType": "uint256",
          "name": "",
          "type": "uint256"
        }
      ],
      "stateMutability": "view",
      "type": "function"
    },
    {
      "inputs": [],
      "name": "renounceOwnership",
      "outputs": [],
      "stateMutability": "nonpayable",
      "type": "function"
    },
    {
      "inputs": [
        {
          "internalType": "uint256",
          "name": "amount",
          "type": "uint256"
        }
      ],
      "name": "requestUnstake",
      "outputs": [],
      "stateMutability": "nonpayable",
      "type": "function"
    },
    {
      "inputs": [],
      "name": "rewardPool",
      "outputs": [
        {
          "internalType": "uint256",
          "name": "",
          "type": "uint256"
        }
      ],
      "stateMutability": "view",
      "type": "function"
    },
    {
      "inputs": [
        {
          "internalType": "address",
          "name": "_bridge",
          "type": "address"
        }
      ],
      "name": "setBridge",
      "outputs": [],
      "stateMutability": "nonpayable",
      "type": "function"
    },
    {
      "inputs": [
        {
          "internalType": "uint256",
          "name": "_apyBasisPoints",
          "type": "uint256"
        }
      ],
      "name": "setTargetAPY",
      "outputs": [],
      "stateMutability": "nonpayable",
      "type": "function"
    },
    {
      "inputs": [
        {
          "internalType": "address",
          "name": "validator",
          "type": "address"
        },
        {
          "internalType": "address",
          "name": "challenger",
          "type": "address"
        }
      ],
      "name": "slash",
      "outputs": [
        {
          "internalType": "uint256",
          "name": "slashedAmount",
          "type": "uint256"
        }
      ],
      "stateMutability": "nonpayable",
      "type": "function"
    },
    {
      "inputs": [
        {
          "internalType": "uint256",
          "name": "amount",
          "type": "uint256"
        }
      ],
      "name": "stake",
      "outputs": [],
      "stateMutability": "nonpayable",
      "type": "function"
    },
    {
      "inputs": [],
      "name": "stakingToken",
      "outputs": [
        {
          "internalType": "contract IERC20",
          "name": "",
          "type": "address"
        }
      ],
      "stateMutability": "view",
      "type": "function"
    },
    {
      "inputs": [],
      "name": "targetAPY",
      "outputs": [
        {
          "internalType": "uint256",
          "name": "",
          "type": "uint256"
        }
      ],
      "stateMutability": "view",
      "type": "function"
    },
    {
      "inputs": [],
      "name": "totalRewardsPaid",
      "outputs": [
        {
          "internalType": "uint256",
          "name": "",
          "type": "uint256"
        }
      ],
      "stateMutability": "view",
      "type": "function"
    },
    {
      "inputs": [],
      "name": "totalStaked",
      "outputs": [
        {
          "internalType": "uint256",
          "name": "",
          "type": "uint256"
        }
      ],
      "stateMutability": "view",
      "type": "function"
    },
    {
      "inputs": [
        {
          "internalType": "address",
          "name": "newOwner",
          "type": "address"
        }
      ],
      "name": "transferOwnership",
      "outputs": [],
      "stateMutability": "nonpayable",
      "type": "function"
    },
    {
      "inputs": [
        {
          "internalType": "uint256",
          "name": "",
          "type": "uint256"
        }
      ],
      "name": "validatorList",
      "outputs": [
        {
          "internalType": "address",
          "name": "",
          "type": "address"
        }
      ],
      "stateMutability": "view",
      "type": "function"
    },
    {
      "inputs": [
        {
          "internalType": "address",
          "name": "",
          "type": "address"
        }
      ],
      "name": "validators",
      "outputs": [
        {
          "internalType": "uint256",
          "name": "stakedAmount",
          "type": "uint256"
        },
        {
          "internalType": "uint256",
          "name": "unstakeRequestTime",
          "type": "uint256"
        },
        {
          "internalType": "uint256",
          "name": "unstakeAmount",
          "type": "uint256"
        },
        {
          "internalType": "uint256",
          "name": "rewardDebt",
          "type": "uint256"
        },
        {
          "internalType": "uint256",
          "name": "pendingRewards",
          "type": "uint256"
        },
        {
          "internalType": "bool",
          "name": "isActive",
          "type": "bool"
        }
      ],
      "stateMutability": "view",
      "type": "function"
    },
    {
      "inputs": [],
      "name": "withdraw",
      "outputs": [],
      "stateMutability": "nonpayable",
      "type": "function"
    },
    {
      "inputs": [
        {
          "internalType": "uint256",
          "name": "amount",
          "type": "uint256"
        }
      ],
      "name": "withdrawRewardPool",
      "outputs": [],
      "stateMutability": "nonpayable",
      "type": "function"
    }
  ],
  "bytecode": "0x60a06040523480156200001157600080fd5b50604051620020ba380380620020ba833981016040819052620000349162000104565b6200003f33620000b4565b600180556001600160a01b0381166200009e5760405162461bcd60e51b815260206004820152601560248201527f496e76616c696420746f6b656e20616464726573730000000000000000000000604482015260640160405180910390fd5b6001600160a01b031660805242600a5562000136565b600080546001600160a01b038381166001600160a01b0319831681178455604051919092169283917f8be0079c531659141344cd1fd0a4f28419497f9722a3daafe3b4186f6b6457e09190a35050565b6000602082840312156200011757600080fd5b81516001600160a01b03811681146200012f57600080fd5b9392505050565b608051611f37620001836000396000818161036a015281816105bc0152818161099f01528181610b1301528181610e1f015281816111c5015281816113de01526114c50152611f376000f3fe608060405234801561001057600080fd5b50600436106102325760003560e01c80638da5cb5b11610130578063ae2e933b116100b8578063ebdac0901161007c578063ebdac090146104ba578063f2fde38b146104cd578063f40f0f52146104e0578063f5f8aa95146104f3578063fa52c7d81461050657600080fd5b8063ae2e933b1461046f578063b048e05614610478578063c74cab491461048b578063e6d012e41461049e578063e78cea92146104a757600080fd5b80639a79d32b116100ff5780639a79d32b146104285780639de70258146104305780639f29f13514610445578063a694fc3a1461044d578063aaf5eb681461046057600080fd5b80638da5cb5b146103f25780638dd14802146104035780639231cf7414610416578063939d62371461041f57600080fd5b806366666aa9116101be57806372f702f31161018257806372f702f31461036557806374958e35146103a45780637a766460146103ad5780637aeccce9146103d6578063817b1cd2146103e957600080fd5b806366666aa91461030b578063699c8f33146103145780636e99d52f1461034b5780637071688a14610355578063715018a61461035d57600080fd5b8063372500ab11610205578063372500ab146102ab5780633ccfd60b146102b35780633d92f4e2146102bb57806340550a1c146102c45780634ab179691461030357600080fd5b806308dbbb03146102375780631d583e0d1461025b57806323095721146102705780632f54fe7214610283575b600080fd5b61024869021e19e0c9bab240000081565b6040519081526020015b60405180910390f35b61026e610269366004611cb6565b61057e565b005b61026e61027e366004611cb6565b61063c565b610296610291366004611ceb565b61088a565b60408051928352602083019190915201610252565b61026e6108c8565b61026e610a09565b61024861138881565b6102f36102d2366004611ceb565b6001600160a01b031660009081526003602052604090206005015460ff1690565b6040519015158152602001610252565b61026e610b6c565b61024860065481565b600654600754600b54600554600954604080519586526020860194909452928401919091526060830152608082015260a001610252565b61024862093a8081565b600454610248565b61026e610c61565b61038c7f000000000000000000000000000000000000000000000000000000000000000081565b6040516001600160a01b039091168152602001610252565b61024860095481565b6102486103bb366004611ceb565b6001600160a01b031660009081526003602052604090205490565b6102486103e4366004611d06565b610c73565b61024860055481565b6000546001600160a01b031661038c565b61026e610411366004611ceb565b610ea3565b610248600a5481565b61024860085481565b600b54610248565b610438610f4c565b6040516102529190611d39565b610248603281565b61026e61045b366004611cb6565b6110e1565b610248670de0b6b3a764000081565b61024860075481565b61038c610486366004611cb6565b611321565b61026e610499366004611cb6565b61134b565b610248600b5481565b60025461038c906001600160a01b031681565b61026e6104c8366004611cb6565b61143f565b61026e6104db366004611ceb565b611572565b6102486104ee366004611ceb565b6115e8565b61026e610501366004611cb6565b61170d565b61054f610514366004611ceb565b600360208190526000918252604090912080546001820154600283015493830154600484015460059094015492949193919290919060ff1686565b6040805196875260208701959095529385019290925260608401526080830152151560a082015260c001610252565b61058661179a565b600081116105af5760405162461bcd60e51b81526004016105a690611d86565b60405180910390fd5b6105e46001600160a01b037f0000000000000000000000000000000000000000000000000000000000000000163330846117f4565b80600660008282546105f69190611dc8565b90915550506006546040805183815260208101929092527f5451f0d28a59c1c16a9d7cc5017150d585749eb225366037423f94b85ad94ea791015b60405180910390a150565b3360009081526003602052604090206005015460ff1661069e5760405162461bcd60e51b815260206004820152601760248201527f4e6f7420616e206163746976652076616c696461746f7200000000000000000060448201526064016105a6565b6106a6611865565b6106ae6118be565b336000908152600360205260409020816106da5760405162461bcd60e51b81526004016105a690611d86565b80548211156107205760405162461bcd60e51b8152602060048201526012602482015271496e73756666696369656e74207374616b6560701b60448201526064016105a6565b600061072b336119d8565b9050801561074d57808260040160008282546107479190611dc8565b90915550505b815460009061075d908590611ddb565b905080156107bf5769021e19e0c9bab24000008110156107bf5760405162461bcd60e51b815260206004820152601860248201527f576f756c642064726f702062656c6f77206d696e696d756d000000000000000060448201526064016105a6565b42600184015560028301849055600854670de0b6b3a7640000906107e39083611dee565b6107ed9190611e05565b600384015560008190036108335760058301805460ff1916905560405133907f23d934bfe7f1275bc6fd70432159c9cc1c0075d069f89da6a40f43bfe7a94ed390600090a25b337f57e41df54512c76148b5ba9b643d149752b0d35e493b969bd017d0a3fe5228cf8561086362093a8042611dc8565b6040805192835260208301919091520160405180910390a250505061088760018055565b50565b6001600160a01b038116600090815260036020526040812060028101546001820154839291906108be9062093a8090611dc8565b9250925050915091565b6108d0611865565b6108d86118be565b336000818152600360205260408120600481015490926108f7906119d8565b6109019190611dc8565b9050600081116109495760405162461bcd60e51b81526020600482015260136024820152724e6f207265776172647320746f20636c61696d60681b60448201526064016105a6565b600060048301556008548254670de0b6b3a76400009161096891611dee565b6109729190611e05565b8260030181905550806009600082825461098c9190611dc8565b909155506109c690506001600160a01b037f0000000000000000000000000000000000000000000000000000000000000000163383611a39565b60405181815233907ffc30cddea38e2bf4d6ea7d3f9ed3b6ad7f176419f4963bd81318067a4aee73fe906020015b60405180910390a25050610a0760018055565b565b610a11611865565b3360009081526003602052604090206002810154610a665760405162461bcd60e51b81526020600482015260126024820152714e6f2070656e64696e6720756e7374616b6560701b60448201526064016105a6565b62093a808160010154610a799190611dc8565b421015610ac05760405162461bcd60e51b8152602060048201526015602482015274436f6f6c646f776e206e6f7420636f6d706c65746560581b60448201526064016105a6565b6002810154815481908390600090610ad9908490611ddb565b90915550506000600283018190556001830181905560058054839290610b00908490611ddb565b90915550610b3a90506001600160a01b037f0000000000000000000000000000000000000000000000000000000000000000163383611a39565b60405181815233907f7084f5476618d8e60b11ef0d7d3f06914655adb8793e28ff7f018d4c76d505d5906020016109f4565b610b746118be565b3360009081526003602052604090206002810154610bc95760405162461bcd60e51b81526020600482015260126024820152714e6f2070656e64696e6720756e7374616b6560701b60448201526064016105a6565b600581015460ff16158015610be95750805469021e19e0c9bab240000011155b15610c295760058101805460ff1916600117905560405133907fb2b8c5f713f27009f7a78ec2167999c472e5ee8bc591102da17bc4a6551236c890600090a25b6008548154670de0b6b3a764000091610c4191611dee565b610c4b9190611e05565b6003820155600060028201819055600190910155565b610c6961179a565b610a076000611a6e565b6002546000906001600160a01b03163314610cc75760405162461bcd60e51b815260206004820152601460248201527313db9b1e48189c9a5919d94818d85b8818d85b1b60621b60448201526064016105a6565b610ccf611865565b610cd76118be565b6001600160a01b03831660009081526003602052604090208054610d315760405162461bcd60e51b815260206004820152601160248201527009cde40e6e8c2d6ca40e8de40e6d8c2e6d607b1b60448201526064016105a6565b600060048201558054606490610d4990603290611dee565b610d539190611e05565b915081816000016000828254610d699190611ddb565b90915550506008548154670de0b6b3a764000091610d8691611dee565b610d909190611e05565b81600301819055508160056000828254610daa9190611ddb565b9091555050805469021e19e0c9bab24000001115610e035760058101805460ff191690556040516001600160a01b038516907f23d934bfe7f1275bc6fd70432159c9cc1c0075d069f89da6a40f43bfe7a94ed390600090a25b6001600160a01b03831615610e4657610e466001600160a01b037f0000000000000000000000000000000000000000000000000000000000000000168484611a39565b826001600160a01b0316846001600160a01b03167fd87c3348a79019696e9b472cb0efe979015741dd3a1c95f43cc26dd1ace903c084604051610e8b91815260200190565b60405180910390a350610e9d60018055565b92915050565b610eab61179a565b6001600160a01b038116610efa5760405162461bcd60e51b8152602060048201526016602482015275496e76616c696420627269646765206164647265737360501b60448201526064016105a6565b600280546001600160a01b038381166001600160a01b0319831681179093556040519116919082907faae9beddccf584528e87b66c6ff2563825c8a1433305b8a656e9b5f9bf39049990600090a35050565b60606000805b600454811015610fc3576003600060048381548110610f7357610f73611e27565b60009182526020808320909101546001600160a01b0316835282019290925260400190206005015460ff1615610fb15781610fad81611e3d565b9250505b80610fbb81611e3d565b915050610f52565b5060008167ffffffffffffffff811115610fdf57610fdf611e56565b604051908082528060200260200182016040528015611008578160200160208202803683370190505b5090506000805b6004548110156110d857600360006004838154811061103057611030611e27565b60009182526020808320909101546001600160a01b0316835282019290925260400190206005015460ff16156110c6576004818154811061107357611073611e27565b6000918252602090912001546001600160a01b0316838361109381611e3d565b9450815181106110a5576110a5611e27565b60200260200101906001600160a01b031690816001600160a01b0316815250505b806110d081611e3d565b91505061100f565b50909392505050565b6110e9611865565b600081116111095760405162461bcd60e51b81526004016105a690611d86565b6111116118be565b336000908152600360205260409020805415611156576000611132336119d8565b90508015611154578082600401600082825461114e9190611dc8565b90915550505b505b8054600090611166908490611dc8565b905069021e19e0c9bab24000008110156111b85760405162461bcd60e51b815260206004820152601360248201527242656c6f77206d696e696d756d207374616b6560681b60448201526064016105a6565b6111ed6001600160a01b037f0000000000000000000000000000000000000000000000000000000000000000163330866117f4565b815460000361123957600480546001810182556000919091527f8a35acfbc15ff81a39ae7d344fd709f28e8600b4aa8c65c6b64bfe7fe36bd19b0180546001600160a01b031916331790555b808255600854670de0b6b3a7640000906112539083611dee565b61125d9190611e05565b826003018190555082600560008282546112779190611dc8565b9091555050600582015460ff1615801561129b575069021e19e0c9bab24000008110155b156112db5760058201805460ff1916600117905560405133907fb2b8c5f713f27009f7a78ec2167999c472e5ee8bc591102da17bc4a6551236c890600090a25b604080518481526020810183905233917f1449c6dd7851abc30abf37f57715f492010519147cc2652fbc38202c18a6ee90910160405180910390a2505061088760018055565b6004818154811061133157600080fd5b6000918252602090912001546001600160a01b0316905081565b61135361179a565b6006548111156113a55760405162461bcd60e51b815260206004820152601860248201527f496e73756666696369656e742072657761726420706f6f6c000000000000000060448201526064016105a6565b6113ad6118be565b80600660008282546113bf9190611ddb565b9091555050600054611405906001600160a01b03166001600160a01b037f0000000000000000000000000000000000000000000000000000000000000000169083611a39565b6006546040805183815260208101929092527ff17c0235da5cefe46d41b0b326d331f5015200f5dda6ed3265c4c954ebad8f109101610631565b6002546001600160a01b031633146114905760405162461bcd60e51b815260206004820152601460248201527313db9b1e48189c9a5919d94818d85b8818d85b1b60621b60448201526064016105a6565b600081116114b05760405162461bcd60e51b81526004016105a690611d86565b6114b86118be565b6114ed6001600160a01b037f0000000000000000000000000000000000000000000000000000000000000000163330846117f4565b80600760008282546114ff9190611dc8565b90915550506005541561154257600554611521670de0b6b3a764000083611dee565b61152b9190611e05565b6008600082825461153c9190611dc8565b90915550505b6040518181527f02bede6503f7c3293d6eac9b0f4981900471e18774a84ccc98715aa54330179490602001610631565b61157a61179a565b6001600160a01b0381166115df5760405162461bcd60e51b815260206004820152602660248201527f4f776e61626c653a206e6577206f776e657220697320746865207a65726f206160448201526564647265737360d01b60648201526084016105a6565b61088781611a6e565b6001600160a01b038116600090815260036020526040812080548203611612576004015492915050565b6008546005541580159061162857506000600b54115b801561163657506000600654115b80156116435750600a5442115b156116c6576000600a54426116589190611ddb565b9050600064496cebb80082600b546005546116739190611dee565b61167d9190611dee565b6116879190611e05565b905060065481111561169857506006545b6005546116ad670de0b6b3a764000083611dee565b6116b79190611e05565b6116c19084611dc8565b925050505b600482015460038301548354670de0b6b3a7640000906116e7908590611dee565b6116f19190611e05565b6116fb9190611ddb565b6117059190611dc8565b949350505050565b61171561179a565b61138881111561175d5760405162461bcd60e51b81526020600482015260136024820152724150592065786365656473206d6178696d756d60681b60448201526064016105a6565b6117656118be565b600b8190556040518181527fc7f87f4e6dae499a921a5cc635cfbc27ee789f8f818fb83f3ea2c40608a6f6fe90602001610631565b6000546001600160a01b03163314610a075760405162461bcd60e51b815260206004820181905260248201527f4f776e61626c653a2063616c6c6572206973206e6f7420746865206f776e657260448201526064016105a6565b6040516001600160a01b038085166024830152831660448201526064810182905261185f9085906323b872dd60e01b906084015b60408051601f198184030181529190526020810180516001600160e01b03166001600160e01b031990931692909217909152611abe565b50505050565b6002600154036118b75760405162461bcd60e51b815260206004820152601f60248201527f5265656e7472616e637947756172643a207265656e7472616e742063616c6c0060448201526064016105a6565b6002600155565b600a5442116118c957565b6005546000036118d95742600a55565b6000600a54426118e99190611ddb565b90506000600b541180156118ff57506000600654115b1561199757600064496cebb80082600b5460055461191d9190611dee565b6119279190611dee565b6119319190611e05565b905060065481111561194257506006545b801561199557806006600082825461195a9190611ddb565b9091555050600554611974670de0b6b3a764000083611dee565b61197e9190611e05565b6008600082825461198f9190611dc8565b90915550505b505b42600a556008546009546040517fcd7c861d63893659123f817b192b8621ff1923a7c4589c260173cedcf9e986a69261063192908252602082015260400190565b6001600160a01b038116600090815260036020526040812080548203611a015750600092915050565b60038101546008548254670de0b6b3a764000091611a1e91611dee565b611a289190611e05565b611a329190611ddb565b9392505050565b6040516001600160a01b038316602482015260448101829052611a6990849063a9059cbb60e01b90606401611828565b505050565b600080546001600160a01b038381166001600160a01b0319831681178455604051919092169283917f8be0079c531659141344cd1fd0a4f28419497f9722a3daafe3b4186f6b6457e09190a35050565b6000611b13826040518060400160405280602081526020017f5361666545524332303a206c6f772d6c6576656c2063616c6c206661696c6564815250856001600160a01b0316611b939092919063ffffffff16565b9050805160001480611b34575080806020019051810190611b349190611e6c565b611a695760405162461bcd60e51b815260206004820152602a60248201527f5361666545524332303a204552433230206f7065726174696f6e20646964206e6044820152691bdd081cdd58d8d9595960b21b60648201526084016105a6565b6060611705848460008585600080866001600160a01b03168587604051611bba9190611eb2565b60006040518083038185875af1925050503d8060008114611bf7576040519150601f19603f3d011682016040523d82523d6000602084013e611bfc565b606091505b5091509150611c0d87838387611c18565b979650505050505050565b60608315611c87578251600003611c80576001600160a01b0385163b611c805760405162461bcd60e51b815260206004820152601d60248201527f416464726573733a2063616c6c20746f206e6f6e2d636f6e747261637400000060448201526064016105a6565b5081611705565b6117058383815115611c9c5781518083602001fd5b8060405162461bcd60e51b81526004016105a69190611ece565b600060208284031215611cc857600080fd5b5035919050565b80356001600160a01b0381168114611ce657600080fd5b919050565b600060208284031215611cfd57600080fd5b611a3282611ccf565b60008060408385031215611d1957600080fd5b611d2283611ccf565b9150611d3060208401611ccf565b90509250929050565b6020808252825182820181905260009190848201906040850190845b81811015611d7a5783516001600160a01b031683529284019291840191600101611d55565b50909695505050505050565b6020808252601290820152710416d6f756e74206d757374206265203e20360741b604082015260600190565b634e487b7160e01b600052601160045260246000fd5b80820180821115610e9d57610e9d611db2565b81810381811115610e9d57610e9d611db2565b8082028115828204841417610e9d57610e9d611db2565b600082611e2257634e487b7160e01b600052601260045260246000fd5b500490565b634e487b7160e01b600052603260045260246000fd5b600060018201611e4f57611e4f611db2565b5060010190565b634e487b7160e01b600052604160045260246000fd5b600060208284031215611e7e57600080fd5b81518015158114611a3257600080fd5b60005b83811015611ea9578181015183820152602001611e91565b50506000910152565b60008251611ec4818460208701611e8e565b9190910192915050565b6020815260008251806020840152611eed816040850160208701611e8e565b601f01601f1916919091016040019291505056fea264697066735822122010d10d731040a5e4395172bf275f97bfa79976d0afbb571b21a2b92c002de43f64736f6c63430008140033",
  "linkReferences": {},
  "deployedLinkReferences": {}
}