{
  "_format": "hh-sol-artifact-1",
  "contractName": "BridgeStaking",
  "sourceName": "contracts/BridgeStaking.sol",
  "abi": [
    {
      "inputs": [
        {
          "internalType": "address",
          "name": "_stakingToken",
          "type": "address"
        }
      ],
      "stateMutability": "nonpayable",
      "type": "constructor"
    },
    {
      "anonymous": false,
      "inputs": [
        {
          "indexed": true,
          "internalType": "address",
          "name": "oldBridge",
          "type": "address"
        },
        {
          "indexed": true,
          "internalType": "address",
          "name": "newBridge",
          "type": "address"
        }
      ],
      "name": "BridgeUpdated",
      "type": "event"
    },
    {
      "anonymous": false,
      "inputs": [
        {
          "indexed": false,
          "internalType": "uint256",
          "name": "amount",
          "type": "uint256"
        }
      ],
      "name": "FeesDeposited",
      "type": "event"
    },
    {
      "anonymous": false,
      "inputs": [
        {
          "indexed": true,
          "internalType": "address",
          "name": "previousOwner",
          "type": "address"
        },
        {
          "indexed": true,
          "internalType": "address",
          "name": "newOwner",
          "type": "address"
        }
      ],
      "name": "OwnershipTransferred",
      "type": "event"
    },
    {
      "anonymous": false,
      "inputs": [
        {
          "indexed": false,
          "internalType": "uint256",
          "name": "amount",
          "type": "uint256"
        },
        {
          "indexed": false,
          "internalType": "uint256",
          "name": "newBalance",
          "type": "uint256"
        }
      ],
      "name": "RewardPoolFunded",
      "type": "event"
    },
    {
      "anonymous": false,
      "inputs": [
        {
          "indexed": false,
          "internalType": "uint256",
          "name": "amount",
          "type": "uint256"
        },
        {
          "indexed": false,
          "internalType": "uint256",
          "name": "newBalance",
          "type": "uint256"
        }
      ],
      "name": "RewardPoolWithdrawn",
      "type": "event"
    },
    {
      "anonymous": false,
      "inputs": [
        {
          "indexed": true,
          "internalType": "address",
          "name": "validator",
          "type": "address"
        },
        {
          "indexed": false,
          "internalType": "uint256",
          "name": "amount",
          "type": "uint256"
        }
      ],
      "name": "RewardsClaimed",
      "type": "event"
    },
    {
      "anonymous": false,
      "inputs": [
        {
          "indexed": false,
          "internalType": "uint256",
          "name": "accRewardPerShare",
          "type": "uint256"
        },
        {
          "indexed": false,
          "internalType": "uint256",
          "name": "totalRewardsPaid",
          "type": "uint256"
        }
      ],
      "name": "RewardsUpdated",
      "type": "event"
    },
    {
      "anonymous": false,
      "inputs": [
        {
          "indexed": true,
          "internalType": "address",
          "name": "validator",
          "type": "address"
        },
        {
          "indexed": false,
          "internalType": "uint256",
          "name": "amount",
          "type": "uint256"
        },
        {
          "indexed": true,
          "internalType": "address",
          "name": "slasher",
          "type": "address"
        }
      ],
      "name": "Slashed",
      "type": "event"
    },
    {
      "anonymous": false,
      "inputs": [
        {
          "indexed": true,
          "internalType": "address",
          "name": "validator",
          "type": "address"
        },
        {
          "indexed": false,
          "internalType": "uint256",
          "name": "amount",
          "type": "uint256"
        },
        {
          "indexed": false,
          "internalType": "uint256",
          "name": "totalStaked",
          "type": "uint256"
        }
      ],
      "name": "Staked",
      "type": "event"
    },
    {
      "anonymous": false,
      "inputs": [
        {
          "indexed": false,
          "internalType": "uint256",
          "name": "apyBasisPoints",
          "type": "uint256"
        }
      ],
      "name": "TargetAPYSet",
      "type": "event"
    },
    {
      "anonymous": false,
      "inputs": [
        {
          "indexed": true,
          "internalType": "address",
          "name": "validator",
          "type": "address"
        },
        {
          "indexed": false,
          "internalType": "uint256",
          "name": "amount",
          "type": "uint256"
        },
        {
          "indexed": false,
          "internalType": "uint256",
          "name": "unlockTime",
          "type": "uint256"
        }
      ],
      "name": "UnstakeRequested",
      "type": "event"
    },
    {
      "anonymous": false,
      "inputs": [
        {
          "indexed": true,
          "internalType": "address",
          "name": "validator",
          "type": "address"
        }
      ],
      "name": "ValidatorActivated",
      "type": "event"
    },
    {
      "anonymous": false,
      "inputs": [
        {
          "indexed": true,
          "internalType": "address",
          "name": "validator",
          "type": "address"
        }
      ],
      "name": "ValidatorDeactivated",
      "type": "event"
    },
    {
      "anonymous": false,
      "inputs": [
        {
          "indexed": true,
          "internalType": "address",
          "name": "validator",
          "type": "address"
        },
        {
          "indexed": false,
          "internalType": "uint256",
          "name": "amount",
          "type": "uint256"
        }
      ],
      "name": "Withdrawn",
      "type": "event"
    },
    {
      "inputs": [],
      "name": "COOLDOWN_PERIOD",
      "outputs": [
        {
          "internalType": "uint256",
          "name": "",
          "type": "uint256"
        }
      ],
      "stateMutability": "view",
      "type": "function"
    },
    {
      "inputs": [],
      "name": "MAX_APY",
      "outputs": [
        {
          "internalType": "uint256",
          "name": "",
          "type": "uint256"
        }
      ],
      "stateMutability": "view",
      "type": "function"
    },
    {
      "inputs": [],
      "name": "MINIMUM_STAKE",
      "outputs": [
        {
          "internalType": "uint256",
          "name": "",
          "type": "uint256"
        }
      ],
      "stateMutability": "view",
      "type": "function"
    },
    {
      "inputs": [],
      "name": "PRECISION",
      "outputs": [
        {
          "internalType": "uint256",
          "name": "",
          "type": "uint256"
        }
      ],
      "stateMutability": "view",
      "type": "function"
    },
    {
      "inputs": [],
      "name": "SLASH_PERCENTAGE",
      "outputs": [
        {
          "internalType": "uint256",
          "name": "",
          "type": "uint256"
        }
      ],
      "stateMutability": "view",
      "type": "function"
    },
    {
      "inputs": [],
      "name": "accRewardPerShare",
      "outputs": [
        {
          "internalType": "uint256",
          "name": "",
          "type": "uint256"
        }
      ],
      "stateMutability": "view",
      "type": "function"
    },
    {
      "inputs": [],
      "name": "bridge",
      "outputs": [
        {
          "internalType": "address",
          "name": "",
          "type": "address"
        }
      ],
      "stateMutability": "view",
      "type": "function"
    },
    {
      "inputs": [],
      "name": "cancelUnstake",
      "outputs": [],
      "stateMutability": "nonpayable",
      "type": "function"
    },
    {
      "inputs": [],
      "name": "claimRewards",
      "outputs": [],
      "stateMutability": "nonpayable",
      "type": "function"
    },
    {
      "inputs": [
        {
          "internalType": "address",
          "name": "beneficiary",
          "type": "address"
        }
      ],
      "name": "claimRewardsFor",
      "outputs": [],
      "stateMutability": "nonpayable",
      "type": "function"
    },
    {
      "inputs": [],
      "name": "currentAPY",
      "outputs": [
        {
          "internalType": "uint256",
          "name": "",
          "type": "uint256"
        }
      ],
      "stateMutability": "view",
      "type": "function"
    },
    {
      "inputs": [
        {
          "internalType": "uint256",
          "name": "amount",
          "type": "uint256"
        }
      ],
      "name": "depositFees",
      "outputs": [],
      "stateMutability": "nonpayable",
      "type": "function"
    },
    {
      "inputs": [],
      "name": "feePool",
      "outputs": [
        {
          "internalType": "uint256",
          "name": "",
          "type": "uint256"
        }
      ],
      "stateMutability": "view",
      "type": "function"
    },
    {
      "inputs": [
        {
          "internalType": "uint256",
          "name": "amount",
          "type": "uint256"
        }
      ],
      "name": "fundRewardPool",
      "outputs": [],
      "stateMutability": "nonpayable",
      "type": "function"
    },
    {
      "inputs": [],
      "name": "getActiveValidators",
      "outputs": [
        {
          "internalType": "address[]",
          "name": "",
          "type": "address[]"
        }
      ],
      "stateMutability": "view",
      "type": "function"
    },
    {
      "inputs": [
        {
          "internalType": "address",
          "name": "account",
          "type": "address"
        }
      ],
      "name": "getPendingUnstake",
      "outputs": [
        {
          "internalType": "uint256",
          "name": "amount",
          "type": "uint256"
        },
        {
          "internalType": "uint256",
          "name": "unlockTime",
          "type": "uint256"
        }
      ],
      "stateMutability": "view",
      "type": "function"
    },
    {
      "inputs": [],
      "name": "getRewardInfo",
      "outputs": [
        {
          "internalType": "uint256",
          "name": "_rewardPool",
          "type": "uint256"
        },
        {
          "internalType": "uint256",
          "name": "_feePool",
          "type": "uint256"
        },
        {
          "internalType": "uint256",
          "name": "_targetAPY",
          "type": "uint256"
        },
        {
          "internalType": "uint256",
          "name": "_totalStaked",
          "type": "uint256"
        },
        {
          "internalType": "uint256",
          "name": "_totalRewardsPaid",
          "type": "uint256"
        }
      ],
      "stateMutability": "view",
      "type": "function"
    },
    {
      "inputs": [
        {
          "internalType": "address",
          "name": "account",
          "type": "address"
        }
      ],
      "name": "getStake",
      "outputs": [
        {
          "internalType": "uint256",
          "name": "",
          "type": "uint256"
        }
      ],
      "stateMutability": "view",
      "type": "function"
    },
    {
      "inputs": [],
      "name": "getValidatorCount",
      "outputs": [
        {
          "internalType": "uint256",
          "name": "",
          "type": "uint256"
        }
      ],
      "stateMutability": "view",
      "type": "function"
    },
    {
      "inputs": [
        {
          "internalType": "address",
          "name": "account",
          "type": "address"
        }
      ],
      "name": "isActiveValidator",
      "outputs": [
        {
          "internalType": "bool",
          "name": "",
          "type": "bool"
        }
      ],
      "stateMutability": "view",
      "type": "function"
    },
    {
      "inputs": [],
      "name": "lastRewardTime",
      "outputs": [
        {
          "internalType": "uint256",
          "name": "",
          "type": "uint256"
        }
      ],
      "stateMutability": "view",
      "type": "function"
    },
    {
      "inputs": [],
      "name": "owner",
      "outputs": [
        {
          "internalType": "address",
          "name": "",
          "type": "address"
        }
      ],
      "stateMutability": "view",
      "type": "function"
    },
    {
      "inputs": [
        {
          "internalType": "address",
          "name": "account",
          "type": "address"
        }
      ],
      "name": "pendingReward",
      "outputs": [
        {
          "internalType": "uint256",
          "name": "",
          "type": "uint256"
        }
      ],
      "stateMutability": "view",
      "type": "function"
    },
    {
      "inputs": [],
      "name": "renounceOwnership",
      "outputs": [],
      "stateMutability": "nonpayable",
      "type": "function"
    },
    {
      "inputs": [
        {
          "internalType": "uint256",
          "name": "amount",
          "type": "uint256"
        }
      ],
      "name": "requestUnstake",
      "outputs": [],
      "stateMutability": "nonpayable",
      "type": "function"
    },
    {
      "inputs": [
        {
          "internalType": "address",
          "name": "beneficiary",
          "type": "address"
        },
        {
          "internalType": "uint256",
          "name": "amount",
          "type": "uint256"
        }
      ],
      "name": "requestUnstakeFor",
      "outputs": [],
      "stateMutability": "nonpayable",
      "type": "function"
    },
    {
      "inputs": [],
      "name": "rewardPool",
      "outputs": [
        {
          "internalType": "uint256",
          "name": "",
          "type": "uint256"
        }
      ],
      "stateMutability": "view",
      "type": "function"
    },
    {
      "inputs": [
        {
          "internalType": "address",
          "name": "_bridge",
          "type": "address"
        }
      ],
      "name": "setBridge",
      "outputs": [],
      "stateMutability": "nonpayable",
      "type": "function"
    },
    {
      "inputs": [
        {
          "internalType": "uint256",
          "name": "_apyBasisPoints",
          "type": "uint256"
        }
      ],
      "name": "setTargetAPY",
      "outputs": [],
      "stateMutability": "nonpayable",
      "type": "function"
    },
    {
      "inputs": [
        {
          "internalType": "address",
          "name": "validator",
          "type": "address"
        },
        {
          "internalType": "address",
          "name": "challenger",
          "type": "address"
        }
      ],
      "name": "slash",
      "outputs": [
        {
          "internalType": "uint256",
          "name": "slashedAmount",
          "type": "uint256"
        }
      ],
      "stateMutability": "nonpayable",
      "type": "function"
    },
    {
      "inputs": [
        {
          "internalType": "uint256",
          "name": "amount",
          "type": "uint256"
        }
      ],
      "name": "stake",
      "outputs": [],
      "stateMutability": "nonpayable",
      "type": "function"
    },
    {
      "inputs": [
        {
          "internalType": "address",
          "name": "beneficiary",
          "type": "address"
        },
        {
          "internalType": "uint256",
          "name": "amount",
          "type": "uint256"
        }
      ],
      "name": "stakeFor",
      "outputs": [],
      "stateMutability": "nonpayable",
      "type": "function"
    },
    {
      "inputs": [],
      "name": "stakingToken",
      "outputs": [
        {
          "internalType": "contract IERC20",
          "name": "",
          "type": "address"
        }
      ],
      "stateMutability": "view",
      "type": "function"
    },
    {
      "inputs": [],
      "name": "targetAPY",
      "outputs": [
        {
          "internalType": "uint256",
          "name": "",
          "type": "uint256"
        }
      ],
      "stateMutability": "view",
      "type": "function"
    },
    {
      "inputs": [],
      "name": "totalRewardsPaid",
      "outputs": [
        {
          "internalType": "uint256",
          "name": "",
          "type": "uint256"
        }
      ],
      "stateMutability": "view",
      "type": "function"
    },
    {
      "inputs": [],
      "name": "totalStaked",
      "outputs": [
        {
          "internalType": "uint256",
          "name": "",
          "type": "uint256"
        }
      ],
      "stateMutability": "view",
      "type": "function"
    },
    {
      "inputs": [
        {
          "internalType": "address",
          "name": "newOwner",
          "type": "address"
        }
      ],
      "name": "transferOwnership",
      "outputs": [],
      "stateMutability": "nonpayable",
      "type": "function"
    },
    {
      "inputs": [
        {
          "internalType": "uint256",
          "name": "",
          "type": "uint256"
        }
      ],
      "name": "validatorList",
      "outputs": [
        {
          "internalType": "address",
          "name": "",
          "type": "address"
        }
      ],
      "stateMutability": "view",
      "type": "function"
    },
    {
      "inputs": [
        {
          "internalType": "address",
          "name": "",
          "type": "address"
        }
      ],
      "name": "validators",
      "outputs": [
        {
          "internalType": "uint256",
          "name": "stakedAmount",
          "type": "uint256"
        },
        {
          "internalType": "uint256",
          "name": "unstakeRequestTime",
          "type": "uint256"
        },
        {
          "internalType": "uint256",
          "name": "unstakeAmount",
          "type": "uint256"
        },
        {
          "internalType": "uint256",
          "name": "rewardDebt",
          "type": "uint256"
        },
        {
          "internalType": "uint256",
          "name": "pendingRewards",
          "type": "uint256"
        },
        {
          "internalType": "bool",
          "name": "isActive",
          "type": "bool"
        }
      ],
      "stateMutability": "view",
      "type": "function"
    },
    {
      "inputs": [],
      "name": "withdraw",
      "outputs": [],
      "stateMutability": "nonpayable",
      "type": "function"
    },
    {
      "inputs": [
        {
          "internalType": "address",
          "name": "beneficiary",
          "type": "address"
        }
      ],
      "name": "withdrawFor",
      "outputs": [],
      "stateMutability": "nonpayable",
      "type": "function"
    },
    {
      "inputs": [
        {
          "internalType": "uint256",
          "name": "amount",
          "type": "uint256"
        }
      ],
      "name": "withdrawRewardPool",
      "outputs": [],
      "stateMutability": "nonpayable",
      "type": "function"
    }
  ],
  "bytecode": "0x60a06040523480156200001157600080fd5b506040516200294c3803806200294c833981016040819052620000349162000104565b6200003f33620000b4565b600180556001600160a01b0381166200009e5760405162461bcd60e51b815260206004820152601560248201527f496e76616c696420746f6b656e20616464726573730000000000000000000000604482015260640160405180910390fd5b6001600160a01b031660805242600a5562000136565b600080546001600160a01b038381166001600160a01b0319831681178455604051919092169283917f8be0079c531659141344cd1fd0a4f28419497f9722a3daafe3b4186f6b6457e09190a35050565b6000602082840312156200011757600080fd5b81516001600160a01b03811681146200012f57600080fd5b9392505050565b6080516127bb62000191600039600081816103bb0152818161070d015281816107ba01528181610ded01528181610f3c0152818161122101528181611890015281816119d501528181611bdf0152611cc601526127bb6000f3fe608060405234801561001057600080fd5b506004361061025e5760003560e01c80638da5cb5b11610146578063aaf5eb68116100c3578063e78cea9211610087578063e78cea921461051e578063ebdac09014610531578063f2fde38b14610544578063f40f0f5214610557578063f5f8aa951461056a578063fa52c7d81461057d57600080fd5b8063aaf5eb68146104d7578063ae2e933b146104e6578063b048e056146104ef578063c74cab4914610502578063e6d012e41461051557600080fd5b80639a79d32b1161010a5780639a79d32b1461048c5780639de70258146104945780639eca672c146104a95780639f29f135146104bc578063a694fc3a146104c457600080fd5b80638da5cb5b146104435780638dd14802146104545780639231cf7414610467578063939d6237146104705780639691576e1461047957600080fd5b80634ab17969116101df578063715018a6116101a3578063715018a6146103ae57806372f702f3146103b657806374958e35146103f55780637a766460146103fe5780637aeccce914610427578063817b1cd21461043a57600080fd5b80634ab179691461035457806366666aa91461035c578063699c8f33146103655780636e99d52f1461039c5780637071688a146103a657600080fd5b80632f54fe72116102265780632f54fe72146102d4578063372500ab146102fc5780633ccfd60b146103045780633d92f4e21461030c57806340550a1c1461031557600080fd5b806308dbbb03146102635780631ac6d19d146102865780631d583e0d1461029b57806323095721146102ae5780632ee40908146102c1575b600080fd5b61027368056bc75e2d6310000081565b6040519081526020015b60405180910390f35b6102996102943660046124d3565b6105f5565b005b6102996102a93660046124ee565b610785565b6102996102bc3660046124ee565b61083a565b6102996102cf366004612507565b610a79565b6102e76102e23660046124d3565b610cd8565b6040805192835260208301919091520161027d565b610299610d16565b610299610e57565b61027361138881565b6103446103233660046124d3565b6001600160a01b031660009081526003602052604090206005015460ff1690565b604051901515815260200161027d565b610299610f95565b61027360065481565b600654600754600b54600554600954604080519586526020860194909452928401919091526060830152608082015260a00161027d565b61027362093a8081565b600454610273565b610299611064565b6103dd7f000000000000000000000000000000000000000000000000000000000000000081565b6040516001600160a01b03909116815260200161027d565b61027360095481565b61027361040c3660046124d3565b6001600160a01b031660009081526003602052604090205490565b610273610435366004612531565b611076565b61027360055481565b6000546001600160a01b03166103dd565b6102996104623660046124d3565b6112a5565b610273600a5481565b61027360085481565b610299610487366004612507565b61134e565b600b54610273565b61049c6115df565b60405161027d9190612564565b6102996104b73660046124d3565b611774565b610273603281565b6102996104d23660046124ee565b6118f2565b610273670de0b6b3a764000081565b61027360075481565b6103dd6104fd3660046124ee565b611b22565b6102996105103660046124ee565b611b4c565b610273600b5481565b6002546103dd906001600160a01b031681565b61029961053f3660046124ee565b611c40565b6102996105523660046124d3565b611d73565b6102736105653660046124d3565b611de9565b6102996105783660046124ee565b611f0e565b6105c661058b3660046124d3565b600360208190526000918252604090912080546001820154600283015493830154600484015460059094015492949193919290919060ff1686565b6040805196875260208701959095529385019290925260608401526080830152151560a082015260c00161027d565b6105fd611f9b565b610605611ff5565b6001600160a01b0381166106345760405162461bcd60e51b815260040161062b906125b1565b60405180910390fd5b61063c61204e565b6001600160a01b0381166000908152600360205260408120600481015490919061066584612168565b61066f91906125f4565b9050600081116106b75760405162461bcd60e51b81526020600482015260136024820152724e6f207265776172647320746f20636c61696d60681b604482015260640161062b565b600060048301556008548254670de0b6b3a7640000916106d691612607565b6106e0919061261e565b826003018190555080600960008282546106fa91906125f4565b9091555061073490506001600160a01b037f00000000000000000000000000000000000000000000000000000000000000001684836121c9565b826001600160a01b03167ffc30cddea38e2bf4d6ea7d3f9ed3b6ad7f176419f4963bd81318067a4aee73fe8260405161076f91815260200190565b60405180910390a2505061078260018055565b50565b61078d611f9b565b600081116107ad5760405162461bcd60e51b815260040161062b90612640565b6107e26001600160a01b037f000000000000000000000000000000000000000000000000000000000000000016333084612231565b80600660008282546107f491906125f4565b90915550506006546040805183815260208101929092527f5451f0d28a59c1c16a9d7cc5017150d585749eb225366037423f94b85ad94ea791015b60405180910390a150565b3360009081526003602052604090206005015460ff166108965760405162461bcd60e51b81526020600482015260176024820152762737ba1030b71030b1ba34bb32903b30b634b230ba37b960491b604482015260640161062b565b61089e611ff5565b6108a661204e565b336000908152600360205260409020816108d25760405162461bcd60e51b815260040161062b90612640565b80548211156109185760405162461bcd60e51b8152602060048201526012602482015271496e73756666696369656e74207374616b6560701b604482015260640161062b565b600061092333612168565b90508015610945578082600401600082825461093f91906125f4565b90915550505b815460009061095590859061266c565b905080156109b15768056bc75e2d631000008110156109b15760405162461bcd60e51b8152602060048201526018602482015277576f756c642064726f702062656c6f77206d696e696d756d60401b604482015260640161062b565b42600184015560028301849055600854670de0b6b3a7640000906109d59083612607565b6109df919061261e565b60038401556000819003610a255760058301805460ff1916905560405133907f23d934bfe7f1275bc6fd70432159c9cc1c0075d069f89da6a40f43bfe7a94ed390600090a25b337f57e41df54512c76148b5ba9b643d149752b0d35e493b969bd017d0a3fe5228cf85610a5562093a80426125f4565b6040805192835260208301919091520160405180910390a250505061078260018055565b610a81611f9b565b610a89611ff5565b6001600160a01b038216610aaf5760405162461bcd60e51b815260040161062b906125b1565b60008111610acf5760405162461bcd60e51b815260040161062b90612640565b610ad761204e565b6001600160a01b0382166000908152600360205260409020805415610b25576000610b0184612168565b90508015610b235780826004016000828254610b1d91906125f4565b90915550505b505b8054600090610b359084906125f4565b905068056bc75e2d63100000811015610b865760405162461bcd60e51b815260206004820152601360248201527242656c6f77206d696e696d756d207374616b6560681b604482015260640161062b565b8154600003610bdb57600480546001810182556000919091527f8a35acfbc15ff81a39ae7d344fd709f28e8600b4aa8c65c6b64bfe7fe36bd19b0180546001600160a01b0319166001600160a01b0386161790555b808255600854670de0b6b3a764000090610bf59083612607565b610bff919061261e565b82600301819055508260056000828254610c1991906125f4565b9091555050600582015460ff16158015610c3c575068056bc75e2d631000008110155b15610c855760058201805460ff191660011790556040516001600160a01b038516907fb2b8c5f713f27009f7a78ec2167999c472e5ee8bc591102da17bc4a6551236c890600090a25b60408051848152602081018390526001600160a01b038616917f1449c6dd7851abc30abf37f57715f492010519147cc2652fbc38202c18a6ee90910160405180910390a25050610cd460018055565b5050565b6001600160a01b03811660009081526003602052604081206002810154600182015483929190610d0c9062093a80906125f4565b9250925050915091565b610d1e611ff5565b610d2661204e565b33600081815260036020526040812060048101549092610d4590612168565b610d4f91906125f4565b905060008111610d975760405162461bcd60e51b81526020600482015260136024820152724e6f207265776172647320746f20636c61696d60681b604482015260640161062b565b600060048301556008548254670de0b6b3a764000091610db691612607565b610dc0919061261e565b82600301819055508060096000828254610dda91906125f4565b90915550610e1490506001600160a01b037f00000000000000000000000000000000000000000000000000000000000000001633836121c9565b60405181815233907ffc30cddea38e2bf4d6ea7d3f9ed3b6ad7f176419f4963bd81318067a4aee73fe906020015b60405180910390a25050610e5560018055565b565b610e5f611ff5565b3360009081526003602052604090206002810154610e8f5760405162461bcd60e51b815260040161062b9061267f565b62093a808160010154610ea291906125f4565b421015610ee95760405162461bcd60e51b8152602060048201526015602482015274436f6f6c646f776e206e6f7420636f6d706c65746560581b604482015260640161062b565b6002810154815481908390600090610f0290849061266c565b90915550506000600283018190556001830181905560058054839290610f2990849061266c565b90915550610f6390506001600160a01b037f00000000000000000000000000000000000000000000000000000000000000001633836121c9565b60405181815233907f7084f5476618d8e60b11ef0d7d3f06914655adb8793e28ff7f018d4c76d505d590602001610e42565b610f9d61204e565b3360009081526003602052604090206002810154610fcd5760405162461bcd60e51b815260040161062b9061267f565b600581015460ff16158015610fec5750805468056bc75e2d6310000011155b1561102c5760058101805460ff1916600117905560405133907fb2b8c5f713f27009f7a78ec2167999c472e5ee8bc591102da17bc4a6551236c890600090a25b6008548154670de0b6b3a76400009161104491612607565b61104e919061261e565b6003820155600060028201819055600190910155565b61106c611f9b565b610e55600061226f565b6002546000906001600160a01b031633146110ca5760405162461bcd60e51b815260206004820152601460248201527313db9b1e48189c9a5919d94818d85b8818d85b1b60621b604482015260640161062b565b6110d2611ff5565b6110da61204e565b6001600160a01b038316600090815260036020526040902080546111345760405162461bcd60e51b815260206004820152601160248201527009cde40e6e8c2d6ca40e8de40e6d8c2e6d607b1b604482015260640161062b565b60006004820155805460649061114c90603290612607565b611156919061261e565b91508181600001600082825461116c919061266c565b90915550506008548154670de0b6b3a76400009161118991612607565b611193919061261e565b816003018190555081600560008282546111ad919061266c565b9091555050805468056bc75e2d6310000011156112055760058101805460ff191690556040516001600160a01b038516907f23d934bfe7f1275bc6fd70432159c9cc1c0075d069f89da6a40f43bfe7a94ed390600090a25b6001600160a01b03831615611248576112486001600160a01b037f00000000000000000000000000000000000000000000000000000000000000001684846121c9565b826001600160a01b0316846001600160a01b03167fd87c3348a79019696e9b472cb0efe979015741dd3a1c95f43cc26dd1ace903c08460405161128d91815260200190565b60405180910390a35061129f60018055565b92915050565b6112ad611f9b565b6001600160a01b0381166112fc5760405162461bcd60e51b8152602060048201526016602482015275496e76616c696420627269646765206164647265737360501b604482015260640161062b565b600280546001600160a01b038381166001600160a01b0319831681179093556040519116919082907faae9beddccf584528e87b66c6ff2563825c8a1433305b8a656e9b5f9bf39049990600090a35050565b611356611f9b565b61135e611ff5565b6001600160a01b0382166113845760405162461bcd60e51b815260040161062b906125b1565b6001600160a01b03821660009081526003602052604090206005015460ff166113e95760405162461bcd60e51b81526020600482015260176024820152762737ba1030b71030b1ba34bb32903b30b634b230ba37b960491b604482015260640161062b565b6113f161204e565b6001600160a01b0382166000908152600360205260409020816114265760405162461bcd60e51b815260040161062b90612640565b805482111561146c5760405162461bcd60e51b8152602060048201526012602482015271496e73756666696369656e74207374616b6560701b604482015260640161062b565b600061147784612168565b90508015611499578082600401600082825461149391906125f4565b90915550505b81546000906114a990859061266c565b905080156115055768056bc75e2d631000008110156115055760405162461bcd60e51b8152602060048201526018602482015277576f756c642064726f702062656c6f77206d696e696d756d60401b604482015260640161062b565b42600184015560028301849055600854670de0b6b3a7640000906115299083612607565b611533919061261e565b600384015560008190036115825760058301805460ff191690556040516001600160a01b038616907f23d934bfe7f1275bc6fd70432159c9cc1c0075d069f89da6a40f43bfe7a94ed390600090a25b6001600160a01b0385167f57e41df54512c76148b5ba9b643d149752b0d35e493b969bd017d0a3fe5228cf856115bb62093a80426125f4565b6040805192835260208301919091520160405180910390a2505050610cd460018055565b60606000805b600454811015611656576003600060048381548110611606576116066126ab565b60009182526020808320909101546001600160a01b0316835282019290925260400190206005015460ff16156116445781611640816126c1565b9250505b8061164e816126c1565b9150506115e5565b5060008167ffffffffffffffff811115611672576116726126da565b60405190808252806020026020018201604052801561169b578160200160208202803683370190505b5090506000805b60045481101561176b5760036000600483815481106116c3576116c36126ab565b60009182526020808320909101546001600160a01b0316835282019290925260400190206005015460ff16156117595760048181548110611706576117066126ab565b6000918252602090912001546001600160a01b03168383611726816126c1565b945081518110611738576117386126ab565b60200260200101906001600160a01b031690816001600160a01b0316815250505b80611763816126c1565b9150506116a2565b50909392505050565b61177c611f9b565b611784611ff5565b6001600160a01b0381166117aa5760405162461bcd60e51b815260040161062b906125b1565b6001600160a01b038116600090815260036020526040902060028101546117e35760405162461bcd60e51b815260040161062b9061267f565b62093a8081600101546117f691906125f4565b42101561183d5760405162461bcd60e51b8152602060048201526015602482015274436f6f6c646f776e206e6f7420636f6d706c65746560581b604482015260640161062b565b600281015481548190839060009061185690849061266c565b9091555050600060028301819055600183018190556005805483929061187d90849061266c565b909155506118b790506001600160a01b037f00000000000000000000000000000000000000000000000000000000000000001684836121c9565b826001600160a01b03167f7084f5476618d8e60b11ef0d7d3f06914655adb8793e28ff7f018d4c76d505d58260405161076f91815260200190565b6118fa611ff5565b6000811161191a5760405162461bcd60e51b815260040161062b90612640565b61192261204e565b33600090815260036020526040902080541561196757600061194333612168565b90508015611965578082600401600082825461195f91906125f4565b90915550505b505b80546000906119779084906125f4565b905068056bc75e2d631000008110156119c85760405162461bcd60e51b815260206004820152601360248201527242656c6f77206d696e696d756d207374616b6560681b604482015260640161062b565b6119fd6001600160a01b037f000000000000000000000000000000000000000000000000000000000000000016333086612231565b8154600003611a4957600480546001810182556000919091527f8a35acfbc15ff81a39ae7d344fd709f28e8600b4aa8c65c6b64bfe7fe36bd19b0180546001600160a01b031916331790555b808255600854670de0b6b3a764000090611a639083612607565b611a6d919061261e565b82600301819055508260056000828254611a8791906125f4565b9091555050600582015460ff16158015611aaa575068056bc75e2d631000008110155b15611aea5760058201805460ff1916600117905560405133907fb2b8c5f713f27009f7a78ec2167999c472e5ee8bc591102da17bc4a6551236c890600090a25b604080518481526020810183905233917f1449c6dd7851abc30abf37f57715f492010519147cc2652fbc38202c18a6ee90910161076f565b60048181548110611b3257600080fd5b6000918252602090912001546001600160a01b0316905081565b611b54611f9b565b600654811115611ba65760405162461bcd60e51b815260206004820152601860248201527f496e73756666696369656e742072657761726420706f6f6c0000000000000000604482015260640161062b565b611bae61204e565b8060066000828254611bc0919061266c565b9091555050600054611c06906001600160a01b03166001600160a01b037f00000000000000000000000000000000000000000000000000000000000000001690836121c9565b6006546040805183815260208101929092527ff17c0235da5cefe46d41b0b326d331f5015200f5dda6ed3265c4c954ebad8f10910161082f565b6002546001600160a01b03163314611c915760405162461bcd60e51b815260206004820152601460248201527313db9b1e48189c9a5919d94818d85b8818d85b1b60621b604482015260640161062b565b60008111611cb15760405162461bcd60e51b815260040161062b90612640565b611cb961204e565b611cee6001600160a01b037f000000000000000000000000000000000000000000000000000000000000000016333084612231565b8060076000828254611d0091906125f4565b909155505060055415611d4357600554611d22670de0b6b3a764000083612607565b611d2c919061261e565b60086000828254611d3d91906125f4565b90915550505b6040518181527f02bede6503f7c3293d6eac9b0f4981900471e18774a84ccc98715aa5433017949060200161082f565b611d7b611f9b565b6001600160a01b038116611de05760405162461bcd60e51b815260206004820152602660248201527f4f776e61626c653a206e6577206f776e657220697320746865207a65726f206160448201526564647265737360d01b606482015260840161062b565b6107828161226f565b6001600160a01b038116600090815260036020526040812080548203611e13576004015492915050565b60085460055415801590611e2957506000600b54115b8015611e3757506000600654115b8015611e445750600a5442115b15611ec7576000600a5442611e59919061266c565b9050600064496cebb80082600b54600554611e749190612607565b611e7e9190612607565b611e88919061261e565b9050600654811115611e9957506006545b600554611eae670de0b6b3a764000083612607565b611eb8919061261e565b611ec290846125f4565b925050505b600482015460038301548354670de0b6b3a764000090611ee8908590612607565b611ef2919061261e565b611efc919061266c565b611f0691906125f4565b949350505050565b611f16611f9b565b611388811115611f5e5760405162461bcd60e51b81526020600482015260136024820152724150592065786365656473206d6178696d756d60681b604482015260640161062b565b611f6661204e565b600b8190556040518181527fc7f87f4e6dae499a921a5cc635cfbc27ee789f8f818fb83f3ea2c40608a6f6fe9060200161082f565b6000546001600160a01b03163314610e555760405162461bcd60e51b815260206004820181905260248201527f4f776e61626c653a2063616c6c6572206973206e6f7420746865206f776e6572604482015260640161062b565b6002600154036120475760405162461bcd60e51b815260206004820152601f60248201527f5265656e7472616e637947756172643a207265656e7472616e742063616c6c00604482015260640161062b565b6002600155565b600a54421161205957565b6005546000036120695742600a55565b6000600a5442612079919061266c565b90506000600b5411801561208f57506000600654115b1561212757600064496cebb80082600b546005546120ad9190612607565b6120b79190612607565b6120c1919061261e565b90506006548111156120d257506006545b80156121255780600660008282546120ea919061266c565b9091555050600554612104670de0b6b3a764000083612607565b61210e919061261e565b6008600082825461211f91906125f4565b90915550505b505b42600a556008546009546040517fcd7c861d63893659123f817b192b8621ff1923a7c4589c260173cedcf9e986a69261082f92908252602082015260400190565b6001600160a01b0381166000908152600360205260408120805482036121915750600092915050565b60038101546008548254670de0b6b3a7640000916121ae91612607565b6121b8919061261e565b6121c2919061266c565b9392505050565b6040516001600160a01b03831660248201526044810182905261222c90849063a9059cbb60e01b906064015b60408051601f198184030181529190526020810180516001600160e01b03166001600160e01b0319909316929092179091526122bf565b505050565b6040516001600160a01b03808516602483015283166044820152606481018290526122699085906323b872dd60e01b906084016121f5565b50505050565b600080546001600160a01b038381166001600160a01b0319831681178455604051919092169283917f8be0079c531659141344cd1fd0a4f28419497f9722a3daafe3b4186f6b6457e09190a35050565b6000612314826040518060400160405280602081526020017f5361666545524332303a206c6f772d6c6576656c2063616c6c206661696c6564815250856001600160a01b03166123949092919063ffffffff16565b905080516000148061233557508080602001905181019061233591906126f0565b61222c5760405162461bcd60e51b815260206004820152602a60248201527f5361666545524332303a204552433230206f7065726174696f6e20646964206e6044820152691bdd081cdd58d8d9595960b21b606482015260840161062b565b6060611f06848460008585600080866001600160a01b031685876040516123bb9190612736565b60006040518083038185875af1925050503d80600081146123f8576040519150601f19603f3d011682016040523d82523d6000602084013e6123fd565b606091505b509150915061240e87838387612419565b979650505050505050565b60608315612488578251600003612481576001600160a01b0385163b6124815760405162461bcd60e51b815260206004820152601d60248201527f416464726573733a2063616c6c20746f206e6f6e2d636f6e7472616374000000604482015260640161062b565b5081611f06565b611f06838381511561249d5781518083602001fd5b8060405162461bcd60e51b815260040161062b9190612752565b80356001600160a01b03811681146124ce57600080fd5b919050565b6000602082840312156124e557600080fd5b6121c2826124b7565b60006020828403121561250057600080fd5b5035919050565b6000806040838503121561251a57600080fd5b612523836124b7565b946020939093013593505050565b6000806040838503121561254457600080fd5b61254d836124b7565b915061255b602084016124b7565b90509250929050565b6020808252825182820181905260009190848201906040850190845b818110156125a55783516001600160a01b031683529284019291840191600101612580565b50909695505050505050565b602080825260139082015272496e76616c69642062656e656669636961727960681b604082015260600190565b634e487b7160e01b600052601160045260246000fd5b8082018082111561129f5761129f6125de565b808202811582820484141761129f5761129f6125de565b60008261263b57634e487b7160e01b600052601260045260246000fd5b500490565b6020808252601290820152710416d6f756e74206d757374206265203e20360741b604082015260600190565b8181038181111561129f5761129f6125de565b6020808252601290820152714e6f2070656e64696e6720756e7374616b6560701b604082015260600190565b634e487b7160e01b600052603260045260246000fd5b6000600182016126d3576126d36125de565b5060010190565b634e487b7160e01b600052604160045260246000fd5b60006020828403121561270257600080fd5b815180151581146121c257600080fd5b60005b8381101561272d578181015183820152602001612715565b50506000910152565b60008251612748818460208701612712565b9190910192915050565b6020815260008251806020840152612771816040850160208701612712565b601f01601f1916919091016040019291505056fea2646970667358221220abfb005c9be4c7d0e87f2cd7db65cead1980292699cd4749292865eba499f9c664736f6c63430008140033",
  "linkReferences": {},
  "deployedLinkReferences": {}
}