{
  "_format": "hh-sol-artifact-1",
  "contractName": "BridgeStaking",
  "sourceName": "contracts/BridgeStaking.sol",
  "abi": [
    {
      "inputs": [
        {
          "internalType": "address",
          "name": "_stakingToken",
          "type": "address"
        }
      ],
      "stateMutability": "nonpayable",
      "type": "constructor"
    },
    {
      "anonymous": false,
      "inputs": [
        {
          "indexed": true,
          "internalType": "address",
          "name": "oldBridge",
          "type": "address"
        },
        {
          "indexed": true,
          "internalType": "address",
          "name": "newBridge",
          "type": "address"
        }
      ],
      "name": "BridgeUpdated",
      "type": "event"
    },
    {
      "anonymous": false,
      "inputs": [
        {
          "indexed": false,
          "internalType": "uint256",
          "name": "amount",
          "type": "uint256"
        }
      ],
      "name": "FeesDeposited",
      "type": "event"
    },
    {
      "anonymous": false,
      "inputs": [
        {
          "indexed": true,
          "internalType": "address",
          "name": "previousOwner",
          "type": "address"
        },
        {
          "indexed": true,
          "internalType": "address",
          "name": "newOwner",
          "type": "address"
        }
      ],
      "name": "OwnershipTransferred",
      "type": "event"
    },
    {
      "anonymous": false,
      "inputs": [
        {
          "indexed": false,
          "internalType": "uint256",
          "name": "amount",
          "type": "uint256"
        },
        {
          "indexed": false,
          "internalType": "uint256",
          "name": "newBalance",
          "type": "uint256"
        }
      ],
      "name": "RewardPoolFunded",
      "type": "event"
    },
    {
      "anonymous": false,
      "inputs": [
        {
          "indexed": false,
          "internalType": "uint256",
          "name": "amount",
          "type": "uint256"
        },
        {
          "indexed": false,
          "internalType": "uint256",
          "name": "newBalance",
          "type": "uint256"
        }
      ],
      "name": "RewardPoolWithdrawn",
      "type": "event"
    },
    {
      "anonymous": false,
      "inputs": [
        {
          "indexed": true,
          "internalType": "address",
          "name": "validator",
          "type": "address"
        },
        {
          "indexed": false,
          "internalType": "uint256",
          "name": "amount",
          "type": "uint256"
        }
      ],
      "name": "RewardsClaimed",
      "type": "event"
    },
    {
      "anonymous": false,
      "inputs": [
        {
          "indexed": false,
          "internalType": "uint256",
          "name": "accRewardPerShare",
          "type": "uint256"
        },
        {
          "indexed": false,
          "internalType": "uint256",
          "name": "totalRewardsPaid",
          "type": "uint256"
        }
      ],
      "name": "RewardsUpdated",
      "type": "event"
    },
    {
      "anonymous": false,
      "inputs": [
        {
          "indexed": true,
          "internalType": "address",
          "name": "validator",
          "type": "address"
        },
        {
          "indexed": false,
          "internalType": "uint256",
          "name": "amount",
          "type": "uint256"
        },
        {
          "indexed": true,
          "internalType": "address",
          "name": "slasher",
          "type": "address"
        }
      ],
      "name": "Slashed",
      "type": "event"
    },
    {
      "anonymous": false,
      "inputs": [
        {
          "indexed": true,
          "internalType": "address",
          "name": "validator",
          "type": "address"
        },
        {
          "indexed": false,
          "internalType": "uint256",
          "name": "amount",
          "type": "uint256"
        },
        {
          "indexed": false,
          "internalType": "uint256",
          "name": "totalStaked",
          "type": "uint256"
        }
      ],
      "name": "Staked",
      "type": "event"
    },
    {
      "anonymous": false,
      "inputs": [
        {
          "indexed": false,
          "internalType": "uint256",
          "name": "apyBasisPoints",
          "type": "uint256"
        }
      ],
      "name": "TargetAPYSet",
      "type": "event"
    },
    {
      "anonymous": false,
      "inputs": [
        {
          "indexed": true,
          "internalType": "address",
          "name": "validator",
          "type": "address"
        },
        {
          "indexed": false,
          "internalType": "uint256",
          "name": "amount",
          "type": "uint256"
        },
        {
          "indexed": false,
          "internalType": "uint256",
          "name": "unlockTime",
          "type": "uint256"
        }
      ],
      "name": "UnstakeRequested",
      "type": "event"
    },
    {
      "anonymous": false,
      "inputs": [
        {
          "indexed": true,
          "internalType": "address",
          "name": "validator",
          "type": "address"
        }
      ],
      "name": "ValidatorActivated",
      "type": "event"
    },
    {
      "anonymous": false,
      "inputs": [
        {
          "indexed": true,
          "internalType": "address",
          "name": "validator",
          "type": "address"
        }
      ],
      "name": "ValidatorDeactivated",
      "type": "event"
    },
    {
      "anonymous": false,
      "inputs": [
        {
          "indexed": true,
          "internalType": "address",
          "name": "validator",
          "type": "address"
        },
        {
          "indexed": false,
          "internalType": "uint256",
          "name": "amount",
          "type": "uint256"
        }
      ],
      "name": "Withdrawn",
      "type": "event"
    },
    {
      "inputs": [],
      "name": "COOLDOWN_PERIOD",
      "outputs": [
        {
          "internalType": "uint256",
          "name": "",
          "type": "uint256"
        }
      ],
      "stateMutability": "view",
      "type": "function"
    },
    {
      "inputs": [],
      "name": "MAX_APY",
      "outputs": [
        {
          "internalType": "uint256",
          "name": "",
          "type": "uint256"
        }
      ],
      "stateMutability": "view",
      "type": "function"
    },
    {
      "inputs": [],
      "name": "MINIMUM_STAKE",
      "outputs": [
        {
          "internalType": "uint256",
          "name": "",
          "type": "uint256"
        }
      ],
      "stateMutability": "view",
      "type": "function"
    },
    {
      "inputs": [],
      "name": "PRECISION",
      "outputs": [
        {
          "internalType": "uint256",
          "name": "",
          "type": "uint256"
        }
      ],
      "stateMutability": "view",
      "type": "function"
    },
    {
      "inputs": [],
      "name": "SLASH_PERCENTAGE",
      "outputs": [
        {
          "internalType": "uint256",
          "name": "",
          "type": "uint256"
        }
      ],
      "stateMutability": "view",
      "type": "function"
    },
    {
      "inputs": [],
      "name": "accRewardPerShare",
      "outputs": [
        {
          "internalType": "uint256",
          "name": "",
          "type": "uint256"
        }
      ],
      "stateMutability": "view",
      "type": "function"
    },
    {
      "inputs": [],
      "name": "bridge",
      "outputs": [
        {
          "internalType": "address",
          "name": "",
          "type": "address"
        }
      ],
      "stateMutability": "view",
      "type": "function"
    },
    {
      "inputs": [],
      "name": "cancelUnstake",
      "outputs": [],
      "stateMutability": "nonpayable",
      "type": "function"
    },
    {
      "inputs": [],
      "name": "claimRewards",
      "outputs": [],
      "stateMutability": "nonpayable",
      "type": "function"
    },
    {
      "inputs": [
        {
          "internalType": "address",
          "name": "beneficiary",
          "type": "address"
        }
      ],
      "name": "claimRewardsFor",
      "outputs": [],
      "stateMutability": "nonpayable",
      "type": "function"
    },
    {
      "inputs": [],
      "name": "currentAPY",
      "outputs": [
        {
          "internalType": "uint256",
          "name": "",
          "type": "uint256"
        }
      ],
      "stateMutability": "view",
      "type": "function"
    },
    {
      "inputs": [
        {
          "internalType": "uint256",
          "name": "amount",
          "type": "uint256"
        }
      ],
      "name": "depositFees",
      "outputs": [],
      "stateMutability": "nonpayable",
      "type": "function"
    },
    {
      "inputs": [],
      "name": "feePool",
      "outputs": [
        {
          "internalType": "uint256",
          "name": "",
          "type": "uint256"
        }
      ],
      "stateMutability": "view",
      "type": "function"
    },
    {
      "inputs": [
        {
          "internalType": "uint256",
          "name": "amount",
          "type": "uint256"
        }
      ],
      "name": "fundRewardPool",
      "outputs": [],
      "stateMutability": "nonpayable",
      "type": "function"
    },
    {
      "inputs": [],
      "name": "getActiveValidators",
      "outputs": [
        {
          "internalType": "address[]",
          "name": "",
          "type": "address[]"
        }
      ],
      "stateMutability": "view",
      "type": "function"
    },
    {
      "inputs": [
        {
          "internalType": "address",
          "name": "account",
          "type": "address"
        }
      ],
      "name": "getPendingUnstake",
      "outputs": [
        {
          "internalType": "uint256",
          "name": "amount",
          "type": "uint256"
        },
        {
          "internalType": "uint256",
          "name": "unlockTime",
          "type": "uint256"
        }
      ],
      "stateMutability": "view",
      "type": "function"
    },
    {
      "inputs": [],
      "name": "getRewardInfo",
      "outputs": [
        {
          "internalType": "uint256",
          "name": "_rewardPool",
          "type": "uint256"
        },
        {
          "internalType": "uint256",
          "name": "_feePool",
          "type": "uint256"
        },
        {
          "internalType": "uint256",
          "name": "_targetAPY",
          "type": "uint256"
        },
        {
          "internalType": "uint256",
          "name": "_totalStaked",
          "type": "uint256"
        },
        {
          "internalType": "uint256",
          "name": "_totalRewardsPaid",
          "type": "uint256"
        }
      ],
      "stateMutability": "view",
      "type": "function"
    },
    {
      "inputs": [
        {
          "internalType": "address",
          "name": "account",
          "type": "address"
        }
      ],
      "name": "getStake",
      "outputs": [
        {
          "internalType": "uint256",
          "name": "",
          "type": "uint256"
        }
      ],
      "stateMutability": "view",
      "type": "function"
    },
    {
      "inputs": [],
      "name": "getValidatorCount",
      "outputs": [
        {
          "internalType": "uint256",
          "name": "",
          "type": "uint256"
        }
      ],
      "stateMutability": "view",
      "type": "function"
    },
    {
      "inputs": [
        {
          "internalType": "address",
          "name": "account",
          "type": "address"
        }
      ],
      "name": "isActiveValidator",
      "outputs": [
        {
          "internalType": "bool",
          "name": "",
          "type": "bool"
        }
      ],
      "stateMutability": "view",
      "type": "function"
    },
    {
      "inputs": [],
      "name": "lastRewardTime",
      "outputs": [
        {
          "internalType": "uint256",
          "name": "",
          "type": "uint256"
        }
      ],
      "stateMutability": "view",
      "type": "function"
    },
    {
      "inputs": [],
      "name": "owner",
      "outputs": [
        {
          "internalType": "address",
          "name": "",
          "type": "address"
        }
      ],
      "stateMutability": "view",
      "type": "function"
    },
    {
      "inputs": [
        {
          "internalType": "address",
          "name": "account",
          "type": "address"
        }
      ],
      "name": "pendingReward",
      "outputs": [
        {
          "internalType": "uint256",
          "name": "",
          "type": "uint256"
        }
      ],
      "stateMutability": "view",
      "type": "function"
    },
    {
      "inputs": [],
      "name": "renounceOwnership",
      "outputs": [],
      "stateMutability": "nonpayable",
      "type": "function"
    },
    {
      "inputs": [
        {
          "internalType": "uint256",
          "name": "amount",
          "type": "uint256"
        }
      ],
      "name": "requestUnstake",
      "outputs": [],
      "stateMutability": "nonpayable",
      "type": "function"
    },
    {
      "inputs": [
        {
          "internalType": "address",
          "name": "beneficiary",
          "type": "address"
        },
        {
          "internalType": "uint256",
          "name": "amount",
          "type": "uint256"
        }
      ],
      "name": "requestUnstakeFor",
      "outputs": [],
      "stateMutability": "nonpayable",
      "type": "function"
    },
    {
      "inputs": [],
      "name": "rewardPool",
      "outputs": [
        {
          "internalType": "uint256",
          "name": "",
          "type": "uint256"
        }
      ],
      "stateMutability": "view",
      "type": "function"
    },
    {
      "inputs": [
        {
          "internalType": "address",
          "name": "_bridge",
          "type": "address"
        }
      ],
      "name": "setBridge",
      "outputs": [],
      "stateMutability": "nonpayable",
      "type": "function"
    },
    {
      "inputs": [
        {
          "internalType": "uint256",
          "name": "_apyBasisPoints",
          "type": "uint256"
        }
      ],
      "name": "setTargetAPY",
      "outputs": [],
      "stateMutability": "nonpayable",
      "type": "function"
    },
    {
      "inputs": [
        {
          "internalType": "address",
          "name": "validator",
          "type": "address"
        },
        {
          "internalType": "address",
          "name": "challenger",
          "type": "address"
        }
      ],
      "name": "slash",
      "outputs": [
        {
          "internalType": "uint256",
          "name": "slashedAmount",
          "type": "uint256"
        }
      ],
      "stateMutability": "nonpayable",
      "type": "function"
    },
    {
      "inputs": [
        {
          "internalType": "uint256",
          "name": "amount",
          "type": "uint256"
        }
      ],
      "name": "stake",
      "outputs": [],
      "stateMutability": "nonpayable",
      "type": "function"
    },
    {
      "inputs": [
        {
          "internalType": "address",
          "name": "beneficiary",
          "type": "address"
        },
        {
          "internalType": "uint256",
          "name": "amount",
          "type": "uint256"
        }
      ],
      "name": "stakeFor",
      "outputs": [],
      "stateMutability": "nonpayable",
      "type": "function"
    },
    {
      "inputs": [],
      "name": "stakingToken",
      "outputs": [
        {
          "internalType": "contract IERC20",
          "name": "",
          "type": "address"
        }
      ],
      "stateMutability": "view",
      "type": "function"
    },
    {
      "inputs": [],
      "name": "targetAPY",
      "outputs": [
        {
          "internalType": "uint256",
          "name": "",
          "type": "uint256"
        }
      ],
      "stateMutability": "view",
      "type": "function"
    },
    {
      "inputs": [],
      "name": "totalRewardsPaid",
      "outputs": [
        {
          "internalType": "uint256",
          "name": "",
          "type": "uint256"
        }
      ],
      "stateMutability": "view",
      "type": "function"
    },
    {
      "inputs": [],
      "name": "totalStaked",
      "outputs": [
        {
          "internalType": "uint256",
          "name": "",
          "type": "uint256"
        }
      ],
      "stateMutability": "view",
      "type": "function"
    },
    {
      "inputs": [
        {
          "internalType": "address",
          "name": "newOwner",
          "type": "address"
        }
      ],
      "name": "transferOwnership",
      "outputs": [],
      "stateMutability": "nonpayable",
      "type": "function"
    },
    {
      "inputs": [
        {
          "internalType": "uint256",
          "name": "",
          "type": "uint256"
        }
      ],
      "name": "validatorList",
      "outputs": [
        {
          "internalType": "address",
          "name": "",
          "type": "address"
        }
      ],
      "stateMutability": "view",
      "type": "function"
    },
    {
      "inputs": [
        {
          "internalType": "address",
          "name": "",
          "type": "address"
        }
      ],
      "name": "validators",
      "outputs": [
        {
          "internalType": "uint256",
          "name": "stakedAmount",
          "type": "uint256"
        },
        {
          "internalType": "uint256",
          "name": "unstakeRequestTime",
          "type": "uint256"
        },
        {
          "internalType": "uint256",
          "name": "unstakeAmount",
          "type": "uint256"
        },
        {
          "internalType": "uint256",
          "name": "rewardDebt",
          "type": "uint256"
        },
        {
          "internalType": "uint256",
          "name": "pendingRewards",
          "type": "uint256"
        },
        {
          "internalType": "bool",
          "name": "isActive",
          "type": "bool"
        }
      ],
      "stateMutability": "view",
      "type": "function"
    },
    {
      "inputs": [],
      "name": "withdraw",
      "outputs": [],
      "stateMutability": "nonpayable",
      "type": "function"
    },
    {
      "inputs": [
        {
          "internalType": "address",
          "name": "beneficiary",
          "type": "address"
        }
      ],
      "name": "withdrawFor",
      "outputs": [],
      "stateMutability": "nonpayable",
      "type": "function"
    },
    {
      "inputs": [
        {
          "internalType": "uint256",
          "name": "amount",
          "type": "uint256"
        }
      ],
      "name": "withdrawRewardPool",
      "outputs": [],
      "stateMutability": "nonpayable",
      "type": "function"
    }
  ],
  "bytecode": "0x60a06040523480156200001157600080fd5b506040516200295538038062002955833981016040819052620000349162000104565b6200003f33620000b4565b600180556001600160a01b0381166200009e5760405162461bcd60e51b815260206004820152601560248201527f496e76616c696420746f6b656e20616464726573730000000000000000000000604482015260640160405180910390fd5b6001600160a01b031660805242600a5562000136565b600080546001600160a01b038381166001600160a01b0319831681178455604051919092169283917f8be0079c531659141344cd1fd0a4f28419497f9722a3daafe3b4186f6b6457e09190a35050565b6000602082840312156200011757600080fd5b81516001600160a01b03811681146200012f57600080fd5b9392505050565b6080516127c462000191600039600081816103bc0152818161070e015281816107bb01528181610df101528181610f400152818161122701528181611897015281816119dd01528181611be80152611ccf01526127c46000f3fe608060405234801561001057600080fd5b506004361061025e5760003560e01c80638da5cb5b11610146578063aaf5eb68116100c3578063e78cea9211610087578063e78cea921461051f578063ebdac09014610532578063f2fde38b14610545578063f40f0f5214610558578063f5f8aa951461056b578063fa52c7d81461057e57600080fd5b8063aaf5eb68146104d8578063ae2e933b146104e7578063b048e056146104f0578063c74cab4914610503578063e6d012e41461051657600080fd5b80639a79d32b1161010a5780639a79d32b1461048d5780639de70258146104955780639eca672c146104aa5780639f29f135146104bd578063a694fc3a146104c557600080fd5b80638da5cb5b146104445780638dd14802146104555780639231cf7414610468578063939d6237146104715780639691576e1461047a57600080fd5b80634ab17969116101df578063715018a6116101a3578063715018a6146103af57806372f702f3146103b757806374958e35146103f65780637a766460146103ff5780637aeccce914610428578063817b1cd21461043b57600080fd5b80634ab179691461035557806366666aa91461035d578063699c8f33146103665780636e99d52f1461039d5780637071688a146103a757600080fd5b80632f54fe72116102265780632f54fe72146102d5578063372500ab146102fd5780633ccfd60b146103055780633d92f4e21461030d57806340550a1c1461031657600080fd5b806308dbbb03146102635780631ac6d19d146102875780631d583e0d1461029c57806323095721146102af5780632ee40908146102c2575b600080fd5b61027469021e19e0c9bab240000081565b6040519081526020015b60405180910390f35b61029a6102953660046124dc565b6105f6565b005b61029a6102aa3660046124f7565b610786565b61029a6102bd3660046124f7565b61083b565b61029a6102d0366004612510565b610a7b565b6102e86102e33660046124dc565b610cdc565b6040805192835260208301919091520161027e565b61029a610d1a565b61029a610e5b565b61027461138881565b6103456103243660046124dc565b6001600160a01b031660009081526003602052604090206005015460ff1690565b604051901515815260200161027e565b61029a610f99565b61027460065481565b600654600754600b54600554600954604080519586526020860194909452928401919091526060830152608082015260a00161027e565b61027462093a8081565b600454610274565b61029a611069565b6103de7f000000000000000000000000000000000000000000000000000000000000000081565b6040516001600160a01b03909116815260200161027e565b61027460095481565b61027461040d3660046124dc565b6001600160a01b031660009081526003602052604090205490565b61027461043636600461253a565b61107b565b61027460055481565b6000546001600160a01b03166103de565b61029a6104633660046124dc565b6112ab565b610274600a5481565b61027460085481565b61029a610488366004612510565b611354565b600b54610274565b61049d6115e6565b60405161027e919061256d565b61029a6104b83660046124dc565b61177b565b610274603281565b61029a6104d33660046124f7565b6118f9565b610274670de0b6b3a764000081565b61027460075481565b6103de6104fe3660046124f7565b611b2b565b61029a6105113660046124f7565b611b55565b610274600b5481565b6002546103de906001600160a01b031681565b61029a6105403660046124f7565b611c49565b61029a6105533660046124dc565b611d7c565b6102746105663660046124dc565b611df2565b61029a6105793660046124f7565b611f17565b6105c761058c3660046124dc565b600360208190526000918252604090912080546001820154600283015493830154600484015460059094015492949193919290919060ff1686565b6040805196875260208701959095529385019290925260608401526080830152151560a082015260c00161027e565b6105fe611fa4565b610606611ffe565b6001600160a01b0381166106355760405162461bcd60e51b815260040161062c906125ba565b60405180910390fd5b61063d612057565b6001600160a01b0381166000908152600360205260408120600481015490919061066684612171565b61067091906125fd565b9050600081116106b85760405162461bcd60e51b81526020600482015260136024820152724e6f207265776172647320746f20636c61696d60681b604482015260640161062c565b600060048301556008548254670de0b6b3a7640000916106d791612610565b6106e19190612627565b826003018190555080600960008282546106fb91906125fd565b9091555061073590506001600160a01b037f00000000000000000000000000000000000000000000000000000000000000001684836121d2565b826001600160a01b03167ffc30cddea38e2bf4d6ea7d3f9ed3b6ad7f176419f4963bd81318067a4aee73fe8260405161077091815260200190565b60405180910390a2505061078360018055565b50565b61078e611fa4565b600081116107ae5760405162461bcd60e51b815260040161062c90612649565b6107e36001600160a01b037f00000000000000000000000000000000000000000000000000000000000000001633308461223a565b80600660008282546107f591906125fd565b90915550506006546040805183815260208101929092527f5451f0d28a59c1c16a9d7cc5017150d585749eb225366037423f94b85ad94ea791015b60405180910390a150565b3360009081526003602052604090206005015460ff166108975760405162461bcd60e51b81526020600482015260176024820152762737ba1030b71030b1ba34bb32903b30b634b230ba37b960491b604482015260640161062c565b61089f611ffe565b6108a7612057565b336000908152600360205260409020816108d35760405162461bcd60e51b815260040161062c90612649565b80548211156109195760405162461bcd60e51b8152602060048201526012602482015271496e73756666696369656e74207374616b6560701b604482015260640161062c565b600061092433612171565b90508015610946578082600401600082825461094091906125fd565b90915550505b8154600090610956908590612675565b905080156109b35769021e19e0c9bab24000008110156109b35760405162461bcd60e51b8152602060048201526018602482015277576f756c642064726f702062656c6f77206d696e696d756d60401b604482015260640161062c565b42600184015560028301849055600854670de0b6b3a7640000906109d79083612610565b6109e19190612627565b60038401556000819003610a275760058301805460ff1916905560405133907f23d934bfe7f1275bc6fd70432159c9cc1c0075d069f89da6a40f43bfe7a94ed390600090a25b337f57e41df54512c76148b5ba9b643d149752b0d35e493b969bd017d0a3fe5228cf85610a5762093a80426125fd565b6040805192835260208301919091520160405180910390a250505061078360018055565b610a83611fa4565b610a8b611ffe565b6001600160a01b038216610ab15760405162461bcd60e51b815260040161062c906125ba565b60008111610ad15760405162461bcd60e51b815260040161062c90612649565b610ad9612057565b6001600160a01b0382166000908152600360205260409020805415610b27576000610b0384612171565b90508015610b255780826004016000828254610b1f91906125fd565b90915550505b505b8054600090610b379084906125fd565b905069021e19e0c9bab2400000811015610b895760405162461bcd60e51b815260206004820152601360248201527242656c6f77206d696e696d756d207374616b6560681b604482015260640161062c565b8154600003610bde57600480546001810182556000919091527f8a35acfbc15ff81a39ae7d344fd709f28e8600b4aa8c65c6b64bfe7fe36bd19b0180546001600160a01b0319166001600160a01b0386161790555b808255600854670de0b6b3a764000090610bf89083612610565b610c029190612627565b82600301819055508260056000828254610c1c91906125fd565b9091555050600582015460ff16158015610c40575069021e19e0c9bab24000008110155b15610c895760058201805460ff191660011790556040516001600160a01b038516907fb2b8c5f713f27009f7a78ec2167999c472e5ee8bc591102da17bc4a6551236c890600090a25b60408051848152602081018390526001600160a01b038616917f1449c6dd7851abc30abf37f57715f492010519147cc2652fbc38202c18a6ee90910160405180910390a25050610cd860018055565b5050565b6001600160a01b03811660009081526003602052604081206002810154600182015483929190610d109062093a80906125fd565b9250925050915091565b610d22611ffe565b610d2a612057565b33600081815260036020526040812060048101549092610d4990612171565b610d5391906125fd565b905060008111610d9b5760405162461bcd60e51b81526020600482015260136024820152724e6f207265776172647320746f20636c61696d60681b604482015260640161062c565b600060048301556008548254670de0b6b3a764000091610dba91612610565b610dc49190612627565b82600301819055508060096000828254610dde91906125fd565b90915550610e1890506001600160a01b037f00000000000000000000000000000000000000000000000000000000000000001633836121d2565b60405181815233907ffc30cddea38e2bf4d6ea7d3f9ed3b6ad7f176419f4963bd81318067a4aee73fe906020015b60405180910390a25050610e5960018055565b565b610e63611ffe565b3360009081526003602052604090206002810154610e935760405162461bcd60e51b815260040161062c90612688565b62093a808160010154610ea691906125fd565b421015610eed5760405162461bcd60e51b8152602060048201526015602482015274436f6f6c646f776e206e6f7420636f6d706c65746560581b604482015260640161062c565b6002810154815481908390600090610f06908490612675565b90915550506000600283018190556001830181905560058054839290610f2d908490612675565b90915550610f6790506001600160a01b037f00000000000000000000000000000000000000000000000000000000000000001633836121d2565b60405181815233907f7084f5476618d8e60b11ef0d7d3f06914655adb8793e28ff7f018d4c76d505d590602001610e46565b610fa1612057565b3360009081526003602052604090206002810154610fd15760405162461bcd60e51b815260040161062c90612688565b600581015460ff16158015610ff15750805469021e19e0c9bab240000011155b156110315760058101805460ff1916600117905560405133907fb2b8c5f713f27009f7a78ec2167999c472e5ee8bc591102da17bc4a6551236c890600090a25b6008548154670de0b6b3a76400009161104991612610565b6110539190612627565b6003820155600060028201819055600190910155565b611071611fa4565b610e596000612278565b6002546000906001600160a01b031633146110cf5760405162461bcd60e51b815260206004820152601460248201527313db9b1e48189c9a5919d94818d85b8818d85b1b60621b604482015260640161062c565b6110d7611ffe565b6110df612057565b6001600160a01b038316600090815260036020526040902080546111395760405162461bcd60e51b815260206004820152601160248201527009cde40e6e8c2d6ca40e8de40e6d8c2e6d607b1b604482015260640161062c565b60006004820155805460649061115190603290612610565b61115b9190612627565b9150818160000160008282546111719190612675565b90915550506008548154670de0b6b3a76400009161118e91612610565b6111989190612627565b816003018190555081600560008282546111b29190612675565b9091555050805469021e19e0c9bab2400000111561120b5760058101805460ff191690556040516001600160a01b038516907f23d934bfe7f1275bc6fd70432159c9cc1c0075d069f89da6a40f43bfe7a94ed390600090a25b6001600160a01b0383161561124e5761124e6001600160a01b037f00000000000000000000000000000000000000000000000000000000000000001684846121d2565b826001600160a01b0316846001600160a01b03167fd87c3348a79019696e9b472cb0efe979015741dd3a1c95f43cc26dd1ace903c08460405161129391815260200190565b60405180910390a3506112a560018055565b92915050565b6112b3611fa4565b6001600160a01b0381166113025760405162461bcd60e51b8152602060048201526016602482015275496e76616c696420627269646765206164647265737360501b604482015260640161062c565b600280546001600160a01b038381166001600160a01b0319831681179093556040519116919082907faae9beddccf584528e87b66c6ff2563825c8a1433305b8a656e9b5f9bf39049990600090a35050565b61135c611fa4565b611364611ffe565b6001600160a01b03821661138a5760405162461bcd60e51b815260040161062c906125ba565b6001600160a01b03821660009081526003602052604090206005015460ff166113ef5760405162461bcd60e51b81526020600482015260176024820152762737ba1030b71030b1ba34bb32903b30b634b230ba37b960491b604482015260640161062c565b6113f7612057565b6001600160a01b03821660009081526003602052604090208161142c5760405162461bcd60e51b815260040161062c90612649565b80548211156114725760405162461bcd60e51b8152602060048201526012602482015271496e73756666696369656e74207374616b6560701b604482015260640161062c565b600061147d84612171565b9050801561149f578082600401600082825461149991906125fd565b90915550505b81546000906114af908590612675565b9050801561150c5769021e19e0c9bab240000081101561150c5760405162461bcd60e51b8152602060048201526018602482015277576f756c642064726f702062656c6f77206d696e696d756d60401b604482015260640161062c565b42600184015560028301849055600854670de0b6b3a7640000906115309083612610565b61153a9190612627565b600384015560008190036115895760058301805460ff191690556040516001600160a01b038616907f23d934bfe7f1275bc6fd70432159c9cc1c0075d069f89da6a40f43bfe7a94ed390600090a25b6001600160a01b0385167f57e41df54512c76148b5ba9b643d149752b0d35e493b969bd017d0a3fe5228cf856115c262093a80426125fd565b6040805192835260208301919091520160405180910390a2505050610cd860018055565b60606000805b60045481101561165d57600360006004838154811061160d5761160d6126b4565b60009182526020808320909101546001600160a01b0316835282019290925260400190206005015460ff161561164b5781611647816126ca565b9250505b80611655816126ca565b9150506115ec565b5060008167ffffffffffffffff811115611679576116796126e3565b6040519080825280602002602001820160405280156116a2578160200160208202803683370190505b5090506000805b6004548110156117725760036000600483815481106116ca576116ca6126b4565b60009182526020808320909101546001600160a01b0316835282019290925260400190206005015460ff1615611760576004818154811061170d5761170d6126b4565b6000918252602090912001546001600160a01b0316838361172d816126ca565b94508151811061173f5761173f6126b4565b60200260200101906001600160a01b031690816001600160a01b0316815250505b8061176a816126ca565b9150506116a9565b50909392505050565b611783611fa4565b61178b611ffe565b6001600160a01b0381166117b15760405162461bcd60e51b815260040161062c906125ba565b6001600160a01b038116600090815260036020526040902060028101546117ea5760405162461bcd60e51b815260040161062c90612688565b62093a8081600101546117fd91906125fd565b4210156118445760405162461bcd60e51b8152602060048201526015602482015274436f6f6c646f776e206e6f7420636f6d706c65746560581b604482015260640161062c565b600281015481548190839060009061185d908490612675565b90915550506000600283018190556001830181905560058054839290611884908490612675565b909155506118be90506001600160a01b037f00000000000000000000000000000000000000000000000000000000000000001684836121d2565b826001600160a01b03167f7084f5476618d8e60b11ef0d7d3f06914655adb8793e28ff7f018d4c76d505d58260405161077091815260200190565b611901611ffe565b600081116119215760405162461bcd60e51b815260040161062c90612649565b611929612057565b33600090815260036020526040902080541561196e57600061194a33612171565b9050801561196c578082600401600082825461196691906125fd565b90915550505b505b805460009061197e9084906125fd565b905069021e19e0c9bab24000008110156119d05760405162461bcd60e51b815260206004820152601360248201527242656c6f77206d696e696d756d207374616b6560681b604482015260640161062c565b611a056001600160a01b037f00000000000000000000000000000000000000000000000000000000000000001633308661223a565b8154600003611a5157600480546001810182556000919091527f8a35acfbc15ff81a39ae7d344fd709f28e8600b4aa8c65c6b64bfe7fe36bd19b0180546001600160a01b031916331790555b808255600854670de0b6b3a764000090611a6b9083612610565b611a759190612627565b82600301819055508260056000828254611a8f91906125fd565b9091555050600582015460ff16158015611ab3575069021e19e0c9bab24000008110155b15611af35760058201805460ff1916600117905560405133907fb2b8c5f713f27009f7a78ec2167999c472e5ee8bc591102da17bc4a6551236c890600090a25b604080518481526020810183905233917f1449c6dd7851abc30abf37f57715f492010519147cc2652fbc38202c18a6ee909101610770565b60048181548110611b3b57600080fd5b6000918252602090912001546001600160a01b0316905081565b611b5d611fa4565b600654811115611baf5760405162461bcd60e51b815260206004820152601860248201527f496e73756666696369656e742072657761726420706f6f6c0000000000000000604482015260640161062c565b611bb7612057565b8060066000828254611bc99190612675565b9091555050600054611c0f906001600160a01b03166001600160a01b037f00000000000000000000000000000000000000000000000000000000000000001690836121d2565b6006546040805183815260208101929092527ff17c0235da5cefe46d41b0b326d331f5015200f5dda6ed3265c4c954ebad8f109101610830565b6002546001600160a01b03163314611c9a5760405162461bcd60e51b815260206004820152601460248201527313db9b1e48189c9a5919d94818d85b8818d85b1b60621b604482015260640161062c565b60008111611cba5760405162461bcd60e51b815260040161062c90612649565b611cc2612057565b611cf76001600160a01b037f00000000000000000000000000000000000000000000000000000000000000001633308461223a565b8060076000828254611d0991906125fd565b909155505060055415611d4c57600554611d2b670de0b6b3a764000083612610565b611d359190612627565b60086000828254611d4691906125fd565b90915550505b6040518181527f02bede6503f7c3293d6eac9b0f4981900471e18774a84ccc98715aa54330179490602001610830565b611d84611fa4565b6001600160a01b038116611de95760405162461bcd60e51b815260206004820152602660248201527f4f776e61626c653a206e6577206f776e657220697320746865207a65726f206160448201526564647265737360d01b606482015260840161062c565b61078381612278565b6001600160a01b038116600090815260036020526040812080548203611e1c576004015492915050565b60085460055415801590611e3257506000600b54115b8015611e4057506000600654115b8015611e4d5750600a5442115b15611ed0576000600a5442611e629190612675565b9050600064496cebb80082600b54600554611e7d9190612610565b611e879190612610565b611e919190612627565b9050600654811115611ea257506006545b600554611eb7670de0b6b3a764000083612610565b611ec19190612627565b611ecb90846125fd565b925050505b600482015460038301548354670de0b6b3a764000090611ef1908590612610565b611efb9190612627565b611f059190612675565b611f0f91906125fd565b949350505050565b611f1f611fa4565b611388811115611f675760405162461bcd60e51b81526020600482015260136024820152724150592065786365656473206d6178696d756d60681b604482015260640161062c565b611f6f612057565b600b8190556040518181527fc7f87f4e6dae499a921a5cc635cfbc27ee789f8f818fb83f3ea2c40608a6f6fe90602001610830565b6000546001600160a01b03163314610e595760405162461bcd60e51b815260206004820181905260248201527f4f776e61626c653a2063616c6c6572206973206e6f7420746865206f776e6572604482015260640161062c565b6002600154036120505760405162461bcd60e51b815260206004820152601f60248201527f5265656e7472616e637947756172643a207265656e7472616e742063616c6c00604482015260640161062c565b6002600155565b600a54421161206257565b6005546000036120725742600a55565b6000600a54426120829190612675565b90506000600b5411801561209857506000600654115b1561213057600064496cebb80082600b546005546120b69190612610565b6120c09190612610565b6120ca9190612627565b90506006548111156120db57506006545b801561212e5780600660008282546120f39190612675565b909155505060055461210d670de0b6b3a764000083612610565b6121179190612627565b6008600082825461212891906125fd565b90915550505b505b42600a556008546009546040517fcd7c861d63893659123f817b192b8621ff1923a7c4589c260173cedcf9e986a69261083092908252602082015260400190565b6001600160a01b03811660009081526003602052604081208054820361219a5750600092915050565b60038101546008548254670de0b6b3a7640000916121b791612610565b6121c19190612627565b6121cb9190612675565b9392505050565b6040516001600160a01b03831660248201526044810182905261223590849063a9059cbb60e01b906064015b60408051601f198184030181529190526020810180516001600160e01b03166001600160e01b0319909316929092179091526122c8565b505050565b6040516001600160a01b03808516602483015283166044820152606481018290526122729085906323b872dd60e01b906084016121fe565b50505050565b600080546001600160a01b038381166001600160a01b0319831681178455604051919092169283917f8be0079c531659141344cd1fd0a4f28419497f9722a3daafe3b4186f6b6457e09190a35050565b600061231d826040518060400160405280602081526020017f5361666545524332303a206c6f772d6c6576656c2063616c6c206661696c6564815250856001600160a01b031661239d9092919063ffffffff16565b905080516000148061233e57508080602001905181019061233e91906126f9565b6122355760405162461bcd60e51b815260206004820152602a60248201527f5361666545524332303a204552433230206f7065726174696f6e20646964206e6044820152691bdd081cdd58d8d9595960b21b606482015260840161062c565b6060611f0f848460008585600080866001600160a01b031685876040516123c4919061273f565b60006040518083038185875af1925050503d8060008114612401576040519150601f19603f3d011682016040523d82523d6000602084013e612406565b606091505b509150915061241787838387612422565b979650505050505050565b6060831561249157825160000361248a576001600160a01b0385163b61248a5760405162461bcd60e51b815260206004820152601d60248201527f416464726573733a2063616c6c20746f206e6f6e2d636f6e7472616374000000604482015260640161062c565b5081611f0f565b611f0f83838151156124a65781518083602001fd5b8060405162461bcd60e51b815260040161062c919061275b565b80356001600160a01b03811681146124d757600080fd5b919050565b6000602082840312156124ee57600080fd5b6121cb826124c0565b60006020828403121561250957600080fd5b5035919050565b6000806040838503121561252357600080fd5b61252c836124c0565b946020939093013593505050565b6000806040838503121561254d57600080fd5b612556836124c0565b9150612564602084016124c0565b90509250929050565b6020808252825182820181905260009190848201906040850190845b818110156125ae5783516001600160a01b031683529284019291840191600101612589565b50909695505050505050565b602080825260139082015272496e76616c69642062656e656669636961727960681b604082015260600190565b634e487b7160e01b600052601160045260246000fd5b808201808211156112a5576112a56125e7565b80820281158282048414176112a5576112a56125e7565b60008261264457634e487b7160e01b600052601260045260246000fd5b500490565b6020808252601290820152710416d6f756e74206d757374206265203e20360741b604082015260600190565b818103818111156112a5576112a56125e7565b6020808252601290820152714e6f2070656e64696e6720756e7374616b6560701b604082015260600190565b634e487b7160e01b600052603260045260246000fd5b6000600182016126dc576126dc6125e7565b5060010190565b634e487b7160e01b600052604160045260246000fd5b60006020828403121561270b57600080fd5b815180151581146121cb57600080fd5b60005b8381101561273657818101518382015260200161271e565b50506000910152565b6000825161275181846020870161271b565b9190910192915050565b602081526000825180602084015261277a81604085016020870161271b565b601f01601f1916919091016040019291505056fea264697066735822122002475c7a49f05a30e2c8144eaf211751a06ad77c87e5260f13462ccb6eb6b22664736f6c63430008140033",
  "linkReferences": {},
  "deployedLinkReferences": {}
}