{
  "_format": "hh-sol-artifact-1",
  "contractName": "StorageProof",
  "sourceName": "contracts/StorageProof.sol",
  "abi": [
    {
      "inputs": [],
      "stateMutability": "nonpayable",
      "type": "constructor"
    },
    {
      "inputs": [
        {
          "internalType": "address",
          "name": "owner",
          "type": "address"
        }
      ],
      "name": "OwnableInvalidOwner",
      "type": "error"
    },
    {
      "inputs": [
        {
          "internalType": "address",
          "name": "account",
          "type": "address"
        }
      ],
      "name": "OwnableUnauthorizedAccount",
      "type": "error"
    },
    {
      "anonymous": false,
      "inputs": [
        {
          "indexed": true,
          "internalType": "bytes32",
          "name": "challengeId",
          "type": "bytes32"
        },
        {
          "indexed": true,
          "internalType": "bytes32",
          "name": "nodeId",
          "type": "bytes32"
        }
      ],
      "name": "ChallengeExpired",
      "type": "event"
    },
    {
      "anonymous": false,
      "inputs": [
        {
          "indexed": true,
          "internalType": "bytes32",
          "name": "challengeId",
          "type": "bytes32"
        },
        {
          "indexed": true,
          "internalType": "bytes32",
          "name": "nodeId",
          "type": "bytes32"
        },
        {
          "indexed": false,
          "internalType": "bytes32",
          "name": "chunkHash",
          "type": "bytes32"
        },
        {
          "indexed": false,
          "internalType": "uint256",
          "name": "offset",
          "type": "uint256"
        }
      ],
      "name": "ChallengeIssued",
      "type": "event"
    },
    {
      "anonymous": false,
      "inputs": [
        {
          "indexed": true,
          "internalType": "address",
          "name": "executor",
          "type": "address"
        },
        {
          "indexed": false,
          "internalType": "bool",
          "name": "allowed",
          "type": "bool"
        }
      ],
      "name": "ExecutorUpdated",
      "type": "event"
    },
    {
      "anonymous": false,
      "inputs": [
        {
          "indexed": true,
          "internalType": "address",
          "name": "previousOwner",
          "type": "address"
        },
        {
          "indexed": true,
          "internalType": "address",
          "name": "newOwner",
          "type": "address"
        }
      ],
      "name": "OwnershipTransferred",
      "type": "event"
    },
    {
      "anonymous": false,
      "inputs": [
        {
          "indexed": true,
          "internalType": "bytes32",
          "name": "challengeId",
          "type": "bytes32"
        },
        {
          "indexed": true,
          "internalType": "bytes32",
          "name": "nodeId",
          "type": "bytes32"
        },
        {
          "indexed": false,
          "internalType": "bytes32",
          "name": "proofHash",
          "type": "bytes32"
        }
      ],
      "name": "ProofSubmitted",
      "type": "event"
    },
    {
      "anonymous": false,
      "inputs": [
        {
          "indexed": true,
          "internalType": "bytes32",
          "name": "challengeId",
          "type": "bytes32"
        },
        {
          "indexed": true,
          "internalType": "bytes32",
          "name": "nodeId",
          "type": "bytes32"
        },
        {
          "indexed": false,
          "internalType": "bool",
          "name": "passed",
          "type": "bool"
        }
      ],
      "name": "ProofVerified",
      "type": "event"
    },
    {
      "inputs": [
        {
          "internalType": "uint256",
          "name": "",
          "type": "uint256"
        }
      ],
      "name": "allChallengeIds",
      "outputs": [
        {
          "internalType": "bytes32",
          "name": "",
          "type": "bytes32"
        }
      ],
      "stateMutability": "view",
      "type": "function"
    },
    {
      "inputs": [],
      "name": "challengeExpirySeconds",
      "outputs": [
        {
          "internalType": "uint256",
          "name": "",
          "type": "uint256"
        }
      ],
      "stateMutability": "view",
      "type": "function"
    },
    {
      "inputs": [
        {
          "internalType": "bytes32",
          "name": "",
          "type": "bytes32"
        }
      ],
      "name": "challenges",
      "outputs": [
        {
          "internalType": "bytes32",
          "name": "challengeId",
          "type": "bytes32"
        },
        {
          "internalType": "bytes32",
          "name": "nodeId",
          "type": "bytes32"
        },
        {
          "internalType": "bytes32",
          "name": "chunkHash",
          "type": "bytes32"
        },
        {
          "internalType": "uint256",
          "name": "offset",
          "type": "uint256"
        },
        {
          "internalType": "uint256",
          "name": "readBytes",
          "type": "uint256"
        },
        {
          "internalType": "uint256",
          "name": "createdAt",
          "type": "uint256"
        },
        {
          "internalType": "uint256",
          "name": "expiresAt",
          "type": "uint256"
        },
        {
          "internalType": "enum StorageProof.ChallengeStatus",
          "name": "status",
          "type": "uint8"
        },
        {
          "internalType": "bytes32",
          "name": "expectedHash",
          "type": "bytes32"
        },
        {
          "internalType": "bytes32",
          "name": "submittedHash",
          "type": "bytes32"
        }
      ],
      "stateMutability": "view",
      "type": "function"
    },
    {
      "inputs": [
        {
          "internalType": "bytes32[]",
          "name": "challengeIds",
          "type": "bytes32[]"
        }
      ],
      "name": "expireChallenges",
      "outputs": [],
      "stateMutability": "nonpayable",
      "type": "function"
    },
    {
      "inputs": [
        {
          "internalType": "bytes32",
          "name": "challengeId",
          "type": "bytes32"
        }
      ],
      "name": "getChallenge",
      "outputs": [
        {
          "components": [
            {
              "internalType": "bytes32",
              "name": "challengeId",
              "type": "bytes32"
            },
            {
              "internalType": "bytes32",
              "name": "nodeId",
              "type": "bytes32"
            },
            {
              "internalType": "bytes32",
              "name": "chunkHash",
              "type": "bytes32"
            },
            {
              "internalType": "uint256",
              "name": "offset",
              "type": "uint256"
            },
            {
              "internalType": "uint256",
              "name": "readBytes",
              "type": "uint256"
            },
            {
              "internalType": "uint256",
              "name": "createdAt",
              "type": "uint256"
            },
            {
              "internalType": "uint256",
              "name": "expiresAt",
              "type": "uint256"
            },
            {
              "internalType": "enum StorageProof.ChallengeStatus",
              "name": "status",
              "type": "uint8"
            },
            {
              "internalType": "bytes32",
              "name": "expectedHash",
              "type": "bytes32"
            },
            {
              "internalType": "bytes32",
              "name": "submittedHash",
              "type": "bytes32"
            }
          ],
          "internalType": "struct StorageProof.Challenge",
          "name": "",
          "type": "tuple"
        }
      ],
      "stateMutability": "view",
      "type": "function"
    },
    {
      "inputs": [
        {
          "internalType": "bytes32",
          "name": "nodeId",
          "type": "bytes32"
        }
      ],
      "name": "getNodeProofStats",
      "outputs": [
        {
          "internalType": "uint256",
          "name": "passed",
          "type": "uint256"
        },
        {
          "internalType": "uint256",
          "name": "failed",
          "type": "uint256"
        },
        {
          "internalType": "uint256",
          "name": "lastChallenge",
          "type": "uint256"
        },
        {
          "internalType": "uint256",
          "name": "successRate",
          "type": "uint256"
        }
      ],
      "stateMutability": "view",
      "type": "function"
    },
    {
      "inputs": [],
      "name": "getTotalChallenges",
      "outputs": [
        {
          "internalType": "uint256",
          "name": "",
          "type": "uint256"
        }
      ],
      "stateMutability": "view",
      "type": "function"
    },
    {
      "inputs": [
        {
          "internalType": "address",
          "name": "",
          "type": "address"
        }
      ],
      "name": "isExecutor",
      "outputs": [
        {
          "internalType": "bool",
          "name": "",
          "type": "bool"
        }
      ],
      "stateMutability": "view",
      "type": "function"
    },
    {
      "inputs": [
        {
          "internalType": "bytes32[]",
          "name": "challengeIds",
          "type": "bytes32[]"
        },
        {
          "internalType": "bytes32[]",
          "name": "nodeIds",
          "type": "bytes32[]"
        },
        {
          "internalType": "bytes32[]",
          "name": "chunkHashes",
          "type": "bytes32[]"
        },
        {
          "internalType": "uint256[]",
          "name": "offsets",
          "type": "uint256[]"
        },
        {
          "internalType": "uint256[]",
          "name": "readBytesArr",
          "type": "uint256[]"
        }
      ],
      "name": "issueChallenges",
      "outputs": [],
      "stateMutability": "nonpayable",
      "type": "function"
    },
    {
      "inputs": [],
      "name": "maxChallengesPerBatch",
      "outputs": [
        {
          "internalType": "uint256",
          "name": "",
          "type": "uint256"
        }
      ],
      "stateMutability": "view",
      "type": "function"
    },
    {
      "inputs": [
        {
          "internalType": "bytes32",
          "name": "",
          "type": "bytes32"
        }
      ],
      "name": "nodeLastChallenge",
      "outputs": [
        {
          "internalType": "uint256",
          "name": "",
          "type": "uint256"
        }
      ],
      "stateMutability": "view",
      "type": "function"
    },
    {
      "inputs": [
        {
          "internalType": "bytes32",
          "name": "",
          "type": "bytes32"
        }
      ],
      "name": "nodeProofsFailed",
      "outputs": [
        {
          "internalType": "uint256",
          "name": "",
          "type": "uint256"
        }
      ],
      "stateMutability": "view",
      "type": "function"
    },
    {
      "inputs": [
        {
          "internalType": "bytes32",
          "name": "",
          "type": "bytes32"
        }
      ],
      "name": "nodeProofsPassed",
      "outputs": [
        {
          "internalType": "uint256",
          "name": "",
          "type": "uint256"
        }
      ],
      "stateMutability": "view",
      "type": "function"
    },
    {
      "inputs": [],
      "name": "owner",
      "outputs": [
        {
          "internalType": "address",
          "name": "",
          "type": "address"
        }
      ],
      "stateMutability": "view",
      "type": "function"
    },
    {
      "inputs": [],
      "name": "renounceOwnership",
      "outputs": [],
      "stateMutability": "nonpayable",
      "type": "function"
    },
    {
      "inputs": [
        {
          "internalType": "uint256",
          "name": "seconds_",
          "type": "uint256"
        }
      ],
      "name": "setChallengeExpiry",
      "outputs": [],
      "stateMutability": "nonpayable",
      "type": "function"
    },
    {
      "inputs": [
        {
          "internalType": "address",
          "name": "executor",
          "type": "address"
        },
        {
          "internalType": "bool",
          "name": "allowed",
          "type": "bool"
        }
      ],
      "name": "setExecutor",
      "outputs": [],
      "stateMutability": "nonpayable",
      "type": "function"
    },
    {
      "inputs": [
        {
          "internalType": "uint256",
          "name": "maxBatch",
          "type": "uint256"
        }
      ],
      "name": "setMaxBatchSize",
      "outputs": [],
      "stateMutability": "nonpayable",
      "type": "function"
    },
    {
      "inputs": [
        {
          "internalType": "bytes32[]",
          "name": "challengeIds",
          "type": "bytes32[]"
        },
        {
          "internalType": "bytes32[]",
          "name": "proofHashes",
          "type": "bytes32[]"
        }
      ],
      "name": "submitProofs",
      "outputs": [],
      "stateMutability": "nonpayable",
      "type": "function"
    },
    {
      "inputs": [
        {
          "internalType": "address",
          "name": "newOwner",
          "type": "address"
        }
      ],
      "name": "transferOwnership",
      "outputs": [],
      "stateMutability": "nonpayable",
      "type": "function"
    },
    {
      "inputs": [
        {
          "internalType": "bytes32[]",
          "name": "challengeIds",
          "type": "bytes32[]"
        },
        {
          "internalType": "bytes32[]",
          "name": "expectedHashes",
          "type": "bytes32[]"
        }
      ],
      "name": "verifyProofs",
      "outputs": [],
      "stateMutability": "nonpayable",
      "type": "function"
    }
  ],
  "bytecode": "0x6080806040523461009c5733156100865760008054336001600160a01b0319821681178355604080519390929091906001600160a01b03167f8be0079c531659141344cd1fd0a4f28419497f9722a3daafe3b4186f6b6457e08380a361012c600655600a600755338152600860205220805460ff191660011790556111d490816100a28239f35b631e4fbdf760e01b815260006004820152602490fd5b600080fdfe608080604052600436101561001357600080fd5b60003560e01c9081630e2d861814610f44575080631e1bff3f14610ec5578063251e3f0e14610ea45780632b26a6bf14610e83578063458d2bf114610d3d5780634cf314d414610c825780635127953b14610c4b57806363ef286414610a9a57806367a0e30a14610967578063715018a61461090e57806378ea8d42146108e25780638da5cb5b146108b9578063a404fc501461088d578063ac3e7e86146106c8578063b693d4ef1461069c578063c1e69b6614610601578063dbe65cd3146105e3578063de9105b3146105c5578063debfda3014610586578063f2fde38b146104f85763fefa0c7d1461010657600080fd5b346104f35760a03660031901126104f35767ffffffffffffffff6004358181116104f357610138903690600401610fcf565b60249182358481116104f357610152903690600401610fcf565b6044929192358681116104f35761016d903690600401610fcf565b9190946064358881116104f357610188903690600401610fcf565b9490986084359081116104f3576101a3903690600401610fcf565b98909833600052600860205260ff6040600020541680156104df575b6101c890611077565b848414806104d6575b806104cd575b806104c4575b6101e6906110b5565b600754841161048a576101fb600654426110f9565b9060005b85811061020857005b610213818787611115565b35600052600160205260056040600020015461044657898b8d8f61026d85878f8f8f918f8f869361025885610266976102518261025f978197611115565b359f611115565b359b611115565b3596611115565b3594611115565b3592610277611125565b94855260208501526040840152606083015260808201524260a08201528360c0820152600060e0820152600061010082015260006101208201526102bc828888611115565b356000526001602052604060002090805182556020810151600183015560408101516002830155606081015160038301556080810151600483015560a0810151600583015560c0810151600683015560e081015160048110156104315760099161012091600785019060ff801983541691161790556101008101516008850155015191015561034c818787611115565b356002546801000000000000000081101561041c578b8f60408f93916104068f978f988f8f8f9b6103f885846104179f829f83968f927fff9335d945650a7848603e44892785bec52df2318c45f23b634eb2d0ff7b3b939f866103ff9b6103f19682966103c28560016103dd9701600255610f82565b819291549060031b91821b91600019901b1916179055611115565b356000526005602052428f60002055611115565b359c611115565b359a611115565b3593611115565b3582519182526020820152a3611106565b6101ff565b85634e487b7160e01b60005260416004526000fd5b86634e487b7160e01b60005260216004526000fd5b60405162461bcd60e51b8152602060048201526018818601527f4368616c6c656e676520616c72656164792065786973747300000000000000006044820152606490fd5b60405162461bcd60e51b81526020600482015260138184015272546f6f206d616e79206368616c6c656e67657360681b6044820152606490fd5b508381146101dd565b508684146101d7565b508584146101d1565b506000546001600160a01b031633146101bf565b600080fd5b346104f35760203660031901126104f357610511610f5f565b61051961104b565b6001600160a01b0390811690811561056d57600054826bffffffffffffffffffffffff60a01b821617600055167f8be0079c531659141344cd1fd0a4f28419497f9722a3daafe3b4186f6b6457e0600080a3005b604051631e4fbdf760e01b815260006004820152602490fd5b346104f35760203660031901126104f3576001600160a01b036105a7610f5f565b166000526008602052602060ff604060002054166040519015158152f35b346104f35760003660031901126104f3576020600254604051908152f35b346104f35760003660031901126104f3576020600754604051908152f35b346104f35760203660031901126104f3576004356000526001602052610140604060002080549060018101549061068e60028201546003830154600484015460058501549060068601549260ff6007880154169460096008890154980154986040519a8b5260208b015260408a01526060890152608088015260a087015260c086015260e0850190610f75565b610100830152610120820152f35b346104f35760203660031901126104f35760043560005260036020526020604060002054604051908152f35b346104f3576106d636611000565b92336000526020936008855260ff9182604060002054168015610879575b6106fd90611077565b6107088286146110b5565b60005b85811061071457005b61071f818784611115565b356000526001808852604060002061073c6005820154151561115c565b6007810180548781166004811015610863576108265790829160066107c3969594015442116107c85750509061077383878a611115565b356009830155610784838a87611115565b35910154907f32c9117442431c0bcfdbbef33bc9918d148ad082e0f38d70bbde857f01d225c88a6107b685898c611115565b35604051908152a3611106565b61070b565b60039060ff19161790550180546000526004895260406000206107eb8154611106565b90556107f8828986611115565b359054907fbda12ecafa37ca6b8d9c088ed9e32c0d08904a603e51d9135dc713da994ba0b1600080a3611106565b60405162461bcd60e51b8152600481018c905260156024820152744368616c6c656e6765206e6f742070656e64696e6760581b6044820152606490fd5b634e487b7160e01b600052602160045260246000fd5b506000546001600160a01b031633146106f4565b346104f35760203660031901126104f35760043560005260056020526020604060002054604051908152f35b346104f35760003660031901126104f3576000546040516001600160a01b039091168152602090f35b346104f35760203660031901126104f35760043560005260046020526020604060002054604051908152f35b346104f35760003660031901126104f35761092761104b565b600080546001600160a01b0319811682556001600160a01b03167f8be0079c531659141344cd1fd0a4f28419497f9722a3daafe3b4186f6b6457e08280a3005b346104f3576020806003193601126104f35760043567ffffffffffffffff81116104f357610999903690600401610fcf565b9091336000526008815260ff80604060002054168015610a86575b6109bd90611077565b60005b8381106109c957005b6109d4818587611115565b35600052600190818452604060002091600783019283549385851694600486101561086357610a12951580610a79575b610a17575b50505050611106565b6109c0565b60039060ff1916179055018054600052600485526040600020610a3a8154611106565b9055610a47828789611115565b359054907fbda12ecafa37ca6b8d9c088ed9e32c0d08904a603e51d9135dc713da994ba0b1600080a386808080610a09565b5060068301544211610a04565b506000546001600160a01b031633146109b4565b346104f357610aa836611000565b919033600052600893602085815260ff9384604060002054168015610c37575b610ad190611077565b610adc8682146110b5565b60005b818110610ae857005b610af3818386611115565b356000526001908184526040600020610b116005820154151561115c565b60078101805491898316600481101561086357610bcf958a938e878f8c95610c2957610b5292610b4283838b611115565b3590880155600987015497611115565b3585149485610bff575b5084957f93d4ed78b89f39dcd2420a893e1b1e1de5b0eebd04d5982192df6853a0b5e87b9495600014610bd457508160ff1982541617905580840154600052600382526040600020610bae8154611106565b90555b610bbc86898c611115565b35930154936040519015158152a3611106565b610adf565b60029060ff191617905580840154600052600482526040600020610bf88154611106565b9055610bb1565b151594507f93d4ed78b89f39dcd2420a893e1b1e1de5b0eebd04d5982192df6853a0b5e87b610b5c565b505050505050505050611106565b506000546001600160a01b03163314610ac8565b346104f35760203660031901126104f3576004356002548110156104f357610c74602091610f82565b90546040519160031b1c8152f35b346104f35760203660031901126104f3576004356000526003602052604060002054600460205260406000205490600560205260406000205491610cc681836110f9565b8015939084610d305761271094858502958587041485151715610d1a57610d045760809404915b604051938452602084015260408301526060820152f35b634e487b7160e01b600052601260045260246000fd5b634e487b7160e01b600052601160045260246000fd5b5060809350600091610ced565b346104f35760203660031901126104f357610d56611125565b6000815260006020820152600060408201526000606082015260006080820152600060a0820152600060c0820152600060e08201526101006000818301526000610120809301526004356000526001602052604060002091610db6611125565b918354835260018401549060208401918252600285015494604085019586526003810154906060860191825260048101549160808701928352600582015460a0880190815260068301549060c0890191825260ff6007850154169460e08a01936004871015610863576101409b6009610e77978d9988528a60088201549a01998a520154998b8d019a8b526040519c518d525160208d01525160408c01525160608b01525160808a01525160a08901525160c08801525160e0870190610f75565b51908401525190820152f35b346104f35760203660031901126104f357610e9c61104b565b600435600755005b346104f35760203660031901126104f357610ebd61104b565b600435600655005b346104f35760403660031901126104f357610ede610f5f565b602435908115158092036104f35760207f9fdbc2d48b8a0db2f62663bf9312ad02f5b1f6414ad600b55a247d09aeec3ea291610f1861104b565b60018060a01b0316928360005260088252604060002060ff1981541660ff8316179055604051908152a2005b346104f35760003660031901126104f3576020906006548152f35b600435906001600160a01b03821682036104f357565b9060048210156108635752565b600254811015610fb95760026000527f405787fa12a823e0f2b7631cc41b3ba8828b3321ca811111fa75cd3aa3bb5ace0190600090565b634e487b7160e01b600052603260045260246000fd5b9181601f840112156104f35782359167ffffffffffffffff83116104f3576020808501948460051b0101116104f357565b60406003198201126104f35767ffffffffffffffff916004358381116104f3578261102d91600401610fcf565b939093926024359182116104f35761104791600401610fcf565b9091565b6000546001600160a01b0316330361105f57565b60405163118cdaa760e01b8152336004820152602490fd5b1561107e57565b60405162461bcd60e51b815260206004820152600f60248201526e2737ba1030b71032bc32b1baba37b960891b6044820152606490fd5b156110bc57565b60405162461bcd60e51b8152602060048201526015602482015274082e4e4c2f240d8cadccee8d040dad2e6dac2e8c6d605b1b6044820152606490fd5b91908201809211610d1a57565b6000198114610d1a5760010190565b9190811015610fb95760051b0190565b60405190610140820182811067ffffffffffffffff82111761114657604052565b634e487b7160e01b600052604160045260246000fd5b1561116357565b60405162461bcd60e51b815260206004820152601360248201527210da185b1b195b99d9481b9bdd08199bdd5b99606a1b6044820152606490fdfea26469706673582212203f5b0d8c4bb65b7ef2a6509eb3fe471cb9a534c5a8d1bc85f21e339780f289c664736f6c63430008140033",
  "linkReferences": {},
  "deployedLinkReferences": {}
}