{
  "_format": "hh-sol-artifact-1",
  "contractName": "VisionProfileRegistry",
  "sourceName": "contracts/registry/VisionProfileRegistry.sol",
  "abi": [
    {
      "inputs": [],
      "stateMutability": "nonpayable",
      "type": "constructor"
    },
    {
      "anonymous": false,
      "inputs": [
        {
          "indexed": true,
          "internalType": "address",
          "name": "previousOwner",
          "type": "address"
        },
        {
          "indexed": true,
          "internalType": "address",
          "name": "newOwner",
          "type": "address"
        }
      ],
      "name": "OwnershipTransferred",
      "type": "event"
    },
    {
      "anonymous": false,
      "inputs": [
        {
          "indexed": false,
          "internalType": "string",
          "name": "handle",
          "type": "string"
        },
        {
          "indexed": true,
          "internalType": "address",
          "name": "wallet",
          "type": "address"
        },
        {
          "indexed": false,
          "internalType": "uint256",
          "name": "chainId",
          "type": "uint256"
        },
        {
          "indexed": false,
          "internalType": "address",
          "name": "token",
          "type": "address"
        }
      ],
      "name": "ProfileRegistered",
      "type": "event"
    },
    {
      "anonymous": false,
      "inputs": [
        {
          "indexed": false,
          "internalType": "string",
          "name": "handle",
          "type": "string"
        },
        {
          "indexed": false,
          "internalType": "uint256",
          "name": "chainId",
          "type": "uint256"
        },
        {
          "indexed": false,
          "internalType": "address",
          "name": "token",
          "type": "address"
        }
      ],
      "name": "ProfileUpdated",
      "type": "event"
    },
    {
      "inputs": [
        {
          "internalType": "string",
          "name": "handle",
          "type": "string"
        }
      ],
      "name": "getProfile",
      "outputs": [
        {
          "components": [
            {
              "internalType": "address",
              "name": "walletAddress",
              "type": "address"
            },
            {
              "internalType": "uint256",
              "name": "preferredChainId",
              "type": "uint256"
            },
            {
              "internalType": "address",
              "name": "preferredToken",
              "type": "address"
            },
            {
              "internalType": "bool",
              "name": "exists",
              "type": "bool"
            }
          ],
          "internalType": "struct VisionProfileRegistry.Profile",
          "name": "",
          "type": "tuple"
        }
      ],
      "stateMutability": "view",
      "type": "function"
    },
    {
      "inputs": [],
      "name": "owner",
      "outputs": [
        {
          "internalType": "address",
          "name": "",
          "type": "address"
        }
      ],
      "stateMutability": "view",
      "type": "function"
    },
    {
      "inputs": [
        {
          "internalType": "address",
          "name": "",
          "type": "address"
        }
      ],
      "name": "primaryHandle",
      "outputs": [
        {
          "internalType": "string",
          "name": "",
          "type": "string"
        }
      ],
      "stateMutability": "view",
      "type": "function"
    },
    {
      "inputs": [
        {
          "internalType": "string",
          "name": "",
          "type": "string"
        }
      ],
      "name": "profiles",
      "outputs": [
        {
          "internalType": "address",
          "name": "walletAddress",
          "type": "address"
        },
        {
          "internalType": "uint256",
          "name": "preferredChainId",
          "type": "uint256"
        },
        {
          "internalType": "address",
          "name": "preferredToken",
          "type": "address"
        },
        {
          "internalType": "bool",
          "name": "exists",
          "type": "bool"
        }
      ],
      "stateMutability": "view",
      "type": "function"
    },
    {
      "inputs": [
        {
          "internalType": "string",
          "name": "handle",
          "type": "string"
        },
        {
          "internalType": "uint256",
          "name": "chainId",
          "type": "uint256"
        },
        {
          "internalType": "address",
          "name": "token",
          "type": "address"
        }
      ],
      "name": "registerProfile",
      "outputs": [],
      "stateMutability": "nonpayable",
      "type": "function"
    },
    {
      "inputs": [],
      "name": "renounceOwnership",
      "outputs": [],
      "stateMutability": "nonpayable",
      "type": "function"
    },
    {
      "inputs": [
        {
          "internalType": "address",
          "name": "newOwner",
          "type": "address"
        }
      ],
      "name": "transferOwnership",
      "outputs": [],
      "stateMutability": "nonpayable",
      "type": "function"
    },
    {
      "inputs": [
        {
          "internalType": "uint256",
          "name": "chainId",
          "type": "uint256"
        },
        {
          "internalType": "address",
          "name": "token",
          "type": "address"
        }
      ],
      "name": "updatePreference",
      "outputs": [],
      "stateMutability": "nonpayable",
      "type": "function"
    }
  ],
  "bytecode": "0x608060405234801561001057600080fd5b5061001a3361001f565b61006f565b600080546001600160a01b038381166001600160a01b0319831681178455604051919092169283917f8be0079c531659141344cd1fd0a4f28419497f9722a3daafe3b4186f6b6457e09190a35050565b610d268061007e6000396000f3fe608060405234801561001057600080fd5b50600436106100885760003560e01c8063cb05baf61161005b578063cb05baf61461011d578063cba521e21461013d578063cfd9a283146101c7578063f2fde38b146101da57600080fd5b8063095fea9e1461008d5780630de98693146100a2578063715018a6146100fa5780638da5cb5b14610102575b600080fd5b6100a061009b3660046108e7565b6101ed565b005b6100b56100b0366004610944565b61042a565b6040805182516001600160a01b039081168252602080850151908301528383015116918101919091526060918201511515918101919091526080015b60405180910390f35b6100a061052b565b6000546040516001600160a01b0390911681526020016100f1565b61013061012b366004610986565b61053f565b6040516100f191906109f8565b61019261014b366004610a21565b8051602081830181018051600180835293830192909401919091209290528154908201546002909201546001600160a01b039182169291811690600160a01b900460ff1684565b6040516100f194939291906001600160a01b039485168152602081019390935292166040820152901515606082015260800190565b6100a06101d5366004610ad2565b6105d9565b6100a06101e8366004610986565b61075f565b600283116102355760405162461bcd60e51b815260206004820152601060248201526f12185b991b19481d1bdbc81cda1bdc9d60821b60448201526064015b60405180910390fd5b60018484604051610247929190610afe565b9081526040519081900360200190206002015460ff600160a01b90910416156102a95760405162461bcd60e51b81526020600482015260146024820152732430b73236329030b63932b0b23c903a30b5b2b760611b604482015260640161022c565b33600090815260026020526040902080546102c390610b0e565b1590506103125760405162461bcd60e51b815260206004820152601c60248201527f4164647265737320616c72656164792068617320612068616e646c6500000000604482015260640161022c565b6040518060800160405280336001600160a01b03168152602001838152602001826001600160a01b03168152602001600115158152506001858560405161035a929190610afe565b90815260408051918290036020908101909220835181546001600160a01b039182166001600160a01b031990911617825584840151600183015584830151600292830180546060909701511515600160a01b026001600160a81b03199097169190921617949094179093553360009081529290915290206103dc848683610b97565b50336001600160a01b03167ff3990ed3fa4c5f1a0c0fabe89a552e0d56b0cfeef2a295b2c70ec5a08f3981e18585858560405161041c9493929190610c58565b60405180910390a250505050565b604080516080810182526000808252602082018190528183018190526060820152905160019061045d9085908590610afe565b9081526040519081900360200190206002015460ff600160a01b909104166104c05760405162461bcd60e51b8152602060048201526016602482015275141c9bd99a5b1948191bd95cc81b9bdd08195e1a5cdd60521b604482015260640161022c565b600183836040516104d2929190610afe565b908152604080516020928190038301812060808201835280546001600160a01b0390811683526001820154948301949094526002015492831691810191909152600160a01b90910460ff16151560608201529392505050565b6105336107d8565b61053d6000610832565b565b6002602052600090815260409020805461055890610b0e565b80601f016020809104026020016040519081016040528092919081815260200182805461058490610b0e565b80156105d15780601f106105a6576101008083540402835291602001916105d1565b820191906000526020600020905b8154815290600101906020018083116105b457829003601f168201915b505050505081565b33600090815260026020526040812080546105f390610b0e565b80601f016020809104026020016040519081016040528092919081815260200182805461061f90610b0e565b801561066c5780601f106106415761010080835404028352916020019161066c565b820191906000526020600020905b81548152906001019060200180831161064f57829003601f168201915b5050505050905060008151116106b75760405162461bcd60e51b815260206004820152601060248201526f139bc81c1c9bd99a5b1948199bdd5b9960821b604482015260640161022c565b826001826040516106c89190610ca1565b908152602001604051809103902060010181905550816001826040516106ee9190610ca1565b90815260405190819003602001812060020180546001600160a01b03939093166001600160a01b0319909316929092179091557f42d91f00bebe3ca9c98c0b390b2e6dabc428dcb22578c62d629cd0d03495097d9061075290839086908690610cbd565b60405180910390a1505050565b6107676107d8565b6001600160a01b0381166107cc5760405162461bcd60e51b815260206004820152602660248201527f4f776e61626c653a206e6577206f776e657220697320746865207a65726f206160448201526564647265737360d01b606482015260840161022c565b6107d581610832565b50565b6000546001600160a01b0316331461053d5760405162461bcd60e51b815260206004820181905260248201527f4f776e61626c653a2063616c6c6572206973206e6f7420746865206f776e6572604482015260640161022c565b600080546001600160a01b038381166001600160a01b0319831681178455604051919092169283917f8be0079c531659141344cd1fd0a4f28419497f9722a3daafe3b4186f6b6457e09190a35050565b60008083601f84011261089457600080fd5b50813567ffffffffffffffff8111156108ac57600080fd5b6020830191508360208285010111156108c457600080fd5b9250929050565b80356001600160a01b03811681146108e257600080fd5b919050565b600080600080606085870312156108fd57600080fd5b843567ffffffffffffffff81111561091457600080fd5b61092087828801610882565b90955093505060208501359150610939604086016108cb565b905092959194509250565b6000806020838503121561095757600080fd5b823567ffffffffffffffff81111561096e57600080fd5b61097a85828601610882565b90969095509350505050565b60006020828403121561099857600080fd5b6109a1826108cb565b9392505050565b60005b838110156109c35781810151838201526020016109ab565b50506000910152565b600081518084526109e48160208601602086016109a8565b601f01601f19169290920160200192915050565b6020815260006109a160208301846109cc565b634e487b7160e01b600052604160045260246000fd5b600060208284031215610a3357600080fd5b813567ffffffffffffffff80821115610a4b57600080fd5b818401915084601f830112610a5f57600080fd5b813581811115610a7157610a71610a0b565b604051601f8201601f19908116603f01168101908382118183101715610a9957610a99610a0b565b81604052828152876020848701011115610ab257600080fd5b826020860160208301376000928101602001929092525095945050505050565b60008060408385031215610ae557600080fd5b82359150610af5602084016108cb565b90509250929050565b8183823760009101908152919050565b600181811c90821680610b2257607f821691505b602082108103610b4257634e487b7160e01b600052602260045260246000fd5b50919050565b601f821115610b9257600081815260208120601f850160051c81016020861015610b6f5750805b601f850160051c820191505b81811015610b8e57828155600101610b7b565b5050505b505050565b67ffffffffffffffff831115610baf57610baf610a0b565b610bc383610bbd8354610b0e565b83610b48565b6000601f841160018114610bf75760008515610bdf5750838201355b600019600387901b1c1916600186901b178355610c51565b600083815260209020601f19861690835b82811015610c285786850135825560209485019460019092019101610c08565b5086821015610c455760001960f88860031b161c19848701351681555b505060018560011b0183555b5050505050565b60608152836060820152838560808301376000608085830181019190915260208201939093526001600160a01b03919091166040820152601f909201601f191690910101919050565b60008251610cb38184602087016109a8565b9190910192915050565b606081526000610cd060608301866109cc565b6020830194909452506001600160a01b039190911660409091015291905056fea2646970667358221220813cde7cabc8aaf6896dde663c3ca8a9e20f7f950308a4f8cf7e57dff81ae87264736f6c63430008140033",
  "linkReferences": {},
  "deployedLinkReferences": {}
}