{
  "_format": "hh-sol-artifact-1",
  "contractName": "VCNVestingNative",
  "sourceName": "contracts/VCNVestingNative.sol",
  "abi": [
    {
      "inputs": [
        {
          "internalType": "address",
          "name": "defaultAdmin",
          "type": "address"
        }
      ],
      "stateMutability": "nonpayable",
      "type": "constructor"
    },
    {
      "anonymous": false,
      "inputs": [
        {
          "indexed": true,
          "internalType": "address",
          "name": "beneficiary",
          "type": "address"
        },
        {
          "indexed": false,
          "internalType": "uint256",
          "name": "amount",
          "type": "uint256"
        }
      ],
      "name": "ConvertedToNode",
      "type": "event"
    },
    {
      "anonymous": false,
      "inputs": [
        {
          "indexed": true,
          "internalType": "address",
          "name": "funder",
          "type": "address"
        },
        {
          "indexed": false,
          "internalType": "uint256",
          "name": "amount",
          "type": "uint256"
        }
      ],
      "name": "Funded",
      "type": "event"
    },
    {
      "anonymous": false,
      "inputs": [
        {
          "indexed": true,
          "internalType": "bytes32",
          "name": "role",
          "type": "bytes32"
        },
        {
          "indexed": true,
          "internalType": "bytes32",
          "name": "previousAdminRole",
          "type": "bytes32"
        },
        {
          "indexed": true,
          "internalType": "bytes32",
          "name": "newAdminRole",
          "type": "bytes32"
        }
      ],
      "name": "RoleAdminChanged",
      "type": "event"
    },
    {
      "anonymous": false,
      "inputs": [
        {
          "indexed": true,
          "internalType": "bytes32",
          "name": "role",
          "type": "bytes32"
        },
        {
          "indexed": true,
          "internalType": "address",
          "name": "account",
          "type": "address"
        },
        {
          "indexed": true,
          "internalType": "address",
          "name": "sender",
          "type": "address"
        }
      ],
      "name": "RoleGranted",
      "type": "event"
    },
    {
      "anonymous": false,
      "inputs": [
        {
          "indexed": true,
          "internalType": "bytes32",
          "name": "role",
          "type": "bytes32"
        },
        {
          "indexed": true,
          "internalType": "address",
          "name": "account",
          "type": "address"
        },
        {
          "indexed": true,
          "internalType": "address",
          "name": "sender",
          "type": "address"
        }
      ],
      "name": "RoleRevoked",
      "type": "event"
    },
    {
      "anonymous": false,
      "inputs": [
        {
          "indexed": true,
          "internalType": "address",
          "name": "beneficiary",
          "type": "address"
        },
        {
          "indexed": false,
          "internalType": "uint256",
          "name": "amount",
          "type": "uint256"
        }
      ],
      "name": "TokensClaimed",
      "type": "event"
    },
    {
      "anonymous": false,
      "inputs": [
        {
          "indexed": true,
          "internalType": "address",
          "name": "beneficiary",
          "type": "address"
        },
        {
          "indexed": false,
          "internalType": "uint256",
          "name": "totalAmount",
          "type": "uint256"
        },
        {
          "indexed": false,
          "internalType": "uint256",
          "name": "startTime",
          "type": "uint256"
        }
      ],
      "name": "VestingCreated",
      "type": "event"
    },
    {
      "anonymous": false,
      "inputs": [
        {
          "indexed": true,
          "internalType": "address",
          "name": "beneficiary",
          "type": "address"
        },
        {
          "indexed": false,
          "internalType": "uint256",
          "name": "remainingLocked",
          "type": "uint256"
        }
      ],
      "name": "VestingTerminated",
      "type": "event"
    },
    {
      "inputs": [],
      "name": "DEFAULT_ADMIN_ROLE",
      "outputs": [
        {
          "internalType": "bytes32",
          "name": "",
          "type": "bytes32"
        }
      ],
      "stateMutability": "view",
      "type": "function"
    },
    {
      "inputs": [],
      "name": "OPERATOR_ROLE",
      "outputs": [
        {
          "internalType": "bytes32",
          "name": "",
          "type": "bytes32"
        }
      ],
      "stateMutability": "view",
      "type": "function"
    },
    {
      "inputs": [
        {
          "internalType": "address",
          "name": "beneficiary",
          "type": "address"
        }
      ],
      "name": "availableToClaim",
      "outputs": [
        {
          "internalType": "uint256",
          "name": "",
          "type": "uint256"
        }
      ],
      "stateMutability": "view",
      "type": "function"
    },
    {
      "inputs": [],
      "name": "claim",
      "outputs": [],
      "stateMutability": "nonpayable",
      "type": "function"
    },
    {
      "inputs": [
        {
          "internalType": "address",
          "name": "beneficiary",
          "type": "address"
        }
      ],
      "name": "convertToNode",
      "outputs": [],
      "stateMutability": "nonpayable",
      "type": "function"
    },
    {
      "inputs": [
        {
          "internalType": "address",
          "name": "beneficiary",
          "type": "address"
        },
        {
          "internalType": "uint256",
          "name": "totalAmount",
          "type": "uint256"
        },
        {
          "internalType": "uint256",
          "name": "initialUnlockRatio",
          "type": "uint256"
        },
        {
          "internalType": "uint256",
          "name": "cliffMonths",
          "type": "uint256"
        },
        {
          "internalType": "uint256",
          "name": "vestingMonths",
          "type": "uint256"
        },
        {
          "internalType": "uint256",
          "name": "startTime",
          "type": "uint256"
        }
      ],
      "name": "createVestingSchedule",
      "outputs": [],
      "stateMutability": "nonpayable",
      "type": "function"
    },
    {
      "inputs": [],
      "name": "getContractBalance",
      "outputs": [
        {
          "internalType": "uint256",
          "name": "",
          "type": "uint256"
        }
      ],
      "stateMutability": "view",
      "type": "function"
    },
    {
      "inputs": [
        {
          "internalType": "bytes32",
          "name": "role",
          "type": "bytes32"
        }
      ],
      "name": "getRoleAdmin",
      "outputs": [
        {
          "internalType": "bytes32",
          "name": "",
          "type": "bytes32"
        }
      ],
      "stateMutability": "view",
      "type": "function"
    },
    {
      "inputs": [
        {
          "internalType": "bytes32",
          "name": "role",
          "type": "bytes32"
        },
        {
          "internalType": "address",
          "name": "account",
          "type": "address"
        }
      ],
      "name": "grantRole",
      "outputs": [],
      "stateMutability": "nonpayable",
      "type": "function"
    },
    {
      "inputs": [
        {
          "internalType": "bytes32",
          "name": "role",
          "type": "bytes32"
        },
        {
          "internalType": "address",
          "name": "account",
          "type": "address"
        }
      ],
      "name": "hasRole",
      "outputs": [
        {
          "internalType": "bool",
          "name": "",
          "type": "bool"
        }
      ],
      "stateMutability": "view",
      "type": "function"
    },
    {
      "inputs": [
        {
          "internalType": "bytes32",
          "name": "role",
          "type": "bytes32"
        },
        {
          "internalType": "address",
          "name": "account",
          "type": "address"
        }
      ],
      "name": "renounceRole",
      "outputs": [],
      "stateMutability": "nonpayable",
      "type": "function"
    },
    {
      "inputs": [
        {
          "internalType": "bytes32",
          "name": "role",
          "type": "bytes32"
        },
        {
          "internalType": "address",
          "name": "account",
          "type": "address"
        }
      ],
      "name": "revokeRole",
      "outputs": [],
      "stateMutability": "nonpayable",
      "type": "function"
    },
    {
      "inputs": [
        {
          "internalType": "bytes4",
          "name": "interfaceId",
          "type": "bytes4"
        }
      ],
      "name": "supportsInterface",
      "outputs": [
        {
          "internalType": "bool",
          "name": "",
          "type": "bool"
        }
      ],
      "stateMutability": "view",
      "type": "function"
    },
    {
      "inputs": [
        {
          "internalType": "address",
          "name": "",
          "type": "address"
        }
      ],
      "name": "vestingSchedules",
      "outputs": [
        {
          "internalType": "uint256",
          "name": "totalAmount",
          "type": "uint256"
        },
        {
          "internalType": "uint256",
          "name": "releasedAmount",
          "type": "uint256"
        },
        {
          "internalType": "uint256",
          "name": "startTime",
          "type": "uint256"
        },
        {
          "internalType": "uint256",
          "name": "cliffDuration",
          "type": "uint256"
        },
        {
          "internalType": "uint256",
          "name": "vestingDuration",
          "type": "uint256"
        },
        {
          "internalType": "uint256",
          "name": "initialUnlockAmount",
          "type": "uint256"
        },
        {
          "internalType": "uint256",
          "name": "interval",
          "type": "uint256"
        },
        {
          "internalType": "bool",
          "name": "isTerminated",
          "type": "bool"
        }
      ],
      "stateMutability": "view",
      "type": "function"
    },
    {
      "stateMutability": "payable",
      "type": "receive"
    }
  ],
  "bytecode": "0x608060405234801561001057600080fd5b5060405161128038038061128083398101604081905261002f9161010d565b6001805561003e60008261006e565b6100687f97667070c54ef182b0f5858b034beac1b6f3089aa2d3188bb1e8929f4fa9b9298261006e565b5061013d565b6000828152602081815260408083206001600160a01b038516845290915290205460ff16610109576000828152602081815260408083206001600160a01b03851684529091529020805460ff191660011790556100c83390565b6001600160a01b0316816001600160a01b0316837f2f8788117e7eff1d82e926ec794901d17c78024a50270940304540a733656f0d60405160405180910390a45b5050565b60006020828403121561011f57600080fd5b81516001600160a01b038116811461013657600080fd5b9392505050565b6111348061014c6000396000f3fe6080604052600436106100e15760003560e01c80636f9fb98a1161007f578063cf3cd54b11610059578063cf3cd54b14610274578063d547741f14610294578063f5b541a6146102b4578063fdb20ccb146102e857600080fd5b80636f9fb98a1461022c57806391d148541461023f578063a217fddf1461025f57600080fd5b80632f2ff15d116100bb5780632f2ff15d146101b557806336568abe146101d75780634e71d92d146101f757806362eb06041461020c57600080fd5b806301ffc9a7146101225780630da4518814610157578063248a9ca31461018557600080fd5b3661011d5760405134815233907f5af8184bef8e4b45eb9f6ed7734d04da38ced226495548f46e0c8ff8d7d9a5249060200160405180910390a2005b600080fd5b34801561012e57600080fd5b5061014261013d366004610e8a565b610388565b60405190151581526020015b60405180910390f35b34801561016357600080fd5b50610177610172366004610ed0565b6103bf565b60405190815260200161014e565b34801561019157600080fd5b506101776101a0366004610eeb565b60009081526020819052604090206001015490565b3480156101c157600080fd5b506101d56101d0366004610f04565b610522565b005b3480156101e357600080fd5b506101d56101f2366004610f04565b61054c565b34801561020357600080fd5b506101d56105cf565b34801561021857600080fd5b506101d5610227366004610f30565b61076a565b34801561023857600080fd5b5047610177565b34801561024b57600080fd5b5061014261025a366004610f04565b610961565b34801561026b57600080fd5b50610177600081565b34801561028057600080fd5b506101d561028f366004610ed0565b61098a565b3480156102a057600080fd5b506101d56102af366004610f04565b610b08565b3480156102c057600080fd5b506101777f97667070c54ef182b0f5858b034beac1b6f3089aa2d3188bb1e8929f4fa9b92981565b3480156102f457600080fd5b5061034b610303366004610ed0565b60026020819052600091825260409091208054600182015492820154600383015460048401546005850154600686015460079096015494969593949293919290919060ff1688565b604080519889526020890197909752958701949094526060860192909252608085015260a084015260c0830152151560e08201526101000161014e565b60006001600160e01b03198216637965db0b60e01b14806103b957506301ffc9a760e01b6001600160e01b03198316145b92915050565b6001600160a01b0381166000908152600260205260408120805415806103e95750600781015460ff165b156103f75750600092915050565b6002810154429081101561040f575060009392505050565b60058201546003830154600284015460009161042a91610f90565b90508083106104fb57600061043f8285610fa3565b90506000856005015486600001546104579190610fa3565b9050600086600601546001886006015489600401546104769190610f90565b6104809190610fa3565b61048a9190610fb6565b9050866004015483106104a057865494506104f7565b60008760060154846104b29190610fb6565b6104bd906001610f90565b90508181106104cf57875495506104f5565b60006104db8385610fb6565b90506104e78183610fd8565b6104f19088610f90565b9650505b505b5050505b835482111561050957835491505b60018401546105189083610fa3565b9695505050505050565b60008281526020819052604090206001015461053d81610b2d565b6105478383610b3a565b505050565b6001600160a01b03811633146105c15760405162461bcd60e51b815260206004820152602f60248201527f416363657373436f6e74726f6c3a2063616e206f6e6c792072656e6f756e636560448201526e103937b632b9903337b91039b2b63360891b60648201526084015b60405180910390fd5b6105cb8282610bbe565b5050565b6105d7610c23565b60006105e2336103bf565b9050600081116106275760405162461bcd60e51b815260206004820152601060248201526f4e6f7468696e6720746f20636c61696d60801b60448201526064016105b8565b804710156106775760405162461bcd60e51b815260206004820152601d60248201527f496e73756666696369656e7420636f6e74726163742062616c616e636500000060448201526064016105b8565b3360009081526002602052604081206001018054839290610699908490610f90565b9091555050604051600090339083908381818185875af1925050503d80600081146106e0576040519150601f19603f3d011682016040523d82523d6000602084013e6106e5565b606091505b50509050806107285760405162461bcd60e51b815260206004820152600f60248201526e151c985b9cd9995c8819985a5b1959608a1b60448201526064016105b8565b60405182815233907f896e034966eaaf1adc54acc0f257056febbd300c9e47182cf761982cf1f5e4309060200160405180910390a2505061076860018055565b565b7f97667070c54ef182b0f5858b034beac1b6f3089aa2d3188bb1e8929f4fa9b92961079481610b2d565b6001600160a01b038716600090815260026020526040902054156107f35760405162461bcd60e51b815260206004820152601660248201527556657374696e6720616c72656164792065786973747360501b60448201526064016105b8565b60648511156108345760405162461bcd60e51b815260206004820152600d60248201526c496e76616c696420726174696f60981b60448201526064016105b8565b600060646108428789610fd8565b61084c9190610fb6565b9050604051806101000160405280888152602001600081526020018481526020018662278d0061087c9190610fd8565b815260200161088e8662278d00610fd8565b8152602080820184905262278d00604080840191909152600060609384018190526001600160a01b038d168082526002808552918390208651815586850151600182015586840151928101929092559385015160038201556080850151600482015560a0850151600582015560c0850151600682015560e0909401516007909401805460ff19169415159490941790935582518a815290810186905290917f9ade76f4385de306666dfb21a52b27d52db0fde8ad0f515fa261f532cac60d21910160405180910390a25050505050505050565b6000918252602082815260408084206001600160a01b0393909316845291905290205460ff1690565b600061099581610b2d565b6001600160a01b038216600090815260026020526040902080546109ef5760405162461bcd60e51b81526020600482015260116024820152704e6f2076657374696e672065786973747360781b60448201526064016105b8565b600781015460ff1615610a395760405162461bcd60e51b8152602060048201526012602482015271105b1c9958591e481d195c9b5a5b985d195960721b60448201526064016105b8565b60008160010154610a49856103bf565b610a539190610f90565b90506000818360000154610a679190610fa3565b60078401805460ff191660011790556040519091506001600160a01b038616907f0dcddb43d7cfc859ee4c2e77114345443b2a424c129c1fffc945878d5d7dc03c90610ab69084815260200190565b60405180910390a2846001600160a01b03167f4c46d990a60b1fac8aad091ce24dd6e13bc63455d471e8247c0cd112d6d84e2282604051610af991815260200190565b60405180910390a25050505050565b600082815260208190526040902060010154610b2381610b2d565b6105478383610bbe565b610b378133610c7c565b50565b610b448282610961565b6105cb576000828152602081815260408083206001600160a01b03851684529091529020805460ff19166001179055610b7a3390565b6001600160a01b0316816001600160a01b0316837f2f8788117e7eff1d82e926ec794901d17c78024a50270940304540a733656f0d60405160405180910390a45050565b610bc88282610961565b156105cb576000828152602081815260408083206001600160a01b0385168085529252808320805460ff1916905551339285917ff6391f5c32d9c69d2a47ea670b442974b53935d1edc7fd64eb21e047a839171b9190a45050565b600260015403610c755760405162461bcd60e51b815260206004820152601f60248201527f5265656e7472616e637947756172643a207265656e7472616e742063616c6c0060448201526064016105b8565b6002600155565b610c868282610961565b6105cb57610c9381610cd5565b610c9e836020610ce7565b604051602001610caf929190611013565b60408051601f198184030181529082905262461bcd60e51b82526105b891600401611088565b60606103b96001600160a01b03831660145b60606000610cf6836002610fd8565b610d01906002610f90565b67ffffffffffffffff811115610d1957610d196110bb565b6040519080825280601f01601f191660200182016040528015610d43576020820181803683370190505b509050600360fc1b81600081518110610d5e57610d5e6110d1565b60200101906001600160f81b031916908160001a905350600f60fb1b81600181518110610d8d57610d8d6110d1565b60200101906001600160f81b031916908160001a9053506000610db1846002610fd8565b610dbc906001610f90565b90505b6001811115610e34576f181899199a1a9b1b9c1cb0b131b232b360811b85600f1660108110610df057610df06110d1565b1a60f81b828281518110610e0657610e066110d1565b60200101906001600160f81b031916908160001a90535060049490941c93610e2d816110e7565b9050610dbf565b508315610e835760405162461bcd60e51b815260206004820181905260248201527f537472696e67733a20686578206c656e67746820696e73756666696369656e7460448201526064016105b8565b9392505050565b600060208284031215610e9c57600080fd5b81356001600160e01b031981168114610e8357600080fd5b80356001600160a01b0381168114610ecb57600080fd5b919050565b600060208284031215610ee257600080fd5b610e8382610eb4565b600060208284031215610efd57600080fd5b5035919050565b60008060408385031215610f1757600080fd5b82359150610f2760208401610eb4565b90509250929050565b60008060008060008060c08789031215610f4957600080fd5b610f5287610eb4565b9860208801359850604088013597606081013597506080810135965060a00135945092505050565b634e487b7160e01b600052601160045260246000fd5b808201808211156103b9576103b9610f7a565b818103818111156103b9576103b9610f7a565b600082610fd357634e487b7160e01b600052601260045260246000fd5b500490565b80820281158282048414176103b9576103b9610f7a565b60005b8381101561100a578181015183820152602001610ff2565b50506000910152565b7f416363657373436f6e74726f6c3a206163636f756e742000000000000000000081526000835161104b816017850160208801610fef565b7001034b99036b4b9b9b4b733903937b6329607d1b601791840191820152835161107c816028840160208801610fef565b01602801949350505050565b60208152600082518060208401526110a7816040850160208701610fef565b601f01601f19169190910160400192915050565b634e487b7160e01b600052604160045260246000fd5b634e487b7160e01b600052603260045260246000fd5b6000816110f6576110f6610f7a565b50600019019056fea26469706673582212207591244cb1f6c807568632970782910b4885fcdf89cc78b7218754d028ef1cc664736f6c63430008140033",
  "linkReferences": {},
  "deployedLinkReferences": {}
}