{
  "_format": "hh-sol-artifact-1",
  "contractName": "IntentCommitment",
  "sourceName": "contracts/bridge/IntentCommitment.sol",
  "abi": [
    {
      "inputs": [
        {
          "internalType": "address",
          "name": "admin",
          "type": "address"
        }
      ],
      "stateMutability": "nonpayable",
      "type": "constructor"
    },
    {
      "anonymous": false,
      "inputs": [
        {
          "indexed": true,
          "internalType": "bytes32",
          "name": "intentHash",
          "type": "bytes32"
        },
        {
          "indexed": true,
          "internalType": "address",
          "name": "user",
          "type": "address"
        }
      ],
      "name": "IntentCancelled",
      "type": "event"
    },
    {
      "anonymous": false,
      "inputs": [
        {
          "indexed": true,
          "internalType": "bytes32",
          "name": "intentHash",
          "type": "bytes32"
        },
        {
          "indexed": true,
          "internalType": "address",
          "name": "sender",
          "type": "address"
        },
        {
          "indexed": false,
          "internalType": "address",
          "name": "recipient",
          "type": "address"
        },
        {
          "indexed": false,
          "internalType": "uint256",
          "name": "amount",
          "type": "uint256"
        },
        {
          "indexed": false,
          "internalType": "uint256",
          "name": "nonce",
          "type": "uint256"
        },
        {
          "indexed": false,
          "internalType": "uint256",
          "name": "expiry",
          "type": "uint256"
        },
        {
          "indexed": false,
          "internalType": "uint256",
          "name": "destChainId",
          "type": "uint256"
        }
      ],
      "name": "IntentCommitted",
      "type": "event"
    },
    {
      "anonymous": false,
      "inputs": [
        {
          "indexed": true,
          "internalType": "bytes32",
          "name": "intentHash",
          "type": "bytes32"
        }
      ],
      "name": "IntentExpired",
      "type": "event"
    },
    {
      "anonymous": false,
      "inputs": [
        {
          "indexed": true,
          "internalType": "bytes32",
          "name": "intentHash",
          "type": "bytes32"
        },
        {
          "indexed": true,
          "internalType": "address",
          "name": "user",
          "type": "address"
        }
      ],
      "name": "IntentUsed",
      "type": "event"
    },
    {
      "anonymous": false,
      "inputs": [
        {
          "indexed": false,
          "internalType": "address",
          "name": "account",
          "type": "address"
        }
      ],
      "name": "Paused",
      "type": "event"
    },
    {
      "anonymous": false,
      "inputs": [
        {
          "indexed": true,
          "internalType": "bytes32",
          "name": "role",
          "type": "bytes32"
        },
        {
          "indexed": true,
          "internalType": "bytes32",
          "name": "previousAdminRole",
          "type": "bytes32"
        },
        {
          "indexed": true,
          "internalType": "bytes32",
          "name": "newAdminRole",
          "type": "bytes32"
        }
      ],
      "name": "RoleAdminChanged",
      "type": "event"
    },
    {
      "anonymous": false,
      "inputs": [
        {
          "indexed": true,
          "internalType": "bytes32",
          "name": "role",
          "type": "bytes32"
        },
        {
          "indexed": true,
          "internalType": "address",
          "name": "account",
          "type": "address"
        },
        {
          "indexed": true,
          "internalType": "address",
          "name": "sender",
          "type": "address"
        }
      ],
      "name": "RoleGranted",
      "type": "event"
    },
    {
      "anonymous": false,
      "inputs": [
        {
          "indexed": true,
          "internalType": "bytes32",
          "name": "role",
          "type": "bytes32"
        },
        {
          "indexed": true,
          "internalType": "address",
          "name": "account",
          "type": "address"
        },
        {
          "indexed": true,
          "internalType": "address",
          "name": "sender",
          "type": "address"
        }
      ],
      "name": "RoleRevoked",
      "type": "event"
    },
    {
      "anonymous": false,
      "inputs": [
        {
          "indexed": false,
          "internalType": "address",
          "name": "account",
          "type": "address"
        }
      ],
      "name": "Unpaused",
      "type": "event"
    },
    {
      "inputs": [],
      "name": "DEFAULT_ADMIN_ROLE",
      "outputs": [
        {
          "internalType": "bytes32",
          "name": "",
          "type": "bytes32"
        }
      ],
      "stateMutability": "view",
      "type": "function"
    },
    {
      "inputs": [],
      "name": "OPERATOR_ROLE",
      "outputs": [
        {
          "internalType": "bytes32",
          "name": "",
          "type": "bytes32"
        }
      ],
      "stateMutability": "view",
      "type": "function"
    },
    {
      "inputs": [
        {
          "internalType": "bytes32",
          "name": "intentHash",
          "type": "bytes32"
        }
      ],
      "name": "cancelIntent",
      "outputs": [],
      "stateMutability": "nonpayable",
      "type": "function"
    },
    {
      "inputs": [
        {
          "internalType": "address",
          "name": "recipient",
          "type": "address"
        },
        {
          "internalType": "uint256",
          "name": "amount",
          "type": "uint256"
        },
        {
          "internalType": "uint256",
          "name": "destChainId",
          "type": "uint256"
        }
      ],
      "name": "commitIntent",
      "outputs": [
        {
          "internalType": "bytes32",
          "name": "",
          "type": "bytes32"
        }
      ],
      "stateMutability": "nonpayable",
      "type": "function"
    },
    {
      "inputs": [
        {
          "internalType": "address",
          "name": "sender",
          "type": "address"
        },
        {
          "internalType": "address",
          "name": "recipient",
          "type": "address"
        },
        {
          "internalType": "uint256",
          "name": "amount",
          "type": "uint256"
        },
        {
          "internalType": "uint256",
          "name": "nonce",
          "type": "uint256"
        },
        {
          "internalType": "uint256",
          "name": "expiry",
          "type": "uint256"
        },
        {
          "internalType": "uint256",
          "name": "destChainId",
          "type": "uint256"
        }
      ],
      "name": "computeIntentHash",
      "outputs": [
        {
          "internalType": "bytes32",
          "name": "",
          "type": "bytes32"
        }
      ],
      "stateMutability": "pure",
      "type": "function"
    },
    {
      "inputs": [
        {
          "internalType": "address",
          "name": "",
          "type": "address"
        }
      ],
      "name": "dailyCommitCount",
      "outputs": [
        {
          "internalType": "uint256",
          "name": "",
          "type": "uint256"
        }
      ],
      "stateMutability": "view",
      "type": "function"
    },
    {
      "inputs": [
        {
          "internalType": "bytes32",
          "name": "intentHash",
          "type": "bytes32"
        }
      ],
      "name": "getIntent",
      "outputs": [
        {
          "components": [
            {
              "internalType": "address",
              "name": "sender",
              "type": "address"
            },
            {
              "internalType": "address",
              "name": "recipient",
              "type": "address"
            },
            {
              "internalType": "uint256",
              "name": "amount",
              "type": "uint256"
            },
            {
              "internalType": "uint256",
              "name": "nonce",
              "type": "uint256"
            },
            {
              "internalType": "uint256",
              "name": "expiry",
              "type": "uint256"
            },
            {
              "internalType": "uint256",
              "name": "destChainId",
              "type": "uint256"
            },
            {
              "internalType": "uint256",
              "name": "committedAt",
              "type": "uint256"
            },
            {
              "internalType": "bool",
              "name": "used",
              "type": "bool"
            },
            {
              "internalType": "bool",
              "name": "cancelled",
              "type": "bool"
            }
          ],
          "internalType": "struct IntentCommitment.Intent",
          "name": "",
          "type": "tuple"
        }
      ],
      "stateMutability": "view",
      "type": "function"
    },
    {
      "inputs": [
        {
          "internalType": "bytes32",
          "name": "role",
          "type": "bytes32"
        }
      ],
      "name": "getRoleAdmin",
      "outputs": [
        {
          "internalType": "bytes32",
          "name": "",
          "type": "bytes32"
        }
      ],
      "stateMutability": "view",
      "type": "function"
    },
    {
      "inputs": [
        {
          "internalType": "bytes32",
          "name": "role",
          "type": "bytes32"
        },
        {
          "internalType": "address",
          "name": "account",
          "type": "address"
        }
      ],
      "name": "grantRole",
      "outputs": [],
      "stateMutability": "nonpayable",
      "type": "function"
    },
    {
      "inputs": [
        {
          "internalType": "bytes32",
          "name": "role",
          "type": "bytes32"
        },
        {
          "internalType": "address",
          "name": "account",
          "type": "address"
        }
      ],
      "name": "hasRole",
      "outputs": [
        {
          "internalType": "bool",
          "name": "",
          "type": "bool"
        }
      ],
      "stateMutability": "view",
      "type": "function"
    },
    {
      "inputs": [],
      "name": "intentValidityPeriod",
      "outputs": [
        {
          "internalType": "uint256",
          "name": "",
          "type": "uint256"
        }
      ],
      "stateMutability": "view",
      "type": "function"
    },
    {
      "inputs": [
        {
          "internalType": "bytes32",
          "name": "",
          "type": "bytes32"
        }
      ],
      "name": "intents",
      "outputs": [
        {
          "internalType": "address",
          "name": "sender",
          "type": "address"
        },
        {
          "internalType": "address",
          "name": "recipient",
          "type": "address"
        },
        {
          "internalType": "uint256",
          "name": "amount",
          "type": "uint256"
        },
        {
          "internalType": "uint256",
          "name": "nonce",
          "type": "uint256"
        },
        {
          "internalType": "uint256",
          "name": "expiry",
          "type": "uint256"
        },
        {
          "internalType": "uint256",
          "name": "destChainId",
          "type": "uint256"
        },
        {
          "internalType": "uint256",
          "name": "committedAt",
          "type": "uint256"
        },
        {
          "internalType": "bool",
          "name": "used",
          "type": "bool"
        },
        {
          "internalType": "bool",
          "name": "cancelled",
          "type": "bool"
        }
      ],
      "stateMutability": "view",
      "type": "function"
    },
    {
      "inputs": [
        {
          "internalType": "bytes32",
          "name": "intentHash",
          "type": "bytes32"
        }
      ],
      "name": "isIntentValid",
      "outputs": [
        {
          "internalType": "bool",
          "name": "",
          "type": "bool"
        }
      ],
      "stateMutability": "view",
      "type": "function"
    },
    {
      "inputs": [
        {
          "internalType": "address",
          "name": "",
          "type": "address"
        }
      ],
      "name": "lastCommitDay",
      "outputs": [
        {
          "internalType": "uint256",
          "name": "",
          "type": "uint256"
        }
      ],
      "stateMutability": "view",
      "type": "function"
    },
    {
      "inputs": [],
      "name": "maxAmount",
      "outputs": [
        {
          "internalType": "uint256",
          "name": "",
          "type": "uint256"
        }
      ],
      "stateMutability": "view",
      "type": "function"
    },
    {
      "inputs": [],
      "name": "maxDailyCommits",
      "outputs": [
        {
          "internalType": "uint256",
          "name": "",
          "type": "uint256"
        }
      ],
      "stateMutability": "view",
      "type": "function"
    },
    {
      "inputs": [],
      "name": "minAmount",
      "outputs": [
        {
          "internalType": "uint256",
          "name": "",
          "type": "uint256"
        }
      ],
      "stateMutability": "view",
      "type": "function"
    },
    {
      "inputs": [],
      "name": "pause",
      "outputs": [],
      "stateMutability": "nonpayable",
      "type": "function"
    },
    {
      "inputs": [],
      "name": "paused",
      "outputs": [
        {
          "internalType": "bool",
          "name": "",
          "type": "bool"
        }
      ],
      "stateMutability": "view",
      "type": "function"
    },
    {
      "inputs": [
        {
          "internalType": "bytes32",
          "name": "role",
          "type": "bytes32"
        },
        {
          "internalType": "address",
          "name": "account",
          "type": "address"
        }
      ],
      "name": "renounceRole",
      "outputs": [],
      "stateMutability": "nonpayable",
      "type": "function"
    },
    {
      "inputs": [
        {
          "internalType": "bytes32",
          "name": "role",
          "type": "bytes32"
        },
        {
          "internalType": "address",
          "name": "account",
          "type": "address"
        }
      ],
      "name": "revokeRole",
      "outputs": [],
      "stateMutability": "nonpayable",
      "type": "function"
    },
    {
      "inputs": [
        {
          "internalType": "uint256",
          "name": "_maxDaily",
          "type": "uint256"
        },
        {
          "internalType": "uint256",
          "name": "_minAmount",
          "type": "uint256"
        },
        {
          "internalType": "uint256",
          "name": "_maxAmount",
          "type": "uint256"
        }
      ],
      "name": "setLimits",
      "outputs": [],
      "stateMutability": "nonpayable",
      "type": "function"
    },
    {
      "inputs": [
        {
          "internalType": "uint256",
          "name": "_period",
          "type": "uint256"
        }
      ],
      "name": "setValidityPeriod",
      "outputs": [],
      "stateMutability": "nonpayable",
      "type": "function"
    },
    {
      "inputs": [
        {
          "internalType": "bytes4",
          "name": "interfaceId",
          "type": "bytes4"
        }
      ],
      "name": "supportsInterface",
      "outputs": [
        {
          "internalType": "bool",
          "name": "",
          "type": "bool"
        }
      ],
      "stateMutability": "view",
      "type": "function"
    },
    {
      "inputs": [],
      "name": "unpause",
      "outputs": [],
      "stateMutability": "nonpayable",
      "type": "function"
    },
    {
      "inputs": [
        {
          "internalType": "address",
          "name": "",
          "type": "address"
        }
      ],
      "name": "userNonces",
      "outputs": [
        {
          "internalType": "uint256",
          "name": "",
          "type": "uint256"
        }
      ],
      "stateMutability": "view",
      "type": "function"
    },
    {
      "inputs": [
        {
          "internalType": "bytes32",
          "name": "intentHash",
          "type": "bytes32"
        },
        {
          "internalType": "address",
          "name": "sender",
          "type": "address"
        },
        {
          "internalType": "address",
          "name": "recipient",
          "type": "address"
        },
        {
          "internalType": "uint256",
          "name": "amount",
          "type": "uint256"
        },
        {
          "internalType": "uint256",
          "name": "destChainId",
          "type": "uint256"
        }
      ],
      "name": "verifyAndUseIntent",
      "outputs": [
        {
          "internalType": "bool",
          "name": "",
          "type": "bool"
        }
      ],
      "stateMutability": "nonpayable",
      "type": "function"
    }
  ],
  "bytecode": "0x6080604052600a60075567016345785d8a000060085569d3c21bcecceda100000060095562015180600a553480156200003757600080fd5b506040516200195b3803806200195b8339810160408190526200005a9162000149565b600180556002805460ff1916905562000075600082620000a8565b620000a17f97667070c54ef182b0f5858b034beac1b6f3089aa2d3188bb1e8929f4fa9b92982620000a8565b506200017b565b6000828152602081815260408083206001600160a01b038516845290915290205460ff1662000145576000828152602081815260408083206001600160a01b03851684529091529020805460ff19166001179055620001043390565b6001600160a01b0316816001600160a01b0316837f2f8788117e7eff1d82e926ec794901d17c78024a50270940304540a733656f0d60405160405180910390a45b5050565b6000602082840312156200015c57600080fd5b81516001600160a01b03811681146200017457600080fd5b9392505050565b6117d0806200018b6000396000f3fe608060405234801561001057600080fd5b50600436106101a95760003560e01c80638456cb59116100f9578063b68df33711610097578063d55f960d11610071578063d55f960d14610422578063d625414614610435578063f13c46aa1461043e578063f5b541a61461045e57600080fd5b8063b68df337146103e9578063c8b779fa146103fc578063d547741f1461040f57600080fd5b806391d14854116100d357806391d14854146103a5578063978b68d8146103b85780639b2cb5d8146103d8578063a217fddf146103e157600080fd5b80638456cb59146102cd57806387e647ed146102d55780639021578a146102e857600080fd5b806336568abe116101665780635bfcd809116101405780635bfcd809146102865780635c975abb146102995780635f48f393146102a457806382ca691b146102ad57600080fd5b806336568abe146102625780633f4ba83a146102755780634a55c6301461027d57600080fd5b806301ffc9a7146101ae578063189ae5f2146101d6578063248a9ca3146101eb5780632d6dd29a1461021c5780632f2ff15d1461022f5780632f7801f414610242575b600080fd5b6101c16101bc3660046113ee565b610485565b60405190151581526020015b60405180910390f35b6101e96101e4366004611418565b6104bc565b005b61020e6101f9366004611444565b60009081526020819052604090206001015490565b6040519081526020016101cd565b6101c161022a366004611444565b6104d6565b6101e961023d366004611479565b61052f565b61020e6102503660046114a5565b60046020526000908152604090205481565b6101e9610270366004611479565b610559565b6101e96105dc565b61020e60075481565b61020e6102943660046114c0565b6105f2565b60025460ff166101c1565b61020e60095481565b61020e6102bb3660046114a5565b60056020526000908152604090205481565b6101e961065c565b6101e96102e3366004611444565b61066f565b6103526102f6366004611444565b6003602081905260009182526040909120805460018201546002830154938301546004840154600585015460068601546007909601546001600160a01b0395861697959094169592939192909160ff8082169161010090041689565b604080516001600160a01b039a8b1681529990981660208a0152968801959095526060870193909352608086019190915260a085015260c0840152151560e08301521515610100820152610120016101cd565b6101c16103b3366004611479565b610680565b61020e6103c63660046114a5565b60066020526000908152604090205481565b61020e60085481565b61020e600081565b61020e6103f7366004611515565b6106a9565b6101c161040a366004611548565b610a99565b6101e961041d366004611479565b610d2e565b6101e9610430366004611444565b610d53565b61020e600a5481565b61045161044c366004611444565b610e88565b6040516101cd9190611596565b61020e7f97667070c54ef182b0f5858b034beac1b6f3089aa2d3188bb1e8929f4fa9b92981565b60006001600160e01b03198216637965db0b60e01b14806104b657506301ffc9a760e01b6001600160e01b03198316145b92915050565b60006104c781610f7b565b50600792909255600855600955565b600081815260036020526040812080546001600160a01b0316158015906105025750600781015460ff16155b801561051857506007810154610100900460ff16155b8015610528575080600401544211155b9392505050565b60008281526020819052604090206001015461054a81610f7b565b6105548383610f85565b505050565b6001600160a01b03811633146105ce5760405162461bcd60e51b815260206004820152602f60248201527f416363657373436f6e74726f6c3a2063616e206f6e6c792072656e6f756e636560448201526e103937b632b9903337b91039b2b63360891b60648201526084015b60405180910390fd5b6105d88282611009565b5050565b60006105e781610f7b565b6105ef61106e565b50565b6040516bffffffffffffffffffffffff19606088811b8216602084015287901b16603482015260488101859052606881018490526088810183905260a8810182905260009060c8016040516020818303038152906040528051906020012090509695505050505050565b600061066781610f7b565b6105ef6110c0565b600061067a81610f7b565b50600a55565b6000918252602082815260408084206001600160a01b0393909316845291905290205460ff1690565b60006106b36110fd565b6106bb611156565b6001600160a01b0384166107055760405162461bcd60e51b8152602060048201526011602482015270125b9d985b1a59081c9958da5c1a595b9d607a1b60448201526064016105c5565b60085483101561074a5760405162461bcd60e51b815260206004820152601060248201526f105b5bdd5b9d081d1bdbc81cdb585b1b60821b60448201526064016105c5565b60095483111561078f5760405162461bcd60e51b815260206004820152601060248201526f416d6f756e7420746f6f206c6172676560801b60448201526064016105c5565b4682036107de5760405162461bcd60e51b815260206004820152601b60248201527f43616e6e6f742062726964676520746f2073616d6520636861696e000000000060448201526064016105c5565b60006107ed6201518042611626565b33600090815260066020526040902054909150811461082657336000908152600560209081526040808320839055600690915290208190555b600754336000908152600560205260409020541061087d5760405162461bcd60e51b815260206004820152601460248201527311185a5b1e481b1a5b5a5d08195e18d95959195960621b60448201526064016105c5565b33600090815260056020526040812080549161089883611648565b9091555050336000908152600460205260408120805490826108b983611648565b9190505590506000600a54426108cf9190611661565b905060006108e133898986868b6105f2565b6000818152600360205260409020549091506001600160a01b0316156109415760405162461bcd60e51b8152602060048201526015602482015274496e74656e7420616c72656164792065786973747360581b60448201526064016105c5565b6040805161012081018252338082526001600160a01b038b811660208085019182528486018d8152606086018a8152608087018a815260a088018f81524260c08a01908152600060e08b01818152610100808d018381528f84526003998a9052928e90209c518d54908c166001600160a01b0319918216178e55995160018e01805491909c169a1699909917909955945160028b015592519489019490945551600488015591516005870155905160068601559151600790940180549251151590910261ff00199415159490941661ffff199092169190911792909217909155905182907f5f420dc9086a6098d61b339f622599bf6baf7dfc03b216006866a67d73f801c690610a83908c908c90899089908e906001600160a01b03959095168552602085019390935260408401919091526060830152608082015260a00190565b60405180910390a3935050505061052860018055565b60007f97667070c54ef182b0f5858b034beac1b6f3089aa2d3188bb1e8929f4fa9b929610ac581610f7b565b600087815260036020526040902080546001600160a01b03888116911614610b215760405162461bcd60e51b815260206004820152600f60248201526e0a6cadcc8cae440dad2e6dac2e8c6d608b1b60448201526064016105c5565b60018101546001600160a01b03878116911614610b755760405162461bcd60e51b81526020600482015260126024820152710a4cac6d2e0d2cadce840dad2e6dac2e8c6d60731b60448201526064016105c5565b84816002015414610bba5760405162461bcd60e51b815260206004820152600f60248201526e082dadeeadce840dad2e6dac2e8c6d608b1b60448201526064016105c5565b83816005015414610bfe5760405162461bcd60e51b815260206004820152600e60248201526d086d0c2d2dc40dad2e6dac2e8c6d60931b60448201526064016105c5565b600781015460ff1615610c495760405162461bcd60e51b8152602060048201526013602482015272125b9d195b9d08185b1c9958591e481d5cd959606a1b60448201526064016105c5565b6007810154610100900460ff1615610c965760405162461bcd60e51b815260206004820152601060248201526f125b9d195b9d0818d85b98d95b1b195960821b60448201526064016105c5565b8060040154421115610cdb5760405162461bcd60e51b815260206004820152600e60248201526d125b9d195b9d08195e1c1a5c995960921b60448201526064016105c5565b60078101805460ff191660011790556040516001600160a01b0388169089907f8aa2233cd34ae085fb65c87bf8cc585689ace0cef69be17b97067ac7f8472e3a90600090a3506001979650505050505050565b600082815260208190526040902060010154610d4981610f7b565b6105548383611009565b600081815260036020526040902080546001600160a01b03163314610dad5760405162461bcd60e51b815260206004820152601060248201526f2737ba1034b73a32b73a1037bbb732b960811b60448201526064016105c5565b600781015460ff1615610df85760405162461bcd60e51b8152602060048201526013602482015272125b9d195b9d08185b1c9958591e481d5cd959606a1b60448201526064016105c5565b6007810154610100900460ff1615610e465760405162461bcd60e51b8152602060048201526011602482015270105b1c9958591e4818d85b98d95b1b1959607a1b60448201526064016105c5565b60078101805461ff001916610100179055604051339083907fac5a4b90e421002a2fdb9f132b9b32c24fa4ae16ec480516c85932de208d2a3390600090a35050565b610eed60405180610120016040528060006001600160a01b0316815260200160006001600160a01b0316815260200160008152602001600081526020016000815260200160008152602001600081526020016000151581526020016000151581525090565b5060009081526003602081815260409283902083516101208101855281546001600160a01b0390811682526001830154169281019290925260028101549382019390935290820154606082015260048201546080820152600582015460a0820152600682015460c082015260079091015460ff808216151560e0840152610100918290041615159082015290565b6105ef813361119e565b610f8f8282610680565b6105d8576000828152602081815260408083206001600160a01b03851684529091529020805460ff19166001179055610fc53390565b6001600160a01b0316816001600160a01b0316837f2f8788117e7eff1d82e926ec794901d17c78024a50270940304540a733656f0d60405160405180910390a45050565b6110138282610680565b156105d8576000828152602081815260408083206001600160a01b0385168085529252808320805460ff1916905551339285917ff6391f5c32d9c69d2a47ea670b442974b53935d1edc7fd64eb21e047a839171b9190a45050565b6110766111f7565b6002805460ff191690557f5db9ee0a495bf2e6ff9c91a7834c1ba4fdd244a5e8aa4e537bd38aeae4b073aa335b6040516001600160a01b03909116815260200160405180910390a1565b6110c8611156565b6002805460ff191660011790557f62e78cea01bee320cd4e420270b5ea74000d11b0c9f74754ebdbfc544b05a2586110a33390565b60026001540361114f5760405162461bcd60e51b815260206004820152601f60248201527f5265656e7472616e637947756172643a207265656e7472616e742063616c6c0060448201526064016105c5565b6002600155565b60025460ff161561119c5760405162461bcd60e51b815260206004820152601060248201526f14185d5cd8589b194e881c185d5cd95960821b60448201526064016105c5565b565b6111a88282610680565b6105d8576111b581611240565b6111c0836020611252565b6040516020016111d1929190611698565b60408051601f198184030181529082905262461bcd60e51b82526105c59160040161170d565b60025460ff1661119c5760405162461bcd60e51b815260206004820152601460248201527314185d5cd8589b194e881b9bdd081c185d5cd95960621b60448201526064016105c5565b60606104b66001600160a01b03831660145b60606000611261836002611740565b61126c906002611661565b67ffffffffffffffff81111561128457611284611757565b6040519080825280601f01601f1916602001820160405280156112ae576020820181803683370190505b509050600360fc1b816000815181106112c9576112c961176d565b60200101906001600160f81b031916908160001a905350600f60fb1b816001815181106112f8576112f861176d565b60200101906001600160f81b031916908160001a905350600061131c846002611740565b611327906001611661565b90505b600181111561139f576f181899199a1a9b1b9c1cb0b131b232b360811b85600f166010811061135b5761135b61176d565b1a60f81b8282815181106113715761137161176d565b60200101906001600160f81b031916908160001a90535060049490941c9361139881611783565b905061132a565b5083156105285760405162461bcd60e51b815260206004820181905260248201527f537472696e67733a20686578206c656e67746820696e73756666696369656e7460448201526064016105c5565b60006020828403121561140057600080fd5b81356001600160e01b03198116811461052857600080fd5b60008060006060848603121561142d57600080fd5b505081359360208301359350604090920135919050565b60006020828403121561145657600080fd5b5035919050565b80356001600160a01b038116811461147457600080fd5b919050565b6000806040838503121561148c57600080fd5b8235915061149c6020840161145d565b90509250929050565b6000602082840312156114b757600080fd5b6105288261145d565b60008060008060008060c087890312156114d957600080fd5b6114e28761145d565b95506114f06020880161145d565b95989597505050506040840135936060810135936080820135935060a0909101359150565b60008060006060848603121561152a57600080fd5b6115338461145d565b95602085013595506040909401359392505050565b600080600080600060a0868803121561156057600080fd5b853594506115706020870161145d565b935061157e6040870161145d565b94979396509394606081013594506080013592915050565b60006101208201905060018060a01b038084511683528060208501511660208401525060408301516040830152606083015160608301526080830151608083015260a083015160a083015260c083015160c083015260e08301516115fe60e084018215159052565b50610100928301511515919092015290565b634e487b7160e01b600052601160045260246000fd5b60008261164357634e487b7160e01b600052601260045260246000fd5b500490565b60006001820161165a5761165a611610565b5060010190565b808201808211156104b6576104b6611610565b60005b8381101561168f578181015183820152602001611677565b50506000910152565b7f416363657373436f6e74726f6c3a206163636f756e74200000000000000000008152600083516116d0816017850160208801611674565b7001034b99036b4b9b9b4b733903937b6329607d1b6017918401918201528351611701816028840160208801611674565b01602801949350505050565b602081526000825180602084015261172c816040850160208701611674565b601f01601f19169190910160400192915050565b80820281158282048414176104b6576104b6611610565b634e487b7160e01b600052604160045260246000fd5b634e487b7160e01b600052603260045260246000fd5b60008161179257611792611610565b50600019019056fea2646970667358221220366aca8d97bec154a11e5cb9f0be2c19f5dcc68428a1a9eeaf18c50188d142d064736f6c63430008140033",
  "linkReferences": {},
  "deployedLinkReferences": {}
}