{
  "_format": "hh-sol-artifact-1",
  "contractName": "MessageInbox",
  "sourceName": "contracts/interop/MessageInbox.sol",
  "abi": [
    {
      "inputs": [],
      "stateMutability": "nonpayable",
      "type": "constructor"
    },
    {
      "anonymous": false,
      "inputs": [
        {
          "indexed": false,
          "internalType": "uint256",
          "name": "small",
          "type": "uint256"
        },
        {
          "indexed": false,
          "internalType": "uint256",
          "name": "medium",
          "type": "uint256"
        },
        {
          "indexed": false,
          "internalType": "uint256",
          "name": "large",
          "type": "uint256"
        }
      ],
      "name": "ChallengePeriodUpdated",
      "type": "event"
    },
    {
      "anonymous": false,
      "inputs": [
        {
          "indexed": true,
          "internalType": "bytes32",
          "name": "messageHash",
          "type": "bytes32"
        },
        {
          "indexed": true,
          "internalType": "address",
          "name": "challenger",
          "type": "address"
        },
        {
          "indexed": false,
          "internalType": "bytes32",
          "name": "challengeId",
          "type": "bytes32"
        }
      ],
      "name": "MessageChallenged",
      "type": "event"
    },
    {
      "anonymous": false,
      "inputs": [
        {
          "indexed": true,
          "internalType": "bytes32",
          "name": "messageHash",
          "type": "bytes32"
        },
        {
          "indexed": true,
          "internalType": "address",
          "name": "recipient",
          "type": "address"
        },
        {
          "indexed": false,
          "internalType": "uint256",
          "name": "amount",
          "type": "uint256"
        }
      ],
      "name": "MessageFinalized",
      "type": "event"
    },
    {
      "anonymous": false,
      "inputs": [
        {
          "indexed": true,
          "internalType": "bytes32",
          "name": "messageHash",
          "type": "bytes32"
        },
        {
          "indexed": false,
          "internalType": "bytes32",
          "name": "challengeId",
          "type": "bytes32"
        }
      ],
      "name": "MessageReverted",
      "type": "event"
    },
    {
      "anonymous": false,
      "inputs": [
        {
          "indexed": true,
          "internalType": "bytes32",
          "name": "messageHash",
          "type": "bytes32"
        },
        {
          "indexed": false,
          "internalType": "uint256",
          "name": "srcChainId",
          "type": "uint256"
        },
        {
          "indexed": false,
          "internalType": "uint256",
          "name": "dstChainId",
          "type": "uint256"
        },
        {
          "indexed": false,
          "internalType": "address",
          "name": "token",
          "type": "address"
        },
        {
          "indexed": false,
          "internalType": "uint256",
          "name": "amount",
          "type": "uint256"
        },
        {
          "indexed": false,
          "internalType": "address",
          "name": "recipient",
          "type": "address"
        },
        {
          "indexed": false,
          "internalType": "bytes32",
          "name": "intentHash",
          "type": "bytes32"
        },
        {
          "indexed": false,
          "internalType": "uint256",
          "name": "challengePeriodEnd",
          "type": "uint256"
        }
      ],
      "name": "MessageSubmitted",
      "type": "event"
    },
    {
      "anonymous": false,
      "inputs": [
        {
          "indexed": false,
          "internalType": "address",
          "name": "account",
          "type": "address"
        }
      ],
      "name": "Paused",
      "type": "event"
    },
    {
      "anonymous": false,
      "inputs": [
        {
          "indexed": true,
          "internalType": "bytes32",
          "name": "role",
          "type": "bytes32"
        },
        {
          "indexed": true,
          "internalType": "bytes32",
          "name": "previousAdminRole",
          "type": "bytes32"
        },
        {
          "indexed": true,
          "internalType": "bytes32",
          "name": "newAdminRole",
          "type": "bytes32"
        }
      ],
      "name": "RoleAdminChanged",
      "type": "event"
    },
    {
      "anonymous": false,
      "inputs": [
        {
          "indexed": true,
          "internalType": "bytes32",
          "name": "role",
          "type": "bytes32"
        },
        {
          "indexed": true,
          "internalType": "address",
          "name": "account",
          "type": "address"
        },
        {
          "indexed": true,
          "internalType": "address",
          "name": "sender",
          "type": "address"
        }
      ],
      "name": "RoleGranted",
      "type": "event"
    },
    {
      "anonymous": false,
      "inputs": [
        {
          "indexed": true,
          "internalType": "bytes32",
          "name": "role",
          "type": "bytes32"
        },
        {
          "indexed": true,
          "internalType": "address",
          "name": "account",
          "type": "address"
        },
        {
          "indexed": true,
          "internalType": "address",
          "name": "sender",
          "type": "address"
        }
      ],
      "name": "RoleRevoked",
      "type": "event"
    },
    {
      "anonymous": false,
      "inputs": [
        {
          "indexed": false,
          "internalType": "address",
          "name": "account",
          "type": "address"
        }
      ],
      "name": "Unpaused",
      "type": "event"
    },
    {
      "inputs": [],
      "name": "CHALLENGER_ROLE",
      "outputs": [
        {
          "internalType": "bytes32",
          "name": "",
          "type": "bytes32"
        }
      ],
      "stateMutability": "view",
      "type": "function"
    },
    {
      "inputs": [],
      "name": "DEFAULT_ADMIN_ROLE",
      "outputs": [
        {
          "internalType": "bytes32",
          "name": "",
          "type": "bytes32"
        }
      ],
      "stateMutability": "view",
      "type": "function"
    },
    {
      "inputs": [],
      "name": "MEDIUM_AMOUNT_THRESHOLD",
      "outputs": [
        {
          "internalType": "uint256",
          "name": "",
          "type": "uint256"
        }
      ],
      "stateMutability": "view",
      "type": "function"
    },
    {
      "inputs": [],
      "name": "PAUSER_ROLE",
      "outputs": [
        {
          "internalType": "bytes32",
          "name": "",
          "type": "bytes32"
        }
      ],
      "stateMutability": "view",
      "type": "function"
    },
    {
      "inputs": [],
      "name": "SMALL_AMOUNT_THRESHOLD",
      "outputs": [
        {
          "internalType": "uint256",
          "name": "",
          "type": "uint256"
        }
      ],
      "stateMutability": "view",
      "type": "function"
    },
    {
      "inputs": [],
      "name": "TSS_ROLE",
      "outputs": [
        {
          "internalType": "bytes32",
          "name": "",
          "type": "bytes32"
        }
      ],
      "stateMutability": "view",
      "type": "function"
    },
    {
      "inputs": [
        {
          "internalType": "bytes32",
          "name": "messageHash",
          "type": "bytes32"
        },
        {
          "internalType": "bytes32",
          "name": "challengeId",
          "type": "bytes32"
        }
      ],
      "name": "challenge",
      "outputs": [],
      "stateMutability": "nonpayable",
      "type": "function"
    },
    {
      "inputs": [
        {
          "internalType": "bytes32",
          "name": "messageHash",
          "type": "bytes32"
        }
      ],
      "name": "finalize",
      "outputs": [],
      "stateMutability": "nonpayable",
      "type": "function"
    },
    {
      "inputs": [
        {
          "internalType": "bytes32",
          "name": "messageHash",
          "type": "bytes32"
        }
      ],
      "name": "getMessage",
      "outputs": [
        {
          "components": [
            {
              "internalType": "uint256",
              "name": "srcChainId",
              "type": "uint256"
            },
            {
              "internalType": "uint256",
              "name": "dstChainId",
              "type": "uint256"
            },
            {
              "internalType": "address",
              "name": "token",
              "type": "address"
            },
            {
              "internalType": "uint256",
              "name": "amount",
              "type": "uint256"
            },
            {
              "internalType": "address",
              "name": "recipient",
              "type": "address"
            },
            {
              "internalType": "bytes32",
              "name": "intentHash",
              "type": "bytes32"
            },
            {
              "internalType": "uint256",
              "name": "submittedAt",
              "type": "uint256"
            },
            {
              "internalType": "uint256",
              "name": "challengePeriodEnd",
              "type": "uint256"
            },
            {
              "internalType": "enum MessageInbox.MessageState",
              "name": "state",
              "type": "uint8"
            },
            {
              "internalType": "address",
              "name": "challenger",
              "type": "address"
            },
            {
              "internalType": "bytes32",
              "name": "challengeId",
              "type": "bytes32"
            }
          ],
          "internalType": "struct MessageInbox.BridgeMessage",
          "name": "",
          "type": "tuple"
        }
      ],
      "stateMutability": "view",
      "type": "function"
    },
    {
      "inputs": [
        {
          "internalType": "bytes32",
          "name": "messageHash",
          "type": "bytes32"
        }
      ],
      "name": "getMessageState",
      "outputs": [
        {
          "internalType": "enum MessageInbox.MessageState",
          "name": "",
          "type": "uint8"
        }
      ],
      "stateMutability": "view",
      "type": "function"
    },
    {
      "inputs": [],
      "name": "getPendingCount",
      "outputs": [
        {
          "internalType": "uint256",
          "name": "",
          "type": "uint256"
        }
      ],
      "stateMutability": "view",
      "type": "function"
    },
    {
      "inputs": [
        {
          "internalType": "bytes32",
          "name": "role",
          "type": "bytes32"
        }
      ],
      "name": "getRoleAdmin",
      "outputs": [
        {
          "internalType": "bytes32",
          "name": "",
          "type": "bytes32"
        }
      ],
      "stateMutability": "view",
      "type": "function"
    },
    {
      "inputs": [
        {
          "internalType": "bytes32",
          "name": "messageHash",
          "type": "bytes32"
        }
      ],
      "name": "getTimeRemaining",
      "outputs": [
        {
          "internalType": "uint256",
          "name": "",
          "type": "uint256"
        }
      ],
      "stateMutability": "view",
      "type": "function"
    },
    {
      "inputs": [
        {
          "internalType": "bytes32",
          "name": "role",
          "type": "bytes32"
        },
        {
          "internalType": "address",
          "name": "account",
          "type": "address"
        }
      ],
      "name": "grantRole",
      "outputs": [],
      "stateMutability": "nonpayable",
      "type": "function"
    },
    {
      "inputs": [
        {
          "internalType": "bytes32",
          "name": "role",
          "type": "bytes32"
        },
        {
          "internalType": "address",
          "name": "account",
          "type": "address"
        }
      ],
      "name": "hasRole",
      "outputs": [
        {
          "internalType": "bool",
          "name": "",
          "type": "bool"
        }
      ],
      "stateMutability": "view",
      "type": "function"
    },
    {
      "inputs": [
        {
          "internalType": "bytes32",
          "name": "messageHash",
          "type": "bytes32"
        }
      ],
      "name": "isFinalized",
      "outputs": [
        {
          "internalType": "bool",
          "name": "",
          "type": "bool"
        }
      ],
      "stateMutability": "view",
      "type": "function"
    },
    {
      "inputs": [],
      "name": "largeChallengePeriod",
      "outputs": [
        {
          "internalType": "uint256",
          "name": "",
          "type": "uint256"
        }
      ],
      "stateMutability": "view",
      "type": "function"
    },
    {
      "inputs": [],
      "name": "mediumChallengePeriod",
      "outputs": [
        {
          "internalType": "uint256",
          "name": "",
          "type": "uint256"
        }
      ],
      "stateMutability": "view",
      "type": "function"
    },
    {
      "inputs": [
        {
          "internalType": "bytes32",
          "name": "",
          "type": "bytes32"
        }
      ],
      "name": "messages",
      "outputs": [
        {
          "internalType": "uint256",
          "name": "srcChainId",
          "type": "uint256"
        },
        {
          "internalType": "uint256",
          "name": "dstChainId",
          "type": "uint256"
        },
        {
          "internalType": "address",
          "name": "token",
          "type": "address"
        },
        {
          "internalType": "uint256",
          "name": "amount",
          "type": "uint256"
        },
        {
          "internalType": "address",
          "name": "recipient",
          "type": "address"
        },
        {
          "internalType": "bytes32",
          "name": "intentHash",
          "type": "bytes32"
        },
        {
          "internalType": "uint256",
          "name": "submittedAt",
          "type": "uint256"
        },
        {
          "internalType": "uint256",
          "name": "challengePeriodEnd",
          "type": "uint256"
        },
        {
          "internalType": "enum MessageInbox.MessageState",
          "name": "state",
          "type": "uint8"
        },
        {
          "internalType": "address",
          "name": "challenger",
          "type": "address"
        },
        {
          "internalType": "bytes32",
          "name": "challengeId",
          "type": "bytes32"
        }
      ],
      "stateMutability": "view",
      "type": "function"
    },
    {
      "inputs": [],
      "name": "pause",
      "outputs": [],
      "stateMutability": "nonpayable",
      "type": "function"
    },
    {
      "inputs": [],
      "name": "paused",
      "outputs": [
        {
          "internalType": "bool",
          "name": "",
          "type": "bool"
        }
      ],
      "stateMutability": "view",
      "type": "function"
    },
    {
      "inputs": [
        {
          "internalType": "bytes32",
          "name": "",
          "type": "bytes32"
        }
      ],
      "name": "pendingIndex",
      "outputs": [
        {
          "internalType": "uint256",
          "name": "",
          "type": "uint256"
        }
      ],
      "stateMutability": "view",
      "type": "function"
    },
    {
      "inputs": [
        {
          "internalType": "uint256",
          "name": "",
          "type": "uint256"
        }
      ],
      "name": "pendingMessages",
      "outputs": [
        {
          "internalType": "bytes32",
          "name": "",
          "type": "bytes32"
        }
      ],
      "stateMutability": "view",
      "type": "function"
    },
    {
      "inputs": [
        {
          "internalType": "bytes32",
          "name": "role",
          "type": "bytes32"
        },
        {
          "internalType": "address",
          "name": "account",
          "type": "address"
        }
      ],
      "name": "renounceRole",
      "outputs": [],
      "stateMutability": "nonpayable",
      "type": "function"
    },
    {
      "inputs": [
        {
          "internalType": "bytes32",
          "name": "messageHash",
          "type": "bytes32"
        }
      ],
      "name": "revertMessage",
      "outputs": [],
      "stateMutability": "nonpayable",
      "type": "function"
    },
    {
      "inputs": [
        {
          "internalType": "bytes32",
          "name": "role",
          "type": "bytes32"
        },
        {
          "internalType": "address",
          "name": "account",
          "type": "address"
        }
      ],
      "name": "revokeRole",
      "outputs": [],
      "stateMutability": "nonpayable",
      "type": "function"
    },
    {
      "inputs": [
        {
          "internalType": "uint256",
          "name": "_small",
          "type": "uint256"
        },
        {
          "internalType": "uint256",
          "name": "_medium",
          "type": "uint256"
        },
        {
          "internalType": "uint256",
          "name": "_large",
          "type": "uint256"
        }
      ],
      "name": "setChallengePeriods",
      "outputs": [],
      "stateMutability": "nonpayable",
      "type": "function"
    },
    {
      "inputs": [],
      "name": "smallChallengePeriod",
      "outputs": [
        {
          "internalType": "uint256",
          "name": "",
          "type": "uint256"
        }
      ],
      "stateMutability": "view",
      "type": "function"
    },
    {
      "inputs": [
        {
          "internalType": "uint256",
          "name": "srcChainId",
          "type": "uint256"
        },
        {
          "internalType": "uint256",
          "name": "dstChainId",
          "type": "uint256"
        },
        {
          "internalType": "address",
          "name": "token",
          "type": "address"
        },
        {
          "internalType": "uint256",
          "name": "amount",
          "type": "uint256"
        },
        {
          "internalType": "address",
          "name": "recipient",
          "type": "address"
        },
        {
          "internalType": "bytes32",
          "name": "intentHash",
          "type": "bytes32"
        },
        {
          "internalType": "bytes",
          "name": "tssSignature",
          "type": "bytes"
        }
      ],
      "name": "submitPending",
      "outputs": [
        {
          "internalType": "bytes32",
          "name": "messageHash",
          "type": "bytes32"
        }
      ],
      "stateMutability": "nonpayable",
      "type": "function"
    },
    {
      "inputs": [
        {
          "internalType": "bytes4",
          "name": "interfaceId",
          "type": "bytes4"
        }
      ],
      "name": "supportsInterface",
      "outputs": [
        {
          "internalType": "bool",
          "name": "",
          "type": "bool"
        }
      ],
      "stateMutability": "view",
      "type": "function"
    },
    {
      "inputs": [],
      "name": "unpause",
      "outputs": [],
      "stateMutability": "nonpayable",
      "type": "function"
    }
  ],
  "bytecode": "0x6080604052610258600655610708600755611c2060085534801561002257600080fd5b506001805460ff1916815560025561003b60003361006a565b6100657f65d7a28e3265b37a6474929f336521b332c1681b933f6cb9f3376673440d862a3361006a565b610109565b6000828152602081815260408083206001600160a01b038516845290915290205460ff16610105576000828152602081815260408083206001600160a01b03851684529091529020805460ff191660011790556100c43390565b6001600160a01b0316816001600160a01b0316837f2f8788117e7eff1d82e926ec794901d17c78024a50270940304540a733656f0d60405160405180910390a45b5050565b611b1580620001196000396000f3fe608060405234801561001057600080fd5b50600436106101e55760003560e01c80639241f0bc1161010f578063d0556bd7116100a2578063e5b8d57311610071578063e5b8d573146104ba578063e63ab1e9146104cd578063fa74161a146104f4578063ff28df5d146104fd57600080fd5b8063d0556bd71461046c578063d547741f1461047f578063d795ede114610492578063db85ce491461049a57600080fd5b8063a783c789116100de578063a783c78914610420578063ada3a76414610447578063bd6585221461045a578063c0e769621461046357600080fd5b80639241f0bc146103c157806392584d80146103f45780639a6d82d814610407578063a217fddf1461041857600080fd5b806332be9ebc116101875780635c975abb116101565780635c975abb146103885780637f8d429e146103935780638456cb59146103a657806391d14854146103ae57600080fd5b806332be9ebc1461033357806336568abe146103465780633f4ba83a14610359578063530adbb41461036157600080fd5b8063248a9ca3116101c3578063248a9ca31461024b5780632922e6e51461027c5780632bbd59ca1461028f5780632f2ff15d1461032057600080fd5b80630139a221146101ea57806301ffc9a7146102135780631da1b99414610236575b600080fd5b6101fd6101f8366004611675565b61050d565b60405161020a91906116c6565b60405180910390f35b610226610221366004611776565b61063a565b604051901515815260200161020a565b6102496102443660046117a0565b610671565b005b61026e610259366004611675565b60009081526020819052604090206001015490565b60405190815260200161020a565b61026e61028a366004611675565b6107c2565b61030961029d366004611675565b60036020819052600091825260409091208054600182015460028301549383015460048401546005850154600686015460078701546008880154600990980154969895976001600160a01b039687169795969485169593949293919260ff82169261010090920416908b565b60405161020a9b9a999897969594939291906117cc565b61024961032e366004611851565b6107e3565b61026e610341366004611675565b61080d565b610249610354366004611851565b61092f565b6102496109ad565b61026e7fe752add323323eb13e36c71ee508dfd16d74e9e4c4fd78786ba97989e5e1381881565b60015460ff16610226565b6102266103a1366004611675565b6109c3565b6102496109f4565b6102266103bc366004611851565b610a26565b6103e76103cf366004611675565b60009081526003602052604090206008015460ff1690565b60405161020a919061187d565b610249610402366004611675565b610a4f565b61026e69021e19e0c9bab240000081565b61026e600081565b61026e7f0da06bffcb63442de88b7f8385468eaf51e47079d4fa96875938e2c27c451deb81565b61024961045536600461188b565b610b85565b61026e60085481565b61026e60065481565b61024961047a366004611675565b610cd9565b61024961048d366004611851565b610da6565b60045461026e565b61026e6104a8366004611675565b60056020526000908152604090205481565b61026e6104c83660046118ad565b610dcb565b61026e7f65d7a28e3265b37a6474929f336521b332c1681b933f6cb9f3376673440d862a81565b61026e60075481565b61026e683635c9adc5dea0000081565b6040805161016081018252600080825260208201819052918101829052606081018290526080810182905260a0810182905260c0810182905260e08101829052610100810182905261012081018290526101408101919091526000828152600360208181526040928390208351610160810185528154815260018201549281019290925260028101546001600160a01b03908116948301949094529182015460608201526004808301549093166080820152600582015460a0820152600682015460c0820152600782015460e08201526008820154909261010084019160ff16908111156105fd576105fd61168e565b600481111561060e5761060e61168e565b8152600882015461010090046001600160a01b0316602082015260099091015460409091015292915050565b60006001600160e01b03198216637965db0b60e01b148061066b57506301ffc9a760e01b6001600160e01b03198316145b92915050565b600061067c816110fb565b61012c8410156106cc5760405162461bcd60e51b815260206004820152601660248201527514db585b1b081c195c9a5bd9081d1bdbc81cda1bdc9d60521b60448201526064015b60405180910390fd5b8383101561071c5760405162461bcd60e51b815260206004820152601760248201527f4d656469756d206d757374206265203e3d20736d616c6c00000000000000000060448201526064016106c3565b8282101561076c5760405162461bcd60e51b815260206004820152601760248201527f4c61726765206d757374206265203e3d206d656469756d00000000000000000060448201526064016106c3565b60068490556007839055600882905560408051858152602081018590529081018390527f2a08d83d519ebe072e65a3a528f0ace706712f8313fce9ce53313f37f6fffe3e9060600160405180910390a150505050565b600481815481106107d257600080fd5b600091825260209091200154905081565b6000828152602081905260409020600101546107fe816110fb565b6108088383611105565b505050565b60008181526003602081815260408084208151610160810183528154815260018201549381019390935260028101546001600160a01b03908116928401929092529283015460608301526004808401549091166080830152600583015460a0830152600683015460c0830152600783015460e0830152600883015484939161010084019160ff16908111156108a4576108a461168e565b60048111156108b5576108b561168e565b8152600882015461010090046001600160a01b031660208201526009909101546040909101529050600181610100015160048111156108f6576108f661168e565b146109045750600092915050565b8060e0015142106109185750600092915050565b428160e00151610928919061197d565b9392505050565b6001600160a01b038116331461099f5760405162461bcd60e51b815260206004820152602f60248201527f416363657373436f6e74726f6c3a2063616e206f6e6c792072656e6f756e636560448201526e103937b632b9903337b91039b2b63360891b60648201526084016106c3565b6109a98282611189565b5050565b60006109b8816110fb565b6109c06111ee565b50565b6000600360008381526003602052604090206008015460ff1660048111156109ed576109ed61168e565b1492915050565b7f65d7a28e3265b37a6474929f336521b332c1681b933f6cb9f3376673440d862a610a1e816110fb565b6109c0611240565b6000918252602082815260408084206001600160a01b0393909316845291905290205460ff1690565b610a5761127b565b610a5f6112c3565b60008181526003602052604090206001600882015460ff166004811115610a8857610a8861168e565b14610ac35760405162461bcd60e51b815260206004820152600b60248201526a4e6f742070656e64696e6760a81b60448201526064016106c3565b8060070154421015610b175760405162461bcd60e51b815260206004820152601a60248201527f4368616c6c656e676520706572696f64206e6f7420656e64656400000000000060448201526064016106c3565b60088101805460ff19166003179055610b2f8261131a565b600481015460038201546040519081526001600160a01b039091169083907f98188a653da6c5eb88a10ed9ad19ab954fa42d5ec5ec2f9ba70b93bf7bd230279060200160405180910390a3506109c06001600255565b7fe752add323323eb13e36c71ee508dfd16d74e9e4c4fd78786ba97989e5e13818610baf816110fb565b610bb761127b565b610bbf6112c3565b60008381526003602052604090206001600882015460ff166004811115610be857610be861168e565b14610c235760405162461bcd60e51b815260206004820152600b60248201526a4e6f742070656e64696e6760a81b60448201526064016106c3565b80600701544210610c6f5760405162461bcd60e51b815260206004820152601660248201527510da185b1b195b99d9481c195c9a5bd908195b99195960521b60448201526064016106c3565b600881018054610100339081026001600160a81b0319909216919091176002179091556009820184905560405184815285907f61f34d306dac413d271ffa7262a1f0ec6f1440853fb734c3b396642fb3db76429060200160405180910390a3506108086001600255565b6000610ce4816110fb565b60008281526003602052604090206002600882015460ff166004811115610d0d57610d0d61168e565b14610d4b5760405162461bcd60e51b815260206004820152600e60248201526d139bdd0818da185b1b195b99d95960921b60448201526064016106c3565b60088101805460ff19166004179055610d638361131a565b827fbc91eefe95deeaf93416546d462b9ba50be0b68e17175df8ec184a030b51386b8260090154604051610d9991815260200190565b60405180910390a2505050565b600082815260208190526040902060010154610dc1816110fb565b6108088383611189565b60007f0da06bffcb63442de88b7f8385468eaf51e47079d4fa96875938e2c27c451deb610df7816110fb565b610dff61127b565b610e076112c3565b60408051602081018c90529081018a90526001600160a01b03808a16606083015260808201899052871660a082015260c0810186905260e00160408051601f19818403018152919052805160209091012091506000808381526003602052604090206008015460ff166004811115610e8157610e8161168e565b14610ec75760405162461bcd60e51b81526020600482015260166024820152754d65737361676520616c72656164792065786973747360501b60448201526064016106c3565b6000610ed2886113e3565b90506000610ee08242611990565b90506040518061016001604052808d81526020018c81526020018b6001600160a01b031681526020018a8152602001896001600160a01b0316815260200188815260200142815260200182815260200160016004811115610f4357610f4361168e565b81526000602080830182905260409283018290528782526003808252918390208451815590840151600180830191909155928401516002820180546001600160a01b039283166001600160a01b031991821617909155606086015193830193909355608085015160048084018054929093169190941617905560a0840151600582015560c0840151600682015560e0840151600782015561010084015160088201805492949193909260ff1916919084908111156110035761100361168e565b0217905550610120820151600882018054610100600160a81b0319166101006001600160a01b039384160217905561014090920151600990910155600480546001810182557f8a35acfbc15ff81a39ae7d344fd709f28e8600b4aa8c65c6b64bfe7fe36bd19b01869055546000868152600560209081526040918290209290925580518f81529182018e90528c831690820152606081018b9052908916608082015260a0810188905260c0810182905284907f681b7648208bae412bfb29abe46fe9efaee5ee19302b6ffc7385dae944358d409060e00160405180910390a250506110ee6001600255565b5098975050505050505050565b6109c08133611425565b61110f8282610a26565b6109a9576000828152602081815260408083206001600160a01b03851684529091529020805460ff191660011790556111453390565b6001600160a01b0316816001600160a01b0316837f2f8788117e7eff1d82e926ec794901d17c78024a50270940304540a733656f0d60405160405180910390a45050565b6111938282610a26565b156109a9576000828152602081815260408083206001600160a01b0385168085529252808320805460ff1916905551339285917ff6391f5c32d9c69d2a47ea670b442974b53935d1edc7fd64eb21e047a839171b9190a45050565b6111f661147e565b6001805460ff191690557f5db9ee0a495bf2e6ff9c91a7834c1ba4fdd244a5e8aa4e537bd38aeae4b073aa335b6040516001600160a01b03909116815260200160405180910390a1565b61124861127b565b6001805460ff1916811790557f62e78cea01bee320cd4e420270b5ea74000d11b0c9f74754ebdbfc544b05a25833611223565b60015460ff16156112c15760405162461bcd60e51b815260206004820152601060248201526f14185d5cd8589b194e881c185d5cd95960821b60448201526064016106c3565b565b60028054036113145760405162461bcd60e51b815260206004820152601f60248201527f5265656e7472616e637947756172643a207265656e7472616e742063616c6c0060448201526064016106c3565b60028055565b60008181526005602052604090205480156109a957600454808210156113a6576000600461134960018461197d565b81548110611359576113596119a3565b90600052602060002001549050806004600185611376919061197d565b81548110611386576113866119a3565b600091825260208083209091019290925591825260059052604090208290555b60048054806113b7576113b76119b9565b600082815260208082208301600019908101839055909201909255848252600590526040812055505050565b6000683635c9adc5dea000008210156113fe57505060065490565b69021e19e0c9bab240000082101561141857505060075490565b505060085490565b919050565b61142f8282610a26565b6109a95761143c816114c7565b6114478360206114d9565b6040516020016114589291906119f3565b60408051601f198184030181529082905262461bcd60e51b82526106c391600401611a68565b60015460ff166112c15760405162461bcd60e51b815260206004820152601460248201527314185d5cd8589b194e881b9bdd081c185d5cd95960621b60448201526064016106c3565b606061066b6001600160a01b03831660145b606060006114e8836002611a9b565b6114f3906002611990565b67ffffffffffffffff81111561150b5761150b611ab2565b6040519080825280601f01601f191660200182016040528015611535576020820181803683370190505b509050600360fc1b81600081518110611550576115506119a3565b60200101906001600160f81b031916908160001a905350600f60fb1b8160018151811061157f5761157f6119a3565b60200101906001600160f81b031916908160001a90535060006115a3846002611a9b565b6115ae906001611990565b90505b6001811115611626576f181899199a1a9b1b9c1cb0b131b232b360811b85600f16601081106115e2576115e26119a3565b1a60f81b8282815181106115f8576115f86119a3565b60200101906001600160f81b031916908160001a90535060049490941c9361161f81611ac8565b90506115b1565b5083156109285760405162461bcd60e51b815260206004820181905260248201527f537472696e67733a20686578206c656e67746820696e73756666696369656e7460448201526064016106c3565b60006020828403121561168757600080fd5b5035919050565b634e487b7160e01b600052602160045260246000fd5b600581106116c257634e487b7160e01b600052602160045260246000fd5b9052565b600061016082019050825182526020830151602083015260408301516116f760408401826001600160a01b03169052565b5060608301516060830152608083015161171c60808401826001600160a01b03169052565b5060a083015160a083015260c083015160c083015260e083015160e08301526101008084015161174e828501826116a4565b5050610120838101516001600160a01b03811684830152505061014092830151919092015290565b60006020828403121561178857600080fd5b81356001600160e01b03198116811461092857600080fd5b6000806000606084860312156117b557600080fd5b505081359360208301359350604090920135919050565b8b8152602081018b90526001600160a01b038a81166040830152606082018a9052888116608083015260a0820188905260c0820187905260e0820186905261016082019061181e6101008401876116a4565b9390931661012082015261014001529998505050505050505050565b80356001600160a01b038116811461142057600080fd5b6000806040838503121561186457600080fd5b823591506118746020840161183a565b90509250929050565b6020810161066b82846116a4565b6000806040838503121561189e57600080fd5b50508035926020909101359150565b60008060008060008060008060e0898b0312156118c957600080fd5b88359750602089013596506118e060408a0161183a565b9550606089013594506118f560808a0161183a565b935060a0890135925060c089013567ffffffffffffffff8082111561191957600080fd5b818b0191508b601f83011261192d57600080fd5b81358181111561193c57600080fd5b8c602082850101111561194e57600080fd5b6020830194508093505050509295985092959890939650565b634e487b7160e01b600052601160045260246000fd5b8181038181111561066b5761066b611967565b8082018082111561066b5761066b611967565b634e487b7160e01b600052603260045260246000fd5b634e487b7160e01b600052603160045260246000fd5b60005b838110156119ea5781810151838201526020016119d2565b50506000910152565b7f416363657373436f6e74726f6c3a206163636f756e7420000000000000000000815260008351611a2b8160178501602088016119cf565b7001034b99036b4b9b9b4b733903937b6329607d1b6017918401918201528351611a5c8160288401602088016119cf565b01602801949350505050565b6020815260008251806020840152611a878160408501602087016119cf565b601f01601f19169190910160400192915050565b808202811582820484141761066b5761066b611967565b634e487b7160e01b600052604160045260246000fd5b600081611ad757611ad7611967565b50600019019056fea26469706673582212208b8a715940962bef1250b22003b5c2128e0024690ef7271e4fa87d592740aab864736f6c63430008140033",
  "linkReferences": {},
  "deployedLinkReferences": {}
}