{
  "_format": "hh-sol-artifact-1",
  "contractName": "IntentCommitment",
  "sourceName": "contracts/interop/IntentCommitment.sol",
  "abi": [
    {
      "inputs": [],
      "stateMutability": "nonpayable",
      "type": "constructor"
    },
    {
      "inputs": [],
      "name": "InvalidShortString",
      "type": "error"
    },
    {
      "inputs": [
        {
          "internalType": "string",
          "name": "str",
          "type": "string"
        }
      ],
      "name": "StringTooLong",
      "type": "error"
    },
    {
      "anonymous": false,
      "inputs": [],
      "name": "EIP712DomainChanged",
      "type": "event"
    },
    {
      "anonymous": false,
      "inputs": [
        {
          "indexed": true,
          "internalType": "bytes32",
          "name": "intentHash",
          "type": "bytes32"
        },
        {
          "indexed": true,
          "internalType": "address",
          "name": "user",
          "type": "address"
        },
        {
          "indexed": false,
          "internalType": "uint256",
          "name": "srcChainId",
          "type": "uint256"
        },
        {
          "indexed": false,
          "internalType": "uint256",
          "name": "dstChainId",
          "type": "uint256"
        },
        {
          "indexed": false,
          "internalType": "address",
          "name": "token",
          "type": "address"
        },
        {
          "indexed": false,
          "internalType": "uint256",
          "name": "amount",
          "type": "uint256"
        },
        {
          "indexed": false,
          "internalType": "address",
          "name": "recipient",
          "type": "address"
        },
        {
          "indexed": false,
          "internalType": "uint256",
          "name": "nonce",
          "type": "uint256"
        },
        {
          "indexed": false,
          "internalType": "uint256",
          "name": "expiry",
          "type": "uint256"
        }
      ],
      "name": "IntentCommitted",
      "type": "event"
    },
    {
      "anonymous": false,
      "inputs": [
        {
          "indexed": true,
          "internalType": "bytes32",
          "name": "intentHash",
          "type": "bytes32"
        },
        {
          "indexed": true,
          "internalType": "address",
          "name": "consumer",
          "type": "address"
        }
      ],
      "name": "IntentConsumed",
      "type": "event"
    },
    {
      "anonymous": false,
      "inputs": [
        {
          "indexed": true,
          "internalType": "bytes32",
          "name": "role",
          "type": "bytes32"
        },
        {
          "indexed": true,
          "internalType": "bytes32",
          "name": "previousAdminRole",
          "type": "bytes32"
        },
        {
          "indexed": true,
          "internalType": "bytes32",
          "name": "newAdminRole",
          "type": "bytes32"
        }
      ],
      "name": "RoleAdminChanged",
      "type": "event"
    },
    {
      "anonymous": false,
      "inputs": [
        {
          "indexed": true,
          "internalType": "bytes32",
          "name": "role",
          "type": "bytes32"
        },
        {
          "indexed": true,
          "internalType": "address",
          "name": "account",
          "type": "address"
        },
        {
          "indexed": true,
          "internalType": "address",
          "name": "sender",
          "type": "address"
        }
      ],
      "name": "RoleGranted",
      "type": "event"
    },
    {
      "anonymous": false,
      "inputs": [
        {
          "indexed": true,
          "internalType": "bytes32",
          "name": "role",
          "type": "bytes32"
        },
        {
          "indexed": true,
          "internalType": "address",
          "name": "account",
          "type": "address"
        },
        {
          "indexed": true,
          "internalType": "address",
          "name": "sender",
          "type": "address"
        }
      ],
      "name": "RoleRevoked",
      "type": "event"
    },
    {
      "inputs": [],
      "name": "BRIDGE_INTENT_TYPEHASH",
      "outputs": [
        {
          "internalType": "bytes32",
          "name": "",
          "type": "bytes32"
        }
      ],
      "stateMutability": "view",
      "type": "function"
    },
    {
      "inputs": [],
      "name": "BRIDGE_ROLE",
      "outputs": [
        {
          "internalType": "bytes32",
          "name": "",
          "type": "bytes32"
        }
      ],
      "stateMutability": "view",
      "type": "function"
    },
    {
      "inputs": [],
      "name": "DEFAULT_ADMIN_ROLE",
      "outputs": [
        {
          "internalType": "bytes32",
          "name": "",
          "type": "bytes32"
        }
      ],
      "stateMutability": "view",
      "type": "function"
    },
    {
      "inputs": [
        {
          "components": [
            {
              "internalType": "address",
              "name": "user",
              "type": "address"
            },
            {
              "internalType": "uint256",
              "name": "srcChainId",
              "type": "uint256"
            },
            {
              "internalType": "uint256",
              "name": "dstChainId",
              "type": "uint256"
            },
            {
              "internalType": "address",
              "name": "token",
              "type": "address"
            },
            {
              "internalType": "uint256",
              "name": "amount",
              "type": "uint256"
            },
            {
              "internalType": "address",
              "name": "recipient",
              "type": "address"
            },
            {
              "internalType": "uint256",
              "name": "nonce",
              "type": "uint256"
            },
            {
              "internalType": "uint256",
              "name": "expiry",
              "type": "uint256"
            }
          ],
          "internalType": "struct IntentCommitment.BridgeIntent",
          "name": "intent",
          "type": "tuple"
        },
        {
          "internalType": "bytes",
          "name": "signature",
          "type": "bytes"
        }
      ],
      "name": "commitIntent",
      "outputs": [
        {
          "internalType": "bytes32",
          "name": "intentHash",
          "type": "bytes32"
        }
      ],
      "stateMutability": "nonpayable",
      "type": "function"
    },
    {
      "inputs": [
        {
          "internalType": "bytes32",
          "name": "",
          "type": "bytes32"
        }
      ],
      "name": "commitments",
      "outputs": [
        {
          "internalType": "uint256",
          "name": "",
          "type": "uint256"
        }
      ],
      "stateMutability": "view",
      "type": "function"
    },
    {
      "inputs": [
        {
          "internalType": "bytes32",
          "name": "intentHash",
          "type": "bytes32"
        }
      ],
      "name": "consumeIntent",
      "outputs": [],
      "stateMutability": "nonpayable",
      "type": "function"
    },
    {
      "inputs": [],
      "name": "domainSeparator",
      "outputs": [
        {
          "internalType": "bytes32",
          "name": "",
          "type": "bytes32"
        }
      ],
      "stateMutability": "view",
      "type": "function"
    },
    {
      "inputs": [],
      "name": "eip712Domain",
      "outputs": [
        {
          "internalType": "bytes1",
          "name": "fields",
          "type": "bytes1"
        },
        {
          "internalType": "string",
          "name": "name",
          "type": "string"
        },
        {
          "internalType": "string",
          "name": "version",
          "type": "string"
        },
        {
          "internalType": "uint256",
          "name": "chainId",
          "type": "uint256"
        },
        {
          "internalType": "address",
          "name": "verifyingContract",
          "type": "address"
        },
        {
          "internalType": "bytes32",
          "name": "salt",
          "type": "bytes32"
        },
        {
          "internalType": "uint256[]",
          "name": "extensions",
          "type": "uint256[]"
        }
      ],
      "stateMutability": "view",
      "type": "function"
    },
    {
      "inputs": [
        {
          "internalType": "address",
          "name": "user",
          "type": "address"
        }
      ],
      "name": "getNextNonce",
      "outputs": [
        {
          "internalType": "uint256",
          "name": "",
          "type": "uint256"
        }
      ],
      "stateMutability": "view",
      "type": "function"
    },
    {
      "inputs": [
        {
          "internalType": "bytes32",
          "name": "role",
          "type": "bytes32"
        }
      ],
      "name": "getRoleAdmin",
      "outputs": [
        {
          "internalType": "bytes32",
          "name": "",
          "type": "bytes32"
        }
      ],
      "stateMutability": "view",
      "type": "function"
    },
    {
      "inputs": [
        {
          "internalType": "bytes32",
          "name": "role",
          "type": "bytes32"
        },
        {
          "internalType": "address",
          "name": "account",
          "type": "address"
        }
      ],
      "name": "grantRole",
      "outputs": [],
      "stateMutability": "nonpayable",
      "type": "function"
    },
    {
      "inputs": [
        {
          "internalType": "bytes32",
          "name": "role",
          "type": "bytes32"
        },
        {
          "internalType": "address",
          "name": "account",
          "type": "address"
        }
      ],
      "name": "hasRole",
      "outputs": [
        {
          "internalType": "bool",
          "name": "",
          "type": "bool"
        }
      ],
      "stateMutability": "view",
      "type": "function"
    },
    {
      "inputs": [
        {
          "internalType": "bytes32",
          "name": "",
          "type": "bytes32"
        }
      ],
      "name": "intents",
      "outputs": [
        {
          "internalType": "address",
          "name": "user",
          "type": "address"
        },
        {
          "internalType": "uint256",
          "name": "srcChainId",
          "type": "uint256"
        },
        {
          "internalType": "uint256",
          "name": "dstChainId",
          "type": "uint256"
        },
        {
          "internalType": "address",
          "name": "token",
          "type": "address"
        },
        {
          "internalType": "uint256",
          "name": "amount",
          "type": "uint256"
        },
        {
          "internalType": "address",
          "name": "recipient",
          "type": "address"
        },
        {
          "internalType": "uint256",
          "name": "nonce",
          "type": "uint256"
        },
        {
          "internalType": "uint256",
          "name": "expiry",
          "type": "uint256"
        }
      ],
      "stateMutability": "view",
      "type": "function"
    },
    {
      "inputs": [
        {
          "internalType": "address",
          "name": "user",
          "type": "address"
        },
        {
          "internalType": "uint256",
          "name": "nonce",
          "type": "uint256"
        }
      ],
      "name": "isNonceUsed",
      "outputs": [
        {
          "internalType": "bool",
          "name": "",
          "type": "bool"
        }
      ],
      "stateMutability": "view",
      "type": "function"
    },
    {
      "inputs": [
        {
          "internalType": "bytes32",
          "name": "role",
          "type": "bytes32"
        },
        {
          "internalType": "address",
          "name": "account",
          "type": "address"
        }
      ],
      "name": "renounceRole",
      "outputs": [],
      "stateMutability": "nonpayable",
      "type": "function"
    },
    {
      "inputs": [
        {
          "internalType": "bytes32",
          "name": "role",
          "type": "bytes32"
        },
        {
          "internalType": "address",
          "name": "account",
          "type": "address"
        }
      ],
      "name": "revokeRole",
      "outputs": [],
      "stateMutability": "nonpayable",
      "type": "function"
    },
    {
      "inputs": [
        {
          "internalType": "bytes4",
          "name": "interfaceId",
          "type": "bytes4"
        }
      ],
      "name": "supportsInterface",
      "outputs": [
        {
          "internalType": "bool",
          "name": "",
          "type": "bool"
        }
      ],
      "stateMutability": "view",
      "type": "function"
    },
    {
      "inputs": [
        {
          "internalType": "address",
          "name": "",
          "type": "address"
        },
        {
          "internalType": "uint256",
          "name": "",
          "type": "uint256"
        }
      ],
      "name": "usedNonces",
      "outputs": [
        {
          "internalType": "bool",
          "name": "",
          "type": "bool"
        }
      ],
      "stateMutability": "view",
      "type": "function"
    },
    {
      "inputs": [
        {
          "internalType": "bytes32",
          "name": "intentHash",
          "type": "bytes32"
        }
      ],
      "name": "verifyIntent",
      "outputs": [
        {
          "internalType": "bool",
          "name": "valid",
          "type": "bool"
        },
        {
          "components": [
            {
              "internalType": "address",
              "name": "user",
              "type": "address"
            },
            {
              "internalType": "uint256",
              "name": "srcChainId",
              "type": "uint256"
            },
            {
              "internalType": "uint256",
              "name": "dstChainId",
              "type": "uint256"
            },
            {
              "internalType": "address",
              "name": "token",
              "type": "address"
            },
            {
              "internalType": "uint256",
              "name": "amount",
              "type": "uint256"
            },
            {
              "internalType": "address",
              "name": "recipient",
              "type": "address"
            },
            {
              "internalType": "uint256",
              "name": "nonce",
              "type": "uint256"
            },
            {
              "internalType": "uint256",
              "name": "expiry",
              "type": "uint256"
            }
          ],
          "internalType": "struct IntentCommitment.BridgeIntent",
          "name": "intent",
          "type": "tuple"
        }
      ],
      "stateMutability": "view",
      "type": "function"
    }
  ],
  "bytecode": "0x6101606040523480156200001257600080fd5b50604080518082018252600c81526b566973696f6e42726964676560a01b602080830191909152825180840190935260018352603160f81b90830152906200005c8260006200011c565b610120526200006d8160016200011c565b61014052815160208084019190912060e052815190820120610100524660a052620000fb60e05161010051604080517f8b73c3c69bb8fe3d512ecc4cf759cc79239f7b179b0ffacaa9a75d522b39400f60208201529081019290925260608201524660808201523060a082015260009060c00160405160208183030381529060405280519060200120905090565b60805250503060c05260016003556200011660003362000155565b6200042c565b60006020835110156200013c576200013483620001fa565b90506200014f565b81620001498482620002eb565b5060ff90505b92915050565b60008281526002602090815260408083206001600160a01b038516845290915290205460ff16620001f65760008281526002602090815260408083206001600160a01b03851684529091529020805460ff19166001179055620001b53390565b6001600160a01b0316816001600160a01b0316837f2f8788117e7eff1d82e926ec794901d17c78024a50270940304540a733656f0d60405160405180910390a45b5050565b600080829050601f8151111562000231578260405163305a27a960e01b8152600401620002289190620003b7565b60405180910390fd5b80516200023e8262000407565b179392505050565b634e487b7160e01b600052604160045260246000fd5b600181811c908216806200027157607f821691505b6020821081036200029257634e487b7160e01b600052602260045260246000fd5b50919050565b601f821115620002e657600081815260208120601f850160051c81016020861015620002c15750805b601f850160051c820191505b81811015620002e257828155600101620002cd565b5050505b505050565b81516001600160401b0381111562000307576200030762000246565b6200031f816200031884546200025c565b8462000298565b602080601f8311600181146200035757600084156200033e5750858301515b600019600386901b1c1916600185901b178555620002e2565b600085815260208120601f198616915b82811015620003885788860151825594840194600190910190840162000367565b5085821015620003a75787850151600019600388901b60f8161c191681555b5050505050600190811b01905550565b600060208083528351808285015260005b81811015620003e657858101830151858201604001528201620003c8565b506000604082860101526040601f19601f8301168501019250505092915050565b80516020808301519190811015620002925760001960209190910360031b1b16919050565b60805160a05160c05160e051610100516101205161014051611858620004876000396000610a9101526000610a6701526000610eab01526000610e8301526000610dde01526000610e0801526000610e3201526118586000f3fe608060405234801561001057600080fd5b50600436106101215760003560e01c8063839df945116100ad578063a217fddf11610071578063a217fddf146103c2578063b5bfddea146103ca578063cab7e8eb146103f1578063d547741f1461042a578063f698da251461043d57600080fd5b8063839df945146102af57806384b0196e146102cf57806390193b7c146102ea5780639021578a146102fd57806391d14854146103af57600080fd5b806336568abe116100f457806336568abe146102215780633a141c24146102345780634d57b2a8146102475780636a8a68941461026e5780636b1ad6461461029c57600080fd5b806301ffc9a714610126578063163fb8241461014e578063248a9ca3146101db5780632f2ff15d1461020c575b600080fd5b6101396101343660046113bd565b610445565b60405190151581526020015b60405180910390f35b61016161015c3660046113e7565b61047c565b604051610145929190600061012082019050831515825260018060a01b038084511660208401526020840151604084015260408401516060840152806060850151166080840152608084015160a08401528060a08501511660c08401525060c083015160e083015260e08301516101008301529392505050565b6101fe6101e93660046113e7565b60009081526002602052604090206001015490565b604051908152602001610145565b61021f61021a366004611415565b61056f565b005b61021f61022f366004611415565b610599565b6101fe610242366004611445565b61061c565b6101fe7fea277b8a9eb87d65aefea2adb6823a8093abbd97c8ef2b39c4bae961b3657c5e81565b61013961027c3660046114d2565b600460209081526000928352604080842090915290825290205460ff1681565b61021f6102aa3660046113e7565b6109a0565b6101fe6102bd3660046113e7565b60056020526000908152604090205481565b6102d7610a59565b604051610145979695949392919061154e565b6101fe6102f83660046115e4565b610ae1565b61035f61030b3660046113e7565b6006602081905260009182526040909120805460018201546002830154600384015460048501546005860154968601546007909601546001600160a01b039586169794969395928316949193919092169188565b604080516001600160a01b03998a16815260208101989098528701959095529286166060860152608085019190915290931660a083015260c082019290925260e081019190915261010001610145565b6101396103bd366004611415565b610b23565b6101fe600081565b6101fe7f52ba824bfabc2bcfcdf7f0edbb486ebb05e1836c90e78047efeb949990f72e5f81565b6101396103ff3660046114d2565b6001600160a01b03919091166000908152600460209081526040808320938352929052205460ff1690565b61021f610438366004611415565b610b4e565b6101fe610b73565b60006001600160e01b03198216637965db0b60e01b148061047657506301ffc9a760e01b6001600160e01b03198316145b92915050565b604080516101008101825260008082526020808301829052828401829052606083018290526080830182905260a0830182905260c0830182905260e0830182905284825260059052918220548083036104d9576000925050915091565b60008481526006602081815260409283902083516101008101855281546001600160a01b03908116825260018301549382019390935260028201549481019490945260038101548216606085015260048101546080850152600581015490911660a08401529081015460c08301526007015460e082018190529092504210610565576000925050915091565b6001925050915091565b60008281526002602052604090206001015461058a81610b82565b6105948383610b8f565b505050565b6001600160a01b038116331461060e5760405162461bcd60e51b815260206004820152602f60248201527f416363657373436f6e74726f6c3a2063616e206f6e6c792072656e6f756e636560448201526e103937b632b9903337b91039b2b63360891b60648201526084015b60405180910390fd5b6106188282610c15565b5050565b6000610626610c7c565b8360e00135421061066a5760405162461bcd60e51b815260206004820152600e60248201526d125b9d195b9d08195e1c1a5c995960921b6044820152606401610605565b6004600061067b60208701876115e4565b6001600160a01b031681526020808201929092526040908101600090812060c0880135825290925290205460ff16156106eb5760405162461bcd60e51b8152602060048201526012602482015271139bdb98d948185b1c9958591e481d5cd95960721b6044820152606401610605565b6107c37fea277b8a9eb87d65aefea2adb6823a8093abbd97c8ef2b39c4bae961b3657c5e61071c60208701876115e4565b6020870135604088013561073660808a0160608b016115e4565b60808a013561074b60c08c0160a08d016115e4565b6040805160208101989098526001600160a01b039687169088015260608701949094526080860192909252831660a085015260c084810191909152911660e083810191909152908701356101008301528601356101208201526101400160405160208183030381529060405280519060200120610cd5565b905060006108078285858080601f016020809104026020016040519081016040528093929190818152602001838380828437600092019190915250610d0292505050565b905061081660208601866115e4565b6001600160a01b0316816001600160a01b03161461086a5760405162461bcd60e51b8152602060048201526011602482015270496e76616c6964207369676e617475726560781b6044820152606401610605565b60016004600061087d60208901896115e4565b6001600160a01b031681526020808201929092526040908101600090812060c08a013582528352818120805460ff191694151594909417909355848352600582528083204290556006909152902085906108d7828261162e565b506108e7905060208601866115e4565b6001600160a01b0316827fd60d36bb7274b20804026e6b7e67634ce344fce1ad1c6b29704e1daf126bf4b56020880135604089013561092c60808b0160608c016115e4565b60808b013561094160c08d0160a08e016115e4565b6040805195865260208601949094526001600160a01b0392831693850193909352606084015216608082015260c0808a013560a083015260e0808b0135918301919091520160405180910390a3506109996001600355565b9392505050565b7f52ba824bfabc2bcfcdf7f0edbb486ebb05e1836c90e78047efeb949990f72e5f6109ca81610b82565b6000828152600560205260408120549003610a1a5760405162461bcd60e51b815260206004820152601060248201526f125b9d195b9d081b9bdd08199bdd5b9960821b6044820152606401610605565b60008281526005602052604080822082905551339184917f1408bd9a6e6ac1e782a8780a8d173b72dff516f8deb1cf14209f043d74d7f8849190a35050565b600060608082808083610a8c7f000000000000000000000000000000000000000000000000000000000000000083610d26565b610ab77f00000000000000000000000000000000000000000000000000000000000000006001610d26565b60408051600080825260208201909252600f60f81b9b939a50919850469750309650945092509050565b6000805b6001600160a01b038316600090815260046020908152604080832084845290915290205460ff16156104765780610b1b816116da565b915050610ae5565b60009182526002602090815260408084206001600160a01b0393909316845291905290205460ff1690565b600082815260026020526040902060010154610b6981610b82565b6105948383610c15565b6000610b7d610dd1565b905090565b610b8c8133610efc565b50565b610b998282610b23565b6106185760008281526002602090815260408083206001600160a01b03851684529091529020805460ff19166001179055610bd13390565b6001600160a01b0316816001600160a01b0316837f2f8788117e7eff1d82e926ec794901d17c78024a50270940304540a733656f0d60405160405180910390a45050565b610c1f8282610b23565b156106185760008281526002602090815260408083206001600160a01b0385168085529252808320805460ff1916905551339285917ff6391f5c32d9c69d2a47ea670b442974b53935d1edc7fd64eb21e047a839171b9190a45050565b600260035403610cce5760405162461bcd60e51b815260206004820152601f60248201527f5265656e7472616e637947756172643a207265656e7472616e742063616c6c006044820152606401610605565b6002600355565b6000610476610ce2610dd1565b8360405161190160f01b8152600281019290925260228201526042902090565b6000806000610d118585610f55565b91509150610d1e81610f9a565b509392505050565b606060ff8314610d4057610d39836110e4565b9050610476565b818054610d4c906116f3565b80601f0160208091040260200160405190810160405280929190818152602001828054610d78906116f3565b8015610dc55780601f10610d9a57610100808354040283529160200191610dc5565b820191906000526020600020905b815481529060010190602001808311610da857829003601f168201915b50505050509050610476565b6000306001600160a01b037f000000000000000000000000000000000000000000000000000000000000000016148015610e2a57507f000000000000000000000000000000000000000000000000000000000000000046145b15610e5457507f000000000000000000000000000000000000000000000000000000000000000090565b610b7d604080517f8b73c3c69bb8fe3d512ecc4cf759cc79239f7b179b0ffacaa9a75d522b39400f60208201527f0000000000000000000000000000000000000000000000000000000000000000918101919091527f000000000000000000000000000000000000000000000000000000000000000060608201524660808201523060a082015260009060c00160405160208183030381529060405280519060200120905090565b610f068282610b23565b61061857610f1381611123565b610f1e836020611135565b604051602001610f2f92919061172d565b60408051601f198184030181529082905262461bcd60e51b8252610605916004016117a2565b6000808251604103610f8b5760208301516040840151606085015160001a610f7f878285856112d1565b94509450505050610f93565b506000905060025b9250929050565b6000816004811115610fae57610fae6117b5565b03610fb65750565b6001816004811115610fca57610fca6117b5565b036110175760405162461bcd60e51b815260206004820152601860248201527f45434453413a20696e76616c6964207369676e617475726500000000000000006044820152606401610605565b600281600481111561102b5761102b6117b5565b036110785760405162461bcd60e51b815260206004820152601f60248201527f45434453413a20696e76616c6964207369676e6174757265206c656e677468006044820152606401610605565b600381600481111561108c5761108c6117b5565b03610b8c5760405162461bcd60e51b815260206004820152602260248201527f45434453413a20696e76616c6964207369676e6174757265202773272076616c604482015261756560f01b6064820152608401610605565b606060006110f183611395565b604080516020808252818301909252919250600091906020820181803683375050509182525060208101929092525090565b60606104766001600160a01b03831660145b606060006111448360026117cb565b61114f9060026117e2565b67ffffffffffffffff811115611167576111676116ae565b6040519080825280601f01601f191660200182016040528015611191576020820181803683370190505b509050600360fc1b816000815181106111ac576111ac6117f5565b60200101906001600160f81b031916908160001a905350600f60fb1b816001815181106111db576111db6117f5565b60200101906001600160f81b031916908160001a90535060006111ff8460026117cb565b61120a9060016117e2565b90505b6001811115611282576f181899199a1a9b1b9c1cb0b131b232b360811b85600f166010811061123e5761123e6117f5565b1a60f81b828281518110611254576112546117f5565b60200101906001600160f81b031916908160001a90535060049490941c9361127b8161180b565b905061120d565b5083156109995760405162461bcd60e51b815260206004820181905260248201527f537472696e67733a20686578206c656e67746820696e73756666696369656e746044820152606401610605565b6000807f7fffffffffffffffffffffffffffffff5d576e7357a4501ddfe92f46681b20a0831115611308575060009050600361138c565b6040805160008082526020820180845289905260ff881692820192909252606081018690526080810185905260019060a0016020604051602081039080840390855afa15801561135c573d6000803e3d6000fd5b5050604051601f1901519150506001600160a01b0381166113855760006001925092505061138c565b9150600090505b94509492505050565b600060ff8216601f81111561047657604051632cd44ac360e21b815260040160405180910390fd5b6000602082840312156113cf57600080fd5b81356001600160e01b03198116811461099957600080fd5b6000602082840312156113f957600080fd5b5035919050565b6001600160a01b0381168114610b8c57600080fd5b6000806040838503121561142857600080fd5b82359150602083013561143a81611400565b809150509250929050565b600080600083850361012081121561145c57600080fd5b6101008082121561146c57600080fd5b859450840135905067ffffffffffffffff8082111561148a57600080fd5b818601915086601f83011261149e57600080fd5b8135818111156114ad57600080fd5b8760208285010111156114bf57600080fd5b6020830194508093505050509250925092565b600080604083850312156114e557600080fd5b82356114f081611400565b946020939093013593505050565b60005b83811015611519578181015183820152602001611501565b50506000910152565b6000815180845261153a8160208601602086016114fe565b601f01601f19169290920160200192915050565b60ff60f81b881681526000602060e08184015261156e60e084018a611522565b8381036040850152611580818a611522565b606085018990526001600160a01b038816608086015260a0850187905284810360c0860152855180825283870192509083019060005b818110156115d2578351835292840192918401916001016115b6565b50909c9b505050505050505050505050565b6000602082840312156115f657600080fd5b813561099981611400565b6000813561047681611400565b80546001600160a01b0319166001600160a01b0392909216919091179055565b813561163981611400565b611643818361160e565b506020820135600182015560408201356002820155606082013561166681611400565b611673816003840161160e565b506080820135600482015561169661168d60a08401611601565b6005830161160e565b60c0820135600682015560e082013560078201555050565b634e487b7160e01b600052604160045260246000fd5b634e487b7160e01b600052601160045260246000fd5b6000600182016116ec576116ec6116c4565b5060010190565b600181811c9082168061170757607f821691505b60208210810361172757634e487b7160e01b600052602260045260246000fd5b50919050565b7f416363657373436f6e74726f6c3a206163636f756e74200000000000000000008152600083516117658160178501602088016114fe565b7001034b99036b4b9b9b4b733903937b6329607d1b60179184019182015283516117968160288401602088016114fe565b01602801949350505050565b6020815260006109996020830184611522565b634e487b7160e01b600052602160045260246000fd5b8082028115828204841417610476576104766116c4565b80820180821115610476576104766116c4565b634e487b7160e01b600052603260045260246000fd5b60008161181a5761181a6116c4565b50600019019056fea26469706673582212203ff5d73907076b48008cdb0be733321d3ebb2da0a38b89297793fdbaa0e111c364736f6c63430008140033",
  "linkReferences": {},
  "deployedLinkReferences": {}
}