{
  "_format": "hh-sol-artifact-1",
  "contractName": "BridgeStaking",
  "sourceName": "contracts/BridgeStaking.sol",
  "abi": [
    {
      "inputs": [
        {
          "internalType": "address",
          "name": "_stakingToken",
          "type": "address"
        }
      ],
      "stateMutability": "nonpayable",
      "type": "constructor"
    },
    {
      "inputs": [
        {
          "internalType": "address",
          "name": "owner",
          "type": "address"
        }
      ],
      "name": "OwnableInvalidOwner",
      "type": "error"
    },
    {
      "inputs": [
        {
          "internalType": "address",
          "name": "account",
          "type": "address"
        }
      ],
      "name": "OwnableUnauthorizedAccount",
      "type": "error"
    },
    {
      "inputs": [],
      "name": "ReentrancyGuardReentrantCall",
      "type": "error"
    },
    {
      "inputs": [
        {
          "internalType": "address",
          "name": "token",
          "type": "address"
        }
      ],
      "name": "SafeERC20FailedOperation",
      "type": "error"
    },
    {
      "anonymous": false,
      "inputs": [
        {
          "indexed": true,
          "internalType": "address",
          "name": "oldBridge",
          "type": "address"
        },
        {
          "indexed": true,
          "internalType": "address",
          "name": "newBridge",
          "type": "address"
        }
      ],
      "name": "BridgeUpdated",
      "type": "event"
    },
    {
      "anonymous": false,
      "inputs": [
        {
          "indexed": true,
          "internalType": "address",
          "name": "previousOwner",
          "type": "address"
        },
        {
          "indexed": true,
          "internalType": "address",
          "name": "newOwner",
          "type": "address"
        }
      ],
      "name": "OwnershipTransferred",
      "type": "event"
    },
    {
      "anonymous": false,
      "inputs": [
        {
          "indexed": true,
          "internalType": "address",
          "name": "validator",
          "type": "address"
        },
        {
          "indexed": false,
          "internalType": "uint256",
          "name": "amount",
          "type": "uint256"
        },
        {
          "indexed": true,
          "internalType": "address",
          "name": "slasher",
          "type": "address"
        }
      ],
      "name": "Slashed",
      "type": "event"
    },
    {
      "anonymous": false,
      "inputs": [
        {
          "indexed": true,
          "internalType": "address",
          "name": "validator",
          "type": "address"
        },
        {
          "indexed": false,
          "internalType": "uint256",
          "name": "amount",
          "type": "uint256"
        },
        {
          "indexed": false,
          "internalType": "uint256",
          "name": "totalStaked",
          "type": "uint256"
        }
      ],
      "name": "Staked",
      "type": "event"
    },
    {
      "anonymous": false,
      "inputs": [
        {
          "indexed": true,
          "internalType": "address",
          "name": "validator",
          "type": "address"
        },
        {
          "indexed": false,
          "internalType": "uint256",
          "name": "amount",
          "type": "uint256"
        },
        {
          "indexed": false,
          "internalType": "uint256",
          "name": "unlockTime",
          "type": "uint256"
        }
      ],
      "name": "UnstakeRequested",
      "type": "event"
    },
    {
      "anonymous": false,
      "inputs": [
        {
          "indexed": true,
          "internalType": "address",
          "name": "validator",
          "type": "address"
        }
      ],
      "name": "ValidatorActivated",
      "type": "event"
    },
    {
      "anonymous": false,
      "inputs": [
        {
          "indexed": true,
          "internalType": "address",
          "name": "validator",
          "type": "address"
        }
      ],
      "name": "ValidatorDeactivated",
      "type": "event"
    },
    {
      "anonymous": false,
      "inputs": [
        {
          "indexed": true,
          "internalType": "address",
          "name": "validator",
          "type": "address"
        },
        {
          "indexed": false,
          "internalType": "uint256",
          "name": "amount",
          "type": "uint256"
        }
      ],
      "name": "Withdrawn",
      "type": "event"
    },
    {
      "inputs": [],
      "name": "COOLDOWN_PERIOD",
      "outputs": [
        {
          "internalType": "uint256",
          "name": "",
          "type": "uint256"
        }
      ],
      "stateMutability": "view",
      "type": "function"
    },
    {
      "inputs": [],
      "name": "MINIMUM_STAKE",
      "outputs": [
        {
          "internalType": "uint256",
          "name": "",
          "type": "uint256"
        }
      ],
      "stateMutability": "view",
      "type": "function"
    },
    {
      "inputs": [],
      "name": "SLASH_PERCENTAGE",
      "outputs": [
        {
          "internalType": "uint256",
          "name": "",
          "type": "uint256"
        }
      ],
      "stateMutability": "view",
      "type": "function"
    },
    {
      "inputs": [],
      "name": "bridge",
      "outputs": [
        {
          "internalType": "address",
          "name": "",
          "type": "address"
        }
      ],
      "stateMutability": "view",
      "type": "function"
    },
    {
      "inputs": [],
      "name": "cancelUnstake",
      "outputs": [],
      "stateMutability": "nonpayable",
      "type": "function"
    },
    {
      "inputs": [],
      "name": "getActiveValidators",
      "outputs": [
        {
          "internalType": "address[]",
          "name": "",
          "type": "address[]"
        }
      ],
      "stateMutability": "view",
      "type": "function"
    },
    {
      "inputs": [
        {
          "internalType": "address",
          "name": "account",
          "type": "address"
        }
      ],
      "name": "getPendingUnstake",
      "outputs": [
        {
          "internalType": "uint256",
          "name": "amount",
          "type": "uint256"
        },
        {
          "internalType": "uint256",
          "name": "unlockTime",
          "type": "uint256"
        }
      ],
      "stateMutability": "view",
      "type": "function"
    },
    {
      "inputs": [
        {
          "internalType": "address",
          "name": "account",
          "type": "address"
        }
      ],
      "name": "getStake",
      "outputs": [
        {
          "internalType": "uint256",
          "name": "",
          "type": "uint256"
        }
      ],
      "stateMutability": "view",
      "type": "function"
    },
    {
      "inputs": [],
      "name": "getValidatorCount",
      "outputs": [
        {
          "internalType": "uint256",
          "name": "",
          "type": "uint256"
        }
      ],
      "stateMutability": "view",
      "type": "function"
    },
    {
      "inputs": [
        {
          "internalType": "address",
          "name": "account",
          "type": "address"
        }
      ],
      "name": "isActiveValidator",
      "outputs": [
        {
          "internalType": "bool",
          "name": "",
          "type": "bool"
        }
      ],
      "stateMutability": "view",
      "type": "function"
    },
    {
      "inputs": [],
      "name": "owner",
      "outputs": [
        {
          "internalType": "address",
          "name": "",
          "type": "address"
        }
      ],
      "stateMutability": "view",
      "type": "function"
    },
    {
      "inputs": [],
      "name": "renounceOwnership",
      "outputs": [],
      "stateMutability": "nonpayable",
      "type": "function"
    },
    {
      "inputs": [
        {
          "internalType": "uint256",
          "name": "amount",
          "type": "uint256"
        }
      ],
      "name": "requestUnstake",
      "outputs": [],
      "stateMutability": "nonpayable",
      "type": "function"
    },
    {
      "inputs": [
        {
          "internalType": "address",
          "name": "_bridge",
          "type": "address"
        }
      ],
      "name": "setBridge",
      "outputs": [],
      "stateMutability": "nonpayable",
      "type": "function"
    },
    {
      "inputs": [
        {
          "internalType": "address",
          "name": "validator",
          "type": "address"
        },
        {
          "internalType": "address",
          "name": "challenger",
          "type": "address"
        }
      ],
      "name": "slash",
      "outputs": [
        {
          "internalType": "uint256",
          "name": "slashedAmount",
          "type": "uint256"
        }
      ],
      "stateMutability": "nonpayable",
      "type": "function"
    },
    {
      "inputs": [
        {
          "internalType": "uint256",
          "name": "amount",
          "type": "uint256"
        }
      ],
      "name": "stake",
      "outputs": [],
      "stateMutability": "nonpayable",
      "type": "function"
    },
    {
      "inputs": [],
      "name": "stakingToken",
      "outputs": [
        {
          "internalType": "contract IERC20",
          "name": "",
          "type": "address"
        }
      ],
      "stateMutability": "view",
      "type": "function"
    },
    {
      "inputs": [],
      "name": "totalStaked",
      "outputs": [
        {
          "internalType": "uint256",
          "name": "",
          "type": "uint256"
        }
      ],
      "stateMutability": "view",
      "type": "function"
    },
    {
      "inputs": [
        {
          "internalType": "address",
          "name": "newOwner",
          "type": "address"
        }
      ],
      "name": "transferOwnership",
      "outputs": [],
      "stateMutability": "nonpayable",
      "type": "function"
    },
    {
      "inputs": [
        {
          "internalType": "uint256",
          "name": "",
          "type": "uint256"
        }
      ],
      "name": "validatorList",
      "outputs": [
        {
          "internalType": "address",
          "name": "",
          "type": "address"
        }
      ],
      "stateMutability": "view",
      "type": "function"
    },
    {
      "inputs": [
        {
          "internalType": "address",
          "name": "",
          "type": "address"
        }
      ],
      "name": "validators",
      "outputs": [
        {
          "internalType": "uint256",
          "name": "stakedAmount",
          "type": "uint256"
        },
        {
          "internalType": "uint256",
          "name": "unstakeRequestTime",
          "type": "uint256"
        },
        {
          "internalType": "uint256",
          "name": "unstakeAmount",
          "type": "uint256"
        },
        {
          "internalType": "bool",
          "name": "isActive",
          "type": "bool"
        }
      ],
      "stateMutability": "view",
      "type": "function"
    },
    {
      "inputs": [],
      "name": "withdraw",
      "outputs": [],
      "stateMutability": "nonpayable",
      "type": "function"
    }
  ],
  "bytecode": "0x60a060405234801561001057600080fd5b506040516113b23803806113b283398101604081905261002f9161011b565b338061005657604051631e4fbdf760e01b8152600060048201526024015b60405180910390fd5b61005f816100cb565b50600180556001600160a01b0381166100ba5760405162461bcd60e51b815260206004820152601560248201527f496e76616c696420746f6b656e20616464726573730000000000000000000000604482015260640161004d565b6001600160a01b031660805261014b565b600080546001600160a01b038381166001600160a01b0319831681178455604051919092169283917f8be0079c531659141344cd1fd0a4f28419497f9722a3daafe3b4186f6b6457e09190a35050565b60006020828403121561012d57600080fd5b81516001600160a01b038116811461014457600080fd5b9392505050565b60805161123761017b60003960008181610217015281816106e50152818161099b0152610d2801526112376000f3fe608060405234801561001057600080fd5b50600436106101425760003560e01c80637aeccce9116100b85780639f29f1351161007c5780639f29f135146102cf578063a694fc3a146102d7578063b048e056146102ea578063e78cea92146102fd578063f2fde38b14610310578063fa52c7d81461032357600080fd5b80637aeccce91461027a578063817b1cd21461028d5780638da5cb5b146102965780638dd14802146102a75780639de70258146102ba57600080fd5b80634ab179691161010a5780634ab17969146101f05780636e99d52f146101f85780637071688a14610202578063715018a61461020a57806372f702f3146102125780637a7664601461025157600080fd5b806308dbbb0314610147578063230957211461016b5780632f54fe72146101805780633ccfd60b146101a857806340550a1c146101b0575b600080fd5b61015869021e19e0c9bab240000081565b6040519081526020015b60405180910390f35b61017e610179366004611070565b61037f565b005b61019361018e3660046110a5565b61059d565b60408051928352602083019190915201610162565b61017e6105db565b6101e06101be3660046110a5565b6001600160a01b03166000908152600360208190526040909120015460ff1690565b6040519015158152602001610162565b61017e61074e565b61015862093a8081565b600454610158565b61017e610814565b6102397f000000000000000000000000000000000000000000000000000000000000000081565b6040516001600160a01b039091168152602001610162565b61015861025f3660046110a5565b6001600160a01b031660009081526003602052604090205490565b6101586102883660046110c7565b610826565b61015860055481565b6000546001600160a01b0316610239565b61017e6102b53660046110a5565b610a1f565b6102c2610ac8565b60405161016291906110fa565b610158603281565b61017e6102e5366004611070565b610c5d565b6102396102f8366004611070565b610e50565b600254610239906001600160a01b031681565b61017e61031e3660046110a5565b610e7a565b61035d6103313660046110a5565b600360208190526000918252604090912080546001820154600283015492909301549092919060ff1684565b6040805194855260208501939093529183015215156060820152608001610162565b336000908152600360208190526040909120015460ff166103e75760405162461bcd60e51b815260206004820152601760248201527f4e6f7420616e206163746976652076616c696461746f7200000000000000000060448201526064015b60405180910390fd5b6103ef610eb5565b336000908152600360205260409020816104405760405162461bcd60e51b81526020600482015260126024820152710416d6f756e74206d757374206265203e20360741b60448201526064016103de565b80548211156104865760405162461bcd60e51b8152602060048201526012602482015271496e73756666696369656e74207374616b6560701b60448201526064016103de565b805460009061049690849061115d565b905080156104f85769021e19e0c9bab24000008110156104f85760405162461bcd60e51b815260206004820152601860248201527f576f756c642064726f702062656c6f77206d696e696d756d000000000000000060448201526064016103de565b4260018301556002820183905560008190036105465760038201805460ff1916905560405133907f23d934bfe7f1275bc6fd70432159c9cc1c0075d069f89da6a40f43bfe7a94ed390600090a25b337f57e41df54512c76148b5ba9b643d149752b0d35e493b969bd017d0a3fe5228cf8461057662093a8042611170565b604080519283526020830191909152015b60405180910390a2505061059a60018055565b50565b6001600160a01b038116600090815260036020526040812060028101546001820154839291906105d19062093a8090611170565b9250925050915091565b6105e3610eb5565b33600090815260036020526040902060028101546106385760405162461bcd60e51b81526020600482015260126024820152714e6f2070656e64696e6720756e7374616b6560701b60448201526064016103de565b62093a80816001015461064b9190611170565b4210156106925760405162461bcd60e51b8152602060048201526015602482015274436f6f6c646f776e206e6f7420636f6d706c65746560581b60448201526064016103de565b60028101548154819083906000906106ab90849061115d565b909155505060006002830181905560018301819055600580548392906106d290849061115d565b9091555061070c90506001600160a01b037f0000000000000000000000000000000000000000000000000000000000000000163383610edf565b60405181815233907f7084f5476618d8e60b11ef0d7d3f06914655adb8793e28ff7f018d4c76d505d59060200160405180910390a2505061074c60018055565b565b33600090815260036020526040902060028101546107a35760405162461bcd60e51b81526020600482015260126024820152714e6f2070656e64696e6720756e7374616b6560701b60448201526064016103de565b600381015460ff161580156107c35750805469021e19e0c9bab240000011155b156108035760038101805460ff1916600117905560405133907fb2b8c5f713f27009f7a78ec2167999c472e5ee8bc591102da17bc4a6551236c890600090a25b600060028201819055600190910155565b61081c610f43565b61074c6000610f70565b6002546000906001600160a01b0316331461087a5760405162461bcd60e51b815260206004820152601460248201527313db9b1e48189c9a5919d94818d85b8818d85b1b60621b60448201526064016103de565b610882610eb5565b6001600160a01b038316600090815260036020526040902080546108dc5760405162461bcd60e51b815260206004820152601160248201527009cde40e6e8c2d6ca40e8de40e6d8c2e6d607b1b60448201526064016103de565b80546064906108ed90603290611183565b6108f7919061119a565b91508181600001600082825461090d919061115d565b925050819055508160056000828254610926919061115d565b9091555050805469021e19e0c9bab2400000111561097f5760038101805460ff191690556040516001600160a01b038516907f23d934bfe7f1275bc6fd70432159c9cc1c0075d069f89da6a40f43bfe7a94ed390600090a25b6001600160a01b038316156109c2576109c26001600160a01b037f0000000000000000000000000000000000000000000000000000000000000000168484610edf565b826001600160a01b0316846001600160a01b03167fd87c3348a79019696e9b472cb0efe979015741dd3a1c95f43cc26dd1ace903c084604051610a0791815260200190565b60405180910390a350610a1960018055565b92915050565b610a27610f43565b6001600160a01b038116610a765760405162461bcd60e51b8152602060048201526016602482015275496e76616c696420627269646765206164647265737360501b60448201526064016103de565b600280546001600160a01b038381166001600160a01b0319831681179093556040519116919082907faae9beddccf584528e87b66c6ff2563825c8a1433305b8a656e9b5f9bf39049990600090a35050565b60606000805b600454811015610b3f576003600060048381548110610aef57610aef6111bc565b60009182526020808320909101546001600160a01b0316835282019290925260400190206003015460ff1615610b2d5781610b29816111d2565b9250505b80610b37816111d2565b915050610ace565b5060008167ffffffffffffffff811115610b5b57610b5b6111eb565b604051908082528060200260200182016040528015610b84578160200160208202803683370190505b5090506000805b600454811015610c54576003600060048381548110610bac57610bac6111bc565b60009182526020808320909101546001600160a01b0316835282019290925260400190206003015460ff1615610c425760048181548110610bef57610bef6111bc565b6000918252602090912001546001600160a01b03168383610c0f816111d2565b945081518110610c2157610c216111bc565b60200260200101906001600160a01b031690816001600160a01b0316815250505b80610c4c816111d2565b915050610b8b565b50909392505050565b610c65610eb5565b60008111610caa5760405162461bcd60e51b81526020600482015260126024820152710416d6f756e74206d757374206265203e20360741b60448201526064016103de565b3360009081526003602052604081208054909190610cc9908490611170565b905069021e19e0c9bab2400000811015610d1b5760405162461bcd60e51b815260206004820152601360248201527242656c6f77206d696e696d756d207374616b6560681b60448201526064016103de565b610d506001600160a01b037f000000000000000000000000000000000000000000000000000000000000000016333086610fc0565b8154600003610d9c57600480546001810182556000919091527f8a35acfbc15ff81a39ae7d344fd709f28e8600b4aa8c65c6b64bfe7fe36bd19b0180546001600160a01b031916331790555b80825560058054849190600090610db4908490611170565b9091555050600382015460ff16158015610dd8575069021e19e0c9bab24000008110155b15610e185760038201805460ff1916600117905560405133907fb2b8c5f713f27009f7a78ec2167999c472e5ee8bc591102da17bc4a6551236c890600090a25b604080518481526020810183905233917f1449c6dd7851abc30abf37f57715f492010519147cc2652fbc38202c18a6ee909101610587565b60048181548110610e6057600080fd5b6000918252602090912001546001600160a01b0316905081565b610e82610f43565b6001600160a01b038116610eac57604051631e4fbdf760e01b8152600060048201526024016103de565b61059a81610f70565b600260015403610ed857604051633ee5aeb560e01b815260040160405180910390fd5b6002600155565b6040516001600160a01b03838116602483015260448201839052610f3e91859182169063a9059cbb906064015b604051602081830303815290604052915060e01b6020820180516001600160e01b038381831617835250505050610fff565b505050565b6000546001600160a01b0316331461074c5760405163118cdaa760e01b81523360048201526024016103de565b600080546001600160a01b038381166001600160a01b0319831681178455604051919092169283917f8be0079c531659141344cd1fd0a4f28419497f9722a3daafe3b4186f6b6457e09190a35050565b6040516001600160a01b038481166024830152838116604483015260648201839052610ff99186918216906323b872dd90608401610f0c565b50505050565b600080602060008451602086016000885af180611022576040513d6000823e3d81fd5b50506000513d9150811561103a578060011415611047565b6001600160a01b0384163b155b15610ff957604051635274afe760e01b81526001600160a01b03851660048201526024016103de565b60006020828403121561108257600080fd5b5035919050565b80356001600160a01b03811681146110a057600080fd5b919050565b6000602082840312156110b757600080fd5b6110c082611089565b9392505050565b600080604083850312156110da57600080fd5b6110e383611089565b91506110f160208401611089565b90509250929050565b6020808252825182820181905260009190848201906040850190845b8181101561113b5783516001600160a01b031683529284019291840191600101611116565b50909695505050505050565b634e487b7160e01b600052601160045260246000fd5b81810381811115610a1957610a19611147565b80820180821115610a1957610a19611147565b8082028115828204841417610a1957610a19611147565b6000826111b757634e487b7160e01b600052601260045260246000fd5b500490565b634e487b7160e01b600052603260045260246000fd5b6000600182016111e4576111e4611147565b5060010190565b634e487b7160e01b600052604160045260246000fdfea26469706673582212208f61397f8ba5b20f6af9bb9ad27e034ab8fcdfd4e7e783d8eedd24bd91c5974564736f6c63430008140033",
  "linkReferences": {},
  "deployedLinkReferences": {}
}