{
  "_format": "hh-sol-artifact-1",
  "contractName": "VCNAccountFactory",
  "sourceName": "contracts/VCNAccountFactory.sol",
  "abi": [
    {
      "inputs": [
        {
          "internalType": "contract IEntryPoint",
          "name": "_entryPoint",
          "type": "address"
        }
      ],
      "stateMutability": "nonpayable",
      "type": "constructor"
    },
    {
      "inputs": [],
      "name": "accountImplementation",
      "outputs": [
        {
          "internalType": "contract VCNAccount",
          "name": "",
          "type": "address"
        }
      ],
      "stateMutability": "view",
      "type": "function"
    },
    {
      "inputs": [
        {
          "internalType": "address",
          "name": "owner",
          "type": "address"
        },
        {
          "internalType": "uint256",
          "name": "salt",
          "type": "uint256"
        }
      ],
      "name": "createAccount",
      "outputs": [
        {
          "internalType": "contract VCNAccount",
          "name": "",
          "type": "address"
        }
      ],
      "stateMutability": "nonpayable",
      "type": "function"
    },
    {
      "inputs": [
        {
          "internalType": "address",
          "name": "owner",
          "type": "address"
        },
        {
          "internalType": "uint256",
          "name": "salt",
          "type": "uint256"
        }
      ],
      "name": "getAddress",
      "outputs": [
        {
          "internalType": "address",
          "name": "",
          "type": "address"
        }
      ],
      "stateMutability": "view",
      "type": "function"
    }
  ],
  "bytecode": "0x60a060405234801561001057600080fd5b5060405161250338038061250383398101604081905261002f91610088565b8060405161003c9061007b565b6001600160a01b039091168152602001604051809103906000f080158015610068573d6000803e3d6000fd5b506001600160a01b0316608052506100b8565b611b7f8061098483390190565b60006020828403121561009a57600080fd5b81516001600160a01b03811681146100b157600080fd5b9392505050565b6080516108a56100df60003960008181604b0152818160f001526101be01526108a56000f3fe608060405234801561001057600080fd5b50600436106100415760003560e01c806311464fbe146100465780635fbfb9cf146100895780638cb84e181461009c575b600080fd5b61006d7f000000000000000000000000000000000000000000000000000000000000000081565b6040516001600160a01b03909116815260200160405180910390f35b61006d6100973660046102c1565b6100af565b61006d6100aa3660046102c1565b61017f565b6000806100bc848461017f565b90506001600160a01b0381163b80156100d757509050610179565b6040516001600160a01b038616602482015260009085907f00000000000000000000000000000000000000000000000000000000000000009060440160408051601f198184030181529181526020820180516001600160e01b031663189acdbd60e31b17905251610147906102b4565b61015292919061031d565b8190604051809103906000f5905080158015610172573d6000803e3d6000fd5b5093505050505b92915050565b600060ff60f81b308360405180602001610198906102b4565b601f1982820381018352601f9091011660408190526001600160a01b03881660248201527f00000000000000000000000000000000000000000000000000000000000000009060440160408051601f19818403018152918152602080830180516001600160e01b031663189acdbd60e31b179052905161021a9392910161031d565b60408051601f1981840301815290829052610238929160200161035f565b6040516020818303038152906040528051906020012060405160200161029594939291906001600160f81b031994909416845260609290921b6bffffffffffffffffffffffff191660018401526015830152603582015260550190565b60408051601f1981840301815291905280516020909101209392505050565b6104e18061038f83390190565b600080604083850312156102d457600080fd5b82356001600160a01b03811681146102eb57600080fd5b946020939093013593505050565b60005b838110156103145781810151838201526020016102fc565b50506000910152565b60018060a01b0383168152604060208201526000825180604084015261034a8160608501602087016102f9565b601f01601f1916919091016060019392505050565b600083516103718184602088016102f9565b8351908301906103858183602088016102f9565b0194935050505056fe60806040526040516104e13803806104e1833981016040819052610022916102de565b61002e82826000610035565b50506103fb565b61003e83610061565b60008251118061004b5750805b1561005c5761005a83836100a1565b505b505050565b61006a816100cd565b6040516001600160a01b038216907fbc7cd75a20ee27fd9adebab32041f755214dbc6bffa90cc0225b39da2e5c2d3b90600090a250565b60606100c683836040518060600160405280602781526020016104ba60279139610180565b9392505050565b6001600160a01b0381163b61013f5760405162461bcd60e51b815260206004820152602d60248201527f455243313936373a206e657720696d706c656d656e746174696f6e206973206e60448201526c1bdd08184818dbdb9d1c9858dd609a1b60648201526084015b60405180910390fd5b7f360894a13ba1a3210667c828492db98dca3e2076cc3735a920a3ca505d382bbc80546001600160a01b0319166001600160a01b0392909216919091179055565b6060600080856001600160a01b03168560405161019d91906103ac565b600060405180830381855af49150503d80600081146101d8576040519150601f19603f3d011682016040523d82523d6000602084013e6101dd565b606091505b5090925090506101ef868383876101f9565b9695505050505050565b60608315610268578251600003610261576001600160a01b0385163b6102615760405162461bcd60e51b815260206004820152601d60248201527f416464726573733a2063616c6c20746f206e6f6e2d636f6e74726163740000006044820152606401610136565b5081610272565b610272838361027a565b949350505050565b81511561028a5781518083602001fd5b8060405162461bcd60e51b815260040161013691906103c8565b634e487b7160e01b600052604160045260246000fd5b60005b838110156102d55781810151838201526020016102bd565b50506000910152565b600080604083850312156102f157600080fd5b82516001600160a01b038116811461030857600080fd5b60208401519092506001600160401b038082111561032557600080fd5b818501915085601f83011261033957600080fd5b81518181111561034b5761034b6102a4565b604051601f8201601f19908116603f01168101908382118183101715610373576103736102a4565b8160405282815288602084870101111561038c57600080fd5b61039d8360208301602088016102ba565b80955050505050509250929050565b600082516103be8184602087016102ba565b9190910192915050565b60208152600082518060208401526103e78160408501602087016102ba565b601f01601f19169190910160400192915050565b60b1806104096000396000f3fe608060405236601057600e6013565b005b600e5b601f601b6021565b6058565b565b600060537f360894a13ba1a3210667c828492db98dca3e2076cc3735a920a3ca505d382bbc546001600160a01b031690565b905090565b3660008037600080366000845af43d6000803e8080156076573d6000f35b3d6000fdfea264697066735822122004eafc12009ddd1bac09a0fbcdbbc0e38fdd09caf7f585983e4d324fd8f99a7364736f6c63430008140033416464726573733a206c6f772d6c6576656c2064656c65676174652063616c6c206661696c6564a264697066735822122079c4febfe0af02e93d2c633217d3e0af8ebaf2d61e8a56ab538d0fd68802611764736f6c6343000814003360c0604052306080523480156200001557600080fd5b5060405162001b7f38038062001b7f833981016040819052620000389162000117565b6001600160a01b03811660a0526200004f62000056565b5062000149565b600054610100900460ff1615620000c35760405162461bcd60e51b815260206004820152602760248201527f496e697469616c697a61626c653a20636f6e747261637420697320696e697469604482015266616c697a696e6760c81b606482015260840160405180910390fd5b60005460ff9081161462000115576000805460ff191660ff9081179091556040519081527f7f26b83ff96e1f2b6a682f133852f6798a09c465da95921460cefb38474024989060200160405180910390a15b565b6000602082840312156200012a57600080fd5b81516001600160a01b03811681146200014257600080fd5b9392505050565b60805160a0516119d8620001a76000396000818161027b0152818161088f0152818161092f01528181610bac0152610d430152600081816104ac015281816104ec015281816105b1015281816105f1015261068401526119d86000f3fe6080604052600436106100eb5760003560e01c806352d1902d1161008a578063bc197c8111610059578063bc197c81146102bf578063c4d66de8146102ee578063d087d2881461030e578063f23a6e611461032357600080fd5b806352d1902d146102195780638da5cb5b1461022e578063b0d691fe1461026c578063b61d27f61461029f57600080fd5b806318dfb3c7116100c657806318dfb3c7146101985780633659cfe6146101b85780633a871cdd146101d85780634f1ef2861461020657600080fd5b806223de29146100f757806301ffc9a71461011e578063150b7a021461015357600080fd5b366100f257005b600080fd5b34801561010357600080fd5b5061011c610112366004611301565b5050505050505050565b005b34801561012a57600080fd5b5061013e6101393660046113ac565b610350565b60405190151581526020015b60405180910390f35b34801561015f57600080fd5b5061017f61016e3660046113d6565b630a85bd0160e11b95945050505050565b6040516001600160e01b0319909116815260200161014a565b3480156101a457600080fd5b5061011c6101b336600461148a565b6103a2565b3480156101c457600080fd5b5061011c6101d33660046114f6565b6104a2565b3480156101e457600080fd5b506101f86101f3366004611511565b610581565b60405190815260200161014a565b61011c61021436600461157b565b6105a7565b34801561022557600080fd5b506101f8610677565b34801561023a57600080fd5b50600054610254906201000090046001600160a01b031681565b6040516001600160a01b03909116815260200161014a565b34801561027857600080fd5b507f0000000000000000000000000000000000000000000000000000000000000000610254565b3480156102ab57600080fd5b5061011c6102ba36600461163d565b61072a565b3480156102cb57600080fd5b5061017f6102da36600461168b565b63bc197c8160e01b98975050505050505050565b3480156102fa57600080fd5b5061011c6103093660046114f6565b610779565b34801561031a57600080fd5b506101f861088b565b34801561032f57600080fd5b5061017f61033e366004611725565b63f23a6e6160e01b9695505050505050565b60006001600160e01b03198216630a85bd0160e11b148061038157506001600160e01b03198216630271189760e51b145b8061039c57506001600160e01b031982166301ffc9a760e01b145b92915050565b6103aa610924565b8281146103f45760405162461bcd60e51b815260206004820152601360248201527277726f6e67206172726179206c656e6774687360681b60448201526064015b60405180910390fd5b60005b8381101561049b576104898585838181106104145761041461179d565b905060200201602081019061042991906114f6565b600085858581811061043d5761043d61179d565b905060200281019061044f91906117b3565b8080601f0160208091040260200160405190810160405280939291908181526020018383808284376000920191909152506109b992505050565b80610493816117fa565b9150506103f7565b5050505050565b6001600160a01b037f00000000000000000000000000000000000000000000000000000000000000001630036104ea5760405162461bcd60e51b81526004016103eb90611821565b7f00000000000000000000000000000000000000000000000000000000000000006001600160a01b031661053360008051602061195c833981519152546001600160a01b031690565b6001600160a01b0316146105595760405162461bcd60e51b81526004016103eb9061186d565b61056281610a29565b6040805160008082526020820190925261057e91839190610a31565b50565b600061058b610ba1565b6105958484610c19565b90506105a082610cc3565b9392505050565b6001600160a01b037f00000000000000000000000000000000000000000000000000000000000000001630036105ef5760405162461bcd60e51b81526004016103eb90611821565b7f00000000000000000000000000000000000000000000000000000000000000006001600160a01b031661063860008051602061195c833981519152546001600160a01b031690565b6001600160a01b03161461065e5760405162461bcd60e51b81526004016103eb9061186d565b61066782610a29565b61067382826001610a31565b5050565b6000306001600160a01b037f000000000000000000000000000000000000000000000000000000000000000016146107175760405162461bcd60e51b815260206004820152603860248201527f555550535570677261646561626c653a206d757374206e6f742062652063616c60448201527f6c6564207468726f7567682064656c656761746563616c6c000000000000000060648201526084016103eb565b5060008051602061195c83398151915290565b610732610924565b610773848484848080601f0160208091040260200160405190810160405280939291908181526020018383808284376000920191909152506109b992505050565b50505050565b600054610100900460ff16158080156107995750600054600160ff909116105b806107b35750303b1580156107b3575060005460ff166001145b6108165760405162461bcd60e51b815260206004820152602e60248201527f496e697469616c697a61626c653a20636f6e747261637420697320616c72656160448201526d191e481a5b9a5d1a585b1a5e995960921b60648201526084016103eb565b6000805460ff191660011790558015610839576000805461ff0019166101001790555b61084282610d10565b8015610673576000805461ff0019169055604051600181527f7f26b83ff96e1f2b6a682f133852f6798a09c465da95921460cefb38474024989060200160405180910390a15050565b60007f0000000000000000000000000000000000000000000000000000000000000000604051631aab3f0d60e11b8152306004820152600060248201526001600160a01b0391909116906335567e1a90604401602060405180830381865afa1580156108fb573d6000803e3d6000fd5b505050506040513d601f19601f8201168201806040525081019061091f91906118b9565b905090565b336001600160a01b037f000000000000000000000000000000000000000000000000000000000000000016148061096b57506000546201000090046001600160a01b031633145b6109b75760405162461bcd60e51b815260206004820181905260248201527f6163636f756e743a206e6f74204f776e6572206f7220456e747279506f696e7460448201526064016103eb565b565b600080846001600160a01b031684846040516109d591906118f6565b60006040518083038185875af1925050503d8060008114610a12576040519150601f19603f3d011682016040523d82523d6000602084013e610a17565b606091505b50915091508161049b57805160208201fd5b61057e610d8c565b7f4910fdfa16fed3260ed0e7147f7cc6da11a60208b5b9406d12a635614ffd91435460ff1615610a6957610a6483610de3565b505050565b826001600160a01b03166352d1902d6040518163ffffffff1660e01b8152600401602060405180830381865afa925050508015610ac3575060408051601f3d908101601f19168201909252610ac0918101906118b9565b60015b610b265760405162461bcd60e51b815260206004820152602e60248201527f45524331393637557067726164653a206e657720696d706c656d656e7461746960448201526d6f6e206973206e6f74205555505360901b60648201526084016103eb565b60008051602061195c8339815191528114610b955760405162461bcd60e51b815260206004820152602960248201527f45524331393637557067726164653a20756e737570706f727465642070726f786044820152681a58589b195555525160ba1b60648201526084016103eb565b50610a64838383610e7f565b336001600160a01b037f000000000000000000000000000000000000000000000000000000000000000016146109b75760405162461bcd60e51b815260206004820152601c60248201527f6163636f756e743a206e6f742066726f6d20456e747279506f696e740000000060448201526064016103eb565b7f19457468657265756d205369676e6564204d6573736167653a0a3332000000006000908152601c829052603c8120610c9481610c5a6101408701876117b3565b8080601f016020809104026020016040519081016040528093929190818152602001838380828437600092019190915250610ea492505050565b6000546201000090046001600160a01b03908116911614610cb957600191505061039c565b5060009392505050565b801561057e57604051600090339060001990849084818181858888f193505050503d806000811461049b576040519150601f19603f3d011682016040523d82523d6000602084013e61049b565b6000805462010000600160b01b031916620100006001600160a01b038481168202929092178084556040519190048216927f0000000000000000000000000000000000000000000000000000000000000000909216917f528e90ced186a9c5d4d0a63e3003bdcf5368b3192eb947d0def07bd5e7e3053b91a350565b6000546201000090046001600160a01b0316331480610daa57503330145b6109b75760405162461bcd60e51b815260206004820152600a60248201526937b7363c9037bbb732b960b11b60448201526064016103eb565b6001600160a01b0381163b610e505760405162461bcd60e51b815260206004820152602d60248201527f455243313936373a206e657720696d706c656d656e746174696f6e206973206e60448201526c1bdd08184818dbdb9d1c9858dd609a1b60648201526084016103eb565b60008051602061195c83398151915280546001600160a01b0319166001600160a01b0392909216919091179055565b610e8883610ec8565b600082511180610e955750805b15610a64576107738383610f08565b6000806000610eb38585610f2d565b91509150610ec081610f72565b509392505050565b610ed181610de3565b6040516001600160a01b038216907fbc7cd75a20ee27fd9adebab32041f755214dbc6bffa90cc0225b39da2e5c2d3b90600090a250565b60606105a0838360405180606001604052806027815260200161197c602791396110bc565b6000808251604103610f635760208301516040840151606085015160001a610f5787828585611134565b94509450505050610f6b565b506000905060025b9250929050565b6000816004811115610f8657610f86611912565b03610f8e5750565b6001816004811115610fa257610fa2611912565b03610fef5760405162461bcd60e51b815260206004820152601860248201527f45434453413a20696e76616c6964207369676e6174757265000000000000000060448201526064016103eb565b600281600481111561100357611003611912565b036110505760405162461bcd60e51b815260206004820152601f60248201527f45434453413a20696e76616c6964207369676e6174757265206c656e6774680060448201526064016103eb565b600381600481111561106457611064611912565b0361057e5760405162461bcd60e51b815260206004820152602260248201527f45434453413a20696e76616c6964207369676e6174757265202773272076616c604482015261756560f01b60648201526084016103eb565b6060600080856001600160a01b0316856040516110d991906118f6565b600060405180830381855af49150503d8060008114611114576040519150601f19603f3d011682016040523d82523d6000602084013e611119565b606091505b509150915061112a868383876111f8565b9695505050505050565b6000807f7fffffffffffffffffffffffffffffff5d576e7357a4501ddfe92f46681b20a083111561116b57506000905060036111ef565b6040805160008082526020820180845289905260ff881692820192909252606081018690526080810185905260019060a0016020604051602081039080840390855afa1580156111bf573d6000803e3d6000fd5b5050604051601f1901519150506001600160a01b0381166111e8576000600192509250506111ef565b9150600090505b94509492505050565b60608315611267578251600003611260576001600160a01b0385163b6112605760405162461bcd60e51b815260206004820152601d60248201527f416464726573733a2063616c6c20746f206e6f6e2d636f6e747261637400000060448201526064016103eb565b5081611271565b6112718383611279565b949350505050565b8151156112895781518083602001fd5b8060405162461bcd60e51b81526004016103eb9190611928565b80356001600160a01b03811681146112ba57600080fd5b919050565b60008083601f8401126112d157600080fd5b50813567ffffffffffffffff8111156112e957600080fd5b602083019150836020828501011115610f6b57600080fd5b60008060008060008060008060c0898b03121561131d57600080fd5b611326896112a3565b975061133460208a016112a3565b965061134260408a016112a3565b955060608901359450608089013567ffffffffffffffff8082111561136657600080fd5b6113728c838d016112bf565b909650945060a08b013591508082111561138b57600080fd5b506113988b828c016112bf565b999c989b5096995094979396929594505050565b6000602082840312156113be57600080fd5b81356001600160e01b0319811681146105a057600080fd5b6000806000806000608086880312156113ee57600080fd5b6113f7866112a3565b9450611405602087016112a3565b935060408601359250606086013567ffffffffffffffff81111561142857600080fd5b611434888289016112bf565b969995985093965092949392505050565b60008083601f84011261145757600080fd5b50813567ffffffffffffffff81111561146f57600080fd5b6020830191508360208260051b8501011115610f6b57600080fd5b600080600080604085870312156114a057600080fd5b843567ffffffffffffffff808211156114b857600080fd5b6114c488838901611445565b909650945060208701359150808211156114dd57600080fd5b506114ea87828801611445565b95989497509550505050565b60006020828403121561150857600080fd5b6105a0826112a3565b60008060006060848603121561152657600080fd5b833567ffffffffffffffff81111561153d57600080fd5b8401610160818703121561155057600080fd5b95602085013595506040909401359392505050565b634e487b7160e01b600052604160045260246000fd5b6000806040838503121561158e57600080fd5b611597836112a3565b9150602083013567ffffffffffffffff808211156115b457600080fd5b818501915085601f8301126115c857600080fd5b8135818111156115da576115da611565565b604051601f8201601f19908116603f0116810190838211818310171561160257611602611565565b8160405282815288602084870101111561161b57600080fd5b8260208601602083013760006020848301015280955050505050509250929050565b6000806000806060858703121561165357600080fd5b61165c856112a3565b935060208501359250604085013567ffffffffffffffff81111561167f57600080fd5b6114ea878288016112bf565b60008060008060008060008060a0898b0312156116a757600080fd5b6116b0896112a3565b97506116be60208a016112a3565b9650604089013567ffffffffffffffff808211156116db57600080fd5b6116e78c838d01611445565b909850965060608b013591508082111561170057600080fd5b61170c8c838d01611445565b909650945060808b013591508082111561138b57600080fd5b60008060008060008060a0878903121561173e57600080fd5b611747876112a3565b9550611755602088016112a3565b94506040870135935060608701359250608087013567ffffffffffffffff81111561177f57600080fd5b61178b89828a016112bf565b979a9699509497509295939492505050565b634e487b7160e01b600052603260045260246000fd5b6000808335601e198436030181126117ca57600080fd5b83018035915067ffffffffffffffff8211156117e557600080fd5b602001915036819003821315610f6b57600080fd5b60006001820161181a57634e487b7160e01b600052601160045260246000fd5b5060010190565b6020808252602c908201527f46756e6374696f6e206d7573742062652063616c6c6564207468726f7567682060408201526b19195b1959d85d1958d85b1b60a21b606082015260800190565b6020808252602c908201527f46756e6374696f6e206d7573742062652063616c6c6564207468726f7567682060408201526b6163746976652070726f787960a01b606082015260800190565b6000602082840312156118cb57600080fd5b5051919050565b60005b838110156118ed5781810151838201526020016118d5565b50506000910152565b600082516119088184602087016118d2565b9190910192915050565b634e487b7160e01b600052602160045260246000fd5b60208152600082518060208401526119478160408501602087016118d2565b601f01601f1916919091016040019291505056fe360894a13ba1a3210667c828492db98dca3e2076cc3735a920a3ca505d382bbc416464726573733a206c6f772d6c6576656c2064656c65676174652063616c6c206661696c6564a264697066735822122026fad0181c9144afecc26032a0bcbc049907916b89a14678dab77f8aaf885e5464736f6c63430008140033",
  "linkReferences": {},
  "deployedLinkReferences": {}
}