{
  "_format": "hh-sol-artifact-1",
  "contractName": "VCNPaymaster",
  "sourceName": "contracts/VCNPaymaster.sol",
  "abi": [
    {
      "inputs": [
        {
          "internalType": "contract IEntryPoint",
          "name": "_entryPoint",
          "type": "address"
        },
        {
          "internalType": "address",
          "name": "_verifyingSigner",
          "type": "address"
        }
      ],
      "stateMutability": "nonpayable",
      "type": "constructor"
    },
    {
      "anonymous": false,
      "inputs": [
        {
          "indexed": true,
          "internalType": "address",
          "name": "previousOwner",
          "type": "address"
        },
        {
          "indexed": true,
          "internalType": "address",
          "name": "newOwner",
          "type": "address"
        }
      ],
      "name": "OwnershipTransferred",
      "type": "event"
    },
    {
      "inputs": [
        {
          "internalType": "uint32",
          "name": "unstakeDelaySec",
          "type": "uint32"
        }
      ],
      "name": "addStake",
      "outputs": [],
      "stateMutability": "payable",
      "type": "function"
    },
    {
      "inputs": [],
      "name": "deposit",
      "outputs": [],
      "stateMutability": "payable",
      "type": "function"
    },
    {
      "inputs": [],
      "name": "entryPoint",
      "outputs": [
        {
          "internalType": "contract IEntryPoint",
          "name": "",
          "type": "address"
        }
      ],
      "stateMutability": "view",
      "type": "function"
    },
    {
      "inputs": [],
      "name": "getDeposit",
      "outputs": [
        {
          "internalType": "uint256",
          "name": "",
          "type": "uint256"
        }
      ],
      "stateMutability": "view",
      "type": "function"
    },
    {
      "inputs": [],
      "name": "owner",
      "outputs": [
        {
          "internalType": "address",
          "name": "",
          "type": "address"
        }
      ],
      "stateMutability": "view",
      "type": "function"
    },
    {
      "inputs": [
        {
          "internalType": "enum IPaymaster.PostOpMode",
          "name": "mode",
          "type": "uint8"
        },
        {
          "internalType": "bytes",
          "name": "context",
          "type": "bytes"
        },
        {
          "internalType": "uint256",
          "name": "actualGasCost",
          "type": "uint256"
        }
      ],
      "name": "postOp",
      "outputs": [],
      "stateMutability": "nonpayable",
      "type": "function"
    },
    {
      "inputs": [],
      "name": "renounceOwnership",
      "outputs": [],
      "stateMutability": "nonpayable",
      "type": "function"
    },
    {
      "inputs": [
        {
          "internalType": "address",
          "name": "_verifyingSigner",
          "type": "address"
        }
      ],
      "name": "setVerifyingSigner",
      "outputs": [],
      "stateMutability": "nonpayable",
      "type": "function"
    },
    {
      "inputs": [
        {
          "internalType": "address",
          "name": "newOwner",
          "type": "address"
        }
      ],
      "name": "transferOwnership",
      "outputs": [],
      "stateMutability": "nonpayable",
      "type": "function"
    },
    {
      "inputs": [],
      "name": "unlockStake",
      "outputs": [],
      "stateMutability": "nonpayable",
      "type": "function"
    },
    {
      "inputs": [
        {
          "components": [
            {
              "internalType": "address",
              "name": "sender",
              "type": "address"
            },
            {
              "internalType": "uint256",
              "name": "nonce",
              "type": "uint256"
            },
            {
              "internalType": "bytes",
              "name": "initCode",
              "type": "bytes"
            },
            {
              "internalType": "bytes",
              "name": "callData",
              "type": "bytes"
            },
            {
              "internalType": "uint256",
              "name": "callGasLimit",
              "type": "uint256"
            },
            {
              "internalType": "uint256",
              "name": "verificationGasLimit",
              "type": "uint256"
            },
            {
              "internalType": "uint256",
              "name": "preVerificationGas",
              "type": "uint256"
            },
            {
              "internalType": "uint256",
              "name": "maxFeePerGas",
              "type": "uint256"
            },
            {
              "internalType": "uint256",
              "name": "maxPriorityFeePerGas",
              "type": "uint256"
            },
            {
              "internalType": "bytes",
              "name": "paymasterAndData",
              "type": "bytes"
            },
            {
              "internalType": "bytes",
              "name": "signature",
              "type": "bytes"
            }
          ],
          "internalType": "struct UserOperation",
          "name": "userOp",
          "type": "tuple"
        },
        {
          "internalType": "bytes32",
          "name": "userOpHash",
          "type": "bytes32"
        },
        {
          "internalType": "uint256",
          "name": "maxCost",
          "type": "uint256"
        }
      ],
      "name": "validatePaymasterUserOp",
      "outputs": [
        {
          "internalType": "bytes",
          "name": "context",
          "type": "bytes"
        },
        {
          "internalType": "uint256",
          "name": "validationData",
          "type": "uint256"
        }
      ],
      "stateMutability": "nonpayable",
      "type": "function"
    },
    {
      "inputs": [],
      "name": "verifyingSigner",
      "outputs": [
        {
          "internalType": "address",
          "name": "",
          "type": "address"
        }
      ],
      "stateMutability": "view",
      "type": "function"
    },
    {
      "inputs": [
        {
          "internalType": "address payable",
          "name": "withdrawAddress",
          "type": "address"
        }
      ],
      "name": "withdrawStake",
      "outputs": [],
      "stateMutability": "nonpayable",
      "type": "function"
    },
    {
      "inputs": [
        {
          "internalType": "address payable",
          "name": "withdrawAddress",
          "type": "address"
        },
        {
          "internalType": "uint256",
          "name": "amount",
          "type": "uint256"
        }
      ],
      "name": "withdrawTo",
      "outputs": [],
      "stateMutability": "nonpayable",
      "type": "function"
    }
  ],
  "bytecode": "0x60a060405234801561001057600080fd5b50604051610b4a380380610b4a83398101604081905261002f916100cd565b8161003933610065565b6001600160a01b03908116608052600180546001600160a01b0319169290911691909117905550610107565b600080546001600160a01b038381166001600160a01b0319831681178455604051919092169283917f8be0079c531659141344cd1fd0a4f28419497f9722a3daafe3b4186f6b6457e09190a35050565b6001600160a01b03811681146100ca57600080fd5b50565b600080604083850312156100e057600080fd5b82516100eb816100b5565b60208401519092506100fc816100b5565b809150509250929050565b6080516109f7610153600039600081816101b9015281816102cb01528181610362015281816103de01528181610472015281816104e901528181610576015261074801526109f76000f3fe6080604052600436106100dd5760003560e01c8063bb9fe6bf1161007f578063d0e30db011610059578063d0e30db014610233578063f2fde38b1461023b578063f465c77e1461025b578063f5cba98c1461028957600080fd5b8063bb9fe6bf146101db578063c23a5cea146101f0578063c399ec881461021057600080fd5b8063715018a6116100bb578063715018a6146101545780638da5cb5b14610169578063a9a2340914610187578063b0d691fe146101a757600080fd5b80630396cb60146100e2578063205c2878146100f757806323d9ac9b14610117575b600080fd5b6100f56100f03660046107e5565b6102a9565b005b34801561010357600080fd5b506100f5610112366004610827565b610334565b34801561012357600080fd5b50600154610137906001600160a01b031681565b6040516001600160a01b0390911681526020015b60405180910390f35b34801561016057600080fd5b506100f56103a6565b34801561017557600080fd5b506000546001600160a01b0316610137565b34801561019357600080fd5b506100f56101a2366004610853565b6103ba565b3480156101b357600080fd5b506101377f000000000000000000000000000000000000000000000000000000000000000081565b3480156101e757600080fd5b506100f56103d4565b3480156101fc57600080fd5b506100f561020b3660046108e2565b61044b565b34801561021c57600080fd5b506102256104d1565b60405190815260200161014b565b6100f5610561565b34801561024757600080fd5b506100f56102563660046108e2565b6105c3565b34801561026757600080fd5b5061027b6102763660046108ff565b610641565b60405161014b929190610953565b34801561029557600080fd5b506100f56102a43660046108e2565b610669565b6102b1610693565b604051621cb65b60e51b815263ffffffff821660048201527f00000000000000000000000000000000000000000000000000000000000000006001600160a01b031690630396cb609034906024016000604051808303818588803b15801561031857600080fd5b505af115801561032c573d6000803e3d6000fd5b505050505050565b61033c610693565b60405163040b850f60e31b81526001600160a01b038381166004830152602482018390527f0000000000000000000000000000000000000000000000000000000000000000169063205c287890604401600060405180830381600087803b15801561031857600080fd5b6103ae610693565b6103b860006106ed565b565b6103c261073d565b6103ce848484846107ad565b50505050565b6103dc610693565b7f00000000000000000000000000000000000000000000000000000000000000006001600160a01b031663bb9fe6bf6040518163ffffffff1660e01b8152600401600060405180830381600087803b15801561043757600080fd5b505af11580156103ce573d6000803e3d6000fd5b610453610693565b60405163611d2e7560e11b81526001600160a01b0382811660048301527f0000000000000000000000000000000000000000000000000000000000000000169063c23a5cea90602401600060405180830381600087803b1580156104b657600080fd5b505af11580156104ca573d6000803e3d6000fd5b5050505050565b6040516370a0823160e01b81523060048201526000907f00000000000000000000000000000000000000000000000000000000000000006001600160a01b0316906370a0823190602401602060405180830381865afa158015610538573d6000803e3d6000fd5b505050506040513d601f19601f8201168201806040525081019061055c91906109a8565b905090565b60405163b760faf960e01b81523060048201527f00000000000000000000000000000000000000000000000000000000000000006001600160a01b03169063b760faf99034906024016000604051808303818588803b1580156104b657600080fd5b6105cb610693565b6001600160a01b0381166106355760405162461bcd60e51b815260206004820152602660248201527f4f776e61626c653a206e6577206f776e657220697320746865207a65726f206160448201526564647265737360d01b60648201526084015b60405180910390fd5b61063e816106ed565b50565b6060600061064d61073d565b6040805160208101909152600080825291509150935093915050565b610671610693565b600180546001600160a01b0319166001600160a01b0392909216919091179055565b6000546001600160a01b031633146103b85760405162461bcd60e51b815260206004820181905260248201527f4f776e61626c653a2063616c6c6572206973206e6f7420746865206f776e6572604482015260640161062c565b600080546001600160a01b038381166001600160a01b0319831681178455604051919092169283917f8be0079c531659141344cd1fd0a4f28419497f9722a3daafe3b4186f6b6457e09190a35050565b336001600160a01b037f000000000000000000000000000000000000000000000000000000000000000016146103b85760405162461bcd60e51b815260206004820152601560248201527414d95b99195c881b9bdd08115b9d1c9e541bda5b9d605a1b604482015260640161062c565b60405162461bcd60e51b815260206004820152600d60248201526c6d757374206f7665727269646560981b604482015260640161062c565b6000602082840312156107f757600080fd5b813563ffffffff8116811461080b57600080fd5b9392505050565b6001600160a01b038116811461063e57600080fd5b6000806040838503121561083a57600080fd5b823561084581610812565b946020939093013593505050565b6000806000806060858703121561086957600080fd5b84356003811061087857600080fd5b9350602085013567ffffffffffffffff8082111561089557600080fd5b818701915087601f8301126108a957600080fd5b8135818111156108b857600080fd5b8860208285010111156108ca57600080fd5b95986020929092019750949560400135945092505050565b6000602082840312156108f457600080fd5b813561080b81610812565b60008060006060848603121561091457600080fd5b833567ffffffffffffffff81111561092b57600080fd5b8401610160818703121561093e57600080fd5b95602085013595506040909401359392505050565b604081526000835180604084015260005b818110156109815760208187018101516060868401015201610964565b506000606082850101526060601f19601f8301168401019150508260208301529392505050565b6000602082840312156109ba57600080fd5b505191905056fea2646970667358221220b894712a5cae29640e0aa209f90ffaa9105549cd7c06d686a13b3c928ddacb2b64736f6c63430008140033",
  "linkReferences": {},
  "deployedLinkReferences": {}
}