{
  "_format": "hh-sol-artifact-1",
  "contractName": "VCNPaymasterNative",
  "sourceName": "contracts/VCNPaymasterNative.sol",
  "abi": [
    {
      "inputs": [
        {
          "internalType": "address[]",
          "name": "_signers",
          "type": "address[]"
        },
        {
          "internalType": "uint256",
          "name": "_requiredSignatures",
          "type": "uint256"
        }
      ],
      "stateMutability": "nonpayable",
      "type": "constructor"
    },
    {
      "anonymous": false,
      "inputs": [
        {
          "indexed": true,
          "internalType": "address",
          "name": "contractAddr",
          "type": "address"
        },
        {
          "indexed": false,
          "internalType": "bool",
          "name": "status",
          "type": "bool"
        }
      ],
      "name": "ContractWhitelisted",
      "type": "event"
    },
    {
      "anonymous": false,
      "inputs": [
        {
          "indexed": true,
          "internalType": "address",
          "name": "user",
          "type": "address"
        },
        {
          "indexed": false,
          "internalType": "uint256",
          "name": "amount",
          "type": "uint256"
        }
      ],
      "name": "Deposited",
      "type": "event"
    },
    {
      "anonymous": false,
      "inputs": [
        {
          "indexed": true,
          "internalType": "address",
          "name": "user",
          "type": "address"
        },
        {
          "indexed": true,
          "internalType": "address",
          "name": "target",
          "type": "address"
        },
        {
          "indexed": false,
          "internalType": "uint256",
          "name": "gasUsed",
          "type": "uint256"
        },
        {
          "indexed": false,
          "internalType": "bytes32",
          "name": "opHash",
          "type": "bytes32"
        }
      ],
      "name": "GasSponsored",
      "type": "event"
    },
    {
      "anonymous": false,
      "inputs": [
        {
          "indexed": true,
          "internalType": "address",
          "name": "previousOwner",
          "type": "address"
        },
        {
          "indexed": true,
          "internalType": "address",
          "name": "newOwner",
          "type": "address"
        }
      ],
      "name": "OwnershipTransferred",
      "type": "event"
    },
    {
      "anonymous": false,
      "inputs": [
        {
          "indexed": true,
          "internalType": "address",
          "name": "signer",
          "type": "address"
        }
      ],
      "name": "SignerAdded",
      "type": "event"
    },
    {
      "anonymous": false,
      "inputs": [
        {
          "indexed": true,
          "internalType": "address",
          "name": "signer",
          "type": "address"
        }
      ],
      "name": "SignerRemoved",
      "type": "event"
    },
    {
      "anonymous": false,
      "inputs": [
        {
          "indexed": true,
          "internalType": "address",
          "name": "user",
          "type": "address"
        },
        {
          "indexed": false,
          "internalType": "uint256",
          "name": "amount",
          "type": "uint256"
        }
      ],
      "name": "Withdrawn",
      "type": "event"
    },
    {
      "inputs": [
        {
          "internalType": "address",
          "name": "signer",
          "type": "address"
        }
      ],
      "name": "addSigner",
      "outputs": [],
      "stateMutability": "nonpayable",
      "type": "function"
    },
    {
      "inputs": [
        {
          "internalType": "address",
          "name": "",
          "type": "address"
        }
      ],
      "name": "dailyGasUsed",
      "outputs": [
        {
          "internalType": "uint256",
          "name": "",
          "type": "uint256"
        }
      ],
      "stateMutability": "view",
      "type": "function"
    },
    {
      "inputs": [],
      "name": "deposit",
      "outputs": [],
      "stateMutability": "payable",
      "type": "function"
    },
    {
      "inputs": [
        {
          "internalType": "address",
          "name": "",
          "type": "address"
        }
      ],
      "name": "deposits",
      "outputs": [
        {
          "internalType": "uint256",
          "name": "",
          "type": "uint256"
        }
      ],
      "stateMutability": "view",
      "type": "function"
    },
    {
      "inputs": [],
      "name": "fundPool",
      "outputs": [],
      "stateMutability": "payable",
      "type": "function"
    },
    {
      "inputs": [],
      "name": "getPoolBalance",
      "outputs": [
        {
          "internalType": "uint256",
          "name": "",
          "type": "uint256"
        }
      ],
      "stateMutability": "view",
      "type": "function"
    },
    {
      "inputs": [
        {
          "internalType": "address",
          "name": "user",
          "type": "address"
        }
      ],
      "name": "getRemainingDailyGas",
      "outputs": [
        {
          "internalType": "uint256",
          "name": "",
          "type": "uint256"
        }
      ],
      "stateMutability": "view",
      "type": "function"
    },
    {
      "inputs": [
        {
          "internalType": "address",
          "name": "user",
          "type": "address"
        }
      ],
      "name": "getUserDeposit",
      "outputs": [
        {
          "internalType": "uint256",
          "name": "",
          "type": "uint256"
        }
      ],
      "stateMutability": "view",
      "type": "function"
    },
    {
      "inputs": [
        {
          "internalType": "address",
          "name": "",
          "type": "address"
        }
      ],
      "name": "lastGasReset",
      "outputs": [
        {
          "internalType": "uint256",
          "name": "",
          "type": "uint256"
        }
      ],
      "stateMutability": "view",
      "type": "function"
    },
    {
      "inputs": [],
      "name": "maxDailyGasPerUser",
      "outputs": [
        {
          "internalType": "uint256",
          "name": "",
          "type": "uint256"
        }
      ],
      "stateMutability": "view",
      "type": "function"
    },
    {
      "inputs": [
        {
          "internalType": "address",
          "name": "",
          "type": "address"
        }
      ],
      "name": "mpcSigners",
      "outputs": [
        {
          "internalType": "bool",
          "name": "",
          "type": "bool"
        }
      ],
      "stateMutability": "view",
      "type": "function"
    },
    {
      "inputs": [],
      "name": "owner",
      "outputs": [
        {
          "internalType": "address",
          "name": "",
          "type": "address"
        }
      ],
      "stateMutability": "view",
      "type": "function"
    },
    {
      "inputs": [
        {
          "internalType": "bytes32",
          "name": "",
          "type": "bytes32"
        }
      ],
      "name": "processedOps",
      "outputs": [
        {
          "internalType": "bool",
          "name": "",
          "type": "bool"
        }
      ],
      "stateMutability": "view",
      "type": "function"
    },
    {
      "inputs": [
        {
          "internalType": "address",
          "name": "signer",
          "type": "address"
        }
      ],
      "name": "removeSigner",
      "outputs": [],
      "stateMutability": "nonpayable",
      "type": "function"
    },
    {
      "inputs": [],
      "name": "renounceOwnership",
      "outputs": [],
      "stateMutability": "nonpayable",
      "type": "function"
    },
    {
      "inputs": [],
      "name": "requiredSignatures",
      "outputs": [
        {
          "internalType": "uint256",
          "name": "",
          "type": "uint256"
        }
      ],
      "stateMutability": "view",
      "type": "function"
    },
    {
      "inputs": [
        {
          "internalType": "uint256",
          "name": "amount",
          "type": "uint256"
        }
      ],
      "name": "setMaxDailyGas",
      "outputs": [],
      "stateMutability": "nonpayable",
      "type": "function"
    },
    {
      "inputs": [
        {
          "internalType": "address",
          "name": "contractAddr",
          "type": "address"
        },
        {
          "internalType": "bool",
          "name": "status",
          "type": "bool"
        }
      ],
      "name": "setWhitelistedContract",
      "outputs": [],
      "stateMutability": "nonpayable",
      "type": "function"
    },
    {
      "inputs": [],
      "name": "signerCount",
      "outputs": [
        {
          "internalType": "uint256",
          "name": "",
          "type": "uint256"
        }
      ],
      "stateMutability": "view",
      "type": "function"
    },
    {
      "inputs": [
        {
          "internalType": "address",
          "name": "user",
          "type": "address"
        },
        {
          "internalType": "address",
          "name": "target",
          "type": "address"
        },
        {
          "internalType": "uint256",
          "name": "gasAmount",
          "type": "uint256"
        },
        {
          "internalType": "bytes32",
          "name": "opHash",
          "type": "bytes32"
        },
        {
          "internalType": "bytes[]",
          "name": "signatures",
          "type": "bytes[]"
        }
      ],
      "name": "sponsorGas",
      "outputs": [],
      "stateMutability": "nonpayable",
      "type": "function"
    },
    {
      "inputs": [
        {
          "internalType": "address",
          "name": "newOwner",
          "type": "address"
        }
      ],
      "name": "transferOwnership",
      "outputs": [],
      "stateMutability": "nonpayable",
      "type": "function"
    },
    {
      "inputs": [
        {
          "internalType": "address",
          "name": "",
          "type": "address"
        }
      ],
      "name": "whitelistedContracts",
      "outputs": [
        {
          "internalType": "bool",
          "name": "",
          "type": "bool"
        }
      ],
      "stateMutability": "view",
      "type": "function"
    },
    {
      "inputs": [
        {
          "internalType": "uint256",
          "name": "amount",
          "type": "uint256"
        }
      ],
      "name": "withdraw",
      "outputs": [],
      "stateMutability": "nonpayable",
      "type": "function"
    },
    {
      "inputs": [
        {
          "internalType": "address",
          "name": "to",
          "type": "address"
        },
        {
          "internalType": "uint256",
          "name": "amount",
          "type": "uint256"
        }
      ],
      "name": "withdrawPool",
      "outputs": [],
      "stateMutability": "nonpayable",
      "type": "function"
    },
    {
      "stateMutability": "payable",
      "type": "receive"
    }
  ],
  "bytecode": "0x608060405267016345785d8a00006009553480156200001d57600080fd5b506040516200183d3803806200183d8339810160408190526200004091620001ee565b6200004b336200016b565b6001805581518111156200009b5760405162461bcd60e51b81526020600482015260126024820152714e6f7420656e6f756768207369676e65727360701b60448201526064015b60405180910390fd5b60008111620000ed5760405162461bcd60e51b815260206004820152601960248201527f4e656564206174206c656173742031207369676e617475726500000000000000604482015260640162000092565b60005b82518110156200015c57600160026000858481518110620001155762000115620002c8565b6020908102919091018101516001600160a01b03168252810191909152604001600020805460ff1916911515919091179055806200015381620002de565b915050620000f0565b50905160035560045562000306565b600080546001600160a01b038381166001600160a01b0319831681178455604051919092169283917f8be0079c531659141344cd1fd0a4f28419497f9722a3daafe3b4186f6b6457e09190a35050565b634e487b7160e01b600052604160045260246000fd5b80516001600160a01b0381168114620001e957600080fd5b919050565b600080604083850312156200020257600080fd5b82516001600160401b03808211156200021a57600080fd5b818501915085601f8301126200022f57600080fd5b8151602082821115620002465762000246620001bb565b8160051b604051601f19603f830116810181811086821117156200026e576200026e620001bb565b6040529283528183019350848101820192898411156200028d57600080fd5b948201945b83861015620002b657620002a686620001d1565b8552948201949382019362000292565b97909101519698969750505050505050565b634e487b7160e01b600052603260045260246000fd5b600060018201620002ff57634e487b7160e01b600052601160045260246000fd5b5060010190565b61152780620003166000396000f3fe60806040526004361061014f5760003560e01c80638d068043116100b6578063d0e30db01161006f578063d0e30db0146103d4578063e239f3f9146103dc578063eb12d61e146103f2578063f2fde38b14610412578063f87cf42b14610432578063fc7e286d1461046257600080fd5b80638d068043146103005780638da5cb5b14610316578063abd70aa21461033e578063be6fcec114610351578063c084b10b1461037e578063c4214492146103b457600080fd5b8063652ecace11610108578063652ecace146102605780636a2927d31461028057806370f37d27146102ad578063715018a6146102b55780637c4304ff146102ca5780637ca548c6146102ea57600080fd5b80630e316ab71461015b5780632ad591231461017d5780632e1a7d4d146101b0578063342b4f25146101d0578063391feebb146101f05780633a958a671461023057600080fd5b3661015657005b600080fd5b34801561016757600080fd5b5061017b6101763660046112a8565b61048f565b005b34801561018957600080fd5b5061019d6101983660046112a8565b6105b0565b6040519081526020015b60405180910390f35b3480156101bc57600080fd5b5061017b6101cb3660046112ca565b610638565b3480156101dc57600080fd5b5061017b6101eb3660046112ca565b610786565b3480156101fc57600080fd5b5061022061020b3660046112a8565b600a6020526000908152604090205460ff1681565b60405190151581526020016101a7565b34801561023c57600080fd5b5061022061024b3660046112a8565b60026020526000908152604090205460ff1681565b34801561026c57600080fd5b5061017b61027b3660046112e3565b610793565b34801561028c57600080fd5b5061019d61029b3660046112a8565b60076020526000908152604090205481565b61017b610d47565b3480156102c157600080fd5b5061017b610d51565b3480156102d657600080fd5b5061017b6102e536600461138c565b610d63565b3480156102f657600080fd5b5061019d60035481565b34801561030c57600080fd5b5061019d60045481565b34801561032257600080fd5b506000546040516001600160a01b0390911681526020016101a7565b34801561034a57600080fd5b504761019d565b34801561035d57600080fd5b5061019d61036c3660046112a8565b60086020526000908152604090205481565b34801561038a57600080fd5b5061019d6103993660046112a8565b6001600160a01b031660009081526005602052604090205490565b3480156103c057600080fd5b5061017b6103cf3660046113b6565b610e4c565b61017b610eb3565b3480156103e857600080fd5b5061019d60095481565b3480156103fe57600080fd5b5061017b61040d3660046112a8565b610f5e565b34801561041e57600080fd5b5061017b61042d3660046112a8565b61102f565b34801561043e57600080fd5b5061022061044d3660046112ca565b60066020526000908152604090205460ff1681565b34801561046e57600080fd5b5061019d61047d3660046112a8565b60056020526000908152604090205481565b6104976110a5565b6001600160a01b03811660009081526002602052604090205460ff166104f35760405162461bcd60e51b815260206004820152600c60248201526b2737ba10309039b4b3b732b960a11b60448201526064015b60405180910390fd5b600454600354116105465760405162461bcd60e51b815260206004820152601e60248201527f43616e6e6f742072656d6f76653a20746f6f20666577207369676e657273000060448201526064016104ea565b6001600160a01b0381166000908152600260205260408120805460ff19169055600380549161057483611408565b90915550506040516001600160a01b038216907f3525e22824a8a7df2c9a6029941c824cf95b6447f1e13d5128fd3826d35afe8b90600090a250565b6001600160a01b0381166000908152600860205260408120546105d6906201518061141f565b42106105e457505060095490565b6001600160a01b0382166000908152600760205260409020546009541161060c576000610632565b6001600160a01b0382166000908152600760205260409020546009546106329190611432565b92915050565b6106406110ff565b336000908152600560205260409020548111156106965760405162461bcd60e51b8152602060048201526014602482015273125b9cdd59999a58da595b9d0819195c1bdcda5d60621b60448201526064016104ea565b33600090815260056020526040812080548392906106b5908490611432565b9091555050604051600090339083908381818185875af1925050503d80600081146106fc576040519150601f19603f3d011682016040523d82523d6000602084013e610701565b606091505b50509050806107445760405162461bcd60e51b815260206004820152600f60248201526e15da5d1a191c985dc819985a5b1959608a1b60448201526064016104ea565b60405182815233907f7084f5476618d8e60b11ef0d7d3f06914655adb8793e28ff7f018d4c76d505d59060200160405180910390a25061078360018055565b50565b61078e6110a5565b600955565b61079b6110ff565b60008381526006602052604090205460ff16156107fa5760405162461bcd60e51b815260206004820152601b60248201527f4f7065726174696f6e20616c72656164792070726f636573736564000000000060448201526064016104ea565b6000841161083f5760405162461bcd60e51b8152602060048201526012602482015271125b9d985b1a590819d85cc8185b5bdd5b9d60721b60448201526064016104ea565b6001600160a01b038616600090815260086020526040902054610865906201518061141f565b4210610894576001600160a01b0386166000908152600760209081526040808320839055600890915290204290555b6001600160a01b0385166000908152600a602052604090205460ff16156109a457834710156109055760405162461bcd60e51b815260206004820152601960248201527f496e73756666696369656e7420706f6f6c2062616c616e63650000000000000060448201526064016104ea565b6009546001600160a01b03871660009081526007602052604090205461092c90869061141f565b11156109715760405162461bcd60e51b815260206004820152601460248201527311185a5b1e481b1a5b5a5d08195e18d95959195960621b60448201526064016104ea565b6001600160a01b0386166000908152600760205260408120805486929061099990849061141f565b90915550610a3a9050565b6001600160a01b038616600090815260056020526040902054841115610a0c5760405162461bcd60e51b815260206004820152601960248201527f496e73756666696369656e742075736572206465706f7369740000000000000060448201526064016104ea565b6001600160a01b03861660009081526005602052604081208054869290610a34908490611432565b90915550505b6040516bffffffffffffffffffffffff19606088811b8216602084015287901b166034820152604881018590526068810184905246608882015260009060a801604051602081830303815290604052805190602001209050600081604051602001610ad191907f19457468657265756d205369676e6564204d6573736167653a0a3332000000008152601c810191909152603c0190565b60408051601f19818403018152919052805160209091012090506000808467ffffffffffffffff811115610b0757610b07611445565b604051908082528060200260200182016040528015610b30578160200160208202803683370190505b50905060005b85811015610c73576000610ba285898985818110610b5657610b5661145b565b9050602002810190610b689190611471565b8080601f01602080910402602001604051908101604052809392919081815260200183838082843760009201919091525061115892505050565b6001600160a01b03811660009081526002602052604090205490915060ff1615610c60576000805b83811015610c1f57826001600160a01b0316858281518110610bee57610bee61145b565b60200260200101516001600160a01b031603610c0d5760019150610c1f565b80610c17816114bf565b915050610bca565b5080610c5e5781848481518110610c3857610c3861145b565b6001600160a01b039092166020928302919091019091015284610c5a816114bf565b9550505b505b5080610c6b816114bf565b915050610b36565b50600454821015610cc65760405162461bcd60e51b815260206004820152601d60248201527f496e73756666696369656e742076616c6964207369676e61747572657300000060448201526064016104ea565b60008781526006602052604090819020805460ff19166001179055516001600160a01b03808b1691908c16907f1c9696667563ae61c3f07380a210ad7a901498b15b0a66abf4c0a0c15313b7a390610d2a908c908c90918252602082015260400190565b60405180910390a350505050610d3f60018055565b505050505050565b610d4f6110a5565b565b610d596110a5565b610d4f600061123c565b610d6b6110a5565b47811115610db25760405162461bcd60e51b8152602060048201526014602482015273496e73756666696369656e742062616c616e636560601b60448201526064016104ea565b6000826001600160a01b03168260405160006040518083038185875af1925050503d8060008114610dff576040519150601f19603f3d011682016040523d82523d6000602084013e610e04565b606091505b5050905080610e475760405162461bcd60e51b815260206004820152600f60248201526e15da5d1a191c985dc819985a5b1959608a1b60448201526064016104ea565b505050565b610e546110a5565b6001600160a01b0382166000818152600a6020908152604091829020805460ff191685151590811790915591519182527f46fe0810a41e3dbf985c77c9f30207ce6eda91dcba24d8de583b6ea30ac16f00910160405180910390a25050565b60003411610f035760405162461bcd60e51b815260206004820152601c60248201527f4d757374206465706f736974206e6f6e2d7a65726f20616d6f756e740000000060448201526064016104ea565b3360009081526005602052604081208054349290610f2290849061141f565b909155505060405134815233907f2da466a7b24304f47e87fa2e1e5a81b9831ce54fec19055ce277ca2f39ba42c49060200160405180910390a2565b610f666110a5565b6001600160a01b03811660009081526002602052604090205460ff1615610fc25760405162461bcd60e51b815260206004820152601060248201526f20b63932b0b23c90309039b4b3b732b960811b60448201526064016104ea565b6001600160a01b0381166000908152600260205260408120805460ff191660011790556003805491610ff3836114bf565b90915550506040516001600160a01b038216907f47d1c22a25bb3a5d4e481b9b1e6944c2eade3181a0a20b495ed61d35b5323f2490600090a250565b6110376110a5565b6001600160a01b03811661109c5760405162461bcd60e51b815260206004820152602660248201527f4f776e61626c653a206e6577206f776e657220697320746865207a65726f206160448201526564647265737360d01b60648201526084016104ea565b6107838161123c565b6000546001600160a01b03163314610d4f5760405162461bcd60e51b815260206004820181905260248201527f4f776e61626c653a2063616c6c6572206973206e6f7420746865206f776e657260448201526064016104ea565b6002600154036111515760405162461bcd60e51b815260206004820152601f60248201527f5265656e7472616e637947756172643a207265656e7472616e742063616c6c0060448201526064016104ea565b6002600155565b600081516041146111ab5760405162461bcd60e51b815260206004820152601860248201527f496e76616c6964207369676e6174757265206c656e677468000000000000000060448201526064016104ea565b60208201516040830151606084015160001a601b8110156111d4576111d1601b826114d8565b90505b60408051600081526020810180835288905260ff831691810191909152606081018490526080810183905260019060a0016020604051602081039080840390855afa158015611227573d6000803e3d6000fd5b5050604051601f190151979650505050505050565b600080546001600160a01b038381166001600160a01b0319831681178455604051919092169283917f8be0079c531659141344cd1fd0a4f28419497f9722a3daafe3b4186f6b6457e09190a35050565b80356001600160a01b03811681146112a357600080fd5b919050565b6000602082840312156112ba57600080fd5b6112c38261128c565b9392505050565b6000602082840312156112dc57600080fd5b5035919050565b60008060008060008060a087890312156112fc57600080fd5b6113058761128c565b95506113136020880161128c565b94506040870135935060608701359250608087013567ffffffffffffffff8082111561133e57600080fd5b818901915089601f83011261135257600080fd5b81358181111561136157600080fd5b8a60208260051b850101111561137657600080fd5b6020830194508093505050509295509295509295565b6000806040838503121561139f57600080fd5b6113a88361128c565b946020939093013593505050565b600080604083850312156113c957600080fd5b6113d28361128c565b9150602083013580151581146113e757600080fd5b809150509250929050565b634e487b7160e01b600052601160045260246000fd5b600081611417576114176113f2565b506000190190565b80820180821115610632576106326113f2565b81810381811115610632576106326113f2565b634e487b7160e01b600052604160045260246000fd5b634e487b7160e01b600052603260045260246000fd5b6000808335601e1984360301811261148857600080fd5b83018035915067ffffffffffffffff8211156114a357600080fd5b6020019150368190038213156114b857600080fd5b9250929050565b6000600182016114d1576114d16113f2565b5060010190565b60ff8181168382160190811115610632576106326113f256fea2646970667358221220f4c5d64a2e603040987a2789f4e56a1c2e37a74d183a19be09c866f5e05eae4f64736f6c63430008140033",
  "linkReferences": {},
  "deployedLinkReferences": {}
}