{
  "_format": "hh-sol-artifact-1",
  "contractName": "MessageInbox",
  "sourceName": "contracts/bridge/MessageInbox.sol",
  "abi": [
    {
      "inputs": [
        {
          "internalType": "address",
          "name": "admin",
          "type": "address"
        }
      ],
      "stateMutability": "nonpayable",
      "type": "constructor"
    },
    {
      "anonymous": false,
      "inputs": [
        {
          "indexed": true,
          "internalType": "address",
          "name": "challenger",
          "type": "address"
        },
        {
          "indexed": false,
          "internalType": "uint256",
          "name": "amount",
          "type": "uint256"
        }
      ],
      "name": "BondDeposited",
      "type": "event"
    },
    {
      "anonymous": false,
      "inputs": [
        {
          "indexed": true,
          "internalType": "address",
          "name": "challenger",
          "type": "address"
        },
        {
          "indexed": false,
          "internalType": "uint256",
          "name": "amount",
          "type": "uint256"
        }
      ],
      "name": "BondRefunded",
      "type": "event"
    },
    {
      "anonymous": false,
      "inputs": [
        {
          "indexed": true,
          "internalType": "address",
          "name": "challenger",
          "type": "address"
        },
        {
          "indexed": false,
          "internalType": "uint256",
          "name": "amount",
          "type": "uint256"
        }
      ],
      "name": "BondSlashed",
      "type": "event"
    },
    {
      "anonymous": false,
      "inputs": [
        {
          "indexed": true,
          "internalType": "bytes32",
          "name": "messageId",
          "type": "bytes32"
        },
        {
          "indexed": false,
          "internalType": "bool",
          "name": "challengeSucceeded",
          "type": "bool"
        },
        {
          "indexed": false,
          "internalType": "address",
          "name": "challenger",
          "type": "address"
        }
      ],
      "name": "ChallengeResolved",
      "type": "event"
    },
    {
      "anonymous": false,
      "inputs": [
        {
          "indexed": true,
          "internalType": "bytes32",
          "name": "messageId",
          "type": "bytes32"
        },
        {
          "indexed": true,
          "internalType": "address",
          "name": "challenger",
          "type": "address"
        },
        {
          "indexed": false,
          "internalType": "string",
          "name": "reason",
          "type": "string"
        }
      ],
      "name": "MessageChallenged",
      "type": "event"
    },
    {
      "anonymous": false,
      "inputs": [
        {
          "indexed": true,
          "internalType": "bytes32",
          "name": "messageId",
          "type": "bytes32"
        },
        {
          "indexed": true,
          "internalType": "address",
          "name": "recipient",
          "type": "address"
        },
        {
          "indexed": false,
          "internalType": "uint256",
          "name": "amount",
          "type": "uint256"
        }
      ],
      "name": "MessageFinalized",
      "type": "event"
    },
    {
      "anonymous": false,
      "inputs": [
        {
          "indexed": true,
          "internalType": "bytes32",
          "name": "messageId",
          "type": "bytes32"
        },
        {
          "indexed": false,
          "internalType": "string",
          "name": "reason",
          "type": "string"
        }
      ],
      "name": "MessageReverted",
      "type": "event"
    },
    {
      "anonymous": false,
      "inputs": [
        {
          "indexed": true,
          "internalType": "bytes32",
          "name": "messageId",
          "type": "bytes32"
        },
        {
          "indexed": true,
          "internalType": "bytes32",
          "name": "intentHash",
          "type": "bytes32"
        },
        {
          "indexed": false,
          "internalType": "address",
          "name": "sender",
          "type": "address"
        },
        {
          "indexed": false,
          "internalType": "address",
          "name": "recipient",
          "type": "address"
        },
        {
          "indexed": false,
          "internalType": "uint256",
          "name": "amount",
          "type": "uint256"
        },
        {
          "indexed": false,
          "internalType": "uint256",
          "name": "challengePeriodEnd",
          "type": "uint256"
        }
      ],
      "name": "MessageSubmitted",
      "type": "event"
    },
    {
      "anonymous": false,
      "inputs": [
        {
          "indexed": false,
          "internalType": "address",
          "name": "account",
          "type": "address"
        }
      ],
      "name": "Paused",
      "type": "event"
    },
    {
      "anonymous": false,
      "inputs": [
        {
          "indexed": true,
          "internalType": "bytes32",
          "name": "role",
          "type": "bytes32"
        },
        {
          "indexed": true,
          "internalType": "bytes32",
          "name": "previousAdminRole",
          "type": "bytes32"
        },
        {
          "indexed": true,
          "internalType": "bytes32",
          "name": "newAdminRole",
          "type": "bytes32"
        }
      ],
      "name": "RoleAdminChanged",
      "type": "event"
    },
    {
      "anonymous": false,
      "inputs": [
        {
          "indexed": true,
          "internalType": "bytes32",
          "name": "role",
          "type": "bytes32"
        },
        {
          "indexed": true,
          "internalType": "address",
          "name": "account",
          "type": "address"
        },
        {
          "indexed": true,
          "internalType": "address",
          "name": "sender",
          "type": "address"
        }
      ],
      "name": "RoleGranted",
      "type": "event"
    },
    {
      "anonymous": false,
      "inputs": [
        {
          "indexed": true,
          "internalType": "bytes32",
          "name": "role",
          "type": "bytes32"
        },
        {
          "indexed": true,
          "internalType": "address",
          "name": "account",
          "type": "address"
        },
        {
          "indexed": true,
          "internalType": "address",
          "name": "sender",
          "type": "address"
        }
      ],
      "name": "RoleRevoked",
      "type": "event"
    },
    {
      "anonymous": false,
      "inputs": [
        {
          "indexed": false,
          "internalType": "address",
          "name": "account",
          "type": "address"
        }
      ],
      "name": "Unpaused",
      "type": "event"
    },
    {
      "inputs": [],
      "name": "CHALLENGER_ROLE",
      "outputs": [
        {
          "internalType": "bytes32",
          "name": "",
          "type": "bytes32"
        }
      ],
      "stateMutability": "view",
      "type": "function"
    },
    {
      "inputs": [],
      "name": "DEFAULT_ADMIN_ROLE",
      "outputs": [
        {
          "internalType": "bytes32",
          "name": "",
          "type": "bytes32"
        }
      ],
      "stateMutability": "view",
      "type": "function"
    },
    {
      "inputs": [],
      "name": "EXECUTOR_ROLE",
      "outputs": [
        {
          "internalType": "bytes32",
          "name": "",
          "type": "bytes32"
        }
      ],
      "stateMutability": "view",
      "type": "function"
    },
    {
      "inputs": [],
      "name": "MEDIUM_AMOUNT",
      "outputs": [
        {
          "internalType": "uint256",
          "name": "",
          "type": "uint256"
        }
      ],
      "stateMutability": "view",
      "type": "function"
    },
    {
      "inputs": [],
      "name": "SMALL_AMOUNT",
      "outputs": [
        {
          "internalType": "uint256",
          "name": "",
          "type": "uint256"
        }
      ],
      "stateMutability": "view",
      "type": "function"
    },
    {
      "inputs": [],
      "name": "TSS_ROLE",
      "outputs": [
        {
          "internalType": "bytes32",
          "name": "",
          "type": "bytes32"
        }
      ],
      "stateMutability": "view",
      "type": "function"
    },
    {
      "inputs": [
        {
          "internalType": "bytes32",
          "name": "messageId",
          "type": "bytes32"
        }
      ],
      "name": "canFinalize",
      "outputs": [
        {
          "internalType": "bool",
          "name": "",
          "type": "bool"
        }
      ],
      "stateMutability": "view",
      "type": "function"
    },
    {
      "inputs": [
        {
          "internalType": "bytes32",
          "name": "messageId",
          "type": "bytes32"
        },
        {
          "internalType": "string",
          "name": "reason",
          "type": "string"
        }
      ],
      "name": "challenge",
      "outputs": [],
      "stateMutability": "nonpayable",
      "type": "function"
    },
    {
      "inputs": [],
      "name": "challengerBondAmount",
      "outputs": [
        {
          "internalType": "uint256",
          "name": "",
          "type": "uint256"
        }
      ],
      "stateMutability": "view",
      "type": "function"
    },
    {
      "inputs": [
        {
          "internalType": "address",
          "name": "",
          "type": "address"
        }
      ],
      "name": "challengerBonds",
      "outputs": [
        {
          "internalType": "uint256",
          "name": "",
          "type": "uint256"
        }
      ],
      "stateMutability": "view",
      "type": "function"
    },
    {
      "inputs": [
        {
          "internalType": "bytes32",
          "name": "intentHash",
          "type": "bytes32"
        },
        {
          "internalType": "address",
          "name": "sender",
          "type": "address"
        },
        {
          "internalType": "address",
          "name": "recipient",
          "type": "address"
        },
        {
          "internalType": "uint256",
          "name": "amount",
          "type": "uint256"
        },
        {
          "internalType": "uint256",
          "name": "srcChainId",
          "type": "uint256"
        },
        {
          "internalType": "uint256",
          "name": "nonce",
          "type": "uint256"
        }
      ],
      "name": "computeMessageId",
      "outputs": [
        {
          "internalType": "bytes32",
          "name": "",
          "type": "bytes32"
        }
      ],
      "stateMutability": "pure",
      "type": "function"
    },
    {
      "inputs": [],
      "name": "depositBond",
      "outputs": [],
      "stateMutability": "payable",
      "type": "function"
    },
    {
      "inputs": [
        {
          "internalType": "bytes32",
          "name": "messageId",
          "type": "bytes32"
        }
      ],
      "name": "expireMessage",
      "outputs": [],
      "stateMutability": "nonpayable",
      "type": "function"
    },
    {
      "inputs": [
        {
          "internalType": "bytes32",
          "name": "messageId",
          "type": "bytes32"
        }
      ],
      "name": "finalize",
      "outputs": [
        {
          "internalType": "bool",
          "name": "",
          "type": "bool"
        }
      ],
      "stateMutability": "nonpayable",
      "type": "function"
    },
    {
      "inputs": [
        {
          "internalType": "uint256",
          "name": "amount",
          "type": "uint256"
        }
      ],
      "name": "getChallengePeriod",
      "outputs": [
        {
          "internalType": "uint256",
          "name": "",
          "type": "uint256"
        }
      ],
      "stateMutability": "view",
      "type": "function"
    },
    {
      "inputs": [
        {
          "internalType": "bytes32",
          "name": "messageId",
          "type": "bytes32"
        }
      ],
      "name": "getMessage",
      "outputs": [
        {
          "components": [
            {
              "internalType": "bytes32",
              "name": "intentHash",
              "type": "bytes32"
            },
            {
              "internalType": "address",
              "name": "sender",
              "type": "address"
            },
            {
              "internalType": "address",
              "name": "recipient",
              "type": "address"
            },
            {
              "internalType": "uint256",
              "name": "amount",
              "type": "uint256"
            },
            {
              "internalType": "uint256",
              "name": "srcChainId",
              "type": "uint256"
            },
            {
              "internalType": "uint256",
              "name": "dstChainId",
              "type": "uint256"
            },
            {
              "internalType": "uint256",
              "name": "nonce",
              "type": "uint256"
            },
            {
              "internalType": "uint256",
              "name": "submittedAt",
              "type": "uint256"
            },
            {
              "internalType": "uint256",
              "name": "challengePeriodEnd",
              "type": "uint256"
            },
            {
              "internalType": "enum MessageInbox.MessageStatus",
              "name": "status",
              "type": "uint8"
            },
            {
              "internalType": "address",
              "name": "challenger",
              "type": "address"
            },
            {
              "internalType": "string",
              "name": "challengeReason",
              "type": "string"
            }
          ],
          "internalType": "struct MessageInbox.BridgeMessage",
          "name": "",
          "type": "tuple"
        }
      ],
      "stateMutability": "view",
      "type": "function"
    },
    {
      "inputs": [
        {
          "internalType": "bytes32",
          "name": "role",
          "type": "bytes32"
        }
      ],
      "name": "getRoleAdmin",
      "outputs": [
        {
          "internalType": "bytes32",
          "name": "",
          "type": "bytes32"
        }
      ],
      "stateMutability": "view",
      "type": "function"
    },
    {
      "inputs": [],
      "name": "getSupplyStatus",
      "outputs": [
        {
          "internalType": "uint256",
          "name": "locked",
          "type": "uint256"
        },
        {
          "internalType": "uint256",
          "name": "minted",
          "type": "uint256"
        },
        {
          "internalType": "bool",
          "name": "balanced",
          "type": "bool"
        }
      ],
      "stateMutability": "view",
      "type": "function"
    },
    {
      "inputs": [
        {
          "internalType": "bytes32",
          "name": "role",
          "type": "bytes32"
        },
        {
          "internalType": "address",
          "name": "account",
          "type": "address"
        }
      ],
      "name": "grantRole",
      "outputs": [],
      "stateMutability": "nonpayable",
      "type": "function"
    },
    {
      "inputs": [
        {
          "internalType": "bytes32",
          "name": "role",
          "type": "bytes32"
        },
        {
          "internalType": "address",
          "name": "account",
          "type": "address"
        }
      ],
      "name": "hasRole",
      "outputs": [
        {
          "internalType": "bool",
          "name": "",
          "type": "bool"
        }
      ],
      "stateMutability": "view",
      "type": "function"
    },
    {
      "inputs": [],
      "name": "largeChallengePeriod",
      "outputs": [
        {
          "internalType": "uint256",
          "name": "",
          "type": "uint256"
        }
      ],
      "stateMutability": "view",
      "type": "function"
    },
    {
      "inputs": [],
      "name": "mediumChallengePeriod",
      "outputs": [
        {
          "internalType": "uint256",
          "name": "",
          "type": "uint256"
        }
      ],
      "stateMutability": "view",
      "type": "function"
    },
    {
      "inputs": [
        {
          "internalType": "bytes32",
          "name": "",
          "type": "bytes32"
        }
      ],
      "name": "messages",
      "outputs": [
        {
          "internalType": "bytes32",
          "name": "intentHash",
          "type": "bytes32"
        },
        {
          "internalType": "address",
          "name": "sender",
          "type": "address"
        },
        {
          "internalType": "address",
          "name": "recipient",
          "type": "address"
        },
        {
          "internalType": "uint256",
          "name": "amount",
          "type": "uint256"
        },
        {
          "internalType": "uint256",
          "name": "srcChainId",
          "type": "uint256"
        },
        {
          "internalType": "uint256",
          "name": "dstChainId",
          "type": "uint256"
        },
        {
          "internalType": "uint256",
          "name": "nonce",
          "type": "uint256"
        },
        {
          "internalType": "uint256",
          "name": "submittedAt",
          "type": "uint256"
        },
        {
          "internalType": "uint256",
          "name": "challengePeriodEnd",
          "type": "uint256"
        },
        {
          "internalType": "enum MessageInbox.MessageStatus",
          "name": "status",
          "type": "uint8"
        },
        {
          "internalType": "address",
          "name": "challenger",
          "type": "address"
        },
        {
          "internalType": "string",
          "name": "challengeReason",
          "type": "string"
        }
      ],
      "stateMutability": "view",
      "type": "function"
    },
    {
      "inputs": [],
      "name": "pause",
      "outputs": [],
      "stateMutability": "nonpayable",
      "type": "function"
    },
    {
      "inputs": [],
      "name": "paused",
      "outputs": [
        {
          "internalType": "bool",
          "name": "",
          "type": "bool"
        }
      ],
      "stateMutability": "view",
      "type": "function"
    },
    {
      "inputs": [
        {
          "internalType": "uint256",
          "name": "amount",
          "type": "uint256"
        }
      ],
      "name": "recordLock",
      "outputs": [],
      "stateMutability": "nonpayable",
      "type": "function"
    },
    {
      "inputs": [
        {
          "internalType": "bytes32",
          "name": "role",
          "type": "bytes32"
        },
        {
          "internalType": "address",
          "name": "account",
          "type": "address"
        }
      ],
      "name": "renounceRole",
      "outputs": [],
      "stateMutability": "nonpayable",
      "type": "function"
    },
    {
      "inputs": [
        {
          "internalType": "bytes32",
          "name": "messageId",
          "type": "bytes32"
        },
        {
          "internalType": "bool",
          "name": "challengeValid",
          "type": "bool"
        }
      ],
      "name": "resolveChallenge",
      "outputs": [],
      "stateMutability": "nonpayable",
      "type": "function"
    },
    {
      "inputs": [
        {
          "internalType": "bytes32",
          "name": "role",
          "type": "bytes32"
        },
        {
          "internalType": "address",
          "name": "account",
          "type": "address"
        }
      ],
      "name": "revokeRole",
      "outputs": [],
      "stateMutability": "nonpayable",
      "type": "function"
    },
    {
      "inputs": [
        {
          "internalType": "uint256",
          "name": "amount",
          "type": "uint256"
        }
      ],
      "name": "setChallengeBond",
      "outputs": [],
      "stateMutability": "nonpayable",
      "type": "function"
    },
    {
      "inputs": [
        {
          "internalType": "uint256",
          "name": "small",
          "type": "uint256"
        },
        {
          "internalType": "uint256",
          "name": "medium",
          "type": "uint256"
        },
        {
          "internalType": "uint256",
          "name": "large",
          "type": "uint256"
        }
      ],
      "name": "setChallengePeriods",
      "outputs": [],
      "stateMutability": "nonpayable",
      "type": "function"
    },
    {
      "inputs": [],
      "name": "smallChallengePeriod",
      "outputs": [
        {
          "internalType": "uint256",
          "name": "",
          "type": "uint256"
        }
      ],
      "stateMutability": "view",
      "type": "function"
    },
    {
      "inputs": [
        {
          "internalType": "bytes32",
          "name": "intentHash",
          "type": "bytes32"
        },
        {
          "internalType": "address",
          "name": "sender",
          "type": "address"
        },
        {
          "internalType": "address",
          "name": "recipient",
          "type": "address"
        },
        {
          "internalType": "uint256",
          "name": "amount",
          "type": "uint256"
        },
        {
          "internalType": "uint256",
          "name": "srcChainId",
          "type": "uint256"
        },
        {
          "internalType": "uint256",
          "name": "nonce",
          "type": "uint256"
        }
      ],
      "name": "submitPending",
      "outputs": [
        {
          "internalType": "bytes32",
          "name": "",
          "type": "bytes32"
        }
      ],
      "stateMutability": "nonpayable",
      "type": "function"
    },
    {
      "inputs": [
        {
          "internalType": "bytes4",
          "name": "interfaceId",
          "type": "bytes4"
        }
      ],
      "name": "supportsInterface",
      "outputs": [
        {
          "internalType": "bool",
          "name": "",
          "type": "bool"
        }
      ],
      "stateMutability": "view",
      "type": "function"
    },
    {
      "inputs": [],
      "name": "totalChallenged",
      "outputs": [
        {
          "internalType": "uint256",
          "name": "",
          "type": "uint256"
        }
      ],
      "stateMutability": "view",
      "type": "function"
    },
    {
      "inputs": [],
      "name": "totalFinalized",
      "outputs": [
        {
          "internalType": "uint256",
          "name": "",
          "type": "uint256"
        }
      ],
      "stateMutability": "view",
      "type": "function"
    },
    {
      "inputs": [],
      "name": "totalLockedOnSource",
      "outputs": [
        {
          "internalType": "uint256",
          "name": "",
          "type": "uint256"
        }
      ],
      "stateMutability": "view",
      "type": "function"
    },
    {
      "inputs": [],
      "name": "totalMintedOnDest",
      "outputs": [
        {
          "internalType": "uint256",
          "name": "",
          "type": "uint256"
        }
      ],
      "stateMutability": "view",
      "type": "function"
    },
    {
      "inputs": [],
      "name": "totalPending",
      "outputs": [
        {
          "internalType": "uint256",
          "name": "",
          "type": "uint256"
        }
      ],
      "stateMutability": "view",
      "type": "function"
    },
    {
      "inputs": [],
      "name": "totalReverted",
      "outputs": [
        {
          "internalType": "uint256",
          "name": "",
          "type": "uint256"
        }
      ],
      "stateMutability": "view",
      "type": "function"
    },
    {
      "inputs": [],
      "name": "unpause",
      "outputs": [],
      "stateMutability": "nonpayable",
      "type": "function"
    },
    {
      "inputs": [
        {
          "internalType": "uint256",
          "name": "amount",
          "type": "uint256"
        }
      ],
      "name": "withdrawBond",
      "outputs": [],
      "stateMutability": "nonpayable",
      "type": "function"
    },
    {
      "stateMutability": "payable",
      "type": "receive"
    }
  ],
  "bytecode": "0x6080604052610258600b55610708600c55611c20600d5567016345785d8a0000600e553480156200002f57600080fd5b506040516200283d3803806200283d833981016040819052620000529162000199565b600180556002805460ff191690556200006d600082620000f8565b620000997f0da06bffcb63442de88b7f8385468eaf51e47079d4fa96875938e2c27c451deb82620000f8565b620000c57fe752add323323eb13e36c71ee508dfd16d74e9e4c4fd78786ba97989e5e1381882620000f8565b620000f17fd8aa0f3194971a2a116679f7c2090f6939c8d4e01a2a8d7e41d55e5351469e6382620000f8565b50620001cb565b6000828152602081815260408083206001600160a01b038516845290915290205460ff1662000195576000828152602081815260408083206001600160a01b03851684529091529020805460ff19166001179055620001543390565b6001600160a01b0316816001600160a01b0316837f2f8788117e7eff1d82e926ec794901d17c78024a50270940304540a733656f0d60405160405180910390a45b5050565b600060208284031215620001ac57600080fd5b81516001600160a01b0381168114620001c457600080fd5b9392505050565b61266280620001db6000396000f3fe6080604052600436106102555760003560e01c8063741b3c3911610139578063a783c789116100b6578063d547741f1161007a578063d547741f146106f5578063daa21f4314610715578063db524c3d14610735578063fa74161a14610752578063fce54c9914610768578063ff6292b51461079c57600080fd5b8063a783c78914610655578063bd65852214610689578063c0e769621461069f578063c3daab96146106b5578063cb852ce7146106d557600080fd5b80638d88f0d3116100fd5780638d88f0d3146105c257806391d14854146105e257806392584d8014610602578063a119d2f814610622578063a217fddf1461064057600080fd5b8063741b3c3914610559578063790b36c8146105615780637d89122d146105775780638456cb5914610597578063893c8794146105ac57600080fd5b806336568abe116101d257806343cffefe1161019657806343cffefe146104a15780635307a0e6146104c1578063530adbb4146104e15780635c975abb146105155780636555c1c71461052d5780636b7b99e31461054357600080fd5b806336568abe146104095780633e507214146104295780633e5fb057146104495780633f4ba83a146104765780633f90916a1461048b57600080fd5b8063248a9ca311610219578063248a9ca31461034b5780632bbd59ca1461037b5780632f2ff15d146103b357806330b30788146103d3578063322e7200146103f357600080fd5b80630139a2211461026157806301ffc9a71461029757806307bd0265146102c757806318c281a6146103095780631da1b9941461032b57600080fd5b3661025c57005b600080fd5b34801561026d57600080fd5b5061028161027c366004611e5f565b6107b2565b60405161028e9190611f00565b60405180910390f35b3480156102a357600080fd5b506102b76102b2366004611fd5565b610928565b604051901515815260200161028e565b3480156102d357600080fd5b506102fb7fd8aa0f3194971a2a116679f7c2090f6939c8d4e01a2a8d7e41d55e5351469e6381565b60405190815260200161028e565b34801561031557600080fd5b50610329610324366004611e5f565b61095f565b005b34801561033757600080fd5b50610329610346366004611fff565b610970565b34801561035757600080fd5b506102fb610366366004611e5f565b60009081526020819052604090206001015490565b34801561038757600080fd5b5061039b610396366004611e5f565b61098a565b60405161028e9c9b9a9998979695949392919061202b565b3480156103bf57600080fd5b506103296103ce3660046120c3565b610a8b565b3480156103df57600080fd5b506102fb6103ee3660046120ef565b610ab5565b3480156103ff57600080fd5b506102fb60085481565b34801561041557600080fd5b506103296104243660046120c3565b610b16565b34801561043557600080fd5b506102fb6104443660046120ef565b610b99565b34801561045557600080fd5b506102fb610464366004612147565b60046020526000908152604090205481565b34801561048257600080fd5b50610329610ef7565b34801561049757600080fd5b506102fb60055481565b3480156104ad57600080fd5b506103296104bc366004612162565b610f0d565b3480156104cd57600080fd5b506103296104dc366004611e5f565b61110e565b3480156104ed57600080fd5b506102fb7fe752add323323eb13e36c71ee508dfd16d74e9e4c4fd78786ba97989e5e1381881565b34801561052157600080fd5b5060025460ff166102b7565b34801561053957600080fd5b506102fb60075481565b34801561054f57600080fd5b506102fb600e5481565b610329611153565b34801561056d57600080fd5b506102fb60095481565b34801561058357600080fd5b506103296105923660046121de565b6111f6565b3480156105a357600080fd5b506103296114ef565b3480156105b857600080fd5b506102fb60065481565b3480156105ce57600080fd5b506102b76105dd366004611e5f565b611502565b3480156105ee57600080fd5b506102b76105fd3660046120c3565b611543565b34801561060e57600080fd5b506102b761061d366004611e5f565b61156c565b34801561062e57600080fd5b506102fb69021e19e0c9bab240000081565b34801561064c57600080fd5b506102fb600081565b34801561066157600080fd5b506102fb7f0da06bffcb63442de88b7f8385468eaf51e47079d4fa96875938e2c27c451deb81565b34801561069557600080fd5b506102fb600d5481565b3480156106ab57600080fd5b506102fb600b5481565b3480156106c157600080fd5b506103296106d0366004611e5f565b6116ed565b3480156106e157600080fd5b506102fb6106f0366004611e5f565b611835565b34801561070157600080fd5b506103296107103660046120c3565b611877565b34801561072157600080fd5b50610329610730366004611e5f565b61189c565b34801561074157600080fd5b506102fb683635c9adc5dea0000081565b34801561075e57600080fd5b506102fb600c5481565b34801561077457600080fd5b50600954600a548082101560408051938452602084019290925215159082015260600161028e565b3480156107a857600080fd5b506102fb600a5481565b6107ba611dd8565b6000828152600360208181526040928390208351610180810185528154815260018201546001600160a01b03908116938201939093526002820154909216938201939093529082015460608201526004820154608082015260058083015460a0830152600683015460c0830152600783015460e08301526008830154610100830152600983015491929161012084019160ff9091169081111561085f5761085f611e78565b600581111561087057610870611e78565b8152600982015461010090046001600160a01b03166020820152600a8201805460409092019161089f90612213565b80601f01602080910402602001604051908101604052809291908181526020018280546108cb90612213565b80156109185780601f106108ed57610100808354040283529160200191610918565b820191906000526020600020905b8154815290600101906020018083116108fb57829003601f168201915b5050505050815250509050919050565b60006001600160e01b03198216637965db0b60e01b148061095957506301ffc9a760e01b6001600160e01b03198316145b92915050565b600061096a81611965565b50600e55565b600061097b81611965565b50600b92909255600c55600d55565b600360208190526000918252604090912080546001820154600283015493830154600484015460058501546006860154600787015460088801546009890154600a8a018054999b6001600160a01b03998a169b908a169a98999798969795969495939460ff84169461010090940490931692909190610a0890612213565b80601f0160208091040260200160405190810160405280929190818152602001828054610a3490612213565b8015610a815780601f10610a5657610100808354040283529160200191610a81565b820191906000526020600020905b815481529060010190602001808311610a6457829003601f168201915b505050505090508c565b600082815260208190526040902060010154610aa681611965565b610ab0838361196f565b505050565b604080516020808201989098526bffffffffffffffffffffffff19606097881b8116828401529590961b90941660548601526068850192909252608884015260a8808401919091528151808403909101815260c89092019052805191012090565b6001600160a01b0381163314610b8b5760405162461bcd60e51b815260206004820152602f60248201527f416363657373436f6e74726f6c3a2063616e206f6e6c792072656e6f756e636560448201526e103937b632b9903337b91039b2b63360891b60648201526084015b60405180910390fd5b610b9582826119f3565b5050565b60007f0da06bffcb63442de88b7f8385468eaf51e47079d4fa96875938e2c27c451deb610bc581611965565b610bcd611a58565b6000610bdd898989898989610ab5565b90506000808281526003602052604090206009015460ff166005811115610c0657610c06611e78565b14610c4c5760405162461bcd60e51b81526020600482015260166024820152754d65737361676520616c72656164792065786973747360501b6044820152606401610b82565b6001600160a01b038716610c965760405162461bcd60e51b8152602060048201526011602482015270125b9d985b1a59081c9958da5c1a595b9d607a1b6044820152606401610b82565b60008611610cd75760405162461bcd60e51b815260206004820152600e60248201526d125b9d985b1a5908185b5bdd5b9d60921b6044820152606401610b82565b6000610ce287611835565b90506000610cf0824261225d565b90506040518061018001604052808c81526020018b6001600160a01b031681526020018a6001600160a01b0316815260200189815260200188815260200146815260200187815260200142815260200182815260200160016005811115610d5957610d59611e78565b815260006020808301829052604080518083018252838152938101939093528682526003808252918390208451815590840151600180830180546001600160a01b039384166001600160a01b031991821617909155948601516002840180549190931695169490941790556060840151918101919091556080830151600482015560a083015160058083019190915560c0840151600683015560e08401516007830155610100840151600883015561012084015160098301805493949193909260ff1990911691908490811115610e3257610e32611e78565b02179055506101408201516009820180546001600160a01b0390921661010002610100600160a81b0319909216919091179055610160820151600a820190610e7a90826122d4565b50506005805491506000610e8d83612394565b9091555050604080516001600160a01b03808d1682528b166020820152908101899052606081018290528b9084907fc5c5f15798b6677a6bbfec542624847c6fbbf7dc8c7639d9ad9e4c09dd8177b49060800160405180910390a350909998505050505050505050565b6000610f0281611965565b610f0a611aa0565b50565b7fe752add323323eb13e36c71ee508dfd16d74e9e4c4fd78786ba97989e5e13818610f3781611965565b60008481526003602052604090206001600982015460ff166005811115610f6057610f60611e78565b14610f7d5760405162461bcd60e51b8152600401610b82906123ad565b80600801544210610fc95760405162461bcd60e51b815260206004820152601660248201527510da185b1b195b99d9481c195c9a5bd908195b99195960521b6044820152606401610b82565b600e5433600090815260046020526040902054101561101e5760405162461bcd60e51b8152602060048201526011602482015270125b9cdd59999a58da595b9d08189bdb99607a1b6044820152606401610b82565b821580159061102f57506101008311155b61106c5760405162461bcd60e51b815260206004820152600e60248201526d24b73b30b634b2103932b0b9b7b760911b6044820152606401610b82565b60098101805461010033026001600160a81b0319909116176002179055600a81016110988486836123d2565b50600880549060006110a983612394565b9091555050600580549060006110be83612493565b9190505550336001600160a01b0316857fd198af54ec401d239ad2ffe2b5584e468e433098297698ece350db6ba36cc0ef86866040516110ff9291906124aa565b60405180910390a35050505050565b7fd8aa0f3194971a2a116679f7c2090f6939c8d4e01a2a8d7e41d55e5351469e6361113881611965565b816009600082825461114a919061225d565b90915550505050565b6000341161119b5760405162461bcd60e51b81526020600482015260156024820152744d757374206465706f736974206e6f6e2d7a65726f60581b6044820152606401610b82565b33600090815260046020526040812080543492906111ba90849061225d565b909155505060405134815233907f8ed8c6869618197b68315ade66e75ed3906c97b111fa3ab81e5760046825c7db9060200160405180910390a2565b600061120181611965565b60008381526003602052604090206002600982015460ff16600581111561122a5761122a611e78565b146112685760405162461bcd60e51b815260206004820152600e60248201526d139bdd0818da185b1b195b99d95960921b6044820152606401610b82565b600981015461010090046001600160a01b031683156113d35760098201805460ff19166004179055600780549060006112a083612394565b90915550506001600160a01b038116600081815260046020526040808220805490839055905190929083908381818185875af1925050503d8060008114611303576040519150601f19603f3d011682016040523d82523d6000602084013e611308565b606091505b505090508061134e5760405162461bcd60e51b8152602060048201526012602482015271109bdb99081c99599d5b990819985a5b195960721b6044820152606401610b82565b826001600160a01b03167f22060b72514e6ca1f5724d27d0d1668d9521aae214c78c1b9fa411e4401dddd18360405161138991815260200190565b60405180910390a2867f2c2f8b0ec5c656be0529494dea88d5c2ba8b1fd74d8ffae2822013828203541f85600a016040516113c491906124d9565b60405180910390a250506114a3565b6009820180546001600160a81b0319166001179055604080516020810190915260008152600a83019061140690826122d4565b506114148260030154611835565b61141e904261225d565b600880840191909155805490600061143583612493565b90915550506005805490600061144a83612394565b90915550506001600160a01b03811660008181526004602090815260408083208054939055518281529192917f9c78aa0eb382c004d853205ff9929a2caed00de0cdd490849c8b84d7f461a39d910160405180910390a2505b6040805185151581526001600160a01b038316602082015286917f92380ceb902abc1fa2ff7d6bafebd3e32c266fbfd953d057aad8db65c014a9ef910160405180910390a25050505050565b60006114fa81611965565b610f0a611af2565b60008181526003602052604081206001600982015460ff16600581111561152b5761152b611e78565b14801561153c575080600801544210155b9392505050565b6000918252602082815260408084206001600160a01b0393909316845291905290205460ff1690565b60007fd8aa0f3194971a2a116679f7c2090f6939c8d4e01a2a8d7e41d55e5351469e6361159881611965565b6115a0611b2f565b60008381526003602052604090206001600982015460ff1660058111156115c9576115c9611e78565b146115e65760405162461bcd60e51b8152600401610b82906123ad565b806008015442101561163a5760405162461bcd60e51b815260206004820152601a60248201527f4368616c6c656e676520706572696f64206e6f7420656e6465640000000000006044820152606401610b82565b60098101805460ff191660031790556006805490600061165983612394565b90915550506005805490600061166e83612493565b91905055508060030154600a6000828254611689919061225d565b9091555050600281015460038201546040519081526001600160a01b039091169085907f98188a653da6c5eb88a10ed9ad19ab954fa42d5ec5ec2f9ba70b93bf7bd230279060200160405180910390a360019250506116e760018055565b50919050565b6116f5611b2f565b336000908152600460205260409020548111156117485760405162461bcd60e51b8152602060048201526011602482015270125b9cdd59999a58da595b9d08189bdb99607a1b6044820152606401610b82565b3360009081526004602052604081208054839290611767908490612564565b9091555050604051600090339083908381818185875af1925050503d80600081146117ae576040519150601f19603f3d011682016040523d82523d6000602084013e6117b3565b606091505b50509050806117f65760405162461bcd60e51b815260206004820152600f60248201526e15da5d1a191c985dc819985a5b1959608a1b6044820152606401610b82565b60405182815233907f22060b72514e6ca1f5724d27d0d1668d9521aae214c78c1b9fa411e4401dddd19060200160405180910390a250610f0a60018055565b6000683635c9adc5dea00000821015611850575050600b5490565b69021e19e0c9bab240000082101561186a575050600c5490565b5050600d5490565b919050565b60008281526020819052604090206001015461189281611965565b610ab083836119f3565b60006118a781611965565b60008281526003602052604090206001600982015460ff1660058111156118d0576118d0611e78565b146118ed5760405162461bcd60e51b8152600401610b82906123ad565b60078101546118ff9062093a8061225d565b421161193b5760405162461bcd60e51b815260206004820152600b60248201526a139bdd08195e1c1a5c995960aa1b6044820152606401610b82565b60098101805460ff19166005908117909155805490600061195b83612493565b9190505550505050565b610f0a8133611b88565b6119798282611543565b610b95576000828152602081815260408083206001600160a01b03851684529091529020805460ff191660011790556119af3390565b6001600160a01b0316816001600160a01b0316837f2f8788117e7eff1d82e926ec794901d17c78024a50270940304540a733656f0d60405160405180910390a45050565b6119fd8282611543565b15610b95576000828152602081815260408083206001600160a01b0385168085529252808320805460ff1916905551339285917ff6391f5c32d9c69d2a47ea670b442974b53935d1edc7fd64eb21e047a839171b9190a45050565b60025460ff1615611a9e5760405162461bcd60e51b815260206004820152601060248201526f14185d5cd8589b194e881c185d5cd95960821b6044820152606401610b82565b565b611aa8611be1565b6002805460ff191690557f5db9ee0a495bf2e6ff9c91a7834c1ba4fdd244a5e8aa4e537bd38aeae4b073aa335b6040516001600160a01b03909116815260200160405180910390a1565b611afa611a58565b6002805460ff191660011790557f62e78cea01bee320cd4e420270b5ea74000d11b0c9f74754ebdbfc544b05a258611ad53390565b600260015403611b815760405162461bcd60e51b815260206004820152601f60248201527f5265656e7472616e637947756172643a207265656e7472616e742063616c6c006044820152606401610b82565b6002600155565b611b928282611543565b610b9557611b9f81611c2a565b611baa836020611c3c565b604051602001611bbb929190612577565b60408051601f198184030181529082905262461bcd60e51b8252610b82916004016125ec565b60025460ff16611a9e5760405162461bcd60e51b815260206004820152601460248201527314185d5cd8589b194e881b9bdd081c185d5cd95960621b6044820152606401610b82565b60606109596001600160a01b03831660145b60606000611c4b8360026125ff565b611c5690600261225d565b67ffffffffffffffff811115611c6e57611c6e612270565b6040519080825280601f01601f191660200182016040528015611c98576020820181803683370190505b509050600360fc1b81600081518110611cb357611cb3612616565b60200101906001600160f81b031916908160001a905350600f60fb1b81600181518110611ce257611ce2612616565b60200101906001600160f81b031916908160001a9053506000611d068460026125ff565b611d1190600161225d565b90505b6001811115611d89576f181899199a1a9b1b9c1cb0b131b232b360811b85600f1660108110611d4557611d45612616565b1a60f81b828281518110611d5b57611d5b612616565b60200101906001600160f81b031916908160001a90535060049490941c93611d8281612493565b9050611d14565b50831561153c5760405162461bcd60e51b815260206004820181905260248201527f537472696e67733a20686578206c656e67746820696e73756666696369656e746044820152606401610b82565b6040518061018001604052806000801916815260200160006001600160a01b0316815260200160006001600160a01b0316815260200160008152602001600081526020016000815260200160008152602001600081526020016000815260200160006005811115611e4b57611e4b611e78565b815260006020820152606060409091015290565b600060208284031215611e7157600080fd5b5035919050565b634e487b7160e01b600052602160045260246000fd5b60068110611eac57634e487b7160e01b600052602160045260246000fd5b9052565b60005b83811015611ecb578181015183820152602001611eb3565b50506000910152565b60008151808452611eec816020860160208601611eb0565b601f01601f19169290920160200192915050565b602081528151602082015260006020830151611f2760408401826001600160a01b03169052565b5060408301516001600160a01b03811660608401525060608301516080830152608083015160a083015260a083015160c083015260c083015160e083015260e0830151610100818185015280850151915050610120818185015280850151915050610140611f9781850183611e8e565b8401519050610160611fb3848201836001600160a01b03169052565b840151610180848101529050611fcd6101a0840182611ed4565b949350505050565b600060208284031215611fe757600080fd5b81356001600160e01b03198116811461153c57600080fd5b60008060006060848603121561201457600080fd5b505081359360208301359350604090920135919050565b60006101808e835260018060a01b03808f166020850152808e1660408501528c60608501528b60808501528a60a08501528960c08501528860e08501528761010085015261207d610120850188611e8e565b8516610140840152610160830181905261209981840185611ed4565b9f9e505050505050505050505050505050565b80356001600160a01b038116811461187257600080fd5b600080604083850312156120d657600080fd5b823591506120e6602084016120ac565b90509250929050565b60008060008060008060c0878903121561210857600080fd5b86359550612118602088016120ac565b9450612126604088016120ac565b9350606087013592506080870135915060a087013590509295509295509295565b60006020828403121561215957600080fd5b61153c826120ac565b60008060006040848603121561217757600080fd5b83359250602084013567ffffffffffffffff8082111561219657600080fd5b818601915086601f8301126121aa57600080fd5b8135818111156121b957600080fd5b8760208285010111156121cb57600080fd5b6020830194508093505050509250925092565b600080604083850312156121f157600080fd5b823591506020830135801515811461220857600080fd5b809150509250929050565b600181811c9082168061222757607f821691505b6020821081036116e757634e487b7160e01b600052602260045260246000fd5b634e487b7160e01b600052601160045260246000fd5b8082018082111561095957610959612247565b634e487b7160e01b600052604160045260246000fd5b601f821115610ab057600081815260208120601f850160051c810160208610156122ad5750805b601f850160051c820191505b818110156122cc578281556001016122b9565b505050505050565b815167ffffffffffffffff8111156122ee576122ee612270565b612302816122fc8454612213565b84612286565b602080601f831160018114612337576000841561231f5750858301515b600019600386901b1c1916600185901b1785556122cc565b600085815260208120601f198616915b8281101561236657888601518255948401946001909101908401612347565b50858210156123845787850151600019600388901b60f8161c191681555b5050505050600190811b01905550565b6000600182016123a6576123a6612247565b5060010190565b6020808252600b908201526a4e6f742070656e64696e6760a81b604082015260600190565b67ffffffffffffffff8311156123ea576123ea612270565b6123fe836123f88354612213565b83612286565b6000601f841160018114612432576000851561241a5750838201355b600019600387901b1c1916600186901b17835561248c565b600083815260209020601f19861690835b828110156124635786850135825560209485019460019092019101612443565b50868210156124805760001960f88860031b161c19848701351681555b505060018560011b0183555b5050505050565b6000816124a2576124a2612247565b506000190190565b60208152816020820152818360408301376000818301604090810191909152601f909201601f19160101919050565b60006020808352600084546124ed81612213565b8084870152604060018084166000811461250e576001811461252857612556565b60ff1985168984015283151560051b890183019550612556565b896000528660002060005b8581101561254e5781548b8201860152908301908801612533565b8a0184019650505b509398975050505050505050565b8181038181111561095957610959612247565b7f416363657373436f6e74726f6c3a206163636f756e74200000000000000000008152600083516125af816017850160208801611eb0565b7001034b99036b4b9b9b4b733903937b6329607d1b60179184019182015283516125e0816028840160208801611eb0565b01602801949350505050565b60208152600061153c6020830184611ed4565b808202811582820484141761095957610959612247565b634e487b7160e01b600052603260045260246000fdfea264697066735822122011fb5f8d1f01c5c1d09e4ab6076df7d8d495438675adc6a21e872f1cd1cf181264736f6c63430008140033",
  "linkReferences": {},
  "deployedLinkReferences": {}
}