{
  "_format": "hh-sol-artifact-1",
  "contractName": "BridgeStakingNative",
  "sourceName": "contracts/BridgeStakingNative.sol",
  "abi": [
    {
      "inputs": [],
      "stateMutability": "nonpayable",
      "type": "constructor"
    },
    {
      "anonymous": false,
      "inputs": [
        {
          "indexed": true,
          "internalType": "address",
          "name": "oldBridge",
          "type": "address"
        },
        {
          "indexed": true,
          "internalType": "address",
          "name": "newBridge",
          "type": "address"
        }
      ],
      "name": "BridgeUpdated",
      "type": "event"
    },
    {
      "anonymous": false,
      "inputs": [
        {
          "indexed": false,
          "internalType": "uint256",
          "name": "amount",
          "type": "uint256"
        }
      ],
      "name": "FeesDeposited",
      "type": "event"
    },
    {
      "anonymous": false,
      "inputs": [
        {
          "indexed": true,
          "internalType": "address",
          "name": "previousOwner",
          "type": "address"
        },
        {
          "indexed": true,
          "internalType": "address",
          "name": "newOwner",
          "type": "address"
        }
      ],
      "name": "OwnershipTransferred",
      "type": "event"
    },
    {
      "anonymous": false,
      "inputs": [
        {
          "indexed": false,
          "internalType": "uint256",
          "name": "amount",
          "type": "uint256"
        },
        {
          "indexed": false,
          "internalType": "uint256",
          "name": "newBalance",
          "type": "uint256"
        }
      ],
      "name": "RewardPoolFunded",
      "type": "event"
    },
    {
      "anonymous": false,
      "inputs": [
        {
          "indexed": false,
          "internalType": "uint256",
          "name": "amount",
          "type": "uint256"
        },
        {
          "indexed": false,
          "internalType": "uint256",
          "name": "newBalance",
          "type": "uint256"
        }
      ],
      "name": "RewardPoolWithdrawn",
      "type": "event"
    },
    {
      "anonymous": false,
      "inputs": [
        {
          "indexed": true,
          "internalType": "address",
          "name": "validator",
          "type": "address"
        },
        {
          "indexed": false,
          "internalType": "uint256",
          "name": "amount",
          "type": "uint256"
        }
      ],
      "name": "RewardsClaimed",
      "type": "event"
    },
    {
      "anonymous": false,
      "inputs": [
        {
          "indexed": false,
          "internalType": "uint256",
          "name": "accRewardPerShare",
          "type": "uint256"
        },
        {
          "indexed": false,
          "internalType": "uint256",
          "name": "totalRewardsPaid",
          "type": "uint256"
        }
      ],
      "name": "RewardsUpdated",
      "type": "event"
    },
    {
      "anonymous": false,
      "inputs": [
        {
          "indexed": true,
          "internalType": "address",
          "name": "validator",
          "type": "address"
        },
        {
          "indexed": false,
          "internalType": "uint256",
          "name": "amount",
          "type": "uint256"
        },
        {
          "indexed": true,
          "internalType": "address",
          "name": "slasher",
          "type": "address"
        }
      ],
      "name": "Slashed",
      "type": "event"
    },
    {
      "anonymous": false,
      "inputs": [
        {
          "indexed": true,
          "internalType": "address",
          "name": "validator",
          "type": "address"
        },
        {
          "indexed": false,
          "internalType": "uint256",
          "name": "amount",
          "type": "uint256"
        },
        {
          "indexed": false,
          "internalType": "uint256",
          "name": "totalStaked",
          "type": "uint256"
        }
      ],
      "name": "Staked",
      "type": "event"
    },
    {
      "anonymous": false,
      "inputs": [
        {
          "indexed": false,
          "internalType": "uint256",
          "name": "apyBasisPoints",
          "type": "uint256"
        }
      ],
      "name": "TargetAPYSet",
      "type": "event"
    },
    {
      "anonymous": false,
      "inputs": [
        {
          "indexed": true,
          "internalType": "address",
          "name": "validator",
          "type": "address"
        },
        {
          "indexed": false,
          "internalType": "uint256",
          "name": "amount",
          "type": "uint256"
        },
        {
          "indexed": false,
          "internalType": "uint256",
          "name": "unlockTime",
          "type": "uint256"
        }
      ],
      "name": "UnstakeRequested",
      "type": "event"
    },
    {
      "anonymous": false,
      "inputs": [
        {
          "indexed": true,
          "internalType": "address",
          "name": "validator",
          "type": "address"
        }
      ],
      "name": "ValidatorActivated",
      "type": "event"
    },
    {
      "anonymous": false,
      "inputs": [
        {
          "indexed": true,
          "internalType": "address",
          "name": "validator",
          "type": "address"
        }
      ],
      "name": "ValidatorDeactivated",
      "type": "event"
    },
    {
      "anonymous": false,
      "inputs": [
        {
          "indexed": true,
          "internalType": "address",
          "name": "validator",
          "type": "address"
        },
        {
          "indexed": false,
          "internalType": "uint256",
          "name": "amount",
          "type": "uint256"
        }
      ],
      "name": "Withdrawn",
      "type": "event"
    },
    {
      "inputs": [],
      "name": "COOLDOWN_PERIOD",
      "outputs": [
        {
          "internalType": "uint256",
          "name": "",
          "type": "uint256"
        }
      ],
      "stateMutability": "view",
      "type": "function"
    },
    {
      "inputs": [],
      "name": "MAX_APY",
      "outputs": [
        {
          "internalType": "uint256",
          "name": "",
          "type": "uint256"
        }
      ],
      "stateMutability": "view",
      "type": "function"
    },
    {
      "inputs": [],
      "name": "MINIMUM_STAKE",
      "outputs": [
        {
          "internalType": "uint256",
          "name": "",
          "type": "uint256"
        }
      ],
      "stateMutability": "view",
      "type": "function"
    },
    {
      "inputs": [],
      "name": "PRECISION",
      "outputs": [
        {
          "internalType": "uint256",
          "name": "",
          "type": "uint256"
        }
      ],
      "stateMutability": "view",
      "type": "function"
    },
    {
      "inputs": [],
      "name": "SLASH_PERCENTAGE",
      "outputs": [
        {
          "internalType": "uint256",
          "name": "",
          "type": "uint256"
        }
      ],
      "stateMutability": "view",
      "type": "function"
    },
    {
      "inputs": [],
      "name": "accRewardPerShare",
      "outputs": [
        {
          "internalType": "uint256",
          "name": "",
          "type": "uint256"
        }
      ],
      "stateMutability": "view",
      "type": "function"
    },
    {
      "inputs": [],
      "name": "bridge",
      "outputs": [
        {
          "internalType": "address",
          "name": "",
          "type": "address"
        }
      ],
      "stateMutability": "view",
      "type": "function"
    },
    {
      "inputs": [],
      "name": "cancelUnstake",
      "outputs": [],
      "stateMutability": "nonpayable",
      "type": "function"
    },
    {
      "inputs": [],
      "name": "claimRewards",
      "outputs": [],
      "stateMutability": "nonpayable",
      "type": "function"
    },
    {
      "inputs": [],
      "name": "currentAPY",
      "outputs": [
        {
          "internalType": "uint256",
          "name": "",
          "type": "uint256"
        }
      ],
      "stateMutability": "view",
      "type": "function"
    },
    {
      "inputs": [],
      "name": "depositFees",
      "outputs": [],
      "stateMutability": "payable",
      "type": "function"
    },
    {
      "inputs": [],
      "name": "feePool",
      "outputs": [
        {
          "internalType": "uint256",
          "name": "",
          "type": "uint256"
        }
      ],
      "stateMutability": "view",
      "type": "function"
    },
    {
      "inputs": [],
      "name": "fundRewardPool",
      "outputs": [],
      "stateMutability": "payable",
      "type": "function"
    },
    {
      "inputs": [],
      "name": "getActiveValidators",
      "outputs": [
        {
          "internalType": "address[]",
          "name": "",
          "type": "address[]"
        }
      ],
      "stateMutability": "view",
      "type": "function"
    },
    {
      "inputs": [
        {
          "internalType": "address",
          "name": "account",
          "type": "address"
        }
      ],
      "name": "getPendingUnstake",
      "outputs": [
        {
          "internalType": "uint256",
          "name": "amount",
          "type": "uint256"
        },
        {
          "internalType": "uint256",
          "name": "unlockTime",
          "type": "uint256"
        }
      ],
      "stateMutability": "view",
      "type": "function"
    },
    {
      "inputs": [],
      "name": "getRewardInfo",
      "outputs": [
        {
          "internalType": "uint256",
          "name": "_rewardPool",
          "type": "uint256"
        },
        {
          "internalType": "uint256",
          "name": "_feePool",
          "type": "uint256"
        },
        {
          "internalType": "uint256",
          "name": "_targetAPY",
          "type": "uint256"
        },
        {
          "internalType": "uint256",
          "name": "_totalStaked",
          "type": "uint256"
        },
        {
          "internalType": "uint256",
          "name": "_totalRewardsPaid",
          "type": "uint256"
        }
      ],
      "stateMutability": "view",
      "type": "function"
    },
    {
      "inputs": [
        {
          "internalType": "address",
          "name": "account",
          "type": "address"
        }
      ],
      "name": "getStake",
      "outputs": [
        {
          "internalType": "uint256",
          "name": "",
          "type": "uint256"
        }
      ],
      "stateMutability": "view",
      "type": "function"
    },
    {
      "inputs": [],
      "name": "getValidatorCount",
      "outputs": [
        {
          "internalType": "uint256",
          "name": "",
          "type": "uint256"
        }
      ],
      "stateMutability": "view",
      "type": "function"
    },
    {
      "inputs": [
        {
          "internalType": "address",
          "name": "account",
          "type": "address"
        }
      ],
      "name": "isActiveValidator",
      "outputs": [
        {
          "internalType": "bool",
          "name": "",
          "type": "bool"
        }
      ],
      "stateMutability": "view",
      "type": "function"
    },
    {
      "inputs": [],
      "name": "lastRewardTime",
      "outputs": [
        {
          "internalType": "uint256",
          "name": "",
          "type": "uint256"
        }
      ],
      "stateMutability": "view",
      "type": "function"
    },
    {
      "inputs": [],
      "name": "owner",
      "outputs": [
        {
          "internalType": "address",
          "name": "",
          "type": "address"
        }
      ],
      "stateMutability": "view",
      "type": "function"
    },
    {
      "inputs": [
        {
          "internalType": "address",
          "name": "account",
          "type": "address"
        }
      ],
      "name": "pendingReward",
      "outputs": [
        {
          "internalType": "uint256",
          "name": "",
          "type": "uint256"
        }
      ],
      "stateMutability": "view",
      "type": "function"
    },
    {
      "inputs": [],
      "name": "renounceOwnership",
      "outputs": [],
      "stateMutability": "nonpayable",
      "type": "function"
    },
    {
      "inputs": [
        {
          "internalType": "uint256",
          "name": "amount",
          "type": "uint256"
        }
      ],
      "name": "requestUnstake",
      "outputs": [],
      "stateMutability": "nonpayable",
      "type": "function"
    },
    {
      "inputs": [],
      "name": "rewardPool",
      "outputs": [
        {
          "internalType": "uint256",
          "name": "",
          "type": "uint256"
        }
      ],
      "stateMutability": "view",
      "type": "function"
    },
    {
      "inputs": [
        {
          "internalType": "address",
          "name": "_bridge",
          "type": "address"
        }
      ],
      "name": "setBridge",
      "outputs": [],
      "stateMutability": "nonpayable",
      "type": "function"
    },
    {
      "inputs": [
        {
          "internalType": "uint256",
          "name": "_apyBasisPoints",
          "type": "uint256"
        }
      ],
      "name": "setTargetAPY",
      "outputs": [],
      "stateMutability": "nonpayable",
      "type": "function"
    },
    {
      "inputs": [
        {
          "internalType": "address",
          "name": "validator",
          "type": "address"
        },
        {
          "internalType": "address",
          "name": "challenger",
          "type": "address"
        }
      ],
      "name": "slash",
      "outputs": [
        {
          "internalType": "uint256",
          "name": "slashedAmount",
          "type": "uint256"
        }
      ],
      "stateMutability": "nonpayable",
      "type": "function"
    },
    {
      "inputs": [],
      "name": "stake",
      "outputs": [],
      "stateMutability": "payable",
      "type": "function"
    },
    {
      "inputs": [],
      "name": "targetAPY",
      "outputs": [
        {
          "internalType": "uint256",
          "name": "",
          "type": "uint256"
        }
      ],
      "stateMutability": "view",
      "type": "function"
    },
    {
      "inputs": [],
      "name": "totalRewardsPaid",
      "outputs": [
        {
          "internalType": "uint256",
          "name": "",
          "type": "uint256"
        }
      ],
      "stateMutability": "view",
      "type": "function"
    },
    {
      "inputs": [],
      "name": "totalStaked",
      "outputs": [
        {
          "internalType": "uint256",
          "name": "",
          "type": "uint256"
        }
      ],
      "stateMutability": "view",
      "type": "function"
    },
    {
      "inputs": [
        {
          "internalType": "address",
          "name": "newOwner",
          "type": "address"
        }
      ],
      "name": "transferOwnership",
      "outputs": [],
      "stateMutability": "nonpayable",
      "type": "function"
    },
    {
      "inputs": [
        {
          "internalType": "uint256",
          "name": "",
          "type": "uint256"
        }
      ],
      "name": "validatorList",
      "outputs": [
        {
          "internalType": "address",
          "name": "",
          "type": "address"
        }
      ],
      "stateMutability": "view",
      "type": "function"
    },
    {
      "inputs": [
        {
          "internalType": "address",
          "name": "",
          "type": "address"
        }
      ],
      "name": "validators",
      "outputs": [
        {
          "internalType": "uint256",
          "name": "stakedAmount",
          "type": "uint256"
        },
        {
          "internalType": "uint256",
          "name": "unstakeRequestTime",
          "type": "uint256"
        },
        {
          "internalType": "uint256",
          "name": "unstakeAmount",
          "type": "uint256"
        },
        {
          "internalType": "uint256",
          "name": "rewardDebt",
          "type": "uint256"
        },
        {
          "internalType": "uint256",
          "name": "pendingRewards",
          "type": "uint256"
        },
        {
          "internalType": "bool",
          "name": "isActive",
          "type": "bool"
        }
      ],
      "stateMutability": "view",
      "type": "function"
    },
    {
      "inputs": [],
      "name": "withdraw",
      "outputs": [],
      "stateMutability": "nonpayable",
      "type": "function"
    },
    {
      "inputs": [
        {
          "internalType": "uint256",
          "name": "amount",
          "type": "uint256"
        }
      ],
      "name": "withdrawRewardPool",
      "outputs": [],
      "stateMutability": "nonpayable",
      "type": "function"
    },
    {
      "stateMutability": "payable",
      "type": "receive"
    }
  ],
  "bytecode": "0x608060405234801561001057600080fd5b5061001a33610027565b6001805542600a55610077565b600080546001600160a01b038381166001600160a01b0319831681178455604051919092169283917f8be0079c531659141344cd1fd0a4f28419497f9722a3daafe3b4186f6b6457e09190a35050565b611cad806100866000396000f3fe60806040526004361061021e5760003560e01c80637aeccce911610123578063aaf5eb68116100ab578063e78cea921161006f578063e78cea92146105da578063f2fde38b146105fa578063f40f0f521461061a578063f5f8aa951461063a578063fa52c7d81461065a57600080fd5b8063aaf5eb6814610552578063ae2e933b1461056e578063b048e05614610584578063c74cab49146105a4578063e6d012e4146105c457600080fd5b80639231cf74116100f25780639231cf74146104da578063939d6237146104f05780639a79d32b146105065780639de702581461051b5780639f29f1351461053d57600080fd5b80637aeccce914610452578063817b1cd2146104725780638da5cb5b146104885780638dd14802146104ba57600080fd5b806340550a1c116101a65780636e99d52f116101755780636e99d52f146103c55780637071688a146103dc578063715018a6146103f157806374958e35146104065780637a7664601461041c57600080fd5b806340550a1c1461030a5780634ab179691461035657806366666aa91461036b578063699c8f331461038157600080fd5b80632f54fe72116101ed5780632f54fe721461028d578063372500ab146102c25780633a4b66f1146102d75780633ccfd60b146102df5780633d92f4e2146102f457600080fd5b806308dbbb031461022a578063208283391461025b578063230957211461026557806326741e7d1461028557600080fd5b3661022557005b600080fd5b34801561023657600080fd5b5061024869021e19e0c9bab240000081565b6040519081526020015b60405180910390f35b6102636106df565b005b34801561027157600080fd5b50610263610280366004611ac1565b610767565b6102636109b5565b34801561029957600080fd5b506102ad6102a8366004611af6565b610ab3565b60408051928352602083019190915201610252565b3480156102ce57600080fd5b50610263610af1565b610263610c2b565b3480156102eb57600080fd5b50610263610e28565b34801561030057600080fd5b5061024861138881565b34801561031657600080fd5b50610346610325366004611af6565b6001600160a01b031660009081526003602052604090206005015460ff1690565b6040519015158152602001610252565b34801561036257600080fd5b50610263610f84565b34801561037757600080fd5b5061024860065481565b34801561038d57600080fd5b50600654600754600b54600554600954604080519586526020860194909452928401919091526060830152608082015260a001610252565b3480156103d157600080fd5b5061024862093a8081565b3480156103e857600080fd5b50600454610248565b3480156103fd57600080fd5b50610263611079565b34801561041257600080fd5b5061024860095481565b34801561042857600080fd5b50610248610437366004611af6565b6001600160a01b031660009081526003602052604090205490565b34801561045e57600080fd5b5061024861046d366004611b11565b61108b565b34801561047e57600080fd5b5061024860055481565b34801561049457600080fd5b506000546001600160a01b03165b6040516001600160a01b039091168152602001610252565b3480156104c657600080fd5b506102636104d5366004611af6565b6112bf565b3480156104e657600080fd5b50610248600a5481565b3480156104fc57600080fd5b5061024860085481565b34801561051257600080fd5b50600b54610248565b34801561052757600080fd5b50610530611368565b6040516102529190611b44565b34801561054957600080fd5b50610248603281565b34801561055e57600080fd5b50610248670de0b6b3a764000081565b34801561057a57600080fd5b5061024860075481565b34801561059057600080fd5b506104a261059f366004611ac1565b6114fd565b3480156105b057600080fd5b506102636105bf366004611ac1565b611527565b3480156105d057600080fd5b50610248600b5481565b3480156105e657600080fd5b506002546104a2906001600160a01b031681565b34801561060657600080fd5b50610263610615366004611af6565b61161b565b34801561062657600080fd5b50610248610635366004611af6565b611691565b34801561064657600080fd5b50610263610655366004611ac1565b6117b6565b34801561066657600080fd5b506106b0610675366004611af6565b600360208190526000918252604090912080546001820154600283015493830154600484015460059094015492949193919290919060ff1686565b6040805196875260208701959095529385019290925260608401526080830152151560a082015260c001610252565b6106e7611843565b600034116107105760405162461bcd60e51b815260040161070790611b91565b60405180910390fd5b34600660008282546107229190611bd3565b90915550506006546040805134815260208101929092527f5451f0d28a59c1c16a9d7cc5017150d585749eb225366037423f94b85ad94ea791015b60405180910390a1565b3360009081526003602052604090206005015460ff166107c95760405162461bcd60e51b815260206004820152601760248201527f4e6f7420616e206163746976652076616c696461746f720000000000000000006044820152606401610707565b6107d161189d565b6107d96118f6565b336000908152600360205260409020816108055760405162461bcd60e51b815260040161070790611b91565b805482111561084b5760405162461bcd60e51b8152602060048201526012602482015271496e73756666696369656e74207374616b6560701b6044820152606401610707565b600061085633611a10565b9050801561087857808260040160008282546108729190611bd3565b90915550505b8154600090610888908590611be6565b905080156108ea5769021e19e0c9bab24000008110156108ea5760405162461bcd60e51b815260206004820152601860248201527f576f756c642064726f702062656c6f77206d696e696d756d00000000000000006044820152606401610707565b42600184015560028301849055600854670de0b6b3a76400009061090e9083611bf9565b6109189190611c10565b6003840155600081900361095e5760058301805460ff1916905560405133907f23d934bfe7f1275bc6fd70432159c9cc1c0075d069f89da6a40f43bfe7a94ed390600090a25b337f57e41df54512c76148b5ba9b643d149752b0d35e493b969bd017d0a3fe5228cf8561098e62093a8042611bd3565b6040805192835260208301919091520160405180910390a25050506109b260018055565b50565b6002546001600160a01b03163314610a065760405162461bcd60e51b815260206004820152601460248201527313db9b1e48189c9a5919d94818d85b8818d85b1b60621b6044820152606401610707565b60003411610a265760405162461bcd60e51b815260040161070790611b91565b610a2e6118f6565b3460076000828254610a409190611bd3565b909155505060055415610a8357600554610a62670de0b6b3a764000034611bf9565b610a6c9190611c10565b60086000828254610a7d9190611bd3565b90915550505b6040513481527f02bede6503f7c3293d6eac9b0f4981900471e18774a84ccc98715aa5433017949060200161075d565b6001600160a01b03811660009081526003602052604081206002810154600182015483929190610ae79062093a8090611bd3565b9250925050915091565b610af961189d565b610b016118f6565b33600081815260036020526040812060048101549092610b2090611a10565b610b2a9190611bd3565b905060008111610b725760405162461bcd60e51b81526020600482015260136024820152724e6f207265776172647320746f20636c61696d60681b6044820152606401610707565b600060048301556008548254670de0b6b3a764000091610b9191611bf9565b610b9b9190611c10565b82600301819055508060096000828254610bb59190611bd3565b9091555050604051339082156108fc029083906000818181858888f19350505050158015610be7573d6000803e3d6000fd5b5060405181815233907ffc30cddea38e2bf4d6ea7d3f9ed3b6ad7f176419f4963bd81318067a4aee73fe906020015b60405180910390a25050610c2960018055565b565b610c3361189d565b60003411610c535760405162461bcd60e51b815260040161070790611b91565b610c5b6118f6565b336000908152600360205260409020805415610ca0576000610c7c33611a10565b90508015610c9e5780826004016000828254610c989190611bd3565b90915550505b505b8054600090610cb0903490611bd3565b905069021e19e0c9bab2400000811015610d025760405162461bcd60e51b815260206004820152601360248201527242656c6f77206d696e696d756d207374616b6560681b6044820152606401610707565b8154600003610d4e57600480546001810182556000919091527f8a35acfbc15ff81a39ae7d344fd709f28e8600b4aa8c65c6b64bfe7fe36bd19b0180546001600160a01b031916331790555b808255600854670de0b6b3a764000090610d689083611bf9565b610d729190611c10565b82600301819055503460056000828254610d8c9190611bd3565b9091555050600582015460ff16158015610db0575069021e19e0c9bab24000008110155b15610df05760058201805460ff1916600117905560405133907fb2b8c5f713f27009f7a78ec2167999c472e5ee8bc591102da17bc4a6551236c890600090a25b604080513481526020810183905233917f1449c6dd7851abc30abf37f57715f492010519147cc2652fbc38202c18a6ee909101610c16565b610e3061189d565b3360009081526003602052604090206002810154610e855760405162461bcd60e51b81526020600482015260126024820152714e6f2070656e64696e6720756e7374616b6560701b6044820152606401610707565b62093a808160010154610e989190611bd3565b421015610edf5760405162461bcd60e51b8152602060048201526015602482015274436f6f6c646f776e206e6f7420636f6d706c65746560581b6044820152606401610707565b6002810154815481908390600090610ef8908490611be6565b90915550506000600283018190556001830181905560058054839290610f1f908490611be6565b9091555050604051339082156108fc029083906000818181858888f19350505050158015610f51573d6000803e3d6000fd5b5060405181815233907f7084f5476618d8e60b11ef0d7d3f06914655adb8793e28ff7f018d4c76d505d590602001610c16565b610f8c6118f6565b3360009081526003602052604090206002810154610fe15760405162461bcd60e51b81526020600482015260126024820152714e6f2070656e64696e6720756e7374616b6560701b6044820152606401610707565b600581015460ff161580156110015750805469021e19e0c9bab240000011155b156110415760058101805460ff1916600117905560405133907fb2b8c5f713f27009f7a78ec2167999c472e5ee8bc591102da17bc4a6551236c890600090a25b6008548154670de0b6b3a76400009161105991611bf9565b6110639190611c10565b6003820155600060028201819055600190910155565b611081611843565b610c296000611a71565b6002546000906001600160a01b031633146110df5760405162461bcd60e51b815260206004820152601460248201527313db9b1e48189c9a5919d94818d85b8818d85b1b60621b6044820152606401610707565b6110e761189d565b6110ef6118f6565b6001600160a01b038316600090815260036020526040902080546111495760405162461bcd60e51b815260206004820152601160248201527009cde40e6e8c2d6ca40e8de40e6d8c2e6d607b1b6044820152606401610707565b60006004820155805460649061116190603290611bf9565b61116b9190611c10565b9150818160000160008282546111819190611be6565b90915550506008548154670de0b6b3a76400009161119e91611bf9565b6111a89190611c10565b816003018190555081600560008282546111c29190611be6565b9091555050805469021e19e0c9bab2400000111561121b5760058101805460ff191690556040516001600160a01b038516907f23d934bfe7f1275bc6fd70432159c9cc1c0075d069f89da6a40f43bfe7a94ed390600090a25b6001600160a01b03831615611262576040516001600160a01b0384169083156108fc029084906000818181858888f19350505050158015611260573d6000803e3d6000fd5b505b826001600160a01b0316846001600160a01b03167fd87c3348a79019696e9b472cb0efe979015741dd3a1c95f43cc26dd1ace903c0846040516112a791815260200190565b60405180910390a3506112b960018055565b92915050565b6112c7611843565b6001600160a01b0381166113165760405162461bcd60e51b8152602060048201526016602482015275496e76616c696420627269646765206164647265737360501b6044820152606401610707565b600280546001600160a01b038381166001600160a01b0319831681179093556040519116919082907faae9beddccf584528e87b66c6ff2563825c8a1433305b8a656e9b5f9bf39049990600090a35050565b60606000805b6004548110156113df57600360006004838154811061138f5761138f611c32565b60009182526020808320909101546001600160a01b0316835282019290925260400190206005015460ff16156113cd57816113c981611c48565b9250505b806113d781611c48565b91505061136e565b5060008167ffffffffffffffff8111156113fb576113fb611c61565b604051908082528060200260200182016040528015611424578160200160208202803683370190505b5090506000805b6004548110156114f457600360006004838154811061144c5761144c611c32565b60009182526020808320909101546001600160a01b0316835282019290925260400190206005015460ff16156114e2576004818154811061148f5761148f611c32565b6000918252602090912001546001600160a01b031683836114af81611c48565b9450815181106114c1576114c1611c32565b60200260200101906001600160a01b031690816001600160a01b0316815250505b806114ec81611c48565b91505061142b565b50909392505050565b6004818154811061150d57600080fd5b6000918252602090912001546001600160a01b0316905081565b61152f611843565b6006548111156115815760405162461bcd60e51b815260206004820152601860248201527f496e73756666696369656e742072657761726420706f6f6c00000000000000006044820152606401610707565b6115896118f6565b806006600082825461159b9190611be6565b9091555050600080546040516001600160a01b039091169183156108fc02918491818181858888f193505050501580156115d9573d6000803e3d6000fd5b506006546040805183815260208101929092527ff17c0235da5cefe46d41b0b326d331f5015200f5dda6ed3265c4c954ebad8f1091015b60405180910390a150565b611623611843565b6001600160a01b0381166116885760405162461bcd60e51b815260206004820152602660248201527f4f776e61626c653a206e6577206f776e657220697320746865207a65726f206160448201526564647265737360d01b6064820152608401610707565b6109b281611a71565b6001600160a01b0381166000908152600360205260408120805482036116bb576004015492915050565b600854600554158015906116d157506000600b54115b80156116df57506000600654115b80156116ec5750600a5442115b1561176f576000600a54426117019190611be6565b9050600064496cebb80082600b5460055461171c9190611bf9565b6117269190611bf9565b6117309190611c10565b905060065481111561174157506006545b600554611756670de0b6b3a764000083611bf9565b6117609190611c10565b61176a9084611bd3565b925050505b600482015460038301548354670de0b6b3a764000090611790908590611bf9565b61179a9190611c10565b6117a49190611be6565b6117ae9190611bd3565b949350505050565b6117be611843565b6113888111156118065760405162461bcd60e51b81526020600482015260136024820152724150592065786365656473206d6178696d756d60681b6044820152606401610707565b61180e6118f6565b600b8190556040518181527fc7f87f4e6dae499a921a5cc635cfbc27ee789f8f818fb83f3ea2c40608a6f6fe90602001611610565b6000546001600160a01b03163314610c295760405162461bcd60e51b815260206004820181905260248201527f4f776e61626c653a2063616c6c6572206973206e6f7420746865206f776e65726044820152606401610707565b6002600154036118ef5760405162461bcd60e51b815260206004820152601f60248201527f5265656e7472616e637947756172643a207265656e7472616e742063616c6c006044820152606401610707565b6002600155565b600a54421161190157565b6005546000036119115742600a55565b6000600a54426119219190611be6565b90506000600b5411801561193757506000600654115b156119cf57600064496cebb80082600b546005546119559190611bf9565b61195f9190611bf9565b6119699190611c10565b905060065481111561197a57506006545b80156119cd5780600660008282546119929190611be6565b90915550506005546119ac670de0b6b3a764000083611bf9565b6119b69190611c10565b600860008282546119c79190611bd3565b90915550505b505b42600a556008546009546040517fcd7c861d63893659123f817b192b8621ff1923a7c4589c260173cedcf9e986a69261161092908252602082015260400190565b6001600160a01b038116600090815260036020526040812080548203611a395750600092915050565b60038101546008548254670de0b6b3a764000091611a5691611bf9565b611a609190611c10565b611a6a9190611be6565b9392505050565b600080546001600160a01b038381166001600160a01b0319831681178455604051919092169283917f8be0079c531659141344cd1fd0a4f28419497f9722a3daafe3b4186f6b6457e09190a35050565b600060208284031215611ad357600080fd5b5035919050565b80356001600160a01b0381168114611af157600080fd5b919050565b600060208284031215611b0857600080fd5b611a6a82611ada565b60008060408385031215611b2457600080fd5b611b2d83611ada565b9150611b3b60208401611ada565b90509250929050565b6020808252825182820181905260009190848201906040850190845b81811015611b855783516001600160a01b031683529284019291840191600101611b60565b50909695505050505050565b6020808252601290820152710416d6f756e74206d757374206265203e20360741b604082015260600190565b634e487b7160e01b600052601160045260246000fd5b808201808211156112b9576112b9611bbd565b818103818111156112b9576112b9611bbd565b80820281158282048414176112b9576112b9611bbd565b600082611c2d57634e487b7160e01b600052601260045260246000fd5b500490565b634e487b7160e01b600052603260045260246000fd5b600060018201611c5a57611c5a611bbd565b5060010190565b634e487b7160e01b600052604160045260246000fdfea26469706673582212204d001988df20d05440a91a7e88a48467b82e1f04750b3768663f1e40a9a4e99564736f6c63430008140033",
  "linkReferences": {},
  "deployedLinkReferences": {}
}