{"contracts/BridgeStaking.sol":{"BridgeStaking":{"abi":[{"inputs":[{"internalType":"address","name":"_stakingToken","type":"address"}],"stateMutability":"nonpayable","type":"constructor"},{"anonymous":false,"inputs":[{"indexed":true,"internalType":"address","name":"oldBridge","type":"address"},{"indexed":true,"internalType":"address","name":"newBridge","type":"address"}],"name":"BridgeUpdated","type":"event"},{"anonymous":false,"inputs":[{"indexed":false,"internalType":"uint256","name":"amount","type":"uint256"}],"name":"FeesDeposited","type":"event"},{"anonymous":false,"inputs":[{"indexed":true,"internalType":"address","name":"previousOwner","type":"address"},{"indexed":true,"internalType":"address","name":"newOwner","type":"address"}],"name":"OwnershipTransferred","type":"event"},{"anonymous":false,"inputs":[{"indexed":false,"internalType":"uint256","name":"amount","type":"uint256"},{"indexed":false,"internalType":"uint256","name":"newBalance","type":"uint256"}],"name":"RewardPoolFunded","type":"event"},{"anonymous":false,"inputs":[{"indexed":false,"internalType":"uint256","name":"amount","type":"uint256"},{"indexed":false,"internalType":"uint256","name":"newBalance","type":"uint256"}],"name":"RewardPoolWithdrawn","type":"event"},{"anonymous":false,"inputs":[{"indexed":true,"internalType":"address","name":"validator","type":"address"},{"indexed":false,"internalType":"uint256","name":"amount","type":"uint256"}],"name":"RewardsClaimed","type":"event"},{"anonymous":false,"inputs":[{"indexed":false,"internalType":"uint256","name":"accRewardPerShare","type":"uint256"},{"indexed":false,"internalType":"uint256","name":"totalRewardsPaid","type":"uint256"}],"name":"RewardsUpdated","type":"event"},{"anonymous":false,"inputs":[{"indexed":true,"internalType":"address","name":"validator","type":"address"},{"indexed":false,"internalType":"uint256","name":"amount","type":"uint256"},{"indexed":true,"internalType":"address","name":"slasher","type":"address"}],"name":"Slashed","type":"event"},{"anonymous":false,"inputs":[{"indexed":true,"internalType":"address","name":"validator","type":"address"},{"indexed":false,"internalType":"uint256","name":"amount","type":"uint256"},{"indexed":false,"internalType":"uint256","name":"totalStaked","type":"uint256"}],"name":"Staked","type":"event"},{"anonymous":false,"inputs":[{"indexed":false,"internalType":"uint256","name":"apyBasisPoints","type":"uint256"}],"name":"TargetAPYSet","type":"event"},{"anonymous":false,"inputs":[{"indexed":true,"internalType":"address","name":"validator","type":"address"},{"indexed":false,"internalType":"uint256","name":"amount","type":"uint256"},{"indexed":false,"internalType":"uint256","name":"unlockTime","type":"uint256"}],"name":"UnstakeRequested","type":"event"},{"anonymous":false,"inputs":[{"indexed":true,"internalType":"address","name":"validator","type":"address"}],"name":"ValidatorActivated","type":"event"},{"anonymous":false,"inputs":[{"indexed":true,"internalType":"address","name":"validator","type":"address"}],"name":"ValidatorDeactivated","type":"event"},{"anonymous":false,"inputs":[{"indexed":true,"internalType":"address","name":"validator","type":"address"},{"indexed":false,"internalType":"uint256","name":"amount","type":"uint256"}],"name":"Withdrawn","type":"event"},{"inputs":[],"name":"COOLDOWN_PERIOD","outputs":[{"internalType":"uint256","name":"","type":"uint256"}],"stateMutability":"view","type":"function"},{"inputs":[],"name":"MAX_APY","outputs":[{"internalType":"uint256","name":"","type":"uint256"}],"stateMutability":"view","type":"function"},{"inputs":[],"name":"MINIMUM_STAKE","outputs":[{"internalType":"uint256","name":"","type":"uint256"}],"stateMutability":"view","type":"function"},{"inputs":[],"name":"PRECISION","outputs":[{"internalType":"uint256","name":"","type":"uint256"}],"stateMutability":"view","type":"function"},{"inputs":[],"name":"SLASH_PERCENTAGE","outputs":[{"internalType":"uint256","name":"","type":"uint256"}],"stateMutability":"view","type":"function"},{"inputs":[],"name":"accRewardPerShare","outputs":[{"internalType":"uint256","name":"","type":"uint256"}],"stateMutability":"view","type":"function"},{"inputs":[],"name":"bridge","outputs":[{"internalType":"address","name":"","type":"address"}],"stateMutability":"view","type":"function"},{"inputs":[],"name":"cancelUnstake","outputs":[],"stateMutability":"nonpayable","type":"function"},{"inputs":[],"name":"claimRewards","outputs":[],"stateMutability":"nonpayable","type":"function"},{"inputs":[{"internalType":"address","name":"beneficiary","type":"address"}],"name":"claimRewardsFor","outputs":[],"stateMutability":"nonpayable","type":"function"},{"inputs":[],"name":"currentAPY","outputs":[{"internalType":"uint256","name":"","type":"uint256"}],"stateMutability":"view","type":"function"},{"inputs":[{"internalType":"uint256","name":"amount","type":"uint256"}],"name":"depositFees","outputs":[],"stateMutability":"nonpayable","type":"function"},{"inputs":[],"name":"feePool","outputs":[{"internalType":"uint256","name":"","type":"uint256"}],"stateMutability":"view","type":"function"},{"inputs":[{"internalType":"uint256","name":"amount","type":"uint256"}],"name":"fundRewardPool","outputs":[],"stateMutability":"nonpayable","type":"function"},{"inputs":[],"name":"getActiveValidators","outputs":[{"internalType":"address[]","name":"","type":"address[]"}],"stateMutability":"view","type":"function"},{"inputs":[{"internalType":"address","name":"account","type":"address"}],"name":"getPendingUnstake","outputs":[{"internalType":"uint256","name":"amount","type":"uint256"},{"internalType":"uint256","name":"unlockTime","type":"uint256"}],"stateMutability":"view","type":"function"},{"inputs":[],"name":"getRewardInfo","outputs":[{"internalType":"uint256","name":"_rewardPool","type":"uint256"},{"internalType":"uint256","name":"_feePool","type":"uint256"},{"internalType":"uint256","name":"_targetAPY","type":"uint256"},{"internalType":"uint256","name":"_totalStaked","type":"uint256"},{"internalType":"uint256","name":"_totalRewardsPaid","type":"uint256"}],"stateMutability":"view","type":"function"},{"inputs":[{"internalType":"address","name":"account","type":"address"}],"name":"getStake","outputs":[{"internalType":"uint256","name":"","type":"uint256"}],"stateMutability":"view","type":"function"},{"inputs":[],"name":"getValidatorCount","outputs":[{"internalType":"uint256","name":"","type":"uint256"}],"stateMutability":"view","type":"function"},{"inputs":[{"internalType":"address","name":"account","type":"address"}],"name":"isActiveValidator","outputs":[{"internalType":"bool","name":"","type":"bool"}],"stateMutability":"view","type":"function"},{"inputs":[],"name":"lastRewardTime","outputs":[{"internalType":"uint256","name":"","type":"uint256"}],"stateMutability":"view","type":"function"},{"inputs":[],"name":"owner","outputs":[{"internalType":"address","name":"","type":"address"}],"stateMutability":"view","type":"function"},{"inputs":[{"internalType":"address","name":"account","type":"address"}],"name":"pendingReward","outputs":[{"internalType":"uint256","name":"","type":"uint256"}],"stateMutability":"view","type":"function"},{"inputs":[],"name":"renounceOwnership","outputs":[],"stateMutability":"nonpayable","type":"function"},{"inputs":[{"internalType":"uint256","name":"amount","type":"uint256"}],"name":"requestUnstake","outputs":[],"stateMutability":"nonpayable","type":"function"},{"inputs":[{"internalType":"address","name":"beneficiary","type":"address"},{"internalType":"uint256","name":"amount","type":"uint256"}],"name":"requestUnstakeFor","outputs":[],"stateMutability":"nonpayable","type":"function"},{"inputs":[],"name":"rewardPool","outputs":[{"internalType":"uint256","name":"","type":"uint256"}],"stateMutability":"view","type":"function"},{"inputs":[{"internalType":"address","name":"_bridge","type":"address"}],"name":"setBridge","outputs":[],"stateMutability":"nonpayable","type":"function"},{"inputs":[{"internalType":"uint256","name":"_apyBasisPoints","type":"uint256"}],"name":"setTargetAPY","outputs":[],"stateMutability":"nonpayable","type":"function"},{"inputs":[{"internalType":"address","name":"validator","type":"address"},{"internalType":"address","name":"challenger","type":"address"}],"name":"slash","outputs":[{"internalType":"uint256","name":"slashedAmount","type":"uint256"}],"stateMutability":"nonpayable","type":"function"},{"inputs":[{"internalType":"uint256","name":"amount","type":"uint256"}],"name":"stake","outputs":[],"stateMutability":"nonpayable","type":"function"},{"inputs":[{"internalType":"address","name":"beneficiary","type":"address"},{"internalType":"uint256","name":"amount","type":"uint256"}],"name":"stakeFor","outputs":[],"stateMutability":"nonpayable","type":"function"},{"inputs":[],"name":"stakingToken","outputs":[{"internalType":"contract IERC20","name":"","type":"address"}],"stateMutability":"view","type":"function"},{"inputs":[],"name":"targetAPY","outputs":[{"internalType":"uint256","name":"","type":"uint256"}],"stateMutability":"view","type":"function"},{"inputs":[],"name":"totalRewardsPaid","outputs":[{"internalType":"uint256","name":"","type":"uint256"}],"stateMutability":"view","type":"function"},{"inputs":[],"name":"totalStaked","outputs":[{"internalType":"uint256","name":"","type":"uint256"}],"stateMutability":"view","type":"function"},{"inputs":[{"internalType":"address","name":"newOwner","type":"address"}],"name":"transferOwnership","outputs":[],"stateMutability":"nonpayable","type":"function"},{"inputs":[{"internalType":"uint256","name":"","type":"uint256"}],"name":"validatorList","outputs":[{"internalType":"address","name":"","type":"address"}],"stateMutability":"view","type":"function"},{"inputs":[{"internalType":"address","name":"","type":"address"}],"name":"validators","outputs":[{"internalType":"uint256","name":"stakedAmount","type":"uint256"},{"internalType":"uint256","name":"unstakeRequestTime","type":"uint256"},{"internalType":"uint256","name":"unstakeAmount","type":"uint256"},{"internalType":"uint256","name":"rewardDebt","type":"uint256"},{"internalType":"uint256","name":"pendingRewards","type":"uint256"},{"internalType":"bool","name":"isActive","type":"bool"}],"stateMutability":"view","type":"function"},{"inputs":[],"name":"withdraw","outputs":[],"stateMutability":"nonpayable","type":"function"},{"inputs":[{"internalType":"address","name":"beneficiary","type":"address"}],"name":"withdrawFor","outputs":[],"stateMutability":"nonpayable","type":"function"},{"inputs":[{"internalType":"uint256","name":"amount","type":"uint256"}],"name":"withdrawRewardPool","outputs":[],"stateMutability":"nonpayable","type":"function"}],"evm":{"bytecode":{"linkReferences":{},"object":"60a06040523480156200001157600080fd5b506040516200295538038062002955833981016040819052620000349162000104565b6200003f33620000b4565b600180556001600160a01b0381166200009e5760405162461bcd60e51b815260206004820152601560248201527f496e76616c696420746f6b656e20616464726573730000000000000000000000604482015260640160405180910390fd5b6001600160a01b031660805242600a5562000136565b600080546001600160a01b038381166001600160a01b0319831681178455604051919092169283917f8be0079c531659141344cd1fd0a4f28419497f9722a3daafe3b4186f6b6457e09190a35050565b6000602082840312156200011757600080fd5b81516001600160a01b03811681146200012f57600080fd5b9392505050565b6080516127c462000191600039600081816103bc0152818161070e015281816107bb01528181610df101528181610f400152818161122701528181611897015281816119dd01528181611be80152611ccf01526127c46000f3fe608060405234801561001057600080fd5b506004361061025e5760003560e01c80638da5cb5b11610146578063aaf5eb68116100c3578063e78cea9211610087578063e78cea921461051f578063ebdac09014610532578063f2fde38b14610545578063f40f0f5214610558578063f5f8aa951461056b578063fa52c7d81461057e57600080fd5b8063aaf5eb68146104d8578063ae2e933b146104e7578063b048e056146104f0578063c74cab4914610503578063e6d012e41461051657600080fd5b80639a79d32b1161010a5780639a79d32b1461048d5780639de70258146104955780639eca672c146104aa5780639f29f135146104bd578063a694fc3a146104c557600080fd5b80638da5cb5b146104445780638dd14802146104555780639231cf7414610468578063939d6237146104715780639691576e1461047a57600080fd5b80634ab17969116101df578063715018a6116101a3578063715018a6146103af57806372f702f3146103b757806374958e35146103f65780637a766460146103ff5780637aeccce914610428578063817b1cd21461043b57600080fd5b80634ab179691461035557806366666aa91461035d578063699c8f33146103665780636e99d52f1461039d5780637071688a146103a757600080fd5b80632f54fe72116102265780632f54fe72146102d5578063372500ab146102fd5780633ccfd60b146103055780633d92f4e21461030d57806340550a1c1461031657600080fd5b806308dbbb03146102635780631ac6d19d146102875780631d583e0d1461029c57806323095721146102af5780632ee40908146102c2575b600080fd5b61027469021e19e0c9bab240000081565b6040519081526020015b60405180910390f35b61029a6102953660046124dc565b6105f6565b005b61029a6102aa3660046124f7565b610786565b61029a6102bd3660046124f7565b61083b565b61029a6102d0366004612510565b610a7b565b6102e86102e33660046124dc565b610cdc565b6040805192835260208301919091520161027e565b61029a610d1a565b61029a610e5b565b61027461138881565b6103456103243660046124dc565b6001600160a01b031660009081526003602052604090206005015460ff1690565b604051901515815260200161027e565b61029a610f99565b61027460065481565b600654600754600b54600554600954604080519586526020860194909452928401919091526060830152608082015260a00161027e565b61027462093a8081565b600454610274565b61029a611069565b6103de7f000000000000000000000000000000000000000000000000000000000000000081565b6040516001600160a01b03909116815260200161027e565b61027460095481565b61027461040d3660046124dc565b6001600160a01b031660009081526003602052604090205490565b61027461043636600461253a565b61107b565b61027460055481565b6000546001600160a01b03166103de565b61029a6104633660046124dc565b6112ab565b610274600a5481565b61027460085481565b61029a610488366004612510565b611354565b600b54610274565b61049d6115e6565b60405161027e919061256d565b61029a6104b83660046124dc565b61177b565b610274603281565b61029a6104d33660046124f7565b6118f9565b610274670de0b6b3a764000081565b61027460075481565b6103de6104fe3660046124f7565b611b2b565b61029a6105113660046124f7565b611b55565b610274600b5481565b6002546103de906001600160a01b031681565b61029a6105403660046124f7565b611c49565b61029a6105533660046124dc565b611d7c565b6102746105663660046124dc565b611df2565b61029a6105793660046124f7565b611f17565b6105c761058c3660046124dc565b600360208190526000918252604090912080546001820154600283015493830154600484015460059094015492949193919290919060ff1686565b6040805196875260208701959095529385019290925260608401526080830152151560a082015260c00161027e565b6105fe611fa4565b610606611ffe565b6001600160a01b0381166106355760405162461bcd60e51b815260040161062c906125ba565b60405180910390fd5b61063d612057565b6001600160a01b0381166000908152600360205260408120600481015490919061066684612171565b61067091906125fd565b9050600081116106b85760405162461bcd60e51b81526020600482015260136024820152724e6f207265776172647320746f20636c61696d60681b604482015260640161062c565b600060048301556008548254670de0b6b3a7640000916106d791612610565b6106e19190612627565b826003018190555080600960008282546106fb91906125fd565b9091555061073590506001600160a01b037f00000000000000000000000000000000000000000000000000000000000000001684836121d2565b826001600160a01b03167ffc30cddea38e2bf4d6ea7d3f9ed3b6ad7f176419f4963bd81318067a4aee73fe8260405161077091815260200190565b60405180910390a2505061078360018055565b50565b61078e611fa4565b600081116107ae5760405162461bcd60e51b815260040161062c90612649565b6107e36001600160a01b037f00000000000000000000000000000000000000000000000000000000000000001633308461223a565b80600660008282546107f591906125fd565b90915550506006546040805183815260208101929092527f5451f0d28a59c1c16a9d7cc5017150d585749eb225366037423f94b85ad94ea791015b60405180910390a150565b3360009081526003602052604090206005015460ff166108975760405162461bcd60e51b81526020600482015260176024820152762737ba1030b71030b1ba34bb32903b30b634b230ba37b960491b604482015260640161062c565b61089f611ffe565b6108a7612057565b336000908152600360205260409020816108d35760405162461bcd60e51b815260040161062c90612649565b80548211156109195760405162461bcd60e51b8152602060048201526012602482015271496e73756666696369656e74207374616b6560701b604482015260640161062c565b600061092433612171565b90508015610946578082600401600082825461094091906125fd565b90915550505b8154600090610956908590612675565b905080156109b35769021e19e0c9bab24000008110156109b35760405162461bcd60e51b8152602060048201526018602482015277576f756c642064726f702062656c6f77206d696e696d756d60401b604482015260640161062c565b42600184015560028301849055600854670de0b6b3a7640000906109d79083612610565b6109e19190612627565b60038401556000819003610a275760058301805460ff1916905560405133907f23d934bfe7f1275bc6fd70432159c9cc1c0075d069f89da6a40f43bfe7a94ed390600090a25b337f57e41df54512c76148b5ba9b643d149752b0d35e493b969bd017d0a3fe5228cf85610a5762093a80426125fd565b6040805192835260208301919091520160405180910390a250505061078360018055565b610a83611fa4565b610a8b611ffe565b6001600160a01b038216610ab15760405162461bcd60e51b815260040161062c906125ba565b60008111610ad15760405162461bcd60e51b815260040161062c90612649565b610ad9612057565b6001600160a01b0382166000908152600360205260409020805415610b27576000610b0384612171565b90508015610b255780826004016000828254610b1f91906125fd565b90915550505b505b8054600090610b379084906125fd565b905069021e19e0c9bab2400000811015610b895760405162461bcd60e51b815260206004820152601360248201527242656c6f77206d696e696d756d207374616b6560681b604482015260640161062c565b8154600003610bde57600480546001810182556000919091527f8a35acfbc15ff81a39ae7d344fd709f28e8600b4aa8c65c6b64bfe7fe36bd19b0180546001600160a01b0319166001600160a01b0386161790555b808255600854670de0b6b3a764000090610bf89083612610565b610c029190612627565b82600301819055508260056000828254610c1c91906125fd565b9091555050600582015460ff16158015610c40575069021e19e0c9bab24000008110155b15610c895760058201805460ff191660011790556040516001600160a01b038516907fb2b8c5f713f27009f7a78ec2167999c472e5ee8bc591102da17bc4a6551236c890600090a25b60408051848152602081018390526001600160a01b038616917f1449c6dd7851abc30abf37f57715f492010519147cc2652fbc38202c18a6ee90910160405180910390a25050610cd860018055565b5050565b6001600160a01b03811660009081526003602052604081206002810154600182015483929190610d109062093a80906125fd565b9250925050915091565b610d22611ffe565b610d2a612057565b33600081815260036020526040812060048101549092610d4990612171565b610d5391906125fd565b905060008111610d9b5760405162461bcd60e51b81526020600482015260136024820152724e6f207265776172647320746f20636c61696d60681b604482015260640161062c565b600060048301556008548254670de0b6b3a764000091610dba91612610565b610dc49190612627565b82600301819055508060096000828254610dde91906125fd565b90915550610e1890506001600160a01b037f00000000000000000000000000000000000000000000000000000000000000001633836121d2565b60405181815233907ffc30cddea38e2bf4d6ea7d3f9ed3b6ad7f176419f4963bd81318067a4aee73fe906020015b60405180910390a25050610e5960018055565b565b610e63611ffe565b3360009081526003602052604090206002810154610e935760405162461bcd60e51b815260040161062c90612688565b62093a808160010154610ea691906125fd565b421015610eed5760405162461bcd60e51b8152602060048201526015602482015274436f6f6c646f776e206e6f7420636f6d706c65746560581b604482015260640161062c565b6002810154815481908390600090610f06908490612675565b90915550506000600283018190556001830181905560058054839290610f2d908490612675565b90915550610f6790506001600160a01b037f00000000000000000000000000000000000000000000000000000000000000001633836121d2565b60405181815233907f7084f5476618d8e60b11ef0d7d3f06914655adb8793e28ff7f018d4c76d505d590602001610e46565b610fa1612057565b3360009081526003602052604090206002810154610fd15760405162461bcd60e51b815260040161062c90612688565b600581015460ff16158015610ff15750805469021e19e0c9bab240000011155b156110315760058101805460ff1916600117905560405133907fb2b8c5f713f27009f7a78ec2167999c472e5ee8bc591102da17bc4a6551236c890600090a25b6008548154670de0b6b3a76400009161104991612610565b6110539190612627565b6003820155600060028201819055600190910155565b611071611fa4565b610e596000612278565b6002546000906001600160a01b031633146110cf5760405162461bcd60e51b815260206004820152601460248201527313db9b1e48189c9a5919d94818d85b8818d85b1b60621b604482015260640161062c565b6110d7611ffe565b6110df612057565b6001600160a01b038316600090815260036020526040902080546111395760405162461bcd60e51b815260206004820152601160248201527009cde40e6e8c2d6ca40e8de40e6d8c2e6d607b1b604482015260640161062c565b60006004820155805460649061115190603290612610565b61115b9190612627565b9150818160000160008282546111719190612675565b90915550506008548154670de0b6b3a76400009161118e91612610565b6111989190612627565b816003018190555081600560008282546111b29190612675565b9091555050805469021e19e0c9bab2400000111561120b5760058101805460ff191690556040516001600160a01b038516907f23d934bfe7f1275bc6fd70432159c9cc1c0075d069f89da6a40f43bfe7a94ed390600090a25b6001600160a01b0383161561124e5761124e6001600160a01b037f00000000000000000000000000000000000000000000000000000000000000001684846121d2565b826001600160a01b0316846001600160a01b03167fd87c3348a79019696e9b472cb0efe979015741dd3a1c95f43cc26dd1ace903c08460405161129391815260200190565b60405180910390a3506112a560018055565b92915050565b6112b3611fa4565b6001600160a01b0381166113025760405162461bcd60e51b8152602060048201526016602482015275496e76616c696420627269646765206164647265737360501b604482015260640161062c565b600280546001600160a01b038381166001600160a01b0319831681179093556040519116919082907faae9beddccf584528e87b66c6ff2563825c8a1433305b8a656e9b5f9bf39049990600090a35050565b61135c611fa4565b611364611ffe565b6001600160a01b03821661138a5760405162461bcd60e51b815260040161062c906125ba565b6001600160a01b03821660009081526003602052604090206005015460ff166113ef5760405162461bcd60e51b81526020600482015260176024820152762737ba1030b71030b1ba34bb32903b30b634b230ba37b960491b604482015260640161062c565b6113f7612057565b6001600160a01b03821660009081526003602052604090208161142c5760405162461bcd60e51b815260040161062c90612649565b80548211156114725760405162461bcd60e51b8152602060048201526012602482015271496e73756666696369656e74207374616b6560701b604482015260640161062c565b600061147d84612171565b9050801561149f578082600401600082825461149991906125fd565b90915550505b81546000906114af908590612675565b9050801561150c5769021e19e0c9bab240000081101561150c5760405162461bcd60e51b8152602060048201526018602482015277576f756c642064726f702062656c6f77206d696e696d756d60401b604482015260640161062c565b42600184015560028301849055600854670de0b6b3a7640000906115309083612610565b61153a9190612627565b600384015560008190036115895760058301805460ff191690556040516001600160a01b038616907f23d934bfe7f1275bc6fd70432159c9cc1c0075d069f89da6a40f43bfe7a94ed390600090a25b6001600160a01b0385167f57e41df54512c76148b5ba9b643d149752b0d35e493b969bd017d0a3fe5228cf856115c262093a80426125fd565b6040805192835260208301919091520160405180910390a2505050610cd860018055565b60606000805b60045481101561165d57600360006004838154811061160d5761160d6126b4565b60009182526020808320909101546001600160a01b0316835282019290925260400190206005015460ff161561164b5781611647816126ca565b9250505b80611655816126ca565b9150506115ec565b5060008167ffffffffffffffff811115611679576116796126e3565b6040519080825280602002602001820160405280156116a2578160200160208202803683370190505b5090506000805b6004548110156117725760036000600483815481106116ca576116ca6126b4565b60009182526020808320909101546001600160a01b0316835282019290925260400190206005015460ff1615611760576004818154811061170d5761170d6126b4565b6000918252602090912001546001600160a01b0316838361172d816126ca565b94508151811061173f5761173f6126b4565b60200260200101906001600160a01b031690816001600160a01b0316815250505b8061176a816126ca565b9150506116a9565b50909392505050565b611783611fa4565b61178b611ffe565b6001600160a01b0381166117b15760405162461bcd60e51b815260040161062c906125ba565b6001600160a01b038116600090815260036020526040902060028101546117ea5760405162461bcd60e51b815260040161062c90612688565b62093a8081600101546117fd91906125fd565b4210156118445760405162461bcd60e51b8152602060048201526015602482015274436f6f6c646f776e206e6f7420636f6d706c65746560581b604482015260640161062c565b600281015481548190839060009061185d908490612675565b90915550506000600283018190556001830181905560058054839290611884908490612675565b909155506118be90506001600160a01b037f00000000000000000000000000000000000000000000000000000000000000001684836121d2565b826001600160a01b03167f7084f5476618d8e60b11ef0d7d3f06914655adb8793e28ff7f018d4c76d505d58260405161077091815260200190565b611901611ffe565b600081116119215760405162461bcd60e51b815260040161062c90612649565b611929612057565b33600090815260036020526040902080541561196e57600061194a33612171565b9050801561196c578082600401600082825461196691906125fd565b90915550505b505b805460009061197e9084906125fd565b905069021e19e0c9bab24000008110156119d05760405162461bcd60e51b815260206004820152601360248201527242656c6f77206d696e696d756d207374616b6560681b604482015260640161062c565b611a056001600160a01b037f00000000000000000000000000000000000000000000000000000000000000001633308661223a565b8154600003611a5157600480546001810182556000919091527f8a35acfbc15ff81a39ae7d344fd709f28e8600b4aa8c65c6b64bfe7fe36bd19b0180546001600160a01b031916331790555b808255600854670de0b6b3a764000090611a6b9083612610565b611a759190612627565b82600301819055508260056000828254611a8f91906125fd565b9091555050600582015460ff16158015611ab3575069021e19e0c9bab24000008110155b15611af35760058201805460ff1916600117905560405133907fb2b8c5f713f27009f7a78ec2167999c472e5ee8bc591102da17bc4a6551236c890600090a25b604080518481526020810183905233917f1449c6dd7851abc30abf37f57715f492010519147cc2652fbc38202c18a6ee909101610770565b60048181548110611b3b57600080fd5b6000918252602090912001546001600160a01b0316905081565b611b5d611fa4565b600654811115611baf5760405162461bcd60e51b815260206004820152601860248201527f496e73756666696369656e742072657761726420706f6f6c0000000000000000604482015260640161062c565b611bb7612057565b8060066000828254611bc99190612675565b9091555050600054611c0f906001600160a01b03166001600160a01b037f00000000000000000000000000000000000000000000000000000000000000001690836121d2565b6006546040805183815260208101929092527ff17c0235da5cefe46d41b0b326d331f5015200f5dda6ed3265c4c954ebad8f109101610830565b6002546001600160a01b03163314611c9a5760405162461bcd60e51b815260206004820152601460248201527313db9b1e48189c9a5919d94818d85b8818d85b1b60621b604482015260640161062c565b60008111611cba5760405162461bcd60e51b815260040161062c90612649565b611cc2612057565b611cf76001600160a01b037f00000000000000000000000000000000000000000000000000000000000000001633308461223a565b8060076000828254611d0991906125fd565b909155505060055415611d4c57600554611d2b670de0b6b3a764000083612610565b611d359190612627565b60086000828254611d4691906125fd565b90915550505b6040518181527f02bede6503f7c3293d6eac9b0f4981900471e18774a84ccc98715aa54330179490602001610830565b611d84611fa4565b6001600160a01b038116611de95760405162461bcd60e51b815260206004820152602660248201527f4f776e61626c653a206e6577206f776e657220697320746865207a65726f206160448201526564647265737360d01b606482015260840161062c565b61078381612278565b6001600160a01b038116600090815260036020526040812080548203611e1c576004015492915050565b60085460055415801590611e3257506000600b54115b8015611e4057506000600654115b8015611e4d5750600a5442115b15611ed0576000600a5442611e629190612675565b9050600064496cebb80082600b54600554611e7d9190612610565b611e879190612610565b611e919190612627565b9050600654811115611ea257506006545b600554611eb7670de0b6b3a764000083612610565b611ec19190612627565b611ecb90846125fd565b925050505b600482015460038301548354670de0b6b3a764000090611ef1908590612610565b611efb9190612627565b611f059190612675565b611f0f91906125fd565b949350505050565b611f1f611fa4565b611388811115611f675760405162461bcd60e51b81526020600482015260136024820152724150592065786365656473206d6178696d756d60681b604482015260640161062c565b611f6f612057565b600b8190556040518181527fc7f87f4e6dae499a921a5cc635cfbc27ee789f8f818fb83f3ea2c40608a6f6fe90602001610830565b6000546001600160a01b03163314610e595760405162461bcd60e51b815260206004820181905260248201527f4f776e61626c653a2063616c6c6572206973206e6f7420746865206f776e6572604482015260640161062c565b6002600154036120505760405162461bcd60e51b815260206004820152601f60248201527f5265656e7472616e637947756172643a207265656e7472616e742063616c6c00604482015260640161062c565b6002600155565b600a54421161206257565b6005546000036120725742600a55565b6000600a54426120829190612675565b90506000600b5411801561209857506000600654115b1561213057600064496cebb80082600b546005546120b69190612610565b6120c09190612610565b6120ca9190612627565b90506006548111156120db57506006545b801561212e5780600660008282546120f39190612675565b909155505060055461210d670de0b6b3a764000083612610565b6121179190612627565b6008600082825461212891906125fd565b90915550505b505b42600a556008546009546040517fcd7c861d63893659123f817b192b8621ff1923a7c4589c260173cedcf9e986a69261083092908252602082015260400190565b6001600160a01b03811660009081526003602052604081208054820361219a5750600092915050565b60038101546008548254670de0b6b3a7640000916121b791612610565b6121c19190612627565b6121cb9190612675565b9392505050565b6040516001600160a01b03831660248201526044810182905261223590849063a9059cbb60e01b906064015b60408051601f198184030181529190526020810180516001600160e01b03166001600160e01b0319909316929092179091526122c8565b505050565b6040516001600160a01b03808516602483015283166044820152606481018290526122729085906323b872dd60e01b906084016121fe565b50505050565b600080546001600160a01b038381166001600160a01b0319831681178455604051919092169283917f8be0079c531659141344cd1fd0a4f28419497f9722a3daafe3b4186f6b6457e09190a35050565b600061231d826040518060400160405280602081526020017f5361666545524332303a206c6f772d6c6576656c2063616c6c206661696c6564815250856001600160a01b031661239d9092919063ffffffff16565b905080516000148061233e57508080602001905181019061233e91906126f9565b6122355760405162461bcd60e51b815260206004820152602a60248201527f5361666545524332303a204552433230206f7065726174696f6e20646964206e6044820152691bdd081cdd58d8d9595960b21b606482015260840161062c565b6060611f0f848460008585600080866001600160a01b031685876040516123c4919061273f565b60006040518083038185875af1925050503d8060008114612401576040519150601f19603f3d011682016040523d82523d6000602084013e612406565b606091505b509150915061241787838387612422565b979650505050505050565b6060831561249157825160000361248a576001600160a01b0385163b61248a5760405162461bcd60e51b815260206004820152601d60248201527f416464726573733a2063616c6c20746f206e6f6e2d636f6e7472616374000000604482015260640161062c565b5081611f0f565b611f0f83838151156124a65781518083602001fd5b8060405162461bcd60e51b815260040161062c919061275b565b80356001600160a01b03811681146124d757600080fd5b919050565b6000602082840312156124ee57600080fd5b6121cb826124c0565b60006020828403121561250957600080fd5b5035919050565b6000806040838503121561252357600080fd5b61252c836124c0565b946020939093013593505050565b6000806040838503121561254d57600080fd5b612556836124c0565b9150612564602084016124c0565b90509250929050565b6020808252825182820181905260009190848201906040850190845b818110156125ae5783516001600160a01b031683529284019291840191600101612589565b50909695505050505050565b602080825260139082015272496e76616c69642062656e656669636961727960681b604082015260600190565b634e487b7160e01b600052601160045260246000fd5b808201808211156112a5576112a56125e7565b80820281158282048414176112a5576112a56125e7565b60008261264457634e487b7160e01b600052601260045260246000fd5b500490565b6020808252601290820152710416d6f756e74206d757374206265203e20360741b604082015260600190565b818103818111156112a5576112a56125e7565b6020808252601290820152714e6f2070656e64696e6720756e7374616b6560701b604082015260600190565b634e487b7160e01b600052603260045260246000fd5b6000600182016126dc576126dc6125e7565b5060010190565b634e487b7160e01b600052604160045260246000fd5b60006020828403121561270b57600080fd5b815180151581146121cb57600080fd5b60005b8381101561273657818101518382015260200161271e565b50506000910152565b6000825161275181846020870161271b565b9190910192915050565b602081526000825180602084015261277a81604085016020870161271b565b601f01601f1916919091016040019291505056fea264697066735822122002475c7a49f05a30e2c8144eaf211751a06ad77c87e5260f13462ccb6eb6b22664736f6c63430008140033","opcodes":"PUSH1 0xA0 PUSH1 0x40 MSTORE CALLVALUE DUP1 ISZERO PUSH3 0x11 JUMPI PUSH1 0x0 DUP1 REVERT JUMPDEST POP PUSH1 0x40 MLOAD PUSH3 0x2955 CODESIZE SUB DUP1 PUSH3 0x2955 DUP4 CODECOPY DUP2 ADD PUSH1 0x40 DUP2 SWAP1 MSTORE PUSH3 0x34 SWAP2 PUSH3 0x104 JUMP JUMPDEST PUSH3 0x3F CALLER PUSH3 0xB4 JUMP JUMPDEST PUSH1 0x1 DUP1 SSTORE PUSH1 0x1 PUSH1 0x1 PUSH1 0xA0 SHL SUB DUP2 AND PUSH3 0x9E JUMPI PUSH1 0x40 MLOAD PUSH3 0x461BCD PUSH1 0xE5 SHL DUP2 MSTORE PUSH1 0x20 PUSH1 0x4 DUP3 ADD MSTORE PUSH1 0x15 PUSH1 0x24 DUP3 ADD MSTORE PUSH32 0x496E76616C696420746F6B656E20616464726573730000000000000000000000 PUSH1 0x44 DUP3 ADD MSTORE PUSH1 0x64 ADD PUSH1 0x40 MLOAD DUP1 SWAP2 SUB SWAP1 REVERT JUMPDEST PUSH1 0x1 PUSH1 0x1 PUSH1 0xA0 SHL SUB AND PUSH1 0x80 MSTORE TIMESTAMP PUSH1 0xA SSTORE PUSH3 0x136 JUMP JUMPDEST PUSH1 0x0 DUP1 SLOAD PUSH1 0x1 PUSH1 0x1 PUSH1 0xA0 SHL SUB DUP4 DUP2 AND PUSH1 0x1 PUSH1 0x1 PUSH1 0xA0 SHL SUB NOT DUP4 AND DUP2 OR DUP5 SSTORE PUSH1 0x40 MLOAD SWAP2 SWAP1 SWAP3 AND SWAP3 DUP4 SWAP2 PUSH32 0x8BE0079C531659141344CD1FD0A4F28419497F9722A3DAAFE3B4186F6B6457E0 SWAP2 SWAP1 LOG3 POP POP JUMP JUMPDEST PUSH1 0x0 PUSH1 0x20 DUP3 DUP5 SUB SLT ISZERO PUSH3 0x117 JUMPI PUSH1 0x0 DUP1 REVERT JUMPDEST DUP2 MLOAD PUSH1 0x1 PUSH1 0x1 PUSH1 0xA0 SHL SUB DUP2 AND DUP2 EQ PUSH3 0x12F JUMPI PUSH1 0x0 DUP1 REVERT JUMPDEST SWAP4 SWAP3 POP POP POP JUMP JUMPDEST PUSH1 0x80 MLOAD PUSH2 0x27C4 PUSH3 0x191 PUSH1 0x0 CODECOPY PUSH1 0x0 DUP2 DUP2 PUSH2 0x3BC ADD MSTORE DUP2 DUP2 PUSH2 0x70E ADD MSTORE DUP2 DUP2 PUSH2 0x7BB ADD MSTORE DUP2 DUP2 PUSH2 0xDF1 ADD MSTORE DUP2 DUP2 PUSH2 0xF40 ADD MSTORE DUP2 DUP2 PUSH2 0x1227 ADD MSTORE DUP2 DUP2 PUSH2 0x1897 ADD MSTORE DUP2 DUP2 PUSH2 0x19DD ADD MSTORE DUP2 DUP2 PUSH2 0x1BE8 ADD MSTORE PUSH2 0x1CCF ADD MSTORE PUSH2 0x27C4 PUSH1 0x0 RETURN INVALID PUSH1 0x80 PUSH1 0x40 MSTORE CALLVALUE DUP1 ISZERO PUSH2 0x10 JUMPI PUSH1 0x0 DUP1 REVERT JUMPDEST POP PUSH1 0x4 CALLDATASIZE LT PUSH2 0x25E JUMPI PUSH1 0x0 CALLDATALOAD PUSH1 0xE0 SHR DUP1 PUSH4 0x8DA5CB5B GT PUSH2 0x146 JUMPI DUP1 PUSH4 0xAAF5EB68 GT PUSH2 0xC3 JUMPI DUP1 PUSH4 0xE78CEA92 GT PUSH2 0x87 JUMPI DUP1 PUSH4 0xE78CEA92 EQ PUSH2 0x51F JUMPI DUP1 PUSH4 0xEBDAC090 EQ PUSH2 0x532 JUMPI DUP1 PUSH4 0xF2FDE38B EQ PUSH2 0x545 JUMPI DUP1 PUSH4 0xF40F0F52 EQ PUSH2 0x558 JUMPI DUP1 PUSH4 0xF5F8AA95 EQ PUSH2 0x56B JUMPI DUP1 PUSH4 0xFA52C7D8 EQ PUSH2 0x57E JUMPI PUSH1 0x0 DUP1 REVERT JUMPDEST DUP1 PUSH4 0xAAF5EB68 EQ PUSH2 0x4D8 JUMPI DUP1 PUSH4 0xAE2E933B EQ PUSH2 0x4E7 JUMPI DUP1 PUSH4 0xB048E056 EQ PUSH2 0x4F0 JUMPI DUP1 PUSH4 0xC74CAB49 EQ PUSH2 0x503 JUMPI DUP1 PUSH4 0xE6D012E4 EQ PUSH2 0x516 JUMPI PUSH1 0x0 DUP1 REVERT JUMPDEST DUP1 PUSH4 0x9A79D32B GT PUSH2 0x10A JUMPI DUP1 PUSH4 0x9A79D32B EQ PUSH2 0x48D JUMPI DUP1 PUSH4 0x9DE70258 EQ PUSH2 0x495 JUMPI DUP1 PUSH4 0x9ECA672C EQ PUSH2 0x4AA JUMPI DUP1 PUSH4 0x9F29F135 EQ PUSH2 0x4BD JUMPI DUP1 PUSH4 0xA694FC3A EQ PUSH2 0x4C5 JUMPI PUSH1 0x0 DUP1 REVERT JUMPDEST DUP1 PUSH4 0x8DA5CB5B EQ PUSH2 0x444 JUMPI DUP1 PUSH4 0x8DD14802 EQ PUSH2 0x455 JUMPI DUP1 PUSH4 0x9231CF74 EQ PUSH2 0x468 JUMPI DUP1 PUSH4 0x939D6237 EQ PUSH2 0x471 JUMPI DUP1 PUSH4 0x9691576E EQ PUSH2 0x47A JUMPI PUSH1 0x0 DUP1 REVERT JUMPDEST DUP1 PUSH4 0x4AB17969 GT PUSH2 0x1DF JUMPI DUP1 PUSH4 0x715018A6 GT PUSH2 0x1A3 JUMPI DUP1 PUSH4 0x715018A6 EQ PUSH2 0x3AF JUMPI DUP1 PUSH4 0x72F702F3 EQ PUSH2 0x3B7 JUMPI DUP1 PUSH4 0x74958E35 EQ PUSH2 0x3F6 JUMPI DUP1 PUSH4 0x7A766460 EQ PUSH2 0x3FF JUMPI DUP1 PUSH4 0x7AECCCE9 EQ PUSH2 0x428 JUMPI DUP1 PUSH4 0x817B1CD2 EQ PUSH2 0x43B JUMPI PUSH1 0x0 DUP1 REVERT JUMPDEST DUP1 PUSH4 0x4AB17969 EQ PUSH2 0x355 JUMPI DUP1 PUSH4 0x66666AA9 EQ PUSH2 0x35D JUMPI DUP1 PUSH4 0x699C8F33 EQ PUSH2 0x366 JUMPI DUP1 PUSH4 0x6E99D52F EQ PUSH2 0x39D JUMPI DUP1 PUSH4 0x7071688A EQ PUSH2 0x3A7 JUMPI PUSH1 0x0 DUP1 REVERT JUMPDEST DUP1 PUSH4 0x2F54FE72 GT PUSH2 0x226 JUMPI DUP1 PUSH4 0x2F54FE72 EQ PUSH2 0x2D5 JUMPI DUP1 PUSH4 0x372500AB EQ PUSH2 0x2FD JUMPI DUP1 PUSH4 0x3CCFD60B EQ PUSH2 0x305 JUMPI DUP1 PUSH4 0x3D92F4E2 EQ PUSH2 0x30D JUMPI DUP1 PUSH4 0x40550A1C EQ PUSH2 0x316 JUMPI PUSH1 0x0 DUP1 REVERT JUMPDEST DUP1 PUSH4 0x8DBBB03 EQ PUSH2 0x263 JUMPI DUP1 PUSH4 0x1AC6D19D EQ PUSH2 0x287 JUMPI DUP1 PUSH4 0x1D583E0D EQ PUSH2 0x29C JUMPI DUP1 PUSH4 0x23095721 EQ PUSH2 0x2AF JUMPI DUP1 PUSH4 0x2EE40908 EQ PUSH2 0x2C2 JUMPI JUMPDEST PUSH1 0x0 DUP1 REVERT JUMPDEST PUSH2 0x274 PUSH10 0x21E19E0C9BAB2400000 DUP2 JUMP JUMPDEST PUSH1 0x40 MLOAD SWAP1 DUP2 MSTORE PUSH1 0x20 ADD JUMPDEST PUSH1 0x40 MLOAD DUP1 SWAP2 SUB SWAP1 RETURN JUMPDEST PUSH2 0x29A PUSH2 0x295 CALLDATASIZE PUSH1 0x4 PUSH2 0x24DC JUMP JUMPDEST PUSH2 0x5F6 JUMP JUMPDEST STOP JUMPDEST PUSH2 0x29A PUSH2 0x2AA CALLDATASIZE PUSH1 0x4 PUSH2 0x24F7 JUMP JUMPDEST PUSH2 0x786 JUMP JUMPDEST PUSH2 0x29A PUSH2 0x2BD CALLDATASIZE PUSH1 0x4 PUSH2 0x24F7 JUMP JUMPDEST PUSH2 0x83B JUMP JUMPDEST PUSH2 0x29A PUSH2 0x2D0 CALLDATASIZE PUSH1 0x4 PUSH2 0x2510 JUMP JUMPDEST PUSH2 0xA7B JUMP JUMPDEST PUSH2 0x2E8 PUSH2 0x2E3 CALLDATASIZE PUSH1 0x4 PUSH2 0x24DC JUMP JUMPDEST PUSH2 0xCDC JUMP JUMPDEST PUSH1 0x40 DUP1 MLOAD SWAP3 DUP4 MSTORE PUSH1 0x20 DUP4 ADD SWAP2 SWAP1 SWAP2 MSTORE ADD PUSH2 0x27E JUMP JUMPDEST PUSH2 0x29A PUSH2 0xD1A JUMP JUMPDEST PUSH2 0x29A PUSH2 0xE5B JUMP JUMPDEST PUSH2 0x274 PUSH2 0x1388 DUP2 JUMP JUMPDEST PUSH2 0x345 PUSH2 0x324 CALLDATASIZE PUSH1 0x4 PUSH2 0x24DC JUMP JUMPDEST PUSH1 0x1 PUSH1 0x1 PUSH1 0xA0 SHL SUB AND PUSH1 0x0 SWAP1 DUP2 MSTORE PUSH1 0x3 PUSH1 0x20 MSTORE PUSH1 0x40 SWAP1 KECCAK256 PUSH1 0x5 ADD SLOAD PUSH1 0xFF AND SWAP1 JUMP JUMPDEST PUSH1 0x40 MLOAD SWAP1 ISZERO ISZERO DUP2 MSTORE PUSH1 0x20 ADD PUSH2 0x27E JUMP JUMPDEST PUSH2 0x29A PUSH2 0xF99 JUMP JUMPDEST PUSH2 0x274 PUSH1 0x6 SLOAD DUP2 JUMP JUMPDEST PUSH1 0x6 SLOAD PUSH1 0x7 SLOAD PUSH1 0xB SLOAD PUSH1 0x5 SLOAD PUSH1 0x9 SLOAD PUSH1 0x40 DUP1 MLOAD SWAP6 DUP7 MSTORE PUSH1 0x20 DUP7 ADD SWAP5 SWAP1 SWAP5 MSTORE SWAP3 DUP5 ADD SWAP2 SWAP1 SWAP2 MSTORE PUSH1 0x60 DUP4 ADD MSTORE PUSH1 0x80 DUP3 ADD MSTORE PUSH1 0xA0 ADD PUSH2 0x27E JUMP JUMPDEST PUSH2 0x274 PUSH3 0x93A80 DUP2 JUMP JUMPDEST PUSH1 0x4 SLOAD PUSH2 0x274 JUMP JUMPDEST PUSH2 0x29A PUSH2 0x1069 JUMP JUMPDEST PUSH2 0x3DE PUSH32 0x0 DUP2 JUMP JUMPDEST PUSH1 0x40 MLOAD PUSH1 0x1 PUSH1 0x1 PUSH1 0xA0 SHL SUB SWAP1 SWAP2 AND DUP2 MSTORE PUSH1 0x20 ADD PUSH2 0x27E JUMP JUMPDEST PUSH2 0x274 PUSH1 0x9 SLOAD DUP2 JUMP JUMPDEST PUSH2 0x274 PUSH2 0x40D CALLDATASIZE PUSH1 0x4 PUSH2 0x24DC JUMP JUMPDEST PUSH1 0x1 PUSH1 0x1 PUSH1 0xA0 SHL SUB AND PUSH1 0x0 SWAP1 DUP2 MSTORE PUSH1 0x3 PUSH1 0x20 MSTORE PUSH1 0x40 SWAP1 KECCAK256 SLOAD SWAP1 JUMP JUMPDEST PUSH2 0x274 PUSH2 0x436 CALLDATASIZE PUSH1 0x4 PUSH2 0x253A JUMP JUMPDEST PUSH2 0x107B JUMP JUMPDEST PUSH2 0x274 PUSH1 0x5 SLOAD DUP2 JUMP JUMPDEST PUSH1 0x0 SLOAD PUSH1 0x1 PUSH1 0x1 PUSH1 0xA0 SHL SUB AND PUSH2 0x3DE JUMP JUMPDEST PUSH2 0x29A PUSH2 0x463 CALLDATASIZE PUSH1 0x4 PUSH2 0x24DC JUMP JUMPDEST PUSH2 0x12AB JUMP JUMPDEST PUSH2 0x274 PUSH1 0xA SLOAD DUP2 JUMP JUMPDEST PUSH2 0x274 PUSH1 0x8 SLOAD DUP2 JUMP JUMPDEST PUSH2 0x29A PUSH2 0x488 CALLDATASIZE PUSH1 0x4 PUSH2 0x2510 JUMP JUMPDEST PUSH2 0x1354 JUMP JUMPDEST PUSH1 0xB SLOAD PUSH2 0x274 JUMP JUMPDEST PUSH2 0x49D PUSH2 0x15E6 JUMP JUMPDEST PUSH1 0x40 MLOAD PUSH2 0x27E SWAP2 SWAP1 PUSH2 0x256D JUMP JUMPDEST PUSH2 0x29A PUSH2 0x4B8 CALLDATASIZE PUSH1 0x4 PUSH2 0x24DC JUMP JUMPDEST PUSH2 0x177B JUMP JUMPDEST PUSH2 0x274 PUSH1 0x32 DUP2 JUMP JUMPDEST PUSH2 0x29A PUSH2 0x4D3 CALLDATASIZE PUSH1 0x4 PUSH2 0x24F7 JUMP JUMPDEST PUSH2 0x18F9 JUMP JUMPDEST PUSH2 0x274 PUSH8 0xDE0B6B3A7640000 DUP2 JUMP JUMPDEST PUSH2 0x274 PUSH1 0x7 SLOAD DUP2 JUMP JUMPDEST PUSH2 0x3DE PUSH2 0x4FE CALLDATASIZE PUSH1 0x4 PUSH2 0x24F7 JUMP JUMPDEST PUSH2 0x1B2B JUMP JUMPDEST PUSH2 0x29A PUSH2 0x511 CALLDATASIZE PUSH1 0x4 PUSH2 0x24F7 JUMP JUMPDEST PUSH2 0x1B55 JUMP JUMPDEST PUSH2 0x274 PUSH1 0xB SLOAD DUP2 JUMP JUMPDEST PUSH1 0x2 SLOAD PUSH2 0x3DE SWAP1 PUSH1 0x1 PUSH1 0x1 PUSH1 0xA0 SHL SUB AND DUP2 JUMP JUMPDEST PUSH2 0x29A PUSH2 0x540 CALLDATASIZE PUSH1 0x4 PUSH2 0x24F7 JUMP JUMPDEST PUSH2 0x1C49 JUMP JUMPDEST PUSH2 0x29A PUSH2 0x553 CALLDATASIZE PUSH1 0x4 PUSH2 0x24DC JUMP JUMPDEST PUSH2 0x1D7C JUMP JUMPDEST PUSH2 0x274 PUSH2 0x566 CALLDATASIZE PUSH1 0x4 PUSH2 0x24DC JUMP JUMPDEST PUSH2 0x1DF2 JUMP JUMPDEST PUSH2 0x29A PUSH2 0x579 CALLDATASIZE PUSH1 0x4 PUSH2 0x24F7 JUMP JUMPDEST PUSH2 0x1F17 JUMP JUMPDEST PUSH2 0x5C7 PUSH2 0x58C CALLDATASIZE PUSH1 0x4 PUSH2 0x24DC JUMP JUMPDEST PUSH1 0x3 PUSH1 0x20 DUP2 SWAP1 MSTORE PUSH1 0x0 SWAP2 DUP3 MSTORE PUSH1 0x40 SWAP1 SWAP2 KECCAK256 DUP1 SLOAD PUSH1 0x1 DUP3 ADD SLOAD PUSH1 0x2 DUP4 ADD SLOAD SWAP4 DUP4 ADD SLOAD PUSH1 0x4 DUP5 ADD SLOAD PUSH1 0x5 SWAP1 SWAP5 ADD SLOAD SWAP3 SWAP5 SWAP2 SWAP4 SWAP2 SWAP3 SWAP1 SWAP2 SWAP1 PUSH1 0xFF AND DUP7 JUMP JUMPDEST PUSH1 0x40 DUP1 MLOAD SWAP7 DUP8 MSTORE PUSH1 0x20 DUP8 ADD SWAP6 SWAP1 SWAP6 MSTORE SWAP4 DUP6 ADD SWAP3 SWAP1 SWAP3 MSTORE PUSH1 0x60 DUP5 ADD MSTORE PUSH1 0x80 DUP4 ADD MSTORE ISZERO ISZERO PUSH1 0xA0 DUP3 ADD MSTORE PUSH1 0xC0 ADD PUSH2 0x27E JUMP JUMPDEST PUSH2 0x5FE PUSH2 0x1FA4 JUMP JUMPDEST PUSH2 0x606 PUSH2 0x1FFE JUMP JUMPDEST PUSH1 0x1 PUSH1 0x1 PUSH1 0xA0 SHL SUB DUP2 AND PUSH2 0x635 JUMPI PUSH1 0x40 MLOAD PUSH3 0x461BCD PUSH1 0xE5 SHL DUP2 MSTORE PUSH1 0x4 ADD PUSH2 0x62C SWAP1 PUSH2 0x25BA JUMP JUMPDEST PUSH1 0x40 MLOAD DUP1 SWAP2 SUB SWAP1 REVERT JUMPDEST PUSH2 0x63D PUSH2 0x2057 JUMP JUMPDEST PUSH1 0x1 PUSH1 0x1 PUSH1 0xA0 SHL SUB DUP2 AND PUSH1 0x0 SWAP1 DUP2 MSTORE PUSH1 0x3 PUSH1 0x20 MSTORE PUSH1 0x40 DUP2 KECCAK256 PUSH1 0x4 DUP2 ADD SLOAD SWAP1 SWAP2 SWAP1 PUSH2 0x666 DUP5 PUSH2 0x2171 JUMP JUMPDEST PUSH2 0x670 SWAP2 SWAP1 PUSH2 0x25FD JUMP JUMPDEST SWAP1 POP PUSH1 0x0 DUP2 GT PUSH2 0x6B8 JUMPI PUSH1 0x40 MLOAD PUSH3 0x461BCD PUSH1 0xE5 SHL DUP2 MSTORE PUSH1 0x20 PUSH1 0x4 DUP3 ADD MSTORE PUSH1 0x13 PUSH1 0x24 DUP3 ADD MSTORE PUSH19 0x4E6F207265776172647320746F20636C61696D PUSH1 0x68 SHL PUSH1 0x44 DUP3 ADD MSTORE PUSH1 0x64 ADD PUSH2 0x62C JUMP JUMPDEST PUSH1 0x0 PUSH1 0x4 DUP4 ADD SSTORE PUSH1 0x8 SLOAD DUP3 SLOAD PUSH8 0xDE0B6B3A7640000 SWAP2 PUSH2 0x6D7 SWAP2 PUSH2 0x2610 JUMP JUMPDEST PUSH2 0x6E1 SWAP2 SWAP1 PUSH2 0x2627 JUMP JUMPDEST DUP3 PUSH1 0x3 ADD DUP2 SWAP1 SSTORE POP DUP1 PUSH1 0x9 PUSH1 0x0 DUP3 DUP3 SLOAD PUSH2 0x6FB SWAP2 SWAP1 PUSH2 0x25FD JUMP JUMPDEST SWAP1 SWAP2 SSTORE POP PUSH2 0x735 SWAP1 POP PUSH1 0x1 PUSH1 0x1 PUSH1 0xA0 SHL SUB PUSH32 0x0 AND DUP5 DUP4 PUSH2 0x21D2 JUMP JUMPDEST DUP3 PUSH1 0x1 PUSH1 0x1 PUSH1 0xA0 SHL SUB AND PUSH32 0xFC30CDDEA38E2BF4D6EA7D3F9ED3B6AD7F176419F4963BD81318067A4AEE73FE DUP3 PUSH1 0x40 MLOAD PUSH2 0x770 SWAP2 DUP2 MSTORE PUSH1 0x20 ADD SWAP1 JUMP JUMPDEST PUSH1 0x40 MLOAD DUP1 SWAP2 SUB SWAP1 LOG2 POP POP PUSH2 0x783 PUSH1 0x1 DUP1 SSTORE JUMP JUMPDEST POP JUMP JUMPDEST PUSH2 0x78E PUSH2 0x1FA4 JUMP JUMPDEST PUSH1 0x0 DUP2 GT PUSH2 0x7AE JUMPI PUSH1 0x40 MLOAD PUSH3 0x461BCD PUSH1 0xE5 SHL DUP2 MSTORE PUSH1 0x4 ADD PUSH2 0x62C SWAP1 PUSH2 0x2649 JUMP JUMPDEST PUSH2 0x7E3 PUSH1 0x1 PUSH1 0x1 PUSH1 0xA0 SHL SUB PUSH32 0x0 AND CALLER ADDRESS DUP5 PUSH2 0x223A JUMP JUMPDEST DUP1 PUSH1 0x6 PUSH1 0x0 DUP3 DUP3 SLOAD PUSH2 0x7F5 SWAP2 SWAP1 PUSH2 0x25FD JUMP JUMPDEST SWAP1 SWAP2 SSTORE POP POP PUSH1 0x6 SLOAD PUSH1 0x40 DUP1 MLOAD DUP4 DUP2 MSTORE PUSH1 0x20 DUP2 ADD SWAP3 SWAP1 SWAP3 MSTORE PUSH32 0x5451F0D28A59C1C16A9D7CC5017150D585749EB225366037423F94B85AD94EA7 SWAP2 ADD JUMPDEST PUSH1 0x40 MLOAD DUP1 SWAP2 SUB SWAP1 LOG1 POP JUMP JUMPDEST CALLER PUSH1 0x0 SWAP1 DUP2 MSTORE PUSH1 0x3 PUSH1 0x20 MSTORE PUSH1 0x40 SWAP1 KECCAK256 PUSH1 0x5 ADD SLOAD PUSH1 0xFF AND PUSH2 0x897 JUMPI PUSH1 0x40 MLOAD PUSH3 0x461BCD PUSH1 0xE5 SHL DUP2 MSTORE PUSH1 0x20 PUSH1 0x4 DUP3 ADD MSTORE PUSH1 0x17 PUSH1 0x24 DUP3 ADD MSTORE PUSH23 0x2737BA1030B71030B1BA34BB32903B30B634B230BA37B9 PUSH1 0x49 SHL PUSH1 0x44 DUP3 ADD MSTORE PUSH1 0x64 ADD PUSH2 0x62C JUMP JUMPDEST PUSH2 0x89F PUSH2 0x1FFE JUMP JUMPDEST PUSH2 0x8A7 PUSH2 0x2057 JUMP JUMPDEST CALLER PUSH1 0x0 SWAP1 DUP2 MSTORE PUSH1 0x3 PUSH1 0x20 MSTORE PUSH1 0x40 SWAP1 KECCAK256 DUP2 PUSH2 0x8D3 JUMPI PUSH1 0x40 MLOAD PUSH3 0x461BCD PUSH1 0xE5 SHL DUP2 MSTORE PUSH1 0x4 ADD PUSH2 0x62C SWAP1 PUSH2 0x2649 JUMP JUMPDEST DUP1 SLOAD DUP3 GT ISZERO PUSH2 0x919 JUMPI PUSH1 0x40 MLOAD PUSH3 0x461BCD PUSH1 0xE5 SHL DUP2 MSTORE PUSH1 0x20 PUSH1 0x4 DUP3 ADD MSTORE PUSH1 0x12 PUSH1 0x24 DUP3 ADD MSTORE PUSH18 0x496E73756666696369656E74207374616B65 PUSH1 0x70 SHL PUSH1 0x44 DUP3 ADD MSTORE PUSH1 0x64 ADD PUSH2 0x62C JUMP JUMPDEST PUSH1 0x0 PUSH2 0x924 CALLER PUSH2 0x2171 JUMP JUMPDEST SWAP1 POP DUP1 ISZERO PUSH2 0x946 JUMPI DUP1 DUP3 PUSH1 0x4 ADD PUSH1 0x0 DUP3 DUP3 SLOAD PUSH2 0x940 SWAP2 SWAP1 PUSH2 0x25FD JUMP JUMPDEST SWAP1 SWAP2 SSTORE POP POP JUMPDEST DUP2 SLOAD PUSH1 0x0 SWAP1 PUSH2 0x956 SWAP1 DUP6 SWAP1 PUSH2 0x2675 JUMP JUMPDEST SWAP1 POP DUP1 ISZERO PUSH2 0x9B3 JUMPI PUSH10 0x21E19E0C9BAB2400000 DUP2 LT ISZERO PUSH2 0x9B3 JUMPI PUSH1 0x40 MLOAD PUSH3 0x461BCD PUSH1 0xE5 SHL DUP2 MSTORE PUSH1 0x20 PUSH1 0x4 DUP3 ADD MSTORE PUSH1 0x18 PUSH1 0x24 DUP3 ADD MSTORE PUSH24 0x576F756C642064726F702062656C6F77206D696E696D756D PUSH1 0x40 SHL PUSH1 0x44 DUP3 ADD MSTORE PUSH1 0x64 ADD PUSH2 0x62C JUMP JUMPDEST TIMESTAMP PUSH1 0x1 DUP5 ADD SSTORE PUSH1 0x2 DUP4 ADD DUP5 SWAP1 SSTORE PUSH1 0x8 SLOAD PUSH8 0xDE0B6B3A7640000 SWAP1 PUSH2 0x9D7 SWAP1 DUP4 PUSH2 0x2610 JUMP JUMPDEST PUSH2 0x9E1 SWAP2 SWAP1 PUSH2 0x2627 JUMP JUMPDEST PUSH1 0x3 DUP5 ADD SSTORE PUSH1 0x0 DUP2 SWAP1 SUB PUSH2 0xA27 JUMPI PUSH1 0x5 DUP4 ADD DUP1 SLOAD PUSH1 0xFF NOT AND SWAP1 SSTORE PUSH1 0x40 MLOAD CALLER SWAP1 PUSH32 0x23D934BFE7F1275BC6FD70432159C9CC1C0075D069F89DA6A40F43BFE7A94ED3 SWAP1 PUSH1 0x0 SWAP1 LOG2 JUMPDEST CALLER PUSH32 0x57E41DF54512C76148B5BA9B643D149752B0D35E493B969BD017D0A3FE5228CF DUP6 PUSH2 0xA57 PUSH3 0x93A80 TIMESTAMP PUSH2 0x25FD JUMP JUMPDEST PUSH1 0x40 DUP1 MLOAD SWAP3 DUP4 MSTORE PUSH1 0x20 DUP4 ADD SWAP2 SWAP1 SWAP2 MSTORE ADD PUSH1 0x40 MLOAD DUP1 SWAP2 SUB SWAP1 LOG2 POP POP POP PUSH2 0x783 PUSH1 0x1 DUP1 SSTORE JUMP JUMPDEST PUSH2 0xA83 PUSH2 0x1FA4 JUMP JUMPDEST PUSH2 0xA8B PUSH2 0x1FFE JUMP JUMPDEST PUSH1 0x1 PUSH1 0x1 PUSH1 0xA0 SHL SUB DUP3 AND PUSH2 0xAB1 JUMPI PUSH1 0x40 MLOAD PUSH3 0x461BCD PUSH1 0xE5 SHL DUP2 MSTORE PUSH1 0x4 ADD PUSH2 0x62C SWAP1 PUSH2 0x25BA JUMP JUMPDEST PUSH1 0x0 DUP2 GT PUSH2 0xAD1 JUMPI PUSH1 0x40 MLOAD PUSH3 0x461BCD PUSH1 0xE5 SHL DUP2 MSTORE PUSH1 0x4 ADD PUSH2 0x62C SWAP1 PUSH2 0x2649 JUMP JUMPDEST PUSH2 0xAD9 PUSH2 0x2057 JUMP JUMPDEST PUSH1 0x1 PUSH1 0x1 PUSH1 0xA0 SHL SUB DUP3 AND PUSH1 0x0 SWAP1 DUP2 MSTORE PUSH1 0x3 PUSH1 0x20 MSTORE PUSH1 0x40 SWAP1 KECCAK256 DUP1 SLOAD ISZERO PUSH2 0xB27 JUMPI PUSH1 0x0 PUSH2 0xB03 DUP5 PUSH2 0x2171 JUMP JUMPDEST SWAP1 POP DUP1 ISZERO PUSH2 0xB25 JUMPI DUP1 DUP3 PUSH1 0x4 ADD PUSH1 0x0 DUP3 DUP3 SLOAD PUSH2 0xB1F SWAP2 SWAP1 PUSH2 0x25FD JUMP JUMPDEST SWAP1 SWAP2 SSTORE POP POP JUMPDEST POP JUMPDEST DUP1 SLOAD PUSH1 0x0 SWAP1 PUSH2 0xB37 SWAP1 DUP5 SWAP1 PUSH2 0x25FD JUMP JUMPDEST SWAP1 POP PUSH10 0x21E19E0C9BAB2400000 DUP2 LT ISZERO PUSH2 0xB89 JUMPI PUSH1 0x40 MLOAD PUSH3 0x461BCD PUSH1 0xE5 SHL DUP2 MSTORE PUSH1 0x20 PUSH1 0x4 DUP3 ADD MSTORE PUSH1 0x13 PUSH1 0x24 DUP3 ADD MSTORE PUSH19 0x42656C6F77206D696E696D756D207374616B65 PUSH1 0x68 SHL PUSH1 0x44 DUP3 ADD MSTORE PUSH1 0x64 ADD PUSH2 0x62C JUMP JUMPDEST DUP2 SLOAD PUSH1 0x0 SUB PUSH2 0xBDE JUMPI PUSH1 0x4 DUP1 SLOAD PUSH1 0x1 DUP2 ADD DUP3 SSTORE PUSH1 0x0 SWAP2 SWAP1 SWAP2 MSTORE PUSH32 0x8A35ACFBC15FF81A39AE7D344FD709F28E8600B4AA8C65C6B64BFE7FE36BD19B ADD DUP1 SLOAD PUSH1 0x1 PUSH1 0x1 PUSH1 0xA0 SHL SUB NOT AND PUSH1 0x1 PUSH1 0x1 PUSH1 0xA0 SHL SUB DUP7 AND OR SWAP1 SSTORE JUMPDEST DUP1 DUP3 SSTORE PUSH1 0x8 SLOAD PUSH8 0xDE0B6B3A7640000 SWAP1 PUSH2 0xBF8 SWAP1 DUP4 PUSH2 0x2610 JUMP JUMPDEST PUSH2 0xC02 SWAP2 SWAP1 PUSH2 0x2627 JUMP JUMPDEST DUP3 PUSH1 0x3 ADD DUP2 SWAP1 SSTORE POP DUP3 PUSH1 0x5 PUSH1 0x0 DUP3 DUP3 SLOAD PUSH2 0xC1C SWAP2 SWAP1 PUSH2 0x25FD JUMP JUMPDEST SWAP1 SWAP2 SSTORE POP POP PUSH1 0x5 DUP3 ADD SLOAD PUSH1 0xFF AND ISZERO DUP1 ISZERO PUSH2 0xC40 JUMPI POP PUSH10 0x21E19E0C9BAB2400000 DUP2 LT ISZERO JUMPDEST ISZERO PUSH2 0xC89 JUMPI PUSH1 0x5 DUP3 ADD DUP1 SLOAD PUSH1 0xFF NOT AND PUSH1 0x1 OR SWAP1 SSTORE PUSH1 0x40 MLOAD PUSH1 0x1 PUSH1 0x1 PUSH1 0xA0 SHL SUB DUP6 AND SWAP1 PUSH32 0xB2B8C5F713F27009F7A78EC2167999C472E5EE8BC591102DA17BC4A6551236C8 SWAP1 PUSH1 0x0 SWAP1 LOG2 JUMPDEST PUSH1 0x40 DUP1 MLOAD DUP5 DUP2 MSTORE PUSH1 0x20 DUP2 ADD DUP4 SWAP1 MSTORE PUSH1 0x1 PUSH1 0x1 PUSH1 0xA0 SHL SUB DUP7 AND SWAP2 PUSH32 0x1449C6DD7851ABC30ABF37F57715F492010519147CC2652FBC38202C18A6EE90 SWAP2 ADD PUSH1 0x40 MLOAD DUP1 SWAP2 SUB SWAP1 LOG2 POP POP PUSH2 0xCD8 PUSH1 0x1 DUP1 SSTORE JUMP JUMPDEST POP POP JUMP JUMPDEST PUSH1 0x1 PUSH1 0x1 PUSH1 0xA0 SHL SUB DUP2 AND PUSH1 0x0 SWAP1 DUP2 MSTORE PUSH1 0x3 PUSH1 0x20 MSTORE PUSH1 0x40 DUP2 KECCAK256 PUSH1 0x2 DUP2 ADD SLOAD PUSH1 0x1 DUP3 ADD SLOAD DUP4 SWAP3 SWAP2 SWAP1 PUSH2 0xD10 SWAP1 PUSH3 0x93A80 SWAP1 PUSH2 0x25FD JUMP JUMPDEST SWAP3 POP SWAP3 POP POP SWAP2 POP SWAP2 JUMP JUMPDEST PUSH2 0xD22 PUSH2 0x1FFE JUMP JUMPDEST PUSH2 0xD2A PUSH2 0x2057 JUMP JUMPDEST CALLER PUSH1 0x0 DUP2 DUP2 MSTORE PUSH1 0x3 PUSH1 0x20 MSTORE PUSH1 0x40 DUP2 KECCAK256 PUSH1 0x4 DUP2 ADD SLOAD SWAP1 SWAP3 PUSH2 0xD49 SWAP1 PUSH2 0x2171 JUMP JUMPDEST PUSH2 0xD53 SWAP2 SWAP1 PUSH2 0x25FD JUMP JUMPDEST SWAP1 POP PUSH1 0x0 DUP2 GT PUSH2 0xD9B JUMPI PUSH1 0x40 MLOAD PUSH3 0x461BCD PUSH1 0xE5 SHL DUP2 MSTORE PUSH1 0x20 PUSH1 0x4 DUP3 ADD MSTORE PUSH1 0x13 PUSH1 0x24 DUP3 ADD MSTORE PUSH19 0x4E6F207265776172647320746F20636C61696D PUSH1 0x68 SHL PUSH1 0x44 DUP3 ADD MSTORE PUSH1 0x64 ADD PUSH2 0x62C JUMP JUMPDEST PUSH1 0x0 PUSH1 0x4 DUP4 ADD SSTORE PUSH1 0x8 SLOAD DUP3 SLOAD PUSH8 0xDE0B6B3A7640000 SWAP2 PUSH2 0xDBA SWAP2 PUSH2 0x2610 JUMP JUMPDEST PUSH2 0xDC4 SWAP2 SWAP1 PUSH2 0x2627 JUMP JUMPDEST DUP3 PUSH1 0x3 ADD DUP2 SWAP1 SSTORE POP DUP1 PUSH1 0x9 PUSH1 0x0 DUP3 DUP3 SLOAD PUSH2 0xDDE SWAP2 SWAP1 PUSH2 0x25FD JUMP JUMPDEST SWAP1 SWAP2 SSTORE POP PUSH2 0xE18 SWAP1 POP PUSH1 0x1 PUSH1 0x1 PUSH1 0xA0 SHL SUB PUSH32 0x0 AND CALLER DUP4 PUSH2 0x21D2 JUMP JUMPDEST PUSH1 0x40 MLOAD DUP2 DUP2 MSTORE CALLER SWAP1 PUSH32 0xFC30CDDEA38E2BF4D6EA7D3F9ED3B6AD7F176419F4963BD81318067A4AEE73FE SWAP1 PUSH1 0x20 ADD JUMPDEST PUSH1 0x40 MLOAD DUP1 SWAP2 SUB SWAP1 LOG2 POP POP PUSH2 0xE59 PUSH1 0x1 DUP1 SSTORE JUMP JUMPDEST JUMP JUMPDEST PUSH2 0xE63 PUSH2 0x1FFE JUMP JUMPDEST CALLER PUSH1 0x0 SWAP1 DUP2 MSTORE PUSH1 0x3 PUSH1 0x20 MSTORE PUSH1 0x40 SWAP1 KECCAK256 PUSH1 0x2 DUP2 ADD SLOAD PUSH2 0xE93 JUMPI PUSH1 0x40 MLOAD PUSH3 0x461BCD PUSH1 0xE5 SHL DUP2 MSTORE PUSH1 0x4 ADD PUSH2 0x62C SWAP1 PUSH2 0x2688 JUMP JUMPDEST PUSH3 0x93A80 DUP2 PUSH1 0x1 ADD SLOAD PUSH2 0xEA6 SWAP2 SWAP1 PUSH2 0x25FD JUMP JUMPDEST TIMESTAMP LT ISZERO PUSH2 0xEED JUMPI PUSH1 0x40 MLOAD PUSH3 0x461BCD PUSH1 0xE5 SHL DUP2 MSTORE PUSH1 0x20 PUSH1 0x4 DUP3 ADD MSTORE PUSH1 0x15 PUSH1 0x24 DUP3 ADD MSTORE PUSH21 0x436F6F6C646F776E206E6F7420636F6D706C657465 PUSH1 0x58 SHL PUSH1 0x44 DUP3 ADD MSTORE PUSH1 0x64 ADD PUSH2 0x62C JUMP JUMPDEST PUSH1 0x2 DUP2 ADD SLOAD DUP2 SLOAD DUP2 SWAP1 DUP4 SWAP1 PUSH1 0x0 SWAP1 PUSH2 0xF06 SWAP1 DUP5 SWAP1 PUSH2 0x2675 JUMP JUMPDEST SWAP1 SWAP2 SSTORE POP POP PUSH1 0x0 PUSH1 0x2 DUP4 ADD DUP2 SWAP1 SSTORE PUSH1 0x1 DUP4 ADD DUP2 SWAP1 SSTORE PUSH1 0x5 DUP1 SLOAD DUP4 SWAP3 SWAP1 PUSH2 0xF2D SWAP1 DUP5 SWAP1 PUSH2 0x2675 JUMP JUMPDEST SWAP1 SWAP2 SSTORE POP PUSH2 0xF67 SWAP1 POP PUSH1 0x1 PUSH1 0x1 PUSH1 0xA0 SHL SUB PUSH32 0x0 AND CALLER DUP4 PUSH2 0x21D2 JUMP JUMPDEST PUSH1 0x40 MLOAD DUP2 DUP2 MSTORE CALLER SWAP1 PUSH32 0x7084F5476618D8E60B11EF0D7D3F06914655ADB8793E28FF7F018D4C76D505D5 SWAP1 PUSH1 0x20 ADD PUSH2 0xE46 JUMP JUMPDEST PUSH2 0xFA1 PUSH2 0x2057 JUMP JUMPDEST CALLER PUSH1 0x0 SWAP1 DUP2 MSTORE PUSH1 0x3 PUSH1 0x20 MSTORE PUSH1 0x40 SWAP1 KECCAK256 PUSH1 0x2 DUP2 ADD SLOAD PUSH2 0xFD1 JUMPI PUSH1 0x40 MLOAD PUSH3 0x461BCD PUSH1 0xE5 SHL DUP2 MSTORE PUSH1 0x4 ADD PUSH2 0x62C SWAP1 PUSH2 0x2688 JUMP JUMPDEST PUSH1 0x5 DUP2 ADD SLOAD PUSH1 0xFF AND ISZERO DUP1 ISZERO PUSH2 0xFF1 JUMPI POP DUP1 SLOAD PUSH10 0x21E19E0C9BAB2400000 GT ISZERO JUMPDEST ISZERO PUSH2 0x1031 JUMPI PUSH1 0x5 DUP2 ADD DUP1 SLOAD PUSH1 0xFF NOT AND PUSH1 0x1 OR SWAP1 SSTORE PUSH1 0x40 MLOAD CALLER SWAP1 PUSH32 0xB2B8C5F713F27009F7A78EC2167999C472E5EE8BC591102DA17BC4A6551236C8 SWAP1 PUSH1 0x0 SWAP1 LOG2 JUMPDEST PUSH1 0x8 SLOAD DUP2 SLOAD PUSH8 0xDE0B6B3A7640000 SWAP2 PUSH2 0x1049 SWAP2 PUSH2 0x2610 JUMP JUMPDEST PUSH2 0x1053 SWAP2 SWAP1 PUSH2 0x2627 JUMP JUMPDEST PUSH1 0x3 DUP3 ADD SSTORE PUSH1 0x0 PUSH1 0x2 DUP3 ADD DUP2 SWAP1 SSTORE PUSH1 0x1 SWAP1 SWAP2 ADD SSTORE JUMP JUMPDEST PUSH2 0x1071 PUSH2 0x1FA4 JUMP JUMPDEST PUSH2 0xE59 PUSH1 0x0 PUSH2 0x2278 JUMP JUMPDEST PUSH1 0x2 SLOAD PUSH1 0x0 SWAP1 PUSH1 0x1 PUSH1 0x1 PUSH1 0xA0 SHL SUB AND CALLER EQ PUSH2 0x10CF JUMPI PUSH1 0x40 MLOAD PUSH3 0x461BCD PUSH1 0xE5 SHL DUP2 MSTORE PUSH1 0x20 PUSH1 0x4 DUP3 ADD MSTORE PUSH1 0x14 PUSH1 0x24 DUP3 ADD MSTORE PUSH20 0x13DB9B1E48189C9A5919D94818D85B8818D85B1B PUSH1 0x62 SHL PUSH1 0x44 DUP3 ADD MSTORE PUSH1 0x64 ADD PUSH2 0x62C JUMP JUMPDEST PUSH2 0x10D7 PUSH2 0x1FFE JUMP JUMPDEST PUSH2 0x10DF PUSH2 0x2057 JUMP JUMPDEST PUSH1 0x1 PUSH1 0x1 PUSH1 0xA0 SHL SUB DUP4 AND PUSH1 0x0 SWAP1 DUP2 MSTORE PUSH1 0x3 PUSH1 0x20 MSTORE PUSH1 0x40 SWAP1 KECCAK256 DUP1 SLOAD PUSH2 0x1139 JUMPI PUSH1 0x40 MLOAD PUSH3 0x461BCD PUSH1 0xE5 SHL DUP2 MSTORE PUSH1 0x20 PUSH1 0x4 DUP3 ADD MSTORE PUSH1 0x11 PUSH1 0x24 DUP3 ADD MSTORE PUSH17 0x9CDE40E6E8C2D6CA40E8DE40E6D8C2E6D PUSH1 0x7B SHL PUSH1 0x44 DUP3 ADD MSTORE PUSH1 0x64 ADD PUSH2 0x62C JUMP JUMPDEST PUSH1 0x0 PUSH1 0x4 DUP3 ADD SSTORE DUP1 SLOAD PUSH1 0x64 SWAP1 PUSH2 0x1151 SWAP1 PUSH1 0x32 SWAP1 PUSH2 0x2610 JUMP JUMPDEST PUSH2 0x115B SWAP2 SWAP1 PUSH2 0x2627 JUMP JUMPDEST SWAP2 POP DUP2 DUP2 PUSH1 0x0 ADD PUSH1 0x0 DUP3 DUP3 SLOAD PUSH2 0x1171 SWAP2 SWAP1 PUSH2 0x2675 JUMP JUMPDEST SWAP1 SWAP2 SSTORE POP POP PUSH1 0x8 SLOAD DUP2 SLOAD PUSH8 0xDE0B6B3A7640000 SWAP2 PUSH2 0x118E SWAP2 PUSH2 0x2610 JUMP JUMPDEST PUSH2 0x1198 SWAP2 SWAP1 PUSH2 0x2627 JUMP JUMPDEST DUP2 PUSH1 0x3 ADD DUP2 SWAP1 SSTORE POP DUP2 PUSH1 0x5 PUSH1 0x0 DUP3 DUP3 SLOAD PUSH2 0x11B2 SWAP2 SWAP1 PUSH2 0x2675 JUMP JUMPDEST SWAP1 SWAP2 SSTORE POP POP DUP1 SLOAD PUSH10 0x21E19E0C9BAB2400000 GT ISZERO PUSH2 0x120B JUMPI PUSH1 0x5 DUP2 ADD DUP1 SLOAD PUSH1 0xFF NOT AND SWAP1 SSTORE PUSH1 0x40 MLOAD PUSH1 0x1 PUSH1 0x1 PUSH1 0xA0 SHL SUB DUP6 AND SWAP1 PUSH32 0x23D934BFE7F1275BC6FD70432159C9CC1C0075D069F89DA6A40F43BFE7A94ED3 SWAP1 PUSH1 0x0 SWAP1 LOG2 JUMPDEST PUSH1 0x1 PUSH1 0x1 PUSH1 0xA0 SHL SUB DUP4 AND ISZERO PUSH2 0x124E JUMPI PUSH2 0x124E PUSH1 0x1 PUSH1 0x1 PUSH1 0xA0 SHL SUB PUSH32 0x0 AND DUP5 DUP5 PUSH2 0x21D2 JUMP JUMPDEST DUP3 PUSH1 0x1 PUSH1 0x1 PUSH1 0xA0 SHL SUB AND DUP5 PUSH1 0x1 PUSH1 0x1 PUSH1 0xA0 SHL SUB AND PUSH32 0xD87C3348A79019696E9B472CB0EFE979015741DD3A1C95F43CC26DD1ACE903C0 DUP5 PUSH1 0x40 MLOAD PUSH2 0x1293 SWAP2 DUP2 MSTORE PUSH1 0x20 ADD SWAP1 JUMP JUMPDEST PUSH1 0x40 MLOAD DUP1 SWAP2 SUB SWAP1 LOG3 POP PUSH2 0x12A5 PUSH1 0x1 DUP1 SSTORE JUMP JUMPDEST SWAP3 SWAP2 POP POP JUMP JUMPDEST PUSH2 0x12B3 PUSH2 0x1FA4 JUMP JUMPDEST PUSH1 0x1 PUSH1 0x1 PUSH1 0xA0 SHL SUB DUP2 AND PUSH2 0x1302 JUMPI PUSH1 0x40 MLOAD PUSH3 0x461BCD PUSH1 0xE5 SHL DUP2 MSTORE PUSH1 0x20 PUSH1 0x4 DUP3 ADD MSTORE PUSH1 0x16 PUSH1 0x24 DUP3 ADD MSTORE PUSH22 0x496E76616C6964206272696467652061646472657373 PUSH1 0x50 SHL PUSH1 0x44 DUP3 ADD MSTORE PUSH1 0x64 ADD PUSH2 0x62C JUMP JUMPDEST PUSH1 0x2 DUP1 SLOAD PUSH1 0x1 PUSH1 0x1 PUSH1 0xA0 SHL SUB DUP4 DUP2 AND PUSH1 0x1 PUSH1 0x1 PUSH1 0xA0 SHL SUB NOT DUP4 AND DUP2 OR SWAP1 SWAP4 SSTORE PUSH1 0x40 MLOAD SWAP2 AND SWAP2 SWAP1 DUP3 SWAP1 PUSH32 0xAAE9BEDDCCF584528E87B66C6FF2563825C8A1433305B8A656E9B5F9BF390499 SWAP1 PUSH1 0x0 SWAP1 LOG3 POP POP JUMP JUMPDEST PUSH2 0x135C PUSH2 0x1FA4 JUMP JUMPDEST PUSH2 0x1364 PUSH2 0x1FFE JUMP JUMPDEST PUSH1 0x1 PUSH1 0x1 PUSH1 0xA0 SHL SUB DUP3 AND PUSH2 0x138A JUMPI PUSH1 0x40 MLOAD PUSH3 0x461BCD PUSH1 0xE5 SHL DUP2 MSTORE PUSH1 0x4 ADD PUSH2 0x62C SWAP1 PUSH2 0x25BA JUMP JUMPDEST PUSH1 0x1 PUSH1 0x1 PUSH1 0xA0 SHL SUB DUP3 AND PUSH1 0x0 SWAP1 DUP2 MSTORE PUSH1 0x3 PUSH1 0x20 MSTORE PUSH1 0x40 SWAP1 KECCAK256 PUSH1 0x5 ADD SLOAD PUSH1 0xFF AND PUSH2 0x13EF JUMPI PUSH1 0x40 MLOAD PUSH3 0x461BCD PUSH1 0xE5 SHL DUP2 MSTORE PUSH1 0x20 PUSH1 0x4 DUP3 ADD MSTORE PUSH1 0x17 PUSH1 0x24 DUP3 ADD MSTORE PUSH23 0x2737BA1030B71030B1BA34BB32903B30B634B230BA37B9 PUSH1 0x49 SHL PUSH1 0x44 DUP3 ADD MSTORE PUSH1 0x64 ADD PUSH2 0x62C JUMP JUMPDEST PUSH2 0x13F7 PUSH2 0x2057 JUMP JUMPDEST PUSH1 0x1 PUSH1 0x1 PUSH1 0xA0 SHL SUB DUP3 AND PUSH1 0x0 SWAP1 DUP2 MSTORE PUSH1 0x3 PUSH1 0x20 MSTORE PUSH1 0x40 SWAP1 KECCAK256 DUP2 PUSH2 0x142C JUMPI PUSH1 0x40 MLOAD PUSH3 0x461BCD PUSH1 0xE5 SHL DUP2 MSTORE PUSH1 0x4 ADD PUSH2 0x62C SWAP1 PUSH2 0x2649 JUMP JUMPDEST DUP1 SLOAD DUP3 GT ISZERO PUSH2 0x1472 JUMPI PUSH1 0x40 MLOAD PUSH3 0x461BCD PUSH1 0xE5 SHL DUP2 MSTORE PUSH1 0x20 PUSH1 0x4 DUP3 ADD MSTORE PUSH1 0x12 PUSH1 0x24 DUP3 ADD MSTORE PUSH18 0x496E73756666696369656E74207374616B65 PUSH1 0x70 SHL PUSH1 0x44 DUP3 ADD MSTORE PUSH1 0x64 ADD PUSH2 0x62C JUMP JUMPDEST PUSH1 0x0 PUSH2 0x147D DUP5 PUSH2 0x2171 JUMP JUMPDEST SWAP1 POP DUP1 ISZERO PUSH2 0x149F JUMPI DUP1 DUP3 PUSH1 0x4 ADD PUSH1 0x0 DUP3 DUP3 SLOAD PUSH2 0x1499 SWAP2 SWAP1 PUSH2 0x25FD JUMP JUMPDEST SWAP1 SWAP2 SSTORE POP POP JUMPDEST DUP2 SLOAD PUSH1 0x0 SWAP1 PUSH2 0x14AF SWAP1 DUP6 SWAP1 PUSH2 0x2675 JUMP JUMPDEST SWAP1 POP DUP1 ISZERO PUSH2 0x150C JUMPI PUSH10 0x21E19E0C9BAB2400000 DUP2 LT ISZERO PUSH2 0x150C JUMPI PUSH1 0x40 MLOAD PUSH3 0x461BCD PUSH1 0xE5 SHL DUP2 MSTORE PUSH1 0x20 PUSH1 0x4 DUP3 ADD MSTORE PUSH1 0x18 PUSH1 0x24 DUP3 ADD MSTORE PUSH24 0x576F756C642064726F702062656C6F77206D696E696D756D PUSH1 0x40 SHL PUSH1 0x44 DUP3 ADD MSTORE PUSH1 0x64 ADD PUSH2 0x62C JUMP JUMPDEST TIMESTAMP PUSH1 0x1 DUP5 ADD SSTORE PUSH1 0x2 DUP4 ADD DUP5 SWAP1 SSTORE PUSH1 0x8 SLOAD PUSH8 0xDE0B6B3A7640000 SWAP1 PUSH2 0x1530 SWAP1 DUP4 PUSH2 0x2610 JUMP JUMPDEST PUSH2 0x153A SWAP2 SWAP1 PUSH2 0x2627 JUMP JUMPDEST PUSH1 0x3 DUP5 ADD SSTORE PUSH1 0x0 DUP2 SWAP1 SUB PUSH2 0x1589 JUMPI PUSH1 0x5 DUP4 ADD DUP1 SLOAD PUSH1 0xFF NOT AND SWAP1 SSTORE PUSH1 0x40 MLOAD PUSH1 0x1 PUSH1 0x1 PUSH1 0xA0 SHL SUB DUP7 AND SWAP1 PUSH32 0x23D934BFE7F1275BC6FD70432159C9CC1C0075D069F89DA6A40F43BFE7A94ED3 SWAP1 PUSH1 0x0 SWAP1 LOG2 JUMPDEST PUSH1 0x1 PUSH1 0x1 PUSH1 0xA0 SHL SUB DUP6 AND PUSH32 0x57E41DF54512C76148B5BA9B643D149752B0D35E493B969BD017D0A3FE5228CF DUP6 PUSH2 0x15C2 PUSH3 0x93A80 TIMESTAMP PUSH2 0x25FD JUMP JUMPDEST PUSH1 0x40 DUP1 MLOAD SWAP3 DUP4 MSTORE PUSH1 0x20 DUP4 ADD SWAP2 SWAP1 SWAP2 MSTORE ADD PUSH1 0x40 MLOAD DUP1 SWAP2 SUB SWAP1 LOG2 POP POP POP PUSH2 0xCD8 PUSH1 0x1 DUP1 SSTORE JUMP JUMPDEST PUSH1 0x60 PUSH1 0x0 DUP1 JUMPDEST PUSH1 0x4 SLOAD DUP2 LT ISZERO PUSH2 0x165D JUMPI PUSH1 0x3 PUSH1 0x0 PUSH1 0x4 DUP4 DUP2 SLOAD DUP2 LT PUSH2 0x160D JUMPI PUSH2 0x160D PUSH2 0x26B4 JUMP JUMPDEST PUSH1 0x0 SWAP2 DUP3 MSTORE PUSH1 0x20 DUP1 DUP4 KECCAK256 SWAP1 SWAP2 ADD SLOAD PUSH1 0x1 PUSH1 0x1 PUSH1 0xA0 SHL SUB AND DUP4 MSTORE DUP3 ADD SWAP3 SWAP1 SWAP3 MSTORE PUSH1 0x40 ADD SWAP1 KECCAK256 PUSH1 0x5 ADD SLOAD PUSH1 0xFF AND ISZERO PUSH2 0x164B JUMPI DUP2 PUSH2 0x1647 DUP2 PUSH2 0x26CA JUMP JUMPDEST SWAP3 POP POP JUMPDEST DUP1 PUSH2 0x1655 DUP2 PUSH2 0x26CA JUMP JUMPDEST SWAP2 POP POP PUSH2 0x15EC JUMP JUMPDEST POP PUSH1 0x0 DUP2 PUSH8 0xFFFFFFFFFFFFFFFF DUP2 GT ISZERO PUSH2 0x1679 JUMPI PUSH2 0x1679 PUSH2 0x26E3 JUMP JUMPDEST PUSH1 0x40 MLOAD SWAP1 DUP1 DUP3 MSTORE DUP1 PUSH1 0x20 MUL PUSH1 0x20 ADD DUP3 ADD PUSH1 0x40 MSTORE DUP1 ISZERO PUSH2 0x16A2 JUMPI DUP2 PUSH1 0x20 ADD PUSH1 0x20 DUP3 MUL DUP1 CALLDATASIZE DUP4 CALLDATACOPY ADD SWAP1 POP JUMPDEST POP SWAP1 POP PUSH1 0x0 DUP1 JUMPDEST PUSH1 0x4 SLOAD DUP2 LT ISZERO PUSH2 0x1772 JUMPI PUSH1 0x3 PUSH1 0x0 PUSH1 0x4 DUP4 DUP2 SLOAD DUP2 LT PUSH2 0x16CA JUMPI PUSH2 0x16CA PUSH2 0x26B4 JUMP JUMPDEST PUSH1 0x0 SWAP2 DUP3 MSTORE PUSH1 0x20 DUP1 DUP4 KECCAK256 SWAP1 SWAP2 ADD SLOAD PUSH1 0x1 PUSH1 0x1 PUSH1 0xA0 SHL SUB AND DUP4 MSTORE DUP3 ADD SWAP3 SWAP1 SWAP3 MSTORE PUSH1 0x40 ADD SWAP1 KECCAK256 PUSH1 0x5 ADD SLOAD PUSH1 0xFF AND ISZERO PUSH2 0x1760 JUMPI PUSH1 0x4 DUP2 DUP2 SLOAD DUP2 LT PUSH2 0x170D JUMPI PUSH2 0x170D PUSH2 0x26B4 JUMP JUMPDEST PUSH1 0x0 SWAP2 DUP3 MSTORE PUSH1 0x20 SWAP1 SWAP2 KECCAK256 ADD SLOAD PUSH1 0x1 PUSH1 0x1 PUSH1 0xA0 SHL SUB AND DUP4 DUP4 PUSH2 0x172D DUP2 PUSH2 0x26CA JUMP JUMPDEST SWAP5 POP DUP2 MLOAD DUP2 LT PUSH2 0x173F JUMPI PUSH2 0x173F PUSH2 0x26B4 JUMP JUMPDEST PUSH1 0x20 MUL PUSH1 0x20 ADD ADD SWAP1 PUSH1 0x1 PUSH1 0x1 PUSH1 0xA0 SHL SUB AND SWAP1 DUP2 PUSH1 0x1 PUSH1 0x1 PUSH1 0xA0 SHL SUB AND DUP2 MSTORE POP POP JUMPDEST DUP1 PUSH2 0x176A DUP2 PUSH2 0x26CA JUMP JUMPDEST SWAP2 POP POP PUSH2 0x16A9 JUMP JUMPDEST POP SWAP1 SWAP4 SWAP3 POP POP POP JUMP JUMPDEST PUSH2 0x1783 PUSH2 0x1FA4 JUMP JUMPDEST PUSH2 0x178B PUSH2 0x1FFE JUMP JUMPDEST PUSH1 0x1 PUSH1 0x1 PUSH1 0xA0 SHL SUB DUP2 AND PUSH2 0x17B1 JUMPI PUSH1 0x40 MLOAD PUSH3 0x461BCD PUSH1 0xE5 SHL DUP2 MSTORE PUSH1 0x4 ADD PUSH2 0x62C SWAP1 PUSH2 0x25BA JUMP JUMPDEST PUSH1 0x1 PUSH1 0x1 PUSH1 0xA0 SHL SUB DUP2 AND PUSH1 0x0 SWAP1 DUP2 MSTORE PUSH1 0x3 PUSH1 0x20 MSTORE PUSH1 0x40 SWAP1 KECCAK256 PUSH1 0x2 DUP2 ADD SLOAD PUSH2 0x17EA JUMPI PUSH1 0x40 MLOAD PUSH3 0x461BCD PUSH1 0xE5 SHL DUP2 MSTORE PUSH1 0x4 ADD PUSH2 0x62C SWAP1 PUSH2 0x2688 JUMP JUMPDEST PUSH3 0x93A80 DUP2 PUSH1 0x1 ADD SLOAD PUSH2 0x17FD SWAP2 SWAP1 PUSH2 0x25FD JUMP JUMPDEST TIMESTAMP LT ISZERO PUSH2 0x1844 JUMPI PUSH1 0x40 MLOAD PUSH3 0x461BCD PUSH1 0xE5 SHL DUP2 MSTORE PUSH1 0x20 PUSH1 0x4 DUP3 ADD MSTORE PUSH1 0x15 PUSH1 0x24 DUP3 ADD MSTORE PUSH21 0x436F6F6C646F776E206E6F7420636F6D706C657465 PUSH1 0x58 SHL PUSH1 0x44 DUP3 ADD MSTORE PUSH1 0x64 ADD PUSH2 0x62C JUMP JUMPDEST PUSH1 0x2 DUP2 ADD SLOAD DUP2 SLOAD DUP2 SWAP1 DUP4 SWAP1 PUSH1 0x0 SWAP1 PUSH2 0x185D SWAP1 DUP5 SWAP1 PUSH2 0x2675 JUMP JUMPDEST SWAP1 SWAP2 SSTORE POP POP PUSH1 0x0 PUSH1 0x2 DUP4 ADD DUP2 SWAP1 SSTORE PUSH1 0x1 DUP4 ADD DUP2 SWAP1 SSTORE PUSH1 0x5 DUP1 SLOAD DUP4 SWAP3 SWAP1 PUSH2 0x1884 SWAP1 DUP5 SWAP1 PUSH2 0x2675 JUMP JUMPDEST SWAP1 SWAP2 SSTORE POP PUSH2 0x18BE SWAP1 POP PUSH1 0x1 PUSH1 0x1 PUSH1 0xA0 SHL SUB PUSH32 0x0 AND DUP5 DUP4 PUSH2 0x21D2 JUMP JUMPDEST DUP3 PUSH1 0x1 PUSH1 0x1 PUSH1 0xA0 SHL SUB AND PUSH32 0x7084F5476618D8E60B11EF0D7D3F06914655ADB8793E28FF7F018D4C76D505D5 DUP3 PUSH1 0x40 MLOAD PUSH2 0x770 SWAP2 DUP2 MSTORE PUSH1 0x20 ADD SWAP1 JUMP JUMPDEST PUSH2 0x1901 PUSH2 0x1FFE JUMP JUMPDEST PUSH1 0x0 DUP2 GT PUSH2 0x1921 JUMPI PUSH1 0x40 MLOAD PUSH3 0x461BCD PUSH1 0xE5 SHL DUP2 MSTORE PUSH1 0x4 ADD PUSH2 0x62C SWAP1 PUSH2 0x2649 JUMP JUMPDEST PUSH2 0x1929 PUSH2 0x2057 JUMP JUMPDEST CALLER PUSH1 0x0 SWAP1 DUP2 MSTORE PUSH1 0x3 PUSH1 0x20 MSTORE PUSH1 0x40 SWAP1 KECCAK256 DUP1 SLOAD ISZERO PUSH2 0x196E JUMPI PUSH1 0x0 PUSH2 0x194A CALLER PUSH2 0x2171 JUMP JUMPDEST SWAP1 POP DUP1 ISZERO PUSH2 0x196C JUMPI DUP1 DUP3 PUSH1 0x4 ADD PUSH1 0x0 DUP3 DUP3 SLOAD PUSH2 0x1966 SWAP2 SWAP1 PUSH2 0x25FD JUMP JUMPDEST SWAP1 SWAP2 SSTORE POP POP JUMPDEST POP JUMPDEST DUP1 SLOAD PUSH1 0x0 SWAP1 PUSH2 0x197E SWAP1 DUP5 SWAP1 PUSH2 0x25FD JUMP JUMPDEST SWAP1 POP PUSH10 0x21E19E0C9BAB2400000 DUP2 LT ISZERO PUSH2 0x19D0 JUMPI PUSH1 0x40 MLOAD PUSH3 0x461BCD PUSH1 0xE5 SHL DUP2 MSTORE PUSH1 0x20 PUSH1 0x4 DUP3 ADD MSTORE PUSH1 0x13 PUSH1 0x24 DUP3 ADD MSTORE PUSH19 0x42656C6F77206D696E696D756D207374616B65 PUSH1 0x68 SHL PUSH1 0x44 DUP3 ADD MSTORE PUSH1 0x64 ADD PUSH2 0x62C JUMP JUMPDEST PUSH2 0x1A05 PUSH1 0x1 PUSH1 0x1 PUSH1 0xA0 SHL SUB PUSH32 0x0 AND CALLER ADDRESS DUP7 PUSH2 0x223A JUMP JUMPDEST DUP2 SLOAD PUSH1 0x0 SUB PUSH2 0x1A51 JUMPI PUSH1 0x4 DUP1 SLOAD PUSH1 0x1 DUP2 ADD DUP3 SSTORE PUSH1 0x0 SWAP2 SWAP1 SWAP2 MSTORE PUSH32 0x8A35ACFBC15FF81A39AE7D344FD709F28E8600B4AA8C65C6B64BFE7FE36BD19B ADD DUP1 SLOAD PUSH1 0x1 PUSH1 0x1 PUSH1 0xA0 SHL SUB NOT AND CALLER OR SWAP1 SSTORE JUMPDEST DUP1 DUP3 SSTORE PUSH1 0x8 SLOAD PUSH8 0xDE0B6B3A7640000 SWAP1 PUSH2 0x1A6B SWAP1 DUP4 PUSH2 0x2610 JUMP JUMPDEST PUSH2 0x1A75 SWAP2 SWAP1 PUSH2 0x2627 JUMP JUMPDEST DUP3 PUSH1 0x3 ADD DUP2 SWAP1 SSTORE POP DUP3 PUSH1 0x5 PUSH1 0x0 DUP3 DUP3 SLOAD PUSH2 0x1A8F SWAP2 SWAP1 PUSH2 0x25FD JUMP JUMPDEST SWAP1 SWAP2 SSTORE POP POP PUSH1 0x5 DUP3 ADD SLOAD PUSH1 0xFF AND ISZERO DUP1 ISZERO PUSH2 0x1AB3 JUMPI POP PUSH10 0x21E19E0C9BAB2400000 DUP2 LT ISZERO JUMPDEST ISZERO PUSH2 0x1AF3 JUMPI PUSH1 0x5 DUP3 ADD DUP1 SLOAD PUSH1 0xFF NOT AND PUSH1 0x1 OR SWAP1 SSTORE PUSH1 0x40 MLOAD CALLER SWAP1 PUSH32 0xB2B8C5F713F27009F7A78EC2167999C472E5EE8BC591102DA17BC4A6551236C8 SWAP1 PUSH1 0x0 SWAP1 LOG2 JUMPDEST PUSH1 0x40 DUP1 MLOAD DUP5 DUP2 MSTORE PUSH1 0x20 DUP2 ADD DUP4 SWAP1 MSTORE CALLER SWAP2 PUSH32 0x1449C6DD7851ABC30ABF37F57715F492010519147CC2652FBC38202C18A6EE90 SWAP2 ADD PUSH2 0x770 JUMP JUMPDEST PUSH1 0x4 DUP2 DUP2 SLOAD DUP2 LT PUSH2 0x1B3B JUMPI PUSH1 0x0 DUP1 REVERT JUMPDEST PUSH1 0x0 SWAP2 DUP3 MSTORE PUSH1 0x20 SWAP1 SWAP2 KECCAK256 ADD SLOAD PUSH1 0x1 PUSH1 0x1 PUSH1 0xA0 SHL SUB AND SWAP1 POP DUP2 JUMP JUMPDEST PUSH2 0x1B5D PUSH2 0x1FA4 JUMP JUMPDEST PUSH1 0x6 SLOAD DUP2 GT ISZERO PUSH2 0x1BAF JUMPI PUSH1 0x40 MLOAD PUSH3 0x461BCD PUSH1 0xE5 SHL DUP2 MSTORE PUSH1 0x20 PUSH1 0x4 DUP3 ADD MSTORE PUSH1 0x18 PUSH1 0x24 DUP3 ADD MSTORE PUSH32 0x496E73756666696369656E742072657761726420706F6F6C0000000000000000 PUSH1 0x44 DUP3 ADD MSTORE PUSH1 0x64 ADD PUSH2 0x62C JUMP JUMPDEST PUSH2 0x1BB7 PUSH2 0x2057 JUMP JUMPDEST DUP1 PUSH1 0x6 PUSH1 0x0 DUP3 DUP3 SLOAD PUSH2 0x1BC9 SWAP2 SWAP1 PUSH2 0x2675 JUMP JUMPDEST SWAP1 SWAP2 SSTORE POP POP PUSH1 0x0 SLOAD PUSH2 0x1C0F SWAP1 PUSH1 0x1 PUSH1 0x1 PUSH1 0xA0 SHL SUB AND PUSH1 0x1 PUSH1 0x1 PUSH1 0xA0 SHL SUB PUSH32 0x0 AND SWAP1 DUP4 PUSH2 0x21D2 JUMP JUMPDEST PUSH1 0x6 SLOAD PUSH1 0x40 DUP1 MLOAD DUP4 DUP2 MSTORE PUSH1 0x20 DUP2 ADD SWAP3 SWAP1 SWAP3 MSTORE PUSH32 0xF17C0235DA5CEFE46D41B0B326D331F5015200F5DDA6ED3265C4C954EBAD8F10 SWAP2 ADD PUSH2 0x830 JUMP JUMPDEST PUSH1 0x2 SLOAD PUSH1 0x1 PUSH1 0x1 PUSH1 0xA0 SHL SUB AND CALLER EQ PUSH2 0x1C9A JUMPI PUSH1 0x40 MLOAD PUSH3 0x461BCD PUSH1 0xE5 SHL DUP2 MSTORE PUSH1 0x20 PUSH1 0x4 DUP3 ADD MSTORE PUSH1 0x14 PUSH1 0x24 DUP3 ADD MSTORE PUSH20 0x13DB9B1E48189C9A5919D94818D85B8818D85B1B PUSH1 0x62 SHL PUSH1 0x44 DUP3 ADD MSTORE PUSH1 0x64 ADD PUSH2 0x62C JUMP JUMPDEST PUSH1 0x0 DUP2 GT PUSH2 0x1CBA JUMPI PUSH1 0x40 MLOAD PUSH3 0x461BCD PUSH1 0xE5 SHL DUP2 MSTORE PUSH1 0x4 ADD PUSH2 0x62C SWAP1 PUSH2 0x2649 JUMP JUMPDEST PUSH2 0x1CC2 PUSH2 0x2057 JUMP JUMPDEST PUSH2 0x1CF7 PUSH1 0x1 PUSH1 0x1 PUSH1 0xA0 SHL SUB PUSH32 0x0 AND CALLER ADDRESS DUP5 PUSH2 0x223A JUMP JUMPDEST DUP1 PUSH1 0x7 PUSH1 0x0 DUP3 DUP3 SLOAD PUSH2 0x1D09 SWAP2 SWAP1 PUSH2 0x25FD JUMP JUMPDEST SWAP1 SWAP2 SSTORE POP POP PUSH1 0x5 SLOAD ISZERO PUSH2 0x1D4C JUMPI PUSH1 0x5 SLOAD PUSH2 0x1D2B PUSH8 0xDE0B6B3A7640000 DUP4 PUSH2 0x2610 JUMP JUMPDEST PUSH2 0x1D35 SWAP2 SWAP1 PUSH2 0x2627 JUMP JUMPDEST PUSH1 0x8 PUSH1 0x0 DUP3 DUP3 SLOAD PUSH2 0x1D46 SWAP2 SWAP1 PUSH2 0x25FD JUMP JUMPDEST SWAP1 SWAP2 SSTORE POP POP JUMPDEST PUSH1 0x40 MLOAD DUP2 DUP2 MSTORE PUSH32 0x2BEDE6503F7C3293D6EAC9B0F4981900471E18774A84CCC98715AA543301794 SWAP1 PUSH1 0x20 ADD PUSH2 0x830 JUMP JUMPDEST PUSH2 0x1D84 PUSH2 0x1FA4 JUMP JUMPDEST PUSH1 0x1 PUSH1 0x1 PUSH1 0xA0 SHL SUB DUP2 AND PUSH2 0x1DE9 JUMPI PUSH1 0x40 MLOAD PUSH3 0x461BCD PUSH1 0xE5 SHL DUP2 MSTORE PUSH1 0x20 PUSH1 0x4 DUP3 ADD MSTORE PUSH1 0x26 PUSH1 0x24 DUP3 ADD MSTORE PUSH32 0x4F776E61626C653A206E6577206F776E657220697320746865207A65726F2061 PUSH1 0x44 DUP3 ADD MSTORE PUSH6 0x646472657373 PUSH1 0xD0 SHL PUSH1 0x64 DUP3 ADD MSTORE PUSH1 0x84 ADD PUSH2 0x62C JUMP JUMPDEST PUSH2 0x783 DUP2 PUSH2 0x2278 JUMP JUMPDEST PUSH1 0x1 PUSH1 0x1 PUSH1 0xA0 SHL SUB DUP2 AND PUSH1 0x0 SWAP1 DUP2 MSTORE PUSH1 0x3 PUSH1 0x20 MSTORE PUSH1 0x40 DUP2 KECCAK256 DUP1 SLOAD DUP3 SUB PUSH2 0x1E1C JUMPI PUSH1 0x4 ADD SLOAD SWAP3 SWAP2 POP POP JUMP JUMPDEST PUSH1 0x8 SLOAD PUSH1 0x5 SLOAD ISZERO DUP1 ISZERO SWAP1 PUSH2 0x1E32 JUMPI POP PUSH1 0x0 PUSH1 0xB SLOAD GT JUMPDEST DUP1 ISZERO PUSH2 0x1E40 JUMPI POP PUSH1 0x0 PUSH1 0x6 SLOAD GT JUMPDEST DUP1 ISZERO PUSH2 0x1E4D JUMPI POP PUSH1 0xA SLOAD TIMESTAMP GT JUMPDEST ISZERO PUSH2 0x1ED0 JUMPI PUSH1 0x0 PUSH1 0xA SLOAD TIMESTAMP PUSH2 0x1E62 SWAP2 SWAP1 PUSH2 0x2675 JUMP JUMPDEST SWAP1 POP PUSH1 0x0 PUSH5 0x496CEBB800 DUP3 PUSH1 0xB SLOAD PUSH1 0x5 SLOAD PUSH2 0x1E7D SWAP2 SWAP1 PUSH2 0x2610 JUMP JUMPDEST PUSH2 0x1E87 SWAP2 SWAP1 PUSH2 0x2610 JUMP JUMPDEST PUSH2 0x1E91 SWAP2 SWAP1 PUSH2 0x2627 JUMP JUMPDEST SWAP1 POP PUSH1 0x6 SLOAD DUP2 GT ISZERO PUSH2 0x1EA2 JUMPI POP PUSH1 0x6 SLOAD JUMPDEST PUSH1 0x5 SLOAD PUSH2 0x1EB7 PUSH8 0xDE0B6B3A7640000 DUP4 PUSH2 0x2610 JUMP JUMPDEST PUSH2 0x1EC1 SWAP2 SWAP1 PUSH2 0x2627 JUMP JUMPDEST PUSH2 0x1ECB SWAP1 DUP5 PUSH2 0x25FD JUMP JUMPDEST SWAP3 POP POP POP JUMPDEST PUSH1 0x4 DUP3 ADD SLOAD PUSH1 0x3 DUP4 ADD SLOAD DUP4 SLOAD PUSH8 0xDE0B6B3A7640000 SWAP1 PUSH2 0x1EF1 SWAP1 DUP6 SWAP1 PUSH2 0x2610 JUMP JUMPDEST PUSH2 0x1EFB SWAP2 SWAP1 PUSH2 0x2627 JUMP JUMPDEST PUSH2 0x1F05 SWAP2 SWAP1 PUSH2 0x2675 JUMP JUMPDEST PUSH2 0x1F0F SWAP2 SWAP1 PUSH2 0x25FD JUMP JUMPDEST SWAP5 SWAP4 POP POP POP POP JUMP JUMPDEST PUSH2 0x1F1F PUSH2 0x1FA4 JUMP JUMPDEST PUSH2 0x1388 DUP2 GT ISZERO PUSH2 0x1F67 JUMPI PUSH1 0x40 MLOAD PUSH3 0x461BCD PUSH1 0xE5 SHL DUP2 MSTORE PUSH1 0x20 PUSH1 0x4 DUP3 ADD MSTORE PUSH1 0x13 PUSH1 0x24 DUP3 ADD MSTORE PUSH19 0x4150592065786365656473206D6178696D756D PUSH1 0x68 SHL PUSH1 0x44 DUP3 ADD MSTORE PUSH1 0x64 ADD PUSH2 0x62C JUMP JUMPDEST PUSH2 0x1F6F PUSH2 0x2057 JUMP JUMPDEST PUSH1 0xB DUP2 SWAP1 SSTORE PUSH1 0x40 MLOAD DUP2 DUP2 MSTORE PUSH32 0xC7F87F4E6DAE499A921A5CC635CFBC27EE789F8F818FB83F3EA2C40608A6F6FE SWAP1 PUSH1 0x20 ADD PUSH2 0x830 JUMP JUMPDEST PUSH1 0x0 SLOAD PUSH1 0x1 PUSH1 0x1 PUSH1 0xA0 SHL SUB AND CALLER EQ PUSH2 0xE59 JUMPI PUSH1 0x40 MLOAD PUSH3 0x461BCD PUSH1 0xE5 SHL DUP2 MSTORE PUSH1 0x20 PUSH1 0x4 DUP3 ADD DUP2 SWAP1 MSTORE PUSH1 0x24 DUP3 ADD MSTORE PUSH32 0x4F776E61626C653A2063616C6C6572206973206E6F7420746865206F776E6572 PUSH1 0x44 DUP3 ADD MSTORE PUSH1 0x64 ADD PUSH2 0x62C JUMP JUMPDEST PUSH1 0x2 PUSH1 0x1 SLOAD SUB PUSH2 0x2050 JUMPI PUSH1 0x40 MLOAD PUSH3 0x461BCD PUSH1 0xE5 SHL DUP2 MSTORE PUSH1 0x20 PUSH1 0x4 DUP3 ADD MSTORE PUSH1 0x1F PUSH1 0x24 DUP3 ADD MSTORE PUSH32 0x5265656E7472616E637947756172643A207265656E7472616E742063616C6C00 PUSH1 0x44 DUP3 ADD MSTORE PUSH1 0x64 ADD PUSH2 0x62C JUMP JUMPDEST PUSH1 0x2 PUSH1 0x1 SSTORE JUMP JUMPDEST PUSH1 0xA SLOAD TIMESTAMP GT PUSH2 0x2062 JUMPI JUMP JUMPDEST PUSH1 0x5 SLOAD PUSH1 0x0 SUB PUSH2 0x2072 JUMPI TIMESTAMP PUSH1 0xA SSTORE JUMP JUMPDEST PUSH1 0x0 PUSH1 0xA SLOAD TIMESTAMP PUSH2 0x2082 SWAP2 SWAP1 PUSH2 0x2675 JUMP JUMPDEST SWAP1 POP PUSH1 0x0 PUSH1 0xB SLOAD GT DUP1 ISZERO PUSH2 0x2098 JUMPI POP PUSH1 0x0 PUSH1 0x6 SLOAD GT JUMPDEST ISZERO PUSH2 0x2130 JUMPI PUSH1 0x0 PUSH5 0x496CEBB800 DUP3 PUSH1 0xB SLOAD PUSH1 0x5 SLOAD PUSH2 0x20B6 SWAP2 SWAP1 PUSH2 0x2610 JUMP JUMPDEST PUSH2 0x20C0 SWAP2 SWAP1 PUSH2 0x2610 JUMP JUMPDEST PUSH2 0x20CA SWAP2 SWAP1 PUSH2 0x2627 JUMP JUMPDEST SWAP1 POP PUSH1 0x6 SLOAD DUP2 GT ISZERO PUSH2 0x20DB JUMPI POP PUSH1 0x6 SLOAD JUMPDEST DUP1 ISZERO PUSH2 0x212E JUMPI DUP1 PUSH1 0x6 PUSH1 0x0 DUP3 DUP3 SLOAD PUSH2 0x20F3 SWAP2 SWAP1 PUSH2 0x2675 JUMP JUMPDEST SWAP1 SWAP2 SSTORE POP POP PUSH1 0x5 SLOAD PUSH2 0x210D PUSH8 0xDE0B6B3A7640000 DUP4 PUSH2 0x2610 JUMP JUMPDEST PUSH2 0x2117 SWAP2 SWAP1 PUSH2 0x2627 JUMP JUMPDEST PUSH1 0x8 PUSH1 0x0 DUP3 DUP3 SLOAD PUSH2 0x2128 SWAP2 SWAP1 PUSH2 0x25FD JUMP JUMPDEST SWAP1 SWAP2 SSTORE POP POP JUMPDEST POP JUMPDEST TIMESTAMP PUSH1 0xA SSTORE PUSH1 0x8 SLOAD PUSH1 0x9 SLOAD PUSH1 0x40 MLOAD PUSH32 0xCD7C861D63893659123F817B192B8621FF1923A7C4589C260173CEDCF9E986A6 SWAP3 PUSH2 0x830 SWAP3 SWAP1 DUP3 MSTORE PUSH1 0x20 DUP3 ADD MSTORE PUSH1 0x40 ADD SWAP1 JUMP JUMPDEST PUSH1 0x1 PUSH1 0x1 PUSH1 0xA0 SHL SUB DUP2 AND PUSH1 0x0 SWAP1 DUP2 MSTORE PUSH1 0x3 PUSH1 0x20 MSTORE PUSH1 0x40 DUP2 KECCAK256 DUP1 SLOAD DUP3 SUB PUSH2 0x219A JUMPI POP PUSH1 0x0 SWAP3 SWAP2 POP POP JUMP JUMPDEST PUSH1 0x3 DUP2 ADD SLOAD PUSH1 0x8 SLOAD DUP3 SLOAD PUSH8 0xDE0B6B3A7640000 SWAP2 PUSH2 0x21B7 SWAP2 PUSH2 0x2610 JUMP JUMPDEST PUSH2 0x21C1 SWAP2 SWAP1 PUSH2 0x2627 JUMP JUMPDEST PUSH2 0x21CB SWAP2 SWAP1 PUSH2 0x2675 JUMP JUMPDEST SWAP4 SWAP3 POP POP POP JUMP JUMPDEST PUSH1 0x40 MLOAD PUSH1 0x1 PUSH1 0x1 PUSH1 0xA0 SHL SUB DUP4 AND PUSH1 0x24 DUP3 ADD MSTORE PUSH1 0x44 DUP2 ADD DUP3 SWAP1 MSTORE PUSH2 0x2235 SWAP1 DUP5 SWAP1 PUSH4 0xA9059CBB PUSH1 0xE0 SHL SWAP1 PUSH1 0x64 ADD JUMPDEST PUSH1 0x40 DUP1 MLOAD PUSH1 0x1F NOT DUP2 DUP5 SUB ADD DUP2 MSTORE SWAP2 SWAP1 MSTORE PUSH1 0x20 DUP2 ADD DUP1 MLOAD PUSH1 0x1 PUSH1 0x1 PUSH1 0xE0 SHL SUB AND PUSH1 0x1 PUSH1 0x1 PUSH1 0xE0 SHL SUB NOT SWAP1 SWAP4 AND SWAP3 SWAP1 SWAP3 OR SWAP1 SWAP2 MSTORE PUSH2 0x22C8 JUMP JUMPDEST POP POP POP JUMP JUMPDEST PUSH1 0x40 MLOAD PUSH1 0x1 PUSH1 0x1 PUSH1 0xA0 SHL SUB DUP1 DUP6 AND PUSH1 0x24 DUP4 ADD MSTORE DUP4 AND PUSH1 0x44 DUP3 ADD MSTORE PUSH1 0x64 DUP2 ADD DUP3 SWAP1 MSTORE PUSH2 0x2272 SWAP1 DUP6 SWAP1 PUSH4 0x23B872DD PUSH1 0xE0 SHL SWAP1 PUSH1 0x84 ADD PUSH2 0x21FE JUMP JUMPDEST POP POP POP POP JUMP JUMPDEST PUSH1 0x0 DUP1 SLOAD PUSH1 0x1 PUSH1 0x1 PUSH1 0xA0 SHL SUB DUP4 DUP2 AND PUSH1 0x1 PUSH1 0x1 PUSH1 0xA0 SHL SUB NOT DUP4 AND DUP2 OR DUP5 SSTORE PUSH1 0x40 MLOAD SWAP2 SWAP1 SWAP3 AND SWAP3 DUP4 SWAP2 PUSH32 0x8BE0079C531659141344CD1FD0A4F28419497F9722A3DAAFE3B4186F6B6457E0 SWAP2 SWAP1 LOG3 POP POP JUMP JUMPDEST PUSH1 0x0 PUSH2 0x231D DUP3 PUSH1 0x40 MLOAD DUP1 PUSH1 0x40 ADD PUSH1 0x40 MSTORE DUP1 PUSH1 0x20 DUP2 MSTORE PUSH1 0x20 ADD PUSH32 0x5361666545524332303A206C6F772D6C6576656C2063616C6C206661696C6564 DUP2 MSTORE POP DUP6 PUSH1 0x1 PUSH1 0x1 PUSH1 0xA0 SHL SUB AND PUSH2 0x239D SWAP1 SWAP3 SWAP2 SWAP1 PUSH4 0xFFFFFFFF AND JUMP JUMPDEST SWAP1 POP DUP1 MLOAD PUSH1 0x0 EQ DUP1 PUSH2 0x233E JUMPI POP DUP1 DUP1 PUSH1 0x20 ADD SWAP1 MLOAD DUP2 ADD SWAP1 PUSH2 0x233E SWAP2 SWAP1 PUSH2 0x26F9 JUMP JUMPDEST PUSH2 0x2235 JUMPI PUSH1 0x40 MLOAD PUSH3 0x461BCD PUSH1 0xE5 SHL DUP2 MSTORE PUSH1 0x20 PUSH1 0x4 DUP3 ADD MSTORE PUSH1 0x2A PUSH1 0x24 DUP3 ADD MSTORE PUSH32 0x5361666545524332303A204552433230206F7065726174696F6E20646964206E PUSH1 0x44 DUP3 ADD MSTORE PUSH10 0x1BDD081CDD58D8D95959 PUSH1 0xB2 SHL PUSH1 0x64 DUP3 ADD MSTORE PUSH1 0x84 ADD PUSH2 0x62C JUMP JUMPDEST PUSH1 0x60 PUSH2 0x1F0F DUP5 DUP5 PUSH1 0x0 DUP6 DUP6 PUSH1 0x0 DUP1 DUP7 PUSH1 0x1 PUSH1 0x1 PUSH1 0xA0 SHL SUB AND DUP6 DUP8 PUSH1 0x40 MLOAD PUSH2 0x23C4 SWAP2 SWAP1 PUSH2 0x273F JUMP JUMPDEST PUSH1 0x0 PUSH1 0x40 MLOAD DUP1 DUP4 SUB DUP2 DUP6 DUP8 GAS CALL SWAP3 POP POP POP RETURNDATASIZE DUP1 PUSH1 0x0 DUP2 EQ PUSH2 0x2401 JUMPI PUSH1 0x40 MLOAD SWAP2 POP PUSH1 0x1F NOT PUSH1 0x3F RETURNDATASIZE ADD AND DUP3 ADD PUSH1 0x40 MSTORE RETURNDATASIZE DUP3 MSTORE RETURNDATASIZE PUSH1 0x0 PUSH1 0x20 DUP5 ADD RETURNDATACOPY PUSH2 0x2406 JUMP JUMPDEST PUSH1 0x60 SWAP2 POP JUMPDEST POP SWAP2 POP SWAP2 POP PUSH2 0x2417 DUP8 DUP4 DUP4 DUP8 PUSH2 0x2422 JUMP JUMPDEST SWAP8 SWAP7 POP POP POP POP POP POP POP JUMP JUMPDEST PUSH1 0x60 DUP4 ISZERO PUSH2 0x2491 JUMPI DUP3 MLOAD PUSH1 0x0 SUB PUSH2 0x248A JUMPI PUSH1 0x1 PUSH1 0x1 PUSH1 0xA0 SHL SUB DUP6 AND EXTCODESIZE PUSH2 0x248A JUMPI PUSH1 0x40 MLOAD PUSH3 0x461BCD PUSH1 0xE5 SHL DUP2 MSTORE PUSH1 0x20 PUSH1 0x4 DUP3 ADD MSTORE PUSH1 0x1D PUSH1 0x24 DUP3 ADD MSTORE PUSH32 0x416464726573733A2063616C6C20746F206E6F6E2D636F6E7472616374000000 PUSH1 0x44 DUP3 ADD MSTORE PUSH1 0x64 ADD PUSH2 0x62C JUMP JUMPDEST POP DUP2 PUSH2 0x1F0F JUMP JUMPDEST PUSH2 0x1F0F DUP4 DUP4 DUP2 MLOAD ISZERO PUSH2 0x24A6 JUMPI DUP2 MLOAD DUP1 DUP4 PUSH1 0x20 ADD REVERT JUMPDEST DUP1 PUSH1 0x40 MLOAD PUSH3 0x461BCD PUSH1 0xE5 SHL DUP2 MSTORE PUSH1 0x4 ADD PUSH2 0x62C SWAP2 SWAP1 PUSH2 0x275B JUMP JUMPDEST DUP1 CALLDATALOAD PUSH1 0x1 PUSH1 0x1 PUSH1 0xA0 SHL SUB DUP2 AND DUP2 EQ PUSH2 0x24D7 JUMPI PUSH1 0x0 DUP1 REVERT JUMPDEST SWAP2 SWAP1 POP JUMP JUMPDEST PUSH1 0x0 PUSH1 0x20 DUP3 DUP5 SUB SLT ISZERO PUSH2 0x24EE JUMPI PUSH1 0x0 DUP1 REVERT JUMPDEST PUSH2 0x21CB DUP3 PUSH2 0x24C0 JUMP JUMPDEST PUSH1 0x0 PUSH1 0x20 DUP3 DUP5 SUB SLT ISZERO PUSH2 0x2509 JUMPI PUSH1 0x0 DUP1 REVERT JUMPDEST POP CALLDATALOAD SWAP2 SWAP1 POP JUMP JUMPDEST PUSH1 0x0 DUP1 PUSH1 0x40 DUP4 DUP6 SUB SLT ISZERO PUSH2 0x2523 JUMPI PUSH1 0x0 DUP1 REVERT JUMPDEST PUSH2 0x252C DUP4 PUSH2 0x24C0 JUMP JUMPDEST SWAP5 PUSH1 0x20 SWAP4 SWAP1 SWAP4 ADD CALLDATALOAD SWAP4 POP POP POP JUMP JUMPDEST PUSH1 0x0 DUP1 PUSH1 0x40 DUP4 DUP6 SUB SLT ISZERO PUSH2 0x254D JUMPI PUSH1 0x0 DUP1 REVERT JUMPDEST PUSH2 0x2556 DUP4 PUSH2 0x24C0 JUMP JUMPDEST SWAP2 POP PUSH2 0x2564 PUSH1 0x20 DUP5 ADD PUSH2 0x24C0 JUMP JUMPDEST SWAP1 POP SWAP3 POP SWAP3 SWAP1 POP JUMP JUMPDEST PUSH1 0x20 DUP1 DUP3 MSTORE DUP3 MLOAD DUP3 DUP3 ADD DUP2 SWAP1 MSTORE PUSH1 0x0 SWAP2 SWAP1 DUP5 DUP3 ADD SWAP1 PUSH1 0x40 DUP6 ADD SWAP1 DUP5 JUMPDEST DUP2 DUP2 LT ISZERO PUSH2 0x25AE JUMPI DUP4 MLOAD PUSH1 0x1 PUSH1 0x1 PUSH1 0xA0 SHL SUB AND DUP4 MSTORE SWAP3 DUP5 ADD SWAP3 SWAP2 DUP5 ADD SWAP2 PUSH1 0x1 ADD PUSH2 0x2589 JUMP JUMPDEST POP SWAP1 SWAP7 SWAP6 POP POP POP POP POP POP JUMP JUMPDEST PUSH1 0x20 DUP1 DUP3 MSTORE PUSH1 0x13 SWAP1 DUP3 ADD MSTORE PUSH19 0x496E76616C69642062656E6566696369617279 PUSH1 0x68 SHL PUSH1 0x40 DUP3 ADD MSTORE PUSH1 0x60 ADD SWAP1 JUMP JUMPDEST PUSH4 0x4E487B71 PUSH1 0xE0 SHL PUSH1 0x0 MSTORE PUSH1 0x11 PUSH1 0x4 MSTORE PUSH1 0x24 PUSH1 0x0 REVERT JUMPDEST DUP1 DUP3 ADD DUP1 DUP3 GT ISZERO PUSH2 0x12A5 JUMPI PUSH2 0x12A5 PUSH2 0x25E7 JUMP JUMPDEST DUP1 DUP3 MUL DUP2 ISZERO DUP3 DUP3 DIV DUP5 EQ OR PUSH2 0x12A5 JUMPI PUSH2 0x12A5 PUSH2 0x25E7 JUMP JUMPDEST PUSH1 0x0 DUP3 PUSH2 0x2644 JUMPI PUSH4 0x4E487B71 PUSH1 0xE0 SHL PUSH1 0x0 MSTORE PUSH1 0x12 PUSH1 0x4 MSTORE PUSH1 0x24 PUSH1 0x0 REVERT JUMPDEST POP DIV SWAP1 JUMP JUMPDEST PUSH1 0x20 DUP1 DUP3 MSTORE PUSH1 0x12 SWAP1 DUP3 ADD MSTORE PUSH18 0x416D6F756E74206D757374206265203E203 PUSH1 0x74 SHL PUSH1 0x40 DUP3 ADD MSTORE PUSH1 0x60 ADD SWAP1 JUMP JUMPDEST DUP2 DUP2 SUB DUP2 DUP2 GT ISZERO PUSH2 0x12A5 JUMPI PUSH2 0x12A5 PUSH2 0x25E7 JUMP JUMPDEST PUSH1 0x20 DUP1 DUP3 MSTORE PUSH1 0x12 SWAP1 DUP3 ADD MSTORE PUSH18 0x4E6F2070656E64696E6720756E7374616B65 PUSH1 0x70 SHL PUSH1 0x40 DUP3 ADD MSTORE PUSH1 0x60 ADD SWAP1 JUMP JUMPDEST PUSH4 0x4E487B71 PUSH1 0xE0 SHL PUSH1 0x0 MSTORE PUSH1 0x32 PUSH1 0x4 MSTORE PUSH1 0x24 PUSH1 0x0 REVERT JUMPDEST PUSH1 0x0 PUSH1 0x1 DUP3 ADD PUSH2 0x26DC JUMPI PUSH2 0x26DC PUSH2 0x25E7 JUMP JUMPDEST POP PUSH1 0x1 ADD SWAP1 JUMP JUMPDEST PUSH4 0x4E487B71 PUSH1 0xE0 SHL PUSH1 0x0 MSTORE PUSH1 0x41 PUSH1 0x4 MSTORE PUSH1 0x24 PUSH1 0x0 REVERT JUMPDEST PUSH1 0x0 PUSH1 0x20 DUP3 DUP5 SUB SLT ISZERO PUSH2 0x270B JUMPI PUSH1 0x0 DUP1 REVERT JUMPDEST DUP2 MLOAD DUP1 ISZERO ISZERO DUP2 EQ PUSH2 0x21CB JUMPI PUSH1 0x0 DUP1 REVERT JUMPDEST PUSH1 0x0 JUMPDEST DUP4 DUP2 LT ISZERO PUSH2 0x2736 JUMPI DUP2 DUP2 ADD MLOAD DUP4 DUP3 ADD MSTORE PUSH1 0x20 ADD PUSH2 0x271E JUMP JUMPDEST POP POP PUSH1 0x0 SWAP2 ADD MSTORE JUMP JUMPDEST PUSH1 0x0 DUP3 MLOAD PUSH2 0x2751 DUP2 DUP5 PUSH1 0x20 DUP8 ADD PUSH2 0x271B JUMP JUMPDEST SWAP2 SWAP1 SWAP2 ADD SWAP3 SWAP2 POP POP JUMP JUMPDEST PUSH1 0x20 DUP2 MSTORE PUSH1 0x0 DUP3 MLOAD DUP1 PUSH1 0x20 DUP5 ADD MSTORE PUSH2 0x277A DUP2 PUSH1 0x40 DUP6 ADD PUSH1 0x20 DUP8 ADD PUSH2 0x271B JUMP JUMPDEST PUSH1 0x1F ADD PUSH1 0x1F NOT AND SWAP2 SWAP1 SWAP2 ADD PUSH1 0x40 ADD SWAP3 SWAP2 POP POP JUMP INVALID LOG2 PUSH5 0x6970667358 0x22 SLT KECCAK256 MUL SELFBALANCE 0x5C PUSH27 0x49F05A30E2C8144EAF211751A06AD77C87E5260F13462CCB6EB6B2 0x26 PUSH5 0x736F6C6343 STOP ADDMOD EQ STOP CALLER "},"methodIdentifiers":{"COOLDOWN_PERIOD()":"6e99d52f","MAX_APY()":"3d92f4e2","MINIMUM_STAKE()":"08dbbb03","PRECISION()":"aaf5eb68","SLASH_PERCENTAGE()":"9f29f135","accRewardPerShare()":"939d6237","bridge()":"e78cea92","cancelUnstake()":"4ab17969","claimRewards()":"372500ab","claimRewardsFor(address)":"1ac6d19d","currentAPY()":"9a79d32b","depositFees(uint256)":"ebdac090","feePool()":"ae2e933b","fundRewardPool(uint256)":"1d583e0d","getActiveValidators()":"9de70258","getPendingUnstake(address)":"2f54fe72","getRewardInfo()":"699c8f33","getStake(address)":"7a766460","getValidatorCount()":"7071688a","isActiveValidator(address)":"40550a1c","lastRewardTime()":"9231cf74","owner()":"8da5cb5b","pendingReward(address)":"f40f0f52","renounceOwnership()":"715018a6","requestUnstake(uint256)":"23095721","requestUnstakeFor(address,uint256)":"9691576e","rewardPool()":"66666aa9","setBridge(address)":"8dd14802","setTargetAPY(uint256)":"f5f8aa95","slash(address,address)":"7aeccce9","stake(uint256)":"a694fc3a","stakeFor(address,uint256)":"2ee40908","stakingToken()":"72f702f3","targetAPY()":"e6d012e4","totalRewardsPaid()":"74958e35","totalStaked()":"817b1cd2","transferOwnership(address)":"f2fde38b","validatorList(uint256)":"b048e056","validators(address)":"fa52c7d8","withdraw()":"3ccfd60b","withdrawFor(address)":"9eca672c","withdrawRewardPool(uint256)":"c74cab49"}}}}}