{"contracts/MiningPool.sol":{"VisionMiningPool":{"abi":[{"inputs":[{"internalType":"address","name":"_nodeLicense","type":"address"},{"internalType":"address","name":"_vcnToken","type":"address"},{"internalType":"address","name":"_oracle","type":"address"}],"stateMutability":"nonpayable","type":"constructor"},{"anonymous":false,"inputs":[{"indexed":false,"internalType":"uint256","name":"newStageId","type":"uint256"},{"indexed":false,"internalType":"string","name":"reason","type":"string"},{"indexed":false,"internalType":"uint256","name":"burnedAmount","type":"uint256"}],"name":"HalvingTriggered","type":"event"},{"anonymous":false,"inputs":[{"indexed":false,"internalType":"uint256","name":"day","type":"uint256"},{"indexed":false,"internalType":"uint256","name":"totalDistributed","type":"uint256"}],"name":"LogDailyMining","type":"event"},{"anonymous":false,"inputs":[{"indexed":true,"internalType":"uint256","name":"tokenId","type":"uint256"},{"indexed":false,"internalType":"uint256","name":"day","type":"uint256"},{"indexed":false,"internalType":"uint256","name":"aor","type":"uint256"}],"name":"OracleUpdated","type":"event"},{"anonymous":false,"inputs":[{"indexed":true,"internalType":"address","name":"previousOwner","type":"address"},{"indexed":true,"internalType":"address","name":"newOwner","type":"address"}],"name":"OwnershipTransferred","type":"event"},{"anonymous":false,"inputs":[{"indexed":true,"internalType":"uint256","name":"tokenId","type":"uint256"},{"indexed":true,"internalType":"address","name":"owner","type":"address"},{"indexed":false,"internalType":"uint256","name":"amount","type":"uint256"}],"name":"RewardClaimed","type":"event"},{"inputs":[],"name":"NODE_GROWTH_TRIGGER","outputs":[{"internalType":"uint256","name":"","type":"uint256"}],"stateMutability":"view","type":"function"},{"inputs":[],"name":"SECONDS_IN_YEAR","outputs":[{"internalType":"uint256","name":"","type":"uint256"}],"stateMutability":"view","type":"function"},{"inputs":[],"name":"TOTAL_MINING_SUPPLY","outputs":[{"internalType":"uint256","name":"","type":"uint256"}],"stateMutability":"view","type":"function"},{"inputs":[],"name":"burnedSupply","outputs":[{"internalType":"uint256","name":"","type":"uint256"}],"stateMutability":"view","type":"function"},{"inputs":[{"internalType":"uint256","name":"_tokenId","type":"uint256"}],"name":"calculateDailyReward","outputs":[{"internalType":"uint256","name":"","type":"uint256"}],"stateMutability":"view","type":"function"},{"inputs":[],"name":"checkAndTriggerHalving","outputs":[],"stateMutability":"nonpayable","type":"function"},{"inputs":[{"internalType":"uint256","name":"_tokenId","type":"uint256"}],"name":"claimReward","outputs":[],"stateMutability":"nonpayable","type":"function"},{"inputs":[],"name":"currentStageInfo","outputs":[{"internalType":"uint256","name":"stageId","type":"uint256"},{"internalType":"uint256","name":"startTime","type":"uint256"},{"internalType":"uint256","name":"allocatedSupply","type":"uint256"},{"internalType":"uint256","name":"minedAmount","type":"uint256"},{"internalType":"uint256","name":"startValidatorCount","type":"uint256"},{"internalType":"uint256","name":"dailyCap","type":"uint256"}],"stateMutability":"view","type":"function"},{"inputs":[{"internalType":"uint256","name":"","type":"uint256"},{"internalType":"uint256","name":"","type":"uint256"}],"name":"dailyOperatingRates","outputs":[{"internalType":"uint256","name":"","type":"uint256"}],"stateMutability":"view","type":"function"},{"inputs":[{"internalType":"uint256","name":"","type":"uint256"}],"name":"lastClaimTime","outputs":[{"internalType":"uint256","name":"","type":"uint256"}],"stateMutability":"view","type":"function"},{"inputs":[],"name":"nodeLicense","outputs":[{"internalType":"contract VisionNodeLicense","name":"","type":"address"}],"stateMutability":"view","type":"function"},{"inputs":[],"name":"oracleAddress","outputs":[{"internalType":"address","name":"","type":"address"}],"stateMutability":"view","type":"function"},{"inputs":[],"name":"owner","outputs":[{"internalType":"address","name":"","type":"address"}],"stateMutability":"view","type":"function"},{"inputs":[],"name":"renounceOwnership","outputs":[],"stateMutability":"nonpayable","type":"function"},{"inputs":[{"internalType":"uint256","name":"_tokenId","type":"uint256"},{"internalType":"uint256","name":"_aor","type":"uint256"}],"name":"submitDailyAOR","outputs":[],"stateMutability":"nonpayable","type":"function"},{"inputs":[],"name":"totalNetworkHashPower","outputs":[{"internalType":"uint256","name":"","type":"uint256"}],"stateMutability":"view","type":"function"},{"inputs":[{"internalType":"address","name":"newOwner","type":"address"}],"name":"transferOwnership","outputs":[],"stateMutability":"nonpayable","type":"function"},{"inputs":[{"internalType":"uint256","name":"_delta","type":"uint256"},{"internalType":"bool","name":"_isAdding","type":"bool"}],"name":"updateNetworkHash","outputs":[],"stateMutability":"nonpayable","type":"function"},{"inputs":[],"name":"vcnToken","outputs":[{"internalType":"contract IVCNToken","name":"","type":"address"}],"stateMutability":"view","type":"function"}],"evm":{"bytecode":{"linkReferences":{},"object":"60806040523480156200001157600080fd5b50604051620010e9380380620010e983398101604081905262000034916200017b565b6200003f336200010e565b60018055600280546001600160a01b038086166001600160a01b031992831617835560038054868316908416179055600480549185169190921617905560009062000097906b204fce5e3e25026110000000620001c5565b90506040518060c0016040528060018152602001428152602001828152602001600081526020016000815260200161016d83620000d59190620001c5565b90528051600555602081015160065560408101516007556060810151600855608081015160095560a00151600a5550620001e892505050565b600080546001600160a01b038381166001600160a01b0319831681178455604051919092169283917f8be0079c531659141344cd1fd0a4f28419497f9722a3daafe3b4186f6b6457e09190a35050565b80516001600160a01b03811681146200017657600080fd5b919050565b6000806000606084860312156200019157600080fd5b6200019c846200015e565b9250620001ac602085016200015e565b9150620001bc604085016200015e565b90509250925092565b600082620001e357634e487b7160e01b600052601260045260246000fd5b500490565b610ef180620001f86000396000f3fe608060405234801561001057600080fd5b50600436106101205760003560e01c80638ceb1dba116100ad578063b968798e11610071578063b968798e1461026d578063c230781f14610275578063d0deef9914610288578063f0fe5bed1461029b578063f2fde38b146102c657600080fd5b80638ceb1dba1461021a5780638da5cb5b1461022d578063a89ae4ba1461023e578063ae169a5014610251578063b11bc6f71461026457600080fd5b80635dcc9391116100f45780635dcc9391146101cc578063684ce2ce146101d7578063715018a6146101df5780637cbcfb39146101e7578063877dab7e146101fa57600080fd5b806287b0d414610125578063186ba7f114610155578063222a4802146101a057806355d0a1d0146101b5575b600080fd5b600254610138906001600160a01b031681565b6040516001600160a01b0390911681526020015b60405180910390f35b600554600654600754600854600954600a5461017395949392919086565b604080519687526020870195909552938501929092526060840152608083015260a082015260c00161014c565b6101b36101ae366004610bd9565b6102d9565b005b6101be600b5481565b60405190815260200161014c565b6101be6301e1338081565b6101be60fa81565b6101b3610392565b600354610138906001600160a01b031681565b6101be610208366004610bfb565b600e6020526000908152604090205481565b6101b3610228366004610c22565b6103a6565b6000546001600160a01b0316610138565b600454610138906001600160a01b031681565b6101b361025f366004610bfb565b6103ed565b6101be600c5481565b6101b3610666565b6101be6b204fce5e3e2502611000000081565b6101be610296366004610bfb565b61077c565b6101be6102a9366004610bd9565b600d60209081526000928352604080842090915290825290205481565b6101b36102d4366004610c67565b6108a8565b6004546001600160a01b031633146103265760405162461bcd60e51b815260206004820152600b60248201526a4f6e6c79204f7261636c6560a81b60448201526064015b60405180910390fd5b60006103356201518042610ca1565b6000848152600d60209081526040808320848452825291829020859055815183815290810185905291925084917f8d6131ead05d17bb37913bdff362964b1be7fc0762dfbf84399d91316c35f2ac910160405180910390a2505050565b61039a61091e565b6103a46000610978565b565b6103ae61091e565b80156103d15781600c60008282546103c69190610cc3565b909155506103e99050565b81600c60008282546103e39190610cdc565b90915550505b5050565b6103f56109c8565b6103fd610666565b6002546040516331a9108f60e11b81526004810183905233916001600160a01b031690636352211e90602401602060405180830381865afa158015610446573d6000803e3d6000fd5b505050506040513d601f19601f8201168201806040525081019061046a9190610cef565b6001600160a01b0316146104ac5760405162461bcd60e51b81526020600482015260096024820152682737ba1037bbb732b960b91b604482015260640161031d565b60006104b78261077c565b9050600081116104fb5760405162461bcd60e51b815260206004820152600f60248201526e139bc81d985b1a59081c995dd85c99608a1b604482015260640161031d565b60075460085461050c908390610cc3565b11156105535760405162461bcd60e51b815260206004820152601660248201527514dd1859d9481cdd5c1c1b1e48195e1a185d5cdd195960521b604482015260640161031d565b60006105626201518042610ca1565b6000848152600d602052604081209192509081610580600185610cdc565b81526020808201929092526040908101600090812093909355858352600e9091528120429055600880548492906105b8908490610cc3565b90915550506003546040516340c10f1960e01b8152336004820152602481018490526001600160a01b03909116906340c10f1990604401600060405180830381600087803b15801561060957600080fd5b505af115801561061d573d6000803e3d6000fd5b50506040518481523392508591507f24b5efa61dd1cfc659205a97fb8ed868f3cb8c81922bab2b96423e5de1de2cb79060200160405180910390a3505061066360018055565b50565b6002546040805163d755d36f60e01b815290516005926000926001600160a01b039091169163d755d36f916004808201926020929091908290030181865afa1580156106b6573d6000803e3d6000fd5b505050506040513d601f19601f820116820180604052508101906106da9190610d0c565b905060006301e1338083600101546106f29190610cc3565b4210159050600060fa846004015461070a9190610cc3565b831015905081806107185750805b15610776576107768261074e576040518060400160405280600b81526020016a09c9e888abe8ea49eaea8960ab1b815250610a21565b6040518060400160405280600a8152602001691512535157d31253525560b21b815250610a21565b50505050565b60025460405163e2e1297160e01b815260048101839052600091829182916001600160a01b03169063e2e1297190602401600060405180830381865afa1580156107ca573d6000803e3d6000fd5b505050506040513d6000823e601f3d908101601f191682016040526107f29190810190610d7e565b945050935050508015806108065750600c54155b15610815575060009392505050565b60006108246201518042610ca1565b6000868152600d602052604081209192509081610842600185610cdc565b8152602001908152602001600020549050806000036108675750600095945050505050565b600a54600c5460009061087a8784610e62565b6108849190610ca1565b905060646108928483610e62565b61089c9190610ca1565b98975050505050505050565b6108b061091e565b6001600160a01b0381166109155760405162461bcd60e51b815260206004820152602660248201527f4f776e61626c653a206e6577206f776e657220697320746865207a65726f206160448201526564647265737360d01b606482015260840161031d565b61066381610978565b6000546001600160a01b031633146103a45760405162461bcd60e51b815260206004820181905260248201527f4f776e61626c653a2063616c6c6572206973206e6f7420746865206f776e6572604482015260640161031d565b600080546001600160a01b038381166001600160a01b0319831681178455604051919092169283917f8be0079c531659141344cd1fd0a4f28419497f9722a3daafe3b4186f6b6457e09190a35050565b600260015403610a1a5760405162461bcd60e51b815260206004820152601f60248201527f5265656e7472616e637947756172643a207265656e7472616e742063616c6c00604482015260640161031d565b6002600155565b6040805160c08101825260055481526006546020820152600754918101829052600854606082018190526009546080830152600a5460a083015290916000911015610a945781606001518260400151610a7a9190610cdc565b905080600b6000828254610a8e9190610cc3565b90915550505b8151600090610aa4906001610cc3565b9050600060028460400151610ab99190610ca1565b90506040518060c0016040528083815260200142815260200182815260200160008152602001600260009054906101000a90046001600160a01b03166001600160a01b031663d755d36f6040518163ffffffff1660e01b8152600401602060405180830381865afa158015610b32573d6000803e3d6000fd5b505050506040513d601f19601f82011682018060405250810190610b569190610d0c565b8152602001610b6761016d84610ca1565b9052805160055560208101516006556040808201516007556060820151600855608082015160095560a090910151600a55517f0d158bc741f8e3a33b9b78d4ed2f2c350155079e60d921e78370383ab3588eed90610bca90849088908790610e79565b60405180910390a15050505050565b60008060408385031215610bec57600080fd5b50508035926020909101359150565b600060208284031215610c0d57600080fd5b5035919050565b801515811461066357600080fd5b60008060408385031215610c3557600080fd5b823591506020830135610c4781610c14565b809150509250929050565b6001600160a01b038116811461066357600080fd5b600060208284031215610c7957600080fd5b8135610c8481610c52565b9392505050565b634e487b7160e01b600052601160045260246000fd5b600082610cbe57634e487b7160e01b600052601260045260246000fd5b500490565b80820180821115610cd657610cd6610c8b565b92915050565b81810381811115610cd657610cd6610c8b565b600060208284031215610d0157600080fd5b8151610c8481610c52565b600060208284031215610d1e57600080fd5b5051919050565b634e487b7160e01b600052604160045260246000fd5b60005b83811015610d56578181015183820152602001610d3e565b50506000910152565b805160038110610d6e57600080fd5b919050565b8051610d6e81610c14565b600080600080600060a08688031215610d9657600080fd5b855167ffffffffffffffff80821115610dae57600080fd5b818801915088601f830112610dc257600080fd5b815181811115610dd457610dd4610d25565b604051601f8201601f19908116603f01168101908382118183101715610dfc57610dfc610d25565b816040528281528b6020848701011115610e1557600080fd5b610e26836020830160208801610d3b565b8099505050505050610e3a60208701610d5f565b93506040860151925060608601519150610e5660808701610d73565b90509295509295909350565b8082028115828204841417610cd657610cd6610c8b565b8381526060602082015260008351806060840152610e9e816080850160208801610d3b565b604083019390935250601f91909101601f1916016080019291505056fea2646970667358221220190e2fd930f1fa4998848e3d49481a8fe3505559d4c504a0e9953351e01132ef64736f6c63430008140033","opcodes":"PUSH1 0x80 PUSH1 0x40 MSTORE CALLVALUE DUP1 ISZERO PUSH3 0x11 JUMPI PUSH1 0x0 DUP1 REVERT JUMPDEST POP PUSH1 0x40 MLOAD PUSH3 0x10E9 CODESIZE SUB DUP1 PUSH3 0x10E9 DUP4 CODECOPY DUP2 ADD PUSH1 0x40 DUP2 SWAP1 MSTORE PUSH3 0x34 SWAP2 PUSH3 0x17B JUMP JUMPDEST PUSH3 0x3F CALLER PUSH3 0x10E JUMP JUMPDEST PUSH1 0x1 DUP1 SSTORE PUSH1 0x2 DUP1 SLOAD PUSH1 0x1 PUSH1 0x1 PUSH1 0xA0 SHL SUB DUP1 DUP7 AND PUSH1 0x1 PUSH1 0x1 PUSH1 0xA0 SHL SUB NOT SWAP3 DUP4 AND OR DUP4 SSTORE PUSH1 0x3 DUP1 SLOAD DUP7 DUP4 AND SWAP1 DUP5 AND OR SWAP1 SSTORE PUSH1 0x4 DUP1 SLOAD SWAP2 DUP6 AND SWAP2 SWAP1 SWAP3 AND OR SWAP1 SSTORE PUSH1 0x0 SWAP1 PUSH3 0x97 SWAP1 PUSH12 0x204FCE5E3E25026110000000 PUSH3 0x1C5 JUMP JUMPDEST SWAP1 POP PUSH1 0x40 MLOAD DUP1 PUSH1 0xC0 ADD PUSH1 0x40 MSTORE DUP1 PUSH1 0x1 DUP2 MSTORE PUSH1 0x20 ADD TIMESTAMP DUP2 MSTORE PUSH1 0x20 ADD DUP3 DUP2 MSTORE PUSH1 0x20 ADD PUSH1 0x0 DUP2 MSTORE PUSH1 0x20 ADD PUSH1 0x0 DUP2 MSTORE PUSH1 0x20 ADD PUSH2 0x16D DUP4 PUSH3 0xD5 SWAP2 SWAP1 PUSH3 0x1C5 JUMP JUMPDEST SWAP1 MSTORE DUP1 MLOAD PUSH1 0x5 SSTORE PUSH1 0x20 DUP2 ADD MLOAD PUSH1 0x6 SSTORE PUSH1 0x40 DUP2 ADD MLOAD PUSH1 0x7 SSTORE PUSH1 0x60 DUP2 ADD MLOAD PUSH1 0x8 SSTORE PUSH1 0x80 DUP2 ADD MLOAD PUSH1 0x9 SSTORE PUSH1 0xA0 ADD MLOAD PUSH1 0xA SSTORE POP PUSH3 0x1E8 SWAP3 POP POP POP JUMP JUMPDEST PUSH1 0x0 DUP1 SLOAD PUSH1 0x1 PUSH1 0x1 PUSH1 0xA0 SHL SUB DUP4 DUP2 AND PUSH1 0x1 PUSH1 0x1 PUSH1 0xA0 SHL SUB NOT DUP4 AND DUP2 OR DUP5 SSTORE PUSH1 0x40 MLOAD SWAP2 SWAP1 SWAP3 AND SWAP3 DUP4 SWAP2 PUSH32 0x8BE0079C531659141344CD1FD0A4F28419497F9722A3DAAFE3B4186F6B6457E0 SWAP2 SWAP1 LOG3 POP POP JUMP JUMPDEST DUP1 MLOAD PUSH1 0x1 PUSH1 0x1 PUSH1 0xA0 SHL SUB DUP2 AND DUP2 EQ PUSH3 0x176 JUMPI PUSH1 0x0 DUP1 REVERT JUMPDEST SWAP2 SWAP1 POP JUMP JUMPDEST PUSH1 0x0 DUP1 PUSH1 0x0 PUSH1 0x60 DUP5 DUP7 SUB SLT ISZERO PUSH3 0x191 JUMPI PUSH1 0x0 DUP1 REVERT JUMPDEST PUSH3 0x19C DUP5 PUSH3 0x15E JUMP JUMPDEST SWAP3 POP PUSH3 0x1AC PUSH1 0x20 DUP6 ADD PUSH3 0x15E JUMP JUMPDEST SWAP2 POP PUSH3 0x1BC PUSH1 0x40 DUP6 ADD PUSH3 0x15E JUMP JUMPDEST SWAP1 POP SWAP3 POP SWAP3 POP SWAP3 JUMP JUMPDEST PUSH1 0x0 DUP3 PUSH3 0x1E3 JUMPI PUSH4 0x4E487B71 PUSH1 0xE0 SHL PUSH1 0x0 MSTORE PUSH1 0x12 PUSH1 0x4 MSTORE PUSH1 0x24 PUSH1 0x0 REVERT JUMPDEST POP DIV SWAP1 JUMP JUMPDEST PUSH2 0xEF1 DUP1 PUSH3 0x1F8 PUSH1 0x0 CODECOPY PUSH1 0x0 RETURN INVALID PUSH1 0x80 PUSH1 0x40 MSTORE CALLVALUE DUP1 ISZERO PUSH2 0x10 JUMPI PUSH1 0x0 DUP1 REVERT JUMPDEST POP PUSH1 0x4 CALLDATASIZE LT PUSH2 0x120 JUMPI PUSH1 0x0 CALLDATALOAD PUSH1 0xE0 SHR DUP1 PUSH4 0x8CEB1DBA GT PUSH2 0xAD JUMPI DUP1 PUSH4 0xB968798E GT PUSH2 0x71 JUMPI DUP1 PUSH4 0xB968798E EQ PUSH2 0x26D JUMPI DUP1 PUSH4 0xC230781F EQ PUSH2 0x275 JUMPI DUP1 PUSH4 0xD0DEEF99 EQ PUSH2 0x288 JUMPI DUP1 PUSH4 0xF0FE5BED EQ PUSH2 0x29B JUMPI DUP1 PUSH4 0xF2FDE38B EQ PUSH2 0x2C6 JUMPI PUSH1 0x0 DUP1 REVERT JUMPDEST DUP1 PUSH4 0x8CEB1DBA EQ PUSH2 0x21A JUMPI DUP1 PUSH4 0x8DA5CB5B EQ PUSH2 0x22D JUMPI DUP1 PUSH4 0xA89AE4BA EQ PUSH2 0x23E JUMPI DUP1 PUSH4 0xAE169A50 EQ PUSH2 0x251 JUMPI DUP1 PUSH4 0xB11BC6F7 EQ PUSH2 0x264 JUMPI PUSH1 0x0 DUP1 REVERT JUMPDEST DUP1 PUSH4 0x5DCC9391 GT PUSH2 0xF4 JUMPI DUP1 PUSH4 0x5DCC9391 EQ PUSH2 0x1CC JUMPI DUP1 PUSH4 0x684CE2CE EQ PUSH2 0x1D7 JUMPI DUP1 PUSH4 0x715018A6 EQ PUSH2 0x1DF JUMPI DUP1 PUSH4 0x7CBCFB39 EQ PUSH2 0x1E7 JUMPI DUP1 PUSH4 0x877DAB7E EQ PUSH2 0x1FA JUMPI PUSH1 0x0 DUP1 REVERT JUMPDEST DUP1 PUSH3 0x87B0D4 EQ PUSH2 0x125 JUMPI DUP1 PUSH4 0x186BA7F1 EQ PUSH2 0x155 JUMPI DUP1 PUSH4 0x222A4802 EQ PUSH2 0x1A0 JUMPI DUP1 PUSH4 0x55D0A1D0 EQ PUSH2 0x1B5 JUMPI JUMPDEST PUSH1 0x0 DUP1 REVERT JUMPDEST PUSH1 0x2 SLOAD PUSH2 0x138 SWAP1 PUSH1 0x1 PUSH1 0x1 PUSH1 0xA0 SHL SUB AND DUP2 JUMP JUMPDEST PUSH1 0x40 MLOAD PUSH1 0x1 PUSH1 0x1 PUSH1 0xA0 SHL SUB SWAP1 SWAP2 AND DUP2 MSTORE PUSH1 0x20 ADD JUMPDEST PUSH1 0x40 MLOAD DUP1 SWAP2 SUB SWAP1 RETURN JUMPDEST PUSH1 0x5 SLOAD PUSH1 0x6 SLOAD PUSH1 0x7 SLOAD PUSH1 0x8 SLOAD PUSH1 0x9 SLOAD PUSH1 0xA SLOAD PUSH2 0x173 SWAP6 SWAP5 SWAP4 SWAP3 SWAP2 SWAP1 DUP7 JUMP JUMPDEST PUSH1 0x40 DUP1 MLOAD SWAP7 DUP8 MSTORE PUSH1 0x20 DUP8 ADD SWAP6 SWAP1 SWAP6 MSTORE SWAP4 DUP6 ADD SWAP3 SWAP1 SWAP3 MSTORE PUSH1 0x60 DUP5 ADD MSTORE PUSH1 0x80 DUP4 ADD MSTORE PUSH1 0xA0 DUP3 ADD MSTORE PUSH1 0xC0 ADD PUSH2 0x14C JUMP JUMPDEST PUSH2 0x1B3 PUSH2 0x1AE CALLDATASIZE PUSH1 0x4 PUSH2 0xBD9 JUMP JUMPDEST PUSH2 0x2D9 JUMP JUMPDEST STOP JUMPDEST PUSH2 0x1BE PUSH1 0xB SLOAD DUP2 JUMP JUMPDEST PUSH1 0x40 MLOAD SWAP1 DUP2 MSTORE PUSH1 0x20 ADD PUSH2 0x14C JUMP JUMPDEST PUSH2 0x1BE PUSH4 0x1E13380 DUP2 JUMP JUMPDEST PUSH2 0x1BE PUSH1 0xFA DUP2 JUMP JUMPDEST PUSH2 0x1B3 PUSH2 0x392 JUMP JUMPDEST PUSH1 0x3 SLOAD PUSH2 0x138 SWAP1 PUSH1 0x1 PUSH1 0x1 PUSH1 0xA0 SHL SUB AND DUP2 JUMP JUMPDEST PUSH2 0x1BE PUSH2 0x208 CALLDATASIZE PUSH1 0x4 PUSH2 0xBFB JUMP JUMPDEST PUSH1 0xE PUSH1 0x20 MSTORE PUSH1 0x0 SWAP1 DUP2 MSTORE PUSH1 0x40 SWAP1 KECCAK256 SLOAD DUP2 JUMP JUMPDEST PUSH2 0x1B3 PUSH2 0x228 CALLDATASIZE PUSH1 0x4 PUSH2 0xC22 JUMP JUMPDEST PUSH2 0x3A6 JUMP JUMPDEST PUSH1 0x0 SLOAD PUSH1 0x1 PUSH1 0x1 PUSH1 0xA0 SHL SUB AND PUSH2 0x138 JUMP JUMPDEST PUSH1 0x4 SLOAD PUSH2 0x138 SWAP1 PUSH1 0x1 PUSH1 0x1 PUSH1 0xA0 SHL SUB AND DUP2 JUMP JUMPDEST PUSH2 0x1B3 PUSH2 0x25F CALLDATASIZE PUSH1 0x4 PUSH2 0xBFB JUMP JUMPDEST PUSH2 0x3ED JUMP JUMPDEST PUSH2 0x1BE PUSH1 0xC SLOAD DUP2 JUMP JUMPDEST PUSH2 0x1B3 PUSH2 0x666 JUMP JUMPDEST PUSH2 0x1BE PUSH12 0x204FCE5E3E25026110000000 DUP2 JUMP JUMPDEST PUSH2 0x1BE PUSH2 0x296 CALLDATASIZE PUSH1 0x4 PUSH2 0xBFB JUMP JUMPDEST PUSH2 0x77C JUMP JUMPDEST PUSH2 0x1BE PUSH2 0x2A9 CALLDATASIZE PUSH1 0x4 PUSH2 0xBD9 JUMP JUMPDEST PUSH1 0xD PUSH1 0x20 SWAP1 DUP2 MSTORE PUSH1 0x0 SWAP3 DUP4 MSTORE PUSH1 0x40 DUP1 DUP5 KECCAK256 SWAP1 SWAP2 MSTORE SWAP1 DUP3 MSTORE SWAP1 KECCAK256 SLOAD DUP2 JUMP JUMPDEST PUSH2 0x1B3 PUSH2 0x2D4 CALLDATASIZE PUSH1 0x4 PUSH2 0xC67 JUMP JUMPDEST PUSH2 0x8A8 JUMP JUMPDEST PUSH1 0x4 SLOAD PUSH1 0x1 PUSH1 0x1 PUSH1 0xA0 SHL SUB AND CALLER EQ PUSH2 0x326 JUMPI PUSH1 0x40 MLOAD PUSH3 0x461BCD PUSH1 0xE5 SHL DUP2 MSTORE PUSH1 0x20 PUSH1 0x4 DUP3 ADD MSTORE PUSH1 0xB PUSH1 0x24 DUP3 ADD MSTORE PUSH11 0x4F6E6C79204F7261636C65 PUSH1 0xA8 SHL PUSH1 0x44 DUP3 ADD MSTORE PUSH1 0x64 ADD JUMPDEST PUSH1 0x40 MLOAD DUP1 SWAP2 SUB SWAP1 REVERT JUMPDEST PUSH1 0x0 PUSH2 0x335 PUSH3 0x15180 TIMESTAMP PUSH2 0xCA1 JUMP JUMPDEST PUSH1 0x0 DUP5 DUP2 MSTORE PUSH1 0xD PUSH1 0x20 SWAP1 DUP2 MSTORE PUSH1 0x40 DUP1 DUP4 KECCAK256 DUP5 DUP5 MSTORE DUP3 MSTORE SWAP2 DUP3 SWAP1 KECCAK256 DUP6 SWAP1 SSTORE DUP2 MLOAD DUP4 DUP2 MSTORE SWAP1 DUP2 ADD DUP6 SWAP1 MSTORE SWAP2 SWAP3 POP DUP5 SWAP2 PUSH32 0x8D6131EAD05D17BB37913BDFF362964B1BE7FC0762DFBF84399D91316C35F2AC SWAP2 ADD PUSH1 0x40 MLOAD DUP1 SWAP2 SUB SWAP1 LOG2 POP POP POP JUMP JUMPDEST PUSH2 0x39A PUSH2 0x91E JUMP JUMPDEST PUSH2 0x3A4 PUSH1 0x0 PUSH2 0x978 JUMP JUMPDEST JUMP JUMPDEST PUSH2 0x3AE PUSH2 0x91E JUMP JUMPDEST DUP1 ISZERO PUSH2 0x3D1 JUMPI DUP2 PUSH1 0xC PUSH1 0x0 DUP3 DUP3 SLOAD PUSH2 0x3C6 SWAP2 SWAP1 PUSH2 0xCC3 JUMP JUMPDEST SWAP1 SWAP2 SSTORE POP PUSH2 0x3E9 SWAP1 POP JUMP JUMPDEST DUP2 PUSH1 0xC PUSH1 0x0 DUP3 DUP3 SLOAD PUSH2 0x3E3 SWAP2 SWAP1 PUSH2 0xCDC JUMP JUMPDEST SWAP1 SWAP2 SSTORE POP POP JUMPDEST POP POP JUMP JUMPDEST PUSH2 0x3F5 PUSH2 0x9C8 JUMP JUMPDEST PUSH2 0x3FD PUSH2 0x666 JUMP JUMPDEST PUSH1 0x2 SLOAD PUSH1 0x40 MLOAD PUSH4 0x31A9108F PUSH1 0xE1 SHL DUP2 MSTORE PUSH1 0x4 DUP2 ADD DUP4 SWAP1 MSTORE CALLER SWAP2 PUSH1 0x1 PUSH1 0x1 PUSH1 0xA0 SHL SUB AND SWAP1 PUSH4 0x6352211E SWAP1 PUSH1 0x24 ADD PUSH1 0x20 PUSH1 0x40 MLOAD DUP1 DUP4 SUB DUP2 DUP7 GAS STATICCALL ISZERO DUP1 ISZERO PUSH2 0x446 JUMPI RETURNDATASIZE PUSH1 0x0 DUP1 RETURNDATACOPY RETURNDATASIZE PUSH1 0x0 REVERT JUMPDEST POP POP POP POP PUSH1 0x40 MLOAD RETURNDATASIZE PUSH1 0x1F NOT PUSH1 0x1F DUP3 ADD AND DUP3 ADD DUP1 PUSH1 0x40 MSTORE POP DUP2 ADD SWAP1 PUSH2 0x46A SWAP2 SWAP1 PUSH2 0xCEF JUMP JUMPDEST PUSH1 0x1 PUSH1 0x1 PUSH1 0xA0 SHL SUB AND EQ PUSH2 0x4AC JUMPI PUSH1 0x40 MLOAD PUSH3 0x461BCD PUSH1 0xE5 SHL DUP2 MSTORE PUSH1 0x20 PUSH1 0x4 DUP3 ADD MSTORE PUSH1 0x9 PUSH1 0x24 DUP3 ADD MSTORE PUSH9 0x2737BA1037BBB732B9 PUSH1 0xB9 SHL PUSH1 0x44 DUP3 ADD MSTORE PUSH1 0x64 ADD PUSH2 0x31D JUMP JUMPDEST PUSH1 0x0 PUSH2 0x4B7 DUP3 PUSH2 0x77C JUMP JUMPDEST SWAP1 POP PUSH1 0x0 DUP2 GT PUSH2 0x4FB JUMPI PUSH1 0x40 MLOAD PUSH3 0x461BCD PUSH1 0xE5 SHL DUP2 MSTORE PUSH1 0x20 PUSH1 0x4 DUP3 ADD MSTORE PUSH1 0xF PUSH1 0x24 DUP3 ADD MSTORE PUSH15 0x139BC81D985B1A59081C995DD85C99 PUSH1 0x8A SHL PUSH1 0x44 DUP3 ADD MSTORE PUSH1 0x64 ADD PUSH2 0x31D JUMP JUMPDEST PUSH1 0x7 SLOAD PUSH1 0x8 SLOAD PUSH2 0x50C SWAP1 DUP4 SWAP1 PUSH2 0xCC3 JUMP JUMPDEST GT ISZERO PUSH2 0x553 JUMPI PUSH1 0x40 MLOAD PUSH3 0x461BCD PUSH1 0xE5 SHL DUP2 MSTORE PUSH1 0x20 PUSH1 0x4 DUP3 ADD MSTORE PUSH1 0x16 PUSH1 0x24 DUP3 ADD MSTORE PUSH22 0x14DD1859D9481CDD5C1C1B1E48195E1A185D5CDD1959 PUSH1 0x52 SHL PUSH1 0x44 DUP3 ADD MSTORE PUSH1 0x64 ADD PUSH2 0x31D JUMP JUMPDEST PUSH1 0x0 PUSH2 0x562 PUSH3 0x15180 TIMESTAMP PUSH2 0xCA1 JUMP JUMPDEST PUSH1 0x0 DUP5 DUP2 MSTORE PUSH1 0xD PUSH1 0x20 MSTORE PUSH1 0x40 DUP2 KECCAK256 SWAP2 SWAP3 POP SWAP1 DUP2 PUSH2 0x580 PUSH1 0x1 DUP6 PUSH2 0xCDC JUMP JUMPDEST DUP2 MSTORE PUSH1 0x20 DUP1 DUP3 ADD SWAP3 SWAP1 SWAP3 MSTORE PUSH1 0x40 SWAP1 DUP2 ADD PUSH1 0x0 SWAP1 DUP2 KECCAK256 SWAP4 SWAP1 SWAP4 SSTORE DUP6 DUP4 MSTORE PUSH1 0xE SWAP1 SWAP2 MSTORE DUP2 KECCAK256 TIMESTAMP SWAP1 SSTORE PUSH1 0x8 DUP1 SLOAD DUP5 SWAP3 SWAP1 PUSH2 0x5B8 SWAP1 DUP5 SWAP1 PUSH2 0xCC3 JUMP JUMPDEST SWAP1 SWAP2 SSTORE POP POP PUSH1 0x3 SLOAD PUSH1 0x40 MLOAD PUSH4 0x40C10F19 PUSH1 0xE0 SHL DUP2 MSTORE CALLER PUSH1 0x4 DUP3 ADD MSTORE PUSH1 0x24 DUP2 ADD DUP5 SWAP1 MSTORE PUSH1 0x1 PUSH1 0x1 PUSH1 0xA0 SHL SUB SWAP1 SWAP2 AND SWAP1 PUSH4 0x40C10F19 SWAP1 PUSH1 0x44 ADD PUSH1 0x0 PUSH1 0x40 MLOAD DUP1 DUP4 SUB DUP2 PUSH1 0x0 DUP8 DUP1 EXTCODESIZE ISZERO DUP1 ISZERO PUSH2 0x609 JUMPI PUSH1 0x0 DUP1 REVERT JUMPDEST POP GAS CALL ISZERO DUP1 ISZERO PUSH2 0x61D JUMPI RETURNDATASIZE PUSH1 0x0 DUP1 RETURNDATACOPY RETURNDATASIZE PUSH1 0x0 REVERT JUMPDEST POP POP PUSH1 0x40 MLOAD DUP5 DUP2 MSTORE CALLER SWAP3 POP DUP6 SWAP2 POP PUSH32 0x24B5EFA61DD1CFC659205A97FB8ED868F3CB8C81922BAB2B96423E5DE1DE2CB7 SWAP1 PUSH1 0x20 ADD PUSH1 0x40 MLOAD DUP1 SWAP2 SUB SWAP1 LOG3 POP POP PUSH2 0x663 PUSH1 0x1 DUP1 SSTORE JUMP JUMPDEST POP JUMP JUMPDEST PUSH1 0x2 SLOAD PUSH1 0x40 DUP1 MLOAD PUSH4 0xD755D36F PUSH1 0xE0 SHL DUP2 MSTORE SWAP1 MLOAD PUSH1 0x5 SWAP3 PUSH1 0x0 SWAP3 PUSH1 0x1 PUSH1 0x1 PUSH1 0xA0 SHL SUB SWAP1 SWAP2 AND SWAP2 PUSH4 0xD755D36F SWAP2 PUSH1 0x4 DUP1 DUP3 ADD SWAP3 PUSH1 0x20 SWAP3 SWAP1 SWAP2 SWAP1 DUP3 SWAP1 SUB ADD DUP2 DUP7 GAS STATICCALL ISZERO DUP1 ISZERO PUSH2 0x6B6 JUMPI RETURNDATASIZE PUSH1 0x0 DUP1 RETURNDATACOPY RETURNDATASIZE PUSH1 0x0 REVERT JUMPDEST POP POP POP POP PUSH1 0x40 MLOAD RETURNDATASIZE PUSH1 0x1F NOT PUSH1 0x1F DUP3 ADD AND DUP3 ADD DUP1 PUSH1 0x40 MSTORE POP DUP2 ADD SWAP1 PUSH2 0x6DA SWAP2 SWAP1 PUSH2 0xD0C JUMP JUMPDEST SWAP1 POP PUSH1 0x0 PUSH4 0x1E13380 DUP4 PUSH1 0x1 ADD SLOAD PUSH2 0x6F2 SWAP2 SWAP1 PUSH2 0xCC3 JUMP JUMPDEST TIMESTAMP LT ISZERO SWAP1 POP PUSH1 0x0 PUSH1 0xFA DUP5 PUSH1 0x4 ADD SLOAD PUSH2 0x70A SWAP2 SWAP1 PUSH2 0xCC3 JUMP JUMPDEST DUP4 LT ISZERO SWAP1 POP DUP2 DUP1 PUSH2 0x718 JUMPI POP DUP1 JUMPDEST ISZERO PUSH2 0x776 JUMPI PUSH2 0x776 DUP3 PUSH2 0x74E JUMPI PUSH1 0x40 MLOAD DUP1 PUSH1 0x40 ADD PUSH1 0x40 MSTORE DUP1 PUSH1 0xB DUP2 MSTORE PUSH1 0x20 ADD PUSH11 0x9C9E888ABE8EA49EAEA89 PUSH1 0xAB SHL DUP2 MSTORE POP PUSH2 0xA21 JUMP JUMPDEST PUSH1 0x40 MLOAD DUP1 PUSH1 0x40 ADD PUSH1 0x40 MSTORE DUP1 PUSH1 0xA DUP2 MSTORE PUSH1 0x20 ADD PUSH10 0x1512535157D312535255 PUSH1 0xB2 SHL DUP2 MSTORE POP PUSH2 0xA21 JUMP JUMPDEST POP POP POP POP JUMP JUMPDEST PUSH1 0x2 SLOAD PUSH1 0x40 MLOAD PUSH4 0xE2E12971 PUSH1 0xE0 SHL DUP2 MSTORE PUSH1 0x4 DUP2 ADD DUP4 SWAP1 MSTORE PUSH1 0x0 SWAP2 DUP3 SWAP2 DUP3 SWAP2 PUSH1 0x1 PUSH1 0x1 PUSH1 0xA0 SHL SUB AND SWAP1 PUSH4 0xE2E12971 SWAP1 PUSH1 0x24 ADD PUSH1 0x0 PUSH1 0x40 MLOAD DUP1 DUP4 SUB DUP2 DUP7 GAS STATICCALL ISZERO DUP1 ISZERO PUSH2 0x7CA JUMPI RETURNDATASIZE PUSH1 0x0 DUP1 RETURNDATACOPY RETURNDATASIZE PUSH1 0x0 REVERT JUMPDEST POP POP POP POP PUSH1 0x40 MLOAD RETURNDATASIZE PUSH1 0x0 DUP3 RETURNDATACOPY PUSH1 0x1F RETURNDATASIZE SWAP1 DUP2 ADD PUSH1 0x1F NOT AND DUP3 ADD PUSH1 0x40 MSTORE PUSH2 0x7F2 SWAP2 SWAP1 DUP2 ADD SWAP1 PUSH2 0xD7E JUMP JUMPDEST SWAP5 POP POP SWAP4 POP POP POP DUP1 ISZERO DUP1 PUSH2 0x806 JUMPI POP PUSH1 0xC SLOAD ISZERO JUMPDEST ISZERO PUSH2 0x815 JUMPI POP PUSH1 0x0 SWAP4 SWAP3 POP POP POP JUMP JUMPDEST PUSH1 0x0 PUSH2 0x824 PUSH3 0x15180 TIMESTAMP PUSH2 0xCA1 JUMP JUMPDEST PUSH1 0x0 DUP7 DUP2 MSTORE PUSH1 0xD PUSH1 0x20 MSTORE PUSH1 0x40 DUP2 KECCAK256 SWAP2 SWAP3 POP SWAP1 DUP2 PUSH2 0x842 PUSH1 0x1 DUP6 PUSH2 0xCDC JUMP JUMPDEST DUP2 MSTORE PUSH1 0x20 ADD SWAP1 DUP2 MSTORE PUSH1 0x20 ADD PUSH1 0x0 KECCAK256 SLOAD SWAP1 POP DUP1 PUSH1 0x0 SUB PUSH2 0x867 JUMPI POP PUSH1 0x0 SWAP6 SWAP5 POP POP POP POP POP JUMP JUMPDEST PUSH1 0xA SLOAD PUSH1 0xC SLOAD PUSH1 0x0 SWAP1 PUSH2 0x87A DUP8 DUP5 PUSH2 0xE62 JUMP JUMPDEST PUSH2 0x884 SWAP2 SWAP1 PUSH2 0xCA1 JUMP JUMPDEST SWAP1 POP PUSH1 0x64 PUSH2 0x892 DUP5 DUP4 PUSH2 0xE62 JUMP JUMPDEST PUSH2 0x89C SWAP2 SWAP1 PUSH2 0xCA1 JUMP JUMPDEST SWAP9 SWAP8 POP POP POP POP POP POP POP POP JUMP JUMPDEST PUSH2 0x8B0 PUSH2 0x91E JUMP JUMPDEST PUSH1 0x1 PUSH1 0x1 PUSH1 0xA0 SHL SUB DUP2 AND PUSH2 0x915 JUMPI PUSH1 0x40 MLOAD PUSH3 0x461BCD PUSH1 0xE5 SHL DUP2 MSTORE PUSH1 0x20 PUSH1 0x4 DUP3 ADD MSTORE PUSH1 0x26 PUSH1 0x24 DUP3 ADD MSTORE PUSH32 0x4F776E61626C653A206E6577206F776E657220697320746865207A65726F2061 PUSH1 0x44 DUP3 ADD MSTORE PUSH6 0x646472657373 PUSH1 0xD0 SHL PUSH1 0x64 DUP3 ADD MSTORE PUSH1 0x84 ADD PUSH2 0x31D JUMP JUMPDEST PUSH2 0x663 DUP2 PUSH2 0x978 JUMP JUMPDEST PUSH1 0x0 SLOAD PUSH1 0x1 PUSH1 0x1 PUSH1 0xA0 SHL SUB AND CALLER EQ PUSH2 0x3A4 JUMPI PUSH1 0x40 MLOAD PUSH3 0x461BCD PUSH1 0xE5 SHL DUP2 MSTORE PUSH1 0x20 PUSH1 0x4 DUP3 ADD DUP2 SWAP1 MSTORE PUSH1 0x24 DUP3 ADD MSTORE PUSH32 0x4F776E61626C653A2063616C6C6572206973206E6F7420746865206F776E6572 PUSH1 0x44 DUP3 ADD MSTORE PUSH1 0x64 ADD PUSH2 0x31D JUMP JUMPDEST PUSH1 0x0 DUP1 SLOAD PUSH1 0x1 PUSH1 0x1 PUSH1 0xA0 SHL SUB DUP4 DUP2 AND PUSH1 0x1 PUSH1 0x1 PUSH1 0xA0 SHL SUB NOT DUP4 AND DUP2 OR DUP5 SSTORE PUSH1 0x40 MLOAD SWAP2 SWAP1 SWAP3 AND SWAP3 DUP4 SWAP2 PUSH32 0x8BE0079C531659141344CD1FD0A4F28419497F9722A3DAAFE3B4186F6B6457E0 SWAP2 SWAP1 LOG3 POP POP JUMP JUMPDEST PUSH1 0x2 PUSH1 0x1 SLOAD SUB PUSH2 0xA1A JUMPI PUSH1 0x40 MLOAD PUSH3 0x461BCD PUSH1 0xE5 SHL DUP2 MSTORE PUSH1 0x20 PUSH1 0x4 DUP3 ADD MSTORE PUSH1 0x1F PUSH1 0x24 DUP3 ADD MSTORE PUSH32 0x5265656E7472616E637947756172643A207265656E7472616E742063616C6C00 PUSH1 0x44 DUP3 ADD MSTORE PUSH1 0x64 ADD PUSH2 0x31D JUMP JUMPDEST PUSH1 0x2 PUSH1 0x1 SSTORE JUMP JUMPDEST PUSH1 0x40 DUP1 MLOAD PUSH1 0xC0 DUP2 ADD DUP3 MSTORE PUSH1 0x5 SLOAD DUP2 MSTORE PUSH1 0x6 SLOAD PUSH1 0x20 DUP3 ADD MSTORE PUSH1 0x7 SLOAD SWAP2 DUP2 ADD DUP3 SWAP1 MSTORE PUSH1 0x8 SLOAD PUSH1 0x60 DUP3 ADD DUP2 SWAP1 MSTORE PUSH1 0x9 SLOAD PUSH1 0x80 DUP4 ADD MSTORE PUSH1 0xA SLOAD PUSH1 0xA0 DUP4 ADD MSTORE SWAP1 SWAP2 PUSH1 0x0 SWAP2 LT ISZERO PUSH2 0xA94 JUMPI DUP2 PUSH1 0x60 ADD MLOAD DUP3 PUSH1 0x40 ADD MLOAD PUSH2 0xA7A SWAP2 SWAP1 PUSH2 0xCDC JUMP JUMPDEST SWAP1 POP DUP1 PUSH1 0xB PUSH1 0x0 DUP3 DUP3 SLOAD PUSH2 0xA8E SWAP2 SWAP1 PUSH2 0xCC3 JUMP JUMPDEST SWAP1 SWAP2 SSTORE POP POP JUMPDEST DUP2 MLOAD PUSH1 0x0 SWAP1 PUSH2 0xAA4 SWAP1 PUSH1 0x1 PUSH2 0xCC3 JUMP JUMPDEST SWAP1 POP PUSH1 0x0 PUSH1 0x2 DUP5 PUSH1 0x40 ADD MLOAD PUSH2 0xAB9 SWAP2 SWAP1 PUSH2 0xCA1 JUMP JUMPDEST SWAP1 POP PUSH1 0x40 MLOAD DUP1 PUSH1 0xC0 ADD PUSH1 0x40 MSTORE DUP1 DUP4 DUP2 MSTORE PUSH1 0x20 ADD TIMESTAMP DUP2 MSTORE PUSH1 0x20 ADD DUP3 DUP2 MSTORE PUSH1 0x20 ADD PUSH1 0x0 DUP2 MSTORE PUSH1 0x20 ADD PUSH1 0x2 PUSH1 0x0 SWAP1 SLOAD SWAP1 PUSH2 0x100 EXP SWAP1 DIV PUSH1 0x1 PUSH1 0x1 PUSH1 0xA0 SHL SUB AND PUSH1 0x1 PUSH1 0x1 PUSH1 0xA0 SHL SUB AND PUSH4 0xD755D36F PUSH1 0x40 MLOAD DUP2 PUSH4 0xFFFFFFFF AND PUSH1 0xE0 SHL DUP2 MSTORE PUSH1 0x4 ADD PUSH1 0x20 PUSH1 0x40 MLOAD DUP1 DUP4 SUB DUP2 DUP7 GAS STATICCALL ISZERO DUP1 ISZERO PUSH2 0xB32 JUMPI RETURNDATASIZE PUSH1 0x0 DUP1 RETURNDATACOPY RETURNDATASIZE PUSH1 0x0 REVERT JUMPDEST POP POP POP POP PUSH1 0x40 MLOAD RETURNDATASIZE PUSH1 0x1F NOT PUSH1 0x1F DUP3 ADD AND DUP3 ADD DUP1 PUSH1 0x40 MSTORE POP DUP2 ADD SWAP1 PUSH2 0xB56 SWAP2 SWAP1 PUSH2 0xD0C JUMP JUMPDEST DUP2 MSTORE PUSH1 0x20 ADD PUSH2 0xB67 PUSH2 0x16D DUP5 PUSH2 0xCA1 JUMP JUMPDEST SWAP1 MSTORE DUP1 MLOAD PUSH1 0x5 SSTORE PUSH1 0x20 DUP2 ADD MLOAD PUSH1 0x6 SSTORE PUSH1 0x40 DUP1 DUP3 ADD MLOAD PUSH1 0x7 SSTORE PUSH1 0x60 DUP3 ADD MLOAD PUSH1 0x8 SSTORE PUSH1 0x80 DUP3 ADD MLOAD PUSH1 0x9 SSTORE PUSH1 0xA0 SWAP1 SWAP2 ADD MLOAD PUSH1 0xA SSTORE MLOAD PUSH32 0xD158BC741F8E3A33B9B78D4ED2F2C350155079E60D921E78370383AB3588EED SWAP1 PUSH2 0xBCA SWAP1 DUP5 SWAP1 DUP9 SWAP1 DUP8 SWAP1 PUSH2 0xE79 JUMP JUMPDEST PUSH1 0x40 MLOAD DUP1 SWAP2 SUB SWAP1 LOG1 POP POP POP POP POP JUMP JUMPDEST PUSH1 0x0 DUP1 PUSH1 0x40 DUP4 DUP6 SUB SLT ISZERO PUSH2 0xBEC JUMPI PUSH1 0x0 DUP1 REVERT JUMPDEST POP POP DUP1 CALLDATALOAD SWAP3 PUSH1 0x20 SWAP1 SWAP2 ADD CALLDATALOAD SWAP2 POP JUMP JUMPDEST PUSH1 0x0 PUSH1 0x20 DUP3 DUP5 SUB SLT ISZERO PUSH2 0xC0D JUMPI PUSH1 0x0 DUP1 REVERT JUMPDEST POP CALLDATALOAD SWAP2 SWAP1 POP JUMP JUMPDEST DUP1 ISZERO ISZERO DUP2 EQ PUSH2 0x663 JUMPI PUSH1 0x0 DUP1 REVERT JUMPDEST PUSH1 0x0 DUP1 PUSH1 0x40 DUP4 DUP6 SUB SLT ISZERO PUSH2 0xC35 JUMPI PUSH1 0x0 DUP1 REVERT JUMPDEST DUP3 CALLDATALOAD SWAP2 POP PUSH1 0x20 DUP4 ADD CALLDATALOAD PUSH2 0xC47 DUP2 PUSH2 0xC14 JUMP JUMPDEST DUP1 SWAP2 POP POP SWAP3 POP SWAP3 SWAP1 POP JUMP JUMPDEST PUSH1 0x1 PUSH1 0x1 PUSH1 0xA0 SHL SUB DUP2 AND DUP2 EQ PUSH2 0x663 JUMPI PUSH1 0x0 DUP1 REVERT JUMPDEST PUSH1 0x0 PUSH1 0x20 DUP3 DUP5 SUB SLT ISZERO PUSH2 0xC79 JUMPI PUSH1 0x0 DUP1 REVERT JUMPDEST DUP2 CALLDATALOAD PUSH2 0xC84 DUP2 PUSH2 0xC52 JUMP JUMPDEST SWAP4 SWAP3 POP POP POP JUMP JUMPDEST PUSH4 0x4E487B71 PUSH1 0xE0 SHL PUSH1 0x0 MSTORE PUSH1 0x11 PUSH1 0x4 MSTORE PUSH1 0x24 PUSH1 0x0 REVERT JUMPDEST PUSH1 0x0 DUP3 PUSH2 0xCBE JUMPI PUSH4 0x4E487B71 PUSH1 0xE0 SHL PUSH1 0x0 MSTORE PUSH1 0x12 PUSH1 0x4 MSTORE PUSH1 0x24 PUSH1 0x0 REVERT JUMPDEST POP DIV SWAP1 JUMP JUMPDEST DUP1 DUP3 ADD DUP1 DUP3 GT ISZERO PUSH2 0xCD6 JUMPI PUSH2 0xCD6 PUSH2 0xC8B JUMP JUMPDEST SWAP3 SWAP2 POP POP JUMP JUMPDEST DUP2 DUP2 SUB DUP2 DUP2 GT ISZERO PUSH2 0xCD6 JUMPI PUSH2 0xCD6 PUSH2 0xC8B JUMP JUMPDEST PUSH1 0x0 PUSH1 0x20 DUP3 DUP5 SUB SLT ISZERO PUSH2 0xD01 JUMPI PUSH1 0x0 DUP1 REVERT JUMPDEST DUP2 MLOAD PUSH2 0xC84 DUP2 PUSH2 0xC52 JUMP JUMPDEST PUSH1 0x0 PUSH1 0x20 DUP3 DUP5 SUB SLT ISZERO PUSH2 0xD1E JUMPI PUSH1 0x0 DUP1 REVERT JUMPDEST POP MLOAD SWAP2 SWAP1 POP JUMP JUMPDEST PUSH4 0x4E487B71 PUSH1 0xE0 SHL PUSH1 0x0 MSTORE PUSH1 0x41 PUSH1 0x4 MSTORE PUSH1 0x24 PUSH1 0x0 REVERT JUMPDEST PUSH1 0x0 JUMPDEST DUP4 DUP2 LT ISZERO PUSH2 0xD56 JUMPI DUP2 DUP2 ADD MLOAD DUP4 DUP3 ADD MSTORE PUSH1 0x20 ADD PUSH2 0xD3E JUMP JUMPDEST POP POP PUSH1 0x0 SWAP2 ADD MSTORE JUMP JUMPDEST DUP1 MLOAD PUSH1 0x3 DUP2 LT PUSH2 0xD6E JUMPI PUSH1 0x0 DUP1 REVERT JUMPDEST SWAP2 SWAP1 POP JUMP JUMPDEST DUP1 MLOAD PUSH2 0xD6E DUP2 PUSH2 0xC14 JUMP JUMPDEST PUSH1 0x0 DUP1 PUSH1 0x0 DUP1 PUSH1 0x0 PUSH1 0xA0 DUP7 DUP9 SUB SLT ISZERO PUSH2 0xD96 JUMPI PUSH1 0x0 DUP1 REVERT JUMPDEST DUP6 MLOAD PUSH8 0xFFFFFFFFFFFFFFFF DUP1 DUP3 GT ISZERO PUSH2 0xDAE JUMPI PUSH1 0x0 DUP1 REVERT JUMPDEST DUP2 DUP9 ADD SWAP2 POP DUP9 PUSH1 0x1F DUP4 ADD SLT PUSH2 0xDC2 JUMPI PUSH1 0x0 DUP1 REVERT JUMPDEST DUP2 MLOAD DUP2 DUP2 GT ISZERO PUSH2 0xDD4 JUMPI PUSH2 0xDD4 PUSH2 0xD25 JUMP JUMPDEST PUSH1 0x40 MLOAD PUSH1 0x1F DUP3 ADD PUSH1 0x1F NOT SWAP1 DUP2 AND PUSH1 0x3F ADD AND DUP2 ADD SWAP1 DUP4 DUP3 GT DUP2 DUP4 LT OR ISZERO PUSH2 0xDFC JUMPI PUSH2 0xDFC PUSH2 0xD25 JUMP JUMPDEST DUP2 PUSH1 0x40 MSTORE DUP3 DUP2 MSTORE DUP12 PUSH1 0x20 DUP5 DUP8 ADD ADD GT ISZERO PUSH2 0xE15 JUMPI PUSH1 0x0 DUP1 REVERT JUMPDEST PUSH2 0xE26 DUP4 PUSH1 0x20 DUP4 ADD PUSH1 0x20 DUP9 ADD PUSH2 0xD3B JUMP JUMPDEST DUP1 SWAP10 POP POP POP POP POP POP PUSH2 0xE3A PUSH1 0x20 DUP8 ADD PUSH2 0xD5F JUMP JUMPDEST SWAP4 POP PUSH1 0x40 DUP7 ADD MLOAD SWAP3 POP PUSH1 0x60 DUP7 ADD MLOAD SWAP2 POP PUSH2 0xE56 PUSH1 0x80 DUP8 ADD PUSH2 0xD73 JUMP JUMPDEST SWAP1 POP SWAP3 SWAP6 POP SWAP3 SWAP6 SWAP1 SWAP4 POP JUMP JUMPDEST DUP1 DUP3 MUL DUP2 ISZERO DUP3 DUP3 DIV DUP5 EQ OR PUSH2 0xCD6 JUMPI PUSH2 0xCD6 PUSH2 0xC8B JUMP JUMPDEST DUP4 DUP2 MSTORE PUSH1 0x60 PUSH1 0x20 DUP3 ADD MSTORE PUSH1 0x0 DUP4 MLOAD DUP1 PUSH1 0x60 DUP5 ADD MSTORE PUSH2 0xE9E DUP2 PUSH1 0x80 DUP6 ADD PUSH1 0x20 DUP9 ADD PUSH2 0xD3B JUMP JUMPDEST PUSH1 0x40 DUP4 ADD SWAP4 SWAP1 SWAP4 MSTORE POP PUSH1 0x1F SWAP2 SWAP1 SWAP2 ADD PUSH1 0x1F NOT AND ADD PUSH1 0x80 ADD SWAP3 SWAP2 POP POP JUMP INVALID LOG2 PUSH5 0x6970667358 0x22 SLT KECCAK256 NOT 0xE 0x2F 0xD9 ADDRESS CALL STATICCALL 0x49 SWAP9 DUP5 DUP15 RETURNDATASIZE 0x49 BASEFEE BYTE DUP16 0xE3 POP SSTORE MSIZE 0xD4 0xC5 DIV LOG0 0xE9 SWAP6 CALLER MLOAD 0xE0 GT ORIGIN 0xEF PUSH5 0x736F6C6343 STOP ADDMOD EQ STOP CALLER "},"methodIdentifiers":{"NODE_GROWTH_TRIGGER()":"684ce2ce","SECONDS_IN_YEAR()":"5dcc9391","TOTAL_MINING_SUPPLY()":"c230781f","burnedSupply()":"55d0a1d0","calculateDailyReward(uint256)":"d0deef99","checkAndTriggerHalving()":"b968798e","claimReward(uint256)":"ae169a50","currentStageInfo()":"186ba7f1","dailyOperatingRates(uint256,uint256)":"f0fe5bed","lastClaimTime(uint256)":"877dab7e","nodeLicense()":"0087b0d4","oracleAddress()":"a89ae4ba","owner()":"8da5cb5b","renounceOwnership()":"715018a6","submitDailyAOR(uint256,uint256)":"222a4802","totalNetworkHashPower()":"b11bc6f7","transferOwnership(address)":"f2fde38b","updateNetworkHash(uint256,bool)":"8ceb1dba","vcnToken()":"7cbcfb39"}}}}}