{
  "_format": "hh-sol-artifact-1",
  "contractName": "VisionBridgeNative",
  "sourceName": "contracts/VisionBridgeNative.sol",
  "abi": [
    {
      "inputs": [
        {
          "internalType": "address[]",
          "name": "_relayers",
          "type": "address[]"
        },
        {
          "internalType": "uint256",
          "name": "_requiredSignatures",
          "type": "uint256"
        }
      ],
      "stateMutability": "nonpayable",
      "type": "constructor"
    },
    {
      "anonymous": false,
      "inputs": [
        {
          "indexed": false,
          "internalType": "uint256",
          "name": "minAmount",
          "type": "uint256"
        },
        {
          "indexed": false,
          "internalType": "uint256",
          "name": "maxAmount",
          "type": "uint256"
        },
        {
          "indexed": false,
          "internalType": "uint256",
          "name": "dailyLimit",
          "type": "uint256"
        }
      ],
      "name": "LimitsUpdated",
      "type": "event"
    },
    {
      "anonymous": false,
      "inputs": [
        {
          "indexed": true,
          "internalType": "address",
          "name": "previousOwner",
          "type": "address"
        },
        {
          "indexed": true,
          "internalType": "address",
          "name": "newOwner",
          "type": "address"
        }
      ],
      "name": "OwnershipTransferred",
      "type": "event"
    },
    {
      "anonymous": false,
      "inputs": [
        {
          "indexed": false,
          "internalType": "address",
          "name": "account",
          "type": "address"
        }
      ],
      "name": "Paused",
      "type": "event"
    },
    {
      "anonymous": false,
      "inputs": [
        {
          "indexed": true,
          "internalType": "address",
          "name": "relayer",
          "type": "address"
        }
      ],
      "name": "RelayerAdded",
      "type": "event"
    },
    {
      "anonymous": false,
      "inputs": [
        {
          "indexed": true,
          "internalType": "address",
          "name": "relayer",
          "type": "address"
        }
      ],
      "name": "RelayerRemoved",
      "type": "event"
    },
    {
      "anonymous": false,
      "inputs": [
        {
          "indexed": false,
          "internalType": "address",
          "name": "account",
          "type": "address"
        }
      ],
      "name": "Unpaused",
      "type": "event"
    },
    {
      "anonymous": false,
      "inputs": [
        {
          "indexed": true,
          "internalType": "address",
          "name": "sender",
          "type": "address"
        },
        {
          "indexed": true,
          "internalType": "address",
          "name": "recipient",
          "type": "address"
        },
        {
          "indexed": false,
          "internalType": "uint256",
          "name": "amount",
          "type": "uint256"
        },
        {
          "indexed": false,
          "internalType": "uint256",
          "name": "nonce",
          "type": "uint256"
        },
        {
          "indexed": false,
          "internalType": "uint256",
          "name": "destinationChainId",
          "type": "uint256"
        },
        {
          "indexed": false,
          "internalType": "uint256",
          "name": "timestamp",
          "type": "uint256"
        }
      ],
      "name": "VCNLocked",
      "type": "event"
    },
    {
      "anonymous": false,
      "inputs": [
        {
          "indexed": true,
          "internalType": "address",
          "name": "recipient",
          "type": "address"
        },
        {
          "indexed": false,
          "internalType": "uint256",
          "name": "amount",
          "type": "uint256"
        },
        {
          "indexed": true,
          "internalType": "bytes32",
          "name": "sourceTransactionHash",
          "type": "bytes32"
        },
        {
          "indexed": false,
          "internalType": "uint256",
          "name": "sourceChainId",
          "type": "uint256"
        }
      ],
      "name": "VCNUnlocked",
      "type": "event"
    },
    {
      "inputs": [],
      "name": "SEPOLIA_CHAIN_ID",
      "outputs": [
        {
          "internalType": "uint256",
          "name": "",
          "type": "uint256"
        }
      ],
      "stateMutability": "view",
      "type": "function"
    },
    {
      "inputs": [
        {
          "internalType": "address",
          "name": "relayer",
          "type": "address"
        }
      ],
      "name": "addRelayer",
      "outputs": [],
      "stateMutability": "nonpayable",
      "type": "function"
    },
    {
      "inputs": [],
      "name": "currentDayVolume",
      "outputs": [
        {
          "internalType": "uint256",
          "name": "",
          "type": "uint256"
        }
      ],
      "stateMutability": "view",
      "type": "function"
    },
    {
      "inputs": [],
      "name": "dailyLimit",
      "outputs": [
        {
          "internalType": "uint256",
          "name": "",
          "type": "uint256"
        }
      ],
      "stateMutability": "view",
      "type": "function"
    },
    {
      "inputs": [
        {
          "internalType": "address",
          "name": "to",
          "type": "address"
        }
      ],
      "name": "emergencyWithdraw",
      "outputs": [],
      "stateMutability": "nonpayable",
      "type": "function"
    },
    {
      "inputs": [],
      "name": "getBridgeBalance",
      "outputs": [
        {
          "internalType": "uint256",
          "name": "",
          "type": "uint256"
        }
      ],
      "stateMutability": "view",
      "type": "function"
    },
    {
      "inputs": [],
      "name": "getRemainingDailyLimit",
      "outputs": [
        {
          "internalType": "uint256",
          "name": "",
          "type": "uint256"
        }
      ],
      "stateMutability": "view",
      "type": "function"
    },
    {
      "inputs": [],
      "name": "lastDayReset",
      "outputs": [
        {
          "internalType": "uint256",
          "name": "",
          "type": "uint256"
        }
      ],
      "stateMutability": "view",
      "type": "function"
    },
    {
      "inputs": [],
      "name": "lockNonce",
      "outputs": [
        {
          "internalType": "uint256",
          "name": "",
          "type": "uint256"
        }
      ],
      "stateMutability": "view",
      "type": "function"
    },
    {
      "inputs": [
        {
          "internalType": "address",
          "name": "recipient",
          "type": "address"
        }
      ],
      "name": "lockVCN",
      "outputs": [],
      "stateMutability": "payable",
      "type": "function"
    },
    {
      "inputs": [],
      "name": "maxBridgeAmount",
      "outputs": [
        {
          "internalType": "uint256",
          "name": "",
          "type": "uint256"
        }
      ],
      "stateMutability": "view",
      "type": "function"
    },
    {
      "inputs": [],
      "name": "minBridgeAmount",
      "outputs": [
        {
          "internalType": "uint256",
          "name": "",
          "type": "uint256"
        }
      ],
      "stateMutability": "view",
      "type": "function"
    },
    {
      "inputs": [],
      "name": "owner",
      "outputs": [
        {
          "internalType": "address",
          "name": "",
          "type": "address"
        }
      ],
      "stateMutability": "view",
      "type": "function"
    },
    {
      "inputs": [],
      "name": "pause",
      "outputs": [],
      "stateMutability": "nonpayable",
      "type": "function"
    },
    {
      "inputs": [],
      "name": "paused",
      "outputs": [
        {
          "internalType": "bool",
          "name": "",
          "type": "bool"
        }
      ],
      "stateMutability": "view",
      "type": "function"
    },
    {
      "inputs": [
        {
          "internalType": "bytes32",
          "name": "",
          "type": "bytes32"
        }
      ],
      "name": "processedTxs",
      "outputs": [
        {
          "internalType": "bool",
          "name": "",
          "type": "bool"
        }
      ],
      "stateMutability": "view",
      "type": "function"
    },
    {
      "inputs": [],
      "name": "relayerCount",
      "outputs": [
        {
          "internalType": "uint256",
          "name": "",
          "type": "uint256"
        }
      ],
      "stateMutability": "view",
      "type": "function"
    },
    {
      "inputs": [
        {
          "internalType": "address",
          "name": "",
          "type": "address"
        }
      ],
      "name": "relayers",
      "outputs": [
        {
          "internalType": "bool",
          "name": "",
          "type": "bool"
        }
      ],
      "stateMutability": "view",
      "type": "function"
    },
    {
      "inputs": [
        {
          "internalType": "address",
          "name": "relayer",
          "type": "address"
        }
      ],
      "name": "removeRelayer",
      "outputs": [],
      "stateMutability": "nonpayable",
      "type": "function"
    },
    {
      "inputs": [],
      "name": "renounceOwnership",
      "outputs": [],
      "stateMutability": "nonpayable",
      "type": "function"
    },
    {
      "inputs": [],
      "name": "requiredSignatures",
      "outputs": [
        {
          "internalType": "uint256",
          "name": "",
          "type": "uint256"
        }
      ],
      "stateMutability": "view",
      "type": "function"
    },
    {
      "inputs": [
        {
          "internalType": "uint256",
          "name": "_minAmount",
          "type": "uint256"
        },
        {
          "internalType": "uint256",
          "name": "_maxAmount",
          "type": "uint256"
        },
        {
          "internalType": "uint256",
          "name": "_dailyLimit",
          "type": "uint256"
        }
      ],
      "name": "setLimits",
      "outputs": [],
      "stateMutability": "nonpayable",
      "type": "function"
    },
    {
      "inputs": [
        {
          "internalType": "address",
          "name": "newOwner",
          "type": "address"
        }
      ],
      "name": "transferOwnership",
      "outputs": [],
      "stateMutability": "nonpayable",
      "type": "function"
    },
    {
      "inputs": [
        {
          "internalType": "address",
          "name": "recipient",
          "type": "address"
        },
        {
          "internalType": "uint256",
          "name": "amount",
          "type": "uint256"
        },
        {
          "internalType": "bytes32",
          "name": "sourceTransactionHash",
          "type": "bytes32"
        },
        {
          "internalType": "bytes[]",
          "name": "signatures",
          "type": "bytes[]"
        }
      ],
      "name": "unlockVCN",
      "outputs": [],
      "stateMutability": "nonpayable",
      "type": "function"
    },
    {
      "inputs": [],
      "name": "unpause",
      "outputs": [],
      "stateMutability": "nonpayable",
      "type": "function"
    },
    {
      "stateMutability": "payable",
      "type": "receive"
    }
  ],
  "bytecode": "0x6080604052670de0b6b3a764000060085569d3c21bcecceda10000006009556a084595161401484a000000600a553480156200003a57600080fd5b5060405162001818380380620018188339810160408190526200005d9162000224565b6200006833620001a1565b600180556002805460ff191690558151811115620000cd5760405162461bcd60e51b815260206004820152601360248201527f4e6f7420656e6f7567682072656c61796572730000000000000000000000000060448201526064015b60405180910390fd5b600081116200011f5760405162461bcd60e51b815260206004820152601960248201527f4e656564206174206c656173742031207369676e6174757265000000000000006044820152606401620000c4565b60005b82518110156200018e57600160036000858481518110620001475762000147620002fe565b6020908102919091018101516001600160a01b03168252810191909152604001600020805460ff191691151591909117905580620001858162000314565b91505062000122565b50905160045560055542600c556200033c565b600080546001600160a01b038381166001600160a01b0319831681178455604051919092169283917f8be0079c531659141344cd1fd0a4f28419497f9722a3daafe3b4186f6b6457e09190a35050565b634e487b7160e01b600052604160045260246000fd5b80516001600160a01b03811681146200021f57600080fd5b919050565b600080604083850312156200023857600080fd5b82516001600160401b03808211156200025057600080fd5b818501915085601f8301126200026557600080fd5b81516020828211156200027c576200027c620001f1565b8160051b604051601f19603f83011681018181108682111715620002a457620002a4620001f1565b604052928352818301935084810182019289841115620002c357600080fd5b948201945b83861015620002ec57620002dc8662000207565b85529482019493820193620002c8565b97909101519698969750505050505050565b634e487b7160e01b600052603260045260246000fd5b6000600182016200033557634e487b7160e01b600052601160045260246000fd5b5060010190565b6114cc806200034c6000396000f3fe60806040526004361061016a5760003560e01c80638da5cb5b116100d1578063b5a9096e1161008a578063d9441e7b11610064578063d9441e7b146103c9578063dd39f00d146103e9578063f0bc86de14610409578063f2fde38b1461041c57600080fd5b8063b5a9096e14610387578063c3c224751461039d578063cf1a7a21146103b357600080fd5b80638da5cb5b146102d75780639db1e605146102ff5780639e16f21714610316578063a15f39e814610346578063ab166a111461035b578063b1b60c531461037157600080fd5b806360f0a5ac1161012357806360f0a5ac1461024157806367eeba0c146102615780636ff1c9bc14610277578063715018a6146102975780638456cb59146102ac5780638d068043146102c157600080fd5b8063189ae5f2146101765780632384fa87146101985780633f4ba83a146101ab5780635300f841146101c05780635c975abb1461020557806360132c9c1461021d57600080fd5b3661017157005b600080fd5b34801561018257600080fd5b5061019661019136600461127d565b61043c565b005b6101966101a63660046112c5565b610499565b3480156101b757600080fd5b506101966106a1565b3480156101cc57600080fd5b506101f06101db3660046112c5565b60036020526000908152604090205460ff1681565b60405190151581526020015b60405180910390f35b34801561021157600080fd5b5060025460ff166101f0565b34801561022957600080fd5b5061023360095481565b6040519081526020016101fc565b34801561024d57600080fd5b5061019661025c3660046112c5565b6106b3565b34801561026d57600080fd5b50610233600a5481565b34801561028357600080fd5b506101966102923660046112c5565b6107d0565b3480156102a357600080fd5b506101966108b4565b3480156102b857600080fd5b506101966108c6565b3480156102cd57600080fd5b5061023360055481565b3480156102e357600080fd5b506000546040516001600160a01b0390911681526020016101fc565b34801561030b57600080fd5b5061023362aa36a781565b34801561032257600080fd5b506101f06103313660046112e7565b60066020526000908152604090205460ff1681565b34801561035257600080fd5b506102336108d6565b34801561036757600080fd5b50610233600b5481565b34801561037d57600080fd5b50610233600c5481565b34801561039357600080fd5b5061023360075481565b3480156103a957600080fd5b5061023360085481565b3480156103bf57600080fd5b5061023360045481565b3480156103d557600080fd5b506101966103e4366004611300565b61091c565b3480156103f557600080fd5b506101966104043660046112c5565b610e2f565b34801561041557600080fd5b5047610233565b34801561042857600080fd5b506101966104373660046112c5565b610f01565b610444610f77565b60088390556009829055600a81905560408051848152602081018490529081018290527faa2ef8ba434f2f6bdaad3fcc2d5c35f02b08a47173c94877259407614bc46b559060600160405180910390a1505050565b6104a1610fd1565b6104a961102a565b6008543410156105005760405162461bcd60e51b815260206004820152601b60248201527f42656c6f77206d696e696d756d2062726964676520616d6f756e74000000000060448201526064015b60405180910390fd5b6009543411156105525760405162461bcd60e51b815260206004820152601d60248201527f45786365656473206d6178696d756d2062726964676520616d6f756e7400000060448201526064016104f7565b6001600160a01b03811661059c5760405162461bcd60e51b8152602060048201526011602482015270125b9d985b1a59081c9958da5c1a595b9d607a1b60448201526064016104f7565b600c546105ac90620151806113ad565b42106105bc576000600b5542600c555b600a5434600b546105cd91906113ad565b11156106125760405162461bcd60e51b815260206004820152601460248201527311185a5b1e481b1a5b5a5d08195e18d95959195960621b60448201526064016104f7565b34600b600082825461062491906113ad565b909155505060078054906000610639836113c0565b909155505060075460408051348152602081019290925262aa36a782820152426060830152516001600160a01b0383169133917e8e5182391af6218dd1f2522fa48aeda9795690474c75141da257dceac4292d9181900360800190a361069e60018055565b50565b6106a9610f77565b6106b1611070565b565b6106bb610f77565b6001600160a01b03811660009081526003602052604090205460ff166107135760405162461bcd60e51b815260206004820152600d60248201526c2737ba1030903932b630bcb2b960991b60448201526064016104f7565b600554600454116107665760405162461bcd60e51b815260206004820152601f60248201527f43616e6e6f742072656d6f76653a20746f6f206665772072656c61796572730060448201526064016104f7565b6001600160a01b0381166000908152600360205260408120805460ff191690556004805491610794836113d9565b90915550506040516001600160a01b038216907f10e1f7ce9fd7d1b90a66d13a2ab3cb8dd7f29f3f8d520b143b063ccfbab6906b90600090a250565b6107d8610f77565b60025460ff1661081b5760405162461bcd60e51b815260206004820152600e60248201526d135d5cdd081899481c185d5cd95960921b60448201526064016104f7565b6000816001600160a01b03164760405160006040518083038185875af1925050503d8060008114610868576040519150601f19603f3d011682016040523d82523d6000602084013e61086d565b606091505b50509050806108b05760405162461bcd60e51b815260206004820152600f60248201526e15da5d1a191c985dc819985a5b1959608a1b60448201526064016104f7565b5050565b6108bc610f77565b6106b160006110c2565b6108ce610f77565b6106b1611112565b6000600c54620151806108e991906113ad565b42106108f65750600a5490565b600b54600a54116109075750600090565b600b54600a5461091791906113f0565b905090565b610924610fd1565b61092c61102a565b60008381526006602052604090205460ff161561097f5760405162461bcd60e51b8152602060048201526011602482015270105b1c9958591e481c1c9bd8d95cdcd959607a1b60448201526064016104f7565b6001600160a01b0385166109c95760405162461bcd60e51b8152602060048201526011602482015270125b9d985b1a59081c9958da5c1a595b9d607a1b60448201526064016104f7565b60008411610a0a5760405162461bcd60e51b815260206004820152600e60248201526d125b9d985b1a5908185b5bdd5b9d60921b60448201526064016104f7565b83471015610a5a5760405162461bcd60e51b815260206004820152601b60248201527f496e73756666696369656e74206272696467652062616c616e6365000000000060448201526064016104f7565b600554811015610aa45760405162461bcd60e51b81526020600482015260156024820152744e6f7420656e6f756768207369676e61747572657360581b60448201526064016104f7565b6040516bffffffffffffffffffffffff19606087901b1660208201526034810185905260548101849052466074820152600090609401604051602081830303815290604052805190602001209050600081604051602001610b3191907f19457468657265756d205369676e6564204d6573736167653a0a3332000000008152601c810191909152603c0190565b60408051601f19818403018152919052805160209091012090506000808467ffffffffffffffff811115610b6757610b67611403565b604051908082528060200260200182016040528015610b90578160200160208202803683370190505b50905060005b85811015610cd3576000610c0285898985818110610bb657610bb6611419565b9050602002810190610bc8919061142f565b8080601f01602080910402602001604051908101604052809392919081815260200183838082843760009201919091525061114f92505050565b6001600160a01b03811660009081526003602052604090205490915060ff1615610cc0576000805b83811015610c7f57826001600160a01b0316858281518110610c4e57610c4e611419565b60200260200101516001600160a01b031603610c6d5760019150610c7f565b80610c77816113c0565b915050610c2a565b5080610cbe5781848481518110610c9857610c98611419565b6001600160a01b039092166020928302919091019091015284610cba816113c0565b9550505b505b5080610ccb816113c0565b915050610b96565b50600554821015610d265760405162461bcd60e51b815260206004820152601d60248201527f496e73756666696369656e742076616c6964207369676e61747572657300000060448201526064016104f7565b600087815260066020526040808220805460ff19166001179055516001600160a01b038b16908a908381818185875af1925050503d8060008114610d86576040519150601f19603f3d011682016040523d82523d6000602084013e610d8b565b606091505b5050905080610dd25760405162461bcd60e51b81526020600482015260136024820152721590d3881d1c985b9cd9995c8819985a5b1959606a1b60448201526064016104f7565b604080518a815262aa36a7602082015289916001600160a01b038d16917f1d89e43dc085b9e9458cf17d954fbd8ceb6c2ffc43d7c1872e4bcc207f9dc6f1910160405180910390a35050505050610e2860018055565b5050505050565b610e37610f77565b6001600160a01b03811660009081526003602052604090205460ff1615610e945760405162461bcd60e51b815260206004820152601160248201527020b63932b0b23c9030903932b630bcb2b960791b60448201526064016104f7565b6001600160a01b0381166000908152600360205260408120805460ff191660011790556004805491610ec5836113c0565b90915550506040516001600160a01b038216907f03580ee9f53a62b7cb409a2cb56f9be87747dd15017afc5cef6eef321e4fb2c590600090a250565b610f09610f77565b6001600160a01b038116610f6e5760405162461bcd60e51b815260206004820152602660248201527f4f776e61626c653a206e6577206f776e657220697320746865207a65726f206160448201526564647265737360d01b60648201526084016104f7565b61069e816110c2565b6000546001600160a01b031633146106b15760405162461bcd60e51b815260206004820181905260248201527f4f776e61626c653a2063616c6c6572206973206e6f7420746865206f776e657260448201526064016104f7565b6002600154036110235760405162461bcd60e51b815260206004820152601f60248201527f5265656e7472616e637947756172643a207265656e7472616e742063616c6c0060448201526064016104f7565b6002600155565b60025460ff16156106b15760405162461bcd60e51b815260206004820152601060248201526f14185d5cd8589b194e881c185d5cd95960821b60448201526064016104f7565b611078611234565b6002805460ff191690557f5db9ee0a495bf2e6ff9c91a7834c1ba4fdd244a5e8aa4e537bd38aeae4b073aa335b6040516001600160a01b03909116815260200160405180910390a1565b600080546001600160a01b038381166001600160a01b0319831681178455604051919092169283917f8be0079c531659141344cd1fd0a4f28419497f9722a3daafe3b4186f6b6457e09190a35050565b61111a61102a565b6002805460ff191660011790557f62e78cea01bee320cd4e420270b5ea74000d11b0c9f74754ebdbfc544b05a2586110a53390565b600081516041146111a25760405162461bcd60e51b815260206004820152601860248201527f496e76616c6964207369676e6174757265206c656e677468000000000000000060448201526064016104f7565b60208201516040830151606084015160001a601b8110156111cb576111c8601b8261147d565b90505b60408051600081526020810180835288905260ff831691810191909152606081018490526080810183905260019060a0016020604051602081039080840390855afa15801561121e573d6000803e3d6000fd5b5050506020604051035193505050505b92915050565b60025460ff166106b15760405162461bcd60e51b815260206004820152601460248201527314185d5cd8589b194e881b9bdd081c185d5cd95960621b60448201526064016104f7565b60008060006060848603121561129257600080fd5b505081359360208301359350604090920135919050565b80356001600160a01b03811681146112c057600080fd5b919050565b6000602082840312156112d757600080fd5b6112e0826112a9565b9392505050565b6000602082840312156112f957600080fd5b5035919050565b60008060008060006080868803121561131857600080fd5b611321866112a9565b94506020860135935060408601359250606086013567ffffffffffffffff8082111561134c57600080fd5b818801915088601f83011261136057600080fd5b81358181111561136f57600080fd5b8960208260051b850101111561138457600080fd5b9699959850939650602001949392505050565b634e487b7160e01b600052601160045260246000fd5b8082018082111561122e5761122e611397565b6000600182016113d2576113d2611397565b5060010190565b6000816113e8576113e8611397565b506000190190565b8181038181111561122e5761122e611397565b634e487b7160e01b600052604160045260246000fd5b634e487b7160e01b600052603260045260246000fd5b6000808335601e1984360301811261144657600080fd5b83018035915067ffffffffffffffff82111561146157600080fd5b60200191503681900382131561147657600080fd5b9250929050565b60ff818116838216019081111561122e5761122e61139756fea264697066735822122038a924009d4789af288bddfdf68684e2cd9d486e8f28d896fb9c555a4a05323064736f6c63430008140033",
  "linkReferences": {},
  "deployedLinkReferences": {}
}