{
  "_format": "hh-sol-artifact-1",
  "contractName": "VisionVault",
  "sourceName": "contracts/interop/VisionVault.sol",
  "abi": [
    {
      "inputs": [
        {
          "internalType": "address",
          "name": "_tokenAddress",
          "type": "address"
        },
        {
          "internalType": "uint256",
          "name": "_chainId",
          "type": "uint256"
        }
      ],
      "stateMutability": "nonpayable",
      "type": "constructor"
    },
    {
      "anonymous": false,
      "inputs": [
        {
          "indexed": true,
          "internalType": "address",
          "name": "user",
          "type": "address"
        },
        {
          "indexed": false,
          "internalType": "uint256",
          "name": "amount",
          "type": "uint256"
        },
        {
          "indexed": false,
          "internalType": "uint256",
          "name": "destinationChainId",
          "type": "uint256"
        },
        {
          "indexed": false,
          "internalType": "uint256",
          "name": "timestamp",
          "type": "uint256"
        }
      ],
      "name": "LiquidityLocked",
      "type": "event"
    },
    {
      "anonymous": false,
      "inputs": [
        {
          "indexed": true,
          "internalType": "address",
          "name": "user",
          "type": "address"
        },
        {
          "indexed": false,
          "internalType": "uint256",
          "name": "amount",
          "type": "uint256"
        },
        {
          "indexed": false,
          "internalType": "uint256",
          "name": "fromChainId",
          "type": "uint256"
        }
      ],
      "name": "LiquidityReleased",
      "type": "event"
    },
    {
      "anonymous": false,
      "inputs": [
        {
          "indexed": true,
          "internalType": "bytes32",
          "name": "role",
          "type": "bytes32"
        },
        {
          "indexed": true,
          "internalType": "bytes32",
          "name": "previousAdminRole",
          "type": "bytes32"
        },
        {
          "indexed": true,
          "internalType": "bytes32",
          "name": "newAdminRole",
          "type": "bytes32"
        }
      ],
      "name": "RoleAdminChanged",
      "type": "event"
    },
    {
      "anonymous": false,
      "inputs": [
        {
          "indexed": true,
          "internalType": "bytes32",
          "name": "role",
          "type": "bytes32"
        },
        {
          "indexed": true,
          "internalType": "address",
          "name": "account",
          "type": "address"
        },
        {
          "indexed": true,
          "internalType": "address",
          "name": "sender",
          "type": "address"
        }
      ],
      "name": "RoleGranted",
      "type": "event"
    },
    {
      "anonymous": false,
      "inputs": [
        {
          "indexed": true,
          "internalType": "bytes32",
          "name": "role",
          "type": "bytes32"
        },
        {
          "indexed": true,
          "internalType": "address",
          "name": "account",
          "type": "address"
        },
        {
          "indexed": true,
          "internalType": "address",
          "name": "sender",
          "type": "address"
        }
      ],
      "name": "RoleRevoked",
      "type": "event"
    },
    {
      "inputs": [],
      "name": "DEFAULT_ADMIN_ROLE",
      "outputs": [
        {
          "internalType": "bytes32",
          "name": "",
          "type": "bytes32"
        }
      ],
      "stateMutability": "view",
      "type": "function"
    },
    {
      "inputs": [],
      "name": "VALIDATOR_ROLE",
      "outputs": [
        {
          "internalType": "bytes32",
          "name": "",
          "type": "bytes32"
        }
      ],
      "stateMutability": "view",
      "type": "function"
    },
    {
      "inputs": [],
      "name": "chainId",
      "outputs": [
        {
          "internalType": "uint256",
          "name": "",
          "type": "uint256"
        }
      ],
      "stateMutability": "view",
      "type": "function"
    },
    {
      "inputs": [
        {
          "internalType": "uint256",
          "name": "amount",
          "type": "uint256"
        },
        {
          "internalType": "uint256",
          "name": "destinationChainId",
          "type": "uint256"
        }
      ],
      "name": "depositToVision",
      "outputs": [],
      "stateMutability": "nonpayable",
      "type": "function"
    },
    {
      "inputs": [
        {
          "internalType": "bytes32",
          "name": "role",
          "type": "bytes32"
        }
      ],
      "name": "getRoleAdmin",
      "outputs": [
        {
          "internalType": "bytes32",
          "name": "",
          "type": "bytes32"
        }
      ],
      "stateMutability": "view",
      "type": "function"
    },
    {
      "inputs": [
        {
          "internalType": "bytes32",
          "name": "role",
          "type": "bytes32"
        },
        {
          "internalType": "address",
          "name": "account",
          "type": "address"
        }
      ],
      "name": "grantRole",
      "outputs": [],
      "stateMutability": "nonpayable",
      "type": "function"
    },
    {
      "inputs": [
        {
          "internalType": "bytes32",
          "name": "role",
          "type": "bytes32"
        },
        {
          "internalType": "address",
          "name": "account",
          "type": "address"
        }
      ],
      "name": "hasRole",
      "outputs": [
        {
          "internalType": "bool",
          "name": "",
          "type": "bool"
        }
      ],
      "stateMutability": "view",
      "type": "function"
    },
    {
      "inputs": [
        {
          "internalType": "bytes32",
          "name": "",
          "type": "bytes32"
        }
      ],
      "name": "processedSignatures",
      "outputs": [
        {
          "internalType": "bool",
          "name": "",
          "type": "bool"
        }
      ],
      "stateMutability": "view",
      "type": "function"
    },
    {
      "inputs": [
        {
          "internalType": "address",
          "name": "to",
          "type": "address"
        },
        {
          "internalType": "uint256",
          "name": "amount",
          "type": "uint256"
        },
        {
          "internalType": "uint256",
          "name": "fromChainId",
          "type": "uint256"
        },
        {
          "internalType": "uint256",
          "name": "nonce",
          "type": "uint256"
        },
        {
          "internalType": "bytes",
          "name": "signature",
          "type": "bytes"
        }
      ],
      "name": "releaseLiquidity",
      "outputs": [],
      "stateMutability": "nonpayable",
      "type": "function"
    },
    {
      "inputs": [
        {
          "internalType": "bytes32",
          "name": "role",
          "type": "bytes32"
        },
        {
          "internalType": "address",
          "name": "account",
          "type": "address"
        }
      ],
      "name": "renounceRole",
      "outputs": [],
      "stateMutability": "nonpayable",
      "type": "function"
    },
    {
      "inputs": [
        {
          "internalType": "bytes32",
          "name": "role",
          "type": "bytes32"
        },
        {
          "internalType": "address",
          "name": "account",
          "type": "address"
        }
      ],
      "name": "revokeRole",
      "outputs": [],
      "stateMutability": "nonpayable",
      "type": "function"
    },
    {
      "inputs": [],
      "name": "supportedToken",
      "outputs": [
        {
          "internalType": "contract IERC20",
          "name": "",
          "type": "address"
        }
      ],
      "stateMutability": "view",
      "type": "function"
    },
    {
      "inputs": [
        {
          "internalType": "bytes4",
          "name": "interfaceId",
          "type": "bytes4"
        }
      ],
      "name": "supportsInterface",
      "outputs": [
        {
          "internalType": "bool",
          "name": "",
          "type": "bool"
        }
      ],
      "stateMutability": "view",
      "type": "function"
    }
  ],
  "bytecode": "0x608060405234801561001057600080fd5b5060405161114c38038061114c83398101604081905261002f91610102565b61003a600033610063565b600180546001600160a01b0319166001600160a01b03939093169290921790915560025561013c565b6000828152602081815260408083206001600160a01b038516845290915290205460ff166100fe576000828152602081815260408083206001600160a01b03851684529091529020805460ff191660011790556100bd3390565b6001600160a01b0316816001600160a01b0316837f2f8788117e7eff1d82e926ec794901d17c78024a50270940304540a733656f0d60405160405180910390a45b5050565b6000806040838503121561011557600080fd5b82516001600160a01b038116811461012c57600080fd5b6020939093015192949293505050565b6110018061014b6000396000f3fe608060405234801561001057600080fd5b50600436106100cf5760003560e01c806391d148541161008c578063c49baebe11610066578063c49baebe146101b7578063d547741f146101de578063f3a241af146101f1578063f773abcd1461020457600080fd5b806391d14854146101935780639a8a0592146101a6578063a217fddf146101af57600080fd5b806301ffc9a7146100d45780630ee0599c146100fc578063248a9ca3146101275780632f2ff15d1461015857806336568abe1461016d578063835bbb7714610180575b600080fd5b6100e76100e2366004610cb8565b610227565b60405190151581526020015b60405180910390f35b60015461010f906001600160a01b031681565b6040516001600160a01b0390911681526020016100f3565b61014a610135366004610ce2565b60009081526020819052604090206001015490565b6040519081526020016100f3565b61016b610166366004610d17565b61025e565b005b61016b61017b366004610d17565b610288565b61016b61018e366004610d59565b61030b565b6100e76101a1366004610d17565b61056a565b61014a60025481565b61014a600081565b61014a7f21702c8af46127c7fa207f89d0b0a8441bb32959a0ac7df790e9ab1a25c9892681565b61016b6101ec366004610d17565b610593565b61016b6101ff366004610e38565b6105b8565b6100e7610212366004610ce2565b60036020526000908152604090205460ff1681565b60006001600160e01b03198216637965db0b60e01b148061025857506301ffc9a760e01b6001600160e01b03198316145b92915050565b600082815260208190526040902060010154610279816106fc565b6102838383610709565b505050565b6001600160a01b03811633146102fd5760405162461bcd60e51b815260206004820152602f60248201527f416363657373436f6e74726f6c3a2063616e206f6e6c792072656e6f756e636560448201526e103937b632b9903337b91039b2b63360891b60648201526084015b60405180910390fd5b610307828261078d565b5050565b600254604080516bffffffffffffffffffffffff19606089811b8216602080850191909152603484018a90526054840189905260748401889052609484019590955230901b1660b4820152815180820360a801815260c890910190915280519101207f19457468657265756d205369676e6564204d6573736167653a0a3332000000006000908152601c829052603c812060008181526003602052604090205490915060ff16156103f75760405162461bcd60e51b815260206004820152601660248201527514da59db985d1d5c9948185b1c9958591e481d5cd95960521b60448201526064016102f4565b61040181846107f2565b61044d5760405162461bcd60e51b815260206004820152601b60248201527f496e76616c69642056616c696461746f72205369676e6174757265000000000060448201526064016102f4565b60008181526003602052604090819020805460ff1916600190811790915554905163a9059cbb60e01b81526001600160a01b038981166004830152602482018990529091169063a9059cbb906044016020604051808303816000875af11580156104bb573d6000803e3d6000fd5b505050506040513d601f19601f820116820180604052508101906104df9190610e5a565b61051d5760405162461bcd60e51b815260206004820152600f60248201526e151c985b9cd9995c8819985a5b1959608a1b60448201526064016102f4565b60408051878152602081018790526001600160a01b038916917f7d8224ede580e66c6511d62670328cef654cf3d7d7fc73ac116cfafd8b57168f910160405180910390a250505050505050565b6000918252602082815260408084206001600160a01b0393909316845291905290205460ff1690565b6000828152602081905260409020600101546105ae816106fc565b610283838361078d565b600082116105fd5760405162461bcd60e51b81526020600482015260126024820152710416d6f756e74206d757374206265203e20360741b60448201526064016102f4565b6001546040516323b872dd60e01b8152336004820152306024820152604481018490526001600160a01b03909116906323b872dd906064016020604051808303816000875af1158015610654573d6000803e3d6000fd5b505050506040513d601f19601f820116820180604052508101906106789190610e5a565b6106b65760405162461bcd60e51b815260206004820152600f60248201526e151c985b9cd9995c8819985a5b1959608a1b60448201526064016102f4565b60408051838152602081018390524281830152905133917f9ea39a727f7dcbe0df06b8080136a42e2d5348940a79b67769d3bf944259497f919081900360600190a25050565b6107068133610833565b50565b610713828261056a565b610307576000828152602081815260408083206001600160a01b03851684529091529020805460ff191660011790556107493390565b6001600160a01b0316816001600160a01b0316837f2f8788117e7eff1d82e926ec794901d17c78024a50270940304540a733656f0d60405160405180910390a45050565b610797828261056a565b15610307576000828152602081815260408083206001600160a01b0385168085529252808320805460ff1916905551339285917ff6391f5c32d9c69d2a47ea670b442974b53935d1edc7fd64eb21e047a839171b9190a45050565b6000806107ff848461088c565b905061082b7f21702c8af46127c7fa207f89d0b0a8441bb32959a0ac7df790e9ab1a25c989268261056a565b949350505050565b61083d828261056a565b6103075761084a816108b0565b6108558360206108c2565b604051602001610866929190610ea0565b60408051601f198184030181529082905262461bcd60e51b82526102f491600401610f15565b600080600061089b8585610a65565b915091506108a881610aaa565b509392505050565b60606102586001600160a01b03831660145b606060006108d1836002610f5e565b6108dc906002610f75565b67ffffffffffffffff8111156108f4576108f4610d43565b6040519080825280601f01601f19166020018201604052801561091e576020820181803683370190505b509050600360fc1b8160008151811061093957610939610f88565b60200101906001600160f81b031916908160001a905350600f60fb1b8160018151811061096857610968610f88565b60200101906001600160f81b031916908160001a905350600061098c846002610f5e565b610997906001610f75565b90505b6001811115610a0f576f181899199a1a9b1b9c1cb0b131b232b360811b85600f16601081106109cb576109cb610f88565b1a60f81b8282815181106109e1576109e1610f88565b60200101906001600160f81b031916908160001a90535060049490941c93610a0881610f9e565b905061099a565b508315610a5e5760405162461bcd60e51b815260206004820181905260248201527f537472696e67733a20686578206c656e67746820696e73756666696369656e7460448201526064016102f4565b9392505050565b6000808251604103610a9b5760208301516040840151606085015160001a610a8f87828585610bf4565b94509450505050610aa3565b506000905060025b9250929050565b6000816004811115610abe57610abe610fb5565b03610ac65750565b6001816004811115610ada57610ada610fb5565b03610b275760405162461bcd60e51b815260206004820152601860248201527f45434453413a20696e76616c6964207369676e6174757265000000000000000060448201526064016102f4565b6002816004811115610b3b57610b3b610fb5565b03610b885760405162461bcd60e51b815260206004820152601f60248201527f45434453413a20696e76616c6964207369676e6174757265206c656e6774680060448201526064016102f4565b6003816004811115610b9c57610b9c610fb5565b036107065760405162461bcd60e51b815260206004820152602260248201527f45434453413a20696e76616c6964207369676e6174757265202773272076616c604482015261756560f01b60648201526084016102f4565b6000807f7fffffffffffffffffffffffffffffff5d576e7357a4501ddfe92f46681b20a0831115610c2b5750600090506003610caf565b6040805160008082526020820180845289905260ff881692820192909252606081018690526080810185905260019060a0016020604051602081039080840390855afa158015610c7f573d6000803e3d6000fd5b5050604051601f1901519150506001600160a01b038116610ca857600060019250925050610caf565b9150600090505b94509492505050565b600060208284031215610cca57600080fd5b81356001600160e01b031981168114610a5e57600080fd5b600060208284031215610cf457600080fd5b5035919050565b80356001600160a01b0381168114610d1257600080fd5b919050565b60008060408385031215610d2a57600080fd5b82359150610d3a60208401610cfb565b90509250929050565b634e487b7160e01b600052604160045260246000fd5b600080600080600060a08688031215610d7157600080fd5b610d7a86610cfb565b9450602086013593506040860135925060608601359150608086013567ffffffffffffffff80821115610dac57600080fd5b818801915088601f830112610dc057600080fd5b813581811115610dd257610dd2610d43565b604051601f8201601f19908116603f01168101908382118183101715610dfa57610dfa610d43565b816040528281528b6020848701011115610e1357600080fd5b8260208601602083013760006020848301015280955050505050509295509295909350565b60008060408385031215610e4b57600080fd5b50508035926020909101359150565b600060208284031215610e6c57600080fd5b81518015158114610a5e57600080fd5b60005b83811015610e97578181015183820152602001610e7f565b50506000910152565b7f416363657373436f6e74726f6c3a206163636f756e7420000000000000000000815260008351610ed8816017850160208801610e7c565b7001034b99036b4b9b9b4b733903937b6329607d1b6017918401918201528351610f09816028840160208801610e7c565b01602801949350505050565b6020815260008251806020840152610f34816040850160208701610e7c565b601f01601f19169190910160400192915050565b634e487b7160e01b600052601160045260246000fd5b808202811582820484141761025857610258610f48565b8082018082111561025857610258610f48565b634e487b7160e01b600052603260045260246000fd5b600081610fad57610fad610f48565b506000190190565b634e487b7160e01b600052602160045260246000fdfea264697066735822122026b36d90fc2e426a67d8185cde809c776f7a6d11d8427bcf8ead34130230d5c064736f6c63430008140033",
  "linkReferences": {},
  "deployedLinkReferences": {}
}