{
  "_format": "hh-sol-artifact-1",
  "contractName": "VisionMiningPoolNative",
  "sourceName": "contracts/VisionMiningPoolNative.sol",
  "abi": [
    {
      "inputs": [
        {
          "internalType": "address",
          "name": "_nodeLicense",
          "type": "address"
        },
        {
          "internalType": "address",
          "name": "_oracle",
          "type": "address"
        }
      ],
      "stateMutability": "nonpayable",
      "type": "constructor"
    },
    {
      "anonymous": false,
      "inputs": [
        {
          "indexed": true,
          "internalType": "address",
          "name": "funder",
          "type": "address"
        },
        {
          "indexed": false,
          "internalType": "uint256",
          "name": "amount",
          "type": "uint256"
        }
      ],
      "name": "Funded",
      "type": "event"
    },
    {
      "anonymous": false,
      "inputs": [
        {
          "indexed": false,
          "internalType": "uint256",
          "name": "newStageId",
          "type": "uint256"
        },
        {
          "indexed": false,
          "internalType": "string",
          "name": "reason",
          "type": "string"
        },
        {
          "indexed": false,
          "internalType": "uint256",
          "name": "burnedAmount",
          "type": "uint256"
        }
      ],
      "name": "HalvingTriggered",
      "type": "event"
    },
    {
      "anonymous": false,
      "inputs": [
        {
          "indexed": true,
          "internalType": "uint256",
          "name": "tokenId",
          "type": "uint256"
        },
        {
          "indexed": false,
          "internalType": "uint256",
          "name": "day",
          "type": "uint256"
        },
        {
          "indexed": false,
          "internalType": "uint256",
          "name": "aor",
          "type": "uint256"
        }
      ],
      "name": "OracleUpdated",
      "type": "event"
    },
    {
      "anonymous": false,
      "inputs": [
        {
          "indexed": true,
          "internalType": "address",
          "name": "previousOwner",
          "type": "address"
        },
        {
          "indexed": true,
          "internalType": "address",
          "name": "newOwner",
          "type": "address"
        }
      ],
      "name": "OwnershipTransferred",
      "type": "event"
    },
    {
      "anonymous": false,
      "inputs": [
        {
          "indexed": true,
          "internalType": "uint256",
          "name": "tokenId",
          "type": "uint256"
        },
        {
          "indexed": true,
          "internalType": "address",
          "name": "owner",
          "type": "address"
        },
        {
          "indexed": false,
          "internalType": "uint256",
          "name": "amount",
          "type": "uint256"
        }
      ],
      "name": "RewardClaimed",
      "type": "event"
    },
    {
      "inputs": [],
      "name": "NODE_GROWTH_TRIGGER",
      "outputs": [
        {
          "internalType": "uint256",
          "name": "",
          "type": "uint256"
        }
      ],
      "stateMutability": "view",
      "type": "function"
    },
    {
      "inputs": [],
      "name": "SECONDS_IN_YEAR",
      "outputs": [
        {
          "internalType": "uint256",
          "name": "",
          "type": "uint256"
        }
      ],
      "stateMutability": "view",
      "type": "function"
    },
    {
      "inputs": [],
      "name": "TOTAL_MINING_SUPPLY",
      "outputs": [
        {
          "internalType": "uint256",
          "name": "",
          "type": "uint256"
        }
      ],
      "stateMutability": "view",
      "type": "function"
    },
    {
      "inputs": [],
      "name": "burnedSupply",
      "outputs": [
        {
          "internalType": "uint256",
          "name": "",
          "type": "uint256"
        }
      ],
      "stateMutability": "view",
      "type": "function"
    },
    {
      "inputs": [
        {
          "internalType": "uint256",
          "name": "_tokenId",
          "type": "uint256"
        }
      ],
      "name": "calculateDailyReward",
      "outputs": [
        {
          "internalType": "uint256",
          "name": "",
          "type": "uint256"
        }
      ],
      "stateMutability": "view",
      "type": "function"
    },
    {
      "inputs": [],
      "name": "checkAndTriggerHalving",
      "outputs": [],
      "stateMutability": "nonpayable",
      "type": "function"
    },
    {
      "inputs": [
        {
          "internalType": "uint256",
          "name": "_tokenId",
          "type": "uint256"
        }
      ],
      "name": "claimReward",
      "outputs": [],
      "stateMutability": "nonpayable",
      "type": "function"
    },
    {
      "inputs": [],
      "name": "currentStageInfo",
      "outputs": [
        {
          "internalType": "uint256",
          "name": "stageId",
          "type": "uint256"
        },
        {
          "internalType": "uint256",
          "name": "startTime",
          "type": "uint256"
        },
        {
          "internalType": "uint256",
          "name": "allocatedSupply",
          "type": "uint256"
        },
        {
          "internalType": "uint256",
          "name": "minedAmount",
          "type": "uint256"
        },
        {
          "internalType": "uint256",
          "name": "startValidatorCount",
          "type": "uint256"
        },
        {
          "internalType": "uint256",
          "name": "dailyCap",
          "type": "uint256"
        }
      ],
      "stateMutability": "view",
      "type": "function"
    },
    {
      "inputs": [
        {
          "internalType": "uint256",
          "name": "",
          "type": "uint256"
        },
        {
          "internalType": "uint256",
          "name": "",
          "type": "uint256"
        }
      ],
      "name": "dailyOperatingRates",
      "outputs": [
        {
          "internalType": "uint256",
          "name": "",
          "type": "uint256"
        }
      ],
      "stateMutability": "view",
      "type": "function"
    },
    {
      "inputs": [],
      "name": "getPoolBalance",
      "outputs": [
        {
          "internalType": "uint256",
          "name": "",
          "type": "uint256"
        }
      ],
      "stateMutability": "view",
      "type": "function"
    },
    {
      "inputs": [
        {
          "internalType": "uint256",
          "name": "",
          "type": "uint256"
        }
      ],
      "name": "lastClaimTime",
      "outputs": [
        {
          "internalType": "uint256",
          "name": "",
          "type": "uint256"
        }
      ],
      "stateMutability": "view",
      "type": "function"
    },
    {
      "inputs": [],
      "name": "nodeLicense",
      "outputs": [
        {
          "internalType": "contract VisionNodeLicenseNative",
          "name": "",
          "type": "address"
        }
      ],
      "stateMutability": "view",
      "type": "function"
    },
    {
      "inputs": [],
      "name": "oracleAddress",
      "outputs": [
        {
          "internalType": "address",
          "name": "",
          "type": "address"
        }
      ],
      "stateMutability": "view",
      "type": "function"
    },
    {
      "inputs": [],
      "name": "owner",
      "outputs": [
        {
          "internalType": "address",
          "name": "",
          "type": "address"
        }
      ],
      "stateMutability": "view",
      "type": "function"
    },
    {
      "inputs": [],
      "name": "renounceOwnership",
      "outputs": [],
      "stateMutability": "nonpayable",
      "type": "function"
    },
    {
      "inputs": [
        {
          "internalType": "address",
          "name": "_newOracle",
          "type": "address"
        }
      ],
      "name": "setOracle",
      "outputs": [],
      "stateMutability": "nonpayable",
      "type": "function"
    },
    {
      "inputs": [
        {
          "internalType": "uint256",
          "name": "_tokenId",
          "type": "uint256"
        },
        {
          "internalType": "uint256",
          "name": "_aor",
          "type": "uint256"
        }
      ],
      "name": "submitDailyAOR",
      "outputs": [],
      "stateMutability": "nonpayable",
      "type": "function"
    },
    {
      "inputs": [],
      "name": "totalNetworkHashPower",
      "outputs": [
        {
          "internalType": "uint256",
          "name": "",
          "type": "uint256"
        }
      ],
      "stateMutability": "view",
      "type": "function"
    },
    {
      "inputs": [
        {
          "internalType": "address",
          "name": "newOwner",
          "type": "address"
        }
      ],
      "name": "transferOwnership",
      "outputs": [],
      "stateMutability": "nonpayable",
      "type": "function"
    },
    {
      "inputs": [
        {
          "internalType": "uint256",
          "name": "_delta",
          "type": "uint256"
        },
        {
          "internalType": "bool",
          "name": "_isAdding",
          "type": "bool"
        }
      ],
      "name": "updateNetworkHash",
      "outputs": [],
      "stateMutability": "nonpayable",
      "type": "function"
    },
    {
      "stateMutability": "payable",
      "type": "receive"
    }
  ],
  "bytecode": "0x60806040523480156200001157600080fd5b50604051620012b5380380620012b583398101604081905262000034916200016d565b6200003f3362000100565b60018055600280546001600160a01b038085166001600160a01b031992831617835560038054918516919092161790556000906200008a906b204fce5e3e25026110000000620001a5565b90506040518060c0016040528060018152602001428152602001828152602001600081526020016000815260200161016d83620000c89190620001a5565b90528051600455602081015160055560408101516006556060810151600755608081015160085560a0015160095550620001c8915050565b600080546001600160a01b038381166001600160a01b0319831681178455604051919092169283917f8be0079c531659141344cd1fd0a4f28419497f9722a3daafe3b4186f6b6457e09190a35050565b80516001600160a01b03811681146200016857600080fd5b919050565b600080604083850312156200018157600080fd5b6200018c8362000150565b91506200019c6020840162000150565b90509250929050565b600082620001c357634e487b7160e01b600052601260045260246000fd5b500490565b6110dd80620001d86000396000f3fe6080604052600436106101225760003560e01c80638da5cb5b116100a0578063b968798e11610064578063b968798e14610374578063c230781f14610389578063d0deef99146103a9578063f0fe5bed146103c9578063f2fde38b1461040157600080fd5b80638da5cb5b146102ed578063a89ae4ba1461030b578063abd70aa21461032b578063ae169a501461033e578063b11bc6f71461035e57600080fd5b8063684ce2ce116100e7578063684ce2ce14610256578063715018a61461026b5780637adbf97314610280578063877dab7e146102a05780638ceb1dba146102cd57600080fd5b806287b0d414610163578063186ba7f1146101a0578063222a4802146101f857806355d0a1d01461021a5780635dcc93911461023e57600080fd5b3661015e5760405134815233907f5af8184bef8e4b45eb9f6ed7734d04da38ced226495548f46e0c8ff8d7d9a5249060200160405180910390a2005b600080fd5b34801561016f57600080fd5b50600254610183906001600160a01b031681565b6040516001600160a01b0390911681526020015b60405180910390f35b3480156101ac57600080fd5b506004546005546006546007546008546009546101cb95949392919086565b604080519687526020870195909552938501929092526060840152608083015260a082015260c001610197565b34801561020457600080fd5b50610218610213366004610dc5565b610421565b005b34801561022657600080fd5b50610230600a5481565b604051908152602001610197565b34801561024a57600080fd5b506102306301e1338081565b34801561026257600080fd5b5061023060fa81565b34801561027757600080fd5b506102186104da565b34801561028c57600080fd5b5061021861029b366004610dfc565b6104ee565b3480156102ac57600080fd5b506102306102bb366004610e20565b600d6020526000908152604090205481565b3480156102d957600080fd5b506102186102e8366004610e47565b610518565b3480156102f957600080fd5b506000546001600160a01b0316610183565b34801561031757600080fd5b50600354610183906001600160a01b031681565b34801561033757600080fd5b5047610230565b34801561034a57600080fd5b50610218610359366004610e20565b61055f565b34801561036a57600080fd5b50610230600b5481565b34801561038057600080fd5b50610218610856565b34801561039557600080fd5b506102306b204fce5e3e2502611000000081565b3480156103b557600080fd5b506102306103c4366004610e20565b610968565b3480156103d557600080fd5b506102306103e4366004610dc5565b600c60209081526000928352604080842090915290825290205481565b34801561040d57600080fd5b5061021861041c366004610dfc565b610a94565b6003546001600160a01b0316331461046e5760405162461bcd60e51b815260206004820152600b60248201526a4f6e6c79204f7261636c6560a81b60448201526064015b60405180910390fd5b600061047d6201518042610e8d565b6000848152600c60209081526040808320848452825291829020859055815183815290810185905291925084917f8d6131ead05d17bb37913bdff362964b1be7fc0762dfbf84399d91316c35f2ac910160405180910390a2505050565b6104e2610b0a565b6104ec6000610b64565b565b6104f6610b0a565b600380546001600160a01b0319166001600160a01b0392909216919091179055565b610520610b0a565b80156105435781600b60008282546105389190610eaf565b9091555061055b9050565b81600b60008282546105559190610ec8565b90915550505b5050565b610567610bb4565b61056f610856565b6002546040516331a9108f60e11b81526004810183905233916001600160a01b031690636352211e90602401602060405180830381865afa1580156105b8573d6000803e3d6000fd5b505050506040513d601f19601f820116820180604052508101906105dc9190610edb565b6001600160a01b03161461061e5760405162461bcd60e51b81526020600482015260096024820152682737ba1037bbb732b960b91b6044820152606401610465565b600061062982610968565b90506000811161066d5760405162461bcd60e51b815260206004820152600f60248201526e139bc81d985b1a59081c995dd85c99608a1b6044820152606401610465565b804710156106bd5760405162461bcd60e51b815260206004820152601960248201527f496e73756666696369656e7420706f6f6c2062616c616e6365000000000000006044820152606401610465565b6006546007546106ce908390610eaf565b11156107155760405162461bcd60e51b815260206004820152601660248201527514dd1859d9481cdd5c1c1b1e48195e1a185d5cdd195960521b6044820152606401610465565b60006107246201518042610e8d565b6000848152600c602052604081209192509081610742600185610ec8565b81526020808201929092526040908101600090812093909355858352600d90915281204290556007805484929061077a908490610eaf565b9091555050604051600090339084908381818185875af1925050503d80600081146107c1576040519150601f19603f3d011682016040523d82523d6000602084013e6107c6565b606091505b50509050806108105760405162461bcd60e51b815260206004820152601660248201527514995dd85c99081d1c985b9cd9995c8819985a5b195960521b6044820152606401610465565b604051838152339085907f24b5efa61dd1cfc659205a97fb8ed868f3cb8c81922bab2b96423e5de1de2cb79060200160405180910390a350505061085360018055565b50565b6002546040805163d755d36f60e01b815290516004926000926001600160a01b039091169163d755d36f9180860191602091819003870181865afa1580156108a2573d6000803e3d6000fd5b505050506040513d601f19601f820116820180604052508101906108c69190610ef8565b905060006301e1338083600101546108de9190610eaf565b4210159050600060fa84600401546108f69190610eaf565b831015905081806109045750805b15610962576109628261093a576040518060400160405280600b81526020016a09c9e888abe8ea49eaea8960ab1b815250610c0d565b6040518060400160405280600a8152602001691512535157d31253525560b21b815250610c0d565b50505050565b60025460405163e2e1297160e01b815260048101839052600091829182916001600160a01b03169063e2e1297190602401600060405180830381865afa1580156109b6573d6000803e3d6000fd5b505050506040513d6000823e601f3d908101601f191682016040526109de9190810190610f6a565b945050935050508015806109f25750600b54155b15610a01575060009392505050565b6000610a106201518042610e8d565b6000868152600c602052604081209192509081610a2e600185610ec8565b815260200190815260200160002054905080600003610a535750600095945050505050565b600954600b54600090610a66878461104e565b610a709190610e8d565b90506064610a7e848361104e565b610a889190610e8d565b98975050505050505050565b610a9c610b0a565b6001600160a01b038116610b015760405162461bcd60e51b815260206004820152602660248201527f4f776e61626c653a206e6577206f776e657220697320746865207a65726f206160448201526564647265737360d01b6064820152608401610465565b61085381610b64565b6000546001600160a01b031633146104ec5760405162461bcd60e51b815260206004820181905260248201527f4f776e61626c653a2063616c6c6572206973206e6f7420746865206f776e65726044820152606401610465565b600080546001600160a01b038381166001600160a01b0319831681178455604051919092169283917f8be0079c531659141344cd1fd0a4f28419497f9722a3daafe3b4186f6b6457e09190a35050565b600260015403610c065760405162461bcd60e51b815260206004820152601f60248201527f5265656e7472616e637947756172643a207265656e7472616e742063616c6c006044820152606401610465565b6002600155565b6040805160c0810182526004548152600554602082015260065491810182905260075460608201819052600854608083015260095460a083015290916000911015610c805781606001518260400151610c669190610ec8565b905080600a6000828254610c7a9190610eaf565b90915550505b8151600090610c90906001610eaf565b9050600060028460400151610ca59190610e8d565b90506040518060c0016040528083815260200142815260200182815260200160008152602001600260009054906101000a90046001600160a01b03166001600160a01b031663d755d36f6040518163ffffffff1660e01b8152600401602060405180830381865afa158015610d1e573d6000803e3d6000fd5b505050506040513d601f19601f82011682018060405250810190610d429190610ef8565b8152602001610d5361016d84610e8d565b9052805160045560208101516005556040808201516006556060820151600755608082015160085560a090910151600955517f0d158bc741f8e3a33b9b78d4ed2f2c350155079e60d921e78370383ab3588eed90610db690849088908790611065565b60405180910390a15050505050565b60008060408385031215610dd857600080fd5b50508035926020909101359150565b6001600160a01b038116811461085357600080fd5b600060208284031215610e0e57600080fd5b8135610e1981610de7565b9392505050565b600060208284031215610e3257600080fd5b5035919050565b801515811461085357600080fd5b60008060408385031215610e5a57600080fd5b823591506020830135610e6c81610e39565b809150509250929050565b634e487b7160e01b600052601160045260246000fd5b600082610eaa57634e487b7160e01b600052601260045260246000fd5b500490565b80820180821115610ec257610ec2610e77565b92915050565b81810381811115610ec257610ec2610e77565b600060208284031215610eed57600080fd5b8151610e1981610de7565b600060208284031215610f0a57600080fd5b5051919050565b634e487b7160e01b600052604160045260246000fd5b60005b83811015610f42578181015183820152602001610f2a565b50506000910152565b805160038110610f5a57600080fd5b919050565b8051610f5a81610e39565b600080600080600060a08688031215610f8257600080fd5b855167ffffffffffffffff80821115610f9a57600080fd5b818801915088601f830112610fae57600080fd5b815181811115610fc057610fc0610f11565b604051601f8201601f19908116603f01168101908382118183101715610fe857610fe8610f11565b816040528281528b602084870101111561100157600080fd5b611012836020830160208801610f27565b809950505050505061102660208701610f4b565b9350604086015192506060860151915061104260808701610f5f565b90509295509295909350565b8082028115828204841417610ec257610ec2610e77565b838152606060208201526000835180606084015261108a816080850160208801610f27565b604083019390935250601f91909101601f1916016080019291505056fea2646970667358221220bc8cc53840a5a7abd26df225e956858050cac6c6c239136f1ef90a36c563087564736f6c63430008140033",
  "linkReferences": {},
  "deployedLinkReferences": {}
}