{
  "_format": "hh-sol-artifact-1",
  "contractName": "StorageRegistry",
  "sourceName": "contracts/StorageRegistry.sol",
  "abi": [
    {
      "inputs": [],
      "stateMutability": "nonpayable",
      "type": "constructor"
    },
    {
      "inputs": [],
      "name": "EnforcedPause",
      "type": "error"
    },
    {
      "inputs": [],
      "name": "ExpectedPause",
      "type": "error"
    },
    {
      "inputs": [
        {
          "internalType": "address",
          "name": "owner",
          "type": "address"
        }
      ],
      "name": "OwnableInvalidOwner",
      "type": "error"
    },
    {
      "inputs": [
        {
          "internalType": "address",
          "name": "account",
          "type": "address"
        }
      ],
      "name": "OwnableUnauthorizedAccount",
      "type": "error"
    },
    {
      "anonymous": false,
      "inputs": [
        {
          "indexed": true,
          "internalType": "address",
          "name": "executor",
          "type": "address"
        },
        {
          "indexed": false,
          "internalType": "bool",
          "name": "allowed",
          "type": "bool"
        }
      ],
      "name": "ExecutorUpdated",
      "type": "event"
    },
    {
      "anonymous": false,
      "inputs": [
        {
          "indexed": true,
          "internalType": "bytes32",
          "name": "nodeId",
          "type": "bytes32"
        },
        {
          "indexed": false,
          "internalType": "uint256",
          "name": "timestamp",
          "type": "uint256"
        }
      ],
      "name": "HeartbeatRecorded",
      "type": "event"
    },
    {
      "anonymous": false,
      "inputs": [
        {
          "indexed": true,
          "internalType": "bytes32",
          "name": "fileKey",
          "type": "bytes32"
        },
        {
          "indexed": false,
          "internalType": "bytes32",
          "name": "merkleRoot",
          "type": "bytes32"
        },
        {
          "indexed": false,
          "internalType": "uint256",
          "name": "timestamp",
          "type": "uint256"
        }
      ],
      "name": "MerkleRootRecorded",
      "type": "event"
    },
    {
      "anonymous": false,
      "inputs": [
        {
          "indexed": true,
          "internalType": "bytes32",
          "name": "nodeId",
          "type": "bytes32"
        },
        {
          "indexed": true,
          "internalType": "address",
          "name": "operator",
          "type": "address"
        },
        {
          "indexed": false,
          "internalType": "uint256",
          "name": "capacityGB",
          "type": "uint256"
        },
        {
          "indexed": false,
          "internalType": "string",
          "name": "nodeClass",
          "type": "string"
        }
      ],
      "name": "NodeRegistered",
      "type": "event"
    },
    {
      "anonymous": false,
      "inputs": [
        {
          "indexed": true,
          "internalType": "bytes32",
          "name": "nodeId",
          "type": "bytes32"
        },
        {
          "indexed": false,
          "internalType": "enum StorageRegistry.NodeStatus",
          "name": "status",
          "type": "uint8"
        }
      ],
      "name": "NodeStatusChanged",
      "type": "event"
    },
    {
      "anonymous": false,
      "inputs": [
        {
          "indexed": true,
          "internalType": "bytes32",
          "name": "nodeId",
          "type": "bytes32"
        },
        {
          "indexed": false,
          "internalType": "uint256",
          "name": "capacityGB",
          "type": "uint256"
        },
        {
          "indexed": false,
          "internalType": "uint256",
          "name": "usedGB",
          "type": "uint256"
        }
      ],
      "name": "NodeUpdated",
      "type": "event"
    },
    {
      "anonymous": false,
      "inputs": [
        {
          "indexed": true,
          "internalType": "address",
          "name": "previousOwner",
          "type": "address"
        },
        {
          "indexed": true,
          "internalType": "address",
          "name": "newOwner",
          "type": "address"
        }
      ],
      "name": "OwnershipTransferred",
      "type": "event"
    },
    {
      "anonymous": false,
      "inputs": [
        {
          "indexed": false,
          "internalType": "address",
          "name": "account",
          "type": "address"
        }
      ],
      "name": "Paused",
      "type": "event"
    },
    {
      "anonymous": false,
      "inputs": [
        {
          "indexed": false,
          "internalType": "address",
          "name": "account",
          "type": "address"
        }
      ],
      "name": "Unpaused",
      "type": "event"
    },
    {
      "inputs": [
        {
          "internalType": "uint256",
          "name": "",
          "type": "uint256"
        }
      ],
      "name": "allNodeIds",
      "outputs": [
        {
          "internalType": "bytes32",
          "name": "",
          "type": "bytes32"
        }
      ],
      "stateMutability": "view",
      "type": "function"
    },
    {
      "inputs": [
        {
          "internalType": "bytes32",
          "name": "",
          "type": "bytes32"
        }
      ],
      "name": "fileMerkleRoots",
      "outputs": [
        {
          "internalType": "bytes32",
          "name": "",
          "type": "bytes32"
        }
      ],
      "stateMutability": "view",
      "type": "function"
    },
    {
      "inputs": [
        {
          "internalType": "bytes32",
          "name": "",
          "type": "bytes32"
        }
      ],
      "name": "fileRegisteredAt",
      "outputs": [
        {
          "internalType": "uint256",
          "name": "",
          "type": "uint256"
        }
      ],
      "stateMutability": "view",
      "type": "function"
    },
    {
      "inputs": [],
      "name": "getNetworkStats",
      "outputs": [
        {
          "internalType": "uint256",
          "name": "_totalNodes",
          "type": "uint256"
        },
        {
          "internalType": "uint256",
          "name": "_activeNodes",
          "type": "uint256"
        },
        {
          "internalType": "uint256",
          "name": "_totalCapacityGB",
          "type": "uint256"
        },
        {
          "internalType": "uint256",
          "name": "_totalUsedGB",
          "type": "uint256"
        }
      ],
      "stateMutability": "view",
      "type": "function"
    },
    {
      "inputs": [
        {
          "internalType": "bytes32",
          "name": "nodeId",
          "type": "bytes32"
        }
      ],
      "name": "getNode",
      "outputs": [
        {
          "components": [
            {
              "internalType": "bytes32",
              "name": "nodeId",
              "type": "bytes32"
            },
            {
              "internalType": "address",
              "name": "operator",
              "type": "address"
            },
            {
              "internalType": "uint256",
              "name": "capacityGB",
              "type": "uint256"
            },
            {
              "internalType": "uint256",
              "name": "usedGB",
              "type": "uint256"
            },
            {
              "internalType": "string",
              "name": "nodeClass",
              "type": "string"
            },
            {
              "internalType": "uint256",
              "name": "registeredAt",
              "type": "uint256"
            },
            {
              "internalType": "uint256",
              "name": "lastHeartbeat",
              "type": "uint256"
            },
            {
              "internalType": "enum StorageRegistry.NodeStatus",
              "name": "status",
              "type": "uint8"
            },
            {
              "internalType": "uint256",
              "name": "proofSuccessCount",
              "type": "uint256"
            },
            {
              "internalType": "uint256",
              "name": "proofFailCount",
              "type": "uint256"
            }
          ],
          "internalType": "struct StorageRegistry.NodeInfo",
          "name": "",
          "type": "tuple"
        }
      ],
      "stateMutability": "view",
      "type": "function"
    },
    {
      "inputs": [
        {
          "internalType": "address",
          "name": "operator",
          "type": "address"
        }
      ],
      "name": "getOperatorNodes",
      "outputs": [
        {
          "internalType": "bytes32[]",
          "name": "",
          "type": "bytes32[]"
        }
      ],
      "stateMutability": "view",
      "type": "function"
    },
    {
      "inputs": [],
      "name": "getTotalNodes",
      "outputs": [
        {
          "internalType": "uint256",
          "name": "",
          "type": "uint256"
        }
      ],
      "stateMutability": "view",
      "type": "function"
    },
    {
      "inputs": [
        {
          "internalType": "address",
          "name": "",
          "type": "address"
        }
      ],
      "name": "isExecutor",
      "outputs": [
        {
          "internalType": "bool",
          "name": "",
          "type": "bool"
        }
      ],
      "stateMutability": "view",
      "type": "function"
    },
    {
      "inputs": [
        {
          "internalType": "bytes32",
          "name": "",
          "type": "bytes32"
        }
      ],
      "name": "nodes",
      "outputs": [
        {
          "internalType": "bytes32",
          "name": "nodeId",
          "type": "bytes32"
        },
        {
          "internalType": "address",
          "name": "operator",
          "type": "address"
        },
        {
          "internalType": "uint256",
          "name": "capacityGB",
          "type": "uint256"
        },
        {
          "internalType": "uint256",
          "name": "usedGB",
          "type": "uint256"
        },
        {
          "internalType": "string",
          "name": "nodeClass",
          "type": "string"
        },
        {
          "internalType": "uint256",
          "name": "registeredAt",
          "type": "uint256"
        },
        {
          "internalType": "uint256",
          "name": "lastHeartbeat",
          "type": "uint256"
        },
        {
          "internalType": "enum StorageRegistry.NodeStatus",
          "name": "status",
          "type": "uint8"
        },
        {
          "internalType": "uint256",
          "name": "proofSuccessCount",
          "type": "uint256"
        },
        {
          "internalType": "uint256",
          "name": "proofFailCount",
          "type": "uint256"
        }
      ],
      "stateMutability": "view",
      "type": "function"
    },
    {
      "inputs": [
        {
          "internalType": "address",
          "name": "",
          "type": "address"
        },
        {
          "internalType": "uint256",
          "name": "",
          "type": "uint256"
        }
      ],
      "name": "operatorNodes",
      "outputs": [
        {
          "internalType": "bytes32",
          "name": "",
          "type": "bytes32"
        }
      ],
      "stateMutability": "view",
      "type": "function"
    },
    {
      "inputs": [],
      "name": "owner",
      "outputs": [
        {
          "internalType": "address",
          "name": "",
          "type": "address"
        }
      ],
      "stateMutability": "view",
      "type": "function"
    },
    {
      "inputs": [],
      "name": "pause",
      "outputs": [],
      "stateMutability": "nonpayable",
      "type": "function"
    },
    {
      "inputs": [],
      "name": "paused",
      "outputs": [
        {
          "internalType": "bool",
          "name": "",
          "type": "bool"
        }
      ],
      "stateMutability": "view",
      "type": "function"
    },
    {
      "inputs": [
        {
          "internalType": "bytes32",
          "name": "nodeId",
          "type": "bytes32"
        }
      ],
      "name": "recordHeartbeat",
      "outputs": [],
      "stateMutability": "nonpayable",
      "type": "function"
    },
    {
      "inputs": [
        {
          "internalType": "bytes32[]",
          "name": "nodeIds",
          "type": "bytes32[]"
        }
      ],
      "name": "recordHeartbeatBatch",
      "outputs": [],
      "stateMutability": "nonpayable",
      "type": "function"
    },
    {
      "inputs": [
        {
          "internalType": "bytes32",
          "name": "fileKey",
          "type": "bytes32"
        },
        {
          "internalType": "bytes32",
          "name": "merkleRoot",
          "type": "bytes32"
        }
      ],
      "name": "recordMerkleRoot",
      "outputs": [],
      "stateMutability": "nonpayable",
      "type": "function"
    },
    {
      "inputs": [
        {
          "internalType": "bytes32",
          "name": "nodeId",
          "type": "bytes32"
        },
        {
          "internalType": "bool",
          "name": "passed",
          "type": "bool"
        }
      ],
      "name": "recordProofResult",
      "outputs": [],
      "stateMutability": "nonpayable",
      "type": "function"
    },
    {
      "inputs": [
        {
          "internalType": "bytes32",
          "name": "nodeId",
          "type": "bytes32"
        },
        {
          "internalType": "address",
          "name": "operator",
          "type": "address"
        },
        {
          "internalType": "uint256",
          "name": "capacityGB",
          "type": "uint256"
        },
        {
          "internalType": "string",
          "name": "nodeClass",
          "type": "string"
        }
      ],
      "name": "registerNode",
      "outputs": [],
      "stateMutability": "nonpayable",
      "type": "function"
    },
    {
      "inputs": [],
      "name": "renounceOwnership",
      "outputs": [],
      "stateMutability": "nonpayable",
      "type": "function"
    },
    {
      "inputs": [
        {
          "internalType": "address",
          "name": "executor",
          "type": "address"
        },
        {
          "internalType": "bool",
          "name": "allowed",
          "type": "bool"
        }
      ],
      "name": "setExecutor",
      "outputs": [],
      "stateMutability": "nonpayable",
      "type": "function"
    },
    {
      "inputs": [
        {
          "internalType": "bytes32",
          "name": "nodeId",
          "type": "bytes32"
        },
        {
          "internalType": "enum StorageRegistry.NodeStatus",
          "name": "status",
          "type": "uint8"
        }
      ],
      "name": "setNodeStatus",
      "outputs": [],
      "stateMutability": "nonpayable",
      "type": "function"
    },
    {
      "inputs": [],
      "name": "totalActiveNodes",
      "outputs": [
        {
          "internalType": "uint256",
          "name": "",
          "type": "uint256"
        }
      ],
      "stateMutability": "view",
      "type": "function"
    },
    {
      "inputs": [],
      "name": "totalCapacityGB",
      "outputs": [
        {
          "internalType": "uint256",
          "name": "",
          "type": "uint256"
        }
      ],
      "stateMutability": "view",
      "type": "function"
    },
    {
      "inputs": [],
      "name": "totalUsedGB",
      "outputs": [
        {
          "internalType": "uint256",
          "name": "",
          "type": "uint256"
        }
      ],
      "stateMutability": "view",
      "type": "function"
    },
    {
      "inputs": [
        {
          "internalType": "address",
          "name": "newOwner",
          "type": "address"
        }
      ],
      "name": "transferOwnership",
      "outputs": [],
      "stateMutability": "nonpayable",
      "type": "function"
    },
    {
      "inputs": [],
      "name": "unpause",
      "outputs": [],
      "stateMutability": "nonpayable",
      "type": "function"
    },
    {
      "inputs": [
        {
          "internalType": "bytes32",
          "name": "nodeId",
          "type": "bytes32"
        },
        {
          "internalType": "uint256",
          "name": "capacityGB",
          "type": "uint256"
        },
        {
          "internalType": "uint256",
          "name": "usedGB",
          "type": "uint256"
        }
      ],
      "name": "updateNode",
      "outputs": [],
      "stateMutability": "nonpayable",
      "type": "function"
    },
    {
      "inputs": [
        {
          "internalType": "bytes32",
          "name": "fileKey",
          "type": "bytes32"
        },
        {
          "internalType": "bytes32",
          "name": "merkleRoot",
          "type": "bytes32"
        }
      ],
      "name": "verifyMerkleRoot",
      "outputs": [
        {
          "internalType": "bool",
          "name": "",
          "type": "bool"
        }
      ],
      "stateMutability": "view",
      "type": "function"
    }
  ],
  "bytecode": "0x6080806040523461009157331561007b5760008054336001600160a01b0319821681178355604080519390929091906001600160a01b03167f8be0079c531659141344cd1fd0a4f28419497f9722a3daafe3b4186f6b6457e08380a3338152600960205220805460ff1916600117905561166b90816100978239f35b631e4fbdf760e01b815260006004820152602490fd5b600080fdfe608080604052600436101561001357600080fd5b60003560e01c908162017c8b14611334575080630b2e956e1461125c5780631c0620f2146111cb5780631e1bff3f1461114e5780632e783190146110b55780632e7aab0f146110235780633f4ba83a14610fb157806349a5747714610f935780634a662f4814610f5c57806350c946fe14610dd757806354093cf614610db95780635432dd1c14610d8d5780635c975abb14610d6757806363584ecd14610d4957806365c1a0cf14610d1d578063715018a614610cc45780638456cb5914610c625780638da5cb5b14610c395780639b070b0014610be1578063a583497114610b90578063ad23bc401461064a578063b97910b514610596578063d3e1555514610417578063d86e697d1461035b578063debd6de01461033d578063debfda30146102fe578063e61ced22146101e55763f2fde38b1461015257600080fd5b346101e05760203660031901126101e05761016b61136e565b610173611517565b6001600160a01b039081169081156101c757600054826bffffffffffffffffffffffff60a01b821617600055167f8be0079c531659141344cd1fd0a4f28419497f9722a3daafe3b4186f6b6457e0600080a3005b604051631e4fbdf760e01b815260006004820152602490fd5b600080fd5b346101e0576020806003193601126101e05760043567ffffffffffffffff918282116101e057366023830112156101e05781600401359283116101e057602482016005926024369186861b0101116101e057336000526009825260ff6040600020541680156102ea575b61025890611543565b60005b84811061026457005b8061027361028f928785611625565b3560005260018085528560406000200154610294575b506115a6565b61025b565b61029f828886611625565b356000528452426006604060002001556102ba818785611625565b357f3e919d2e1b69ffff4c4ec7b0f8a8458457ebe560ad9214995260087505d89e4c85604051428152a286610289565b506000546001600160a01b0316331461024f565b346101e05760203660031901126101e0576001600160a01b0361031f61136e565b166000526009602052602060ff604060002054166040519015158152f35b346101e05760003660031901126101e0576020600554604051908152f35b346101e05760203660031901126101e05760043560005260016020526040600020805460018060a01b036001830154169160028101546003820154916104076103a660048301611471565b936005830154946103f260068501549160ff6007870154169360096008880154970154976040519b8c9b8c5260208c015260408b015260608a01526101408060808b0152890190611393565b9560a088015260c087015260e08601906113d3565b6101008401526101208301520390f35b346101e05760403660031901126101e0576004356024356003811015806101e05733600052600960205260ff604060002054168015610582575b61045a90611543565b82600052600160205260076040600020610479600582015415156115d6565b019060ff825416600381101561055d576001148080610573575b15610500575050906006549081156104ea576104da817f381f15a13568b94a36e74ecd7332ed11744e62047d2685807734c29b3d6c1b7e9460209460001901600655611581565b6104e760405180926113d3565ba2005b634e487b7160e01b600052601160045260246000fd5b15908161054b575b50916104da816020937f381f15a13568b94a36e74ecd7332ed11744e62047d2685807734c29b3d6c1b7e9515611581576105436006546115a6565b600655611581565b905061055d57600182146104da610508565b634e487b7160e01b600052602160045260246000fd5b50600091506001841415610493565b506000546001600160a01b03163314610451565b346101e0576020806003193601126101e0576001600160a01b036105b861136e565b1660005260028152604060002060405190818382549182815201908192600052846000209060005b868282106106365786866105f68288038361144f565b604051928392818401908285525180915260408401929160005b82811061061f57505050500390f35b835185528695509381019392810192600101610610565b8354855290930192600192830192016105e0565b346101e05760803660031901126101e0576024356001600160a01b03811681036101e05767ffffffffffffffff606435116101e0573660236064350112156101e05767ffffffffffffffff60643560040135116101e057366024606435600401356064350101116101e05733600052600960205260ff604060002054168015610b7c575b6106d790611543565b6106df6115b5565b6004356000526001602052600560406000200154610b37576001600160a01b03811615610aff5760443515610ac3576040519061071b82611432565b600435825260018060a01b038116602083015260443560408301526000606083015260405161075a6020601f19601f606435600401350116018261144f565b606435600481013580835290602401602083013760006020606435600401358301015260808301524260a08301524260c0830152600160e08301526000610100830152600061012083015260043560005260016020526040600020825181556001810160018060a01b036020850151166bffffffffffffffffffffffff60a01b8254161790556040830151600282015560608301516003820155608083015192835167ffffffffffffffff81116109ec5761081860048401546113f8565b601f8111610a7c575b506020601f8211600114610a0d578192939495600092610a02575b50508160011b916000199060031b1c19161760048301555b60a0810151600583015560c0810151600683015560e0810151600381101561055d576009916108896101209260078601611581565b610100810151600885015501519101556001600160a01b03811660009081526002602052604090208054680100000000000000009190828110156109ec576108d6916001820181556113e0565b81549060031b90600435821b91600019901b1916179055600354908110156109ec5760018101806003558110156109d6576003600052600435907fc2575a0e9e593c00f959f8c92f12db2869c3395a3b0502d05e2516446f71f85b0155610941604435600454611599565b60045561094f6006546115a6565b6006556040519060443582526040602083015260643560040135604083015260643560040135602460643501606084013760006060606435600401358401015260018060a01b0316907fb4f6fd92cd73fe9b81e87b8511cfd84227413f45c3e6754a46971b18bdca6ca160043591606081601f19601f6064356004013501168101030190a3005b634e487b7160e01b600052603260045260246000fd5b634e487b7160e01b600052604160045260246000fd5b01519050858061083c565b6004840160005260206000209060005b601f1984168110610a64575060019394959683601f19811610610a4b575b505050811b016004830155610854565b015160001960f88460031b161c19169055858080610a3b565b9091602060018192858b015181550193019101610a1d565b600484016000526020600020601f830160051c810160208410610abc575b601f830160051c82018110610ab0575050610821565b60008155600101610a9a565b5080610a9a565b60405162461bcd60e51b815260206004820152601460248201527304361706163697479206d757374206265203e20360641b6044820152606490fd5b60405162461bcd60e51b815260206004820152601060248201526f24b73b30b634b21037b832b930ba37b960811b6044820152606490fd5b60405162461bcd60e51b815260206004820152601760248201527f4e6f646520616c726561647920726567697374657265640000000000000000006044820152606490fd5b506000546001600160a01b031633146106ce565b346101e05760203660031901126101e0576004356003548110156101e05760209060036000527fc2575a0e9e593c00f959f8c92f12db2869c3395a3b0502d05e2516446f71f85b0154604051908152f35b346101e05760403660031901126101e057610bfa61136e565b6001600160a01b03166000908152600260205260409020805460243591908210156101e057602091610c2b916113e0565b90546040519160031b1c8152f35b346101e05760003660031901126101e0576000546040516001600160a01b039091168152602090f35b346101e05760003660031901126101e057610c7b611517565b610c836115b5565b6000805460ff60a01b1916600160a01b1790556040513381527f62e78cea01bee320cd4e420270b5ea74000d11b0c9f74754ebdbfc544b05a25890602090a1005b346101e05760003660031901126101e057610cdd611517565b600080546001600160a01b0319811682556001600160a01b03167f8be0079c531659141344cd1fd0a4f28419497f9722a3daafe3b4186f6b6457e08280a3005b346101e05760203660031901126101e05760043560005260086020526020604060002054604051908152f35b346101e05760003660031901126101e0576020600354604051908152f35b346101e05760003660031901126101e057602060ff60005460a01c166040519015158152f35b346101e05760203660031901126101e05760043560005260076020526020604060002054604051908152f35b346101e05760003660031901126101e0576020600454604051908152f35b346101e05760203660031901126101e0576000610120604051610df981611432565b828152826020820152826040820152826060820152606060808201528260a08201528260c08201528260e08201528261010082015201526004356000526001602052604060002060405190610e4d82611432565b8054825260018101546001600160a01b031660208301526002810154604083015260038101546060830152610e8460048201611471565b6080830152600581015460a0830152600681015460c083015260ff60078201541690600382101561055d5760099160e0840152600881015461010084015201546101208201526040518091602082528051602083015260018060a01b03602082015116604083015260408101516060830152606081015160808301526080810151610120610f20610140928360a0870152610160860190611393565b9260a081015160c086015260c081015160e0860152610f4860e08201516101008701906113d3565b610100810151828601520151908301520390f35b346101e05760003660031901126101e057608060035460065460045460055491604051938452602084015260408301526060820152f35b346101e05760003660031901126101e0576020600654604051908152f35b346101e05760003660031901126101e057610fca611517565b60005460ff8160a01c16156110115760ff60a01b19166000556040513381527f5db9ee0a495bf2e6ff9c91a7834c1ba4fdd244a5e8aa4e537bd38aeae4b073aa90602090a1005b604051638dfc202b60e01b8152600490fd5b346101e05760403660031901126101e05761103c611384565b33600052600960205260ff6040600020541680156110a1575b61105e90611543565b600435600052600160205260406000209061107e600583015415156115d6565b156110945760080161109081546115a6565b9055005b60090161109081546115a6565b506000546001600160a01b03163314611055565b346101e05760203660031901126101e05760043533600052600960205260ff60406000205416801561113a575b6110eb90611543565b8060005260016020526040600020611108600582015415156115d6565b6006429101557f3e919d2e1b69ffff4c4ec7b0f8a8458457ebe560ad9214995260087505d89e4c6020604051428152a2005b506000546001600160a01b031633146110e2565b346101e05760403660031901126101e05761116761136e565b7f9fdbc2d48b8a0db2f62663bf9312ad02f5b1f6414ad600b55a247d09aeec3ea26020611192611384565b9261119b611517565b60018060a01b031692836000526009825260406000209015159060ff1981541660ff8316179055604051908152a2005b346101e05760407ff98bf76e5e8e1baf7de3c584b950581cb7f5cea9c09de8213c1f2ec0aeae2bbd6111fc36611358565b92909233600052600960205260ff8260002054168015611248575b61122090611543565b83600052600760205280826000205560086020524282600020558151908152426020820152a2005b506000546001600160a01b03163314611217565b346101e05760603660031901126101e0576004357f965fbf96543825c74af432b57cf5645131a95bfe17bb67c1823a3c393876c494604060243560443533600052600960205260ff8360002054168015611320575b6112ba90611543565b84600052600160205280836000206112d7600582015415156115d6565b836004546112f4826112ef6002860193845490611618565b611599565b60045561130e846112ef6003600554960195865490611618565b600555555582519182526020820152a2005b506000546001600160a01b031633146112b1565b346101e05760209061134536611358565b9060005260078352604060002054148152f35b60409060031901126101e0576004359060243590565b600435906001600160a01b03821682036101e057565b6024359081151582036101e057565b919082519283825260005b8481106113bf575050826000602080949584010152601f8019910116010190565b60208183018101518483018201520161139e565b90600382101561055d5752565b80548210156109d65760005260206000200190600090565b90600182811c92168015611428575b602083101461141257565b634e487b7160e01b600052602260045260246000fd5b91607f1691611407565b610140810190811067ffffffffffffffff8211176109ec57604052565b90601f8019910116810190811067ffffffffffffffff8211176109ec57604052565b9060405191826000825492611485846113f8565b9081845260019485811690816000146114f457506001146114b1575b50506114af9250038361144f565b565b9093915060005260209081600020936000915b8183106114dc5750506114af935082010138806114a1565b855488840185015294850194879450918301916114c4565b9150506114af94506020925060ff191682840152151560051b82010138806114a1565b6000546001600160a01b0316330361152b57565b60405163118cdaa760e01b8152336004820152602490fd5b1561154a57565b60405162461bcd60e51b815260206004820152600f60248201526e2737ba1030b71032bc32b1baba37b960891b6044820152606490fd5b90600381101561055d5760ff80198354169116179055565b919082018092116104ea57565b60001981146104ea5760010190565b60ff60005460a01c166115c457565b60405163d93c066560e01b8152600490fd5b156115dd57565b60405162461bcd60e51b8152602060048201526013602482015272139bd919481b9bdd081c9959da5cdd195c9959606a1b6044820152606490fd5b919082039182116104ea57565b91908110156109d65760051b019056fea264697066735822122018794b6d6c6ee1ee31dcf39b130e5f11bce0f3c87170c2669a1f0dc847c5dd1664736f6c63430008140033",
  "linkReferences": {},
  "deployedLinkReferences": {}
}