{
  "_format": "hh-sol-artifact-1",
  "contractName": "StorageRewards",
  "sourceName": "contracts/StorageRewards.sol",
  "abi": [
    {
      "inputs": [],
      "stateMutability": "nonpayable",
      "type": "constructor"
    },
    {
      "inputs": [],
      "name": "EnforcedPause",
      "type": "error"
    },
    {
      "inputs": [],
      "name": "ExpectedPause",
      "type": "error"
    },
    {
      "inputs": [
        {
          "internalType": "address",
          "name": "owner",
          "type": "address"
        }
      ],
      "name": "OwnableInvalidOwner",
      "type": "error"
    },
    {
      "inputs": [
        {
          "internalType": "address",
          "name": "account",
          "type": "address"
        }
      ],
      "name": "OwnableUnauthorizedAccount",
      "type": "error"
    },
    {
      "inputs": [],
      "name": "ReentrancyGuardReentrantCall",
      "type": "error"
    },
    {
      "anonymous": false,
      "inputs": [
        {
          "indexed": true,
          "internalType": "address",
          "name": "executor",
          "type": "address"
        },
        {
          "indexed": false,
          "internalType": "bool",
          "name": "allowed",
          "type": "bool"
        }
      ],
      "name": "ExecutorUpdated",
      "type": "event"
    },
    {
      "anonymous": false,
      "inputs": [
        {
          "indexed": true,
          "internalType": "bytes32",
          "name": "nodeId",
          "type": "bytes32"
        },
        {
          "indexed": false,
          "internalType": "uint256",
          "name": "penaltyAmount",
          "type": "uint256"
        },
        {
          "indexed": false,
          "internalType": "string",
          "name": "reason",
          "type": "string"
        }
      ],
      "name": "NodeSlashed",
      "type": "event"
    },
    {
      "anonymous": false,
      "inputs": [
        {
          "indexed": true,
          "internalType": "bytes32",
          "name": "nodeId",
          "type": "bytes32"
        },
        {
          "indexed": false,
          "internalType": "address",
          "name": "wallet",
          "type": "address"
        }
      ],
      "name": "NodeWalletSet",
      "type": "event"
    },
    {
      "anonymous": false,
      "inputs": [
        {
          "indexed": true,
          "internalType": "address",
          "name": "previousOwner",
          "type": "address"
        },
        {
          "indexed": true,
          "internalType": "address",
          "name": "newOwner",
          "type": "address"
        }
      ],
      "name": "OwnershipTransferred",
      "type": "event"
    },
    {
      "anonymous": false,
      "inputs": [
        {
          "indexed": false,
          "internalType": "address",
          "name": "account",
          "type": "address"
        }
      ],
      "name": "Paused",
      "type": "event"
    },
    {
      "anonymous": false,
      "inputs": [
        {
          "indexed": true,
          "internalType": "address",
          "name": "funder",
          "type": "address"
        },
        {
          "indexed": false,
          "internalType": "uint256",
          "name": "amount",
          "type": "uint256"
        },
        {
          "indexed": false,
          "internalType": "uint256",
          "name": "newBalance",
          "type": "uint256"
        }
      ],
      "name": "PoolFunded",
      "type": "event"
    },
    {
      "anonymous": false,
      "inputs": [
        {
          "indexed": true,
          "internalType": "bytes32",
          "name": "nodeId",
          "type": "bytes32"
        },
        {
          "indexed": false,
          "internalType": "uint256",
          "name": "amount",
          "type": "uint256"
        },
        {
          "indexed": false,
          "internalType": "uint256",
          "name": "totalPending",
          "type": "uint256"
        }
      ],
      "name": "RewardAccrued",
      "type": "event"
    },
    {
      "anonymous": false,
      "inputs": [
        {
          "indexed": true,
          "internalType": "bytes32",
          "name": "nodeId",
          "type": "bytes32"
        },
        {
          "indexed": true,
          "internalType": "address",
          "name": "wallet",
          "type": "address"
        },
        {
          "indexed": false,
          "internalType": "uint256",
          "name": "amount",
          "type": "uint256"
        }
      ],
      "name": "RewardClaimed",
      "type": "event"
    },
    {
      "anonymous": false,
      "inputs": [
        {
          "indexed": false,
          "internalType": "address",
          "name": "account",
          "type": "address"
        }
      ],
      "name": "Unpaused",
      "type": "event"
    },
    {
      "inputs": [
        {
          "internalType": "bytes32",
          "name": "nodeId",
          "type": "bytes32"
        },
        {
          "internalType": "uint256",
          "name": "uptimeHours",
          "type": "uint256"
        },
        {
          "internalType": "uint256",
          "name": "capacityGB",
          "type": "uint256"
        },
        {
          "internalType": "uint256",
          "name": "proofSuccessRate",
          "type": "uint256"
        },
        {
          "internalType": "uint256",
          "name": "weightBp",
          "type": "uint256"
        }
      ],
      "name": "accrueReward",
      "outputs": [],
      "stateMutability": "nonpayable",
      "type": "function"
    },
    {
      "inputs": [
        {
          "internalType": "bytes32[]",
          "name": "nodeIds",
          "type": "bytes32[]"
        },
        {
          "internalType": "uint256[]",
          "name": "uptimeHours",
          "type": "uint256[]"
        },
        {
          "internalType": "uint256[]",
          "name": "capacityGBs",
          "type": "uint256[]"
        },
        {
          "internalType": "uint256[]",
          "name": "proofRates",
          "type": "uint256[]"
        },
        {
          "internalType": "uint256[]",
          "name": "weights",
          "type": "uint256[]"
        }
      ],
      "name": "accrueRewardBatch",
      "outputs": [],
      "stateMutability": "nonpayable",
      "type": "function"
    },
    {
      "inputs": [],
      "name": "baseRewardPerDay",
      "outputs": [
        {
          "internalType": "uint256",
          "name": "",
          "type": "uint256"
        }
      ],
      "stateMutability": "view",
      "type": "function"
    },
    {
      "inputs": [
        {
          "internalType": "bytes32",
          "name": "nodeId",
          "type": "bytes32"
        }
      ],
      "name": "calculatePendingReward",
      "outputs": [
        {
          "internalType": "uint256",
          "name": "",
          "type": "uint256"
        }
      ],
      "stateMutability": "view",
      "type": "function"
    },
    {
      "inputs": [
        {
          "internalType": "bytes32",
          "name": "nodeId",
          "type": "bytes32"
        }
      ],
      "name": "claimReward",
      "outputs": [],
      "stateMutability": "nonpayable",
      "type": "function"
    },
    {
      "inputs": [],
      "name": "emergencyWithdraw",
      "outputs": [],
      "stateMutability": "nonpayable",
      "type": "function"
    },
    {
      "inputs": [],
      "name": "fundPool",
      "outputs": [],
      "stateMutability": "payable",
      "type": "function"
    },
    {
      "inputs": [],
      "name": "getPoolStats",
      "outputs": [
        {
          "internalType": "uint256",
          "name": "poolBalance",
          "type": "uint256"
        },
        {
          "internalType": "uint256",
          "name": "distributed",
          "type": "uint256"
        },
        {
          "internalType": "uint256",
          "name": "totalNodes",
          "type": "uint256"
        }
      ],
      "stateMutability": "view",
      "type": "function"
    },
    {
      "inputs": [
        {
          "internalType": "bytes32",
          "name": "nodeId",
          "type": "bytes32"
        }
      ],
      "name": "getRewardInfo",
      "outputs": [
        {
          "components": [
            {
              "internalType": "uint256",
              "name": "pendingReward",
              "type": "uint256"
            },
            {
              "internalType": "uint256",
              "name": "totalClaimed",
              "type": "uint256"
            },
            {
              "internalType": "uint256",
              "name": "lastCalculation",
              "type": "uint256"
            },
            {
              "internalType": "uint256",
              "name": "slashCount",
              "type": "uint256"
            },
            {
              "internalType": "bool",
              "name": "slashed",
              "type": "bool"
            }
          ],
          "internalType": "struct StorageRewards.RewardInfo",
          "name": "",
          "type": "tuple"
        }
      ],
      "stateMutability": "view",
      "type": "function"
    },
    {
      "inputs": [
        {
          "internalType": "address",
          "name": "",
          "type": "address"
        }
      ],
      "name": "isExecutor",
      "outputs": [
        {
          "internalType": "bool",
          "name": "",
          "type": "bool"
        }
      ],
      "stateMutability": "view",
      "type": "function"
    },
    {
      "inputs": [
        {
          "internalType": "bytes32",
          "name": "",
          "type": "bytes32"
        }
      ],
      "name": "nodeWallets",
      "outputs": [
        {
          "internalType": "address",
          "name": "",
          "type": "address"
        }
      ],
      "stateMutability": "view",
      "type": "function"
    },
    {
      "inputs": [],
      "name": "owner",
      "outputs": [
        {
          "internalType": "address",
          "name": "",
          "type": "address"
        }
      ],
      "stateMutability": "view",
      "type": "function"
    },
    {
      "inputs": [],
      "name": "pause",
      "outputs": [],
      "stateMutability": "nonpayable",
      "type": "function"
    },
    {
      "inputs": [],
      "name": "paused",
      "outputs": [
        {
          "internalType": "bool",
          "name": "",
          "type": "bool"
        }
      ],
      "stateMutability": "view",
      "type": "function"
    },
    {
      "inputs": [],
      "name": "proofBonusMultiplier",
      "outputs": [
        {
          "internalType": "uint256",
          "name": "",
          "type": "uint256"
        }
      ],
      "stateMutability": "view",
      "type": "function"
    },
    {
      "inputs": [],
      "name": "renounceOwnership",
      "outputs": [],
      "stateMutability": "nonpayable",
      "type": "function"
    },
    {
      "inputs": [],
      "name": "rewardPoolBalance",
      "outputs": [
        {
          "internalType": "uint256",
          "name": "",
          "type": "uint256"
        }
      ],
      "stateMutability": "view",
      "type": "function"
    },
    {
      "inputs": [
        {
          "internalType": "uint256",
          "name": "",
          "type": "uint256"
        }
      ],
      "name": "rewardedNodes",
      "outputs": [
        {
          "internalType": "bytes32",
          "name": "",
          "type": "bytes32"
        }
      ],
      "stateMutability": "view",
      "type": "function"
    },
    {
      "inputs": [
        {
          "internalType": "bytes32",
          "name": "",
          "type": "bytes32"
        }
      ],
      "name": "rewards",
      "outputs": [
        {
          "internalType": "uint256",
          "name": "pendingReward",
          "type": "uint256"
        },
        {
          "internalType": "uint256",
          "name": "totalClaimed",
          "type": "uint256"
        },
        {
          "internalType": "uint256",
          "name": "lastCalculation",
          "type": "uint256"
        },
        {
          "internalType": "uint256",
          "name": "slashCount",
          "type": "uint256"
        },
        {
          "internalType": "bool",
          "name": "slashed",
          "type": "bool"
        }
      ],
      "stateMutability": "view",
      "type": "function"
    },
    {
      "inputs": [
        {
          "internalType": "uint256",
          "name": "rewardPerDay",
          "type": "uint256"
        }
      ],
      "name": "setBaseReward",
      "outputs": [],
      "stateMutability": "nonpayable",
      "type": "function"
    },
    {
      "inputs": [
        {
          "internalType": "address",
          "name": "executor",
          "type": "address"
        },
        {
          "internalType": "bool",
          "name": "allowed",
          "type": "bool"
        }
      ],
      "name": "setExecutor",
      "outputs": [],
      "stateMutability": "nonpayable",
      "type": "function"
    },
    {
      "inputs": [
        {
          "internalType": "bytes32",
          "name": "nodeId",
          "type": "bytes32"
        },
        {
          "internalType": "address",
          "name": "wallet",
          "type": "address"
        }
      ],
      "name": "setNodeWallet",
      "outputs": [],
      "stateMutability": "nonpayable",
      "type": "function"
    },
    {
      "inputs": [
        {
          "internalType": "uint256",
          "name": "multiplier",
          "type": "uint256"
        }
      ],
      "name": "setProofBonusMultiplier",
      "outputs": [],
      "stateMutability": "nonpayable",
      "type": "function"
    },
    {
      "inputs": [
        {
          "internalType": "uint256",
          "name": "percent",
          "type": "uint256"
        }
      ],
      "name": "setSlashPenalty",
      "outputs": [],
      "stateMutability": "nonpayable",
      "type": "function"
    },
    {
      "inputs": [
        {
          "internalType": "uint256",
          "name": "multiplier",
          "type": "uint256"
        }
      ],
      "name": "setStorageBonusMultiplier",
      "outputs": [],
      "stateMutability": "nonpayable",
      "type": "function"
    },
    {
      "inputs": [],
      "name": "slashCooldownDays",
      "outputs": [
        {
          "internalType": "uint256",
          "name": "",
          "type": "uint256"
        }
      ],
      "stateMutability": "view",
      "type": "function"
    },
    {
      "inputs": [
        {
          "internalType": "bytes32",
          "name": "nodeId",
          "type": "bytes32"
        },
        {
          "internalType": "string",
          "name": "reason",
          "type": "string"
        }
      ],
      "name": "slashNode",
      "outputs": [],
      "stateMutability": "nonpayable",
      "type": "function"
    },
    {
      "inputs": [],
      "name": "slashPenaltyPercent",
      "outputs": [
        {
          "internalType": "uint256",
          "name": "",
          "type": "uint256"
        }
      ],
      "stateMutability": "view",
      "type": "function"
    },
    {
      "inputs": [],
      "name": "storageBonusMultiplier",
      "outputs": [
        {
          "internalType": "uint256",
          "name": "",
          "type": "uint256"
        }
      ],
      "stateMutability": "view",
      "type": "function"
    },
    {
      "inputs": [],
      "name": "totalDistributed",
      "outputs": [
        {
          "internalType": "uint256",
          "name": "",
          "type": "uint256"
        }
      ],
      "stateMutability": "view",
      "type": "function"
    },
    {
      "inputs": [
        {
          "internalType": "address",
          "name": "newOwner",
          "type": "address"
        }
      ],
      "name": "transferOwnership",
      "outputs": [],
      "stateMutability": "nonpayable",
      "type": "function"
    },
    {
      "inputs": [],
      "name": "unpause",
      "outputs": [],
      "stateMutability": "nonpayable",
      "type": "function"
    },
    {
      "inputs": [
        {
          "internalType": "bytes32",
          "name": "nodeId",
          "type": "bytes32"
        }
      ],
      "name": "unslashNode",
      "outputs": [],
      "stateMutability": "nonpayable",
      "type": "function"
    },
    {
      "stateMutability": "payable",
      "type": "receive"
    }
  ],
  "bytecode": "0x608080604052346100b65733156100a05760008054336001600160a01b0319821681178355604080519390929091906001600160a01b03167f8be0079c531659141344cd1fd0a4f28419497f9722a3daafe3b4186f6b6457e08380a360018055670de0b6b3a764000060055560646006556101f460075560326008556007600955338152600c60205220600160ff1982541617905561149f90816100bc8239f35b631e4fbdf760e01b815260006004820152602490fd5b600080fdfe6080604052600436101561002a575b361561001957600080fd5b61002534600a5461119e565b600a55005b60003560e01c80630373a23a1461110a5780631e1bff3f1461108b57806323d5cf511461106d5780633f4ba83a146110035780633ffc8bc914610fd7578063448392c714610cea578063486e28e914610c3e5780635c975abb14610c1b5780635cfe49b914610ae957806361edd67714610ac85780636db824f714610a6857806370f37d27146109dd578063715018a614610984578063757c1c25146109665780637a5c08ae146109485780637ff4a6c51461092a5780638456cb59146108d0578063879dad92146108685780638d811c6b146108175780638da5cb5b146107ee578063938d967a146107915780639ca0e03c14610723578063b98bcfa514610705578063bbb85188146106d6578063bcb3c963146106b5578063cff7498f14610697578063db2e21bc14610625578063debfda30146105e6578063e86551e5146104d6578063ee201716146104a2578063efca2eed14610484578063f2fde38b146103f65763f54140230361000e57346103f1576020806003193601126103f1576004356002600154146103df5760026001556101c66113b4565b6000818152600d835260409020546001600160a01b03908116929083156103aa57833314908115610391575b8115610383575b501561034e578160005260038152604060002080549081156103145781600a54106102cf57806000600192550161023182825461119e565b905561023f81600a546113f1565b600a5561024e81600b5461119e565b600b55600080808084885af161026261141e565b501561029857907ffe236dfc7ce073698734b89da1aee0e7551c9c6d264404c502e6e8fefc1132a891604051908152a360018055005b60405162461bcd60e51b815260048101839052600f60248201526e151c985b9cd9995c8819985a5b1959608a1b6044820152606490fd5b60405162461bcd60e51b815260048101849052601960248201527f496e73756666696369656e7420706f6f6c2062616c616e6365000000000000006044820152606490fd5b60405162461bcd60e51b81526004810184905260126024820152714e6f2070656e64696e67207265776172647360701b6044820152606490fd5b6064906040519062461bcd60e51b82526004820152600e60248201526d139bdd08185d5d1a1bdc9a5e995960921b6044820152fd5b9050600054163314386101f9565b905033600052600c825260ff60406000205416906101f2565b60405162461bcd60e51b815260048101839052600d60248201526c139bc81dd85b1b195d081cd95d609a1b6044820152606490fd5b604051633ee5aeb560e01b8152600490fd5b600080fd5b346103f15760203660031901126103f15761040f61112b565b610417611172565b6001600160a01b0390811690811561046b57600054826bffffffffffffffffffffffff60a01b821617600055167f8be0079c531659141344cd1fd0a4f28419497f9722a3daafe3b4186f6b6457e0600080a3005b604051631e4fbdf760e01b815260006004820152602490fd5b346103f15760003660031901126103f1576020600b54604051908152f35b346103f15760203660031901126103f157600435600052600d602052602060018060a01b0360406000205416604051908152f35b346103f15760403660031901126103f1576004356024356001600160a01b03818116918290036103f1576105249033600052600c60205260ff604060002054169081156105d8575b506111ab565b80156105a25760207f1f1f2d9f286cbe7035ecf63bf75a0507775286669caf2ac60ae843f4b16303579183600052600d82526040600020816bffffffffffffffffffffffff60a01b825416179055600382526002604060002001805415610590575b50604051908152a2005b42905561059c846111e9565b84610586565b60405162461bcd60e51b815260206004820152600e60248201526d125b9d985b1a59081dd85b1b195d60921b6044820152606490fd5b90506000541633148461051e565b346103f15760203660031901126103f1576001600160a01b0361060761112b565b16600052600c602052602060ff604060002054166040519015158152f35b346103f15760003660031901126103f15761063e611172565b60008080804760018060a01b038254165af161065861141e565b501561066057005b60405162461bcd60e51b815260206004820152600f60248201526e15da5d1a191c985dc819985a5b1959608a1b6044820152606490fd5b346103f15760003660031901126103f1576020600754604051908152f35b346103f15760203660031901126103f1576106ce611172565b600435600755005b346103f15760003660031901126103f1576060600a54600b546004549060405192835260208301526040820152f35b346103f15760003660031901126103f1576020600854604051908152f35b346103f15760203660031901126103f15733600052600c60205260ff60406000205416801561077d575b610756906111ab565b600435600052600360205260406000206004810160ff198154169055600242910155600080f35b506000546001600160a01b0316331461074d565b346103f15760203660031901126103f157600435600052600360205260a06040600020805490600181015490600281015460ff60046003840154930154169260405194855260208501526040840152606083015215156080820152f35b346103f15760003660031901126103f1576000546040516001600160a01b039091168152602090f35b346103f15760203660031901126103f1576004356004548110156103f15760209060046000527f8a35acfbc15ff81a39ae7d344fd709f28e8600b4aa8c65c6b64bfe7fe36bd19b0154604051908152f35b346103f15760a03660031901126103f15733600052600c60205260ff6040600020541680156108bc575b61089b906111ab565b6108a36113b4565b6108ba608435606435604435602435600435611275565b005b506000546001600160a01b03163314610892565b346103f15760003660031901126103f1576108e9611172565b6108f16113b4565b600160ff1960025416176002557f62e78cea01bee320cd4e420270b5ea74000d11b0c9f74754ebdbfc544b05a2586020604051338152a1005b346103f15760003660031901126103f1576020600954604051908152f35b346103f15760003660031901126103f1576020600a54604051908152f35b346103f15760003660031901126103f1576020600554604051908152f35b346103f15760003660031901126103f15761099d611172565b600080546001600160a01b0319811682556001600160a01b03167f8be0079c531659141344cd1fd0a4f28419497f9722a3daafe3b4186f6b6457e08280a3005b60003660031901126103f1573415610a33576109fb34600a5461119e565b80600a556040519034825260208201527fce66f10ae4269ec7bfd83e4659aed202bd4efb93d241bae453642969c2f079d360403392a2005b60405162461bcd60e51b815260206004820152600d60248201526c26bab9ba1039b2b732102b21a760991b6044820152606490fd5b346103f15760203660031901126103f157600435610a84611172565b60648111610a9157600855005b60405162461bcd60e51b815260206004820152600f60248201526e125b9d985b1a59081c195c98d95b9d608a1b6044820152606490fd5b346103f15760203660031901126103f157610ae1611172565b600435600655005b346103f15760403660031901126103f15760043567ffffffffffffffff6024358181116103f157366023820112156103f15780600401359182116103f15736602483830101116103f15760607f2e2689c3d478097aae83cf665fd1a2a129def6bf175ced7accbc1f395138362c9233600052600c60205260ff604060002054168015610c07575b610b79906111ab565b8460005260036020526040600020906004825492610ba66064610b9e60085487611262565b0480956113f1565b815560038101610bb681546113d2565b905501600160ff19825416179055610bd082600a5461119e565b600a5580602460405195869485526040602086015282604086015201848401376000828201840152601f01601f19168101030190a2005b506000546001600160a01b03163314610b70565b346103f15760003660031901126103f157602060ff600254166040519015158152f35b346103f15760203660031901126103f15760006080610c5b6113fe565b8281528260208201528260408201528260608201520152600435600052600360205260a06040600020610c8c6113fe565b81549182825260018101546020830190815260028201549060408401918252608060ff600460038601549560608801968752015416940193151584526040519485525160208501525160408401525160608301525115156080820152f35b346103f15760a03660031901126103f15767ffffffffffffffff6004358181116103f157610d1c903690600401611141565b6024929192358281116103f157610d37903690600401611141565b9290916044358281116103f157610d52903690600401611141565b9590926064358181116103f157610d6d903690600401611141565b90916084359081116103f157610d87903690600401611141565b9533600052600c60205260ff604060002054168015610fc3575b610daa906111ab565b610db26113b4565b88861480610fba575b80610fb1575b80610fa8575b15610f6b5760005b868110610dd857005b610de38188886113e1565b35600052600360205260406000209060ff600483015416610f6157600282015415610f42575b610e14818c8c6113e1565b3591670de0b6b3a7640000928084810204841481151715610f2c5787838f928d610e85610e7b848d610e75610e6b8f8f9b8591610e64600554610e5d6127109e8f9d8e956113e1565b3590611262565b049c6113e1565b3560065490611262565b976113e1565b3560075490611262565b04938383018311610f2c57610eb669021e19e0c9bab240000095610ec1956018610ecf9b610ebc960204950161119e565b90611262565b611262565b0480610ed4575b50506113d2565b610dcf565b604081610f037f5470cc99038f326ef796f0210393438f4f315f8cb6f55d79bf34e9efb322511093855461119e565b93848155600242910155610f18858d8d6113e1565b359382519182526020820152a28c80610ec8565b634e487b7160e01b600052601160045260246000fd5b426002830155610f5c610f56828a8a6113e1565b356111e9565b610e09565b610ecf91506113d2565b60405162461bcd60e51b8152602060048201526015602482015274082e4e4c2f240d8cadccee8d040dad2e6dac2e8c6d605b1b6044820152606490fd5b50868614610dc7565b50828614610dc1565b50898614610dbb565b506000546001600160a01b03163314610da1565b346103f15760203660031901126103f15760043560005260036020526020604060002054604051908152f35b346103f15760003660031901126103f15761101c611172565b60025460ff81161561105b5760ff19166002557f5db9ee0a495bf2e6ff9c91a7834c1ba4fdd244a5e8aa4e537bd38aeae4b073aa6020604051338152a1005b604051638dfc202b60e01b8152600490fd5b346103f15760003660031901126103f1576020600654604051908152f35b346103f15760403660031901126103f1576110a461112b565b602435908115158092036103f15760207f9fdbc2d48b8a0db2f62663bf9312ad02f5b1f6414ad600b55a247d09aeec3ea2916110de611172565b60018060a01b03169283600052600c8252604060002060ff1981541660ff8316179055604051908152a2005b346103f15760203660031901126103f157611123611172565b600435600555005b600435906001600160a01b03821682036103f157565b9181601f840112156103f15782359167ffffffffffffffff83116103f1576020808501948460051b0101116103f157565b6000546001600160a01b0316330361118657565b60405163118cdaa760e01b8152336004820152602490fd5b91908201809211610f2c57565b156111b257565b60405162461bcd60e51b815260206004820152600f60248201526e2737ba1030b71032bc32b1baba37b960891b6044820152606490fd5b6004546801000000000000000081101561124c5760018101806004558110156112365760046000527f8a35acfbc15ff81a39ae7d344fd709f28e8600b4aa8c65c6b64bfe7fe36bd19b0155565b634e487b7160e01b600052603260045260246000fd5b634e487b7160e01b600052604160045260246000fd5b81810292918115918404141715610f2c57565b939190926000938585526003602052604085209460ff6004870154166113ab57600286019485541561139a575b670de0b6b3a76400009283810293818504149015171561138657906112d9949392916112ee6112e461271080988194600554611262565b049660065490611262565b9460075490611262565b04928501809511611372575061131b92610eb669021e19e0c9bab240000095936018610ebc94049461119e565b0480611328575b50505050565b82604092611358837f5470cc99038f326ef796f0210393438f4f315f8cb6f55d79bf34e9efb3225110965461119e565b80925542905582519182526020820152a238808080611322565b634e487b7160e01b81526011600452602490fd5b634e487b7160e01b82526011600452602482fd5b4286556113a6886111e9565b6112a2565b50505050505050565b60ff600254166113c057565b60405163d93c066560e01b8152600490fd5b6000198114610f2c5760010190565b91908110156112365760051b0190565b91908203918211610f2c57565b6040519060a0820182811067ffffffffffffffff82111761124c57604052565b3d156114645767ffffffffffffffff903d82811161124c5760405192601f8201601f19908116603f011684019081118482101761124c5760405282523d6000602084013e565b60609056fea2646970667358221220f0e5e8726c797b2d28ddb5634e2165e3a85c5b68347358f1dff911b7d315405864736f6c63430008140033",
  "linkReferences": {},
  "deployedLinkReferences": {}
}