{
  "_format": "hh-sol-artifact-1",
  "contractName": "VisionAgentSBT",
  "sourceName": "contracts/VisionAgentSBT.sol",
  "abi": [
    {
      "inputs": [],
      "stateMutability": "nonpayable",
      "type": "constructor"
    },
    {
      "inputs": [],
      "name": "AgentNameTaken",
      "type": "error"
    },
    {
      "inputs": [],
      "name": "AlreadyHasSBT",
      "type": "error"
    },
    {
      "inputs": [
        {
          "internalType": "address",
          "name": "sender",
          "type": "address"
        },
        {
          "internalType": "uint256",
          "name": "tokenId",
          "type": "uint256"
        },
        {
          "internalType": "address",
          "name": "owner",
          "type": "address"
        }
      ],
      "name": "ERC721IncorrectOwner",
      "type": "error"
    },
    {
      "inputs": [
        {
          "internalType": "address",
          "name": "operator",
          "type": "address"
        },
        {
          "internalType": "uint256",
          "name": "tokenId",
          "type": "uint256"
        }
      ],
      "name": "ERC721InsufficientApproval",
      "type": "error"
    },
    {
      "inputs": [
        {
          "internalType": "address",
          "name": "approver",
          "type": "address"
        }
      ],
      "name": "ERC721InvalidApprover",
      "type": "error"
    },
    {
      "inputs": [
        {
          "internalType": "address",
          "name": "operator",
          "type": "address"
        }
      ],
      "name": "ERC721InvalidOperator",
      "type": "error"
    },
    {
      "inputs": [
        {
          "internalType": "address",
          "name": "owner",
          "type": "address"
        }
      ],
      "name": "ERC721InvalidOwner",
      "type": "error"
    },
    {
      "inputs": [
        {
          "internalType": "address",
          "name": "receiver",
          "type": "address"
        }
      ],
      "name": "ERC721InvalidReceiver",
      "type": "error"
    },
    {
      "inputs": [
        {
          "internalType": "address",
          "name": "sender",
          "type": "address"
        }
      ],
      "name": "ERC721InvalidSender",
      "type": "error"
    },
    {
      "inputs": [
        {
          "internalType": "uint256",
          "name": "tokenId",
          "type": "uint256"
        }
      ],
      "name": "ERC721NonexistentToken",
      "type": "error"
    },
    {
      "inputs": [],
      "name": "EmptyName",
      "type": "error"
    },
    {
      "inputs": [],
      "name": "NotMinter",
      "type": "error"
    },
    {
      "inputs": [
        {
          "internalType": "address",
          "name": "owner",
          "type": "address"
        }
      ],
      "name": "OwnableInvalidOwner",
      "type": "error"
    },
    {
      "inputs": [
        {
          "internalType": "address",
          "name": "account",
          "type": "address"
        }
      ],
      "name": "OwnableUnauthorizedAccount",
      "type": "error"
    },
    {
      "inputs": [],
      "name": "SoulBound",
      "type": "error"
    },
    {
      "anonymous": false,
      "inputs": [
        {
          "indexed": true,
          "internalType": "address",
          "name": "owner",
          "type": "address"
        },
        {
          "indexed": true,
          "internalType": "address",
          "name": "approved",
          "type": "address"
        },
        {
          "indexed": true,
          "internalType": "uint256",
          "name": "tokenId",
          "type": "uint256"
        }
      ],
      "name": "Approval",
      "type": "event"
    },
    {
      "anonymous": false,
      "inputs": [
        {
          "indexed": true,
          "internalType": "address",
          "name": "owner",
          "type": "address"
        },
        {
          "indexed": true,
          "internalType": "address",
          "name": "operator",
          "type": "address"
        },
        {
          "indexed": false,
          "internalType": "bool",
          "name": "approved",
          "type": "bool"
        }
      ],
      "name": "ApprovalForAll",
      "type": "event"
    },
    {
      "anonymous": false,
      "inputs": [
        {
          "indexed": false,
          "internalType": "uint256",
          "name": "tokenId",
          "type": "uint256"
        }
      ],
      "name": "Locked",
      "type": "event"
    },
    {
      "anonymous": false,
      "inputs": [
        {
          "indexed": true,
          "internalType": "address",
          "name": "previousOwner",
          "type": "address"
        },
        {
          "indexed": true,
          "internalType": "address",
          "name": "newOwner",
          "type": "address"
        }
      ],
      "name": "OwnershipTransferred",
      "type": "event"
    },
    {
      "anonymous": false,
      "inputs": [
        {
          "indexed": true,
          "internalType": "address",
          "name": "from",
          "type": "address"
        },
        {
          "indexed": true,
          "internalType": "address",
          "name": "to",
          "type": "address"
        },
        {
          "indexed": true,
          "internalType": "uint256",
          "name": "tokenId",
          "type": "uint256"
        }
      ],
      "name": "Transfer",
      "type": "event"
    },
    {
      "inputs": [
        {
          "internalType": "uint256",
          "name": "",
          "type": "uint256"
        }
      ],
      "name": "agentInfo",
      "outputs": [
        {
          "internalType": "string",
          "name": "agentName",
          "type": "string"
        },
        {
          "internalType": "string",
          "name": "platform",
          "type": "string"
        },
        {
          "internalType": "uint256",
          "name": "mintedAt",
          "type": "uint256"
        }
      ],
      "stateMutability": "view",
      "type": "function"
    },
    {
      "inputs": [
        {
          "internalType": "address",
          "name": "",
          "type": "address"
        }
      ],
      "name": "agentTokenOf",
      "outputs": [
        {
          "internalType": "uint256",
          "name": "",
          "type": "uint256"
        }
      ],
      "stateMutability": "view",
      "type": "function"
    },
    {
      "inputs": [
        {
          "internalType": "address",
          "name": "to",
          "type": "address"
        },
        {
          "internalType": "uint256",
          "name": "tokenId",
          "type": "uint256"
        }
      ],
      "name": "approve",
      "outputs": [],
      "stateMutability": "nonpayable",
      "type": "function"
    },
    {
      "inputs": [
        {
          "internalType": "address",
          "name": "owner",
          "type": "address"
        }
      ],
      "name": "balanceOf",
      "outputs": [
        {
          "internalType": "uint256",
          "name": "",
          "type": "uint256"
        }
      ],
      "stateMutability": "view",
      "type": "function"
    },
    {
      "inputs": [
        {
          "internalType": "address",
          "name": "wallet",
          "type": "address"
        }
      ],
      "name": "getAgentByAddress",
      "outputs": [
        {
          "internalType": "uint256",
          "name": "tokenId",
          "type": "uint256"
        },
        {
          "internalType": "string",
          "name": "agentName",
          "type": "string"
        },
        {
          "internalType": "string",
          "name": "platform",
          "type": "string"
        },
        {
          "internalType": "uint256",
          "name": "mintedAt",
          "type": "uint256"
        }
      ],
      "stateMutability": "view",
      "type": "function"
    },
    {
      "inputs": [
        {
          "internalType": "uint256",
          "name": "tokenId",
          "type": "uint256"
        }
      ],
      "name": "getApproved",
      "outputs": [
        {
          "internalType": "address",
          "name": "",
          "type": "address"
        }
      ],
      "stateMutability": "view",
      "type": "function"
    },
    {
      "inputs": [
        {
          "internalType": "address",
          "name": "owner",
          "type": "address"
        },
        {
          "internalType": "address",
          "name": "operator",
          "type": "address"
        }
      ],
      "name": "isApprovedForAll",
      "outputs": [
        {
          "internalType": "bool",
          "name": "",
          "type": "bool"
        }
      ],
      "stateMutability": "view",
      "type": "function"
    },
    {
      "inputs": [
        {
          "internalType": "address",
          "name": "",
          "type": "address"
        }
      ],
      "name": "isMinter",
      "outputs": [
        {
          "internalType": "bool",
          "name": "",
          "type": "bool"
        }
      ],
      "stateMutability": "view",
      "type": "function"
    },
    {
      "inputs": [
        {
          "internalType": "uint256",
          "name": "tokenId",
          "type": "uint256"
        }
      ],
      "name": "locked",
      "outputs": [
        {
          "internalType": "bool",
          "name": "",
          "type": "bool"
        }
      ],
      "stateMutability": "view",
      "type": "function"
    },
    {
      "inputs": [
        {
          "internalType": "address",
          "name": "to",
          "type": "address"
        },
        {
          "internalType": "string",
          "name": "agentName",
          "type": "string"
        },
        {
          "internalType": "string",
          "name": "platform",
          "type": "string"
        }
      ],
      "name": "mintAgentIdentity",
      "outputs": [
        {
          "internalType": "uint256",
          "name": "",
          "type": "uint256"
        }
      ],
      "stateMutability": "nonpayable",
      "type": "function"
    },
    {
      "inputs": [],
      "name": "name",
      "outputs": [
        {
          "internalType": "string",
          "name": "",
          "type": "string"
        }
      ],
      "stateMutability": "view",
      "type": "function"
    },
    {
      "inputs": [
        {
          "internalType": "bytes32",
          "name": "",
          "type": "bytes32"
        }
      ],
      "name": "nameExists",
      "outputs": [
        {
          "internalType": "bool",
          "name": "",
          "type": "bool"
        }
      ],
      "stateMutability": "view",
      "type": "function"
    },
    {
      "inputs": [],
      "name": "owner",
      "outputs": [
        {
          "internalType": "address",
          "name": "",
          "type": "address"
        }
      ],
      "stateMutability": "view",
      "type": "function"
    },
    {
      "inputs": [
        {
          "internalType": "uint256",
          "name": "tokenId",
          "type": "uint256"
        }
      ],
      "name": "ownerOf",
      "outputs": [
        {
          "internalType": "address",
          "name": "",
          "type": "address"
        }
      ],
      "stateMutability": "view",
      "type": "function"
    },
    {
      "inputs": [],
      "name": "renounceOwnership",
      "outputs": [],
      "stateMutability": "nonpayable",
      "type": "function"
    },
    {
      "inputs": [
        {
          "internalType": "address",
          "name": "from",
          "type": "address"
        },
        {
          "internalType": "address",
          "name": "to",
          "type": "address"
        },
        {
          "internalType": "uint256",
          "name": "tokenId",
          "type": "uint256"
        }
      ],
      "name": "safeTransferFrom",
      "outputs": [],
      "stateMutability": "nonpayable",
      "type": "function"
    },
    {
      "inputs": [
        {
          "internalType": "address",
          "name": "from",
          "type": "address"
        },
        {
          "internalType": "address",
          "name": "to",
          "type": "address"
        },
        {
          "internalType": "uint256",
          "name": "tokenId",
          "type": "uint256"
        },
        {
          "internalType": "bytes",
          "name": "data",
          "type": "bytes"
        }
      ],
      "name": "safeTransferFrom",
      "outputs": [],
      "stateMutability": "nonpayable",
      "type": "function"
    },
    {
      "inputs": [
        {
          "internalType": "address",
          "name": "operator",
          "type": "address"
        },
        {
          "internalType": "bool",
          "name": "approved",
          "type": "bool"
        }
      ],
      "name": "setApprovalForAll",
      "outputs": [],
      "stateMutability": "nonpayable",
      "type": "function"
    },
    {
      "inputs": [
        {
          "internalType": "address",
          "name": "minter",
          "type": "address"
        },
        {
          "internalType": "bool",
          "name": "allowed",
          "type": "bool"
        }
      ],
      "name": "setMinter",
      "outputs": [],
      "stateMutability": "nonpayable",
      "type": "function"
    },
    {
      "inputs": [
        {
          "internalType": "bytes4",
          "name": "interfaceId",
          "type": "bytes4"
        }
      ],
      "name": "supportsInterface",
      "outputs": [
        {
          "internalType": "bool",
          "name": "",
          "type": "bool"
        }
      ],
      "stateMutability": "view",
      "type": "function"
    },
    {
      "inputs": [],
      "name": "symbol",
      "outputs": [
        {
          "internalType": "string",
          "name": "",
          "type": "string"
        }
      ],
      "stateMutability": "view",
      "type": "function"
    },
    {
      "inputs": [
        {
          "internalType": "uint256",
          "name": "tokenId",
          "type": "uint256"
        }
      ],
      "name": "tokenURI",
      "outputs": [
        {
          "internalType": "string",
          "name": "",
          "type": "string"
        }
      ],
      "stateMutability": "view",
      "type": "function"
    },
    {
      "inputs": [],
      "name": "totalSupply",
      "outputs": [
        {
          "internalType": "uint256",
          "name": "",
          "type": "uint256"
        }
      ],
      "stateMutability": "view",
      "type": "function"
    },
    {
      "inputs": [
        {
          "internalType": "address",
          "name": "from",
          "type": "address"
        },
        {
          "internalType": "address",
          "name": "to",
          "type": "address"
        },
        {
          "internalType": "uint256",
          "name": "tokenId",
          "type": "uint256"
        }
      ],
      "name": "transferFrom",
      "outputs": [],
      "stateMutability": "nonpayable",
      "type": "function"
    },
    {
      "inputs": [
        {
          "internalType": "address",
          "name": "newOwner",
          "type": "address"
        }
      ],
      "name": "transferOwnership",
      "outputs": [],
      "stateMutability": "nonpayable",
      "type": "function"
    }
  ],
  "bytecode": "0x60806040523480156200001157600080fd5b50336040518060400160405280601581526020017f566973696f6e204167656e74204964656e74697479000000000000000000000081525060405180604001604052806005815260200164159054d09560da1b8152508160009081620000789190620001e3565b506001620000878282620001e3565b5050506001600160a01b038116620000b957604051631e4fbdf760e01b81526000600482015260240160405180910390fd5b620000c481620000ec565b5060016007819055336000908152600b60205260409020805460ff19169091179055620002af565b600680546001600160a01b038381166001600160a01b0319831681179093556040519116919082907f8be0079c531659141344cd1fd0a4f28419497f9722a3daafe3b4186f6b6457e090600090a35050565b634e487b7160e01b600052604160045260246000fd5b600181811c908216806200016957607f821691505b6020821081036200018a57634e487b7160e01b600052602260045260246000fd5b50919050565b601f821115620001de57600081815260208120601f850160051c81016020861015620001b95750805b601f850160051c820191505b81811015620001da57828155600101620001c5565b5050505b505050565b81516001600160401b03811115620001ff57620001ff6200013e565b620002178162000210845462000154565b8462000190565b602080601f8311600181146200024f5760008415620002365750858301515b600019600386901b1c1916600185901b178555620001da565b600085815260208120601f198616915b8281101562000280578886015182559484019460019091019084016200025f565b50858210156200029f5787850151600019600388901b60f8161c191681555b5050505050600190811b01905550565b6121e080620002bf6000396000f3fe608060405234801561001057600080fd5b50600436106101735760003560e01c8063864f976f116100de578063b80180e711610097578063cf456ae711610071578063cf456ae71461035f578063e68dd34214610372578063e985e9c514610395578063f2fde38b146103a857600080fd5b8063b80180e714610319578063b88d4fde14610339578063c87b56dd1461034c57600080fd5b8063864f976f146102a45780638da5cb5b146102b757806395d89b41146102c8578063a22cb465146102d0578063aa271e1a146102e3578063b45a3c0e1461030657600080fd5b806323b872dd1161013057806323b872dd1461022e57806342842e0e14610241578063525f91d8146102545780636352211e1461027657806370a0823114610289578063715018a61461029c57600080fd5b806301ffc9a71461017857806306fdde03146101a0578063081812fc146101b5578063095ea7b3146101e0578063143dc3f8146101f557806318160ddd14610218575b600080fd5b61018b610186366004611880565b6103bb565b60405190151581526020015b60405180910390f35b6101a86103e6565b60405161019791906118f4565b6101c86101c3366004611907565b610478565b6040516001600160a01b039091168152602001610197565b6101f36101ee36600461193c565b6104a1565b005b61018b610203366004611907565b600a6020526000908152604090205460ff1681565b6102206104b0565b604051908152602001610197565b6101f361023c366004611966565b6104c6565b6101f361024f366004611966565b610556565b610267610262366004611907565b610576565b604051610197939291906119a2565b6101c8610284366004611907565b6106a8565b6102206102973660046119d8565b6106b3565b6101f36106fb565b6102206102b2366004611a3c565b61070f565b6006546001600160a01b03166101c8565b6101a8610999565b6101f36102de366004611abd565b6109a8565b61018b6102f13660046119d8565b600b6020526000908152604090205460ff1681565b61018b610314366004611907565b6109b3565b6102206103273660046119d8565b60096020526000908152604090205481565b6101f3610347366004611b0f565b6109c7565b6101a861035a366004611907565b6109df565b6101f361036d366004611abd565b610ba5565b6103856103803660046119d8565b610bd8565b6040516101979493929190611beb565b61018b6103a3366004611c28565b610d8a565b6101f36103b63660046119d8565b610db8565b6000635a2d1e0760e11b6001600160e01b0319831614806103e057506103e082610df6565b92915050565b6060600080546103f590611c5b565b80601f016020809104026020016040519081016040528092919081815260200182805461042190611c5b565b801561046e5780601f106104435761010080835404028352916020019161046e565b820191906000526020600020905b81548152906001019060200180831161045157829003601f168201915b5050505050905090565b600061048382610e46565b506000828152600460205260409020546001600160a01b03166103e0565b6104ac828233610e7f565b5050565b600060016007546104c19190611cab565b905090565b6001600160a01b0382166104f557604051633250574960e11b8152600060048201526024015b60405180910390fd5b6000610502838333610e8c565b9050836001600160a01b0316816001600160a01b031614610550576040516364283d7b60e01b81526001600160a01b03808616600483015260248201849052821660448201526064016104ec565b50505050565b610571838383604051806020016040528060008152506109c7565b505050565b60086020526000908152604090208054819061059190611c5b565b80601f01602080910402602001604051908101604052809291908181526020018280546105bd90611c5b565b801561060a5780601f106105df5761010080835404028352916020019161060a565b820191906000526020600020905b8154815290600101906020018083116105ed57829003601f168201915b50505050509080600101805461061f90611c5b565b80601f016020809104026020016040519081016040528092919081815260200182805461064b90611c5b565b80156106985780601f1061066d57610100808354040283529160200191610698565b820191906000526020600020905b81548152906001019060200180831161067b57829003601f168201915b5050505050908060020154905083565b60006103e082610e46565b60006001600160a01b0382166106df576040516322718ad960e21b8152600060048201526024016104ec565b506001600160a01b031660009081526003602052604090205490565b610703610ed7565b61070d6000610f04565b565b336000908152600b602052604081205460ff1615801561073a57506006546001600160a01b03163314155b1561075857604051633e34a41b60e21b815260040160405180910390fd5b600084900361077a57604051632ef1310560e01b815260040160405180910390fd5b6001600160a01b038616600090815260096020526040902054156107b1576040516371b95a0b60e01b815260040160405180910390fd5b60006107f286868080601f016020809104026020016040519081016040528093929190818152602001838380828437600092019190915250610f5692505050565b6040516020016108029190611cda565b60408051601f1981840301815291815281516020928301206000818152600a90935291205490915060ff161561084b57604051639b08112560e01b815260040160405180910390fd5b600780546000918261085c83611cf6565b909155506000838152600a60209081526040808320805460ff191660011790556001600160a01b038c168352600982529182902083905581516080601f8b018390049092028101820190925260608201898152929350909182918a908a9081908501838280828437600092019190915250505090825250604080516020601f8901819004810282018101909252878152918101919088908890819084018382808284376000920182905250938552505042602093840152508381526008909152604090208151819061092e9082611d55565b50602082015160018201906109439082611d55565b506040820151816002015590505061095b88826110cd565b6040518181527f032bc66be43dbccb7487781d168eb7bda224628a3b2c3388bdf69b532a3a16119060200160405180910390a1979650505050505050565b6060600180546103f590611c5b565b6104ac3383836110e7565b60006109be82610e46565b50600192915050565b6109d28484846104c6565b6105503385858585611186565b60606109ea82610e46565b50600082815260086020526040808220815160608101909252805482908290610a1290611c5b565b80601f0160208091040260200160405190810160405280929190818152602001828054610a3e90611c5b565b8015610a8b5780601f10610a6057610100808354040283529160200191610a8b565b820191906000526020600020905b815481529060010190602001808311610a6e57829003601f168201915b50505050508152602001600182018054610aa490611c5b565b80601f0160208091040260200160405190810160405280929190818152602001828054610ad090611c5b565b8015610b1d5780601f10610af257610100808354040283529160200191610b1d565b820191906000526020600020905b815481529060010190602001808311610b0057829003601f168201915b5050505050815260200160028201548152505090506000816000015182600001518360200151610b5085604001516112b1565b604051602001610b639493929190611e15565b6040516020818303038152906040529050610b7d816113ba565b604051602001610b8d9190612034565b60405160208183030381529060405292505050919050565b610bad610ed7565b6001600160a01b03919091166000908152600b60205260409020805460ff1916911515919091179055565b6001600160a01b038116600090815260096020526040812054906060908190838103610c26575050604080516020808201835260008083528351918201909352828152919350915082610d83565b600084815260086020526040808220815160608101909252805482908290610c4d90611c5b565b80601f0160208091040260200160405190810160405280929190818152602001828054610c7990611c5b565b8015610cc65780601f10610c9b57610100808354040283529160200191610cc6565b820191906000526020600020905b815481529060010190602001808311610ca957829003601f168201915b50505050508152602001600182018054610cdf90611c5b565b80601f0160208091040260200160405190810160405280929190818152602001828054610d0b90611c5b565b8015610d585780601f10610d2d57610100808354040283529160200191610d58565b820191906000526020600020905b815481529060010190602001808311610d3b57829003601f168201915b5050509183525050600291909101546020918201528151908201516040909201519095509093509150505b9193509193565b6001600160a01b03918216600090815260056020908152604080832093909416825291909152205460ff1690565b610dc0610ed7565b6001600160a01b038116610dea57604051631e4fbdf760e01b8152600060048201526024016104ec565b610df381610f04565b50565b60006001600160e01b031982166380ac58cd60e01b1480610e2757506001600160e01b03198216635b5e139f60e01b145b806103e057506301ffc9a760e01b6001600160e01b03198316146103e0565b6000818152600260205260408120546001600160a01b0316806103e057604051637e27328960e01b8152600481018490526024016104ec565b6105718383836001611527565b6000828152600260205260408120546001600160a01b03168015610ec357604051631267838f60e11b815260040160405180910390fd5b610ece85858561162d565b95945050505050565b6006546001600160a01b0316331461070d5760405163118cdaa760e01b81523360048201526024016104ec565b600680546001600160a01b038381166001600160a01b0319831681179093556040519116919082907f8be0079c531659141344cd1fd0a4f28419497f9722a3daafe3b4186f6b6457e090600090a35050565b606060008290506000815167ffffffffffffffff811115610f7957610f79611af9565b6040519080825280601f01601f191660200182016040528015610fa3576020820181803683370190505b50905060005b82518110156110c557604160f81b838281518110610fc957610fc9612079565b01602001516001600160f81b0319161080159061100a5750605a60f81b838281518110610ff857610ff8612079565b01602001516001600160f81b03191611155b1561106c5782818151811061102157611021612079565b602001015160f81c60f81b60f81c602061103b919061208f565b60f81b82828151811061105057611050612079565b60200101906001600160f81b031916908160001a9053506110b3565b82818151811061107e5761107e612079565b602001015160f81c60f81b82828151811061109b5761109b612079565b60200101906001600160f81b031916908160001a9053505b806110bd81611cf6565b915050610fa9565b509392505050565b6104ac828260405180602001604052806000815250611726565b6001600160a01b03821661111957604051630b61174360e31b81526001600160a01b03831660048201526024016104ec565b6001600160a01b03838116600081815260056020908152604080832094871680845294825291829020805460ff191686151590811790915591519182527f17307eab39ab6107e8899845ad3d59bd9653f200f220920489ca2b5937696c31910160405180910390a3505050565b6001600160a01b0383163b156112aa57604051630a85bd0160e11b81526001600160a01b0384169063150b7a02906111c89088908890879087906004016120a8565b6020604051808303816000875af1925050508015611203575060408051601f3d908101601f19168201909252611200918101906120e5565b60015b61126c573d808015611231576040519150601f19603f3d011682016040523d82523d6000602084013e611236565b606091505b50805160000361126457604051633250574960e11b81526001600160a01b03851660048201526024016104ec565b805160208201fd5b6001600160e01b03198116630a85bd0160e11b146112a857604051633250574960e11b81526001600160a01b03851660048201526024016104ec565b505b5050505050565b6060816000036112d85750506040805180820190915260018152600360fc1b602082015290565b8160005b811561130257806112ec81611cf6565b91506112fb9050600a83612118565b91506112dc565b60008167ffffffffffffffff81111561131d5761131d611af9565b6040519080825280601f01601f191660200182016040528015611347576020820181803683370190505b5090505b84156113b25761135c600183611cab565b9150611369600a8661212c565b611374906030612140565b60f81b81838151811061138957611389612079565b60200101906001600160f81b031916908160001a9053506113ab600a86612118565b945061134b565b949350505050565b6060600060405180606001604052806040815260200161216b60409139905082516000036113f8575050604080516020810190915260008152919050565b600060038451600261140a9190612140565b6114149190612118565b61141f906004612153565b9050600061142e826020612140565b67ffffffffffffffff81111561144657611446611af9565b6040519080825280601f01601f191660200182016040528015611470576020820181803683370190505b50905082600181016020830160005b88518110156114e1576003818a01810151603f601282901c8116860151600c83901c8216870151600684901c831688015192909316870151600891821b60ff94851601821b92841692909201901b91160160e01b83526004909201910161147f565b506003885106600181146114fc576002811461150d57611519565b613d3d60f01b600119830152611519565b603d60f81b6000198301525b505050918152949350505050565b808061153b57506001600160a01b03821615155b156115fd57600061154b84610e46565b90506001600160a01b038316158015906115775750826001600160a01b0316816001600160a01b031614155b801561158a57506115888184610d8a565b155b156115b35760405163a9fbf51f60e01b81526001600160a01b03841660048201526024016104ec565b81156115fb5783856001600160a01b0316826001600160a01b03167f8c5be1e5ebec7d5bd14f71427d1e84f3dd0314c0f7b2291e5b200ac8c7c3b92560405160405180910390a45b505b5050600090815260046020526040902080546001600160a01b0319166001600160a01b0392909216919091179055565b6000828152600260205260408120546001600160a01b039081169083161561165a5761165a81848661173e565b6001600160a01b0381161561169857611677600085600080611527565b6001600160a01b038116600090815260036020526040902080546000190190555b6001600160a01b038516156116c7576001600160a01b0385166000908152600360205260409020805460010190555b60008481526002602052604080822080546001600160a01b0319166001600160a01b0389811691821790925591518793918516917fddf252ad1be2c89b69c2b068fc378daa952ba7f163c4a11628f55a4df523b3ef91a4949350505050565b61173083836117a2565b610571336000858585611186565b611749838383611807565b610571576001600160a01b03831661177757604051637e27328960e01b8152600481018290526024016104ec565b60405163177e802f60e01b81526001600160a01b0383166004820152602481018290526044016104ec565b6001600160a01b0382166117cc57604051633250574960e11b8152600060048201526024016104ec565b60006117da83836000610e8c565b90506001600160a01b03811615610571576040516339e3563760e11b8152600060048201526024016104ec565b60006001600160a01b038316158015906113b25750826001600160a01b0316846001600160a01b0316148061184157506118418484610d8a565b806113b25750506000908152600460205260409020546001600160a01b03908116911614919050565b6001600160e01b031981168114610df357600080fd5b60006020828403121561189257600080fd5b813561189d8161186a565b9392505050565b60005b838110156118bf5781810151838201526020016118a7565b50506000910152565b600081518084526118e08160208601602086016118a4565b601f01601f19169290920160200192915050565b60208152600061189d60208301846118c8565b60006020828403121561191957600080fd5b5035919050565b80356001600160a01b038116811461193757600080fd5b919050565b6000806040838503121561194f57600080fd5b61195883611920565b946020939093013593505050565b60008060006060848603121561197b57600080fd5b61198484611920565b925061199260208501611920565b9150604084013590509250925092565b6060815260006119b560608301866118c8565b82810360208401526119c781866118c8565b915050826040830152949350505050565b6000602082840312156119ea57600080fd5b61189d82611920565b60008083601f840112611a0557600080fd5b50813567ffffffffffffffff811115611a1d57600080fd5b602083019150836020828501011115611a3557600080fd5b9250929050565b600080600080600060608688031215611a5457600080fd5b611a5d86611920565b9450602086013567ffffffffffffffff80821115611a7a57600080fd5b611a8689838a016119f3565b90965094506040880135915080821115611a9f57600080fd5b50611aac888289016119f3565b969995985093965092949392505050565b60008060408385031215611ad057600080fd5b611ad983611920565b915060208301358015158114611aee57600080fd5b809150509250929050565b634e487b7160e01b600052604160045260246000fd5b60008060008060808587031215611b2557600080fd5b611b2e85611920565b9350611b3c60208601611920565b925060408501359150606085013567ffffffffffffffff80821115611b6057600080fd5b818701915087601f830112611b7457600080fd5b813581811115611b8657611b86611af9565b604051601f8201601f19908116603f01168101908382118183101715611bae57611bae611af9565b816040528281528a6020848701011115611bc757600080fd5b82602086016020830137600060208483010152809550505050505092959194509250565b848152608060208201526000611c0460808301866118c8565b8281036040840152611c1681866118c8565b91505082606083015295945050505050565b60008060408385031215611c3b57600080fd5b611c4483611920565b9150611c5260208401611920565b90509250929050565b600181811c90821680611c6f57607f821691505b602082108103611c8f57634e487b7160e01b600052602260045260246000fd5b50919050565b634e487b7160e01b600052601160045260246000fd5b818103818111156103e0576103e0611c95565b60008151611cd08185602086016118a4565b9290920192915050565b60008251611cec8184602087016118a4565b9190910192915050565b600060018201611d0857611d08611c95565b5060010190565b601f82111561057157600081815260208120601f850160051c81016020861015611d365750805b601f850160051c820191505b818110156112a857828155600101611d42565b815167ffffffffffffffff811115611d6f57611d6f611af9565b611d8381611d7d8454611c5b565b84611d0f565b602080601f831160018114611db85760008415611da05750858301515b600019600386901b1c1916600185901b1785556112a8565b600085815260208120601f198616915b82811015611de757888601518255948401946001909101908401611dc8565b5085821015611e055787850151600019600388901b60f8161c191681555b5050505050600190811b01905550565b6f03d913730b6b2911d1120b3b2b73a1d160851b81528451600090611e41816010850160208a016118a4565b7f222c226465736372697074696f6e223a22566973696f6e20436861696e2041496010918401918201527f204167656e7420536f756c426f756e64204964656e7469747920546f6b656e2060308201526b0a1152540b4d4c4e4c8a488b60a21b60508201526d2261747472696275746573223a5b60901b605c8201527f7b2274726169745f74797065223a224167656e74204e616d65222c2276616c75606a8201526332911d1160e11b608a8201528551611f0381608e840160208a016118a4565b61202861201a611fdf611fd1611fcb611f7c611f6d611f67611f33608e8a8c010162089f4b60ea1b815260030190565b7f7b2274726169745f74797065223a22506c6174666f726d222c2276616c7565228152611d1160f11b602082015260220190565b8d611cbe565b62089f4b60ea1b815260030190565b7f7b2274726169745f74797065223a224d696e746564204174222c22646973706c81527f61795f74797065223a2264617465222c2276616c7565223a0000000000000000602082015260380190565b89611cbe565b611f4b60f21b815260020190565b7f7b2274726169745f74797065223a22536f756c426f756e64222c2276616c7565815268223a2274727565227d60b81b602082015260290190565b615d7d60f01b815260020190565b98975050505050505050565b7f646174613a6170706c69636174696f6e2f6a736f6e3b6261736536342c00000081526000825161206c81601d8501602087016118a4565b91909101601d0192915050565b634e487b7160e01b600052603260045260246000fd5b60ff81811683821601908111156103e0576103e0611c95565b6001600160a01b03858116825284166020820152604081018390526080606082018190526000906120db908301846118c8565b9695505050505050565b6000602082840312156120f757600080fd5b815161189d8161186a565b634e487b7160e01b600052601260045260246000fd5b60008261212757612127612102565b500490565b60008261213b5761213b612102565b500690565b808201808211156103e0576103e0611c95565b80820281158282048414176103e0576103e0611c9556fe4142434445464748494a4b4c4d4e4f505152535455565758595a6162636465666768696a6b6c6d6e6f707172737475767778797a303132333435363738392b2fa26469706673582212206145e3e39b34d4875af50f8993800b251fca798b3ad2eb29d1bda44bd802ac7964736f6c63430008140033",
  "linkReferences": {},
  "deployedLinkReferences": {}
}