{
  "_format": "hh-sol-artifact-1",
  "contractName": "VisionAgentSBT",
  "sourceName": "contracts/VisionAgentSBT.sol",
  "abi": [
    {
      "inputs": [],
      "stateMutability": "nonpayable",
      "type": "constructor"
    },
    {
      "inputs": [],
      "name": "AgentNameTaken",
      "type": "error"
    },
    {
      "inputs": [],
      "name": "AlreadyHasSBT",
      "type": "error"
    },
    {
      "inputs": [],
      "name": "AlreadyRevoked",
      "type": "error"
    },
    {
      "inputs": [
        {
          "internalType": "address",
          "name": "sender",
          "type": "address"
        },
        {
          "internalType": "uint256",
          "name": "tokenId",
          "type": "uint256"
        },
        {
          "internalType": "address",
          "name": "owner",
          "type": "address"
        }
      ],
      "name": "ERC721IncorrectOwner",
      "type": "error"
    },
    {
      "inputs": [
        {
          "internalType": "address",
          "name": "operator",
          "type": "address"
        },
        {
          "internalType": "uint256",
          "name": "tokenId",
          "type": "uint256"
        }
      ],
      "name": "ERC721InsufficientApproval",
      "type": "error"
    },
    {
      "inputs": [
        {
          "internalType": "address",
          "name": "approver",
          "type": "address"
        }
      ],
      "name": "ERC721InvalidApprover",
      "type": "error"
    },
    {
      "inputs": [
        {
          "internalType": "address",
          "name": "operator",
          "type": "address"
        }
      ],
      "name": "ERC721InvalidOperator",
      "type": "error"
    },
    {
      "inputs": [
        {
          "internalType": "address",
          "name": "owner",
          "type": "address"
        }
      ],
      "name": "ERC721InvalidOwner",
      "type": "error"
    },
    {
      "inputs": [
        {
          "internalType": "address",
          "name": "receiver",
          "type": "address"
        }
      ],
      "name": "ERC721InvalidReceiver",
      "type": "error"
    },
    {
      "inputs": [
        {
          "internalType": "address",
          "name": "sender",
          "type": "address"
        }
      ],
      "name": "ERC721InvalidSender",
      "type": "error"
    },
    {
      "inputs": [
        {
          "internalType": "uint256",
          "name": "tokenId",
          "type": "uint256"
        }
      ],
      "name": "ERC721NonexistentToken",
      "type": "error"
    },
    {
      "inputs": [],
      "name": "EmptyName",
      "type": "error"
    },
    {
      "inputs": [],
      "name": "NotMinter",
      "type": "error"
    },
    {
      "inputs": [
        {
          "internalType": "address",
          "name": "owner",
          "type": "address"
        }
      ],
      "name": "OwnableInvalidOwner",
      "type": "error"
    },
    {
      "inputs": [
        {
          "internalType": "address",
          "name": "account",
          "type": "address"
        }
      ],
      "name": "OwnableUnauthorizedAccount",
      "type": "error"
    },
    {
      "inputs": [],
      "name": "SoulBound",
      "type": "error"
    },
    {
      "inputs": [],
      "name": "TokenNotExists",
      "type": "error"
    },
    {
      "anonymous": false,
      "inputs": [
        {
          "indexed": true,
          "internalType": "address",
          "name": "owner",
          "type": "address"
        },
        {
          "indexed": true,
          "internalType": "address",
          "name": "approved",
          "type": "address"
        },
        {
          "indexed": true,
          "internalType": "uint256",
          "name": "tokenId",
          "type": "uint256"
        }
      ],
      "name": "Approval",
      "type": "event"
    },
    {
      "anonymous": false,
      "inputs": [
        {
          "indexed": true,
          "internalType": "address",
          "name": "owner",
          "type": "address"
        },
        {
          "indexed": true,
          "internalType": "address",
          "name": "operator",
          "type": "address"
        },
        {
          "indexed": false,
          "internalType": "bool",
          "name": "approved",
          "type": "bool"
        }
      ],
      "name": "ApprovalForAll",
      "type": "event"
    },
    {
      "anonymous": false,
      "inputs": [
        {
          "indexed": false,
          "internalType": "uint256",
          "name": "tokenId",
          "type": "uint256"
        }
      ],
      "name": "Locked",
      "type": "event"
    },
    {
      "anonymous": false,
      "inputs": [
        {
          "indexed": true,
          "internalType": "address",
          "name": "previousOwner",
          "type": "address"
        },
        {
          "indexed": true,
          "internalType": "address",
          "name": "newOwner",
          "type": "address"
        }
      ],
      "name": "OwnershipTransferred",
      "type": "event"
    },
    {
      "anonymous": false,
      "inputs": [
        {
          "indexed": true,
          "internalType": "uint256",
          "name": "tokenId",
          "type": "uint256"
        },
        {
          "indexed": false,
          "internalType": "string",
          "name": "agentName",
          "type": "string"
        }
      ],
      "name": "Revoked",
      "type": "event"
    },
    {
      "anonymous": false,
      "inputs": [
        {
          "indexed": true,
          "internalType": "address",
          "name": "from",
          "type": "address"
        },
        {
          "indexed": true,
          "internalType": "address",
          "name": "to",
          "type": "address"
        },
        {
          "indexed": true,
          "internalType": "uint256",
          "name": "tokenId",
          "type": "uint256"
        }
      ],
      "name": "Transfer",
      "type": "event"
    },
    {
      "inputs": [
        {
          "internalType": "uint256",
          "name": "",
          "type": "uint256"
        }
      ],
      "name": "agentInfo",
      "outputs": [
        {
          "internalType": "string",
          "name": "agentName",
          "type": "string"
        },
        {
          "internalType": "string",
          "name": "platform",
          "type": "string"
        },
        {
          "internalType": "uint256",
          "name": "mintedAt",
          "type": "uint256"
        }
      ],
      "stateMutability": "view",
      "type": "function"
    },
    {
      "inputs": [
        {
          "internalType": "address",
          "name": "",
          "type": "address"
        }
      ],
      "name": "agentTokenOf",
      "outputs": [
        {
          "internalType": "uint256",
          "name": "",
          "type": "uint256"
        }
      ],
      "stateMutability": "view",
      "type": "function"
    },
    {
      "inputs": [
        {
          "internalType": "address",
          "name": "to",
          "type": "address"
        },
        {
          "internalType": "uint256",
          "name": "tokenId",
          "type": "uint256"
        }
      ],
      "name": "approve",
      "outputs": [],
      "stateMutability": "nonpayable",
      "type": "function"
    },
    {
      "inputs": [
        {
          "internalType": "address",
          "name": "owner",
          "type": "address"
        }
      ],
      "name": "balanceOf",
      "outputs": [
        {
          "internalType": "uint256",
          "name": "",
          "type": "uint256"
        }
      ],
      "stateMutability": "view",
      "type": "function"
    },
    {
      "inputs": [
        {
          "internalType": "address",
          "name": "wallet",
          "type": "address"
        }
      ],
      "name": "getAgentByAddress",
      "outputs": [
        {
          "internalType": "uint256",
          "name": "tokenId",
          "type": "uint256"
        },
        {
          "internalType": "string",
          "name": "agentName",
          "type": "string"
        },
        {
          "internalType": "string",
          "name": "platform",
          "type": "string"
        },
        {
          "internalType": "uint256",
          "name": "mintedAt",
          "type": "uint256"
        }
      ],
      "stateMutability": "view",
      "type": "function"
    },
    {
      "inputs": [
        {
          "internalType": "uint256",
          "name": "tokenId",
          "type": "uint256"
        }
      ],
      "name": "getApproved",
      "outputs": [
        {
          "internalType": "address",
          "name": "",
          "type": "address"
        }
      ],
      "stateMutability": "view",
      "type": "function"
    },
    {
      "inputs": [
        {
          "internalType": "address",
          "name": "owner",
          "type": "address"
        },
        {
          "internalType": "address",
          "name": "operator",
          "type": "address"
        }
      ],
      "name": "isApprovedForAll",
      "outputs": [
        {
          "internalType": "bool",
          "name": "",
          "type": "bool"
        }
      ],
      "stateMutability": "view",
      "type": "function"
    },
    {
      "inputs": [
        {
          "internalType": "address",
          "name": "",
          "type": "address"
        }
      ],
      "name": "isMinter",
      "outputs": [
        {
          "internalType": "bool",
          "name": "",
          "type": "bool"
        }
      ],
      "stateMutability": "view",
      "type": "function"
    },
    {
      "inputs": [
        {
          "internalType": "uint256",
          "name": "tokenId",
          "type": "uint256"
        }
      ],
      "name": "isRevoked",
      "outputs": [
        {
          "internalType": "bool",
          "name": "",
          "type": "bool"
        }
      ],
      "stateMutability": "view",
      "type": "function"
    },
    {
      "inputs": [
        {
          "internalType": "uint256",
          "name": "tokenId",
          "type": "uint256"
        }
      ],
      "name": "locked",
      "outputs": [
        {
          "internalType": "bool",
          "name": "",
          "type": "bool"
        }
      ],
      "stateMutability": "view",
      "type": "function"
    },
    {
      "inputs": [
        {
          "internalType": "address",
          "name": "to",
          "type": "address"
        },
        {
          "internalType": "string",
          "name": "agentName",
          "type": "string"
        },
        {
          "internalType": "string",
          "name": "platform",
          "type": "string"
        }
      ],
      "name": "mintAgentIdentity",
      "outputs": [
        {
          "internalType": "uint256",
          "name": "",
          "type": "uint256"
        }
      ],
      "stateMutability": "nonpayable",
      "type": "function"
    },
    {
      "inputs": [],
      "name": "name",
      "outputs": [
        {
          "internalType": "string",
          "name": "",
          "type": "string"
        }
      ],
      "stateMutability": "view",
      "type": "function"
    },
    {
      "inputs": [
        {
          "internalType": "bytes32",
          "name": "",
          "type": "bytes32"
        }
      ],
      "name": "nameExists",
      "outputs": [
        {
          "internalType": "bool",
          "name": "",
          "type": "bool"
        }
      ],
      "stateMutability": "view",
      "type": "function"
    },
    {
      "inputs": [],
      "name": "owner",
      "outputs": [
        {
          "internalType": "address",
          "name": "",
          "type": "address"
        }
      ],
      "stateMutability": "view",
      "type": "function"
    },
    {
      "inputs": [
        {
          "internalType": "uint256",
          "name": "tokenId",
          "type": "uint256"
        }
      ],
      "name": "ownerOf",
      "outputs": [
        {
          "internalType": "address",
          "name": "",
          "type": "address"
        }
      ],
      "stateMutability": "view",
      "type": "function"
    },
    {
      "inputs": [],
      "name": "renounceOwnership",
      "outputs": [],
      "stateMutability": "nonpayable",
      "type": "function"
    },
    {
      "inputs": [
        {
          "internalType": "uint256",
          "name": "tokenId",
          "type": "uint256"
        }
      ],
      "name": "revokeIdentity",
      "outputs": [],
      "stateMutability": "nonpayable",
      "type": "function"
    },
    {
      "inputs": [
        {
          "internalType": "uint256",
          "name": "",
          "type": "uint256"
        }
      ],
      "name": "revoked",
      "outputs": [
        {
          "internalType": "bool",
          "name": "",
          "type": "bool"
        }
      ],
      "stateMutability": "view",
      "type": "function"
    },
    {
      "inputs": [
        {
          "internalType": "address",
          "name": "from",
          "type": "address"
        },
        {
          "internalType": "address",
          "name": "to",
          "type": "address"
        },
        {
          "internalType": "uint256",
          "name": "tokenId",
          "type": "uint256"
        }
      ],
      "name": "safeTransferFrom",
      "outputs": [],
      "stateMutability": "nonpayable",
      "type": "function"
    },
    {
      "inputs": [
        {
          "internalType": "address",
          "name": "from",
          "type": "address"
        },
        {
          "internalType": "address",
          "name": "to",
          "type": "address"
        },
        {
          "internalType": "uint256",
          "name": "tokenId",
          "type": "uint256"
        },
        {
          "internalType": "bytes",
          "name": "data",
          "type": "bytes"
        }
      ],
      "name": "safeTransferFrom",
      "outputs": [],
      "stateMutability": "nonpayable",
      "type": "function"
    },
    {
      "inputs": [
        {
          "internalType": "address",
          "name": "operator",
          "type": "address"
        },
        {
          "internalType": "bool",
          "name": "approved",
          "type": "bool"
        }
      ],
      "name": "setApprovalForAll",
      "outputs": [],
      "stateMutability": "nonpayable",
      "type": "function"
    },
    {
      "inputs": [
        {
          "internalType": "address",
          "name": "minter",
          "type": "address"
        },
        {
          "internalType": "bool",
          "name": "allowed",
          "type": "bool"
        }
      ],
      "name": "setMinter",
      "outputs": [],
      "stateMutability": "nonpayable",
      "type": "function"
    },
    {
      "inputs": [
        {
          "internalType": "bytes4",
          "name": "interfaceId",
          "type": "bytes4"
        }
      ],
      "name": "supportsInterface",
      "outputs": [
        {
          "internalType": "bool",
          "name": "",
          "type": "bool"
        }
      ],
      "stateMutability": "view",
      "type": "function"
    },
    {
      "inputs": [],
      "name": "symbol",
      "outputs": [
        {
          "internalType": "string",
          "name": "",
          "type": "string"
        }
      ],
      "stateMutability": "view",
      "type": "function"
    },
    {
      "inputs": [
        {
          "internalType": "uint256",
          "name": "tokenId",
          "type": "uint256"
        }
      ],
      "name": "tokenURI",
      "outputs": [
        {
          "internalType": "string",
          "name": "",
          "type": "string"
        }
      ],
      "stateMutability": "view",
      "type": "function"
    },
    {
      "inputs": [],
      "name": "totalSupply",
      "outputs": [
        {
          "internalType": "uint256",
          "name": "",
          "type": "uint256"
        }
      ],
      "stateMutability": "view",
      "type": "function"
    },
    {
      "inputs": [
        {
          "internalType": "address",
          "name": "from",
          "type": "address"
        },
        {
          "internalType": "address",
          "name": "to",
          "type": "address"
        },
        {
          "internalType": "uint256",
          "name": "tokenId",
          "type": "uint256"
        }
      ],
      "name": "transferFrom",
      "outputs": [],
      "stateMutability": "nonpayable",
      "type": "function"
    },
    {
      "inputs": [
        {
          "internalType": "address",
          "name": "newOwner",
          "type": "address"
        }
      ],
      "name": "transferOwnership",
      "outputs": [],
      "stateMutability": "nonpayable",
      "type": "function"
    }
  ],
  "bytecode": "0x60806040523480156200001157600080fd5b50336040518060400160405280601581526020017f566973696f6e204167656e74204964656e74697479000000000000000000000081525060405180604001604052806005815260200164159054d09560da1b8152508160009081620000789190620001e3565b506001620000878282620001e3565b5050506001600160a01b038116620000b957604051631e4fbdf760e01b81526000600482015260240160405180910390fd5b620000c481620000ec565b5060016007819055336000908152600b60205260409020805460ff19169091179055620002af565b600680546001600160a01b038381166001600160a01b0319831681179093556040519116919082907f8be0079c531659141344cd1fd0a4f28419497f9722a3daafe3b4186f6b6457e090600090a35050565b634e487b7160e01b600052604160045260246000fd5b600181811c908216806200016957607f821691505b6020821081036200018a57634e487b7160e01b600052602260045260246000fd5b50919050565b601f821115620001de57600081815260208120601f850160051c81016020861015620001b95750805b601f850160051c820191505b81811015620001da57828155600101620001c5565b5050505b505050565b81516001600160401b03811115620001ff57620001ff6200013e565b620002178162000210845462000154565b8462000190565b602080601f8311600181146200024f5760008415620002365750858301515b600019600386901b1c1916600185901b178555620001da565b600085815260208120601f198616915b8281101562000280578886015182559484019460019091019084016200025f565b50858210156200029f5787850151600019600388901b60f8161c191681555b5050505050600190811b01905550565b6124cb80620002bf6000396000f3fe608060405234801561001057600080fd5b50600436106101c45760003560e01c8063864f976f116100f9578063b88d4fde11610097578063d5b141e711610071578063d5b141e7146103f9578063e68dd3421461041c578063e985e9c51461043f578063f2fde38b1461045257600080fd5b8063b88d4fde146103c0578063c87b56dd146103d3578063cf456ae7146103e657600080fd5b8063a22cb465116100d3578063a22cb46514610357578063aa271e1a1461036a578063b45a3c0e1461038d578063b80180e7146103a057600080fd5b8063864f976f1461032b5780638da5cb5b1461033e57806395d89b411461034f57600080fd5b806342842e0e116101665780636352211e116101405780636352211e146102ea57806370a08231146102fd578063715018a61461031057806380a9aed01461031857600080fd5b806342842e0e14610292578063525f91d8146102a55780635ccc561e146102c757600080fd5b8063095ea7b3116101a2578063095ea7b314610231578063143dc3f81461024657806318160ddd1461026957806323b872dd1461027f57600080fd5b806301ffc9a7146101c957806306fdde03146101f1578063081812fc14610206575b600080fd5b6101dc6101d7366004611b6b565b610465565b60405190151581526020015b60405180910390f35b6101f9610490565b6040516101e89190611bdf565b610219610214366004611bf2565b610522565b6040516001600160a01b0390911681526020016101e8565b61024461023f366004611c27565b61054b565b005b6101dc610254366004611bf2565b600a6020526000908152604090205460ff1681565b61027161055a565b6040519081526020016101e8565b61024461028d366004611c51565b610570565b6102446102a0366004611c51565b610600565b6102b86102b3366004611bf2565b610620565b6040516101e893929190611c8d565b6101dc6102d5366004611bf2565b6000908152600c602052604090205460ff1690565b6102196102f8366004611bf2565b610752565b61027161030b366004611cc3565b61075d565b6102446107a5565b610244610326366004611bf2565b6107b9565b610271610339366004611d27565b6109fa565b6006546001600160a01b0316610219565b6101f9610c84565b610244610365366004611da8565b610c93565b6101dc610378366004611cc3565b600b6020526000908152604090205460ff1681565b6101dc61039b366004611bf2565b610c9e565b6102716103ae366004611cc3565b60096020526000908152604090205481565b6102446103ce366004611dfa565b610cb2565b6101f96103e1366004611bf2565b610cca565b6102446103f4366004611da8565b610e90565b6101dc610407366004611bf2565b600c6020526000908152604090205460ff1681565b61042f61042a366004611cc3565b610ec3565b6040516101e89493929190611ed6565b6101dc61044d366004611f13565b611075565b610244610460366004611cc3565b6110a3565b6000635a2d1e0760e11b6001600160e01b03198316148061048a575061048a826110e1565b92915050565b60606000805461049f90611f46565b80601f01602080910402602001604051908101604052809291908181526020018280546104cb90611f46565b80156105185780601f106104ed57610100808354040283529160200191610518565b820191906000526020600020905b8154815290600101906020018083116104fb57829003601f168201915b5050505050905090565b600061052d82611131565b506000828152600460205260409020546001600160a01b031661048a565b61055682823361116a565b5050565b6000600160075461056b9190611f96565b905090565b6001600160a01b03821661059f57604051633250574960e11b8152600060048201526024015b60405180910390fd5b60006105ac838333611177565b9050836001600160a01b0316816001600160a01b0316146105fa576040516364283d7b60e01b81526001600160a01b0380861660048301526024820184905282166044820152606401610596565b50505050565b61061b83838360405180602001604052806000815250610cb2565b505050565b60086020526000908152604090208054819061063b90611f46565b80601f016020809104026020016040519081016040528092919081815260200182805461066790611f46565b80156106b45780601f10610689576101008083540402835291602001916106b4565b820191906000526020600020905b81548152906001019060200180831161069757829003601f168201915b5050505050908060010180546106c990611f46565b80601f01602080910402602001604051908101604052809291908181526020018280546106f590611f46565b80156107425780601f1061071757610100808354040283529160200191610742565b820191906000526020600020905b81548152906001019060200180831161072557829003601f168201915b5050505050908060020154905083565b600061048a82611131565b60006001600160a01b038216610789576040516322718ad960e21b815260006004820152602401610596565b506001600160a01b031660009081526003602052604090205490565b6107ad6111c2565b6107b760006111ef565b565b336000908152600b602052604090205460ff161580156107e457506006546001600160a01b03163314155b1561080257604051633e34a41b60e21b815260040160405180910390fd5b80158061081157506007548110155b1561082e57604051626f708760e21b815260040160405180910390fd5b6000818152600c602052604090205460ff161561085e5760405163905e710760e01b815260040160405180910390fd5b6000818152600c60209081526040808320805460ff19166001179055600890915280822081516060810190925280548290829061089a90611f46565b80601f01602080910402602001604051908101604052809291908181526020018280546108c690611f46565b80156109135780601f106108e857610100808354040283529160200191610913565b820191906000526020600020905b8154815290600101906020018083116108f657829003601f168201915b5050505050815260200160018201805461092c90611f46565b80601f016020809104026020016040519081016040528092919081815260200182805461095890611f46565b80156109a55780601f1061097a576101008083540402835291602001916109a5565b820191906000526020600020905b81548152906001019060200180831161098857829003601f168201915b505050505081526020016002820154815250509050817f09e41d39f5fbe80f71bc2f0a44e937a0ee3dff62dd07f191a8a461a339891a0382600001516040516109ee9190611bdf565b60405180910390a25050565b336000908152600b602052604081205460ff16158015610a2557506006546001600160a01b03163314155b15610a4357604051633e34a41b60e21b815260040160405180910390fd5b6000849003610a6557604051632ef1310560e01b815260040160405180910390fd5b6001600160a01b03861660009081526009602052604090205415610a9c576040516371b95a0b60e01b815260040160405180910390fd5b6000610add86868080601f01602080910402602001604051908101604052809392919081815260200183838082843760009201919091525061124192505050565b604051602001610aed9190611fc5565b60408051601f1981840301815291815281516020928301206000818152600a90935291205490915060ff1615610b3657604051639b08112560e01b815260040160405180910390fd5b6007805460009182610b4783611fe1565b909155506000838152600a60209081526040808320805460ff191660011790556001600160a01b038c168352600982529182902083905581516080601f8b018390049092028101820190925260608201898152929350909182918a908a9081908501838280828437600092019190915250505090825250604080516020601f89018190048102820181019092528781529181019190889088908190840183828082843760009201829052509385525050426020938401525083815260089091526040902081518190610c199082612040565b5060208201516001820190610c2e9082612040565b5060408201518160020155905050610c4688826113b8565b6040518181527f032bc66be43dbccb7487781d168eb7bda224628a3b2c3388bdf69b532a3a16119060200160405180910390a1979650505050505050565b60606001805461049f90611f46565b6105563383836113d2565b6000610ca982611131565b50600192915050565b610cbd848484610570565b6105fa3385858585611471565b6060610cd582611131565b50600082815260086020526040808220815160608101909252805482908290610cfd90611f46565b80601f0160208091040260200160405190810160405280929190818152602001828054610d2990611f46565b8015610d765780601f10610d4b57610100808354040283529160200191610d76565b820191906000526020600020905b815481529060010190602001808311610d5957829003601f168201915b50505050508152602001600182018054610d8f90611f46565b80601f0160208091040260200160405190810160405280929190818152602001828054610dbb90611f46565b8015610e085780601f10610ddd57610100808354040283529160200191610e08565b820191906000526020600020905b815481529060010190602001808311610deb57829003601f168201915b5050505050815260200160028201548152505090506000816000015182600001518360200151610e3b856040015161159c565b604051602001610e4e9493929190612100565b6040516020818303038152906040529050610e68816116a5565b604051602001610e78919061231f565b60405160208183030381529060405292505050919050565b610e986111c2565b6001600160a01b03919091166000908152600b60205260409020805460ff1916911515919091179055565b6001600160a01b038116600090815260096020526040812054906060908190838103610f1157505060408051602080820183526000808352835191820190935282815291935091508261106e565b600084815260086020526040808220815160608101909252805482908290610f3890611f46565b80601f0160208091040260200160405190810160405280929190818152602001828054610f6490611f46565b8015610fb15780601f10610f8657610100808354040283529160200191610fb1565b820191906000526020600020905b815481529060010190602001808311610f9457829003601f168201915b50505050508152602001600182018054610fca90611f46565b80601f0160208091040260200160405190810160405280929190818152602001828054610ff690611f46565b80156110435780601f1061101857610100808354040283529160200191611043565b820191906000526020600020905b81548152906001019060200180831161102657829003601f168201915b5050509183525050600291909101546020918201528151908201516040909201519095509093509150505b9193509193565b6001600160a01b03918216600090815260056020908152604080832093909416825291909152205460ff1690565b6110ab6111c2565b6001600160a01b0381166110d557604051631e4fbdf760e01b815260006004820152602401610596565b6110de816111ef565b50565b60006001600160e01b031982166380ac58cd60e01b148061111257506001600160e01b03198216635b5e139f60e01b145b8061048a57506301ffc9a760e01b6001600160e01b031983161461048a565b6000818152600260205260408120546001600160a01b03168061048a57604051637e27328960e01b815260048101849052602401610596565b61061b8383836001611812565b6000828152600260205260408120546001600160a01b031680156111ae57604051631267838f60e11b815260040160405180910390fd5b6111b9858585611918565b95945050505050565b6006546001600160a01b031633146107b75760405163118cdaa760e01b8152336004820152602401610596565b600680546001600160a01b038381166001600160a01b0319831681179093556040519116919082907f8be0079c531659141344cd1fd0a4f28419497f9722a3daafe3b4186f6b6457e090600090a35050565b606060008290506000815167ffffffffffffffff81111561126457611264611de4565b6040519080825280601f01601f19166020018201604052801561128e576020820181803683370190505b50905060005b82518110156113b057604160f81b8382815181106112b4576112b4612364565b01602001516001600160f81b031916108015906112f55750605a60f81b8382815181106112e3576112e3612364565b01602001516001600160f81b03191611155b156113575782818151811061130c5761130c612364565b602001015160f81c60f81b60f81c6020611326919061237a565b60f81b82828151811061133b5761133b612364565b60200101906001600160f81b031916908160001a90535061139e565b82818151811061136957611369612364565b602001015160f81c60f81b82828151811061138657611386612364565b60200101906001600160f81b031916908160001a9053505b806113a881611fe1565b915050611294565b509392505050565b610556828260405180602001604052806000815250611a11565b6001600160a01b03821661140457604051630b61174360e31b81526001600160a01b0383166004820152602401610596565b6001600160a01b03838116600081815260056020908152604080832094871680845294825291829020805460ff191686151590811790915591519182527f17307eab39ab6107e8899845ad3d59bd9653f200f220920489ca2b5937696c31910160405180910390a3505050565b6001600160a01b0383163b1561159557604051630a85bd0160e11b81526001600160a01b0384169063150b7a02906114b3908890889087908790600401612393565b6020604051808303816000875af19250505080156114ee575060408051601f3d908101601f191682019092526114eb918101906123d0565b60015b611557573d80801561151c576040519150601f19603f3d011682016040523d82523d6000602084013e611521565b606091505b50805160000361154f57604051633250574960e11b81526001600160a01b0385166004820152602401610596565b805160208201fd5b6001600160e01b03198116630a85bd0160e11b1461159357604051633250574960e11b81526001600160a01b0385166004820152602401610596565b505b5050505050565b6060816000036115c35750506040805180820190915260018152600360fc1b602082015290565b8160005b81156115ed57806115d781611fe1565b91506115e69050600a83612403565b91506115c7565b60008167ffffffffffffffff81111561160857611608611de4565b6040519080825280601f01601f191660200182016040528015611632576020820181803683370190505b5090505b841561169d57611647600183611f96565b9150611654600a86612417565b61165f90603061242b565b60f81b81838151811061167457611674612364565b60200101906001600160f81b031916908160001a905350611696600a86612403565b9450611636565b949350505050565b6060600060405180606001604052806040815260200161245660409139905082516000036116e3575050604080516020810190915260008152919050565b60006003845160026116f5919061242b565b6116ff9190612403565b61170a90600461243e565b9050600061171982602061242b565b67ffffffffffffffff81111561173157611731611de4565b6040519080825280601f01601f19166020018201604052801561175b576020820181803683370190505b50905082600181016020830160005b88518110156117cc576003818a01810151603f601282901c8116860151600c83901c8216870151600684901c831688015192909316870151600891821b60ff94851601821b92841692909201901b91160160e01b83526004909201910161176a565b506003885106600181146117e757600281146117f857611804565b613d3d60f01b600119830152611804565b603d60f81b6000198301525b505050918152949350505050565b808061182657506001600160a01b03821615155b156118e857600061183684611131565b90506001600160a01b038316158015906118625750826001600160a01b0316816001600160a01b031614155b801561187557506118738184611075565b155b1561189e5760405163a9fbf51f60e01b81526001600160a01b0384166004820152602401610596565b81156118e65783856001600160a01b0316826001600160a01b03167f8c5be1e5ebec7d5bd14f71427d1e84f3dd0314c0f7b2291e5b200ac8c7c3b92560405160405180910390a45b505b5050600090815260046020526040902080546001600160a01b0319166001600160a01b0392909216919091179055565b6000828152600260205260408120546001600160a01b039081169083161561194557611945818486611a29565b6001600160a01b0381161561198357611962600085600080611812565b6001600160a01b038116600090815260036020526040902080546000190190555b6001600160a01b038516156119b2576001600160a01b0385166000908152600360205260409020805460010190555b60008481526002602052604080822080546001600160a01b0319166001600160a01b0389811691821790925591518793918516917fddf252ad1be2c89b69c2b068fc378daa952ba7f163c4a11628f55a4df523b3ef91a4949350505050565b611a1b8383611a8d565b61061b336000858585611471565b611a34838383611af2565b61061b576001600160a01b038316611a6257604051637e27328960e01b815260048101829052602401610596565b60405163177e802f60e01b81526001600160a01b038316600482015260248101829052604401610596565b6001600160a01b038216611ab757604051633250574960e11b815260006004820152602401610596565b6000611ac583836000611177565b90506001600160a01b0381161561061b576040516339e3563760e11b815260006004820152602401610596565b60006001600160a01b0383161580159061169d5750826001600160a01b0316846001600160a01b03161480611b2c5750611b2c8484611075565b8061169d5750506000908152600460205260409020546001600160a01b03908116911614919050565b6001600160e01b0319811681146110de57600080fd5b600060208284031215611b7d57600080fd5b8135611b8881611b55565b9392505050565b60005b83811015611baa578181015183820152602001611b92565b50506000910152565b60008151808452611bcb816020860160208601611b8f565b601f01601f19169290920160200192915050565b602081526000611b886020830184611bb3565b600060208284031215611c0457600080fd5b5035919050565b80356001600160a01b0381168114611c2257600080fd5b919050565b60008060408385031215611c3a57600080fd5b611c4383611c0b565b946020939093013593505050565b600080600060608486031215611c6657600080fd5b611c6f84611c0b565b9250611c7d60208501611c0b565b9150604084013590509250925092565b606081526000611ca06060830186611bb3565b8281036020840152611cb28186611bb3565b915050826040830152949350505050565b600060208284031215611cd557600080fd5b611b8882611c0b565b60008083601f840112611cf057600080fd5b50813567ffffffffffffffff811115611d0857600080fd5b602083019150836020828501011115611d2057600080fd5b9250929050565b600080600080600060608688031215611d3f57600080fd5b611d4886611c0b565b9450602086013567ffffffffffffffff80821115611d6557600080fd5b611d7189838a01611cde565b90965094506040880135915080821115611d8a57600080fd5b50611d9788828901611cde565b969995985093965092949392505050565b60008060408385031215611dbb57600080fd5b611dc483611c0b565b915060208301358015158114611dd957600080fd5b809150509250929050565b634e487b7160e01b600052604160045260246000fd5b60008060008060808587031215611e1057600080fd5b611e1985611c0b565b9350611e2760208601611c0b565b925060408501359150606085013567ffffffffffffffff80821115611e4b57600080fd5b818701915087601f830112611e5f57600080fd5b813581811115611e7157611e71611de4565b604051601f8201601f19908116603f01168101908382118183101715611e9957611e99611de4565b816040528281528a6020848701011115611eb257600080fd5b82602086016020830137600060208483010152809550505050505092959194509250565b848152608060208201526000611eef6080830186611bb3565b8281036040840152611f018186611bb3565b91505082606083015295945050505050565b60008060408385031215611f2657600080fd5b611f2f83611c0b565b9150611f3d60208401611c0b565b90509250929050565b600181811c90821680611f5a57607f821691505b602082108103611f7a57634e487b7160e01b600052602260045260246000fd5b50919050565b634e487b7160e01b600052601160045260246000fd5b8181038181111561048a5761048a611f80565b60008151611fbb818560208601611b8f565b9290920192915050565b60008251611fd7818460208701611b8f565b9190910192915050565b600060018201611ff357611ff3611f80565b5060010190565b601f82111561061b57600081815260208120601f850160051c810160208610156120215750805b601f850160051c820191505b818110156115935782815560010161202d565b815167ffffffffffffffff81111561205a5761205a611de4565b61206e816120688454611f46565b84611ffa565b602080601f8311600181146120a3576000841561208b5750858301515b600019600386901b1c1916600185901b178555611593565b600085815260208120601f198616915b828110156120d2578886015182559484019460019091019084016120b3565b50858210156120f05787850151600019600388901b60f8161c191681555b5050505050600190811b01905550565b6f03d913730b6b2911d1120b3b2b73a1d160851b8152845160009061212c816010850160208a01611b8f565b7f222c226465736372697074696f6e223a22566973696f6e20436861696e2041496010918401918201527f204167656e7420536f756c426f756e64204964656e7469747920546f6b656e2060308201526b0a1152540b4d4c4e4c8a488b60a21b60508201526d2261747472696275746573223a5b60901b605c8201527f7b2274726169745f74797065223a224167656e74204e616d65222c2276616c75606a8201526332911d1160e11b608a82015285516121ee81608e840160208a01611b8f565b6123136123056122ca6122bc6122b661226761225861225261221e608e8a8c010162089f4b60ea1b815260030190565b7f7b2274726169745f74797065223a22506c6174666f726d222c2276616c7565228152611d1160f11b602082015260220190565b8d611fa9565b62089f4b60ea1b815260030190565b7f7b2274726169745f74797065223a224d696e746564204174222c22646973706c81527f61795f74797065223a2264617465222c2276616c7565223a0000000000000000602082015260380190565b89611fa9565b611f4b60f21b815260020190565b7f7b2274726169745f74797065223a22536f756c426f756e64222c2276616c7565815268223a2274727565227d60b81b602082015260290190565b615d7d60f01b815260020190565b98975050505050505050565b7f646174613a6170706c69636174696f6e2f6a736f6e3b6261736536342c00000081526000825161235781601d850160208701611b8f565b91909101601d0192915050565b634e487b7160e01b600052603260045260246000fd5b60ff818116838216019081111561048a5761048a611f80565b6001600160a01b03858116825284166020820152604081018390526080606082018190526000906123c690830184611bb3565b9695505050505050565b6000602082840312156123e257600080fd5b8151611b8881611b55565b634e487b7160e01b600052601260045260246000fd5b600082612412576124126123ed565b500490565b600082612426576124266123ed565b500690565b8082018082111561048a5761048a611f80565b808202811582820484141761048a5761048a611f8056fe4142434445464748494a4b4c4d4e4f505152535455565758595a6162636465666768696a6b6c6d6e6f707172737475767778797a303132333435363738392b2fa2646970667358221220b67f7db378150f09f9484a25365b503c4a4cf8893a80d924545e627ede9156fc64736f6c63430008140033",
  "linkReferences": {},
  "deployedLinkReferences": {}
}