{
  "_format": "hh-sol-artifact-1",
  "contractName": "VisionAgentSBT",
  "sourceName": "contracts/VisionAgentSBT.sol",
  "abi": [
    {
      "inputs": [],
      "stateMutability": "nonpayable",
      "type": "constructor"
    },
    {
      "inputs": [],
      "name": "AgentNameTaken",
      "type": "error"
    },
    {
      "inputs": [],
      "name": "AlreadyHasSBT",
      "type": "error"
    },
    {
      "inputs": [],
      "name": "AlreadyRevoked",
      "type": "error"
    },
    {
      "inputs": [
        {
          "internalType": "address",
          "name": "sender",
          "type": "address"
        },
        {
          "internalType": "uint256",
          "name": "tokenId",
          "type": "uint256"
        },
        {
          "internalType": "address",
          "name": "owner",
          "type": "address"
        }
      ],
      "name": "ERC721IncorrectOwner",
      "type": "error"
    },
    {
      "inputs": [
        {
          "internalType": "address",
          "name": "operator",
          "type": "address"
        },
        {
          "internalType": "uint256",
          "name": "tokenId",
          "type": "uint256"
        }
      ],
      "name": "ERC721InsufficientApproval",
      "type": "error"
    },
    {
      "inputs": [
        {
          "internalType": "address",
          "name": "approver",
          "type": "address"
        }
      ],
      "name": "ERC721InvalidApprover",
      "type": "error"
    },
    {
      "inputs": [
        {
          "internalType": "address",
          "name": "operator",
          "type": "address"
        }
      ],
      "name": "ERC721InvalidOperator",
      "type": "error"
    },
    {
      "inputs": [
        {
          "internalType": "address",
          "name": "owner",
          "type": "address"
        }
      ],
      "name": "ERC721InvalidOwner",
      "type": "error"
    },
    {
      "inputs": [
        {
          "internalType": "address",
          "name": "receiver",
          "type": "address"
        }
      ],
      "name": "ERC721InvalidReceiver",
      "type": "error"
    },
    {
      "inputs": [
        {
          "internalType": "address",
          "name": "sender",
          "type": "address"
        }
      ],
      "name": "ERC721InvalidSender",
      "type": "error"
    },
    {
      "inputs": [
        {
          "internalType": "uint256",
          "name": "tokenId",
          "type": "uint256"
        }
      ],
      "name": "ERC721NonexistentToken",
      "type": "error"
    },
    {
      "inputs": [],
      "name": "EmptyName",
      "type": "error"
    },
    {
      "inputs": [],
      "name": "NotMinter",
      "type": "error"
    },
    {
      "inputs": [
        {
          "internalType": "address",
          "name": "owner",
          "type": "address"
        }
      ],
      "name": "OwnableInvalidOwner",
      "type": "error"
    },
    {
      "inputs": [
        {
          "internalType": "address",
          "name": "account",
          "type": "address"
        }
      ],
      "name": "OwnableUnauthorizedAccount",
      "type": "error"
    },
    {
      "inputs": [],
      "name": "SoulBound",
      "type": "error"
    },
    {
      "inputs": [],
      "name": "TokenNotExists",
      "type": "error"
    },
    {
      "anonymous": false,
      "inputs": [
        {
          "indexed": true,
          "internalType": "address",
          "name": "owner",
          "type": "address"
        },
        {
          "indexed": true,
          "internalType": "address",
          "name": "approved",
          "type": "address"
        },
        {
          "indexed": true,
          "internalType": "uint256",
          "name": "tokenId",
          "type": "uint256"
        }
      ],
      "name": "Approval",
      "type": "event"
    },
    {
      "anonymous": false,
      "inputs": [
        {
          "indexed": true,
          "internalType": "address",
          "name": "owner",
          "type": "address"
        },
        {
          "indexed": true,
          "internalType": "address",
          "name": "operator",
          "type": "address"
        },
        {
          "indexed": false,
          "internalType": "bool",
          "name": "approved",
          "type": "bool"
        }
      ],
      "name": "ApprovalForAll",
      "type": "event"
    },
    {
      "anonymous": false,
      "inputs": [
        {
          "indexed": false,
          "internalType": "uint256",
          "name": "tokenId",
          "type": "uint256"
        }
      ],
      "name": "Locked",
      "type": "event"
    },
    {
      "anonymous": false,
      "inputs": [
        {
          "indexed": true,
          "internalType": "address",
          "name": "previousOwner",
          "type": "address"
        },
        {
          "indexed": true,
          "internalType": "address",
          "name": "newOwner",
          "type": "address"
        }
      ],
      "name": "OwnershipTransferred",
      "type": "event"
    },
    {
      "anonymous": false,
      "inputs": [
        {
          "indexed": true,
          "internalType": "uint256",
          "name": "tokenId",
          "type": "uint256"
        },
        {
          "indexed": false,
          "internalType": "string",
          "name": "agentName",
          "type": "string"
        }
      ],
      "name": "Revoked",
      "type": "event"
    },
    {
      "anonymous": false,
      "inputs": [
        {
          "indexed": true,
          "internalType": "address",
          "name": "from",
          "type": "address"
        },
        {
          "indexed": true,
          "internalType": "address",
          "name": "to",
          "type": "address"
        },
        {
          "indexed": true,
          "internalType": "uint256",
          "name": "tokenId",
          "type": "uint256"
        }
      ],
      "name": "Transfer",
      "type": "event"
    },
    {
      "inputs": [
        {
          "internalType": "uint256",
          "name": "",
          "type": "uint256"
        }
      ],
      "name": "agentInfo",
      "outputs": [
        {
          "internalType": "string",
          "name": "agentName",
          "type": "string"
        },
        {
          "internalType": "string",
          "name": "platform",
          "type": "string"
        },
        {
          "internalType": "uint256",
          "name": "mintedAt",
          "type": "uint256"
        }
      ],
      "stateMutability": "view",
      "type": "function"
    },
    {
      "inputs": [
        {
          "internalType": "address",
          "name": "",
          "type": "address"
        }
      ],
      "name": "agentTokenOf",
      "outputs": [
        {
          "internalType": "uint256",
          "name": "",
          "type": "uint256"
        }
      ],
      "stateMutability": "view",
      "type": "function"
    },
    {
      "inputs": [
        {
          "internalType": "address",
          "name": "to",
          "type": "address"
        },
        {
          "internalType": "uint256",
          "name": "tokenId",
          "type": "uint256"
        }
      ],
      "name": "approve",
      "outputs": [],
      "stateMutability": "nonpayable",
      "type": "function"
    },
    {
      "inputs": [
        {
          "internalType": "address",
          "name": "owner",
          "type": "address"
        }
      ],
      "name": "balanceOf",
      "outputs": [
        {
          "internalType": "uint256",
          "name": "",
          "type": "uint256"
        }
      ],
      "stateMutability": "view",
      "type": "function"
    },
    {
      "inputs": [
        {
          "internalType": "address",
          "name": "wallet",
          "type": "address"
        }
      ],
      "name": "getAgentByAddress",
      "outputs": [
        {
          "internalType": "uint256",
          "name": "tokenId",
          "type": "uint256"
        },
        {
          "internalType": "string",
          "name": "agentName",
          "type": "string"
        },
        {
          "internalType": "string",
          "name": "platform",
          "type": "string"
        },
        {
          "internalType": "uint256",
          "name": "mintedAt",
          "type": "uint256"
        }
      ],
      "stateMutability": "view",
      "type": "function"
    },
    {
      "inputs": [
        {
          "internalType": "uint256",
          "name": "tokenId",
          "type": "uint256"
        }
      ],
      "name": "getApproved",
      "outputs": [
        {
          "internalType": "address",
          "name": "",
          "type": "address"
        }
      ],
      "stateMutability": "view",
      "type": "function"
    },
    {
      "inputs": [
        {
          "internalType": "address",
          "name": "owner",
          "type": "address"
        },
        {
          "internalType": "address",
          "name": "operator",
          "type": "address"
        }
      ],
      "name": "isApprovedForAll",
      "outputs": [
        {
          "internalType": "bool",
          "name": "",
          "type": "bool"
        }
      ],
      "stateMutability": "view",
      "type": "function"
    },
    {
      "inputs": [
        {
          "internalType": "address",
          "name": "",
          "type": "address"
        }
      ],
      "name": "isMinter",
      "outputs": [
        {
          "internalType": "bool",
          "name": "",
          "type": "bool"
        }
      ],
      "stateMutability": "view",
      "type": "function"
    },
    {
      "inputs": [
        {
          "internalType": "uint256",
          "name": "tokenId",
          "type": "uint256"
        }
      ],
      "name": "isRevoked",
      "outputs": [
        {
          "internalType": "bool",
          "name": "",
          "type": "bool"
        }
      ],
      "stateMutability": "view",
      "type": "function"
    },
    {
      "inputs": [
        {
          "internalType": "uint256",
          "name": "tokenId",
          "type": "uint256"
        }
      ],
      "name": "locked",
      "outputs": [
        {
          "internalType": "bool",
          "name": "",
          "type": "bool"
        }
      ],
      "stateMutability": "view",
      "type": "function"
    },
    {
      "inputs": [
        {
          "internalType": "address",
          "name": "to",
          "type": "address"
        },
        {
          "internalType": "string",
          "name": "agentName",
          "type": "string"
        },
        {
          "internalType": "string",
          "name": "platform",
          "type": "string"
        }
      ],
      "name": "mintAgentIdentity",
      "outputs": [
        {
          "internalType": "uint256",
          "name": "",
          "type": "uint256"
        }
      ],
      "stateMutability": "nonpayable",
      "type": "function"
    },
    {
      "inputs": [],
      "name": "name",
      "outputs": [
        {
          "internalType": "string",
          "name": "",
          "type": "string"
        }
      ],
      "stateMutability": "view",
      "type": "function"
    },
    {
      "inputs": [
        {
          "internalType": "bytes32",
          "name": "",
          "type": "bytes32"
        }
      ],
      "name": "nameExists",
      "outputs": [
        {
          "internalType": "bool",
          "name": "",
          "type": "bool"
        }
      ],
      "stateMutability": "view",
      "type": "function"
    },
    {
      "inputs": [],
      "name": "owner",
      "outputs": [
        {
          "internalType": "address",
          "name": "",
          "type": "address"
        }
      ],
      "stateMutability": "view",
      "type": "function"
    },
    {
      "inputs": [
        {
          "internalType": "uint256",
          "name": "tokenId",
          "type": "uint256"
        }
      ],
      "name": "ownerOf",
      "outputs": [
        {
          "internalType": "address",
          "name": "",
          "type": "address"
        }
      ],
      "stateMutability": "view",
      "type": "function"
    },
    {
      "inputs": [],
      "name": "renounceOwnership",
      "outputs": [],
      "stateMutability": "nonpayable",
      "type": "function"
    },
    {
      "inputs": [
        {
          "internalType": "uint256",
          "name": "tokenId",
          "type": "uint256"
        }
      ],
      "name": "revokeIdentity",
      "outputs": [],
      "stateMutability": "nonpayable",
      "type": "function"
    },
    {
      "inputs": [
        {
          "internalType": "uint256",
          "name": "",
          "type": "uint256"
        }
      ],
      "name": "revoked",
      "outputs": [
        {
          "internalType": "bool",
          "name": "",
          "type": "bool"
        }
      ],
      "stateMutability": "view",
      "type": "function"
    },
    {
      "inputs": [
        {
          "internalType": "address",
          "name": "from",
          "type": "address"
        },
        {
          "internalType": "address",
          "name": "to",
          "type": "address"
        },
        {
          "internalType": "uint256",
          "name": "tokenId",
          "type": "uint256"
        }
      ],
      "name": "safeTransferFrom",
      "outputs": [],
      "stateMutability": "nonpayable",
      "type": "function"
    },
    {
      "inputs": [
        {
          "internalType": "address",
          "name": "from",
          "type": "address"
        },
        {
          "internalType": "address",
          "name": "to",
          "type": "address"
        },
        {
          "internalType": "uint256",
          "name": "tokenId",
          "type": "uint256"
        },
        {
          "internalType": "bytes",
          "name": "data",
          "type": "bytes"
        }
      ],
      "name": "safeTransferFrom",
      "outputs": [],
      "stateMutability": "nonpayable",
      "type": "function"
    },
    {
      "inputs": [
        {
          "internalType": "address",
          "name": "operator",
          "type": "address"
        },
        {
          "internalType": "bool",
          "name": "approved",
          "type": "bool"
        }
      ],
      "name": "setApprovalForAll",
      "outputs": [],
      "stateMutability": "nonpayable",
      "type": "function"
    },
    {
      "inputs": [
        {
          "internalType": "address",
          "name": "minter",
          "type": "address"
        },
        {
          "internalType": "bool",
          "name": "allowed",
          "type": "bool"
        }
      ],
      "name": "setMinter",
      "outputs": [],
      "stateMutability": "nonpayable",
      "type": "function"
    },
    {
      "inputs": [
        {
          "internalType": "bytes4",
          "name": "interfaceId",
          "type": "bytes4"
        }
      ],
      "name": "supportsInterface",
      "outputs": [
        {
          "internalType": "bool",
          "name": "",
          "type": "bool"
        }
      ],
      "stateMutability": "view",
      "type": "function"
    },
    {
      "inputs": [],
      "name": "symbol",
      "outputs": [
        {
          "internalType": "string",
          "name": "",
          "type": "string"
        }
      ],
      "stateMutability": "view",
      "type": "function"
    },
    {
      "inputs": [
        {
          "internalType": "uint256",
          "name": "tokenId",
          "type": "uint256"
        }
      ],
      "name": "tokenURI",
      "outputs": [
        {
          "internalType": "string",
          "name": "",
          "type": "string"
        }
      ],
      "stateMutability": "view",
      "type": "function"
    },
    {
      "inputs": [],
      "name": "totalSupply",
      "outputs": [
        {
          "internalType": "uint256",
          "name": "",
          "type": "uint256"
        }
      ],
      "stateMutability": "view",
      "type": "function"
    },
    {
      "inputs": [
        {
          "internalType": "address",
          "name": "from",
          "type": "address"
        },
        {
          "internalType": "address",
          "name": "to",
          "type": "address"
        },
        {
          "internalType": "uint256",
          "name": "tokenId",
          "type": "uint256"
        }
      ],
      "name": "transferFrom",
      "outputs": [],
      "stateMutability": "nonpayable",
      "type": "function"
    },
    {
      "inputs": [
        {
          "internalType": "address",
          "name": "newOwner",
          "type": "address"
        }
      ],
      "name": "transferOwnership",
      "outputs": [],
      "stateMutability": "nonpayable",
      "type": "function"
    }
  ],
  "bytecode": "0x608034620003a6576001600160401b039060408181018381118382101762000390578152601582526020927f566973696f6e204167656e74204964656e7469747900000000000000000000008484015281519082820182811082821117620003905783526005825264159054d09560da1b85830152835181811162000390576000928354916001968784811c9416801562000385575b8985101462000371578190601f948581116200031e575b508990858311600114620002ba578792620002ae575b5050600019600383901b1c191690871b1784555b80519283116200029a5785548681811c911680156200028f575b888210146200027b579081838594931162000226575b5087918311600114620001c2578492620001b6575b5050600019600383901b1c191690841b1783555b3315620001a05760068054336001600160a01b031982168117909255835195600b9290916001600160a01b03167f8be0079c531659141344cd1fd0a4f28419497f9722a3daafe3b4186f6b6457e08580a38460075533835252209060ff1982541617905561205b9081620003ac8239f35b6024915190631e4fbdf760e01b82526004820152fd5b0151905038806200011b565b8685528785208794509190601f198416865b8a8282106200020f5750508411620001f5575b505050811b0183556200012f565b015160001960f88460031b161c19169055388080620001e7565b8385015186558a97909501949384019301620001d4565b909192508685528785208380860160051c8201928a871062000271575b9186958a929594930160051c01915b8281106200026257505062000106565b87815586955089910162000252565b9250819262000243565b634e487b7160e01b85526022600452602485fd5b90607f1690620000f0565b634e487b7160e01b84526041600452602484fd5b015190503880620000c2565b8780528a88208a94509190601f198416895b8d828210620003075750508411620002ed575b505050811b018455620000d6565b015160001960f88460031b161c19169055388080620002df565b8385015186558d97909501949384019301620002cc565b9091508680528987208580850160051c8201928c861062000367575b918b91869594930160051c01915b82811062000358575050620000ac565b8981558594508b910162000348565b925081926200033a565b634e487b7160e01b86526022600452602486fd5b93607f169362000095565b634e487b7160e01b600052604160045260246000fd5b600080fdfe6080604052600436101561001257600080fd5b60003560e01c806301ffc9a7146101d257806306fdde03146101cd578063081812fc146101c8578063095ea7b3146101c3578063143dc3f8146101be57806318160ddd146101b957806323b872dd146101b457806342842e0e146101af578063525f91d8146101aa5780635ccc561e1461015f5780636352211e146101a557806370a08231146101a0578063715018a61461019b57806380a9aed014610196578063864f976f146101915780638da5cb5b1461018c57806395d89b4114610187578063a22cb46514610182578063aa271e1a1461017d578063b45a3c0e14610178578063b80180e714610173578063b88d4fde1461016e578063c87b56dd14610169578063cf456ae714610164578063d5b141e71461015f578063e68dd3421461015a578063e985e9c5146101555763f2fde38b1461015057600080fd5b6112d7565b61127a565b61121f565b6107c3565b6111df565b610f4b565b610ee5565b610e4b565b610e23565b610de4565b610d3e565b610c6a565b610c41565b610a23565b6108db565b61087d565b610824565b6107f4565b610754565b6105cb565b6105b4565b61054f565b61051e565b61041f565b6103b5565b6102d2565b6101ee565b6001600160e01b03198116036101e957565b600080fd5b346101e95760203660031901126101e957602060043561020d816101d7565b63ffffffff60e01b16635a2d1e0760e11b8114908115610233575b506040519015158152f35b6380ac58cd60e01b811491508115610265575b8115610254575b5038610228565b6301ffc9a760e01b1490503861024d565b635b5e139f60e01b81149150610246565b60005b8381106102895750506000910152565b8181015183820152602001610279565b906020916102b281518092818552858086019101610276565b601f01601f1916010190565b9060206102cf928181520190610299565b90565b346101e9576000806003193601126103b257604051908080546102f4816105ff565b80855291600191808316908115610388575060011461032e575b61032a8561031e8187038261068c565b604051918291826102be565b0390f35b80809450527f290decd9548b62a8d60345a988386fc84ba6bc95484008f6362f93160ef3e5635b82841061037057505050810160200161031e8261032a61030e565b80546020858701810191909152909301928101610355565b86955061032a9693506020925061031e94915060ff191682840152151560051b820101929361030e565b80fd5b346101e95760203660031901126101e9576004356103d281611518565b506000526004602052602060018060a01b0360406000205416604051908152f35b600435906001600160a01b03821682036101e957565b602435906001600160a01b03821682036101e957565b346101e95760403660031901126101e9576104386103f3565b6024359061044582611518565b3315158061050b575b806104dd575b6104c5576104c3926104a49181906001600160a01b0385811691167f8c5be1e5ebec7d5bd14f71427d1e84f3dd0314c0f7b2291e5b200ac8c7c3b925600080a46000526004602052604060002090565b80546001600160a01b0319166001600160a01b03909216919091179055565b005b60405163a9fbf51f60e01b8152336004820152602490fd5b506001600160a01b038116600090815260056020908152604080832033845290915290205460ff1615610454565b506001600160a01b03811633141561044e565b346101e95760203660031901126101e957600435600052600a602052602060ff604060002054166040519015158152f35b346101e95760003660031901126101e957600754600019810190811161057a57602090604051908152f35b61179a565b60609060031901126101e9576001600160a01b039060043582811681036101e9579160243590811681036101e9579060443590565b346101e9576104c36105c53661057f565b91611391565b346101e9576104c36105dc3661057f565b90604051926105ea84610670565b600084526105f9838383611391565b336116ed565b90600182811c9216801561062f575b602083101461061957565b634e487b7160e01b600052602260045260246000fd5b91607f169161060e565b634e487b7160e01b600052604160045260246000fd5b6060810190811067ffffffffffffffff82111761066b57604052565b610639565b6020810190811067ffffffffffffffff82111761066b57604052565b90601f8019910116810190811067ffffffffffffffff82111761066b57604052565b90604051918260008254926106c2846105ff565b90818452600194858116908160001461073157506001146106ee575b50506106ec9250038361068c565b565b9093915060005260209081600020936000915b8183106107195750506106ec935082010138806106de565b85548884018501529485019487945091830191610701565b9150506106ec94506020925060ff191682840152151560051b82010138806106de565b346101e95760203660031901126101e95760043560005260086020526107ab6040600020610781816106ae565b906107b96002610793600184016106ae565b92015491604051948594606086526060860190610299565b908482036020860152610299565b9060408301520390f35b346101e95760203660031901126101e957600435600052600c602052602060ff604060002054166040519015158152f35b346101e95760203660031901126101e9576020610812600435611518565b6040516001600160a01b039091168152f35b346101e95760203660031901126101e9576001600160a01b036108456103f3565b1680156108645760005260036020526020604060002054604051908152f35b6040516322718ad960e21b815260006004820152602490fd5b346101e9576000806003193601126103b257610897611365565b600680546001600160a01b0319811690915581906001600160a01b03167f8be0079c531659141344cd1fd0a4f28419497f9722a3daafe3b4186f6b6457e08280a380f35b346101e95760203660031901126101e957600435600090338252600b602052604060ff818420541615806109e0575b6109d057811580156109c4575b6109b557818352600c6020528083205460ff166109a55761099f7f09e41d39f5fbe80f71bc2f0a44e937a0ee3dff62dd07f191a8a461a339891a039161097761096a85600052600c602052604060002090565b805460ff19166001179055565b61099361098e856000526008602052604060002090565b611bd8565b519051918291826102be565b0390a280f35b5163905e710760e01b8152600490fd5b51626f708760e21b8152600490fd5b50600754821015610917565b51633e34a41b60e21b8152600490fd5b506006546001600160a01b031633141561090a565b9181601f840112156101e95782359167ffffffffffffffff83116101e957602083818601950101116101e957565b346101e95760603660031901126101e957610a3c6103f3565b6024359067ffffffffffffffff908183116101e957610a60600493369085016109f5565b90926044359081116101e957610a7990369086016109f5565b33600052600b60205260409460ff8660002054161580610c2c575b610c1c578315610c0c576001600160a01b038516600090815260096020526040902054610bfc57610ace610ac9368684610eae565b611d04565b8651610af081610ae2602082018095611783565b03601f19810183528261068c565b51902096610b12610b0b89600052600a602052604060002090565b5460ff1690565b610bee5761032a61096a88610bb58b8a610bb08b610b8d8c8c610b848d610b596007549c8d9a610b49610b448d6117b0565b600755565b600052600a602052604060002090565b6001600160a01b0388166000908152600960205260409020899055610b7c610e85565b953691610eae565b84523691610eae565b60208201524286820152610bab846000526008602052604060002090565b6118e2565b6119d8565b80518281527f032bc66be43dbccb7487781d168eb7bda224628a3b2c3388bdf69b532a3a161190602090a1519081529081906020820190565b8651639b08112560e01b8152fd5b85516371b95a0b60e01b81528790fd5b8551632ef1310560e01b81528790fd5b8551633e34a41b60e21b81528790fd5b506006546001600160a01b0316331415610a94565b346101e95760003660031901126101e9576006546040516001600160a01b039091168152602090f35b346101e9576000806003193601126103b25760405190806001805491610c8f836105ff565b808652928281169081156103885750600114610cb55761032a8561031e8187038261068c565b92508083527fb10e2d527612073b26eecdfd717e6a320cf44b4afac2b0732d9fcbe2b7fa0cf65b828410610cf757505050810160200161031e8261032a61030e565b80546020858701810191909152909301928101610cdc565b60409060031901126101e9576004356001600160a01b03811681036101e9579060243580151581036101e95790565b346101e957610d4c36610d0f565b6001600160a01b038216918215610dcb5781610d8a610d9b9233600052600560205260406000209060018060a01b0316600052602052604060002090565b9060ff801983541691151516179055565b60405190151581527f17307eab39ab6107e8899845ad3d59bd9653f200f220920489ca2b5937696c3160203392a3005b604051630b61174360e31b815260048101849052602490fd5b346101e95760203660031901126101e9576001600160a01b03610e056103f3565b16600052600b602052602060ff604060002054166040519015158152f35b346101e95760203660031901126101e957610e3f600435611518565b50602060405160018152f35b346101e95760203660031901126101e9576001600160a01b03610e6c6103f3565b1660005260096020526020604060002054604051908152f35b604051906106ec8261064f565b67ffffffffffffffff811161066b57601f01601f191660200190565b929192610eba82610e92565b91610ec8604051938461068c565b8294818452818301116101e9578281602093846000960137010152565b346101e95760803660031901126101e957610efe6103f3565b610f06610409565b906044356064359267ffffffffffffffff84116101e957366023850112156101e957610f3f6104c3943690602481600401359101610eae565b926105f9838383611391565b346101e95760203660031901126101e957600435610f6881611518565b5060005260086020526040600020610f7f90611bd8565b805160208201519160400151610f9490611e08565b6040516f03d913730b6b2911d1120b3b2b73a1d160851b6020820152928392610fc06030850182611783565b7f222c226465736372697074696f6e223a22566973696f6e20436861696e20414981527f204167656e7420536f756c426f756e64204964656e7469747920546f6b656e2060208201526b0a1152540b4d4c4e4c8a488b60a21b6040820152604c016d2261747472696275746573223a5b60901b8152600e017f7b2274726169745f74797065223a224167656e74204e616d65222c2276616c7581526332911d1160e11b602082015260240161107491611783565b62089f4b60ea1b81526003017f7b2274726169745f74797065223a22506c6174666f726d222c2276616c7565228152611d1160f11b60208201526022016110ba91611783565b62089f4b60ea1b81526003017f7b2274726169745f74797065223a224d696e746564204174222c22646973706c81527f61795f74797065223a2264617465222c2276616c7565223a0000000000000000602082015260380161111b91611783565b611f4b60f21b81526002017f7b2274726169745f74797065223a22536f756c426f756e64222c2276616c7565815268223a2274727565227d60b81b6020820152602901615d7d60f01b81526002010390601f1991828101825261117e908261068c565b61118790611f2a565b6040517f646174613a6170706c69636174696f6e2f6a736f6e3b6261736536342c000000602082015291908290603d82016111c191611783565b0390810182526111d1908261068c565b60405161032a8192826102be565b346101e9576104c36111f036610d0f565b906111f9611365565b60018060a01b0316600052600b60205260406000209060ff801983541691151516179055565b346101e95760203660031901126101e95761127061124361123e6103f3565b611c0e565b9193906112626040519586958652608060208701526080860190610299565b908482036040860152610299565b9060608301520390f35b346101e95760403660031901126101e957602060ff6112cb61129a6103f3565b6112a2610409565b6001600160a01b0391821660009081526005865260408082209290931681526020919091522090565b54166040519015158152f35b346101e95760203660031901126101e9576112f06103f3565b6112f8611365565b6001600160a01b0390811690811561134c57600654826bffffffffffffffffffffffff60a01b821617600655167f8be0079c531659141344cd1fd0a4f28419497f9722a3daafe3b4186f6b6457e0600080a3005b604051631e4fbdf760e01b815260006004820152602490fd5b6006546001600160a01b0316330361137957565b60405163118cdaa760e01b8152336004820152602490fd5b6001600160a01b039082821680156114c8576000908582526002602052836040832054166114b657858252600260205260408220548692907fddf252ad1be2c89b69c2b068fc378daa952ba7f163c4a11628f55a4df523b3ef906001600160a01b031691336114a6575b61143e87841698899485611471575b506001600160a01b0381166000908152600360205260409020600181540190556104a4876000526002602052604060002090565b80a4169182820361144e57505050565b60649350604051926364283d7b60e01b8452600484015260248301526044820152fd5b6114989061147e896114f4565b6001600160a01b0316600090815260036020526040902090565b80546000190190553861140a565b6114b1853385611aff565b6113fb565b604051631267838f60e11b8152600490fd5b604051633250574960e11b815260006004820152602490fd5b604051906114ee82610670565b60008252565b611508906000526004602052604060002090565b80546001600160a01b0319169055565b6000818152600260205260409020546001600160a01b031690811561153b575090565b60249060405190637e27328960e01b82526004820152fd5b908160209103126101e957516102cf816101d7565b6102cf939260809260018060a01b031682526000602083015260408201528160608201520190610299565b6001600160a01b0391821681529116602082015260408101919091526080606082018190526102cf92910190610299565b3d156115ef573d906115d582610e92565b916115e3604051938461068c565b82523d6000602084013e565b606090565b91929092833b611605575b50505050565b611629916020916040519384928392630a85bd0160e11b9788855260048501611568565b038160006001600160a01b0388165af1600091816116bd575b5061168157826116506115c4565b805191908261167a57604051633250574960e11b81526001600160a01b0383166004820152602490fd5b6020915001fd5b6001600160e01b0319160361169a5750388080806115ff565b604051633250574960e11b81526001600160a01b03919091166004820152602490fd5b6116df91925060203d81116116e6575b6116d7818361068c565b810190611553565b9038611642565b503d6116cd565b92939193843b6116ff575b5050505050565b6020916117226040519485938493630a85bd0160e11b9889865260048601611593565b038160006001600160a01b0388165af160009181611763575b5061174957826116506115c4565b6001600160e01b0319160361169a575038808080806116f8565b61177c91925060203d81116116e6576116d7818361068c565b903861173b565b9061179660209282815194859201610276565b0190565b634e487b7160e01b600052601160045260246000fd5b600019811461057a5760010190565b90601f81116117cd57505050565b600091825260208220906020601f850160051c83019410611809575b601f0160051c01915b8281106117fe57505050565b8181556001016117f2565b90925082906117e9565b919091825167ffffffffffffffff811161066b5761183b8161183584546105ff565b846117bf565b602080601f831160011461187757508192939460009261186c575b50508160011b916000199060031b1c1916179055565b015190503880611856565b90601f1983169561188d85600052602060002090565b926000905b8882106118ca575050836001959697106118b1575b505050811b019055565b015160001960f88460031b161c191690553880806118a7565b80600185968294968601518155019501930190611892565b908051805167ffffffffffffffff811161066b5761190a8161190486546105ff565b866117bf565b6020918290601f83116001146119625792826002959361195093604096600092611957575b50508160011b916000199060031b1c19161786555b82015160018601611813565b0151910155565b01519050388061192f565b90601f1983169161197887600052602060002090565b9260005b8181106119c157509361195093604096936001938360029a98106119a8575b505050811b018655611944565b015160001960f88460031b161c1916905538808061199b565b92938660018192878601518155019501930161197c565b9190916040928351916119ea83610670565b60008084526001600160a01b038281168015611ae7578483526002602052818884205416611ad6578483526002602052878320548591906001600160a01b03169283168015159384611abb575b506001600160a01b038616600090815260036020526040902060018154019055611a6f866104a4856000526002602052604060002090565b7fddf252ad1be2c89b69c2b068fc378daa952ba7f163c4a11628f55a4df523b3ef8580a4611aa457506106ec939450336115f4565b6024908651906339e3563760e11b82526004820152fd5b611ac89061147e856114f4565b805460001901905538611a37565b8751631267838f60e11b8152600490fd5b8751633250574960e11b815260048101849052602490fd5b6001600160a01b03908282168015159081611b6a575b5015611b215750505050565b16611b3f57604051637e27328960e01b815260048101839052602490fd5b60405163177e802f60e01b81526001600160a01b039190911660048201526024810191909152604490fd5b82841680821492508215611ba2575b508115611b88575b5038611b15565b905084600052600460205282604060002054161438611b81565b909150600052600560205260ff611bcf8560406000209060018060a01b0316600052602052604060002090565b54169038611b79565b90604051611be58161064f565b604060028294611bf4816106ae565b8452611c02600182016106ae565b60208501520154910152565b6001600160a01b03166000908152600960205260408082205492918315611c73578084839252600860205220918151611c468161064f565b611c4f846106ae565b81526002611c5f600186016106ae565b948560208401520154809382015251929190565b8091929350928251611c8481610670565b8281529251611c9281610670565b8281529190565b90611ca382610e92565b611cb0604051918261068c565b8281528092611cc1601f1991610e92565b0190602036910137565b908151811015611cdc570160200190565b634e487b7160e01b600052603260045260246000fd5b60ff60209116019060ff821161057a57565b90611d0f8251611c99565b600092835b8151811015611dd757611da190604160f81b611d51611d44611d368487611ccb565b516001600160f81b03191690565b6001600160f81b03191690565b101580611db3575b15611da657611d8f611d7f611d7a611d74611d368588611ccb565b60f81c90565b611cf2565b60f81b6001600160f81b03191690565b861a611d9b8286611ccb565b536117b0565b611d14565b611d8f611d368285611ccb565b50602d60f91b6001600160f81b0319611dcf611d368487611ccb565b161115611d59565b5090925050565b603001908160301161057a57565b906002820180921161057a57565b906020820180921161057a57565b8015611e84576000818181805b611e6c5750611e2381611c99565b935b611e2f5750505090565b600019810190811161057a578091600a91611e63611e5a611d7f611e54868606611dde565b60ff1690565b861a9187611ccb565b53049081611e25565b9150611e79600a916117b0565b910480849291611e15565b506040516040810181811067ffffffffffffffff82111761066b5760405260018152600360fc1b602082015290565b60405190611ec08261064f565b604082527f6768696a6b6c6d6e6f707172737475767778797a303132333435363738392b2f6040837f4142434445464748494a4b4c4d4e4f505152535455565758595a61626364656660208201520152565b600281901b91906001600160fe1b0381160361057a57565b611f32611eb3565b81511561201b57611f55611f50611f498451611dec565b6003900490565b611f12565b91611f67611f6284611dfa565b611c99565b92600091602085015b838251811015611fd55790600491600380910195840101516001603f9080828460121c168a010151918960ff9384848488600c1c1684010151168585600894868a60061c160101511691831b01821b01901b931689010151160160e01b815201611f70565b509250600391935051068060011461200757600214611ff5575b50815290565b603d60f81b6000199091015238611fef565b50613d3d60f01b6001199091015238611fef565b50506102cf6114e156fea2646970667358221220476ccc50ed513e9ff55b9ddbc7a8c5be3a2e9f3c1073773e2ccbfcbb7f0db45964736f6c63430008140033",
  "linkReferences": {},
  "deployedLinkReferences": {}
}