{
  "_format": "hh-sol-artifact-1",
  "contractName": "VCNVesting",
  "sourceName": "contracts/VCNVesting.sol",
  "abi": [
    {
      "inputs": [
        {
          "internalType": "address",
          "name": "defaultAdmin",
          "type": "address"
        },
        {
          "internalType": "address",
          "name": "vcnTokenAddress",
          "type": "address"
        }
      ],
      "stateMutability": "nonpayable",
      "type": "constructor"
    },
    {
      "anonymous": false,
      "inputs": [
        {
          "indexed": true,
          "internalType": "address",
          "name": "beneficiary",
          "type": "address"
        },
        {
          "indexed": false,
          "internalType": "uint256",
          "name": "amount",
          "type": "uint256"
        }
      ],
      "name": "ConvertedToNode",
      "type": "event"
    },
    {
      "anonymous": false,
      "inputs": [
        {
          "indexed": true,
          "internalType": "bytes32",
          "name": "role",
          "type": "bytes32"
        },
        {
          "indexed": true,
          "internalType": "bytes32",
          "name": "previousAdminRole",
          "type": "bytes32"
        },
        {
          "indexed": true,
          "internalType": "bytes32",
          "name": "newAdminRole",
          "type": "bytes32"
        }
      ],
      "name": "RoleAdminChanged",
      "type": "event"
    },
    {
      "anonymous": false,
      "inputs": [
        {
          "indexed": true,
          "internalType": "bytes32",
          "name": "role",
          "type": "bytes32"
        },
        {
          "indexed": true,
          "internalType": "address",
          "name": "account",
          "type": "address"
        },
        {
          "indexed": true,
          "internalType": "address",
          "name": "sender",
          "type": "address"
        }
      ],
      "name": "RoleGranted",
      "type": "event"
    },
    {
      "anonymous": false,
      "inputs": [
        {
          "indexed": true,
          "internalType": "bytes32",
          "name": "role",
          "type": "bytes32"
        },
        {
          "indexed": true,
          "internalType": "address",
          "name": "account",
          "type": "address"
        },
        {
          "indexed": true,
          "internalType": "address",
          "name": "sender",
          "type": "address"
        }
      ],
      "name": "RoleRevoked",
      "type": "event"
    },
    {
      "anonymous": false,
      "inputs": [
        {
          "indexed": true,
          "internalType": "address",
          "name": "beneficiary",
          "type": "address"
        },
        {
          "indexed": false,
          "internalType": "uint256",
          "name": "amount",
          "type": "uint256"
        }
      ],
      "name": "TokensClaimed",
      "type": "event"
    },
    {
      "anonymous": false,
      "inputs": [
        {
          "indexed": true,
          "internalType": "address",
          "name": "beneficiary",
          "type": "address"
        },
        {
          "indexed": false,
          "internalType": "uint256",
          "name": "totalAmount",
          "type": "uint256"
        },
        {
          "indexed": false,
          "internalType": "uint256",
          "name": "startTime",
          "type": "uint256"
        }
      ],
      "name": "VestingCreated",
      "type": "event"
    },
    {
      "anonymous": false,
      "inputs": [
        {
          "indexed": true,
          "internalType": "address",
          "name": "beneficiary",
          "type": "address"
        },
        {
          "indexed": false,
          "internalType": "uint256",
          "name": "remainingLocked",
          "type": "uint256"
        }
      ],
      "name": "VestingTerminated",
      "type": "event"
    },
    {
      "inputs": [],
      "name": "DEFAULT_ADMIN_ROLE",
      "outputs": [
        {
          "internalType": "bytes32",
          "name": "",
          "type": "bytes32"
        }
      ],
      "stateMutability": "view",
      "type": "function"
    },
    {
      "inputs": [],
      "name": "OPERATOR_ROLE",
      "outputs": [
        {
          "internalType": "bytes32",
          "name": "",
          "type": "bytes32"
        }
      ],
      "stateMutability": "view",
      "type": "function"
    },
    {
      "inputs": [
        {
          "internalType": "address",
          "name": "beneficiary",
          "type": "address"
        }
      ],
      "name": "availableToClaim",
      "outputs": [
        {
          "internalType": "uint256",
          "name": "",
          "type": "uint256"
        }
      ],
      "stateMutability": "view",
      "type": "function"
    },
    {
      "inputs": [],
      "name": "claim",
      "outputs": [],
      "stateMutability": "nonpayable",
      "type": "function"
    },
    {
      "inputs": [
        {
          "internalType": "address",
          "name": "beneficiary",
          "type": "address"
        }
      ],
      "name": "convertToNode",
      "outputs": [],
      "stateMutability": "nonpayable",
      "type": "function"
    },
    {
      "inputs": [
        {
          "internalType": "address",
          "name": "beneficiary",
          "type": "address"
        },
        {
          "internalType": "uint256",
          "name": "totalAmount",
          "type": "uint256"
        },
        {
          "internalType": "uint256",
          "name": "initialUnlockRatio",
          "type": "uint256"
        },
        {
          "internalType": "uint256",
          "name": "cliffMonths",
          "type": "uint256"
        },
        {
          "internalType": "uint256",
          "name": "vestingMonths",
          "type": "uint256"
        },
        {
          "internalType": "uint256",
          "name": "startTime",
          "type": "uint256"
        }
      ],
      "name": "createVestingSchedule",
      "outputs": [],
      "stateMutability": "nonpayable",
      "type": "function"
    },
    {
      "inputs": [
        {
          "internalType": "bytes32",
          "name": "role",
          "type": "bytes32"
        }
      ],
      "name": "getRoleAdmin",
      "outputs": [
        {
          "internalType": "bytes32",
          "name": "",
          "type": "bytes32"
        }
      ],
      "stateMutability": "view",
      "type": "function"
    },
    {
      "inputs": [
        {
          "internalType": "bytes32",
          "name": "role",
          "type": "bytes32"
        },
        {
          "internalType": "address",
          "name": "account",
          "type": "address"
        }
      ],
      "name": "grantRole",
      "outputs": [],
      "stateMutability": "nonpayable",
      "type": "function"
    },
    {
      "inputs": [
        {
          "internalType": "bytes32",
          "name": "role",
          "type": "bytes32"
        },
        {
          "internalType": "address",
          "name": "account",
          "type": "address"
        }
      ],
      "name": "hasRole",
      "outputs": [
        {
          "internalType": "bool",
          "name": "",
          "type": "bool"
        }
      ],
      "stateMutability": "view",
      "type": "function"
    },
    {
      "inputs": [
        {
          "internalType": "bytes32",
          "name": "role",
          "type": "bytes32"
        },
        {
          "internalType": "address",
          "name": "account",
          "type": "address"
        }
      ],
      "name": "renounceRole",
      "outputs": [],
      "stateMutability": "nonpayable",
      "type": "function"
    },
    {
      "inputs": [
        {
          "internalType": "bytes32",
          "name": "role",
          "type": "bytes32"
        },
        {
          "internalType": "address",
          "name": "account",
          "type": "address"
        }
      ],
      "name": "revokeRole",
      "outputs": [],
      "stateMutability": "nonpayable",
      "type": "function"
    },
    {
      "inputs": [
        {
          "internalType": "bytes4",
          "name": "interfaceId",
          "type": "bytes4"
        }
      ],
      "name": "supportsInterface",
      "outputs": [
        {
          "internalType": "bool",
          "name": "",
          "type": "bool"
        }
      ],
      "stateMutability": "view",
      "type": "function"
    },
    {
      "inputs": [],
      "name": "vcnToken",
      "outputs": [
        {
          "internalType": "contract IERC20",
          "name": "",
          "type": "address"
        }
      ],
      "stateMutability": "view",
      "type": "function"
    },
    {
      "inputs": [
        {
          "internalType": "address",
          "name": "",
          "type": "address"
        }
      ],
      "name": "vestingSchedules",
      "outputs": [
        {
          "internalType": "uint256",
          "name": "totalAmount",
          "type": "uint256"
        },
        {
          "internalType": "uint256",
          "name": "releasedAmount",
          "type": "uint256"
        },
        {
          "internalType": "uint256",
          "name": "startTime",
          "type": "uint256"
        },
        {
          "internalType": "uint256",
          "name": "cliffDuration",
          "type": "uint256"
        },
        {
          "internalType": "uint256",
          "name": "vestingDuration",
          "type": "uint256"
        },
        {
          "internalType": "uint256",
          "name": "initialUnlockAmount",
          "type": "uint256"
        },
        {
          "internalType": "uint256",
          "name": "interval",
          "type": "uint256"
        },
        {
          "internalType": "bool",
          "name": "isTerminated",
          "type": "bool"
        }
      ],
      "stateMutability": "view",
      "type": "function"
    }
  ],
  "bytecode": "0x60a06040523480156200001157600080fd5b506040516200123738038062001237833981016040819052620000349162000142565b600180556200004560008362000084565b620000717f97667070c54ef182b0f5858b034beac1b6f3089aa2d3188bb1e8929f4fa9b9298362000084565b6001600160a01b0316608052506200017a565b6000828152602081815260408083206001600160a01b038516845290915290205460ff1662000121576000828152602081815260408083206001600160a01b03851684529091529020805460ff19166001179055620000e03390565b6001600160a01b0316816001600160a01b0316837f2f8788117e7eff1d82e926ec794901d17c78024a50270940304540a733656f0d60405160405180910390a45b5050565b80516001600160a01b03811681146200013d57600080fd5b919050565b600080604083850312156200015657600080fd5b620001618362000125565b9150620001716020840162000125565b90509250929050565b60805161109a6200019d600039600081816101a301526105ba015261109a6000f3fe608060405234801561001057600080fd5b50600436106100ea5760003560e01c80637cbcfb391161008c578063cf3cd54b11610066578063cf3cd54b146101f8578063d547741f1461020b578063f5b541a61461021e578063fdb20ccb1461024557600080fd5b80637cbcfb391461019e57806391d14854146101dd578063a217fddf146101f057600080fd5b80632f2ff15d116100c85780632f2ff15d1461015b57806336568abe146101705780634e71d92d1461018357806362eb06041461018b57600080fd5b806301ffc9a7146100ef5780630da4518814610117578063248a9ca314610138575b600080fd5b6101026100fd366004610dce565b6102d8565b60405190151581526020015b60405180910390f35b61012a610125366004610e14565b61030f565b60405190815260200161010e565b61012a610146366004610e2f565b60009081526020819052604090206001015490565b61016e610169366004610e48565b610472565b005b61016e61017e366004610e48565b61049c565b61016e61051f565b61016e610199366004610e74565b6106ae565b6101c57f000000000000000000000000000000000000000000000000000000000000000081565b6040516001600160a01b03909116815260200161010e565b6101026101eb366004610e48565b6108a5565b61012a600081565b61016e610206366004610e14565b6108ce565b61016e610219366004610e48565b610a4c565b61012a7f97667070c54ef182b0f5858b034beac1b6f3089aa2d3188bb1e8929f4fa9b92981565b61029b610253366004610e14565b60026020819052600091825260409091208054600182015492820154600383015460048401546005850154600686015460079096015494969593949293919290919060ff1688565b604080519889526020890197909752958701949094526060860192909252608085015260a084015260c0830152151560e08201526101000161010e565b60006001600160e01b03198216637965db0b60e01b148061030957506301ffc9a760e01b6001600160e01b03198316145b92915050565b6001600160a01b0381166000908152600260205260408120805415806103395750600781015460ff165b156103475750600092915050565b6002810154429081101561035f575060009392505050565b60058201546003830154600284015460009161037a91610ed4565b905080831061044b57600061038f8285610ee7565b90506000856005015486600001546103a79190610ee7565b9050600086600601546001886006015489600401546103c69190610ed4565b6103d09190610ee7565b6103da9190610efa565b9050866004015483106103f05786549450610447565b60008760060154846104029190610efa565b61040d906001610ed4565b905081811061041f5787549550610445565b600061042b8385610efa565b90506104378183610f1c565b6104419088610ed4565b9650505b505b5050505b835482111561045957835491505b60018401546104689083610ee7565b9695505050505050565b60008281526020819052604090206001015461048d81610a71565b6104978383610a7e565b505050565b6001600160a01b03811633146105115760405162461bcd60e51b815260206004820152602f60248201527f416363657373436f6e74726f6c3a2063616e206f6e6c792072656e6f756e636560448201526e103937b632b9903337b91039b2b63360891b60648201526084015b60405180910390fd5b61051b8282610b02565b5050565b610527610b67565b60006105323361030f565b9050600081116105775760405162461bcd60e51b815260206004820152601060248201526f4e6f7468696e6720746f20636c61696d60801b6044820152606401610508565b3360009081526002602052604081206001018054839290610599908490610ed4565b909155505060405163a9059cbb60e01b8152336004820152602481018290527f00000000000000000000000000000000000000000000000000000000000000006001600160a01b03169063a9059cbb906044016020604051808303816000875af115801561060b573d6000803e3d6000fd5b505050506040513d601f19601f8201168201806040525081019061062f9190610f33565b61066d5760405162461bcd60e51b815260206004820152600f60248201526e151c985b9cd9995c8819985a5b1959608a1b6044820152606401610508565b60405181815233907f896e034966eaaf1adc54acc0f257056febbd300c9e47182cf761982cf1f5e4309060200160405180910390a2506106ac60018055565b565b7f97667070c54ef182b0f5858b034beac1b6f3089aa2d3188bb1e8929f4fa9b9296106d881610a71565b6001600160a01b038716600090815260026020526040902054156107375760405162461bcd60e51b815260206004820152601660248201527556657374696e6720616c72656164792065786973747360501b6044820152606401610508565b60648511156107785760405162461bcd60e51b815260206004820152600d60248201526c496e76616c696420726174696f60981b6044820152606401610508565b600060646107868789610f1c565b6107909190610efa565b9050604051806101000160405280888152602001600081526020018481526020018662278d006107c09190610f1c565b81526020016107d28662278d00610f1c565b8152602080820184905262278d00604080840191909152600060609384018190526001600160a01b038d168082526002808552918390208651815586850151600182015586840151928101929092559385015160038201556080850151600482015560a0850151600582015560c0850151600682015560e0909401516007909401805460ff19169415159490941790935582518a815290810186905290917f9ade76f4385de306666dfb21a52b27d52db0fde8ad0f515fa261f532cac60d21910160405180910390a25050505050505050565b6000918252602082815260408084206001600160a01b0393909316845291905290205460ff1690565b60006108d981610a71565b6001600160a01b038216600090815260026020526040902080546109335760405162461bcd60e51b81526020600482015260116024820152704e6f2076657374696e672065786973747360781b6044820152606401610508565b600781015460ff161561097d5760405162461bcd60e51b8152602060048201526012602482015271105b1c9958591e481d195c9b5a5b985d195960721b6044820152606401610508565b6000816001015461098d8561030f565b6109979190610ed4565b905060008183600001546109ab9190610ee7565b60078401805460ff191660011790556040519091506001600160a01b038616907f0dcddb43d7cfc859ee4c2e77114345443b2a424c129c1fffc945878d5d7dc03c906109fa9084815260200190565b60405180910390a2846001600160a01b03167f4c46d990a60b1fac8aad091ce24dd6e13bc63455d471e8247c0cd112d6d84e2282604051610a3d91815260200190565b60405180910390a25050505050565b600082815260208190526040902060010154610a6781610a71565b6104978383610b02565b610a7b8133610bc0565b50565b610a8882826108a5565b61051b576000828152602081815260408083206001600160a01b03851684529091529020805460ff19166001179055610abe3390565b6001600160a01b0316816001600160a01b0316837f2f8788117e7eff1d82e926ec794901d17c78024a50270940304540a733656f0d60405160405180910390a45050565b610b0c82826108a5565b1561051b576000828152602081815260408083206001600160a01b0385168085529252808320805460ff1916905551339285917ff6391f5c32d9c69d2a47ea670b442974b53935d1edc7fd64eb21e047a839171b9190a45050565b600260015403610bb95760405162461bcd60e51b815260206004820152601f60248201527f5265656e7472616e637947756172643a207265656e7472616e742063616c6c006044820152606401610508565b6002600155565b610bca82826108a5565b61051b57610bd781610c19565b610be2836020610c2b565b604051602001610bf3929190610f79565b60408051601f198184030181529082905262461bcd60e51b825261050891600401610fee565b60606103096001600160a01b03831660145b60606000610c3a836002610f1c565b610c45906002610ed4565b67ffffffffffffffff811115610c5d57610c5d611021565b6040519080825280601f01601f191660200182016040528015610c87576020820181803683370190505b509050600360fc1b81600081518110610ca257610ca2611037565b60200101906001600160f81b031916908160001a905350600f60fb1b81600181518110610cd157610cd1611037565b60200101906001600160f81b031916908160001a9053506000610cf5846002610f1c565b610d00906001610ed4565b90505b6001811115610d78576f181899199a1a9b1b9c1cb0b131b232b360811b85600f1660108110610d3457610d34611037565b1a60f81b828281518110610d4a57610d4a611037565b60200101906001600160f81b031916908160001a90535060049490941c93610d718161104d565b9050610d03565b508315610dc75760405162461bcd60e51b815260206004820181905260248201527f537472696e67733a20686578206c656e67746820696e73756666696369656e746044820152606401610508565b9392505050565b600060208284031215610de057600080fd5b81356001600160e01b031981168114610dc757600080fd5b80356001600160a01b0381168114610e0f57600080fd5b919050565b600060208284031215610e2657600080fd5b610dc782610df8565b600060208284031215610e4157600080fd5b5035919050565b60008060408385031215610e5b57600080fd5b82359150610e6b60208401610df8565b90509250929050565b60008060008060008060c08789031215610e8d57600080fd5b610e9687610df8565b9860208801359850604088013597606081013597506080810135965060a00135945092505050565b634e487b7160e01b600052601160045260246000fd5b8082018082111561030957610309610ebe565b8181038181111561030957610309610ebe565b600082610f1757634e487b7160e01b600052601260045260246000fd5b500490565b808202811582820484141761030957610309610ebe565b600060208284031215610f4557600080fd5b81518015158114610dc757600080fd5b60005b83811015610f70578181015183820152602001610f58565b50506000910152565b7f416363657373436f6e74726f6c3a206163636f756e7420000000000000000000815260008351610fb1816017850160208801610f55565b7001034b99036b4b9b9b4b733903937b6329607d1b6017918401918201528351610fe2816028840160208801610f55565b01602801949350505050565b602081526000825180602084015261100d816040850160208701610f55565b601f01601f19169190910160400192915050565b634e487b7160e01b600052604160045260246000fd5b634e487b7160e01b600052603260045260246000fd5b60008161105c5761105c610ebe565b50600019019056fea2646970667358221220e62dd016a4b4fd242d71a61ba93afe3aeab67c1a4dbec5157f2c745db5280f1564736f6c63430008140033",
  "linkReferences": {},
  "deployedLinkReferences": {}
}